{
  "_format": "hh-sol-artifact-1",
  "contractName": "ValidationLogic",
  "sourceName": "contracts/libraries/logic/ValidationLogic.sol",
  "abi": [
    {
      "inputs": [],
      "name": "REBALANCE_UP_LIQUIDITY_RATE_THRESHOLD",
      "outputs": [
        {
          "internalType": "uint256",
          "name": "",
          "type": "uint256"
        }
      ],
      "stateMutability": "view",
      "type": "function"
    },
    {
      "inputs": [],
      "name": "REBALANCE_UP_USAGE_RATIO_THRESHOLD",
      "outputs": [
        {
          "internalType": "uint256",
          "name": "",
          "type": "uint256"
        }
      ],
      "stateMutability": "view",
      "type": "function"
    },
    {
      "inputs": [
        {
          "internalType": "uint256",
          "name": "amountSent",
          "type": "uint256"
        },
        {
          "internalType": "address",
          "name": "onBehalfOf",
          "type": "address"
        },
        {
          "internalType": "uint256",
          "name": "variableDebt",
          "type": "uint256"
        }
      ],
      "name": "validateRepay",
      "outputs": [],
      "stateMutability": "view",
      "type": "function"
    }
  ],
  "bytecode": "0x61153761003a600b82828239805160001a60731461002d57634e487b7160e01b600052600060045260246000fd5b30600052607381538281f3fe73000000000000000000000000000000000000000030146080604052600436106100875760003560e01c8063abfcc86a11610065578063abfcc86a146100d9578063b139461f146100e2578063ce9aebbe146100f5578063d5c91c581461010857600080fd5b80635494eb8a1461008c5780635d30b37f146100b1578063a0d761bc146100c6575b600080fd5b61009f6b0311d253316c79d37600000081565b60405190815260200160405180910390f35b6100c46100bf3660046111bc565b61011b565b005b6100c46100d436600461123e565b6102ca565b61009f610fa081565b6100c46100f036600461112e565b610391565b6100c4610103366004611275565b61053b565b6100c46101163660046110a9565b6105c5565b60038801546040516370a0823160e01b81523360048201526000916501000000000090046001600160a01b0316906370a082319060240160206040518083038186803b15801561016a57600080fd5b505afa15801561017e573d6000803e3d6000fd5b505050506040513d601f19601f820116820180604052508101906101a29190611226565b90506000811160405180604001604052806002815260200161313960f01b815250906101ea5760405162461bcd60e51b81526004016101e191906112fe565b60405180910390fd5b50868061028557506040516202c1b960e61b815273__$4c26be947d349222af871a3168b3fe584b$__9062b06e4090610235908b90339086908c908c908c908c908c906004016112b9565b60206040518083038186803b15801561024d57600080fd5b505af4158015610261573d6000803e3d6000fd5b505050506040513d601f19601f8201168201806040525081019061028591906111a0565b60405180604001604052806002815260200161032360f41b815250906102be5760405162461bcd60e51b81526004016101e191906112fe565b50505050505050505050565b6040805180820190915260018152603160f81b6020820152836103005760405162461bcd60e51b81526004016101e191906112fe565b50604080518082019091526002815261313560f01b6020820152816103385760405162461bcd60e51b81526004016101e191906112fe565b50600019831415806103525750336001600160a01b038316145b60405180604001604052806002815260200161189b60f11b8152509061038b5760405162461bcd60e51b81526004016101e191906112fe565b50505050565b6001600160a01b03888116600090815260208781526040918290206003015482518084019093526002835261373960f01b91830191909152909165010000000000909104166103f35760405162461bcd60e51b81526004016101e191906112fe565b506040805180820190915260018152603160f81b60208201528761042a5760405162461bcd60e51b81526004016101e191906112fe565b506040805180820190915260018152603560f81b6020820152868811156104645760405162461bcd60e51b81526004016101e191906112fe565b506040516202c1b960e61b815273__$4c26be947d349222af871a3168b3fe584b$__9062b06e40906104a8908b9033908c908b908b908b908b908b906004016112b9565b60206040518083038186803b1580156104c057600080fd5b505af41580156104d4573d6000803e3d6000fd5b505050506040513d601f19601f820116820180604052508101906104f891906111a0565b604051806040016040528060018152602001601b60f91b815250906105305760405162461bcd60e51b81526004016101e191906112fe565b505050505050505050565b6003810154604080518082019091526002815261373960f01b6020820152906501000000000090046001600160a01b03166105895760405162461bcd60e51b81526004016101e191906112fe565b506040805180820190915260018152603160f81b6020820152826105c05760405162461bcd60e51b81526004016101e191906112fe565b505050565b6106056040518060e00160405280600081526020016000815260200160008152602001600081526020016000815260200160008152602001600081525090565b6040805180820190915260018152603160f81b60208201528961063b5760405162461bcd60e51b81526004016101e191906112fe565b5060408051602081019091528654815261065c908b9089908888888861076c565b60c08601526020808601919091529084526080840191909152606083018290526040805180820190915260018152603960f81b91810191909152906106b45760405162461bcd60e51b81526004016101e191906112fe565b50670de0b6b3a76400008160c001511160405180604001604052806002815260200161031360f41b815250906106fd5760405162461bcd60e51b81526004016101e191906112fe565b508051608082015161071a9190610714908b610d17565b90610d2c565b6040808301829052606083015181518083019092526002825261313160f01b60208301529091111561075f5760405162461bcd60e51b81526004016101e191906112fe565b5050505050505050505050565b6000806000806000610811604051806102400160405280600081526020016000815260200160008152602001600081526020016000815260200160008152602001600081526020016000815260200160008152602001600081526020016000815260200160008152602001600081526020016000815260200160001515815260200160006001600160a01b031681526020016000151581526020016000151581525090565b8a51610830576000806000806000199550955095509550955050610d08565b600060e08201525b888160e001511015610c675760e0810151610854908c90610df6565b61085d57610c4f565b60e0810151600090815260208b81526040808320546001600160a01b03166101e085018190528352908e905290206108b1815461ffff80821692601083901c821692602081901c9092169160301c60ff1690565b90508460a0018560c00186608001838152508381525083815250505050876001600160a01b031663434e178f8f8460a001518560c001516040518463ffffffff1660e01b8152600401610922939291906001600160a01b039390931683526020830191909152604082015260600190565b604080518083038186803b15801561093957600080fd5b505afa15801561094d573d6000803e3d6000fd5b505050506040513d601f19601f820116820180604052508101906109719190611296565b60c084015260a0830152608082015161098b90600a6113cc565b60208301526101e082015160405163b3596f0760e01b81526001600160a01b039182166004820152908a169063b3596f079060240160206040518083038186803b1580156109d857600080fd5b505afa1580156109ec573d6000803e3d6000fd5b505050506040513d601f19601f82011682018060405250810190610a109190611226565b825260c082015115801590610a30575060e0820151610a30908d90610e51565b15610b63578060030160059054906101000a90046001600160a01b03166001600160a01b03166370a082318f6040518263ffffffff1660e01b8152600401610a8791906001600160a01b0391909116815260200190565b60206040518083038186803b158015610a9f57600080fd5b505afa158015610ab3573d6000803e3d6000fd5b505050506040513d601f19601f82011682018060405250810190610ad79190611226565b6040830181905260208301518351600092610afc9291610af691610eb7565b90610ec3565b610120840151909150610b0f9082610d17565b61012084015260a0830151610b3590610b29908390610eb7565b61016085015190610d17565b61016084015260c0830151610b5b90610b4f908390610eb7565b61018085015190610d17565b610180840152505b60e0820151610b73908d90610ecf565b15610c4d578060040160009054906101000a90046001600160a01b03166001600160a01b03166370a082318f6040518263ffffffff1660e01b8152600401610bca91906001600160a01b0391909116815260200190565b60206040518083038186803b158015610be257600080fd5b505afa158015610bf6573d6000803e3d6000fd5b505050506040513d601f19601f82011682018060405250810190610c1a9190611226565b6060830181905260208301518351610c4692610c3a9291610af691610eb7565b61014084015190610d17565b6101408301525b505b60e08101805190610c5f826114aa565b905250610838565b600081610120015111610c7b576000610c90565b610120810151610160820151610c9091610ec3565b610160820152610120810151610ca7576000610cbc565b610120810151610180820151610cbc91610ec3565b6101808201819052610120820151610140830151610cd992610f1a565b610100820181905261012082015161014083015161016084015161018090940151919850965091945090925090505b97509750975097509792505050565b6000610d238284611351565b90505b92915050565b604080518082019091526002815261035360f41b602082015260009082610d665760405162461bcd60e51b81526004016101e191906112fe565b506000610d74600284611369565b9050612710610d8582600019611493565b610d8f9190611369565b84111560405180604001604052806002815260200161068760f31b81525090610dcb5760405162461bcd60e51b81526004016101e191906112fe565b508281610dda61271087611474565b610de49190611351565b610dee9190611369565b949350505050565b60006080821060405180604001604052806002815260200161373760f01b81525090610e355760405162461bcd60e51b81526004016101e191906112fe565b50610e41826002611474565b925190921c600316151592915050565b60006080821060405180604001604052806002815260200161373760f01b81525090610e905760405162461bcd60e51b81526004016101e191906112fe565b50610e9c826002611474565b610ea7906001611351565b925190921c600116151592915050565b6000610d238284611474565b6000610d238284611369565b60006080821060405180604001604052806002815260200161373760f01b81525090610f0e5760405162461bcd60e51b81526004016101e191906112fe565b50610ea7826002611474565b600082610f2a5750600019610f41565b610f3e83610f388685610f48565b90610fef565b90505b9392505050565b6000821580610f55575081155b15610f6257506000610d26565b81610f706002612710611369565b610f7c90600019611493565b610f869190611369565b83111560405180604001604052806002815260200161068760f31b81525090610fc25760405162461bcd60e51b81526004016101e191906112fe565b50612710610fd1600282611369565b610fdb8486611474565b610fe59190611351565b610d239190611369565b604080518082019091526002815261035360f41b6020820152600090826110295760405162461bcd60e51b81526004016101e191906112fe565b506000611037600284611369565b9050670de0b6b3a764000061104e82600019611493565b6110589190611369565b84111560405180604001604052806002815260200161068760f31b815250906110945760405162461bcd60e51b81526004016101e191906112fe565b508281610dda670de0b6b3a764000087611474565b60008060008060008060008060006101208a8c0312156110c7578485fd5b89356110d2816114db565b985060208a0135975060408a0135965060608a0135955060808a0135945060a08a0135935060c08a0135925060e08a013561110c816114db565b91506101008a013561111d816114db565b809150509295985092959850929598565b600080600080600080600080610100898b03121561114a578384fd5b8835611155816114db565b97506020890135965060408901359550606089013594506080890135935060a0890135925060c0890135915060e089013561118f816114db565b809150509295985092959890939650565b6000602082840312156111b1578081fd5b8151610f41816114f3565b600080600080600080600080610100898b0312156111d8578384fd5b8835975060208901356111ea816114db565b965060408901356111fa816114f3565b9550606089013594506080890135935060a0890135925060c0890135915060e089013561118f816114db565b600060208284031215611237578081fd5b5051919050565b600080600060608486031215611252578283fd5b833592506020840135611264816114db565b929592945050506040919091013590565b60008060408385031215611287578182fd5b50508035926020909101359150565b600080604083850312156112a8578182fd5b505080516020909101519092909150565b6001600160a01b0398891681529688166020880152604087019590955260608601939093529054608085015260a084015260c083015290911660e08201526101000190565b6000602080835283518082850152825b8181101561132a5785810183015185820160400152820161130e565b8181111561133b5783604083870101525b50601f01601f1916929092016040019392505050565b60008219821115611364576113646114c5565b500190565b60008261138457634e487b7160e01b81526012600452602481fd5b500490565b600181815b808511156113c45781600019048211156113aa576113aa6114c5565b808516156113b757918102915b93841c939080029061138e565b509250929050565b6000610d2383836000826113e257506001610d26565b816113ef57506000610d26565b8160018114611405576002811461140f5761142b565b6001915050610d26565b60ff841115611420576114206114c5565b50506001821b610d26565b5060208310610133831016604e8410600b841016171561144e575081810a610d26565b6114588383611389565b806000190482111561146c5761146c6114c5565b029392505050565b600081600019048311821515161561148e5761148e6114c5565b500290565b6000828210156114a5576114a56114c5565b500390565b60006000198214156114be576114be6114c5565b5060010190565b634e487b7160e01b600052601160045260246000fd5b6001600160a01b03811681146114f057600080fd5b50565b80151581146114f057600080fdfea26469706673582212200a44d4152942cf883726244101c0e40f2e38d74e80fc6792778626e369081d8464736f6c63430008040033",
  "linkReferences": {
    "contracts/libraries/logic/GenericLogic.sol": {
      "GenericLogic": [
        {
          "length": 20,
          "start": 570
        },
        {
          "length": 20,
          "start": 1197
        }
      ]
    }
  },
  "deployedLinkReferences": {
    "contracts/libraries/logic/GenericLogic.sol": {
      "GenericLogic": [
        {
          "length": 20,
          "start": 512
        },
        {
          "length": 20,
          "start": 1139
        }
      ]
    }
  }
}