{
  "_format": "hh-sol-artifact-1",
  "contractName": "ValidationLogic",
  "sourceName": "contracts/libraries/logic/ValidationLogic.sol",
  "abi": [
    {
      "inputs": [],
      "name": "REBALANCE_UP_LIQUIDITY_RATE_THRESHOLD",
      "outputs": [
        {
          "internalType": "uint256",
          "name": "",
          "type": "uint256"
        }
      ],
      "stateMutability": "view",
      "type": "function"
    },
    {
      "inputs": [],
      "name": "REBALANCE_UP_USAGE_RATIO_THRESHOLD",
      "outputs": [
        {
          "internalType": "uint256",
          "name": "",
          "type": "uint256"
        }
      ],
      "stateMutability": "view",
      "type": "function"
    },
    {
      "inputs": [
        {
          "internalType": "uint256",
          "name": "amountSent",
          "type": "uint256"
        },
        {
          "internalType": "address",
          "name": "onBehalfOf",
          "type": "address"
        },
        {
          "internalType": "uint256",
          "name": "variableDebt",
          "type": "uint256"
        }
      ],
      "name": "validateRepay",
      "outputs": [],
      "stateMutability": "view",
      "type": "function"
    }
  ],
  "bytecode": "0x6113a661003a600b82828239805160001a60731461002d57634e487b7160e01b600052600060045260246000fd5b30600052607381538281f3fe73000000000000000000000000000000000000000030146080604052600436106100875760003560e01c8063abfcc86a11610065578063abfcc86a146100d9578063ce9aebbe146100e2578063d09db04a146100f5578063e3ebaeb81461010857600080fd5b80635494eb8a1461008c5780635fa297e5146100b1578063a0d761bc146100c6575b600080fd5b61009f6b0311d253316c79d37600000081565b60405190815260200160405180910390f35b6100c46100bf36600461106a565b61011b565b005b6100c46100d43660046110e8565b6102ca565b61009f610fa081565b6100c46100f036600461111c565b610391565b6100c4610103366004610fe2565b610419565b6100c4610116366004610fe2565b6105c3565b60038801546040516370a0823160e01b8152336004820152600091600160281b90046001600160a01b0316906370a082319060240160206040518083038186803b15801561016857600080fd5b505afa15801561017c573d6000803e3d6000fd5b505050506040513d601f19601f820116820180604052508101906101a091906110d0565b90506000811160405180604001604052806002815260200161313960f01b815250906101e85760405162461bcd60e51b81526004016101df9190611182565b60405180910390fd5b5086806102855750604051633985c10960e21b815273__$4c26be947d349222af871a3168b3fe584b$__9063e617042490610235908b90339086908c908c908c908c908c9060040161113d565b60206040518083038186803b15801561024d57600080fd5b505af4158015610261573d6000803e3d6000fd5b505050506040513d601f19601f82011682018060405250810190610285919061104e565b60405180604001604052806002815260200161032360f41b815250906102be5760405162461bcd60e51b81526004016101df9190611182565b50505050505050505050565b6040805180820190915260018152603160f81b6020820152836103005760405162461bcd60e51b81526004016101df9190611182565b50604080518082019091526002815261313560f01b6020820152816103385760405162461bcd60e51b81526004016101df9190611182565b50600019831415806103525750336001600160a01b038316145b60405180604001604052806002815260200161189b60f11b8152509061038b5760405162461bcd60e51b81526004016101df9190611182565b50505050565b6003810154604080518082019091526002815261373960f01b602082015290600160281b90046001600160a01b03166103dd5760405162461bcd60e51b81526004016101df9190611182565b506040805180820190915260018152603160f81b6020820152826104145760405162461bcd60e51b81526004016101df9190611182565b505050565b6001600160a01b03888116600090815260208781526040918290206003015482518084019093526002835261373960f01b918301919091529091600160281b909104166104795760405162461bcd60e51b81526004016101df9190611182565b506040805180820190915260018152603160f81b6020820152876104b05760405162461bcd60e51b81526004016101df9190611182565b506040805180820190915260018152603560f81b6020820152868811156104ea5760405162461bcd60e51b81526004016101df9190611182565b50604051633985c10960e21b815273__$4c26be947d349222af871a3168b3fe584b$__9063e617042490610530908b9033908c908b908b908b908b908b9060040161113d565b60206040518083038186803b15801561054857600080fd5b505af415801561055c573d6000803e3d6000fd5b505050506040513d601f19601f82011682018060405250810190610580919061104e565b604051806040016040528060018152602001601b60f91b815250906105b85760405162461bcd60e51b81526004016101df9190611182565b505050505050505050565b6106036040518060e00160405280600081526020016000815260200160008152602001600081526020016000815260200160008152602001600081525090565b6040805180820190915260018152603160f81b6020820152886106395760405162461bcd60e51b81526004016101df9190611182565b50604080516020810190915285548152610659908a90889087878761075c565b60c08601526020808601919091529084526080840191909152606083018290526040805180820190915260018152603960f81b91810191909152906106b15760405162461bcd60e51b81526004016101df9190611182565b50670de0b6b3a76400008160c001511160405180604001604052806002815260200161031360f41b815250906106fa5760405162461bcd60e51b81526004016101df9190611182565b50805160808201516107179190610711908a610c34565b90610c49565b6040808301829052606083015181518083019092526002825261313160f01b6020830152909111156102be5760405162461bcd60e51b81526004016101df9190611182565b6000806000806000610801604051806102400160405280600081526020016000815260200160008152602001600081526020016000815260200160008152602001600081526020016000815260200160008152602001600081526020016000815260200160008152602001600081526020016000815260200160001515815260200160006001600160a01b031681526020016000151581526020016000151581525090565b8951610820576000806000806000199550955095509550955050610c26565b600060e08201525b878160e001511015610b855760e0810151610844908b90610d13565b61084d57610b6d565b60e0810151600090815260208a81526040808320546001600160a01b03166101e085018190528352908d905290206108a1815461ffff80821692601083901c821692602081901c9092169160301c60ff1690565b6080860181905260c08601929092525060a08401919091526108c490600a611250565b60208301526101e082015160405163b3596f0760e01b81526001600160a01b0391821660048201529089169063b3596f079060240160206040518083038186803b15801561091157600080fd5b505afa158015610925573d6000803e3d6000fd5b505050506040513d601f19601f8201168201806040525081019061094991906110d0565b825260c082015115801590610969575060e0820151610969908c90610d6e565b15610a815760038101546040516370a0823160e01b81526001600160a01b038f81166004830152600160281b909204909116906370a082319060240160206040518083038186803b1580156109bd57600080fd5b505afa1580156109d1573d6000803e3d6000fd5b505050506040513d601f19601f820116820180604052508101906109f591906110d0565b6040830181905260208301518351600092610a1a9291610a1491610dd4565b90610de0565b610120840151909150610a2d9082610c34565b61012084015260a0830151610a5390610a47908390610dd4565b61016085015190610c34565b61016084015260c0830151610a7990610a6d908390610dd4565b61018085015190610c34565b610180840152505b60e0820151610a91908c90610dec565b15610b6b578060040160009054906101000a90046001600160a01b03166001600160a01b03166370a082318e6040518263ffffffff1660e01b8152600401610ae891906001600160a01b0391909116815260200190565b60206040518083038186803b158015610b0057600080fd5b505afa158015610b14573d6000803e3d6000fd5b505050506040513d601f19601f82011682018060405250810190610b3891906110d0565b6060830181905260208301518351610b6492610b589291610a1491610dd4565b61014084015190610c34565b6101408301525b505b60e08101805190610b7d8261132e565b905250610828565b600081610120015111610b99576000610bae565b610120810151610160820151610bae91610de0565b610160820152610120810151610bc5576000610bda565b610120810151610180820151610bda91610de0565b6101808201819052610120820151610140830151610bf792610e37565b610100820181905261012082015161014083015161016084015161018090940151919850965091945090925090505b965096509650965096915050565b6000610c4082846111d5565b90505b92915050565b604080518082019091526002815261035360f41b602082015260009082610c835760405162461bcd60e51b81526004016101df9190611182565b506000610c916002846111ed565b9050612710610ca282600019611317565b610cac91906111ed565b84111560405180604001604052806002815260200161068760f31b81525090610ce85760405162461bcd60e51b81526004016101df9190611182565b508281610cf7612710876112f8565b610d0191906111d5565b610d0b91906111ed565b949350505050565b60006080821060405180604001604052806002815260200161373760f01b81525090610d525760405162461bcd60e51b81526004016101df9190611182565b50610d5e8260026112f8565b925190921c600316151592915050565b60006080821060405180604001604052806002815260200161373760f01b81525090610dad5760405162461bcd60e51b81526004016101df9190611182565b50610db98260026112f8565b610dc49060016111d5565b925190921c600116151592915050565b6000610c4082846112f8565b6000610c4082846111ed565b60006080821060405180604001604052806002815260200161373760f01b81525090610e2b5760405162461bcd60e51b81526004016101df9190611182565b50610dc48260026112f8565b600082610e475750600019610e5e565b610e5b83610e558685610e65565b90610f0c565b90505b9392505050565b6000821580610e72575081155b15610e7f57506000610c43565b81610e8d60026127106111ed565b610e9990600019611317565b610ea391906111ed565b83111560405180604001604052806002815260200161068760f31b81525090610edf5760405162461bcd60e51b81526004016101df9190611182565b50612710610eee6002826111ed565b610ef884866112f8565b610f0291906111d5565b610c4091906111ed565b604080518082019091526002815261035360f41b602082015260009082610f465760405162461bcd60e51b81526004016101df9190611182565b506000610f546002846111ed565b9050670de0b6b3a7640000610f6b82600019611317565b610f7591906111ed565b84111560405180604001604052806002815260200161068760f31b81525090610fb15760405162461bcd60e51b81526004016101df9190611182565b508281610cf7670de0b6b3a7640000876112f8565b80356001600160a01b0381168114610fdd57600080fd5b919050565b600080600080600080600080610100898b031215610ffe578384fd5b61100789610fc6565b97506020890135965060408901359550606089013594506080890135935060a0890135925060c0890135915061103f60e08a01610fc6565b90509295985092959890939650565b60006020828403121561105f578081fd5b8151610e5e8161135f565b600080600080600080600080610100898b031215611086578384fd5b8835975061109660208a01610fc6565b965060408901356110a68161135f565b9550606089013594506080890135935060a0890135925060c0890135915061103f60e08a01610fc6565b6000602082840312156110e1578081fd5b5051919050565b6000806000606084860312156110fc578283fd5b8335925061110c60208501610fc6565b9150604084013590509250925092565b6000806040838503121561112e578182fd5b50508035926020909101359150565b6001600160a01b0398891681529688166020880152604087019590955260608601939093529054608085015260a084015260c083015290911660e08201526101000190565b6000602080835283518082850152825b818110156111ae57858101830151858201604001528201611192565b818111156111bf5783604083870101525b50601f01601f1916929092016040019392505050565b600082198211156111e8576111e8611349565b500190565b60008261120857634e487b7160e01b81526012600452602481fd5b500490565b600181815b8085111561124857816000190482111561122e5761122e611349565b8085161561123b57918102915b93841c9390800290611212565b509250929050565b6000610c40838360008261126657506001610c43565b8161127357506000610c43565b81600181146112895760028114611293576112af565b6001915050610c43565b60ff8411156112a4576112a4611349565b50506001821b610c43565b5060208310610133831016604e8410600b84101617156112d2575081810a610c43565b6112dc838361120d565b80600019048211156112f0576112f0611349565b029392505050565b600081600019048311821515161561131257611312611349565b500290565b60008282101561132957611329611349565b500390565b600060001982141561134257611342611349565b5060010190565b634e487b7160e01b600052601160045260246000fd5b801515811461136d57600080fd5b5056fea2646970667358221220c78aa9029e1c467ea04d74f33e58c5bbcd3d5329760088876d7419c678e5fc2564736f6c63430008040033",
  "linkReferences": {
    "contracts/libraries/logic/GenericLogic.sol": {
      "GenericLogic": [
        {
          "length": 20,
          "start": 569
        },
        {
          "length": 20,
          "start": 1332
        }
      ]
    }
  },
  "deployedLinkReferences": {
    "contracts/libraries/logic/GenericLogic.sol": {
      "GenericLogic": [
        {
          "length": 20,
          "start": 511
        },
        {
          "length": 20,
          "start": 1274
        }
      ]
    }
  }
}