{
  "_format": "hh-sol-artifact-1",
  "contractName": "LendingPool",
  "sourceName": "contracts/lendingpool/LendingPool.sol",
  "abi": [
    {
      "inputs": [
        {
          "internalType": "contract IAddressesProvider",
          "name": "provider",
          "type": "address"
        }
      ],
      "stateMutability": "nonpayable",
      "type": "constructor"
    },
    {
      "anonymous": false,
      "inputs": [
        {
          "indexed": true,
          "internalType": "address",
          "name": "reserve",
          "type": "address"
        },
        {
          "indexed": false,
          "internalType": "address",
          "name": "user",
          "type": "address"
        },
        {
          "indexed": true,
          "internalType": "address",
          "name": "onBehalfOf",
          "type": "address"
        },
        {
          "indexed": false,
          "internalType": "uint256",
          "name": "amount",
          "type": "uint256"
        },
        {
          "indexed": false,
          "internalType": "uint256",
          "name": "borrowRate",
          "type": "uint256"
        }
      ],
      "name": "Borrow",
      "type": "event"
    },
    {
      "anonymous": false,
      "inputs": [
        {
          "indexed": true,
          "internalType": "address",
          "name": "reserve",
          "type": "address"
        },
        {
          "indexed": false,
          "internalType": "address",
          "name": "user",
          "type": "address"
        },
        {
          "indexed": true,
          "internalType": "address",
          "name": "onBehalfOf",
          "type": "address"
        },
        {
          "indexed": false,
          "internalType": "uint256",
          "name": "amount",
          "type": "uint256"
        }
      ],
      "name": "Deposit",
      "type": "event"
    },
    {
      "anonymous": false,
      "inputs": [
        {
          "indexed": true,
          "internalType": "address",
          "name": "collateralAsset",
          "type": "address"
        },
        {
          "indexed": true,
          "internalType": "address",
          "name": "debtAsset",
          "type": "address"
        },
        {
          "indexed": true,
          "internalType": "address",
          "name": "user",
          "type": "address"
        },
        {
          "indexed": false,
          "internalType": "uint256",
          "name": "debtToCover",
          "type": "uint256"
        },
        {
          "indexed": false,
          "internalType": "uint256",
          "name": "liquidatedCollateralAmount",
          "type": "uint256"
        },
        {
          "indexed": false,
          "internalType": "address",
          "name": "liquidator",
          "type": "address"
        },
        {
          "indexed": false,
          "internalType": "bool",
          "name": "receiveAToken",
          "type": "bool"
        }
      ],
      "name": "LiquidationCall",
      "type": "event"
    },
    {
      "anonymous": false,
      "inputs": [
        {
          "indexed": true,
          "internalType": "address",
          "name": "reserve",
          "type": "address"
        },
        {
          "indexed": true,
          "internalType": "address",
          "name": "user",
          "type": "address"
        },
        {
          "indexed": true,
          "internalType": "address",
          "name": "repayer",
          "type": "address"
        },
        {
          "indexed": false,
          "internalType": "uint256",
          "name": "amount",
          "type": "uint256"
        }
      ],
      "name": "Repay",
      "type": "event"
    },
    {
      "anonymous": false,
      "inputs": [
        {
          "indexed": true,
          "internalType": "address",
          "name": "reserve",
          "type": "address"
        },
        {
          "indexed": false,
          "internalType": "uint256",
          "name": "liquidityRate",
          "type": "uint256"
        },
        {
          "indexed": false,
          "internalType": "uint256",
          "name": "variableBorrowRate",
          "type": "uint256"
        },
        {
          "indexed": false,
          "internalType": "uint256",
          "name": "liquidityIndex",
          "type": "uint256"
        },
        {
          "indexed": false,
          "internalType": "uint256",
          "name": "variableBorrowIndex",
          "type": "uint256"
        }
      ],
      "name": "ReserveDataUpdated",
      "type": "event"
    },
    {
      "anonymous": false,
      "inputs": [
        {
          "indexed": true,
          "internalType": "address",
          "name": "reserve",
          "type": "address"
        },
        {
          "indexed": true,
          "internalType": "address",
          "name": "user",
          "type": "address"
        }
      ],
      "name": "ReserveUsedAsCollateralDisabled",
      "type": "event"
    },
    {
      "anonymous": false,
      "inputs": [
        {
          "indexed": true,
          "internalType": "address",
          "name": "reserve",
          "type": "address"
        },
        {
          "indexed": true,
          "internalType": "address",
          "name": "user",
          "type": "address"
        }
      ],
      "name": "ReserveUsedAsCollateralEnabled",
      "type": "event"
    },
    {
      "anonymous": false,
      "inputs": [
        {
          "indexed": true,
          "internalType": "address",
          "name": "reserve",
          "type": "address"
        },
        {
          "indexed": true,
          "internalType": "address",
          "name": "user",
          "type": "address"
        },
        {
          "indexed": true,
          "internalType": "address",
          "name": "to",
          "type": "address"
        },
        {
          "indexed": false,
          "internalType": "uint256",
          "name": "amount",
          "type": "uint256"
        }
      ],
      "name": "Withdraw",
      "type": "event"
    },
    {
      "inputs": [],
      "name": "MAX_NUMBER_RESERVES",
      "outputs": [
        {
          "internalType": "uint256",
          "name": "",
          "type": "uint256"
        }
      ],
      "stateMutability": "view",
      "type": "function"
    },
    {
      "inputs": [
        {
          "internalType": "address",
          "name": "asset",
          "type": "address"
        },
        {
          "internalType": "uint256",
          "name": "amount",
          "type": "uint256"
        },
        {
          "internalType": "address",
          "name": "onBehalfOf",
          "type": "address"
        }
      ],
      "name": "borrow",
      "outputs": [],
      "stateMutability": "nonpayable",
      "type": "function"
    },
    {
      "inputs": [
        {
          "internalType": "address",
          "name": "asset",
          "type": "address"
        },
        {
          "internalType": "uint256",
          "name": "amount",
          "type": "uint256"
        },
        {
          "internalType": "address",
          "name": "onBehalfOf",
          "type": "address"
        }
      ],
      "name": "deposit",
      "outputs": [],
      "stateMutability": "nonpayable",
      "type": "function"
    },
    {
      "inputs": [
        {
          "internalType": "address",
          "name": "asset",
          "type": "address"
        },
        {
          "internalType": "address",
          "name": "from",
          "type": "address"
        },
        {
          "internalType": "address",
          "name": "to",
          "type": "address"
        },
        {
          "internalType": "uint256",
          "name": "amount",
          "type": "uint256"
        },
        {
          "internalType": "uint256",
          "name": "balanceFromBefore",
          "type": "uint256"
        },
        {
          "internalType": "uint256",
          "name": "balanceToBefore",
          "type": "uint256"
        }
      ],
      "name": "finalizeTransfer",
      "outputs": [],
      "stateMutability": "nonpayable",
      "type": "function"
    },
    {
      "inputs": [],
      "name": "getAddressesProvider",
      "outputs": [
        {
          "internalType": "contract IAddressesProvider",
          "name": "",
          "type": "address"
        }
      ],
      "stateMutability": "view",
      "type": "function"
    },
    {
      "inputs": [
        {
          "internalType": "address",
          "name": "asset",
          "type": "address"
        }
      ],
      "name": "getConfiguration",
      "outputs": [
        {
          "components": [
            {
              "internalType": "uint256",
              "name": "data",
              "type": "uint256"
            }
          ],
          "internalType": "struct DataTypes.ReserveConfigurationMap",
          "name": "",
          "type": "tuple"
        }
      ],
      "stateMutability": "view",
      "type": "function"
    },
    {
      "inputs": [
        {
          "internalType": "address",
          "name": "asset",
          "type": "address"
        }
      ],
      "name": "getReserveData",
      "outputs": [
        {
          "components": [
            {
              "components": [
                {
                  "internalType": "uint256",
                  "name": "data",
                  "type": "uint256"
                }
              ],
              "internalType": "struct DataTypes.ReserveConfigurationMap",
              "name": "configuration",
              "type": "tuple"
            },
            {
              "internalType": "uint128",
              "name": "liquidityIndex",
              "type": "uint128"
            },
            {
              "internalType": "uint128",
              "name": "variableBorrowIndex",
              "type": "uint128"
            },
            {
              "internalType": "uint128",
              "name": "currentLiquidityRate",
              "type": "uint128"
            },
            {
              "internalType": "uint128",
              "name": "currentVariableBorrowRate",
              "type": "uint128"
            },
            {
              "internalType": "uint40",
              "name": "lastUpdateTimestamp",
              "type": "uint40"
            },
            {
              "internalType": "address",
              "name": "aTokenAddress",
              "type": "address"
            },
            {
              "internalType": "address",
              "name": "variableDebtTokenAddress",
              "type": "address"
            },
            {
              "internalType": "address",
              "name": "interestRateStrategyAddress",
              "type": "address"
            },
            {
              "internalType": "uint8",
              "name": "id",
              "type": "uint8"
            }
          ],
          "internalType": "struct DataTypes.ReserveData",
          "name": "",
          "type": "tuple"
        }
      ],
      "stateMutability": "view",
      "type": "function"
    },
    {
      "inputs": [
        {
          "internalType": "address",
          "name": "asset",
          "type": "address"
        }
      ],
      "name": "getReserveNormalizedIncome",
      "outputs": [
        {
          "internalType": "uint256",
          "name": "",
          "type": "uint256"
        }
      ],
      "stateMutability": "view",
      "type": "function"
    },
    {
      "inputs": [
        {
          "internalType": "address",
          "name": "asset",
          "type": "address"
        }
      ],
      "name": "getReserveNormalizedVariableDebt",
      "outputs": [
        {
          "internalType": "uint256",
          "name": "",
          "type": "uint256"
        }
      ],
      "stateMutability": "view",
      "type": "function"
    },
    {
      "inputs": [],
      "name": "getReservesList",
      "outputs": [
        {
          "internalType": "address[]",
          "name": "",
          "type": "address[]"
        }
      ],
      "stateMutability": "view",
      "type": "function"
    },
    {
      "inputs": [
        {
          "internalType": "address",
          "name": "user",
          "type": "address"
        }
      ],
      "name": "getUserAccountData",
      "outputs": [
        {
          "internalType": "uint256",
          "name": "totalCollateralETH",
          "type": "uint256"
        },
        {
          "internalType": "uint256",
          "name": "totalDebtETH",
          "type": "uint256"
        },
        {
          "internalType": "uint256",
          "name": "availableBorrowsETH",
          "type": "uint256"
        },
        {
          "internalType": "uint256",
          "name": "currentLiquidationThreshold",
          "type": "uint256"
        },
        {
          "internalType": "uint256",
          "name": "ltv",
          "type": "uint256"
        },
        {
          "internalType": "uint256",
          "name": "healthFactor",
          "type": "uint256"
        }
      ],
      "stateMutability": "view",
      "type": "function"
    },
    {
      "inputs": [
        {
          "internalType": "address",
          "name": "user",
          "type": "address"
        }
      ],
      "name": "getUserConfiguration",
      "outputs": [
        {
          "components": [
            {
              "internalType": "uint256",
              "name": "data",
              "type": "uint256"
            }
          ],
          "internalType": "struct DataTypes.UserConfigurationMap",
          "name": "",
          "type": "tuple"
        }
      ],
      "stateMutability": "view",
      "type": "function"
    },
    {
      "inputs": [
        {
          "internalType": "address",
          "name": "user",
          "type": "address"
        }
      ],
      "name": "getUserIsBorrowingAny",
      "outputs": [
        {
          "internalType": "bool",
          "name": "isBorrowingAny",
          "type": "bool"
        }
      ],
      "stateMutability": "view",
      "type": "function"
    },
    {
      "inputs": [
        {
          "internalType": "address",
          "name": "user",
          "type": "address"
        },
        {
          "internalType": "address",
          "name": "asset",
          "type": "address"
        }
      ],
      "name": "getUserReserveStatus",
      "outputs": [
        {
          "internalType": "bool",
          "name": "isBorrowing",
          "type": "bool"
        },
        {
          "internalType": "bool",
          "name": "isUsingAsCollateral",
          "type": "bool"
        }
      ],
      "stateMutability": "view",
      "type": "function"
    },
    {
      "inputs": [
        {
          "internalType": "address",
          "name": "asset",
          "type": "address"
        },
        {
          "internalType": "address",
          "name": "aTokenAddress",
          "type": "address"
        },
        {
          "internalType": "address",
          "name": "variableDebtAddress",
          "type": "address"
        },
        {
          "internalType": "address",
          "name": "interestRateStrategyAddress",
          "type": "address"
        },
        {
          "internalType": "uint256",
          "name": "ltv",
          "type": "uint256"
        },
        {
          "internalType": "uint256",
          "name": "liquidationThreshold",
          "type": "uint256"
        },
        {
          "internalType": "uint256",
          "name": "liquidationBonus",
          "type": "uint256"
        },
        {
          "internalType": "uint8",
          "name": "decimals",
          "type": "uint8"
        }
      ],
      "name": "initReserve",
      "outputs": [],
      "stateMutability": "nonpayable",
      "type": "function"
    },
    {
      "inputs": [
        {
          "internalType": "address",
          "name": "collateralAsset",
          "type": "address"
        },
        {
          "internalType": "address",
          "name": "debtAsset",
          "type": "address"
        },
        {
          "internalType": "address",
          "name": "user",
          "type": "address"
        },
        {
          "internalType": "uint256",
          "name": "debtToCover",
          "type": "uint256"
        },
        {
          "internalType": "bool",
          "name": "receiveAToken",
          "type": "bool"
        }
      ],
      "name": "liquidationCall",
      "outputs": [],
      "stateMutability": "nonpayable",
      "type": "function"
    },
    {
      "inputs": [
        {
          "internalType": "address",
          "name": "asset",
          "type": "address"
        },
        {
          "internalType": "uint256",
          "name": "amount",
          "type": "uint256"
        },
        {
          "internalType": "address",
          "name": "onBehalfOf",
          "type": "address"
        }
      ],
      "name": "repay",
      "outputs": [
        {
          "internalType": "uint256",
          "name": "",
          "type": "uint256"
        }
      ],
      "stateMutability": "nonpayable",
      "type": "function"
    },
    {
      "inputs": [
        {
          "internalType": "address",
          "name": "asset",
          "type": "address"
        },
        {
          "internalType": "uint256",
          "name": "configuration",
          "type": "uint256"
        }
      ],
      "name": "setConfiguration",
      "outputs": [],
      "stateMutability": "nonpayable",
      "type": "function"
    },
    {
      "inputs": [
        {
          "internalType": "address",
          "name": "asset",
          "type": "address"
        },
        {
          "internalType": "address",
          "name": "rateStrategyAddress",
          "type": "address"
        }
      ],
      "name": "setReserveInterestRateStrategyAddress",
      "outputs": [],
      "stateMutability": "nonpayable",
      "type": "function"
    },
    {
      "inputs": [
        {
          "internalType": "address",
          "name": "asset",
          "type": "address"
        },
        {
          "internalType": "bool",
          "name": "useAsCollateral",
          "type": "bool"
        }
      ],
      "name": "setUserUseReserveAsCollateral",
      "outputs": [],
      "stateMutability": "nonpayable",
      "type": "function"
    },
    {
      "inputs": [
        {
          "internalType": "address",
          "name": "asset",
          "type": "address"
        },
        {
          "internalType": "uint256",
          "name": "amount",
          "type": "uint256"
        },
        {
          "internalType": "address",
          "name": "to",
          "type": "address"
        }
      ],
      "name": "withdraw",
      "outputs": [
        {
          "internalType": "uint256",
          "name": "",
          "type": "uint256"
        }
      ],
      "stateMutability": "nonpayable",
      "type": "function"
    }
  ],
  "bytecode": "0x60806040523480156200001157600080fd5b506040516200434e3803806200434e83398101604081905262000034916200005f565b600080546001600160a01b0319166001600160a01b039290921691909117905560806005556200008f565b60006020828403121562000071578081fd5b81516001600160a01b038116811462000088578182fd5b9392505050565b6142af806200009f6000396000f3fe608060405234801561001057600080fd5b50600436106101365760003560e01c80639835159c116100b8578063d15e00531161007c578063d15e005314610496578063d1946dbc146104a9578063d5ed3933146104be578063f45346dc146104d1578063f8119d51146104e4578063fe65acfe146104ec57600080fd5b80639835159c146103b4578063a3aefba2146103c7578063b8d29276146103ea578063bf92857c14610414578063c44b11f71461045457600080fd5b80634417a583116100ff5780634417a583146103175780635a3b74b9146103685780635ceae9c41461037b57806369328dec1461038e5780636c665a55146103a157600080fd5b8062a718a91461013b5780631d2118f91461015057806335ea6a751461018f578063384c88c5146102cc578063386497fd146102f6575b600080fd5b61014e610149366004613c77565b610507565b005b61014e61015e366004613bad565b6001600160a01b03918216600090815260016020526040902060050180546001600160a01b03191691909216179055565b6102b661019d366004613b75565b604080516101608101825260006101408201818152825260208201819052918101829052606081018290526080810182905260a0810182905260c0810182905260e081018290526101008101829052610120810191909152506001600160a01b03908116600090815260016020818152604092839020835161016081018552815461014082019081528152928101546001600160801b0380821693850193909352600160801b908190048316948401949094526002810154808316606085015293909304166080820152600382015464ffffffffff811660a0830152600160281b9004831660c08201526004820154831660e0820152600590910154918216610100820152600160a01b90910460ff1661012082015290565b6040516102c39190613f6f565b60405180910390f35b6102df6102da366004613bad565b610e44565b6040805192151583529015156020830152016102c3565b610309610304366004613b75565b610f4f565b6040519081526020016102c3565b610359610325366004613b75565b60408051602080820183526000918290526001600160a01b0393909316815260028352819020815192830190915254815290565b604051905181526020016102c3565b61014e610376366004613d42565b610f76565b610309610389366004613d9a565b611144565b61030961039c366004613d9a565b611488565b61014e6103af366004613d9a565b611798565b61014e6103c2366004613be5565b611bb0565b6103da6103d5366004613b75565b611cf7565b60405190151581526020016102c3565b61014e6103f8366004613d6f565b6001600160a01b03909116600090815260016020526040902055565b610427610422366004613b75565b611d47565b604080519687526020870195909552938501929092526060840152608083015260a082015260c0016102c3565b610359610462366004613b75565b60408051602080820183526000918290526001600160a01b0393909316815260018352819020815192830190915254815290565b6103096104a4366004613b75565b611e04565b6104b1611e25565b6040516102c39190613eef565b61014e6104cc366004613cde565b611ef8565b61014e6104df366004613d9a565b61211c565b600554610309565b6000546040516001600160a01b0390911681526020016102c3565b6001600160a01b0380861660009081526001602052604080822087841683529120600382015491929091600160281b9004161580159061055a57506003810154600160281b90046001600160a01b031615155b60405180604001604052806002815260200161373960f01b8152509061059c5760405162461bcd60e51b81526004016105939190613f3c565b60405180910390fd5b50600060026000876001600160a01b03166001600160a01b0316815260200190815260200160002090506106356040518061018001604052806000815260200160008152602001600081526020016000815260200160008152602001600081526020016000815260200160008152602001600081526020016000815260200160006001600160a01b031681526020016000151581525090565b604080516020808201835284548252600480546000548551631f94a27560e31b815295516106cf968e966001969095600395946001600160a01b03169363fca513a893808301939290829003018186803b15801561069257600080fd5b505afa1580156106a6573d6000803e3d6000fd5b505050506040513d601f19601f820116820180604052508101906106ca9190613b91565b61232e565b610100860152505050506004838101546040516370a0823160e01b81526001600160a01b038a8116938201939093529116906370a082319060240160206040518083038186803b15801561072257600080fd5b505afa158015610736573d6000803e3d6000fd5b505050506040513d601f19601f8201168201806040525081019061075a9190613df7565b602082018190526101008201516107749186918591612800565b6003840154600160281b90046001600160a01b0390811661014083018190526040516370a0823160e01b81529189166004830152906370a082319060240160206040518083038186803b1580156107ca57600080fd5b505afa1580156107de573d6000803e3d6000fd5b505050506040513d601f19601f820116820180604052508101906108029190613df7565b81526020810151610815906113886128e9565b604082018190528611610828578561082e565b80604001515b60608201819052815161084991869186918d918d9190612990565b60e0830181905260c08301919091526060820151111561086e5760e081015160608201525b8461093b576101408101516040516370a0823160e01b81526001600160a01b0391821660048201526000918b16906370a082319060240160206040518083038186803b1580156108bd57600080fd5b505afa1580156108d1573d6000803e3d6000fd5b505050506040513d601f19601f820116820180604052508101906108f59190613df7565b90508160c0015181101560405180604001604052806002815260200161343560f01b815250906109385760405162461bcd60e51b81526004016105939190613f3c565b50505b61094483612c74565b60048381015460608301516001860154604051637a94c56560e11b81526001600160a01b039093169363f5298aca93610993938d939092600160801b9091046001600160801b03169101613e7f565b600060405180830381600087803b1580156109ad57600080fd5b505af11580156109c1573d6000803e3d6000fd5b50505050600383015460608201516109ef9185918b91600160281b90046001600160a01b0316906000612d34565b8415610b51576101408101516040516370a0823160e01b81523360048201526001600160a01b03909116906370a082319060240160206040518083038186803b158015610a3b57600080fd5b505afa158015610a4f573d6000803e3d6000fd5b505050506040513d601f19601f82011682018060405250810190610a739190613df7565b61012082015261014081015160c082015160405163f866c31960e01b81526001600160a01b038a81166004830152336024830152604482019290925291169063f866c31990606401600060405180830381600087803b158015610ad557600080fd5b505af1158015610ae9573d6000803e3d6000fd5b5050505080610120015160001415610b4c573360009081526002602052604090206005850154610b26908290600160a01b900460ff166001612fbe565b60405133906001600160a01b038c169060008051602061425a83398151915290600090a3505b610bf3565b610b5a84612c74565b61014081015160c0820151610b769186918c9190600090612d34565b61014081015160c08201516001860154604051636b81068560e11b81526001600160a01b039093169263d7020d0a92610bc0928c923392916001600160801b031690600401613e4e565b600060405180830381600087803b158015610bda57600080fd5b505af1158015610bee573d6000803e3d6000fd5b505050505b805160c08201511415610c4b576005840154610c1c908390600160a01b900460ff166000612fbe565b866001600160a01b0316896001600160a01b031660008051602061423a83398151915260405160405180910390a35b60008054906101000a90046001600160a01b03166001600160a01b031663ad5c46486040518163ffffffff1660e01b815260040160206040518083038186803b158015610c9757600080fd5b505afa158015610cab573d6000803e3d6000fd5b505050506040513d601f19601f82011682018060405250810190610ccf9190613b91565b6001600160a01b0316886001600160a01b03161415610d8957600383015460608201516040516323b872dd60e01b8152336004820152600160281b9092046001600160a01b03908116602484015260448301919091528916906323b872dd90606401602060405180830381600087803b158015610d4b57600080fd5b505af1158015610d5f573d6000803e3d6000fd5b505050506040513d601f19601f82011682018060405250810190610d839190613ddb565b50610db5565b60038301546060820151610db5916001600160a01b038b8116923392600160281b90049091169061304a565b866001600160a01b0316886001600160a01b03168a6001600160a01b03167fe413a321e8681d831f4dbccbca790d2952b56f977908e45be37335533e00528684606001518560c00151338b604051610e31949392919093845260208401929092526001600160a01b031660408301521515606082015260800190565b60405180910390a4505050505050505050565b6001600160a01b038082166000908152600160208181526040808420815161016081018352815461014082019081528152938101546001600160801b0380821686860152600160801b91829004811686850152600280840154808316606089015292909204166080860152600382015464ffffffffff811660a0870152600160281b9004871660c08601526004820154871660e086015260059091015480871661010086015260ff600160a01b909104811661012086019081529689168652908352818520825193840190925290548252935192938493610f27918391166130aa565b9350610f4482610120015160ff168261310590919063ffffffff16565b925050509250929050565b6001600160a01b0381166000908152600160205260408120610f709061315b565b92915050565b6001600160a01b038083166000908152600160208181526040808420338552600283528185206004805496548451631f94a27560e31b81529451939873__$5201a97c05ba6aa659e2f36a933dd51801$__98635fa297e5988b988e988e989297966003969495949094169363fca513a8938282019392909190829003018186803b15801561100357600080fd5b505afa158015611017573d6000803e3d6000fd5b505050506040513d601f19601f8201168201806040525081019061103b9190613b91565b6040516001600160e01b031960e08b901b16815260048101989098526001600160a01b03968716602489015294151560448801526064870193909352608486019190915260a485015260c48401521660e48201526101040160006040518083038186803b1580156110ab57600080fd5b505af41580156110bf573d6000803e3d6000fd5b5050505060058101543360009081526002602052604090206110eb91600160a01b900460ff1684612fbe565b811561111a5760405133906001600160a01b0385169060008051602061425a83398151915290600090a3505050565b60405133906001600160a01b0385169060008051602061423a83398151915290600090a35b505050565b6001600160a01b0383811660009081526001602090815260408083206003015481518083019092526002825261373960f01b928201929092529192600160281b909104166111a55760405162461bcd60e51b81526004016105939190613f3c565b506001600160a01b0384811660009081526001602052604080822060048082015492516370a0823160e01b815287861691810191909152909391909116906370a082319060240160206040518083038186803b15801561120457600080fd5b505afa158015611218573d6000803e3d6000fd5b505050506040513d601f19601f8201168201806040525081019061123c9190613df7565b604051632835d86f60e21b8152600481018790526001600160a01b03861660248201526044810182905290915073__$5201a97c05ba6aa659e2f36a933dd51801$__9063a0d761bc9060640160006040518083038186803b1580156112a057600080fd5b505af41580156112b4573d6000803e3d6000fd5b508392505050808610156112c55750845b6112ce83612c74565b6004838101546001850154604051637a94c56560e11b81526001600160a01b039092169263f5298aca92611318928a928792600160801b9092046001600160801b03169101613e7f565b600060405180830381600087803b15801561133257600080fd5b505af1158015611346573d6000803e3d6000fd5b505050506003830154600160281b90046001600160a01b031661136d848983856000612d34565b61137783836131c8565b6113af5760058401546001600160a01b03871660009081526002602052604081206113af929091600160a01b90910460ff16906131d4565b6113c46001600160a01b03891633838561304a565b6040516388dd91a160e01b8152336004820152602481018390526001600160a01b038216906388dd91a190604401600060405180830381600087803b15801561140c57600080fd5b505af1158015611420573d6000803e3d6000fd5b50505050336001600160a01b0316866001600160a01b0316896001600160a01b03167f4cdde6e09bb755c9a5589ebaec640bbfedff1362d4b255ebf8339782b9942faa8560405161147391815260200190565b60405180910390a450925050505b9392505050565b6001600160a01b03838116600090815260016020526040808220600381015491516370a0823160e01b815233600482015292939092600160281b9092041690839082906370a082319060240160206040518083038186803b1580156114ec57600080fd5b505afa158015611500573d6000803e3d6000fd5b505050506040513d601f19601f820116820180604052508101906115249190613df7565b9050856000198114156115345750805b73__$5201a97c05ba6aa659e2f36a933dd51801$__63d09db04a898385600160026000336001600160a01b03166001600160a01b03168152602001908152602001600020600360045460008054906101000a90046001600160a01b03166001600160a01b031663fca513a86040518163ffffffff1660e01b815260040160206040518083038186803b1580156115c957600080fd5b505afa1580156115dd573d6000803e3d6000fd5b505050506040513d601f19601f820116820180604052508101906116019190613b91565b6040518963ffffffff1660e01b8152600401611624989796959493929190613ea9565b60006040518083038186803b15801561163c57600080fd5b505af4158015611650573d6000803e3d6000fd5b5050505061165d84612c74565b61166b848985600085612d34565b818114156116c357600584015433600090815260026020526040812061169e929091600160a01b90910460ff1690612fbe565b60405133906001600160a01b038a169060008051602061423a83398151915290600090a35b6001840154604051636b81068560e11b81526001600160a01b0385169163d7020d0a916117049133918b9187916001600160801b0390911690600401613e4e565b600060405180830381600087803b15801561171e57600080fd5b505af1158015611732573d6000803e3d6000fd5b50505050856001600160a01b0316336001600160a01b0316896001600160a01b03167f3115d1449a7b732c986cba18244e897a450f61e1bb8d589cd2e69e6c8924f9f78460405161178591815260200190565b60405180910390a4979650505050505050565b6001600160a01b038381166000908152600160209081526040918290206003015482518084019093526002835261373960f01b918301919091529091600160281b909104166117fa5760405162461bcd60e51b81526004016105939190613f3c565b506001600160a01b038084166000908152600160209081526040808320858516845260028352818420600382015485548451631f94a27560e31b8152945193979296600160281b90920483169533959294919093169263fca513a89260048082019391829003018186803b15801561187157600080fd5b505afa158015611885573d6000803e3d6000fd5b505050506040513d601f19601f820116820180604052508101906118a99190613b91565b85549091506000906119519060301c60ff166118c690600a6140d8565b60405163b3596f0760e01b81526001600160a01b038c8116600483015261194b918c9187169063b3596f079060240160206040518083038186803b15801561190d57600080fd5b505afa158015611921573d6000803e3d6000fd5b505050506040513d601f19601f820116820180604052508101906119459190613df7565b90613239565b90613245565b60048054604051631c7d75d760e31b815292935073__$5201a97c05ba6aa659e2f36a933dd51801$__9263e3ebaeb89261199c928c928e9288926001928e92600392918d9101613ea9565b60006040518083038186803b1580156119b457600080fd5b505af41580156119c8573d6000803e3d6000fd5b505050506119d586612c74565b60008660040160009054906101000a90046001600160a01b03166001600160a01b031663b3f1c93d858a8c8b60010160109054906101000a90046001600160801b03166040518563ffffffff1660e01b8152600401611a379493929190613e4e565b602060405180830381600087803b158015611a5157600080fd5b505af1158015611a65573d6000803e3d6000fd5b505050506040513d601f19601f82011682018060405250810190611a899190613ddb565b90508015611aad576005870154611aad908790600160a01b900460ff1660016131d4565b611abb878b8760008d612d34565b604051634efecaa560e01b81526001600160a01b038581166004830152602482018b9052861690634efecaa590604401602060405180830381600087803b158015611b0557600080fd5b505af1158015611b19573d6000803e3d6000fd5b505050506040513d601f19601f82011682018060405250810190611b3d9190613df7565b50876001600160a01b03168a6001600160a01b03167f96558a334f4759f0e7c423d68c84721860bd8fbf94ddc4e55158ecb125ad04b5868c8b60020160109054906101000a90046001600160801b0316604051611b9c93929190613e7f565b60405180910390a350505050505050505050565b60408051808201909152600281526106e760f31b6020820152883b611be85760405162461bcd60e51b81526004016105939190613f3c565b50600054604080518082019091526002815261373560f01b6020820152906001600160a01b03163314611c2e5760405162461bcd60e51b81526004016105939190613f3c565b506001600160a01b0388811660009081526001602052604090819020905163f2a3bb1d60e01b815260048101919091528882166024820152878216604482015290861660648201526084810185905260a4810184905260c4810183905260ff821660e482015273__$d3b4366daeb9cadc7528af6145b50b2183$__9063f2a3bb1d906101040160006040518083038186803b158015611ccc57600080fd5b505af4158015611ce0573d6000803e3d6000fd5b50505050611ced88613251565b5050505050505050565b6001600160a01b03811660009081526002602090815260408083208151928301909152548082527f5555555555555555555555555555555555555555555555555555555555555555161515611481565b600080600080600080611de1876001600260008b6001600160a01b03166001600160a01b03168152602001908152602001600020604051806020016040529081600082015481525050600360045460008054906101000a90046001600160a01b03166001600160a01b031663fca513a86040518163ffffffff1660e01b815260040160206040518083038186803b15801561069257600080fd5b93995091975090945092509050611df9868684613364565b935091939550919395565b6001600160a01b0381166000908152600160205260408120610f7090613398565b6060600060045467ffffffffffffffff811115611e5257634e487b7160e01b600052604160045260246000fd5b604051908082528060200260200182016040528015611e7b578160200160208202803683370190505b50905060005b600454811015611ef25760008181526003602052604090205482516001600160a01b0390911690839083908110611ec857634e487b7160e01b600052603260045260246000fd5b6001600160a01b039092166020928302919091019091015280611eea816141e2565b915050611e81565b50919050565b6001600160a01b038087166000908152600160209081526040918290206003015482518084019093526002835261363360f01b91830191909152909133600160281b9092041614611f5c5760405162461bcd60e51b81526004016105939190613f3c565b5061201685600160026000896001600160a01b03166001600160a01b03168152602001908152602001600020600360045460008054906101000a90046001600160a01b03166001600160a01b031663fca513a86040518163ffffffff1660e01b815260040160206040518083038186803b158015611fd957600080fd5b505afa158015611fed573d6000803e3d6000fd5b505050506040513d601f19601f820116820180604052508101906120119190613b91565b6133ed565b6001600160a01b03868116600090815260016020526040902060050154600160a01b900460ff1690858116908716146121135761205383856131c8565b6120ad576001600160a01b03861660009081526002602052604081209061207d9082908490612fbe565b866001600160a01b0316886001600160a01b031660008051602061423a83398151915260405160405180910390a3505b811580156120ba57508315155b15612113576001600160a01b03851660009081526002602052604090206120e381836001612fbe565b856001600160a01b0316886001600160a01b031660008051602061425a83398151915260405160405180910390a3505b50505050505050565b6001600160a01b03831660009081526001602052604090819020905163674d75df60e11b8152600481018490526024810182905273__$5201a97c05ba6aa659e2f36a933dd51801$__9063ce9aebbe9060440160006040518083038186803b15801561218757600080fd5b505af415801561219b573d6000803e3d6000fd5b505050506003810154600160281b90046001600160a01b03166121bd82612c74565b6121cb828683876000612d34565b6121e06001600160a01b03861633838761304a565b6001820154604051630ab714fb60e11b81526000916001600160a01b0384169163156e29f6916122229188918a916001600160801b0390911690600401613e7f565b602060405180830381600087803b15801561223c57600080fd5b505af1158015612250573d6000803e3d6000fd5b505050506040513d601f19601f820116820180604052508101906122749190613ddb565b905080156122dd5760058301546001600160a01b03851660009081526002602052604090206122ae91600160a01b900460ff166001612fbe565b836001600160a01b0316866001600160a01b031660008051602061425a83398151915260405160405180910390a35b60408051338152602081018790526001600160a01b0380871692908916917f7cfff908a4b583f36430b25d75964c458d8ede8a99bd61be750e97ee1b2f3a96910160405180910390a3505050505050565b60008060008060006123d3604051806102400160405280600081526020016000815260200160008152602001600081526020016000815260200160008152602001600081526020016000815260200160008152602001600081526020016000815260200160008152602001600081526020016000815260200160001515815260200160006001600160a01b031681526020016000151581526020016000151581525090565b89516123f25760008060008060001995509550955095509550506127f2565b600060e08201525b878160e0015110156127515760e0810151612416908b90613459565b61241f57612739565b60e0810151600090815260208a81526040808320546001600160a01b03166101e085018190528352908d90529020612473815461ffff80821692601083901c821692602081901c9092169160301c60ff1690565b6080860181905260c08601929092525060a084019190915261249690600a6140d8565b60208301526101e082015160405163b3596f0760e01b81526001600160a01b0391821660048201529089169063b3596f079060240160206040518083038186803b1580156124e357600080fd5b505afa1580156124f7573d6000803e3d6000fd5b505050506040513d601f19601f8201168201806040525081019061251b9190613df7565b825260c08201511580159061253b575060e082015161253b908c90613105565b1561264d5760038101546040516370a0823160e01b81526001600160a01b038f81166004830152600160281b909204909116906370a082319060240160206040518083038186803b15801561258f57600080fd5b505afa1580156125a3573d6000803e3d6000fd5b505050506040513d601f19601f820116820180604052508101906125c79190613df7565b60408301819052602083015183516000926125e6929161194b91613239565b6101208401519091506125f990826134b4565b61012084015260a083015161261f90612613908390613239565b610160850151906134b4565b61016084015260c083015161264590612639908390613239565b610180850151906134b4565b610180840152505b60e082015161265d908c906130aa565b15612737578060040160009054906101000a90046001600160a01b03166001600160a01b03166370a082318e6040518263ffffffff1660e01b81526004016126b491906001600160a01b0391909116815260200190565b60206040518083038186803b1580156126cc57600080fd5b505afa1580156126e0573d6000803e3d6000fd5b505050506040513d601f19601f820116820180604052508101906127049190613df7565b606083018190526020830151835161273092612724929161194b91613239565b610140840151906134b4565b6101408301525b505b60e08101805190612749826141e2565b9052506123fa565b60008161012001511161276557600061277a565b61012081015161016082015161277a91613245565b6101608201526101208101516127915760006127a6565b6101208101516101808201516127a691613245565b61018082018190526101208201516101408301516127c3926134c0565b610100820181905261012082015161014083015161016084015161018090940151919850965091945090925090505b965096509650965096915050565b6040805180820190915260028152611a1960f11b6020820152670de0b6b3a764000083106128415760405162461bcd60e51b81526004016105939190613f3c565b50600584015460408051602081019091528454815260009161286d9190600160a01b900460ff16613105565b90508060405180604001604052806002815260200161343360f01b815250906128a95760405162461bcd60e51b81526004016105939190613f3c565b506040805180820190915260028152610d0d60f21b6020820152826128e15760405162461bcd60e51b81526004016105939190613f3c565b505050505050565b60008215806128f6575081155b1561290357506000610f70565b816129116002612710614075565b61291d9060001961419f565b6129279190614075565b83111560405180604001604052806002815260200161068760f31b815250906129635760405162461bcd60e51b81526004016105939190613f3c565b50612710612972600282614075565b61297c8486614180565b612986919061405d565b6114819190614075565b60008060008060008060009054906101000a90046001600160a01b03166001600160a01b031663fca513a86040518163ffffffff1660e01b815260040160206040518083038186803b1580156129e557600080fd5b505afa1580156129f9573d6000803e3d6000fd5b505050506040513d601f19601f82011682018060405250810190612a1d9190613b91565b9050612a5f6040518060e00160405280600081526020016000815260200160008152602001600081526020016000815260200160008152602001600081525090565b60405163b3596f0760e01b81526001600160a01b038b8116600483015283169063b3596f079060240160206040518083038186803b158015612aa057600080fd5b505afa158015612ab4573d6000803e3d6000fd5b505050506040513d601f19601f82011682018060405250810190612ad89190613df7565b6040828101919091525163b3596f0760e01b81526001600160a01b038a8116600483015283169063b3596f079060240160206040518083038186803b158015612b2057600080fd5b505afa158015612b34573d6000803e3d6000fd5b505050506040513d601f19601f82011682018060405250810190612b589190613df7565b6060820152612b838c5461ffff80821692601083901c821692602081901c9092169160301c60ff1690565b60c0850152602084015250508a5460301c60ff1660a08201819052612bed90612bbc90612bb190600a6140d8565b604084015190613239565b61194b8360200151612be78560c00151600a612bd891906140d8565b6060870151611945908f613239565b906128e9565b60808201819052871015612c5857869350612c518160200151612c4b612c288460c00151600a612c1d91906140d8565b606086015190613239565b61194b8560a00151600a612c3c91906140d8565b6040870151611945908b613239565b906134e4565b9250612c63565b806080015193508792505b50919a909950975050505050505050565b60008160040160009054906101000a90046001600160a01b03166001600160a01b031663b1bf962d6040518163ffffffff1660e01b815260040160206040518083038186803b158015612cc657600080fd5b505afa158015612cda573d6000803e3d6000fd5b505050506040513d601f19601f82011682018060405250810190612cfe9190613df7565b600183015460038401549192506001600160801b03600160801b820481169291169064ffffffffff1661211385858486856135a6565b612d5f6040518060800160405280600081526020016000815260200160008152602001600081525090565b60018601546004808801546040805163b1bf962d60e01b81529051612dfc94600160801b90046001600160801b0316936001600160a01b039093169263b1bf962d92808201926020929091829003018186803b158015612dbe57600080fd5b505afa158015612dd2573d6000803e3d6000fd5b505050506040513d601f19601f82011682018060405250810190612df69190613df7565b90613703565b6060820181905260058701546040516272fa8b60e91b81526001600160a01b03888116600483015287811660248301526044820187905260648201869052608482019390935291169063e5f516009060a401604080518083038186803b158015612e6557600080fd5b505afa158015612e79573d6000803e3d6000fd5b505050506040513d601f19601f82011682018060405250810190612e9d9190613e0f565b604080840191909152602080840183905281518083019092526002825261353360f01b90820152906001600160801b031015612eec5760405162461bcd60e51b81526004016105939190613f3c565b50604080820151815180830190925260028252610d4d60f21b60208301526001600160801b031015612f315760405162461bcd60e51b81526004016105939190613f3c565b506020818101516040808401516001600160801b03808416600160801b82841681029190911760028d015560018c0154845195865295850192909252848116848401529304909216606082015290516001600160a01b038716917f4063a2df84b66bb796eb32622851d833e57b2c4292900c18f963af8808b13e35919081900360800190a2505050505050565b604080518082019091526002815261373760f01b602082015260808310612ff85760405162461bcd60e51b81526004016105939190613f3c565b50613004826002614180565b61300f90600161405d565b8161301b57600061301e565b60015b60ff16901b61302e836002614180565b61303990600161405d565b8454600190911b1916179092555050565b604080516001600160a01b0385811660248301528416604482015260648082018490528251808303909101815260849091019091526020810180516001600160e01b03166323b872dd60e01b1790526130a49085906137a0565b50505050565b60006080821060405180604001604052806002815260200161373760f01b815250906130e95760405162461bcd60e51b81526004016105939190613f3c565b506130f5826002614180565b925190921c600116151592915050565b60006080821060405180604001604052806002815260200161373760f01b815250906131445760405162461bcd60e51b81526004016105939190613f3c565b50613150826002614180565b6130f590600161405d565b600381015460009064ffffffffff90811690421681141561318f57505060010154600160801b90046001600160801b031690565b600183015460028401546000916131c0916001600160801b03600160801b92839004811692612df692041685613872565b949350505050565b6000611481828461419f565b604080518082019091526002815261373760f01b60208201526080831061320e5760405162461bcd60e51b81526004016105939190613f3c565b5061321a826002614180565b81613226576000613229565b60015b60ff16901b613039836002614180565b60006114818284614180565b60006114818284614075565b600454600554604080518082019091526002815261363560f01b60208201529082106132905760405162461bcd60e51b81526004016105939190613f3c565b506001600160a01b038216600090815260016020526040812060050154600160a01b900460ff161515806132f957506000805260036020527f3617319a054d772f909f7c479a2cebe5066e836a939412e32403c99029b92eff546001600160a01b038481169116145b90508061113f576001600160a01b0383166000818152600160208181526040808420600501805460ff60a01b1916600160a01b60ff8a1602179055868452600390915290912080546001600160a01b03191690921790915561335c90839061405d565b600455505050565b60008061337185846128e9565b905083811015613385576000915050611481565b61338f81856131c8565b95945050505050565b600381015460009064ffffffffff9081169042168114156133c5575050600101546001600160801b031690565b600183015460028401546000916131c0916001600160801b0391821691612df6911685613971565b60408051602081019091528454815260009061340f908890889087878761232e565b945050505050670de0b6b3a7640000811015604051806040016040528060018152602001601b60f91b81525090611ced5760405162461bcd60e51b81526004016105939190613f3c565b60006080821060405180604001604052806002815260200161373760f01b815250906134985760405162461bcd60e51b81526004016105939190613f3c565b506134a4826002614180565b925190921c600316151592915050565b6000611481828461405d565b6000826134d05750600019611481565b6131c0836134de86856128e9565b906139b0565b604080518082019091526002815261035360f41b60208201526000908261351e5760405162461bcd60e51b81526004016105939190613f3c565b50600061352c600284614075565b905061271061353d8260001961419f565b6135479190614075565b84111560405180604001604052806002815260200161068760f31b815250906135835760405162461bcd60e51b81526004016105939190613f3c565b50828161359261271087614180565b61359c919061405d565b6131c09190614075565b600285015460009081906001600160801b0316858582156136dd5760006135cd8488613971565b90506135d9818a613703565b604080518082019091526002815261353160f01b60208201529093506001600160801b0384111561361d5760405162461bcd60e51b81526004016105939190613f3c565b5060018b0180546fffffffffffffffffffffffffffffffff19166001600160801b03851617905589156136db5760028b015460009061366c90600160801b90046001600160801b031689613872565b9050613678818a613703565b6040805180820190915260028152611a9960f11b60208201529093506001600160801b038411156136bc5760405162461bcd60e51b81526004016105939190613f3c565b505060018b0180546001600160801b03808516600160801b0291161790555b505b600399909901805464ffffffffff19164264ffffffffff16179055989650505050505050565b6000821580613710575081155b1561371d57506000610f70565b8161373560026b033b2e3c9fd0803ce8000000614075565b6137419060001961419f565b61374b9190614075565b83111560405180604001604052806002815260200161068760f31b815250906137875760405162461bcd60e51b81526004016105939190613f3c565b506b033b2e3c9fd0803ce8000000612972600282614075565b60006137f5826040518060400160405280602081526020017f5361666545524332303a206c6f772d6c6576656c2063616c6c206661696c6564815250856001600160a01b0316613a6a9092919063ffffffff16565b80519091501561113f57808060200190518101906138139190613ddb565b61113f5760405162461bcd60e51b815260206004820152602a60248201527f5361666545524332303a204552433230206f7065726174696f6e20646964206e6044820152691bdd081cdd58d8d9595960b21b6064820152608401610593565b6000806138864264ffffffffff85166131c8565b9050806138a2576b033b2e3c9fd0803ce8000000915050610f70565b60006138af60018361419f565b90506000600283116138c25760006138cd565b6138cd60028461419f565b905060006138df6301e1338088614075565b905060006138ed8280613703565b905060006138fb8284613703565b90506000600261390f846119458a8a613239565b6139199190614075565b90506000600661392f8461194589818d8d613239565b6139399190614075565b90506139628161395c848161394e8a8e613239565b6b033b2e3c9fd0803ce80000005b906134b4565b9b9a5050505050505050505050565b6000806139854264ffffffffff85166131c8565b90506131c06b033b2e3c9fd0803ce80000006301e133806139a68785613239565b61395c9190614075565b604080518082019091526002815261035360f41b6020820152600090826139ea5760405162461bcd60e51b81526004016105939190613f3c565b5060006139f8600284614075565b9050670de0b6b3a7640000613a0f8260001961419f565b613a199190614075565b84111560405180604001604052806002815260200161068760f31b81525090613a555760405162461bcd60e51b81526004016105939190613f3c565b508281613592670de0b6b3a764000087614180565b60606131c0848460008585843b613ac35760405162461bcd60e51b815260206004820152601d60248201527f416464726573733a2063616c6c20746f206e6f6e2d636f6e74726163740000006044820152606401610593565b600080866001600160a01b03168587604051613adf9190613e32565b60006040518083038185875af1925050503d8060008114613b1c576040519150601f19603f3d011682016040523d82523d6000602084013e613b21565b606091505b5091509150613b31828286613b3c565b979650505050505050565b60608315613b4b575081611481565b825115613b5b5782518084602001fd5b8160405162461bcd60e51b81526004016105939190613f3c565b600060208284031215613b86578081fd5b813561148181614213565b600060208284031215613ba2578081fd5b815161148181614213565b60008060408385031215613bbf578081fd5b8235613bca81614213565b91506020830135613bda81614213565b809150509250929050565b600080600080600080600080610100898b031215613c01578384fd5b8835613c0c81614213565b97506020890135613c1c81614213565b96506040890135613c2c81614213565b95506060890135613c3c81614213565b94506080890135935060a0890135925060c0890135915060e089013560ff81168114613c66578182fd5b809150509295985092959890939650565b600080600080600060a08688031215613c8e578081fd5b8535613c9981614213565b94506020860135613ca981614213565b93506040860135613cb981614213565b9250606086013591506080860135613cd08161422b565b809150509295509295909350565b60008060008060008060c08789031215613cf6578182fd5b8635613d0181614213565b95506020870135613d1181614213565b94506040870135613d2181614213565b959894975094956060810135955060808101359460a0909101359350915050565b60008060408385031215613d54578182fd5b8235613d5f81614213565b91506020830135613bda8161422b565b60008060408385031215613d81578182fd5b8235613d8c81614213565b946020939093013593505050565b600080600060608486031215613dae578283fd5b8335613db981614213565b9250602084013591506040840135613dd081614213565b809150509250925092565b600060208284031215613dec578081fd5b81516114818161422b565b600060208284031215613e08578081fd5b5051919050565b60008060408385031215613e21578182fd5b505080516020909101519092909150565b60008251613e448184602087016141b6565b9190910192915050565b6001600160a01b03948516815292909316602083015260408201526001600160801b03909116606082015260800190565b6001600160a01b0393909316835260208301919091526001600160801b0316604082015260600190565b6001600160a01b039889168152602081019790975260408701959095526060860193909352608085019190915260a084015260c083015290911660e08201526101000190565b6020808252825182820181905260009190848201906040850190845b81811015613f305783516001600160a01b031683529284019291840191600101613f0b565b50909695505050505050565b6020815260008251806020840152613f5b8160408501602087016141b6565b601f01601f19169190910160400192915050565b815151815261014081016020830151613f9360208401826001600160801b03169052565b506040830151613fae60408401826001600160801b03169052565b506060830151613fc960608401826001600160801b03169052565b506080830151613fe460808401826001600160801b03169052565b5060a0830151613ffd60a084018264ffffffffff169052565b5060c083015161401860c08401826001600160a01b03169052565b5060e083015161403360e08401826001600160a01b03169052565b50610100838101516001600160a01b0316908301526101209283015160ff16929091019190915290565b60008219821115614070576140706141fd565b500190565b60008261409057634e487b7160e01b81526012600452602481fd5b500490565b600181815b808511156140d05781600019048211156140b6576140b66141fd565b808516156140c357918102915b93841c939080029061409a565b509250929050565b600061148183836000826140ee57506001610f70565b816140fb57506000610f70565b8160018114614111576002811461411b57614137565b6001915050610f70565b60ff84111561412c5761412c6141fd565b50506001821b610f70565b5060208310610133831016604e8410600b841016171561415a575081810a610f70565b6141648383614095565b8060001904821115614178576141786141fd565b029392505050565b600081600019048311821515161561419a5761419a6141fd565b500290565b6000828210156141b1576141b16141fd565b500390565b60005b838110156141d15781810151838201526020016141b9565b838111156130a45750506000910152565b60006000198214156141f6576141f66141fd565b5060010190565b634e487b7160e01b600052601160045260246000fd5b6001600160a01b038116811461422857600080fd5b50565b801515811461422857600080fdfe44c58d81365b66dd4b1a7f36c25aa97b8c71c361ee4937adc1a00000227db5dd00058a56ea94653cdf4f152d227ace22d4c00ad99e2a43f58cb7d9e3feb295f2a2646970667358221220680af157fa84051fdea8f3a5fb22ec7ce6cd0848a573dc232d190c5cfa1e145f64736f6c63430008040033",
  "linkReferences": {
    "contracts/libraries/logic/ReserveLogic.sol": {
      "ReserveLogic": [
        {
          "length": 20,
          "start": 7477
        }
      ]
    },
    "contracts/libraries/logic/ValidationLogic.sol": {
      "ValidationLogic": [
        {
          "length": 20,
          "start": 4179
        },
        {
          "length": 20,
          "start": 4874
        },
        {
          "length": 20,
          "start": 5589
        },
        {
          "length": 20,
          "start": 6662
        },
        {
          "length": 20,
          "start": 8689
        }
      ]
    }
  },
  "deployedLinkReferences": {
    "contracts/libraries/logic/ReserveLogic.sol": {
      "ReserveLogic": [
        {
          "length": 20,
          "start": 7318
        }
      ]
    },
    "contracts/libraries/logic/ValidationLogic.sol": {
      "ValidationLogic": [
        {
          "length": 20,
          "start": 4020
        },
        {
          "length": 20,
          "start": 4715
        },
        {
          "length": 20,
          "start": 5430
        },
        {
          "length": 20,
          "start": 6503
        },
        {
          "length": 20,
          "start": 8530
        }
      ]
    }
  }
}