{
  "_format": "hh-sol-artifact-1",
  "contractName": "LendingPool",
  "sourceName": "contracts/lendingpool/LendingPool.sol",
  "abi": [
    {
      "inputs": [
        {
          "internalType": "contract IAddressesProvider",
          "name": "provider",
          "type": "address"
        }
      ],
      "stateMutability": "nonpayable",
      "type": "constructor"
    },
    {
      "anonymous": false,
      "inputs": [
        {
          "indexed": true,
          "internalType": "address",
          "name": "reserve",
          "type": "address"
        },
        {
          "indexed": false,
          "internalType": "address",
          "name": "user",
          "type": "address"
        },
        {
          "indexed": true,
          "internalType": "address",
          "name": "onBehalfOf",
          "type": "address"
        },
        {
          "indexed": false,
          "internalType": "uint256",
          "name": "amount",
          "type": "uint256"
        },
        {
          "indexed": false,
          "internalType": "uint256",
          "name": "borrowRate",
          "type": "uint256"
        }
      ],
      "name": "Borrow",
      "type": "event"
    },
    {
      "anonymous": false,
      "inputs": [
        {
          "indexed": true,
          "internalType": "address",
          "name": "reserve",
          "type": "address"
        },
        {
          "indexed": false,
          "internalType": "address",
          "name": "user",
          "type": "address"
        },
        {
          "indexed": true,
          "internalType": "address",
          "name": "onBehalfOf",
          "type": "address"
        },
        {
          "indexed": false,
          "internalType": "uint256",
          "name": "amount",
          "type": "uint256"
        }
      ],
      "name": "Deposit",
      "type": "event"
    },
    {
      "anonymous": false,
      "inputs": [
        {
          "indexed": true,
          "internalType": "address",
          "name": "collateralAsset",
          "type": "address"
        },
        {
          "indexed": true,
          "internalType": "address",
          "name": "debtAsset",
          "type": "address"
        },
        {
          "indexed": true,
          "internalType": "address",
          "name": "user",
          "type": "address"
        },
        {
          "indexed": false,
          "internalType": "uint256",
          "name": "debtToCover",
          "type": "uint256"
        },
        {
          "indexed": false,
          "internalType": "uint256",
          "name": "liquidatedCollateralAmount",
          "type": "uint256"
        },
        {
          "indexed": false,
          "internalType": "address",
          "name": "liquidator",
          "type": "address"
        },
        {
          "indexed": false,
          "internalType": "bool",
          "name": "receiveAToken",
          "type": "bool"
        }
      ],
      "name": "LiquidationCall",
      "type": "event"
    },
    {
      "anonymous": false,
      "inputs": [
        {
          "indexed": true,
          "internalType": "address",
          "name": "reserve",
          "type": "address"
        },
        {
          "indexed": true,
          "internalType": "address",
          "name": "user",
          "type": "address"
        },
        {
          "indexed": true,
          "internalType": "address",
          "name": "repayer",
          "type": "address"
        },
        {
          "indexed": false,
          "internalType": "uint256",
          "name": "amount",
          "type": "uint256"
        }
      ],
      "name": "Repay",
      "type": "event"
    },
    {
      "anonymous": false,
      "inputs": [
        {
          "indexed": true,
          "internalType": "address",
          "name": "reserve",
          "type": "address"
        },
        {
          "indexed": false,
          "internalType": "uint256",
          "name": "liquidityRate",
          "type": "uint256"
        },
        {
          "indexed": false,
          "internalType": "uint256",
          "name": "variableBorrowRate",
          "type": "uint256"
        },
        {
          "indexed": false,
          "internalType": "uint256",
          "name": "liquidityIndex",
          "type": "uint256"
        },
        {
          "indexed": false,
          "internalType": "uint256",
          "name": "variableBorrowIndex",
          "type": "uint256"
        }
      ],
      "name": "ReserveDataUpdated",
      "type": "event"
    },
    {
      "anonymous": false,
      "inputs": [
        {
          "indexed": true,
          "internalType": "address",
          "name": "reserve",
          "type": "address"
        },
        {
          "indexed": true,
          "internalType": "address",
          "name": "user",
          "type": "address"
        }
      ],
      "name": "ReserveUsedAsCollateralDisabled",
      "type": "event"
    },
    {
      "anonymous": false,
      "inputs": [
        {
          "indexed": true,
          "internalType": "address",
          "name": "reserve",
          "type": "address"
        },
        {
          "indexed": true,
          "internalType": "address",
          "name": "user",
          "type": "address"
        }
      ],
      "name": "ReserveUsedAsCollateralEnabled",
      "type": "event"
    },
    {
      "anonymous": false,
      "inputs": [
        {
          "indexed": true,
          "internalType": "address",
          "name": "reserve",
          "type": "address"
        },
        {
          "indexed": true,
          "internalType": "address",
          "name": "user",
          "type": "address"
        },
        {
          "indexed": true,
          "internalType": "address",
          "name": "to",
          "type": "address"
        },
        {
          "indexed": false,
          "internalType": "uint256",
          "name": "amount",
          "type": "uint256"
        }
      ],
      "name": "Withdraw",
      "type": "event"
    },
    {
      "inputs": [],
      "name": "MAX_NUMBER_RESERVES",
      "outputs": [
        {
          "internalType": "uint256",
          "name": "",
          "type": "uint256"
        }
      ],
      "stateMutability": "view",
      "type": "function"
    },
    {
      "inputs": [
        {
          "internalType": "address",
          "name": "asset",
          "type": "address"
        },
        {
          "internalType": "uint256",
          "name": "amount",
          "type": "uint256"
        },
        {
          "internalType": "address",
          "name": "onBehalfOf",
          "type": "address"
        }
      ],
      "name": "borrow",
      "outputs": [],
      "stateMutability": "nonpayable",
      "type": "function"
    },
    {
      "inputs": [
        {
          "internalType": "address",
          "name": "asset",
          "type": "address"
        },
        {
          "internalType": "uint256",
          "name": "amount",
          "type": "uint256"
        },
        {
          "internalType": "address",
          "name": "onBehalfOf",
          "type": "address"
        }
      ],
      "name": "deposit",
      "outputs": [],
      "stateMutability": "nonpayable",
      "type": "function"
    },
    {
      "inputs": [
        {
          "internalType": "address",
          "name": "asset",
          "type": "address"
        },
        {
          "internalType": "address",
          "name": "from",
          "type": "address"
        },
        {
          "internalType": "address",
          "name": "to",
          "type": "address"
        },
        {
          "internalType": "uint256",
          "name": "amount",
          "type": "uint256"
        },
        {
          "internalType": "uint256",
          "name": "balanceFromBefore",
          "type": "uint256"
        },
        {
          "internalType": "uint256",
          "name": "balanceToBefore",
          "type": "uint256"
        }
      ],
      "name": "finalizeTransfer",
      "outputs": [],
      "stateMutability": "nonpayable",
      "type": "function"
    },
    {
      "inputs": [],
      "name": "getAddressesProvider",
      "outputs": [
        {
          "internalType": "contract IAddressesProvider",
          "name": "",
          "type": "address"
        }
      ],
      "stateMutability": "view",
      "type": "function"
    },
    {
      "inputs": [
        {
          "internalType": "address",
          "name": "asset",
          "type": "address"
        }
      ],
      "name": "getConfiguration",
      "outputs": [
        {
          "components": [
            {
              "internalType": "uint256",
              "name": "data",
              "type": "uint256"
            }
          ],
          "internalType": "struct DataTypes.ReserveConfigurationMap",
          "name": "",
          "type": "tuple"
        }
      ],
      "stateMutability": "view",
      "type": "function"
    },
    {
      "inputs": [
        {
          "internalType": "address",
          "name": "asset",
          "type": "address"
        }
      ],
      "name": "getReserveData",
      "outputs": [
        {
          "components": [
            {
              "components": [
                {
                  "internalType": "uint256",
                  "name": "data",
                  "type": "uint256"
                }
              ],
              "internalType": "struct DataTypes.ReserveConfigurationMap",
              "name": "configuration",
              "type": "tuple"
            },
            {
              "internalType": "uint128",
              "name": "liquidityIndex",
              "type": "uint128"
            },
            {
              "internalType": "uint128",
              "name": "variableBorrowIndex",
              "type": "uint128"
            },
            {
              "internalType": "uint128",
              "name": "currentLiquidityRate",
              "type": "uint128"
            },
            {
              "internalType": "uint128",
              "name": "currentVariableBorrowRate",
              "type": "uint128"
            },
            {
              "internalType": "uint40",
              "name": "lastUpdateTimestamp",
              "type": "uint40"
            },
            {
              "internalType": "address",
              "name": "aTokenAddress",
              "type": "address"
            },
            {
              "internalType": "address",
              "name": "variableDebtTokenAddress",
              "type": "address"
            },
            {
              "internalType": "address",
              "name": "interestRateStrategyAddress",
              "type": "address"
            },
            {
              "internalType": "uint8",
              "name": "id",
              "type": "uint8"
            }
          ],
          "internalType": "struct DataTypes.ReserveData",
          "name": "",
          "type": "tuple"
        }
      ],
      "stateMutability": "view",
      "type": "function"
    },
    {
      "inputs": [
        {
          "internalType": "address",
          "name": "asset",
          "type": "address"
        }
      ],
      "name": "getReserveNormalizedIncome",
      "outputs": [
        {
          "internalType": "uint256",
          "name": "",
          "type": "uint256"
        }
      ],
      "stateMutability": "view",
      "type": "function"
    },
    {
      "inputs": [
        {
          "internalType": "address",
          "name": "asset",
          "type": "address"
        }
      ],
      "name": "getReserveNormalizedVariableDebt",
      "outputs": [
        {
          "internalType": "uint256",
          "name": "",
          "type": "uint256"
        }
      ],
      "stateMutability": "view",
      "type": "function"
    },
    {
      "inputs": [],
      "name": "getReservesList",
      "outputs": [
        {
          "internalType": "address[]",
          "name": "",
          "type": "address[]"
        }
      ],
      "stateMutability": "view",
      "type": "function"
    },
    {
      "inputs": [
        {
          "internalType": "address",
          "name": "user",
          "type": "address"
        }
      ],
      "name": "getUserAccountData",
      "outputs": [
        {
          "internalType": "uint256",
          "name": "totalCollateralETH",
          "type": "uint256"
        },
        {
          "internalType": "uint256",
          "name": "totalDebtETH",
          "type": "uint256"
        },
        {
          "internalType": "uint256",
          "name": "availableBorrowsETH",
          "type": "uint256"
        },
        {
          "internalType": "uint256",
          "name": "currentLiquidationThreshold",
          "type": "uint256"
        },
        {
          "internalType": "uint256",
          "name": "ltv",
          "type": "uint256"
        },
        {
          "internalType": "uint256",
          "name": "healthFactor",
          "type": "uint256"
        }
      ],
      "stateMutability": "view",
      "type": "function"
    },
    {
      "inputs": [
        {
          "internalType": "address",
          "name": "user",
          "type": "address"
        }
      ],
      "name": "getUserClass",
      "outputs": [
        {
          "internalType": "enum DataTypes.UserClass",
          "name": "",
          "type": "uint8"
        }
      ],
      "stateMutability": "view",
      "type": "function"
    },
    {
      "inputs": [
        {
          "internalType": "address",
          "name": "user",
          "type": "address"
        }
      ],
      "name": "getUserConfiguration",
      "outputs": [
        {
          "components": [
            {
              "internalType": "uint256",
              "name": "data",
              "type": "uint256"
            }
          ],
          "internalType": "struct DataTypes.UserConfigurationMap",
          "name": "",
          "type": "tuple"
        }
      ],
      "stateMutability": "view",
      "type": "function"
    },
    {
      "inputs": [
        {
          "internalType": "address",
          "name": "user",
          "type": "address"
        }
      ],
      "name": "getUserIsBorrowingAny",
      "outputs": [
        {
          "internalType": "bool",
          "name": "isBorrowingAny",
          "type": "bool"
        }
      ],
      "stateMutability": "view",
      "type": "function"
    },
    {
      "inputs": [
        {
          "internalType": "address",
          "name": "user",
          "type": "address"
        },
        {
          "internalType": "address",
          "name": "asset",
          "type": "address"
        }
      ],
      "name": "getUserReserveStatus",
      "outputs": [
        {
          "internalType": "bool",
          "name": "isBorrowing",
          "type": "bool"
        },
        {
          "internalType": "bool",
          "name": "isUsingAsCollateral",
          "type": "bool"
        }
      ],
      "stateMutability": "view",
      "type": "function"
    },
    {
      "inputs": [
        {
          "internalType": "address",
          "name": "asset",
          "type": "address"
        },
        {
          "internalType": "address",
          "name": "aTokenAddress",
          "type": "address"
        },
        {
          "internalType": "address",
          "name": "variableDebtAddress",
          "type": "address"
        },
        {
          "internalType": "address",
          "name": "interestRateStrategyAddress",
          "type": "address"
        },
        {
          "internalType": "uint256",
          "name": "ltv",
          "type": "uint256"
        },
        {
          "internalType": "uint256",
          "name": "liquidationThreshold",
          "type": "uint256"
        },
        {
          "internalType": "uint256",
          "name": "liquidationBonus",
          "type": "uint256"
        },
        {
          "internalType": "uint8",
          "name": "decimals",
          "type": "uint8"
        }
      ],
      "name": "initReserve",
      "outputs": [],
      "stateMutability": "nonpayable",
      "type": "function"
    },
    {
      "inputs": [
        {
          "internalType": "address",
          "name": "collateralAsset",
          "type": "address"
        },
        {
          "internalType": "address",
          "name": "debtAsset",
          "type": "address"
        },
        {
          "internalType": "address",
          "name": "user",
          "type": "address"
        },
        {
          "internalType": "uint256",
          "name": "debtToCover",
          "type": "uint256"
        },
        {
          "internalType": "bool",
          "name": "receiveAToken",
          "type": "bool"
        }
      ],
      "name": "liquidationCall",
      "outputs": [],
      "stateMutability": "nonpayable",
      "type": "function"
    },
    {
      "inputs": [
        {
          "internalType": "address",
          "name": "asset",
          "type": "address"
        },
        {
          "internalType": "uint256",
          "name": "amount",
          "type": "uint256"
        },
        {
          "internalType": "address",
          "name": "onBehalfOf",
          "type": "address"
        }
      ],
      "name": "repay",
      "outputs": [
        {
          "internalType": "uint256",
          "name": "",
          "type": "uint256"
        }
      ],
      "stateMutability": "nonpayable",
      "type": "function"
    },
    {
      "inputs": [
        {
          "internalType": "address",
          "name": "asset",
          "type": "address"
        },
        {
          "internalType": "uint256",
          "name": "configuration",
          "type": "uint256"
        }
      ],
      "name": "setConfiguration",
      "outputs": [],
      "stateMutability": "nonpayable",
      "type": "function"
    },
    {
      "inputs": [
        {
          "internalType": "address",
          "name": "asset",
          "type": "address"
        },
        {
          "internalType": "address",
          "name": "rateStrategyAddress",
          "type": "address"
        }
      ],
      "name": "setReserveInterestRateStrategyAddress",
      "outputs": [],
      "stateMutability": "nonpayable",
      "type": "function"
    },
    {
      "inputs": [
        {
          "internalType": "address",
          "name": "asset",
          "type": "address"
        },
        {
          "internalType": "bool",
          "name": "useAsCollateral",
          "type": "bool"
        }
      ],
      "name": "setUserUseReserveAsCollateral",
      "outputs": [],
      "stateMutability": "nonpayable",
      "type": "function"
    },
    {
      "inputs": [
        {
          "internalType": "address",
          "name": "asset",
          "type": "address"
        },
        {
          "internalType": "uint256",
          "name": "amount",
          "type": "uint256"
        },
        {
          "internalType": "address",
          "name": "to",
          "type": "address"
        }
      ],
      "name": "withdraw",
      "outputs": [
        {
          "internalType": "uint256",
          "name": "",
          "type": "uint256"
        }
      ],
      "stateMutability": "nonpayable",
      "type": "function"
    },
    {
      "inputs": [
        {
          "internalType": "address",
          "name": "asset",
          "type": "address"
        },
        {
          "internalType": "uint256",
          "name": "amount",
          "type": "uint256"
        },
        {
          "internalType": "address",
          "name": "to",
          "type": "address"
        },
        {
          "internalType": "address",
          "name": "user",
          "type": "address"
        }
      ],
      "name": "withdrawETH",
      "outputs": [],
      "stateMutability": "nonpayable",
      "type": "function"
    }
  ],
  "bytecode": "0x60806040523480156200001157600080fd5b5060405162004bdb38038062004bdb83398101604081905262000034916200005f565b600080546001600160a01b0319166001600160a01b039290921691909117905560806005556200008f565b60006020828403121562000071578081fd5b81516001600160a01b038116811462000088578182fd5b9392505050565b614b3c806200009f6000396000f3fe608060405234801561001057600080fd5b506004361061014c5760003560e01c80636c665a55116100c3578063d15e00531161007c578063d15e0053146104df578063d1946dbc146104f2578063d5ed393314610507578063f45346dc1461051a578063f8119d511461052d578063fe65acfe1461053557600080fd5b80636c665a55146103ea5780639835159c146103fd578063a3aefba214610410578063b8d2927614610433578063bf92857c1461045d578063c44b11f71461049d57600080fd5b8063384c88c511610115578063384c88c514610315578063386497fd1461033f5780634417a583146103605780635a3b74b9146103b15780635ceae9c4146103c457806369328dec146103d757600080fd5b8062a718a9146101515780631d2118f9146101665780631f735227146101a55780632abfd515146101ce57806335ea6a75146101e1575b600080fd5b61016461015f36600461444c565b610550565b005b610164610174366004614382565b6001600160a01b03918216600090815260016020526040902060050180546001600160a01b03191691909216179055565b6101b86101b336600461434a565b610ed8565b6040516101c59190614782565b60405180910390f35b6101646101dc3660046145b0565b610f7a565b6103086101ef36600461434a565b604080516101608101825260006101408201818152825260208201819052918101829052606081018290526080810182905260a0810182905260c0810182905260e081018290526101008101829052610120810191909152506001600160a01b03908116600090815260016020818152604092839020835161016081018552815461014082019081528152928101546001600160801b0380821693850193909352600160801b908190048316948401949094526002810154808316606085015293909304166080820152600382015464ffffffffff811660a0830152600160281b9004831660c08201526004820154831660e0820152600590910154918216610100820152600160a01b90910460ff1661012082015290565b6040516101c591906147dd565b610328610323366004614382565b610fb6565b6040805192151583529015156020830152016101c5565b61035261034d36600461434a565b6110c1565b6040519081526020016101c5565b6103a261036e36600461434a565b60408051602080820183526000918290526001600160a01b0393909316815260028352819020815192830190915254815290565b604051905181526020016101c5565b6101646103bf366004614517565b6110e2565b6103526103d236600461456f565b6112d2565b6103526103e536600461456f565b61163f565b6101646103f836600461456f565b611aa8565b61016461040b3660046143ba565b611eea565b61042361041e36600461434a565b612031565b60405190151581526020016101c5565b610164610441366004614544565b6001600160a01b03909116600090815260016020526040902055565b61047061046b36600461434a565b612081565b604080519687526020870195909552938501929092526060840152608083015260a082015260c0016101c5565b6103a26104ab36600461434a565b60408051602080820183526000918290526001600160a01b0393909316815260018352819020815192830190915254815290565b6103526104ed36600461434a565b61213e565b6104fa61215f565b6040516101c59190614735565b6101646105153660046144b3565b612232565b61016461052836600461456f565b612456565b600554610352565b6000546040516001600160a01b0390911681526020016101c5565b6001600160a01b0380861660009081526001602052604080822087841683529120600382015491929091600160281b900416158015906105a357506003810154600160281b90046001600160a01b031615155b60405180604001604052806002815260200161373960f01b815250906105e55760405162461bcd60e51b81526004016105dc91906147aa565b60405180910390fd5b50600060026000876001600160a01b03166001600160a01b03168152602001908152602001600020905061067e6040518061018001604052806000815260200160008152602001600081526020016000815260200160008152602001600081526020016000815260200160008152602001600081526020016000815260200160006001600160a01b031681526020016000151581525090565b604080516020808201835284548252600480546000548551631f94a27560e31b81529551610718968e966001969095600395946001600160a01b03169363fca513a893808301939290829003018186803b1580156106db57600080fd5b505afa1580156106ef573d6000803e3d6000fd5b505050506040513d601f19601f820116820180604052508101906107139190614366565b612692565b610100860152505050506004838101546040516370a0823160e01b81526001600160a01b038a8116938201939093529116906370a082319060240160206040518083038186803b15801561076b57600080fd5b505afa15801561077f573d6000803e3d6000fd5b505050506040513d601f19601f820116820180604052508101906107a3919061463d565b602082018190526101008201516107bd9186918591612b64565b6001600160a01b03871660009081526006602052604090206107de90612c4d565b6003840154600160281b90046001600160a01b0390811661014083018190526040516370a0823160e01b81529189166004830152906370a082319060240160206040518083038186803b15801561083457600080fd5b505afa158015610848573d6000803e3d6000fd5b505050506040513d601f19601f8201168201806040525081019061086c919061463d565b8152602081015161087f90611388612c6d565b6040820181905286116108925785610898565b80604001515b6060820181905281516108b391869186918d918d9190612d14565b60e0830181905260c0830191909152606082015111156108d85760e081015160608201525b846109a5576101408101516040516370a0823160e01b81526001600160a01b0391821660048201526000918b16906370a082319060240160206040518083038186803b15801561092757600080fd5b505afa15801561093b573d6000803e3d6000fd5b505050506040513d601f19601f8201168201806040525081019061095f919061463d565b90508160c0015181101560405180604001604052806002815260200161343560f01b815250906109a25760405162461bcd60e51b81526004016105dc91906147aa565b50505b6109ae83612ff8565b60048381015460608301516001860154604051637a94c56560e11b81526001600160a01b039093169363f5298aca936109fd938d939092600160801b9091046001600160801b031691016146c5565b600060405180830381600087803b158015610a1757600080fd5b505af1158015610a2b573d6000803e3d6000fd5b5050505060038301546060820151610a599185918b91600160281b90046001600160a01b03169060006130b8565b8415610bbb576101408101516040516370a0823160e01b81523360048201526001600160a01b03909116906370a082319060240160206040518083038186803b158015610aa557600080fd5b505afa158015610ab9573d6000803e3d6000fd5b505050506040513d601f19601f82011682018060405250810190610add919061463d565b61012082015261014081015160c082015160405163f866c31960e01b81526001600160a01b038a81166004830152336024830152604482019290925291169063f866c31990606401600060405180830381600087803b158015610b3f57600080fd5b505af1158015610b53573d6000803e3d6000fd5b5050505080610120015160001415610bb6573360009081526002602052604090206005850154610b90908290600160a01b900460ff166001613342565b60405133906001600160a01b038c1690600080516020614ae783398151915290600090a3505b610c5d565b610bc484612ff8565b61014081015160c0820151610be09186918c91906000906130b8565b61014081015160c08201516001860154604051636b81068560e11b81526001600160a01b039093169263d7020d0a92610c2a928c923392916001600160801b031690600401614694565b600060405180830381600087803b158015610c4457600080fd5b505af1158015610c58573d6000803e3d6000fd5b505050505b805160c08201511415610cb5576005840154610c86908390600160a01b900460ff166000613342565b866001600160a01b0316896001600160a01b0316600080516020614ac783398151915260405160405180910390a35b60008054906101000a90046001600160a01b03166001600160a01b031663ad5c46486040518163ffffffff1660e01b815260040160206040518083038186803b158015610d0157600080fd5b505afa158015610d15573d6000803e3d6000fd5b505050506040513d601f19601f82011682018060405250810190610d399190614366565b6001600160a01b0316886001600160a01b03161415610df357600383015460608201516040516323b872dd60e01b8152336004820152600160281b9092046001600160a01b03908116602484015260448301919091528916906323b872dd90606401602060405180830381600087803b158015610db557600080fd5b505af1158015610dc9573d6000803e3d6000fd5b505050506040513d601f19601f82011682018060405250810190610ded9190614602565b50610e1f565b60038301546060820151610e1f916001600160a01b038b8116923392600160281b9004909116906133ce565b6001600160a01b0387166000908152600660205260409020610e4090613428565b610e49876134d9565b866001600160a01b0316886001600160a01b03168a6001600160a01b03167fe413a321e8681d831f4dbccbca790d2952b56f977908e45be37335533e00528684606001518560c00151338b604051610ec5949392919093845260208401929092526001600160a01b031660408301521515606082015260800190565b60405180910390a4505050505050505050565b6001600160a01b03811660009081526006602052604080822090516309f2038760e11b8152600481019190915273__$290865961ff33dccdf21412a02a8599e57$__906313e4070e9060240160206040518083038186803b158015610f3c57600080fd5b505af4158015610f50573d6000803e3d6000fd5b505050506040513d601f19601f82011682018060405250810190610f74919061461e565b92915050565b6001600160a01b0381166000908152600660205260409020610f9b90612c4d565b610fa684848461163f565b50610fb0816134d9565b50505050565b6001600160a01b038082166000908152600160208181526040808420815161016081018352815461014082019081528152938101546001600160801b0380821686860152600160801b91829004811686850152600280840154808316606089015292909204166080860152600382015464ffffffffff811660a0870152600160281b9004871660c08601526004820154871660e086015260059091015480871661010086015260ff600160a01b9091048116610120860190815296891686529083528185208251938401909252905482529351929384936110999183911661357a565b93506110b682610120015160ff16826135d590919063ffffffff16565b925050509250929050565b6001600160a01b0381166000908152600160205260408120610f749061362b565b6001600160a01b038083166000908152600160208181526040808420338552600283528185206004805496548451631f94a27560e31b81529451939873__$5201a97c05ba6aa659e2f36a933dd51801$__98635fa297e5988b988e988e989297966003969495949094169363fca513a8938282019392909190829003018186803b15801561116f57600080fd5b505afa158015611183573d6000803e3d6000fd5b505050506040513d601f19601f820116820180604052508101906111a79190614366565b6040516001600160e01b031960e08b901b16815260048101989098526001600160a01b03968716602489015294151560448801526064870193909352608486019190915260a485015260c48401521660e48201526101040160006040518083038186803b15801561121757600080fd5b505af415801561122b573d6000803e3d6000fd5b505033600090815260066020526040902061124892509050612c4d565b600581015433600090815260026020526040902061127091600160a01b900460ff1684613342565b611279336134d9565b81156112a85760405133906001600160a01b03851690600080516020614ae783398151915290600090a3505050565b60405133906001600160a01b03851690600080516020614ac783398151915290600090a35b505050565b6001600160a01b0383811660009081526001602090815260408083206003015481518083019092526002825261373960f01b928201929092529192600160281b909104166113335760405162461bcd60e51b81526004016105dc91906147aa565b506001600160a01b0384811660009081526001602052604080822060048082015492516370a0823160e01b815287861691810191909152909391909116906370a082319060240160206040518083038186803b15801561139257600080fd5b505afa1580156113a6573d6000803e3d6000fd5b505050506040513d601f19601f820116820180604052508101906113ca919061463d565b604051632835d86f60e21b8152600481018790526001600160a01b03861660248201526044810182905290915073__$5201a97c05ba6aa659e2f36a933dd51801$__9063a0d761bc9060640160006040518083038186803b15801561142e57600080fd5b505af4158015611442573d6000803e3d6000fd5b5050506001600160a01b03851660009081526006602052604090206114679150612c4d565b80808610156114735750845b61147c83612ff8565b6004838101546001850154604051637a94c56560e11b81526001600160a01b039092169263f5298aca926114c6928a928792600160801b9092046001600160801b031691016146c5565b600060405180830381600087803b1580156114e057600080fd5b505af11580156114f4573d6000803e3d6000fd5b505050506003830154600160281b90046001600160a01b031661151b8489838560006130b8565b6115258383613698565b61155d5760058401546001600160a01b038716600090815260026020526040812061155d929091600160a01b90910460ff16906136a4565b6115726001600160a01b0389163383856133ce565b6040516388dd91a160e01b8152336004820152602481018390526001600160a01b038216906388dd91a190604401600060405180830381600087803b1580156115ba57600080fd5b505af11580156115ce573d6000803e3d6000fd5b505050506115db866134d9565b336001600160a01b0316866001600160a01b0316896001600160a01b03167f4cdde6e09bb755c9a5589ebaec640bbfedff1362d4b255ebf8339782b9942faa8560405161162a91815260200190565b60405180910390a450925050505b9392505050565b6001600160a01b03838116600090815260016020526040808220600381015491516370a0823160e01b815233600482015292939092600160281b9092041690839082906370a082319060240160206040518083038186803b1580156116a357600080fd5b505afa1580156116b7573d6000803e3d6000fd5b505050506040513d601f19601f820116820180604052508101906116db919061463d565b9050856000198114156116eb5750805b73__$5201a97c05ba6aa659e2f36a933dd51801$__63d09db04a898385600160026000336001600160a01b03166001600160a01b03168152602001908152602001600020600360045460008054906101000a90046001600160a01b03166001600160a01b031663fca513a86040518163ffffffff1660e01b815260040160206040518083038186803b15801561178057600080fd5b505afa158015611794573d6000803e3d6000fd5b505050506040513d601f19601f820116820180604052508101906117b89190614366565b6040518963ffffffff1660e01b81526004016117db9897969594939291906146ef565b60006040518083038186803b1580156117f357600080fd5b505af4158015611807573d6000803e3d6000fd5b5050505060008054906101000a90046001600160a01b03166001600160a01b03166377532ed96040518163ffffffff1660e01b815260040160206040518083038186803b15801561185757600080fd5b505afa15801561186b573d6000803e3d6000fd5b505050506040513d601f19601f8201168201806040525081019061188f9190614366565b6001600160a01b0316336001600160a01b0316146118bf573360009081526006602052604090206118bf90612c4d565b6118c884612ff8565b6118d68489856000856130b8565b8181141561192e576005840154336000908152600260205260408120611909929091600160a01b90910460ff1690613342565b60405133906001600160a01b038a1690600080516020614ac783398151915290600090a35b6001840154604051636b81068560e11b81526001600160a01b0385169163d7020d0a9161196f9133918b9187916001600160801b0390911690600401614694565b600060405180830381600087803b15801561198957600080fd5b505af115801561199d573d6000803e3d6000fd5b5050505060008054906101000a90046001600160a01b03166001600160a01b03166377532ed96040518163ffffffff1660e01b815260040160206040518083038186803b1580156119ed57600080fd5b505afa158015611a01573d6000803e3d6000fd5b505050506040513d601f19601f82011682018060405250810190611a259190614366565b6001600160a01b0316336001600160a01b031614611a4657611a46336134d9565b856001600160a01b0316336001600160a01b0316896001600160a01b03167f3115d1449a7b732c986cba18244e897a450f61e1bb8d589cd2e69e6c8924f9f784604051611a9591815260200190565b60405180910390a4979650505050505050565b6001600160a01b038381166000908152600160209081526040918290206003015482518084019093526002835261373960f01b918301919091529091600160281b90910416611b0a5760405162461bcd60e51b81526004016105dc91906147aa565b506001600160a01b038084166000908152600160209081526040808320858516845260028352818420600382015485548451631f94a27560e31b8152945193979296600160281b90920483169533959294919093169263fca513a89260048082019391829003018186803b158015611b8157600080fd5b505afa158015611b95573d6000803e3d6000fd5b505050506040513d601f19601f82011682018060405250810190611bb99190614366565b8554909150600090611c619060301c60ff16611bd690600a614946565b60405163b3596f0760e01b81526001600160a01b038c81166004830152611c5b918c9187169063b3596f079060240160206040518083038186803b158015611c1d57600080fd5b505afa158015611c31573d6000803e3d6000fd5b505050506040513d601f19601f82011682018060405250810190611c55919061463d565b90613709565b90613715565b60048054604051631c7d75d760e31b815292935073__$5201a97c05ba6aa659e2f36a933dd51801$__9263e3ebaeb892611cac928c928e9288926001928e92600392918d91016146ef565b60006040518083038186803b158015611cc457600080fd5b505af4158015611cd8573d6000803e3d6000fd5b5050506001600160a01b0388166000908152600660205260409020611cfd9150612c4d565b611d0686612ff8565b60008660040160009054906101000a90046001600160a01b03166001600160a01b031663b3f1c93d858a8c8b60010160109054906101000a90046001600160801b03166040518563ffffffff1660e01b8152600401611d689493929190614694565b602060405180830381600087803b158015611d8257600080fd5b505af1158015611d96573d6000803e3d6000fd5b505050506040513d601f19601f82011682018060405250810190611dba9190614602565b90508015611dde576005870154611dde908790600160a01b900460ff1660016136a4565b611dec878b8760008d6130b8565b604051634efecaa560e01b81526001600160a01b038581166004830152602482018b9052861690634efecaa590604401602060405180830381600087803b158015611e3657600080fd5b505af1158015611e4a573d6000803e3d6000fd5b505050506040513d601f19601f82011682018060405250810190611e6e919061463d565b50611e78886134d9565b876001600160a01b03168a6001600160a01b03167f96558a334f4759f0e7c423d68c84721860bd8fbf94ddc4e55158ecb125ad04b5868c8b60020160109054906101000a90046001600160801b0316604051611ed6939291906146c5565b60405180910390a350505050505050505050565b60408051808201909152600281526106e760f31b6020820152883b611f225760405162461bcd60e51b81526004016105dc91906147aa565b50600054604080518082019091526002815261373560f01b6020820152906001600160a01b03163314611f685760405162461bcd60e51b81526004016105dc91906147aa565b506001600160a01b0388811660009081526001602052604090819020905163f2a3bb1d60e01b815260048101919091528882166024820152878216604482015290861660648201526084810185905260a4810184905260c4810183905260ff821660e482015273__$d3b4366daeb9cadc7528af6145b50b2183$__9063f2a3bb1d906101040160006040518083038186803b15801561200657600080fd5b505af415801561201a573d6000803e3d6000fd5b5050505061202788613721565b5050505050505050565b6001600160a01b03811660009081526002602090815260408083208151928301909152548082527f5555555555555555555555555555555555555555555555555555555555555555161515611638565b60008060008060008061211b876001600260008b6001600160a01b03166001600160a01b03168152602001908152602001600020604051806020016040529081600082015481525050600360045460008054906101000a90046001600160a01b03166001600160a01b031663fca513a86040518163ffffffff1660e01b815260040160206040518083038186803b1580156106db57600080fd5b93995091975090945092509050612133868684613834565b935091939550919395565b6001600160a01b0381166000908152600160205260408120610f7490613868565b6060600060045467ffffffffffffffff81111561218c57634e487b7160e01b600052604160045260246000fd5b6040519080825280602002602001820160405280156121b5578160200160208202803683370190505b50905060005b60045481101561222c5760008181526003602052604090205482516001600160a01b039091169083908390811061220257634e487b7160e01b600052603260045260246000fd5b6001600160a01b03909216602092830291909101909101528061222481614a72565b9150506121bb565b50919050565b6001600160a01b038087166000908152600160209081526040918290206003015482518084019093526002835261363360f01b91830191909152909133600160281b90920416146122965760405162461bcd60e51b81526004016105dc91906147aa565b5061235085600160026000896001600160a01b03166001600160a01b03168152602001908152602001600020600360045460008054906101000a90046001600160a01b03166001600160a01b031663fca513a86040518163ffffffff1660e01b815260040160206040518083038186803b15801561231357600080fd5b505afa158015612327573d6000803e3d6000fd5b505050506040513d601f19601f8201168201806040525081019061234b9190614366565b6138bd565b6001600160a01b03868116600090815260016020526040902060050154600160a01b900460ff16908581169087161461244d5761238d8385613698565b6123e7576001600160a01b0386166000908152600260205260408120906123b79082908490613342565b866001600160a01b0316886001600160a01b0316600080516020614ac783398151915260405160405180910390a3505b811580156123f457508315155b1561244d576001600160a01b038516600090815260026020526040902061241d81836001613342565b856001600160a01b0316886001600160a01b0316600080516020614ae783398151915260405160405180910390a3505b50505050505050565b6001600160a01b03831660009081526001602052604090819020905163674d75df60e11b8152600481018490526024810182905273__$5201a97c05ba6aa659e2f36a933dd51801$__9063ce9aebbe9060440160006040518083038186803b1580156124c157600080fd5b505af41580156124d5573d6000803e3d6000fd5b5050506001600160a01b03831660009081526006602052604090206124fa9150612c4d565b6003810154600160281b90046001600160a01b031661251882612ff8565b6125268286838760006130b8565b61253b6001600160a01b0386163383876133ce565b6001820154604051630ab714fb60e11b81526000916001600160a01b0384169163156e29f69161257d9188918a916001600160801b03909116906004016146c5565b602060405180830381600087803b15801561259757600080fd5b505af11580156125ab573d6000803e3d6000fd5b505050506040513d601f19601f820116820180604052508101906125cf9190614602565b905080156126385760058301546001600160a01b038516600090815260026020526040902061260991600160a01b900460ff166001613342565b836001600160a01b0316866001600160a01b0316600080516020614ae783398151915260405160405180910390a35b612641846134d9565b60408051338152602081018790526001600160a01b0380871692908916917f7cfff908a4b583f36430b25d75964c458d8ede8a99bd61be750e97ee1b2f3a96910160405180910390a3505050505050565b6000806000806000612737604051806102400160405280600081526020016000815260200160008152602001600081526020016000815260200160008152602001600081526020016000815260200160008152602001600081526020016000815260200160008152602001600081526020016000815260200160001515815260200160006001600160a01b031681526020016000151581526020016000151581525090565b8951612756576000806000806000199550955095509550955050612b56565b600060e08201525b878160e001511015612ab55760e081015161277a908b90613929565b61278357612a9d565b60e0810151600090815260208a81526040808320546001600160a01b03166101e085018190528352908d905290206127d7815461ffff80821692601083901c821692602081901c9092169160301c60ff1690565b6080860181905260c08601929092525060a08401919091526127fa90600a614946565b60208301526101e082015160405163b3596f0760e01b81526001600160a01b0391821660048201529089169063b3596f079060240160206040518083038186803b15801561284757600080fd5b505afa15801561285b573d6000803e3d6000fd5b505050506040513d601f19601f8201168201806040525081019061287f919061463d565b825260c08201511580159061289f575060e082015161289f908c906135d5565b156129b15760038101546040516370a0823160e01b81526001600160a01b038f81166004830152600160281b909204909116906370a082319060240160206040518083038186803b1580156128f357600080fd5b505afa158015612907573d6000803e3d6000fd5b505050506040513d601f19601f8201168201806040525081019061292b919061463d565b604083018190526020830151835160009261294a9291611c5b91613709565b61012084015190915061295d9082613984565b61012084015260a083015161298390612977908390613709565b61016085015190613984565b61016084015260c08301516129a99061299d908390613709565b61018085015190613984565b610180840152505b60e08201516129c1908c9061357a565b15612a9b578060040160009054906101000a90046001600160a01b03166001600160a01b03166370a082318e6040518263ffffffff1660e01b8152600401612a1891906001600160a01b0391909116815260200190565b60206040518083038186803b158015612a3057600080fd5b505afa158015612a44573d6000803e3d6000fd5b505050506040513d601f19601f82011682018060405250810190612a68919061463d565b6060830181905260208301518351612a9492612a889291611c5b91613709565b61014084015190613984565b6101408301525b505b60e08101805190612aad82614a72565b90525061275e565b600081610120015111612ac9576000612ade565b610120810151610160820151612ade91613715565b610160820152610120810151612af5576000612b0a565b610120810151610180820151612b0a91613715565b6101808201819052610120820151610140830151612b2792613990565b610100820181905261012082015161014083015161016084015161018090940151919850965091945090925090505b965096509650965096915050565b6040805180820190915260028152611a1960f11b6020820152670de0b6b3a76400008310612ba55760405162461bcd60e51b81526004016105dc91906147aa565b506005840154604080516020810190915284548152600091612bd19190600160a01b900460ff166135d5565b90508060405180604001604052806002815260200161343360f01b81525090612c0d5760405162461bcd60e51b81526004016105dc91906147aa565b506040805180820190915260028152610d0d60f21b602082015282612c455760405162461bcd60e51b81526004016105dc91906147aa565b505050505050565b8054612c6057681043561a882930000081555b612c69816139b4565b9055565b6000821580612c7a575081155b15612c8757506000610f74565b81612c9560026127106148e3565b612ca190600019614a0d565b612cab91906148e3565b83111560405180604001604052806002815260200161068760f31b81525090612ce75760405162461bcd60e51b81526004016105dc91906147aa565b50612710612cf66002826148e3565b612d0084866149ee565b612d0a91906148cb565b61163891906148e3565b60008060008060008060009054906101000a90046001600160a01b03166001600160a01b031663fca513a86040518163ffffffff1660e01b815260040160206040518083038186803b158015612d6957600080fd5b505afa158015612d7d573d6000803e3d6000fd5b505050506040513d601f19601f82011682018060405250810190612da19190614366565b9050612de36040518060e00160405280600081526020016000815260200160008152602001600081526020016000815260200160008152602001600081525090565b60405163b3596f0760e01b81526001600160a01b038b8116600483015283169063b3596f079060240160206040518083038186803b158015612e2457600080fd5b505afa158015612e38573d6000803e3d6000fd5b505050506040513d601f19601f82011682018060405250810190612e5c919061463d565b6040828101919091525163b3596f0760e01b81526001600160a01b038a8116600483015283169063b3596f079060240160206040518083038186803b158015612ea457600080fd5b505afa158015612eb8573d6000803e3d6000fd5b505050506040513d601f19601f82011682018060405250810190612edc919061463d565b6060820152612f078c5461ffff80821692601083901c821692602081901c9092169160301c60ff1690565b60c0850152602084015250508a5460301c60ff1660a08201819052612f7190612f4090612f3590600a614946565b604084015190613709565b611c5b8360200151612f6b8560c00151600a612f5c9190614946565b6060870151611c55908f613709565b90612c6d565b60808201819052871015612fdc57869350612fd58160200151612fcf612fac8460c00151600a612fa19190614946565b606086015190613709565b611c5b8560a00151600a612fc09190614946565b6040870151611c55908b613709565b90613b1e565b9250612fe7565b806080015193508792505b50919a909950975050505050505050565b60008160040160009054906101000a90046001600160a01b03166001600160a01b031663b1bf962d6040518163ffffffff1660e01b815260040160206040518083038186803b15801561304a57600080fd5b505afa15801561305e573d6000803e3d6000fd5b505050506040513d601f19601f82011682018060405250810190613082919061463d565b600183015460038401549192506001600160801b03600160801b820481169291169064ffffffffff1661244d8585848685613be0565b6130e36040518060800160405280600081526020016000815260200160008152602001600081525090565b60018601546004808801546040805163b1bf962d60e01b8152905161318094600160801b90046001600160801b0316936001600160a01b039093169263b1bf962d92808201926020929091829003018186803b15801561314257600080fd5b505afa158015613156573d6000803e3d6000fd5b505050506040513d601f19601f8201168201806040525081019061317a919061463d565b90613d3d565b6060820181905260058701546040516272fa8b60e91b81526001600160a01b03888116600483015287811660248301526044820187905260648201869052608482019390935291169063e5f516009060a401604080518083038186803b1580156131e957600080fd5b505afa1580156131fd573d6000803e3d6000fd5b505050506040513d601f19601f820116820180604052508101906132219190614655565b604080840191909152602080840183905281518083019092526002825261353360f01b90820152906001600160801b0310156132705760405162461bcd60e51b81526004016105dc91906147aa565b50604080820151815180830190925260028252610d4d60f21b60208301526001600160801b0310156132b55760405162461bcd60e51b81526004016105dc91906147aa565b506020818101516040808401516001600160801b03808416600160801b82841681029190911760028d015560018c0154845195865295850192909252848116848401529304909216606082015290516001600160a01b038716917f4063a2df84b66bb796eb32622851d833e57b2c4292900c18f963af8808b13e35919081900360800190a2505050505050565b604080518082019091526002815261373760f01b60208201526080831061337c5760405162461bcd60e51b81526004016105dc91906147aa565b506133888260026149ee565b6133939060016148cb565b8161339f5760006133a2565b60015b60ff16901b6133b28360026149ee565b6133bd9060016148cb565b8454600190911b1916179092555050565b604080516001600160a01b0385811660248301528416604482015260648082018490528251808303909101815260849091019091526020810180516001600160e01b03166323b872dd60e01b179052610fb0908590613dda565b8054682086ac3510526000001061345457805461344e906802b5e3af16b1880000613698565b506134b7565b80546825f273933db57000001061347a57805461344e9068056bc75e2d63100000613698565b8054682b5e3af16b18800000106134a057805461344e90680821ab0d4414980000613698565b80546134b590680ad78ebc5ac6200000613698565b505b8054681043561a882930000011156134d657681043561a882930000081555b50565b6001600160a01b03808216600090815260026020908152604080832081518084018352905481526004805485548451631f94a27560e31b815294519697889761354c978b9760019796600396959094169363fca513a8938282019392909190829003018186803b1580156106db57600080fd5b5050506001600160a01b038516600090815260066020526040902091935091506112cd908383611d4c613eac565b60006080821060405180604001604052806002815260200161373760f01b815250906135b95760405162461bcd60e51b81526004016105dc91906147aa565b506135c58260026149ee565b925190921c600116151592915050565b60006080821060405180604001604052806002815260200161373760f01b815250906136145760405162461bcd60e51b81526004016105dc91906147aa565b506136208260026149ee565b6135c59060016148cb565b600381015460009064ffffffffff90811690421681141561365f57505060010154600160801b90046001600160801b031690565b60018301546002840154600091613690916001600160801b03600160801b9283900481169261317a92041685613efb565b949350505050565b60006116388284614a0d565b604080518082019091526002815261373760f01b6020820152608083106136de5760405162461bcd60e51b81526004016105dc91906147aa565b506136ea8260026149ee565b816136f65760006136f9565b60015b60ff16901b6133bd8360026149ee565b600061163882846149ee565b600061163882846148e3565b600454600554604080518082019091526002815261363560f01b60208201529082106137605760405162461bcd60e51b81526004016105dc91906147aa565b506001600160a01b038216600090815260016020526040812060050154600160a01b900460ff161515806137c957506000805260036020527f3617319a054d772f909f7c479a2cebe5066e836a939412e32403c99029b92eff546001600160a01b038481169116145b9050806112cd576001600160a01b0383166000818152600160208181526040808420600501805460ff60a01b1916600160a01b60ff8a1602179055868452600390915290912080546001600160a01b03191690921790915561382c9083906148cb565b600455505050565b6000806138418584612c6d565b905083811015613855576000915050611638565b61385f8185613698565b95945050505050565b600381015460009064ffffffffff908116904216811415613895575050600101546001600160801b031690565b60018301546002840154600091613690916001600160801b039182169161317a911685613ffa565b6040805160208101909152845481526000906138df9088908890878787612692565b945050505050670de0b6b3a7640000811015604051806040016040528060018152602001601b60f91b815250906120275760405162461bcd60e51b81526004016105dc91906147aa565b60006080821060405180604001604052806002815260200161373760f01b815250906139685760405162461bcd60e51b81526004016105dc91906147aa565b506139748260026149ee565b925190921c600316151592915050565b600061163882846148cb565b6000826139a05750600019611638565b613690836139ae8685612c6d565b90614039565b805460028201546000919082906139cb9042614a0d565b905060006139dd639cbf9040836148e3565b905060006139ea866140f3565b905081613a3557613a24613a11613a0483629896806149ee565b6139ae86629896806149ee565b613a1e886001015461415b565b906141aa565b613a2e90856148cb565b9350613af6565b6000613a45639cbf9040846149ee565b613a4f9085614a0d565b905060005b838161ffff161015613aba57613a91613a84613a7385629896806149ee565b6139ae639cbf9040629896806149ee565b613a1e8a6001015461415b565b613a9b90876148cb565b9550613aa6886140f3565b925080613ab281614a50565b915050613a54565b50613ae8613adb613ace84629896806149ee565b6139ae84629896806149ee565b613a1e896001015461415b565b613af290866148cb565b9450505b6830ca024f987b900000841115613b14576830ca024f987b90000093505b5091949350505050565b604080518082019091526002815261035360f41b602082015260009082613b585760405162461bcd60e51b81526004016105dc91906147aa565b506000613b666002846148e3565b9050612710613b7782600019614a0d565b613b8191906148e3565b84111560405180604001604052806002815260200161068760f31b81525090613bbd5760405162461bcd60e51b81526004016105dc91906147aa565b508281613bcc612710876149ee565b613bd691906148cb565b61369091906148e3565b600285015460009081906001600160801b031685858215613d17576000613c078488613ffa565b9050613c13818a613d3d565b604080518082019091526002815261353160f01b60208201529093506001600160801b03841115613c575760405162461bcd60e51b81526004016105dc91906147aa565b5060018b0180546fffffffffffffffffffffffffffffffff19166001600160801b0385161790558915613d155760028b0154600090613ca690600160801b90046001600160801b031689613efb565b9050613cb2818a613d3d565b6040805180820190915260028152611a9960f11b60208201529093506001600160801b03841115613cf65760405162461bcd60e51b81526004016105dc91906147aa565b505060018b0180546001600160801b03808516600160801b0291161790555b505b600399909901805464ffffffffff19164264ffffffffff16179055989650505050505050565b6000821580613d4a575081155b15613d5757506000610f74565b81613d6f60026b033b2e3c9fd0803ce80000006148e3565b613d7b90600019614a0d565b613d8591906148e3565b83111560405180604001604052806002815260200161068760f31b81525090613dc15760405162461bcd60e51b81526004016105dc91906147aa565b506b033b2e3c9fd0803ce8000000612cf66002826148e3565b6000613e2f826040518060400160405280602081526020017f5361666545524332303a206c6f772d6c6576656c2063616c6c206661696c6564815250856001600160a01b031661423f9092919063ffffffff16565b8051909150156112cd5780806020019051810190613e4d9190614602565b6112cd5760405162461bcd60e51b815260206004820152602a60248201527f5361666545524332303a204552433230206f7065726174696f6e20646964206e6044820152691bdd081cdd58d8d9595960b21b60648201526084016105dc565b811580613eb7575082155b15613ec85760006001850155610fb0565b655af3107a4000613ee6613edc83836149ee565b6139ae8587614039565b613ef091906148e3565b600185015550505050565b600080613f0f4264ffffffffff8516613698565b905080613f2b576b033b2e3c9fd0803ce8000000915050610f74565b6000613f38600183614a0d565b9050600060028311613f4b576000613f56565b613f56600284614a0d565b90506000613f686301e13380886148e3565b90506000613f768280613d3d565b90506000613f848284613d3d565b905060006002613f9884611c558a8a613709565b613fa291906148e3565b905060006006613fb884611c5589818d8d613709565b613fc291906148e3565b9050613feb81613fe58481613fd78a8e613709565b6b033b2e3c9fd0803ce80000005b90613984565b9b9a5050505050505050505050565b60008061400e4264ffffffffff8516613698565b90506136906b033b2e3c9fd0803ce80000006301e1338061402f8785613709565b613fe591906148e3565b604080518082019091526002815261035360f41b6020820152600090826140735760405162461bcd60e51b81526004016105dc91906147aa565b5060006140816002846148e3565b9050670de0b6b3a764000061409882600019614a0d565b6140a291906148e3565b84111560405180604001604052806002815260200161068760f31b815250906140de5760405162461bcd60e51b81526004016105dc91906147aa565b508281613bcc670de0b6b3a7640000876149ee565b6000682086ac35105260000082600001541161411557506401d63c37f0919050565b81546825f273933db5700000106141325750640582b4a7d0919050565b8154682b5e3af16b188000001061414f5750640758f0dfc0919050565b5064497968bd80919050565b600068049b9ca9a69434000082111561419757606461417b8360046149ee565b61418591906148e3565b610f7490673d0ff0b013b80000614a0d565b610f748268049b9ca9a694340000614039565b60008215806141b7575081155b156141c457506000610f74565b816141d86002670de0b6b3a76400006148e3565b6141e490600019614a0d565b6141ee91906148e3565b83111560405180604001604052806002815260200161068760f31b8152509061422a5760405162461bcd60e51b81526004016105dc91906147aa565b50670de0b6b3a7640000612cf66002826148e3565b6060613690848460008585843b6142985760405162461bcd60e51b815260206004820152601d60248201527f416464726573733a2063616c6c20746f206e6f6e2d636f6e747261637400000060448201526064016105dc565b600080866001600160a01b031685876040516142b49190614678565b60006040518083038185875af1925050503d80600081146142f1576040519150601f19603f3d011682016040523d82523d6000602084013e6142f6565b606091505b5091509150614306828286614311565b979650505050505050565b60608315614320575081611638565b8251156143305782518084602001fd5b8160405162461bcd60e51b81526004016105dc91906147aa565b60006020828403121561435b578081fd5b813561163881614aa3565b600060208284031215614377578081fd5b815161163881614aa3565b60008060408385031215614394578081fd5b823561439f81614aa3565b915060208301356143af81614aa3565b809150509250929050565b600080600080600080600080610100898b0312156143d6578384fd5b88356143e181614aa3565b975060208901356143f181614aa3565b9650604089013561440181614aa3565b9550606089013561441181614aa3565b94506080890135935060a0890135925060c0890135915060e089013560ff8116811461443b578182fd5b809150509295985092959890939650565b600080600080600060a08688031215614463578081fd5b853561446e81614aa3565b9450602086013561447e81614aa3565b9350604086013561448e81614aa3565b92506060860135915060808601356144a581614ab8565b809150509295509295909350565b60008060008060008060c087890312156144cb578182fd5b86356144d681614aa3565b955060208701356144e681614aa3565b945060408701356144f681614aa3565b959894975094956060810135955060808101359460a0909101359350915050565b60008060408385031215614529578182fd5b823561453481614aa3565b915060208301356143af81614ab8565b60008060408385031215614556578182fd5b823561456181614aa3565b946020939093013593505050565b600080600060608486031215614583578283fd5b833561458e81614aa3565b92506020840135915060408401356145a581614aa3565b809150509250925092565b600080600080608085870312156145c5578384fd5b84356145d081614aa3565b93506020850135925060408501356145e781614aa3565b915060608501356145f781614aa3565b939692955090935050565b600060208284031215614613578081fd5b815161163881614ab8565b60006020828403121561462f578081fd5b815160048110611638578182fd5b60006020828403121561464e578081fd5b5051919050565b60008060408385031215614667578182fd5b505080516020909101519092909150565b6000825161468a818460208701614a24565b9190910192915050565b6001600160a01b03948516815292909316602083015260408201526001600160801b03909116606082015260800190565b6001600160a01b0393909316835260208301919091526001600160801b0316604082015260600190565b6001600160a01b039889168152602081019790975260408701959095526060860193909352608085019190915260a084015260c083015290911660e08201526101000190565b6020808252825182820181905260009190848201906040850190845b818110156147765783516001600160a01b031683529284019291840191600101614751565b50909695505050505050565b60208101600483106147a457634e487b7160e01b600052602160045260246000fd5b91905290565b60208152600082518060208401526147c9816040850160208701614a24565b601f01601f19169190910160400192915050565b81515181526101408101602083015161480160208401826001600160801b03169052565b50604083015161481c60408401826001600160801b03169052565b50606083015161483760608401826001600160801b03169052565b50608083015161485260808401826001600160801b03169052565b5060a083015161486b60a084018264ffffffffff169052565b5060c083015161488660c08401826001600160a01b03169052565b5060e08301516148a160e08401826001600160a01b03169052565b50610100838101516001600160a01b0316908301526101209283015160ff16929091019190915290565b600082198211156148de576148de614a8d565b500190565b6000826148fe57634e487b7160e01b81526012600452602481fd5b500490565b600181815b8085111561493e57816000190482111561492457614924614a8d565b8085161561493157918102915b93841c9390800290614908565b509250929050565b6000611638838360008261495c57506001610f74565b8161496957506000610f74565b816001811461497f5760028114614989576149a5565b6001915050610f74565b60ff84111561499a5761499a614a8d565b50506001821b610f74565b5060208310610133831016604e8410600b84101617156149c8575081810a610f74565b6149d28383614903565b80600019048211156149e6576149e6614a8d565b029392505050565b6000816000190483118215151615614a0857614a08614a8d565b500290565b600082821015614a1f57614a1f614a8d565b500390565b60005b83811015614a3f578181015183820152602001614a27565b83811115610fb05750506000910152565b600061ffff80831681811415614a6857614a68614a8d565b6001019392505050565b6000600019821415614a8657614a86614a8d565b5060010190565b634e487b7160e01b600052601160045260246000fd5b6001600160a01b03811681146134d657600080fd5b80151581146134d657600080fdfe44c58d81365b66dd4b1a7f36c25aa97b8c71c361ee4937adc1a00000227db5dd00058a56ea94653cdf4f152d227ace22d4c00ad99e2a43f58cb7d9e3feb295f2a264697066735822122083a98d4688dd8816aa6d48f458c9c79434707fecb4e25770c57116b370384ef664736f6c63430008040033",
  "linkReferences": {
    "contracts/libraries/logic/ReputationLogic.sol": {
      "ReputationLogic": [
        {
          "length": 20,
          "start": 4006
        }
      ]
    },
    "contracts/libraries/logic/ReserveLogic.sol": {
      "ReserveLogic": [
        {
          "length": 20,
          "start": 8303
        }
      ]
    },
    "contracts/libraries/logic/ValidationLogic.sol": {
      "ValidationLogic": [
        {
          "length": 20,
          "start": 4543
        },
        {
          "length": 20,
          "start": 5272
        },
        {
          "length": 20,
          "start": 6028
        },
        {
          "length": 20,
          "start": 7446
        },
        {
          "length": 20,
          "start": 9515
        }
      ]
    }
  },
  "deployedLinkReferences": {
    "contracts/libraries/logic/ReputationLogic.sol": {
      "ReputationLogic": [
        {
          "length": 20,
          "start": 3847
        }
      ]
    },
    "contracts/libraries/logic/ReserveLogic.sol": {
      "ReserveLogic": [
        {
          "length": 20,
          "start": 8144
        }
      ]
    },
    "contracts/libraries/logic/ValidationLogic.sol": {
      "ValidationLogic": [
        {
          "length": 20,
          "start": 4384
        },
        {
          "length": 20,
          "start": 5113
        },
        {
          "length": 20,
          "start": 5869
        },
        {
          "length": 20,
          "start": 7287
        },
        {
          "length": 20,
          "start": 9356
        }
      ]
    }
  }
}