{
  "_format": "hh-sol-artifact-1",
  "contractName": "LendingPool",
  "sourceName": "contracts/lendingpool/LendingPool.sol",
  "abi": [
    {
      "inputs": [
        {
          "internalType": "contract IAddressesProvider",
          "name": "provider",
          "type": "address"
        }
      ],
      "stateMutability": "nonpayable",
      "type": "constructor"
    },
    {
      "anonymous": false,
      "inputs": [
        {
          "indexed": true,
          "internalType": "address",
          "name": "reserve",
          "type": "address"
        },
        {
          "indexed": false,
          "internalType": "address",
          "name": "user",
          "type": "address"
        },
        {
          "indexed": true,
          "internalType": "address",
          "name": "onBehalfOf",
          "type": "address"
        },
        {
          "indexed": false,
          "internalType": "uint256",
          "name": "amount",
          "type": "uint256"
        },
        {
          "indexed": false,
          "internalType": "uint256",
          "name": "borrowRate",
          "type": "uint256"
        }
      ],
      "name": "Borrow",
      "type": "event"
    },
    {
      "anonymous": false,
      "inputs": [
        {
          "indexed": true,
          "internalType": "address",
          "name": "reserve",
          "type": "address"
        },
        {
          "indexed": false,
          "internalType": "address",
          "name": "user",
          "type": "address"
        },
        {
          "indexed": true,
          "internalType": "address",
          "name": "onBehalfOf",
          "type": "address"
        },
        {
          "indexed": false,
          "internalType": "uint256",
          "name": "amount",
          "type": "uint256"
        }
      ],
      "name": "Deposit",
      "type": "event"
    },
    {
      "anonymous": false,
      "inputs": [
        {
          "indexed": true,
          "internalType": "address",
          "name": "collateralAsset",
          "type": "address"
        },
        {
          "indexed": true,
          "internalType": "address",
          "name": "debtAsset",
          "type": "address"
        },
        {
          "indexed": true,
          "internalType": "address",
          "name": "user",
          "type": "address"
        },
        {
          "indexed": false,
          "internalType": "uint256",
          "name": "debtToCover",
          "type": "uint256"
        },
        {
          "indexed": false,
          "internalType": "uint256",
          "name": "liquidatedCollateralAmount",
          "type": "uint256"
        },
        {
          "indexed": false,
          "internalType": "address",
          "name": "liquidator",
          "type": "address"
        },
        {
          "indexed": false,
          "internalType": "bool",
          "name": "receiveAToken",
          "type": "bool"
        }
      ],
      "name": "LiquidationCall",
      "type": "event"
    },
    {
      "anonymous": false,
      "inputs": [
        {
          "indexed": true,
          "internalType": "address",
          "name": "reserve",
          "type": "address"
        },
        {
          "indexed": true,
          "internalType": "address",
          "name": "user",
          "type": "address"
        },
        {
          "indexed": true,
          "internalType": "address",
          "name": "repayer",
          "type": "address"
        },
        {
          "indexed": false,
          "internalType": "uint256",
          "name": "amount",
          "type": "uint256"
        }
      ],
      "name": "Repay",
      "type": "event"
    },
    {
      "anonymous": false,
      "inputs": [
        {
          "indexed": true,
          "internalType": "address",
          "name": "reserve",
          "type": "address"
        },
        {
          "indexed": false,
          "internalType": "uint256",
          "name": "liquidityRate",
          "type": "uint256"
        },
        {
          "indexed": false,
          "internalType": "uint256",
          "name": "variableBorrowRate",
          "type": "uint256"
        },
        {
          "indexed": false,
          "internalType": "uint256",
          "name": "liquidityIndex",
          "type": "uint256"
        },
        {
          "indexed": false,
          "internalType": "uint256",
          "name": "variableBorrowIndex",
          "type": "uint256"
        }
      ],
      "name": "ReserveDataUpdated",
      "type": "event"
    },
    {
      "anonymous": false,
      "inputs": [
        {
          "indexed": true,
          "internalType": "address",
          "name": "reserve",
          "type": "address"
        },
        {
          "indexed": true,
          "internalType": "address",
          "name": "user",
          "type": "address"
        }
      ],
      "name": "ReserveUsedAsCollateralDisabled",
      "type": "event"
    },
    {
      "anonymous": false,
      "inputs": [
        {
          "indexed": true,
          "internalType": "address",
          "name": "reserve",
          "type": "address"
        },
        {
          "indexed": true,
          "internalType": "address",
          "name": "user",
          "type": "address"
        }
      ],
      "name": "ReserveUsedAsCollateralEnabled",
      "type": "event"
    },
    {
      "anonymous": false,
      "inputs": [
        {
          "indexed": true,
          "internalType": "address",
          "name": "reserve",
          "type": "address"
        },
        {
          "indexed": true,
          "internalType": "address",
          "name": "user",
          "type": "address"
        },
        {
          "indexed": true,
          "internalType": "address",
          "name": "to",
          "type": "address"
        },
        {
          "indexed": false,
          "internalType": "uint256",
          "name": "amount",
          "type": "uint256"
        }
      ],
      "name": "Withdraw",
      "type": "event"
    },
    {
      "inputs": [],
      "name": "MAX_NUMBER_RESERVES",
      "outputs": [
        {
          "internalType": "uint256",
          "name": "",
          "type": "uint256"
        }
      ],
      "stateMutability": "view",
      "type": "function"
    },
    {
      "inputs": [
        {
          "internalType": "address",
          "name": "asset",
          "type": "address"
        },
        {
          "internalType": "uint256",
          "name": "amount",
          "type": "uint256"
        },
        {
          "internalType": "address",
          "name": "onBehalfOf",
          "type": "address"
        }
      ],
      "name": "borrow",
      "outputs": [],
      "stateMutability": "nonpayable",
      "type": "function"
    },
    {
      "inputs": [
        {
          "internalType": "address",
          "name": "asset",
          "type": "address"
        },
        {
          "internalType": "uint256",
          "name": "amount",
          "type": "uint256"
        },
        {
          "internalType": "address",
          "name": "onBehalfOf",
          "type": "address"
        }
      ],
      "name": "deposit",
      "outputs": [],
      "stateMutability": "nonpayable",
      "type": "function"
    },
    {
      "inputs": [
        {
          "internalType": "address",
          "name": "asset",
          "type": "address"
        },
        {
          "internalType": "address",
          "name": "from",
          "type": "address"
        },
        {
          "internalType": "address",
          "name": "to",
          "type": "address"
        },
        {
          "internalType": "uint256",
          "name": "amount",
          "type": "uint256"
        },
        {
          "internalType": "uint256",
          "name": "balanceFromBefore",
          "type": "uint256"
        },
        {
          "internalType": "uint256",
          "name": "balanceToBefore",
          "type": "uint256"
        }
      ],
      "name": "finalizeTransfer",
      "outputs": [],
      "stateMutability": "nonpayable",
      "type": "function"
    },
    {
      "inputs": [],
      "name": "getAddressesProvider",
      "outputs": [
        {
          "internalType": "contract IAddressesProvider",
          "name": "",
          "type": "address"
        }
      ],
      "stateMutability": "view",
      "type": "function"
    },
    {
      "inputs": [
        {
          "internalType": "address",
          "name": "asset",
          "type": "address"
        }
      ],
      "name": "getConfiguration",
      "outputs": [
        {
          "components": [
            {
              "internalType": "uint256",
              "name": "data",
              "type": "uint256"
            }
          ],
          "internalType": "struct DataTypes.ReserveConfigurationMap",
          "name": "",
          "type": "tuple"
        }
      ],
      "stateMutability": "view",
      "type": "function"
    },
    {
      "inputs": [
        {
          "internalType": "address",
          "name": "asset",
          "type": "address"
        }
      ],
      "name": "getReserveData",
      "outputs": [
        {
          "components": [
            {
              "components": [
                {
                  "internalType": "uint256",
                  "name": "data",
                  "type": "uint256"
                }
              ],
              "internalType": "struct DataTypes.ReserveConfigurationMap",
              "name": "configuration",
              "type": "tuple"
            },
            {
              "internalType": "uint128",
              "name": "liquidityIndex",
              "type": "uint128"
            },
            {
              "internalType": "uint128",
              "name": "variableBorrowIndex",
              "type": "uint128"
            },
            {
              "internalType": "uint128",
              "name": "currentLiquidityRate",
              "type": "uint128"
            },
            {
              "internalType": "uint128",
              "name": "currentVariableBorrowRate",
              "type": "uint128"
            },
            {
              "internalType": "uint40",
              "name": "lastUpdateTimestamp",
              "type": "uint40"
            },
            {
              "internalType": "address",
              "name": "aTokenAddress",
              "type": "address"
            },
            {
              "internalType": "address",
              "name": "variableDebtTokenAddress",
              "type": "address"
            },
            {
              "internalType": "address",
              "name": "interestRateStrategyAddress",
              "type": "address"
            },
            {
              "internalType": "uint8",
              "name": "id",
              "type": "uint8"
            }
          ],
          "internalType": "struct DataTypes.ReserveData",
          "name": "",
          "type": "tuple"
        }
      ],
      "stateMutability": "view",
      "type": "function"
    },
    {
      "inputs": [
        {
          "internalType": "address",
          "name": "asset",
          "type": "address"
        }
      ],
      "name": "getReserveNormalizedIncome",
      "outputs": [
        {
          "internalType": "uint256",
          "name": "",
          "type": "uint256"
        }
      ],
      "stateMutability": "view",
      "type": "function"
    },
    {
      "inputs": [
        {
          "internalType": "address",
          "name": "asset",
          "type": "address"
        }
      ],
      "name": "getReserveNormalizedVariableDebt",
      "outputs": [
        {
          "internalType": "uint256",
          "name": "",
          "type": "uint256"
        }
      ],
      "stateMutability": "view",
      "type": "function"
    },
    {
      "inputs": [],
      "name": "getReservesList",
      "outputs": [
        {
          "internalType": "address[]",
          "name": "",
          "type": "address[]"
        }
      ],
      "stateMutability": "view",
      "type": "function"
    },
    {
      "inputs": [
        {
          "internalType": "address",
          "name": "user",
          "type": "address"
        }
      ],
      "name": "getUserAccountData",
      "outputs": [
        {
          "internalType": "uint256",
          "name": "totalCollateralETH",
          "type": "uint256"
        },
        {
          "internalType": "uint256",
          "name": "totalDebtETH",
          "type": "uint256"
        },
        {
          "internalType": "uint256",
          "name": "availableBorrowsETH",
          "type": "uint256"
        },
        {
          "internalType": "uint256",
          "name": "currentLiquidationThreshold",
          "type": "uint256"
        },
        {
          "internalType": "uint256",
          "name": "ltv",
          "type": "uint256"
        },
        {
          "internalType": "uint256",
          "name": "healthFactor",
          "type": "uint256"
        }
      ],
      "stateMutability": "view",
      "type": "function"
    },
    {
      "inputs": [
        {
          "internalType": "address",
          "name": "user",
          "type": "address"
        }
      ],
      "name": "getUserConfiguration",
      "outputs": [
        {
          "components": [
            {
              "internalType": "uint256",
              "name": "data",
              "type": "uint256"
            }
          ],
          "internalType": "struct DataTypes.UserConfigurationMap",
          "name": "",
          "type": "tuple"
        }
      ],
      "stateMutability": "view",
      "type": "function"
    },
    {
      "inputs": [
        {
          "internalType": "address",
          "name": "user",
          "type": "address"
        }
      ],
      "name": "getUserIsBorrowingAny",
      "outputs": [
        {
          "internalType": "bool",
          "name": "isBorrowingAny",
          "type": "bool"
        }
      ],
      "stateMutability": "view",
      "type": "function"
    },
    {
      "inputs": [
        {
          "internalType": "address",
          "name": "user",
          "type": "address"
        },
        {
          "internalType": "address",
          "name": "asset",
          "type": "address"
        }
      ],
      "name": "getUserReserveStatus",
      "outputs": [
        {
          "internalType": "bool",
          "name": "isBorrowing",
          "type": "bool"
        },
        {
          "internalType": "bool",
          "name": "isUsingAsCollateral",
          "type": "bool"
        }
      ],
      "stateMutability": "view",
      "type": "function"
    },
    {
      "inputs": [
        {
          "internalType": "address",
          "name": "asset",
          "type": "address"
        },
        {
          "internalType": "address",
          "name": "aTokenAddress",
          "type": "address"
        },
        {
          "internalType": "address",
          "name": "variableDebtAddress",
          "type": "address"
        },
        {
          "internalType": "address",
          "name": "interestRateStrategyAddress",
          "type": "address"
        },
        {
          "internalType": "uint256",
          "name": "ltv",
          "type": "uint256"
        },
        {
          "internalType": "uint256",
          "name": "liquidationThreshold",
          "type": "uint256"
        },
        {
          "internalType": "uint256",
          "name": "liquidationBonus",
          "type": "uint256"
        },
        {
          "internalType": "uint8",
          "name": "decimals",
          "type": "uint8"
        }
      ],
      "name": "initReserve",
      "outputs": [],
      "stateMutability": "nonpayable",
      "type": "function"
    },
    {
      "inputs": [
        {
          "internalType": "address",
          "name": "collateralAsset",
          "type": "address"
        },
        {
          "internalType": "address",
          "name": "debtAsset",
          "type": "address"
        },
        {
          "internalType": "address",
          "name": "user",
          "type": "address"
        },
        {
          "internalType": "uint256",
          "name": "debtToCover",
          "type": "uint256"
        },
        {
          "internalType": "bool",
          "name": "receiveAToken",
          "type": "bool"
        }
      ],
      "name": "liquidationCall",
      "outputs": [],
      "stateMutability": "nonpayable",
      "type": "function"
    },
    {
      "inputs": [
        {
          "internalType": "address",
          "name": "asset",
          "type": "address"
        },
        {
          "internalType": "uint256",
          "name": "amount",
          "type": "uint256"
        },
        {
          "internalType": "address",
          "name": "onBehalfOf",
          "type": "address"
        }
      ],
      "name": "repay",
      "outputs": [
        {
          "internalType": "uint256",
          "name": "",
          "type": "uint256"
        }
      ],
      "stateMutability": "nonpayable",
      "type": "function"
    },
    {
      "inputs": [
        {
          "internalType": "address",
          "name": "asset",
          "type": "address"
        },
        {
          "internalType": "uint256",
          "name": "configuration",
          "type": "uint256"
        }
      ],
      "name": "setConfiguration",
      "outputs": [],
      "stateMutability": "nonpayable",
      "type": "function"
    },
    {
      "inputs": [
        {
          "internalType": "address",
          "name": "asset",
          "type": "address"
        },
        {
          "internalType": "address",
          "name": "rateStrategyAddress",
          "type": "address"
        }
      ],
      "name": "setReserveInterestRateStrategyAddress",
      "outputs": [],
      "stateMutability": "nonpayable",
      "type": "function"
    },
    {
      "inputs": [
        {
          "internalType": "address",
          "name": "asset",
          "type": "address"
        },
        {
          "internalType": "bool",
          "name": "useAsCollateral",
          "type": "bool"
        }
      ],
      "name": "setUserUseReserveAsCollateral",
      "outputs": [],
      "stateMutability": "nonpayable",
      "type": "function"
    },
    {
      "inputs": [
        {
          "internalType": "address",
          "name": "asset",
          "type": "address"
        },
        {
          "internalType": "uint256",
          "name": "amount",
          "type": "uint256"
        },
        {
          "internalType": "address",
          "name": "to",
          "type": "address"
        }
      ],
      "name": "withdraw",
      "outputs": [
        {
          "internalType": "uint256",
          "name": "",
          "type": "uint256"
        }
      ],
      "stateMutability": "nonpayable",
      "type": "function"
    }
  ],
  "bytecode": "0x60806040523480156200001157600080fd5b50604051620042193803806200421983398101604081905262000034916200005f565b600080546001600160a01b0319166001600160a01b039290921691909117905560806005556200008f565b60006020828403121562000071578081fd5b81516001600160a01b038116811462000088578182fd5b9392505050565b61417a806200009f6000396000f3fe608060405234801561001057600080fd5b50600436106101365760003560e01c80639835159c116100b8578063d15e00531161007c578063d15e005314610496578063d1946dbc146104a9578063d5ed3933146104be578063f45346dc146104d1578063f8119d51146104e4578063fe65acfe146104ec57600080fd5b80639835159c146103b4578063a3aefba2146103c7578063b8d29276146103ea578063bf92857c14610414578063c44b11f71461045457600080fd5b80634417a583116100ff5780634417a583146103175780635a3b74b9146103685780635ceae9c41461037b57806369328dec1461038e5780636c665a55146103a157600080fd5b8062a718a91461013b5780631d2118f91461015057806335ea6a751461018f578063384c88c5146102cc578063386497fd146102f6575b600080fd5b61014e610149366004613b42565b610507565b005b61014e61015e366004613a78565b6001600160a01b03918216600090815260016020526040902060050180546001600160a01b03191691909216179055565b6102b661019d366004613a40565b604080516101608101825260006101408201818152825260208201819052918101829052606081018290526080810182905260a0810182905260c0810182905260e081018290526101008101829052610120810191909152506001600160a01b03908116600090815260016020818152604092839020835161016081018552815461014082019081528152928101546001600160801b0380821693850193909352600160801b908190048316948401949094526002810154808316606085015293909304166080820152600382015464ffffffffff811660a0830152600160281b9004831660c08201526004820154831660e0820152600590910154918216610100820152600160a01b90910460ff1661012082015290565b6040516102c39190613e3a565b60405180910390f35b6102df6102da366004613a78565b610d06565b6040805192151583529015156020830152016102c3565b610309610304366004613a40565b610e11565b6040519081526020016102c3565b610359610325366004613a40565b60408051602080820183526000918290526001600160a01b0393909316815260028352819020815192830190915254815290565b604051905181526020016102c3565b61014e610376366004613c0d565b610e38565b610309610389366004613c65565b611006565b61030961039c366004613c65565b61134a565b61014e6103af366004613c65565b61165a565b61014e6103c2366004613ab0565b611a72565b6103da6103d5366004613a40565b611bb9565b60405190151581526020016102c3565b61014e6103f8366004613c3a565b6001600160a01b03909116600090815260016020526040902055565b610427610422366004613a40565b611c09565b604080519687526020870195909552938501929092526060840152608083015260a082015260c0016102c3565b610359610462366004613a40565b60408051602080820183526000918290526001600160a01b0393909316815260018352819020815192830190915254815290565b6103096104a4366004613a40565b611cc6565b6104b1611ce7565b6040516102c39190613dba565b61014e6104cc366004613ba9565b611dba565b61014e6104df366004613c65565b611fde565b600554610309565b6000546040516001600160a01b0390911681526020016102c3565b6001600160a01b0380861660009081526001602052604080822087841683529120600382015491929091600160281b9004161580159061055a57506003810154600160281b90046001600160a01b031615155b60405180604001604052806002815260200161373960f01b8152509061059c5760405162461bcd60e51b81526004016105939190613e07565b60405180910390fd5b50600060026000876001600160a01b03166001600160a01b0316815260200190815260200160002090506106356040518061018001604052806000815260200160008152602001600081526020016000815260200160008152602001600081526020016000815260200160008152602001600081526020016000815260200160006001600160a01b031681526020016000151581525090565b604080516020808201835284548252600480546000548551631f94a27560e31b815295516106cf968e966001969095600395946001600160a01b03169363fca513a893808301939290829003018186803b15801561069257600080fd5b505afa1580156106a6573d6000803e3d6000fd5b505050506040513d601f19601f820116820180604052508101906106ca9190613a5c565b6121f9565b610100860152505050506004838101546040516370a0823160e01b81526001600160a01b038a8116938201939093529116906370a082319060240160206040518083038186803b15801561072257600080fd5b505afa158015610736573d6000803e3d6000fd5b505050506040513d601f19601f8201168201806040525081019061075a9190613cc2565b6020820181905261010082015161077491869185916126cb565b6003840154600160281b90046001600160a01b0390811661014083018190526040516370a0823160e01b81529189166004830152906370a082319060240160206040518083038186803b1580156107ca57600080fd5b505afa1580156107de573d6000803e3d6000fd5b505050506040513d601f19601f820116820180604052508101906108029190613cc2565b81526020810151610815906113886127b4565b604082018190528611610828578561082e565b80604001515b60608201819052815161084991869186918d918d919061285b565b60e0830181905260c08301919091526060820151111561086e5760e081015160608201525b8461093b576101408101516040516370a0823160e01b81526001600160a01b0391821660048201526000918b16906370a082319060240160206040518083038186803b1580156108bd57600080fd5b505afa1580156108d1573d6000803e3d6000fd5b505050506040513d601f19601f820116820180604052508101906108f59190613cc2565b90508160c0015181101560405180604001604052806002815260200161343560f01b815250906109385760405162461bcd60e51b81526004016105939190613e07565b50505b61094483612b3f565b60048381015460608301516001860154604051637a94c56560e11b81526001600160a01b039093169363f5298aca93610993938d939092600160801b9091046001600160801b03169101613d4a565b600060405180830381600087803b1580156109ad57600080fd5b505af11580156109c1573d6000803e3d6000fd5b50505050600383015460608201516109ef9185918b91600160281b90046001600160a01b0316906000612bff565b8415610b51576101408101516040516370a0823160e01b81523360048201526001600160a01b03909116906370a082319060240160206040518083038186803b158015610a3b57600080fd5b505afa158015610a4f573d6000803e3d6000fd5b505050506040513d601f19601f82011682018060405250810190610a739190613cc2565b61012082015261014081015160c082015160405163f866c31960e01b81526001600160a01b038a81166004830152336024830152604482019290925291169063f866c31990606401600060405180830381600087803b158015610ad557600080fd5b505af1158015610ae9573d6000803e3d6000fd5b5050505080610120015160001415610b4c573360009081526002602052604090206005850154610b26908290600160a01b900460ff166001612e89565b60405133906001600160a01b038c169060008051602061412583398151915290600090a3505b610bf3565b610b5a84612b3f565b61014081015160c0820151610b769186918c9190600090612bff565b61014081015160c08201516001860154604051636b81068560e11b81526001600160a01b039093169263d7020d0a92610bc0928c923392916001600160801b031690600401613d19565b600060405180830381600087803b158015610bda57600080fd5b505af1158015610bee573d6000803e3d6000fd5b505050505b805160c08201511415610c4b576005840154610c1c908390600160a01b900460ff166000612e89565b866001600160a01b0316896001600160a01b031660008051602061410583398151915260405160405180910390a35b60038301546060820151610c77916001600160a01b038b8116923392600160281b900490911690612f15565b866001600160a01b0316886001600160a01b03168a6001600160a01b03167fe413a321e8681d831f4dbccbca790d2952b56f977908e45be37335533e00528684606001518560c00151338b604051610cf3949392919093845260208401929092526001600160a01b031660408301521515606082015260800190565b60405180910390a4505050505050505050565b6001600160a01b038082166000908152600160208181526040808420815161016081018352815461014082019081528152938101546001600160801b0380821686860152600160801b91829004811686850152600280840154808316606089015292909204166080860152600382015464ffffffffff811660a0870152600160281b9004871660c08601526004820154871660e086015260059091015480871661010086015260ff600160a01b909104811661012086019081529689168652908352818520825193840190925290548252935192938493610de991839116612f75565b9350610e0682610120015160ff1682612fd090919063ffffffff16565b925050509250929050565b6001600160a01b0381166000908152600160205260408120610e3290613026565b92915050565b6001600160a01b038083166000908152600160208181526040808420338552600283528185206004805496548451631f94a27560e31b81529451939873__$5201a97c05ba6aa659e2f36a933dd51801$__98635fa297e5988b988e988e989297966003969495949094169363fca513a8938282019392909190829003018186803b158015610ec557600080fd5b505afa158015610ed9573d6000803e3d6000fd5b505050506040513d601f19601f82011682018060405250810190610efd9190613a5c565b6040516001600160e01b031960e08b901b16815260048101989098526001600160a01b03968716602489015294151560448801526064870193909352608486019190915260a485015260c48401521660e48201526101040160006040518083038186803b158015610f6d57600080fd5b505af4158015610f81573d6000803e3d6000fd5b505050506005810154336000908152600260205260409020610fad91600160a01b900460ff1684612e89565b8115610fdc5760405133906001600160a01b0385169060008051602061412583398151915290600090a3505050565b60405133906001600160a01b0385169060008051602061410583398151915290600090a35b505050565b6001600160a01b0383811660009081526001602090815260408083206003015481518083019092526002825261373960f01b928201929092529192600160281b909104166110675760405162461bcd60e51b81526004016105939190613e07565b506001600160a01b0384811660009081526001602052604080822060048082015492516370a0823160e01b815287861691810191909152909391909116906370a082319060240160206040518083038186803b1580156110c657600080fd5b505afa1580156110da573d6000803e3d6000fd5b505050506040513d601f19601f820116820180604052508101906110fe9190613cc2565b604051632835d86f60e21b8152600481018790526001600160a01b03861660248201526044810182905290915073__$5201a97c05ba6aa659e2f36a933dd51801$__9063a0d761bc9060640160006040518083038186803b15801561116257600080fd5b505af4158015611176573d6000803e3d6000fd5b508392505050808610156111875750845b61119083612b3f565b6004838101546001850154604051637a94c56560e11b81526001600160a01b039092169263f5298aca926111da928a928792600160801b9092046001600160801b03169101613d4a565b600060405180830381600087803b1580156111f457600080fd5b505af1158015611208573d6000803e3d6000fd5b505050506003830154600160281b90046001600160a01b031661122f848983856000612bff565b6112398383613093565b6112715760058401546001600160a01b0387166000908152600260205260408120611271929091600160a01b90910460ff169061309f565b6112866001600160a01b038916338385612f15565b6040516388dd91a160e01b8152336004820152602481018390526001600160a01b038216906388dd91a190604401600060405180830381600087803b1580156112ce57600080fd5b505af11580156112e2573d6000803e3d6000fd5b50505050336001600160a01b0316866001600160a01b0316896001600160a01b03167f4cdde6e09bb755c9a5589ebaec640bbfedff1362d4b255ebf8339782b9942faa8560405161133591815260200190565b60405180910390a450925050505b9392505050565b6001600160a01b03838116600090815260016020526040808220600381015491516370a0823160e01b815233600482015292939092600160281b9092041690839082906370a082319060240160206040518083038186803b1580156113ae57600080fd5b505afa1580156113c2573d6000803e3d6000fd5b505050506040513d601f19601f820116820180604052508101906113e69190613cc2565b9050856000198114156113f65750805b73__$5201a97c05ba6aa659e2f36a933dd51801$__63d09db04a898385600160026000336001600160a01b03166001600160a01b03168152602001908152602001600020600360045460008054906101000a90046001600160a01b03166001600160a01b031663fca513a86040518163ffffffff1660e01b815260040160206040518083038186803b15801561148b57600080fd5b505afa15801561149f573d6000803e3d6000fd5b505050506040513d601f19601f820116820180604052508101906114c39190613a5c565b6040518963ffffffff1660e01b81526004016114e6989796959493929190613d74565b60006040518083038186803b1580156114fe57600080fd5b505af4158015611512573d6000803e3d6000fd5b5050505061151f84612b3f565b61152d848985600085612bff565b81811415611585576005840154336000908152600260205260408120611560929091600160a01b90910460ff1690612e89565b60405133906001600160a01b038a169060008051602061410583398151915290600090a35b6001840154604051636b81068560e11b81526001600160a01b0385169163d7020d0a916115c69133918b9187916001600160801b0390911690600401613d19565b600060405180830381600087803b1580156115e057600080fd5b505af11580156115f4573d6000803e3d6000fd5b50505050856001600160a01b0316336001600160a01b0316896001600160a01b03167f3115d1449a7b732c986cba18244e897a450f61e1bb8d589cd2e69e6c8924f9f78460405161164791815260200190565b60405180910390a4979650505050505050565b6001600160a01b038381166000908152600160209081526040918290206003015482518084019093526002835261373960f01b918301919091529091600160281b909104166116bc5760405162461bcd60e51b81526004016105939190613e07565b506001600160a01b038084166000908152600160209081526040808320858516845260028352818420600382015485548451631f94a27560e31b8152945193979296600160281b90920483169533959294919093169263fca513a89260048082019391829003018186803b15801561173357600080fd5b505afa158015611747573d6000803e3d6000fd5b505050506040513d601f19601f8201168201806040525081019061176b9190613a5c565b85549091506000906118139060301c60ff1661178890600a613fa3565b60405163b3596f0760e01b81526001600160a01b038c8116600483015261180d918c9187169063b3596f079060240160206040518083038186803b1580156117cf57600080fd5b505afa1580156117e3573d6000803e3d6000fd5b505050506040513d601f19601f820116820180604052508101906118079190613cc2565b90613104565b90613110565b60048054604051631c7d75d760e31b815292935073__$5201a97c05ba6aa659e2f36a933dd51801$__9263e3ebaeb89261185e928c928e9288926001928e92600392918d9101613d74565b60006040518083038186803b15801561187657600080fd5b505af415801561188a573d6000803e3d6000fd5b5050505061189786612b3f565b60008660040160009054906101000a90046001600160a01b03166001600160a01b031663b3f1c93d858a8c8b60010160109054906101000a90046001600160801b03166040518563ffffffff1660e01b81526004016118f99493929190613d19565b602060405180830381600087803b15801561191357600080fd5b505af1158015611927573d6000803e3d6000fd5b505050506040513d601f19601f8201168201806040525081019061194b9190613ca6565b9050801561196f57600587015461196f908790600160a01b900460ff16600161309f565b61197d878b8760008d612bff565b604051634efecaa560e01b81526001600160a01b038581166004830152602482018b9052861690634efecaa590604401602060405180830381600087803b1580156119c757600080fd5b505af11580156119db573d6000803e3d6000fd5b505050506040513d601f19601f820116820180604052508101906119ff9190613cc2565b50876001600160a01b03168a6001600160a01b03167f96558a334f4759f0e7c423d68c84721860bd8fbf94ddc4e55158ecb125ad04b5868c8b60020160109054906101000a90046001600160801b0316604051611a5e93929190613d4a565b60405180910390a350505050505050505050565b60408051808201909152600281526106e760f31b6020820152883b611aaa5760405162461bcd60e51b81526004016105939190613e07565b50600054604080518082019091526002815261373560f01b6020820152906001600160a01b03163314611af05760405162461bcd60e51b81526004016105939190613e07565b506001600160a01b0388811660009081526001602052604090819020905163f2a3bb1d60e01b815260048101919091528882166024820152878216604482015290861660648201526084810185905260a4810184905260c4810183905260ff821660e482015273__$d3b4366daeb9cadc7528af6145b50b2183$__9063f2a3bb1d906101040160006040518083038186803b158015611b8e57600080fd5b505af4158015611ba2573d6000803e3d6000fd5b50505050611baf8861311c565b5050505050505050565b6001600160a01b03811660009081526002602090815260408083208151928301909152548082527f5555555555555555555555555555555555555555555555555555555555555555161515611343565b600080600080600080611ca3876001600260008b6001600160a01b03166001600160a01b03168152602001908152602001600020604051806020016040529081600082015481525050600360045460008054906101000a90046001600160a01b03166001600160a01b031663fca513a86040518163ffffffff1660e01b815260040160206040518083038186803b15801561069257600080fd5b93995091975090945092509050611cbb86868461322f565b935091939550919395565b6001600160a01b0381166000908152600160205260408120610e3290613263565b6060600060045467ffffffffffffffff811115611d1457634e487b7160e01b600052604160045260246000fd5b604051908082528060200260200182016040528015611d3d578160200160208202803683370190505b50905060005b600454811015611db45760008181526003602052604090205482516001600160a01b0390911690839083908110611d8a57634e487b7160e01b600052603260045260246000fd5b6001600160a01b039092166020928302919091019091015280611dac816140ad565b915050611d43565b50919050565b6001600160a01b038087166000908152600160209081526040918290206003015482518084019093526002835261363360f01b91830191909152909133600160281b9092041614611e1e5760405162461bcd60e51b81526004016105939190613e07565b50611ed885600160026000896001600160a01b03166001600160a01b03168152602001908152602001600020600360045460008054906101000a90046001600160a01b03166001600160a01b031663fca513a86040518163ffffffff1660e01b815260040160206040518083038186803b158015611e9b57600080fd5b505afa158015611eaf573d6000803e3d6000fd5b505050506040513d601f19601f82011682018060405250810190611ed39190613a5c565b6132b8565b6001600160a01b03868116600090815260016020526040902060050154600160a01b900460ff169085811690871614611fd557611f158385613093565b611f6f576001600160a01b038616600090815260026020526040812090611f3f9082908490612e89565b866001600160a01b0316886001600160a01b031660008051602061410583398151915260405160405180910390a3505b81158015611f7c57508315155b15611fd5576001600160a01b0385166000908152600260205260409020611fa581836001612e89565b856001600160a01b0316886001600160a01b031660008051602061412583398151915260405160405180910390a3505b50505050505050565b6001600160a01b0383166000818152600160208190526040918290209151631afdf41360e11b815260048101939093526024830185905260448301529073__$5201a97c05ba6aa659e2f36a933dd51801$__906335fbe8269060640160006040518083038186803b15801561205257600080fd5b505af4158015612066573d6000803e3d6000fd5b505050506003810154600160281b90046001600160a01b031661208882612b3f565b612096828683876000612bff565b6120ab6001600160a01b038616338387612f15565b6001820154604051630ab714fb60e11b81526000916001600160a01b0384169163156e29f6916120ed9188918a916001600160801b0390911690600401613d4a565b602060405180830381600087803b15801561210757600080fd5b505af115801561211b573d6000803e3d6000fd5b505050506040513d601f19601f8201168201806040525081019061213f9190613ca6565b905080156121a85760058301546001600160a01b038516600090815260026020526040902061217991600160a01b900460ff166001612e89565b836001600160a01b0316866001600160a01b031660008051602061412583398151915260405160405180910390a35b60408051338152602081018790526001600160a01b0380871692908916917f7cfff908a4b583f36430b25d75964c458d8ede8a99bd61be750e97ee1b2f3a96910160405180910390a3505050505050565b600080600080600061229e604051806102400160405280600081526020016000815260200160008152602001600081526020016000815260200160008152602001600081526020016000815260200160008152602001600081526020016000815260200160008152602001600081526020016000815260200160001515815260200160006001600160a01b031681526020016000151581526020016000151581525090565b89516122bd5760008060008060001995509550955095509550506126bd565b600060e08201525b878160e00151101561261c5760e08101516122e1908b90613324565b6122ea57612604565b60e0810151600090815260208a81526040808320546001600160a01b03166101e085018190528352908d9052902061233e815461ffff80821692601083901c821692602081901c9092169160301c60ff1690565b6080860181905260c08601929092525060a084019190915261236190600a613fa3565b60208301526101e082015160405163b3596f0760e01b81526001600160a01b0391821660048201529089169063b3596f079060240160206040518083038186803b1580156123ae57600080fd5b505afa1580156123c2573d6000803e3d6000fd5b505050506040513d601f19601f820116820180604052508101906123e69190613cc2565b825260c082015115801590612406575060e0820151612406908c90612fd0565b156125185760038101546040516370a0823160e01b81526001600160a01b038f81166004830152600160281b909204909116906370a082319060240160206040518083038186803b15801561245a57600080fd5b505afa15801561246e573d6000803e3d6000fd5b505050506040513d601f19601f820116820180604052508101906124929190613cc2565b60408301819052602083015183516000926124b1929161180d91613104565b6101208401519091506124c4908261337f565b61012084015260a08301516124ea906124de908390613104565b6101608501519061337f565b61016084015260c083015161251090612504908390613104565b6101808501519061337f565b610180840152505b60e0820151612528908c90612f75565b15612602578060040160009054906101000a90046001600160a01b03166001600160a01b03166370a082318e6040518263ffffffff1660e01b815260040161257f91906001600160a01b0391909116815260200190565b60206040518083038186803b15801561259757600080fd5b505afa1580156125ab573d6000803e3d6000fd5b505050506040513d601f19601f820116820180604052508101906125cf9190613cc2565b60608301819052602083015183516125fb926125ef929161180d91613104565b6101408401519061337f565b6101408301525b505b60e08101805190612614826140ad565b9052506122c5565b600081610120015111612630576000612645565b61012081015161016082015161264591613110565b61016082015261012081015161265c576000612671565b61012081015161018082015161267191613110565b610180820181905261012082015161014083015161268e9261338b565b610100820181905261012082015161014083015161016084015161018090940151919850965091945090925090505b965096509650965096915050565b6040805180820190915260028152611a1960f11b6020820152670de0b6b3a7640000831061270c5760405162461bcd60e51b81526004016105939190613e07565b5060058401546040805160208101909152845481526000916127389190600160a01b900460ff16612fd0565b90508060405180604001604052806002815260200161343360f01b815250906127745760405162461bcd60e51b81526004016105939190613e07565b506040805180820190915260028152610d0d60f21b6020820152826127ac5760405162461bcd60e51b81526004016105939190613e07565b505050505050565b60008215806127c1575081155b156127ce57506000610e32565b816127dc6002612710613f40565b6127e89060001961406a565b6127f29190613f40565b83111560405180604001604052806002815260200161068760f31b8152509061282e5760405162461bcd60e51b81526004016105939190613e07565b5061271061283d600282613f40565b612847848661404b565b6128519190613f28565b6113439190613f40565b60008060008060008060009054906101000a90046001600160a01b03166001600160a01b031663fca513a86040518163ffffffff1660e01b815260040160206040518083038186803b1580156128b057600080fd5b505afa1580156128c4573d6000803e3d6000fd5b505050506040513d601f19601f820116820180604052508101906128e89190613a5c565b905061292a6040518060e00160405280600081526020016000815260200160008152602001600081526020016000815260200160008152602001600081525090565b60405163b3596f0760e01b81526001600160a01b038b8116600483015283169063b3596f079060240160206040518083038186803b15801561296b57600080fd5b505afa15801561297f573d6000803e3d6000fd5b505050506040513d601f19601f820116820180604052508101906129a39190613cc2565b6040828101919091525163b3596f0760e01b81526001600160a01b038a8116600483015283169063b3596f079060240160206040518083038186803b1580156129eb57600080fd5b505afa1580156129ff573d6000803e3d6000fd5b505050506040513d601f19601f82011682018060405250810190612a239190613cc2565b6060820152612a4e8c5461ffff80821692601083901c821692602081901c9092169160301c60ff1690565b60c0850152602084015250508a5460301c60ff1660a08201819052612ab890612a8790612a7c90600a613fa3565b604084015190613104565b61180d8360200151612ab28560c00151600a612aa39190613fa3565b6060870151611807908f613104565b906127b4565b60808201819052871015612b2357869350612b1c8160200151612b16612af38460c00151600a612ae89190613fa3565b606086015190613104565b61180d8560a00151600a612b079190613fa3565b6040870151611807908b613104565b906133af565b9250612b2e565b806080015193508792505b50919a909950975050505050505050565b60008160040160009054906101000a90046001600160a01b03166001600160a01b031663b1bf962d6040518163ffffffff1660e01b815260040160206040518083038186803b158015612b9157600080fd5b505afa158015612ba5573d6000803e3d6000fd5b505050506040513d601f19601f82011682018060405250810190612bc99190613cc2565b600183015460038401549192506001600160801b03600160801b820481169291169064ffffffffff16611fd58585848685613471565b612c2a6040518060800160405280600081526020016000815260200160008152602001600081525090565b60018601546004808801546040805163b1bf962d60e01b81529051612cc794600160801b90046001600160801b0316936001600160a01b039093169263b1bf962d92808201926020929091829003018186803b158015612c8957600080fd5b505afa158015612c9d573d6000803e3d6000fd5b505050506040513d601f19601f82011682018060405250810190612cc19190613cc2565b906135ce565b6060820181905260058701546040516272fa8b60e91b81526001600160a01b03888116600483015287811660248301526044820187905260648201869052608482019390935291169063e5f516009060a401604080518083038186803b158015612d3057600080fd5b505afa158015612d44573d6000803e3d6000fd5b505050506040513d601f19601f82011682018060405250810190612d689190613cda565b604080840191909152602080840183905281518083019092526002825261353360f01b90820152906001600160801b031015612db75760405162461bcd60e51b81526004016105939190613e07565b50604080820151815180830190925260028252610d4d60f21b60208301526001600160801b031015612dfc5760405162461bcd60e51b81526004016105939190613e07565b506020818101516040808401516001600160801b03808416600160801b82841681029190911760028d015560018c0154845195865295850192909252848116848401529304909216606082015290516001600160a01b038716917f4063a2df84b66bb796eb32622851d833e57b2c4292900c18f963af8808b13e35919081900360800190a2505050505050565b604080518082019091526002815261373760f01b602082015260808310612ec35760405162461bcd60e51b81526004016105939190613e07565b50612ecf82600261404b565b612eda906001613f28565b81612ee6576000612ee9565b60015b60ff16901b612ef983600261404b565b612f04906001613f28565b8454600190911b1916179092555050565b604080516001600160a01b0385811660248301528416604482015260648082018490528251808303909101815260849091019091526020810180516001600160e01b03166323b872dd60e01b179052612f6f90859061366b565b50505050565b60006080821060405180604001604052806002815260200161373760f01b81525090612fb45760405162461bcd60e51b81526004016105939190613e07565b50612fc082600261404b565b925190921c600116151592915050565b60006080821060405180604001604052806002815260200161373760f01b8152509061300f5760405162461bcd60e51b81526004016105939190613e07565b5061301b82600261404b565b612fc0906001613f28565b600381015460009064ffffffffff90811690421681141561305a57505060010154600160801b90046001600160801b031690565b6001830154600284015460009161308b916001600160801b03600160801b92839004811692612cc19204168561373d565b949350505050565b6000611343828461406a565b604080518082019091526002815261373760f01b6020820152608083106130d95760405162461bcd60e51b81526004016105939190613e07565b506130e582600261404b565b816130f15760006130f4565b60015b60ff16901b612f0483600261404b565b6000611343828461404b565b60006113438284613f40565b600454600554604080518082019091526002815261363560f01b602082015290821061315b5760405162461bcd60e51b81526004016105939190613e07565b506001600160a01b038216600090815260016020526040812060050154600160a01b900460ff161515806131c457506000805260036020527f3617319a054d772f909f7c479a2cebe5066e836a939412e32403c99029b92eff546001600160a01b038481169116145b905080611001576001600160a01b0383166000818152600160208181526040808420600501805460ff60a01b1916600160a01b60ff8a1602179055868452600390915290912080546001600160a01b031916909217909155613227908390613f28565b600455505050565b60008061323c85846127b4565b905083811015613250576000915050611343565b61325a8185613093565b95945050505050565b600381015460009064ffffffffff908116904216811415613290575050600101546001600160801b031690565b6001830154600284015460009161308b916001600160801b0391821691612cc191168561383c565b6040805160208101909152845481526000906132da90889088908787876121f9565b945050505050670de0b6b3a7640000811015604051806040016040528060018152602001601b60f91b81525090611baf5760405162461bcd60e51b81526004016105939190613e07565b60006080821060405180604001604052806002815260200161373760f01b815250906133635760405162461bcd60e51b81526004016105939190613e07565b5061336f82600261404b565b925190921c600316151592915050565b60006113438284613f28565b60008261339b5750600019611343565b61308b836133a986856127b4565b9061387b565b604080518082019091526002815261035360f41b6020820152600090826133e95760405162461bcd60e51b81526004016105939190613e07565b5060006133f7600284613f40565b90506127106134088260001961406a565b6134129190613f40565b84111560405180604001604052806002815260200161068760f31b8152509061344e5760405162461bcd60e51b81526004016105939190613e07565b50828161345d6127108761404b565b6134679190613f28565b61308b9190613f40565b600285015460009081906001600160801b0316858582156135a8576000613498848861383c565b90506134a4818a6135ce565b604080518082019091526002815261353160f01b60208201529093506001600160801b038411156134e85760405162461bcd60e51b81526004016105939190613e07565b5060018b0180546fffffffffffffffffffffffffffffffff19166001600160801b03851617905589156135a65760028b015460009061353790600160801b90046001600160801b03168961373d565b9050613543818a6135ce565b6040805180820190915260028152611a9960f11b60208201529093506001600160801b038411156135875760405162461bcd60e51b81526004016105939190613e07565b505060018b0180546001600160801b03808516600160801b0291161790555b505b600399909901805464ffffffffff19164264ffffffffff16179055989650505050505050565b60008215806135db575081155b156135e857506000610e32565b8161360060026b033b2e3c9fd0803ce8000000613f40565b61360c9060001961406a565b6136169190613f40565b83111560405180604001604052806002815260200161068760f31b815250906136525760405162461bcd60e51b81526004016105939190613e07565b506b033b2e3c9fd0803ce800000061283d600282613f40565b60006136c0826040518060400160405280602081526020017f5361666545524332303a206c6f772d6c6576656c2063616c6c206661696c6564815250856001600160a01b03166139359092919063ffffffff16565b80519091501561100157808060200190518101906136de9190613ca6565b6110015760405162461bcd60e51b815260206004820152602a60248201527f5361666545524332303a204552433230206f7065726174696f6e20646964206e6044820152691bdd081cdd58d8d9595960b21b6064820152608401610593565b6000806137514264ffffffffff8516613093565b90508061376d576b033b2e3c9fd0803ce8000000915050610e32565b600061377a60018361406a565b905060006002831161378d576000613798565b61379860028461406a565b905060006137aa6301e1338088613f40565b905060006137b882806135ce565b905060006137c682846135ce565b9050600060026137da846118078a8a613104565b6137e49190613f40565b9050600060066137fa8461180789818d8d613104565b6138049190613f40565b905061382d8161382784816138198a8e613104565b6b033b2e3c9fd0803ce80000005b9061337f565b9b9a5050505050505050505050565b6000806138504264ffffffffff8516613093565b905061308b6b033b2e3c9fd0803ce80000006301e133806138718785613104565b6138279190613f40565b604080518082019091526002815261035360f41b6020820152600090826138b55760405162461bcd60e51b81526004016105939190613e07565b5060006138c3600284613f40565b9050670de0b6b3a76400006138da8260001961406a565b6138e49190613f40565b84111560405180604001604052806002815260200161068760f31b815250906139205760405162461bcd60e51b81526004016105939190613e07565b50828161345d670de0b6b3a76400008761404b565b606061308b848460008585843b61398e5760405162461bcd60e51b815260206004820152601d60248201527f416464726573733a2063616c6c20746f206e6f6e2d636f6e74726163740000006044820152606401610593565b600080866001600160a01b031685876040516139aa9190613cfd565b60006040518083038185875af1925050503d80600081146139e7576040519150601f19603f3d011682016040523d82523d6000602084013e6139ec565b606091505b50915091506139fc828286613a07565b979650505050505050565b60608315613a16575081611343565b825115613a265782518084602001fd5b8160405162461bcd60e51b81526004016105939190613e07565b600060208284031215613a51578081fd5b8135611343816140de565b600060208284031215613a6d578081fd5b8151611343816140de565b60008060408385031215613a8a578081fd5b8235613a95816140de565b91506020830135613aa5816140de565b809150509250929050565b600080600080600080600080610100898b031215613acc578384fd5b8835613ad7816140de565b97506020890135613ae7816140de565b96506040890135613af7816140de565b95506060890135613b07816140de565b94506080890135935060a0890135925060c0890135915060e089013560ff81168114613b31578182fd5b809150509295985092959890939650565b600080600080600060a08688031215613b59578081fd5b8535613b64816140de565b94506020860135613b74816140de565b93506040860135613b84816140de565b9250606086013591506080860135613b9b816140f6565b809150509295509295909350565b60008060008060008060c08789031215613bc1578182fd5b8635613bcc816140de565b95506020870135613bdc816140de565b94506040870135613bec816140de565b959894975094956060810135955060808101359460a0909101359350915050565b60008060408385031215613c1f578182fd5b8235613c2a816140de565b91506020830135613aa5816140f6565b60008060408385031215613c4c578182fd5b8235613c57816140de565b946020939093013593505050565b600080600060608486031215613c79578283fd5b8335613c84816140de565b9250602084013591506040840135613c9b816140de565b809150509250925092565b600060208284031215613cb7578081fd5b8151611343816140f6565b600060208284031215613cd3578081fd5b5051919050565b60008060408385031215613cec578182fd5b505080516020909101519092909150565b60008251613d0f818460208701614081565b9190910192915050565b6001600160a01b03948516815292909316602083015260408201526001600160801b03909116606082015260800190565b6001600160a01b0393909316835260208301919091526001600160801b0316604082015260600190565b6001600160a01b039889168152602081019790975260408701959095526060860193909352608085019190915260a084015260c083015290911660e08201526101000190565b6020808252825182820181905260009190848201906040850190845b81811015613dfb5783516001600160a01b031683529284019291840191600101613dd6565b50909695505050505050565b6020815260008251806020840152613e26816040850160208701614081565b601f01601f19169190910160400192915050565b815151815261014081016020830151613e5e60208401826001600160801b03169052565b506040830151613e7960408401826001600160801b03169052565b506060830151613e9460608401826001600160801b03169052565b506080830151613eaf60808401826001600160801b03169052565b5060a0830151613ec860a084018264ffffffffff169052565b5060c0830151613ee360c08401826001600160a01b03169052565b5060e0830151613efe60e08401826001600160a01b03169052565b50610100838101516001600160a01b0316908301526101209283015160ff16929091019190915290565b60008219821115613f3b57613f3b6140c8565b500190565b600082613f5b57634e487b7160e01b81526012600452602481fd5b500490565b600181815b80851115613f9b578160001904821115613f8157613f816140c8565b80851615613f8e57918102915b93841c9390800290613f65565b509250929050565b60006113438383600082613fb957506001610e32565b81613fc657506000610e32565b8160018114613fdc5760028114613fe657614002565b6001915050610e32565b60ff841115613ff757613ff76140c8565b50506001821b610e32565b5060208310610133831016604e8410600b8410161715614025575081810a610e32565b61402f8383613f60565b8060001904821115614043576140436140c8565b029392505050565b6000816000190483118215151615614065576140656140c8565b500290565b60008282101561407c5761407c6140c8565b500390565b60005b8381101561409c578181015183820152602001614084565b83811115612f6f5750506000910152565b60006000198214156140c1576140c16140c8565b5060010190565b634e487b7160e01b600052601160045260246000fd5b6001600160a01b03811681146140f357600080fd5b50565b80151581146140f357600080fdfe44c58d81365b66dd4b1a7f36c25aa97b8c71c361ee4937adc1a00000227db5dd00058a56ea94653cdf4f152d227ace22d4c00ad99e2a43f58cb7d9e3feb295f2a264697066735822122047d209614ef10f7bec7420d2bad6d87e01048116cfc36af2a9e2792ff59d773364736f6c63430008040033",
  "linkReferences": {
    "contracts/libraries/logic/ReserveLogic.sol": {
      "ReserveLogic": [
        {
          "length": 20,
          "start": 7159
        }
      ]
    },
    "contracts/libraries/logic/ValidationLogic.sol": {
      "ValidationLogic": [
        {
          "length": 20,
          "start": 3861
        },
        {
          "length": 20,
          "start": 4556
        },
        {
          "length": 20,
          "start": 5271
        },
        {
          "length": 20,
          "start": 6344
        },
        {
          "length": 20,
          "start": 8380
        }
      ]
    }
  },
  "deployedLinkReferences": {
    "contracts/libraries/logic/ReserveLogic.sol": {
      "ReserveLogic": [
        {
          "length": 20,
          "start": 7000
        }
      ]
    },
    "contracts/libraries/logic/ValidationLogic.sol": {
      "ValidationLogic": [
        {
          "length": 20,
          "start": 3702
        },
        {
          "length": 20,
          "start": 4397
        },
        {
          "length": 20,
          "start": 5112
        },
        {
          "length": 20,
          "start": 6185
        },
        {
          "length": 20,
          "start": 8221
        }
      ]
    }
  }
}