{
  "_format": "hh-sol-artifact-1",
  "contractName": "LendingPool",
  "sourceName": "contracts/lendingpool/LendingPool.sol",
  "abi": [
    {
      "inputs": [
        {
          "internalType": "contract IAddressesProvider",
          "name": "provider",
          "type": "address"
        }
      ],
      "stateMutability": "nonpayable",
      "type": "constructor"
    },
    {
      "anonymous": false,
      "inputs": [
        {
          "indexed": true,
          "internalType": "address",
          "name": "reserve",
          "type": "address"
        },
        {
          "indexed": false,
          "internalType": "address",
          "name": "user",
          "type": "address"
        },
        {
          "indexed": true,
          "internalType": "address",
          "name": "onBehalfOf",
          "type": "address"
        },
        {
          "indexed": false,
          "internalType": "uint256",
          "name": "amount",
          "type": "uint256"
        },
        {
          "indexed": false,
          "internalType": "uint256",
          "name": "borrowRate",
          "type": "uint256"
        }
      ],
      "name": "Borrow",
      "type": "event"
    },
    {
      "anonymous": false,
      "inputs": [
        {
          "indexed": true,
          "internalType": "address",
          "name": "reserve",
          "type": "address"
        },
        {
          "indexed": false,
          "internalType": "address",
          "name": "user",
          "type": "address"
        },
        {
          "indexed": true,
          "internalType": "address",
          "name": "onBehalfOf",
          "type": "address"
        },
        {
          "indexed": false,
          "internalType": "uint256",
          "name": "amount",
          "type": "uint256"
        }
      ],
      "name": "Deposit",
      "type": "event"
    },
    {
      "anonymous": false,
      "inputs": [
        {
          "indexed": true,
          "internalType": "address",
          "name": "collateralAsset",
          "type": "address"
        },
        {
          "indexed": true,
          "internalType": "address",
          "name": "debtAsset",
          "type": "address"
        },
        {
          "indexed": true,
          "internalType": "address",
          "name": "user",
          "type": "address"
        },
        {
          "indexed": false,
          "internalType": "uint256",
          "name": "debtToCover",
          "type": "uint256"
        },
        {
          "indexed": false,
          "internalType": "uint256",
          "name": "liquidatedCollateralAmount",
          "type": "uint256"
        },
        {
          "indexed": false,
          "internalType": "address",
          "name": "liquidator",
          "type": "address"
        },
        {
          "indexed": false,
          "internalType": "bool",
          "name": "receiveAToken",
          "type": "bool"
        }
      ],
      "name": "LiquidationCall",
      "type": "event"
    },
    {
      "anonymous": false,
      "inputs": [
        {
          "indexed": true,
          "internalType": "address",
          "name": "reserve",
          "type": "address"
        },
        {
          "indexed": true,
          "internalType": "address",
          "name": "user",
          "type": "address"
        },
        {
          "indexed": true,
          "internalType": "address",
          "name": "repayer",
          "type": "address"
        },
        {
          "indexed": false,
          "internalType": "uint256",
          "name": "amount",
          "type": "uint256"
        }
      ],
      "name": "Repay",
      "type": "event"
    },
    {
      "anonymous": false,
      "inputs": [
        {
          "indexed": true,
          "internalType": "address",
          "name": "reserve",
          "type": "address"
        },
        {
          "indexed": false,
          "internalType": "uint256",
          "name": "liquidityRate",
          "type": "uint256"
        },
        {
          "indexed": false,
          "internalType": "uint256",
          "name": "variableBorrowRate",
          "type": "uint256"
        },
        {
          "indexed": false,
          "internalType": "uint256",
          "name": "liquidityIndex",
          "type": "uint256"
        },
        {
          "indexed": false,
          "internalType": "uint256",
          "name": "variableBorrowIndex",
          "type": "uint256"
        }
      ],
      "name": "ReserveDataUpdated",
      "type": "event"
    },
    {
      "anonymous": false,
      "inputs": [
        {
          "indexed": true,
          "internalType": "address",
          "name": "reserve",
          "type": "address"
        },
        {
          "indexed": true,
          "internalType": "address",
          "name": "user",
          "type": "address"
        }
      ],
      "name": "ReserveUsedAsCollateralDisabled",
      "type": "event"
    },
    {
      "anonymous": false,
      "inputs": [
        {
          "indexed": true,
          "internalType": "address",
          "name": "reserve",
          "type": "address"
        },
        {
          "indexed": true,
          "internalType": "address",
          "name": "user",
          "type": "address"
        }
      ],
      "name": "ReserveUsedAsCollateralEnabled",
      "type": "event"
    },
    {
      "anonymous": false,
      "inputs": [
        {
          "indexed": true,
          "internalType": "address",
          "name": "reserve",
          "type": "address"
        },
        {
          "indexed": true,
          "internalType": "address",
          "name": "user",
          "type": "address"
        },
        {
          "indexed": true,
          "internalType": "address",
          "name": "to",
          "type": "address"
        },
        {
          "indexed": false,
          "internalType": "uint256",
          "name": "amount",
          "type": "uint256"
        }
      ],
      "name": "Withdraw",
      "type": "event"
    },
    {
      "inputs": [],
      "name": "MAX_NUMBER_RESERVES",
      "outputs": [
        {
          "internalType": "uint256",
          "name": "",
          "type": "uint256"
        }
      ],
      "stateMutability": "view",
      "type": "function"
    },
    {
      "inputs": [
        {
          "internalType": "address",
          "name": "asset",
          "type": "address"
        },
        {
          "internalType": "uint256",
          "name": "amount",
          "type": "uint256"
        },
        {
          "internalType": "address",
          "name": "onBehalfOf",
          "type": "address"
        }
      ],
      "name": "borrow",
      "outputs": [],
      "stateMutability": "nonpayable",
      "type": "function"
    },
    {
      "inputs": [
        {
          "internalType": "address",
          "name": "asset",
          "type": "address"
        },
        {
          "internalType": "uint256",
          "name": "amount",
          "type": "uint256"
        },
        {
          "internalType": "address",
          "name": "onBehalfOf",
          "type": "address"
        }
      ],
      "name": "deposit",
      "outputs": [],
      "stateMutability": "nonpayable",
      "type": "function"
    },
    {
      "inputs": [
        {
          "internalType": "address",
          "name": "asset",
          "type": "address"
        },
        {
          "internalType": "address",
          "name": "from",
          "type": "address"
        },
        {
          "internalType": "address",
          "name": "to",
          "type": "address"
        },
        {
          "internalType": "uint256",
          "name": "amount",
          "type": "uint256"
        },
        {
          "internalType": "uint256",
          "name": "balanceFromBefore",
          "type": "uint256"
        },
        {
          "internalType": "uint256",
          "name": "balanceToBefore",
          "type": "uint256"
        }
      ],
      "name": "finalizeTransfer",
      "outputs": [],
      "stateMutability": "nonpayable",
      "type": "function"
    },
    {
      "inputs": [],
      "name": "getAddressesProvider",
      "outputs": [
        {
          "internalType": "contract IAddressesProvider",
          "name": "",
          "type": "address"
        }
      ],
      "stateMutability": "view",
      "type": "function"
    },
    {
      "inputs": [
        {
          "internalType": "address",
          "name": "asset",
          "type": "address"
        }
      ],
      "name": "getConfiguration",
      "outputs": [
        {
          "components": [
            {
              "internalType": "uint256",
              "name": "data",
              "type": "uint256"
            }
          ],
          "internalType": "struct DataTypes.ReserveConfigurationMap",
          "name": "",
          "type": "tuple"
        }
      ],
      "stateMutability": "view",
      "type": "function"
    },
    {
      "inputs": [
        {
          "internalType": "address",
          "name": "asset",
          "type": "address"
        }
      ],
      "name": "getReserveData",
      "outputs": [
        {
          "components": [
            {
              "components": [
                {
                  "internalType": "uint256",
                  "name": "data",
                  "type": "uint256"
                }
              ],
              "internalType": "struct DataTypes.ReserveConfigurationMap",
              "name": "configuration",
              "type": "tuple"
            },
            {
              "internalType": "uint128",
              "name": "liquidityIndex",
              "type": "uint128"
            },
            {
              "internalType": "uint128",
              "name": "variableBorrowIndex",
              "type": "uint128"
            },
            {
              "internalType": "uint128",
              "name": "currentLiquidityRate",
              "type": "uint128"
            },
            {
              "internalType": "uint128",
              "name": "currentVariableBorrowRate",
              "type": "uint128"
            },
            {
              "internalType": "uint40",
              "name": "lastUpdateTimestamp",
              "type": "uint40"
            },
            {
              "internalType": "address",
              "name": "aTokenAddress",
              "type": "address"
            },
            {
              "internalType": "address",
              "name": "variableDebtTokenAddress",
              "type": "address"
            },
            {
              "internalType": "address",
              "name": "interestRateStrategyAddress",
              "type": "address"
            },
            {
              "internalType": "uint8",
              "name": "id",
              "type": "uint8"
            }
          ],
          "internalType": "struct DataTypes.ReserveData",
          "name": "",
          "type": "tuple"
        }
      ],
      "stateMutability": "view",
      "type": "function"
    },
    {
      "inputs": [
        {
          "internalType": "address",
          "name": "asset",
          "type": "address"
        }
      ],
      "name": "getReserveNormalizedIncome",
      "outputs": [
        {
          "internalType": "uint256",
          "name": "",
          "type": "uint256"
        }
      ],
      "stateMutability": "view",
      "type": "function"
    },
    {
      "inputs": [
        {
          "internalType": "address",
          "name": "asset",
          "type": "address"
        }
      ],
      "name": "getReserveNormalizedVariableDebt",
      "outputs": [
        {
          "internalType": "uint256",
          "name": "",
          "type": "uint256"
        }
      ],
      "stateMutability": "view",
      "type": "function"
    },
    {
      "inputs": [],
      "name": "getReservesList",
      "outputs": [
        {
          "internalType": "address[]",
          "name": "",
          "type": "address[]"
        }
      ],
      "stateMutability": "view",
      "type": "function"
    },
    {
      "inputs": [
        {
          "internalType": "address",
          "name": "user",
          "type": "address"
        }
      ],
      "name": "getUserAccountData",
      "outputs": [
        {
          "internalType": "uint256",
          "name": "totalCollateralETH",
          "type": "uint256"
        },
        {
          "internalType": "uint256",
          "name": "totalDebtETH",
          "type": "uint256"
        },
        {
          "internalType": "uint256",
          "name": "availableBorrowsETH",
          "type": "uint256"
        },
        {
          "internalType": "uint256",
          "name": "currentLiquidationThreshold",
          "type": "uint256"
        },
        {
          "internalType": "uint256",
          "name": "ltv",
          "type": "uint256"
        },
        {
          "internalType": "uint256",
          "name": "healthFactor",
          "type": "uint256"
        }
      ],
      "stateMutability": "view",
      "type": "function"
    },
    {
      "inputs": [
        {
          "internalType": "address",
          "name": "user",
          "type": "address"
        }
      ],
      "name": "getUserConfiguration",
      "outputs": [
        {
          "components": [
            {
              "internalType": "uint256",
              "name": "data",
              "type": "uint256"
            }
          ],
          "internalType": "struct DataTypes.UserConfigurationMap",
          "name": "",
          "type": "tuple"
        }
      ],
      "stateMutability": "view",
      "type": "function"
    },
    {
      "inputs": [
        {
          "internalType": "address",
          "name": "asset",
          "type": "address"
        },
        {
          "internalType": "address",
          "name": "aTokenAddress",
          "type": "address"
        },
        {
          "internalType": "address",
          "name": "variableDebtAddress",
          "type": "address"
        },
        {
          "internalType": "address",
          "name": "interestRateStrategyAddress",
          "type": "address"
        },
        {
          "internalType": "uint256",
          "name": "ltv",
          "type": "uint256"
        },
        {
          "internalType": "uint256",
          "name": "liquidationThreshold",
          "type": "uint256"
        },
        {
          "internalType": "uint256",
          "name": "liquidationBonus",
          "type": "uint256"
        },
        {
          "internalType": "uint8",
          "name": "decimals",
          "type": "uint8"
        }
      ],
      "name": "initReserve",
      "outputs": [],
      "stateMutability": "nonpayable",
      "type": "function"
    },
    {
      "inputs": [
        {
          "internalType": "address",
          "name": "collateralAsset",
          "type": "address"
        },
        {
          "internalType": "address",
          "name": "debtAsset",
          "type": "address"
        },
        {
          "internalType": "address",
          "name": "user",
          "type": "address"
        },
        {
          "internalType": "uint256",
          "name": "debtToCover",
          "type": "uint256"
        },
        {
          "internalType": "bool",
          "name": "receiveAToken",
          "type": "bool"
        }
      ],
      "name": "liquidationCall",
      "outputs": [],
      "stateMutability": "nonpayable",
      "type": "function"
    },
    {
      "inputs": [
        {
          "internalType": "address",
          "name": "asset",
          "type": "address"
        },
        {
          "internalType": "uint256",
          "name": "amount",
          "type": "uint256"
        },
        {
          "internalType": "address",
          "name": "onBehalfOf",
          "type": "address"
        }
      ],
      "name": "repay",
      "outputs": [
        {
          "internalType": "uint256",
          "name": "",
          "type": "uint256"
        }
      ],
      "stateMutability": "nonpayable",
      "type": "function"
    },
    {
      "inputs": [
        {
          "internalType": "address",
          "name": "asset",
          "type": "address"
        },
        {
          "internalType": "uint256",
          "name": "configuration",
          "type": "uint256"
        }
      ],
      "name": "setConfiguration",
      "outputs": [],
      "stateMutability": "nonpayable",
      "type": "function"
    },
    {
      "inputs": [
        {
          "internalType": "address",
          "name": "asset",
          "type": "address"
        },
        {
          "internalType": "address",
          "name": "rateStrategyAddress",
          "type": "address"
        }
      ],
      "name": "setReserveInterestRateStrategyAddress",
      "outputs": [],
      "stateMutability": "nonpayable",
      "type": "function"
    },
    {
      "inputs": [
        {
          "internalType": "address",
          "name": "asset",
          "type": "address"
        },
        {
          "internalType": "bool",
          "name": "useAsCollateral",
          "type": "bool"
        }
      ],
      "name": "setUserUseReserveAsCollateral",
      "outputs": [],
      "stateMutability": "nonpayable",
      "type": "function"
    },
    {
      "inputs": [
        {
          "internalType": "address",
          "name": "asset",
          "type": "address"
        },
        {
          "internalType": "uint256",
          "name": "amount",
          "type": "uint256"
        },
        {
          "internalType": "address",
          "name": "to",
          "type": "address"
        }
      ],
      "name": "withdraw",
      "outputs": [
        {
          "internalType": "uint256",
          "name": "",
          "type": "uint256"
        }
      ],
      "stateMutability": "nonpayable",
      "type": "function"
    }
  ],
  "bytecode": "0x60806040523480156200001157600080fd5b506040516200405b3803806200405b83398101604081905262000034916200005f565b600080546001600160a01b0319166001600160a01b039290921691909117905560806005556200008f565b60006020828403121562000071578081fd5b81516001600160a01b038116811462000088578182fd5b9392505050565b613fbc806200009f6000396000f3fe608060405234801561001057600080fd5b50600436106101205760003560e01c80639835159c116100ad578063d1946dbc11610071578063d1946dbc14610446578063d5ed39331461045b578063f45346dc1461046e578063f8119d5114610481578063fe65acfe1461048957600080fd5b80639835159c14610374578063b8d2927614610387578063bf92857c146103b1578063c44b11f7146103f1578063d15e00531461043357600080fd5b80634417a583116100f45780634417a583146102d75780635a3b74b9146103285780635ceae9c41461033b57806369328dec1461034e5780636c665a551461036157600080fd5b8062a718a9146101255780631d2118f91461013a57806335ea6a7514610179578063386497fd146102b6575b600080fd5b610138610133366004613984565b6104a4565b005b6101386101483660046138ba565b6001600160a01b03918216600090815260016020526040902060050180546001600160a01b03191691909216179055565b6102a0610187366004613882565b604080516101608101825260006101408201818152825260208201819052918101829052606081018290526080810182905260a0810182905260c0810182905260e081018290526101008101829052610120810191909152506001600160a01b03908116600090815260016020818152604092839020835161016081018552815461014082019081528152928101546001600160801b0380821693850193909352600160801b908190048316948401949094526002810154808316606085015293909304166080820152600382015464ffffffffff811660a0830152600160281b9004831660c08201526004820154831660e0820152600590910154918216610100820152600160a01b90910460ff1661012082015290565b6040516102ad9190613c7c565b60405180910390f35b6102c96102c4366004613882565b610ca3565b6040519081526020016102ad565b6103196102e5366004613882565b60408051602080820183526000918290526001600160a01b0393909316815260028352819020815192830190915254815290565b604051905181526020016102ad565b610138610336366004613a4f565b610cca565b6102c9610349366004613aa7565b610e98565b6102c961035c366004613aa7565b6111dc565b61013861036f366004613aa7565b6114ec565b6101386103823660046138f2565b611904565b610138610395366004613a7c565b6001600160a01b03909116600090815260016020526040902055565b6103c46103bf366004613882565b611a4b565b604080519687526020870195909552938501929092526060840152608083015260a082015260c0016102ad565b6103196103ff366004613882565b60408051602080820183526000918290526001600160a01b0393909316815260018352819020815192830190915254815290565b6102c9610441366004613882565b611b08565b61044e611b29565b6040516102ad9190613bfc565b6101386104693660046139eb565b611bfc565b61013861047c366004613aa7565b611e20565b6005546102c9565b6000546040516001600160a01b0390911681526020016102ad565b6001600160a01b0380861660009081526001602052604080822087841683529120600382015491929091600160281b900416158015906104f757506003810154600160281b90046001600160a01b031615155b60405180604001604052806002815260200161373960f01b815250906105395760405162461bcd60e51b81526004016105309190613c49565b60405180910390fd5b50600060026000876001600160a01b03166001600160a01b0316815260200190815260200160002090506105d26040518061018001604052806000815260200160008152602001600081526020016000815260200160008152602001600081526020016000815260200160008152602001600081526020016000815260200160006001600160a01b031681526020016000151581525090565b604080516020808201835284548252600480546000548551631f94a27560e31b8152955161066c968e966001969095600395946001600160a01b03169363fca513a893808301939290829003018186803b15801561062f57600080fd5b505afa158015610643573d6000803e3d6000fd5b505050506040513d601f19601f82011682018060405250810190610667919061389e565b61203b565b610100860152505050506004838101546040516370a0823160e01b81526001600160a01b038a8116938201939093529116906370a082319060240160206040518083038186803b1580156106bf57600080fd5b505afa1580156106d3573d6000803e3d6000fd5b505050506040513d601f19601f820116820180604052508101906106f79190613b04565b60208201819052610100820151610711918691859161250d565b6003840154600160281b90046001600160a01b0390811661014083018190526040516370a0823160e01b81529189166004830152906370a082319060240160206040518083038186803b15801561076757600080fd5b505afa15801561077b573d6000803e3d6000fd5b505050506040513d601f19601f8201168201806040525081019061079f9190613b04565b815260208101516107b2906113886125f6565b6040820181905286116107c557856107cb565b80604001515b6060820181905281516107e691869186918d918d919061269d565b60e0830181905260c08301919091526060820151111561080b5760e081015160608201525b846108d8576101408101516040516370a0823160e01b81526001600160a01b0391821660048201526000918b16906370a082319060240160206040518083038186803b15801561085a57600080fd5b505afa15801561086e573d6000803e3d6000fd5b505050506040513d601f19601f820116820180604052508101906108929190613b04565b90508160c0015181101560405180604001604052806002815260200161343560f01b815250906108d55760405162461bcd60e51b81526004016105309190613c49565b50505b6108e183612981565b60048381015460608301516001860154604051637a94c56560e11b81526001600160a01b039093169363f5298aca93610930938d939092600160801b9091046001600160801b03169101613b8c565b600060405180830381600087803b15801561094a57600080fd5b505af115801561095e573d6000803e3d6000fd5b505050506003830154606082015161098c9185918b91600160281b90046001600160a01b0316906000612a41565b8415610aee576101408101516040516370a0823160e01b81523360048201526001600160a01b03909116906370a082319060240160206040518083038186803b1580156109d857600080fd5b505afa1580156109ec573d6000803e3d6000fd5b505050506040513d601f19601f82011682018060405250810190610a109190613b04565b61012082015261014081015160c082015160405163f866c31960e01b81526001600160a01b038a81166004830152336024830152604482019290925291169063f866c31990606401600060405180830381600087803b158015610a7257600080fd5b505af1158015610a86573d6000803e3d6000fd5b5050505080610120015160001415610ae9573360009081526002602052604090206005850154610ac3908290600160a01b900460ff166001612ccb565b60405133906001600160a01b038c1690600080516020613f6783398151915290600090a3505b610b90565b610af784612981565b61014081015160c0820151610b139186918c9190600090612a41565b61014081015160c08201516001860154604051636b81068560e11b81526001600160a01b039093169263d7020d0a92610b5d928c923392916001600160801b031690600401613b5b565b600060405180830381600087803b158015610b7757600080fd5b505af1158015610b8b573d6000803e3d6000fd5b505050505b805160c08201511415610be8576005840154610bb9908390600160a01b900460ff166000612ccb565b866001600160a01b0316896001600160a01b0316600080516020613f4783398151915260405160405180910390a35b60038301546060820151610c14916001600160a01b038b8116923392600160281b900490911690612d57565b866001600160a01b0316886001600160a01b03168a6001600160a01b03167fe413a321e8681d831f4dbccbca790d2952b56f977908e45be37335533e00528684606001518560c00151338b604051610c90949392919093845260208401929092526001600160a01b031660408301521515606082015260800190565b60405180910390a4505050505050505050565b6001600160a01b0381166000908152600160205260408120610cc490612db7565b92915050565b6001600160a01b038083166000908152600160208181526040808420338552600283528185206004805496548451631f94a27560e31b81529451939873__$5201a97c05ba6aa659e2f36a933dd51801$__98635fa297e5988b988e988e989297966003969495949094169363fca513a8938282019392909190829003018186803b158015610d5757600080fd5b505afa158015610d6b573d6000803e3d6000fd5b505050506040513d601f19601f82011682018060405250810190610d8f919061389e565b6040516001600160e01b031960e08b901b16815260048101989098526001600160a01b03968716602489015294151560448801526064870193909352608486019190915260a485015260c48401521660e48201526101040160006040518083038186803b158015610dff57600080fd5b505af4158015610e13573d6000803e3d6000fd5b505050506005810154336000908152600260205260409020610e3f91600160a01b900460ff1684612ccb565b8115610e6e5760405133906001600160a01b03851690600080516020613f6783398151915290600090a3505050565b60405133906001600160a01b03851690600080516020613f4783398151915290600090a35b505050565b6001600160a01b0383811660009081526001602090815260408083206003015481518083019092526002825261373960f01b928201929092529192600160281b90910416610ef95760405162461bcd60e51b81526004016105309190613c49565b506001600160a01b0384811660009081526001602052604080822060048082015492516370a0823160e01b815287861691810191909152909391909116906370a082319060240160206040518083038186803b158015610f5857600080fd5b505afa158015610f6c573d6000803e3d6000fd5b505050506040513d601f19601f82011682018060405250810190610f909190613b04565b604051632835d86f60e21b8152600481018790526001600160a01b03861660248201526044810182905290915073__$5201a97c05ba6aa659e2f36a933dd51801$__9063a0d761bc9060640160006040518083038186803b158015610ff457600080fd5b505af4158015611008573d6000803e3d6000fd5b508392505050808610156110195750845b61102283612981565b6004838101546001850154604051637a94c56560e11b81526001600160a01b039092169263f5298aca9261106c928a928792600160801b9092046001600160801b03169101613b8c565b600060405180830381600087803b15801561108657600080fd5b505af115801561109a573d6000803e3d6000fd5b505050506003830154600160281b90046001600160a01b03166110c1848983856000612a41565b6110cb8383612e24565b6111035760058401546001600160a01b0387166000908152600260205260408120611103929091600160a01b90910460ff1690612e30565b6111186001600160a01b038916338385612d57565b6040516388dd91a160e01b8152336004820152602481018390526001600160a01b038216906388dd91a190604401600060405180830381600087803b15801561116057600080fd5b505af1158015611174573d6000803e3d6000fd5b50505050336001600160a01b0316866001600160a01b0316896001600160a01b03167f4cdde6e09bb755c9a5589ebaec640bbfedff1362d4b255ebf8339782b9942faa856040516111c791815260200190565b60405180910390a450925050505b9392505050565b6001600160a01b03838116600090815260016020526040808220600381015491516370a0823160e01b815233600482015292939092600160281b9092041690839082906370a082319060240160206040518083038186803b15801561124057600080fd5b505afa158015611254573d6000803e3d6000fd5b505050506040513d601f19601f820116820180604052508101906112789190613b04565b9050856000198114156112885750805b73__$5201a97c05ba6aa659e2f36a933dd51801$__63d09db04a898385600160026000336001600160a01b03166001600160a01b03168152602001908152602001600020600360045460008054906101000a90046001600160a01b03166001600160a01b031663fca513a86040518163ffffffff1660e01b815260040160206040518083038186803b15801561131d57600080fd5b505afa158015611331573d6000803e3d6000fd5b505050506040513d601f19601f82011682018060405250810190611355919061389e565b6040518963ffffffff1660e01b8152600401611378989796959493929190613bb6565b60006040518083038186803b15801561139057600080fd5b505af41580156113a4573d6000803e3d6000fd5b505050506113b184612981565b6113bf848985600085612a41565b818114156114175760058401543360009081526002602052604081206113f2929091600160a01b90910460ff1690612ccb565b60405133906001600160a01b038a1690600080516020613f4783398151915290600090a35b6001840154604051636b81068560e11b81526001600160a01b0385169163d7020d0a916114589133918b9187916001600160801b0390911690600401613b5b565b600060405180830381600087803b15801561147257600080fd5b505af1158015611486573d6000803e3d6000fd5b50505050856001600160a01b0316336001600160a01b0316896001600160a01b03167f3115d1449a7b732c986cba18244e897a450f61e1bb8d589cd2e69e6c8924f9f7846040516114d991815260200190565b60405180910390a4979650505050505050565b6001600160a01b038381166000908152600160209081526040918290206003015482518084019093526002835261373960f01b918301919091529091600160281b9091041661154e5760405162461bcd60e51b81526004016105309190613c49565b506001600160a01b038084166000908152600160209081526040808320858516845260028352818420600382015485548451631f94a27560e31b8152945193979296600160281b90920483169533959294919093169263fca513a89260048082019391829003018186803b1580156115c557600080fd5b505afa1580156115d9573d6000803e3d6000fd5b505050506040513d601f19601f820116820180604052508101906115fd919061389e565b85549091506000906116a59060301c60ff1661161a90600a613de5565b60405163b3596f0760e01b81526001600160a01b038c8116600483015261169f918c9187169063b3596f079060240160206040518083038186803b15801561166157600080fd5b505afa158015611675573d6000803e3d6000fd5b505050506040513d601f19601f820116820180604052508101906116999190613b04565b90612e95565b90612ea1565b60048054604051631c7d75d760e31b815292935073__$5201a97c05ba6aa659e2f36a933dd51801$__9263e3ebaeb8926116f0928c928e9288926001928e92600392918d9101613bb6565b60006040518083038186803b15801561170857600080fd5b505af415801561171c573d6000803e3d6000fd5b5050505061172986612981565b60008660040160009054906101000a90046001600160a01b03166001600160a01b031663b3f1c93d858a8c8b60010160109054906101000a90046001600160801b03166040518563ffffffff1660e01b815260040161178b9493929190613b5b565b602060405180830381600087803b1580156117a557600080fd5b505af11580156117b9573d6000803e3d6000fd5b505050506040513d601f19601f820116820180604052508101906117dd9190613ae8565b90508015611801576005870154611801908790600160a01b900460ff166001612e30565b61180f878b8760008d612a41565b604051634efecaa560e01b81526001600160a01b038581166004830152602482018b9052861690634efecaa590604401602060405180830381600087803b15801561185957600080fd5b505af115801561186d573d6000803e3d6000fd5b505050506040513d601f19601f820116820180604052508101906118919190613b04565b50876001600160a01b03168a6001600160a01b03167f96558a334f4759f0e7c423d68c84721860bd8fbf94ddc4e55158ecb125ad04b5868c8b60020160109054906101000a90046001600160801b03166040516118f093929190613b8c565b60405180910390a350505050505050505050565b60408051808201909152600281526106e760f31b6020820152883b61193c5760405162461bcd60e51b81526004016105309190613c49565b50600054604080518082019091526002815261373560f01b6020820152906001600160a01b031633146119825760405162461bcd60e51b81526004016105309190613c49565b506001600160a01b0388811660009081526001602052604090819020905163f2a3bb1d60e01b815260048101919091528882166024820152878216604482015290861660648201526084810185905260a4810184905260c4810183905260ff821660e482015273__$d3b4366daeb9cadc7528af6145b50b2183$__9063f2a3bb1d906101040160006040518083038186803b158015611a2057600080fd5b505af4158015611a34573d6000803e3d6000fd5b50505050611a4188612ead565b5050505050505050565b600080600080600080611ae5876001600260008b6001600160a01b03166001600160a01b03168152602001908152602001600020604051806020016040529081600082015481525050600360045460008054906101000a90046001600160a01b03166001600160a01b031663fca513a86040518163ffffffff1660e01b815260040160206040518083038186803b15801561062f57600080fd5b93995091975090945092509050611afd868684612fc0565b935091939550919395565b6001600160a01b0381166000908152600160205260408120610cc490612ff4565b6060600060045467ffffffffffffffff811115611b5657634e487b7160e01b600052604160045260246000fd5b604051908082528060200260200182016040528015611b7f578160200160208202803683370190505b50905060005b600454811015611bf65760008181526003602052604090205482516001600160a01b0390911690839083908110611bcc57634e487b7160e01b600052603260045260246000fd5b6001600160a01b039092166020928302919091019091015280611bee81613eef565b915050611b85565b50919050565b6001600160a01b038087166000908152600160209081526040918290206003015482518084019093526002835261363360f01b91830191909152909133600160281b9092041614611c605760405162461bcd60e51b81526004016105309190613c49565b50611d1a85600160026000896001600160a01b03166001600160a01b03168152602001908152602001600020600360045460008054906101000a90046001600160a01b03166001600160a01b031663fca513a86040518163ffffffff1660e01b815260040160206040518083038186803b158015611cdd57600080fd5b505afa158015611cf1573d6000803e3d6000fd5b505050506040513d601f19601f82011682018060405250810190611d15919061389e565b613049565b6001600160a01b03868116600090815260016020526040902060050154600160a01b900460ff169085811690871614611e1757611d578385612e24565b611db1576001600160a01b038616600090815260026020526040812090611d819082908490612ccb565b866001600160a01b0316886001600160a01b0316600080516020613f4783398151915260405160405180910390a3505b81158015611dbe57508315155b15611e17576001600160a01b0385166000908152600260205260409020611de781836001612ccb565b856001600160a01b0316886001600160a01b0316600080516020613f6783398151915260405160405180910390a3505b50505050505050565b6001600160a01b0383166000818152600160208190526040918290209151631afdf41360e11b815260048101939093526024830185905260448301529073__$5201a97c05ba6aa659e2f36a933dd51801$__906335fbe8269060640160006040518083038186803b158015611e9457600080fd5b505af4158015611ea8573d6000803e3d6000fd5b505050506003810154600160281b90046001600160a01b0316611eca82612981565b611ed8828683876000612a41565b611eed6001600160a01b038616338387612d57565b6001820154604051630ab714fb60e11b81526000916001600160a01b0384169163156e29f691611f2f9188918a916001600160801b0390911690600401613b8c565b602060405180830381600087803b158015611f4957600080fd5b505af1158015611f5d573d6000803e3d6000fd5b505050506040513d601f19601f82011682018060405250810190611f819190613ae8565b90508015611fea5760058301546001600160a01b0385166000908152600260205260409020611fbb91600160a01b900460ff166001612ccb565b836001600160a01b0316866001600160a01b0316600080516020613f6783398151915260405160405180910390a35b60408051338152602081018790526001600160a01b0380871692908916917f7cfff908a4b583f36430b25d75964c458d8ede8a99bd61be750e97ee1b2f3a96910160405180910390a3505050505050565b60008060008060006120e0604051806102400160405280600081526020016000815260200160008152602001600081526020016000815260200160008152602001600081526020016000815260200160008152602001600081526020016000815260200160008152602001600081526020016000815260200160001515815260200160006001600160a01b031681526020016000151581526020016000151581525090565b89516120ff5760008060008060001995509550955095509550506124ff565b600060e08201525b878160e00151101561245e5760e0810151612123908b906130b5565b61212c57612446565b60e0810151600090815260208a81526040808320546001600160a01b03166101e085018190528352908d90529020612180815461ffff80821692601083901c821692602081901c9092169160301c60ff1690565b6080860181905260c08601929092525060a08401919091526121a390600a613de5565b60208301526101e082015160405163b3596f0760e01b81526001600160a01b0391821660048201529089169063b3596f079060240160206040518083038186803b1580156121f057600080fd5b505afa158015612204573d6000803e3d6000fd5b505050506040513d601f19601f820116820180604052508101906122289190613b04565b825260c082015115801590612248575060e0820151612248908c90613110565b1561235a5760038101546040516370a0823160e01b81526001600160a01b038f81166004830152600160281b909204909116906370a082319060240160206040518083038186803b15801561229c57600080fd5b505afa1580156122b0573d6000803e3d6000fd5b505050506040513d601f19601f820116820180604052508101906122d49190613b04565b60408301819052602083015183516000926122f3929161169f91612e95565b6101208401519091506123069082613176565b61012084015260a083015161232c90612320908390612e95565b61016085015190613176565b61016084015260c083015161235290612346908390612e95565b61018085015190613176565b610180840152505b60e082015161236a908c90613182565b15612444578060040160009054906101000a90046001600160a01b03166001600160a01b03166370a082318e6040518263ffffffff1660e01b81526004016123c191906001600160a01b0391909116815260200190565b60206040518083038186803b1580156123d957600080fd5b505afa1580156123ed573d6000803e3d6000fd5b505050506040513d601f19601f820116820180604052508101906124119190613b04565b606083018190526020830151835161243d92612431929161169f91612e95565b61014084015190613176565b6101408301525b505b60e0810180519061245682613eef565b905250612107565b600081610120015111612472576000612487565b61012081015161016082015161248791612ea1565b61016082015261012081015161249e5760006124b3565b6101208101516101808201516124b391612ea1565b61018082018190526101208201516101408301516124d0926131cd565b610100820181905261012082015161014083015161016084015161018090940151919850965091945090925090505b965096509650965096915050565b6040805180820190915260028152611a1960f11b6020820152670de0b6b3a7640000831061254e5760405162461bcd60e51b81526004016105309190613c49565b50600584015460408051602081019091528454815260009161257a9190600160a01b900460ff16613110565b90508060405180604001604052806002815260200161343360f01b815250906125b65760405162461bcd60e51b81526004016105309190613c49565b506040805180820190915260028152610d0d60f21b6020820152826125ee5760405162461bcd60e51b81526004016105309190613c49565b505050505050565b6000821580612603575081155b1561261057506000610cc4565b8161261e6002612710613d82565b61262a90600019613eac565b6126349190613d82565b83111560405180604001604052806002815260200161068760f31b815250906126705760405162461bcd60e51b81526004016105309190613c49565b5061271061267f600282613d82565b6126898486613e8d565b6126939190613d6a565b6111d59190613d82565b60008060008060008060009054906101000a90046001600160a01b03166001600160a01b031663fca513a86040518163ffffffff1660e01b815260040160206040518083038186803b1580156126f257600080fd5b505afa158015612706573d6000803e3d6000fd5b505050506040513d601f19601f8201168201806040525081019061272a919061389e565b905061276c6040518060e00160405280600081526020016000815260200160008152602001600081526020016000815260200160008152602001600081525090565b60405163b3596f0760e01b81526001600160a01b038b8116600483015283169063b3596f079060240160206040518083038186803b1580156127ad57600080fd5b505afa1580156127c1573d6000803e3d6000fd5b505050506040513d601f19601f820116820180604052508101906127e59190613b04565b6040828101919091525163b3596f0760e01b81526001600160a01b038a8116600483015283169063b3596f079060240160206040518083038186803b15801561282d57600080fd5b505afa158015612841573d6000803e3d6000fd5b505050506040513d601f19601f820116820180604052508101906128659190613b04565b60608201526128908c5461ffff80821692601083901c821692602081901c9092169160301c60ff1690565b60c0850152602084015250508a5460301c60ff1660a082018190526128fa906128c9906128be90600a613de5565b604084015190612e95565b61169f83602001516128f48560c00151600a6128e59190613de5565b6060870151611699908f612e95565b906125f6565b608082018190528710156129655786935061295e81602001516129586129358460c00151600a61292a9190613de5565b606086015190612e95565b61169f8560a00151600a6129499190613de5565b6040870151611699908b612e95565b906131f1565b9250612970565b806080015193508792505b50919a909950975050505050505050565b60008160040160009054906101000a90046001600160a01b03166001600160a01b031663b1bf962d6040518163ffffffff1660e01b815260040160206040518083038186803b1580156129d357600080fd5b505afa1580156129e7573d6000803e3d6000fd5b505050506040513d601f19601f82011682018060405250810190612a0b9190613b04565b600183015460038401549192506001600160801b03600160801b820481169291169064ffffffffff16611e1785858486856132b3565b612a6c6040518060800160405280600081526020016000815260200160008152602001600081525090565b60018601546004808801546040805163b1bf962d60e01b81529051612b0994600160801b90046001600160801b0316936001600160a01b039093169263b1bf962d92808201926020929091829003018186803b158015612acb57600080fd5b505afa158015612adf573d6000803e3d6000fd5b505050506040513d601f19601f82011682018060405250810190612b039190613b04565b90613410565b6060820181905260058701546040516272fa8b60e91b81526001600160a01b03888116600483015287811660248301526044820187905260648201869052608482019390935291169063e5f516009060a401604080518083038186803b158015612b7257600080fd5b505afa158015612b86573d6000803e3d6000fd5b505050506040513d601f19601f82011682018060405250810190612baa9190613b1c565b604080840191909152602080840183905281518083019092526002825261353360f01b90820152906001600160801b031015612bf95760405162461bcd60e51b81526004016105309190613c49565b50604080820151815180830190925260028252610d4d60f21b60208301526001600160801b031015612c3e5760405162461bcd60e51b81526004016105309190613c49565b506020818101516040808401516001600160801b03808416600160801b82841681029190911760028d015560018c0154845195865295850192909252848116848401529304909216606082015290516001600160a01b038716917f4063a2df84b66bb796eb32622851d833e57b2c4292900c18f963af8808b13e35919081900360800190a2505050505050565b604080518082019091526002815261373760f01b602082015260808310612d055760405162461bcd60e51b81526004016105309190613c49565b50612d11826002613e8d565b612d1c906001613d6a565b81612d28576000612d2b565b60015b60ff16901b612d3b836002613e8d565b612d46906001613d6a565b8454600190911b1916179092555050565b604080516001600160a01b0385811660248301528416604482015260648082018490528251808303909101815260849091019091526020810180516001600160e01b03166323b872dd60e01b179052612db19085906134ad565b50505050565b600381015460009064ffffffffff908116904216811415612deb57505060010154600160801b90046001600160801b031690565b60018301546002840154600091612e1c916001600160801b03600160801b92839004811692612b039204168561357f565b949350505050565b60006111d58284613eac565b604080518082019091526002815261373760f01b602082015260808310612e6a5760405162461bcd60e51b81526004016105309190613c49565b50612e76826002613e8d565b81612e82576000612e85565b60015b60ff16901b612d46836002613e8d565b60006111d58284613e8d565b60006111d58284613d82565b600454600554604080518082019091526002815261363560f01b6020820152908210612eec5760405162461bcd60e51b81526004016105309190613c49565b506001600160a01b038216600090815260016020526040812060050154600160a01b900460ff16151580612f5557506000805260036020527f3617319a054d772f909f7c479a2cebe5066e836a939412e32403c99029b92eff546001600160a01b038481169116145b905080610e93576001600160a01b0383166000818152600160208181526040808420600501805460ff60a01b1916600160a01b60ff8a1602179055868452600390915290912080546001600160a01b031916909217909155612fb8908390613d6a565b600455505050565b600080612fcd85846125f6565b905083811015612fe15760009150506111d5565b612feb8185612e24565b95945050505050565b600381015460009064ffffffffff908116904216811415613021575050600101546001600160801b031690565b60018301546002840154600091612e1c916001600160801b0391821691612b0391168561367e565b60408051602081019091528454815260009061306b908890889087878761203b565b945050505050670de0b6b3a7640000811015604051806040016040528060018152602001601b60f91b81525090611a415760405162461bcd60e51b81526004016105309190613c49565b60006080821060405180604001604052806002815260200161373760f01b815250906130f45760405162461bcd60e51b81526004016105309190613c49565b50613100826002613e8d565b925190921c600316151592915050565b60006080821060405180604001604052806002815260200161373760f01b8152509061314f5760405162461bcd60e51b81526004016105309190613c49565b5061315b826002613e8d565b613166906001613d6a565b925190921c600116151592915050565b60006111d58284613d6a565b60006080821060405180604001604052806002815260200161373760f01b815250906131c15760405162461bcd60e51b81526004016105309190613c49565b50613166826002613e8d565b6000826131dd57506000196111d5565b612e1c836131eb86856125f6565b906136bd565b604080518082019091526002815261035360f41b60208201526000908261322b5760405162461bcd60e51b81526004016105309190613c49565b506000613239600284613d82565b905061271061324a82600019613eac565b6132549190613d82565b84111560405180604001604052806002815260200161068760f31b815250906132905760405162461bcd60e51b81526004016105309190613c49565b50828161329f61271087613e8d565b6132a99190613d6a565b612e1c9190613d82565b600285015460009081906001600160801b0316858582156133ea5760006132da848861367e565b90506132e6818a613410565b604080518082019091526002815261353160f01b60208201529093506001600160801b0384111561332a5760405162461bcd60e51b81526004016105309190613c49565b5060018b0180546fffffffffffffffffffffffffffffffff19166001600160801b03851617905589156133e85760028b015460009061337990600160801b90046001600160801b03168961357f565b9050613385818a613410565b6040805180820190915260028152611a9960f11b60208201529093506001600160801b038411156133c95760405162461bcd60e51b81526004016105309190613c49565b505060018b0180546001600160801b03808516600160801b0291161790555b505b600399909901805464ffffffffff19164264ffffffffff16179055989650505050505050565b600082158061341d575081155b1561342a57506000610cc4565b8161344260026b033b2e3c9fd0803ce8000000613d82565b61344e90600019613eac565b6134589190613d82565b83111560405180604001604052806002815260200161068760f31b815250906134945760405162461bcd60e51b81526004016105309190613c49565b506b033b2e3c9fd0803ce800000061267f600282613d82565b6000613502826040518060400160405280602081526020017f5361666545524332303a206c6f772d6c6576656c2063616c6c206661696c6564815250856001600160a01b03166137779092919063ffffffff16565b805190915015610e9357808060200190518101906135209190613ae8565b610e935760405162461bcd60e51b815260206004820152602a60248201527f5361666545524332303a204552433230206f7065726174696f6e20646964206e6044820152691bdd081cdd58d8d9595960b21b6064820152608401610530565b6000806135934264ffffffffff8516612e24565b9050806135af576b033b2e3c9fd0803ce8000000915050610cc4565b60006135bc600183613eac565b90506000600283116135cf5760006135da565b6135da600284613eac565b905060006135ec6301e1338088613d82565b905060006135fa8280613410565b905060006136088284613410565b90506000600261361c846116998a8a612e95565b6136269190613d82565b90506000600661363c8461169989818d8d612e95565b6136469190613d82565b905061366f81613669848161365b8a8e612e95565b6b033b2e3c9fd0803ce80000005b90613176565b9b9a5050505050505050505050565b6000806136924264ffffffffff8516612e24565b9050612e1c6b033b2e3c9fd0803ce80000006301e133806136b38785612e95565b6136699190613d82565b604080518082019091526002815261035360f41b6020820152600090826136f75760405162461bcd60e51b81526004016105309190613c49565b506000613705600284613d82565b9050670de0b6b3a764000061371c82600019613eac565b6137269190613d82565b84111560405180604001604052806002815260200161068760f31b815250906137625760405162461bcd60e51b81526004016105309190613c49565b50828161329f670de0b6b3a764000087613e8d565b6060612e1c848460008585843b6137d05760405162461bcd60e51b815260206004820152601d60248201527f416464726573733a2063616c6c20746f206e6f6e2d636f6e74726163740000006044820152606401610530565b600080866001600160a01b031685876040516137ec9190613b3f565b60006040518083038185875af1925050503d8060008114613829576040519150601f19603f3d011682016040523d82523d6000602084013e61382e565b606091505b509150915061383e828286613849565b979650505050505050565b606083156138585750816111d5565b8251156138685782518084602001fd5b8160405162461bcd60e51b81526004016105309190613c49565b600060208284031215613893578081fd5b81356111d581613f20565b6000602082840312156138af578081fd5b81516111d581613f20565b600080604083850312156138cc578081fd5b82356138d781613f20565b915060208301356138e781613f20565b809150509250929050565b600080600080600080600080610100898b03121561390e578384fd5b883561391981613f20565b9750602089013561392981613f20565b9650604089013561393981613f20565b9550606089013561394981613f20565b94506080890135935060a0890135925060c0890135915060e089013560ff81168114613973578182fd5b809150509295985092959890939650565b600080600080600060a0868803121561399b578081fd5b85356139a681613f20565b945060208601356139b681613f20565b935060408601356139c681613f20565b92506060860135915060808601356139dd81613f38565b809150509295509295909350565b60008060008060008060c08789031215613a03578182fd5b8635613a0e81613f20565b95506020870135613a1e81613f20565b94506040870135613a2e81613f20565b959894975094956060810135955060808101359460a0909101359350915050565b60008060408385031215613a61578182fd5b8235613a6c81613f20565b915060208301356138e781613f38565b60008060408385031215613a8e578182fd5b8235613a9981613f20565b946020939093013593505050565b600080600060608486031215613abb578283fd5b8335613ac681613f20565b9250602084013591506040840135613add81613f20565b809150509250925092565b600060208284031215613af9578081fd5b81516111d581613f38565b600060208284031215613b15578081fd5b5051919050565b60008060408385031215613b2e578182fd5b505080516020909101519092909150565b60008251613b51818460208701613ec3565b9190910192915050565b6001600160a01b03948516815292909316602083015260408201526001600160801b03909116606082015260800190565b6001600160a01b0393909316835260208301919091526001600160801b0316604082015260600190565b6001600160a01b039889168152602081019790975260408701959095526060860193909352608085019190915260a084015260c083015290911660e08201526101000190565b6020808252825182820181905260009190848201906040850190845b81811015613c3d5783516001600160a01b031683529284019291840191600101613c18565b50909695505050505050565b6020815260008251806020840152613c68816040850160208701613ec3565b601f01601f19169190910160400192915050565b815151815261014081016020830151613ca060208401826001600160801b03169052565b506040830151613cbb60408401826001600160801b03169052565b506060830151613cd660608401826001600160801b03169052565b506080830151613cf160808401826001600160801b03169052565b5060a0830151613d0a60a084018264ffffffffff169052565b5060c0830151613d2560c08401826001600160a01b03169052565b5060e0830151613d4060e08401826001600160a01b03169052565b50610100838101516001600160a01b0316908301526101209283015160ff16929091019190915290565b60008219821115613d7d57613d7d613f0a565b500190565b600082613d9d57634e487b7160e01b81526012600452602481fd5b500490565b600181815b80851115613ddd578160001904821115613dc357613dc3613f0a565b80851615613dd057918102915b93841c9390800290613da7565b509250929050565b60006111d58383600082613dfb57506001610cc4565b81613e0857506000610cc4565b8160018114613e1e5760028114613e2857613e44565b6001915050610cc4565b60ff841115613e3957613e39613f0a565b50506001821b610cc4565b5060208310610133831016604e8410600b8410161715613e67575081810a610cc4565b613e718383613da2565b8060001904821115613e8557613e85613f0a565b029392505050565b6000816000190483118215151615613ea757613ea7613f0a565b500290565b600082821015613ebe57613ebe613f0a565b500390565b60005b83811015613ede578181015183820152602001613ec6565b83811115612db15750506000910152565b6000600019821415613f0357613f03613f0a565b5060010190565b634e487b7160e01b600052601160045260246000fd5b6001600160a01b0381168114613f3557600080fd5b50565b8015158114613f3557600080fdfe44c58d81365b66dd4b1a7f36c25aa97b8c71c361ee4937adc1a00000227db5dd00058a56ea94653cdf4f152d227ace22d4c00ad99e2a43f58cb7d9e3feb295f2a2646970667358221220adf5b71eff8f2bb0fd04cb500be6c2707332119ee830ca3887370c081099fab264736f6c63430008040033",
  "linkReferences": {
    "contracts/libraries/logic/ReserveLogic.sol": {
      "ReserveLogic": [
        {
          "length": 20,
          "start": 6793
        }
      ]
    },
    "contracts/libraries/logic/ValidationLogic.sol": {
      "ValidationLogic": [
        {
          "length": 20,
          "start": 3495
        },
        {
          "length": 20,
          "start": 4190
        },
        {
          "length": 20,
          "start": 4905
        },
        {
          "length": 20,
          "start": 5978
        },
        {
          "length": 20,
          "start": 7934
        }
      ]
    }
  },
  "deployedLinkReferences": {
    "contracts/libraries/logic/ReserveLogic.sol": {
      "ReserveLogic": [
        {
          "length": 20,
          "start": 6634
        }
      ]
    },
    "contracts/libraries/logic/ValidationLogic.sol": {
      "ValidationLogic": [
        {
          "length": 20,
          "start": 3336
        },
        {
          "length": 20,
          "start": 4031
        },
        {
          "length": 20,
          "start": 4746
        },
        {
          "length": 20,
          "start": 5819
        },
        {
          "length": 20,
          "start": 7775
        }
      ]
    }
  }
}