{
  "_format": "hh-sol-artifact-1",
  "contractName": "LendingPool",
  "sourceName": "contracts/lendingpool/LendingPool.sol",
  "abi": [
    {
      "inputs": [
        {
          "internalType": "contract IAddressesProvider",
          "name": "provider",
          "type": "address"
        }
      ],
      "stateMutability": "nonpayable",
      "type": "constructor"
    },
    {
      "anonymous": false,
      "inputs": [
        {
          "indexed": true,
          "internalType": "address",
          "name": "reserve",
          "type": "address"
        },
        {
          "indexed": false,
          "internalType": "address",
          "name": "user",
          "type": "address"
        },
        {
          "indexed": true,
          "internalType": "address",
          "name": "onBehalfOf",
          "type": "address"
        },
        {
          "indexed": false,
          "internalType": "uint256",
          "name": "amount",
          "type": "uint256"
        },
        {
          "indexed": false,
          "internalType": "uint256",
          "name": "borrowRate",
          "type": "uint256"
        }
      ],
      "name": "Borrow",
      "type": "event"
    },
    {
      "anonymous": false,
      "inputs": [
        {
          "indexed": true,
          "internalType": "address",
          "name": "reserve",
          "type": "address"
        },
        {
          "indexed": false,
          "internalType": "address",
          "name": "user",
          "type": "address"
        },
        {
          "indexed": true,
          "internalType": "address",
          "name": "onBehalfOf",
          "type": "address"
        },
        {
          "indexed": false,
          "internalType": "uint256",
          "name": "amount",
          "type": "uint256"
        }
      ],
      "name": "Deposit",
      "type": "event"
    },
    {
      "anonymous": false,
      "inputs": [
        {
          "indexed": true,
          "internalType": "address",
          "name": "collateralAsset",
          "type": "address"
        },
        {
          "indexed": true,
          "internalType": "address",
          "name": "debtAsset",
          "type": "address"
        },
        {
          "indexed": true,
          "internalType": "address",
          "name": "user",
          "type": "address"
        },
        {
          "indexed": false,
          "internalType": "uint256",
          "name": "debtToCover",
          "type": "uint256"
        },
        {
          "indexed": false,
          "internalType": "uint256",
          "name": "liquidatedCollateralAmount",
          "type": "uint256"
        },
        {
          "indexed": false,
          "internalType": "address",
          "name": "liquidator",
          "type": "address"
        },
        {
          "indexed": false,
          "internalType": "bool",
          "name": "receiveAToken",
          "type": "bool"
        }
      ],
      "name": "LiquidationCall",
      "type": "event"
    },
    {
      "anonymous": false,
      "inputs": [
        {
          "indexed": true,
          "internalType": "address",
          "name": "reserve",
          "type": "address"
        },
        {
          "indexed": true,
          "internalType": "address",
          "name": "user",
          "type": "address"
        },
        {
          "indexed": true,
          "internalType": "address",
          "name": "repayer",
          "type": "address"
        },
        {
          "indexed": false,
          "internalType": "uint256",
          "name": "amount",
          "type": "uint256"
        }
      ],
      "name": "Repay",
      "type": "event"
    },
    {
      "anonymous": false,
      "inputs": [
        {
          "indexed": true,
          "internalType": "address",
          "name": "reserve",
          "type": "address"
        },
        {
          "indexed": false,
          "internalType": "uint256",
          "name": "liquidityRate",
          "type": "uint256"
        },
        {
          "indexed": false,
          "internalType": "uint256",
          "name": "variableBorrowRate",
          "type": "uint256"
        },
        {
          "indexed": false,
          "internalType": "uint256",
          "name": "liquidityIndex",
          "type": "uint256"
        },
        {
          "indexed": false,
          "internalType": "uint256",
          "name": "variableBorrowIndex",
          "type": "uint256"
        }
      ],
      "name": "ReserveDataUpdated",
      "type": "event"
    },
    {
      "anonymous": false,
      "inputs": [
        {
          "indexed": true,
          "internalType": "address",
          "name": "reserve",
          "type": "address"
        },
        {
          "indexed": true,
          "internalType": "address",
          "name": "user",
          "type": "address"
        }
      ],
      "name": "ReserveUsedAsCollateralDisabled",
      "type": "event"
    },
    {
      "anonymous": false,
      "inputs": [
        {
          "indexed": true,
          "internalType": "address",
          "name": "reserve",
          "type": "address"
        },
        {
          "indexed": true,
          "internalType": "address",
          "name": "user",
          "type": "address"
        }
      ],
      "name": "ReserveUsedAsCollateralEnabled",
      "type": "event"
    },
    {
      "anonymous": false,
      "inputs": [
        {
          "indexed": true,
          "internalType": "address",
          "name": "reserve",
          "type": "address"
        },
        {
          "indexed": true,
          "internalType": "address",
          "name": "user",
          "type": "address"
        },
        {
          "indexed": true,
          "internalType": "address",
          "name": "to",
          "type": "address"
        },
        {
          "indexed": false,
          "internalType": "uint256",
          "name": "amount",
          "type": "uint256"
        }
      ],
      "name": "Withdraw",
      "type": "event"
    },
    {
      "inputs": [],
      "name": "MAX_NUMBER_RESERVES",
      "outputs": [
        {
          "internalType": "uint256",
          "name": "",
          "type": "uint256"
        }
      ],
      "stateMutability": "view",
      "type": "function"
    },
    {
      "inputs": [
        {
          "internalType": "address",
          "name": "asset",
          "type": "address"
        },
        {
          "internalType": "uint256",
          "name": "amount",
          "type": "uint256"
        },
        {
          "internalType": "address",
          "name": "onBehalfOf",
          "type": "address"
        }
      ],
      "name": "borrow",
      "outputs": [],
      "stateMutability": "nonpayable",
      "type": "function"
    },
    {
      "inputs": [
        {
          "internalType": "address",
          "name": "asset",
          "type": "address"
        },
        {
          "internalType": "uint256",
          "name": "amount",
          "type": "uint256"
        },
        {
          "internalType": "address",
          "name": "onBehalfOf",
          "type": "address"
        }
      ],
      "name": "deposit",
      "outputs": [],
      "stateMutability": "nonpayable",
      "type": "function"
    },
    {
      "inputs": [
        {
          "internalType": "address",
          "name": "asset",
          "type": "address"
        },
        {
          "internalType": "address",
          "name": "from",
          "type": "address"
        },
        {
          "internalType": "address",
          "name": "to",
          "type": "address"
        },
        {
          "internalType": "uint256",
          "name": "amount",
          "type": "uint256"
        },
        {
          "internalType": "uint256",
          "name": "balanceFromBefore",
          "type": "uint256"
        },
        {
          "internalType": "uint256",
          "name": "balanceToBefore",
          "type": "uint256"
        }
      ],
      "name": "finalizeTransfer",
      "outputs": [],
      "stateMutability": "nonpayable",
      "type": "function"
    },
    {
      "inputs": [],
      "name": "getAddressesProvider",
      "outputs": [
        {
          "internalType": "contract IAddressesProvider",
          "name": "",
          "type": "address"
        }
      ],
      "stateMutability": "view",
      "type": "function"
    },
    {
      "inputs": [
        {
          "internalType": "address",
          "name": "asset",
          "type": "address"
        }
      ],
      "name": "getConfiguration",
      "outputs": [
        {
          "components": [
            {
              "internalType": "uint256",
              "name": "data",
              "type": "uint256"
            }
          ],
          "internalType": "struct DataTypes.ReserveConfigurationMap",
          "name": "",
          "type": "tuple"
        }
      ],
      "stateMutability": "view",
      "type": "function"
    },
    {
      "inputs": [
        {
          "internalType": "address",
          "name": "asset",
          "type": "address"
        }
      ],
      "name": "getReserveData",
      "outputs": [
        {
          "components": [
            {
              "components": [
                {
                  "internalType": "uint256",
                  "name": "data",
                  "type": "uint256"
                }
              ],
              "internalType": "struct DataTypes.ReserveConfigurationMap",
              "name": "configuration",
              "type": "tuple"
            },
            {
              "internalType": "uint128",
              "name": "liquidityIndex",
              "type": "uint128"
            },
            {
              "internalType": "uint128",
              "name": "variableBorrowIndex",
              "type": "uint128"
            },
            {
              "internalType": "uint128",
              "name": "currentLiquidityRate",
              "type": "uint128"
            },
            {
              "internalType": "uint128",
              "name": "currentVariableBorrowRate",
              "type": "uint128"
            },
            {
              "internalType": "uint40",
              "name": "lastUpdateTimestamp",
              "type": "uint40"
            },
            {
              "internalType": "address",
              "name": "aTokenAddress",
              "type": "address"
            },
            {
              "internalType": "address",
              "name": "variableDebtTokenAddress",
              "type": "address"
            },
            {
              "internalType": "address",
              "name": "interestRateStrategyAddress",
              "type": "address"
            },
            {
              "internalType": "uint8",
              "name": "id",
              "type": "uint8"
            }
          ],
          "internalType": "struct DataTypes.ReserveData",
          "name": "",
          "type": "tuple"
        }
      ],
      "stateMutability": "view",
      "type": "function"
    },
    {
      "inputs": [
        {
          "internalType": "address",
          "name": "asset",
          "type": "address"
        }
      ],
      "name": "getReserveNormalizedIncome",
      "outputs": [
        {
          "internalType": "uint256",
          "name": "",
          "type": "uint256"
        }
      ],
      "stateMutability": "view",
      "type": "function"
    },
    {
      "inputs": [
        {
          "internalType": "address",
          "name": "asset",
          "type": "address"
        }
      ],
      "name": "getReserveNormalizedVariableDebt",
      "outputs": [
        {
          "internalType": "uint256",
          "name": "",
          "type": "uint256"
        }
      ],
      "stateMutability": "view",
      "type": "function"
    },
    {
      "inputs": [],
      "name": "getReservesList",
      "outputs": [
        {
          "internalType": "address[]",
          "name": "",
          "type": "address[]"
        }
      ],
      "stateMutability": "view",
      "type": "function"
    },
    {
      "inputs": [
        {
          "internalType": "address",
          "name": "user",
          "type": "address"
        }
      ],
      "name": "getUserAccountData",
      "outputs": [
        {
          "internalType": "uint256",
          "name": "totalCollateralETH",
          "type": "uint256"
        },
        {
          "internalType": "uint256",
          "name": "totalDebtETH",
          "type": "uint256"
        },
        {
          "internalType": "uint256",
          "name": "availableBorrowsETH",
          "type": "uint256"
        },
        {
          "internalType": "uint256",
          "name": "currentLiquidationThreshold",
          "type": "uint256"
        },
        {
          "internalType": "uint256",
          "name": "ltv",
          "type": "uint256"
        },
        {
          "internalType": "uint256",
          "name": "healthFactor",
          "type": "uint256"
        }
      ],
      "stateMutability": "view",
      "type": "function"
    },
    {
      "inputs": [
        {
          "internalType": "address",
          "name": "user",
          "type": "address"
        }
      ],
      "name": "getUserClass",
      "outputs": [
        {
          "internalType": "enum DataTypes.UserClass",
          "name": "userClass",
          "type": "uint8"
        },
        {
          "internalType": "uint256",
          "name": "score",
          "type": "uint256"
        }
      ],
      "stateMutability": "view",
      "type": "function"
    },
    {
      "inputs": [
        {
          "internalType": "address",
          "name": "user",
          "type": "address"
        }
      ],
      "name": "getUserConfiguration",
      "outputs": [
        {
          "components": [
            {
              "internalType": "uint256",
              "name": "data",
              "type": "uint256"
            }
          ],
          "internalType": "struct DataTypes.UserConfigurationMap",
          "name": "",
          "type": "tuple"
        }
      ],
      "stateMutability": "view",
      "type": "function"
    },
    {
      "inputs": [
        {
          "internalType": "address",
          "name": "user",
          "type": "address"
        }
      ],
      "name": "getUserIsBorrowingAny",
      "outputs": [
        {
          "internalType": "bool",
          "name": "isBorrowingAny",
          "type": "bool"
        }
      ],
      "stateMutability": "view",
      "type": "function"
    },
    {
      "inputs": [
        {
          "internalType": "address",
          "name": "user",
          "type": "address"
        },
        {
          "internalType": "address",
          "name": "asset",
          "type": "address"
        }
      ],
      "name": "getUserReserveStatus",
      "outputs": [
        {
          "internalType": "bool",
          "name": "isBorrowing",
          "type": "bool"
        },
        {
          "internalType": "bool",
          "name": "isUsingAsCollateral",
          "type": "bool"
        }
      ],
      "stateMutability": "view",
      "type": "function"
    },
    {
      "inputs": [
        {
          "internalType": "address",
          "name": "asset",
          "type": "address"
        },
        {
          "internalType": "address",
          "name": "aTokenAddress",
          "type": "address"
        },
        {
          "internalType": "address",
          "name": "variableDebtAddress",
          "type": "address"
        },
        {
          "internalType": "address",
          "name": "interestRateStrategyAddress",
          "type": "address"
        },
        {
          "internalType": "uint256",
          "name": "ltv",
          "type": "uint256"
        },
        {
          "internalType": "uint256",
          "name": "liquidationThreshold",
          "type": "uint256"
        },
        {
          "internalType": "uint256",
          "name": "liquidationBonus",
          "type": "uint256"
        },
        {
          "internalType": "uint8",
          "name": "decimals",
          "type": "uint8"
        }
      ],
      "name": "initReserve",
      "outputs": [],
      "stateMutability": "nonpayable",
      "type": "function"
    },
    {
      "inputs": [
        {
          "internalType": "address",
          "name": "collateralAsset",
          "type": "address"
        },
        {
          "internalType": "address",
          "name": "debtAsset",
          "type": "address"
        },
        {
          "internalType": "address",
          "name": "user",
          "type": "address"
        },
        {
          "internalType": "uint256",
          "name": "debtToCover",
          "type": "uint256"
        },
        {
          "internalType": "bool",
          "name": "receiveAToken",
          "type": "bool"
        }
      ],
      "name": "liquidationCall",
      "outputs": [],
      "stateMutability": "nonpayable",
      "type": "function"
    },
    {
      "inputs": [
        {
          "internalType": "address",
          "name": "asset",
          "type": "address"
        },
        {
          "internalType": "uint256",
          "name": "amount",
          "type": "uint256"
        },
        {
          "internalType": "address",
          "name": "onBehalfOf",
          "type": "address"
        }
      ],
      "name": "repay",
      "outputs": [
        {
          "internalType": "uint256",
          "name": "",
          "type": "uint256"
        }
      ],
      "stateMutability": "nonpayable",
      "type": "function"
    },
    {
      "inputs": [
        {
          "internalType": "address",
          "name": "asset",
          "type": "address"
        },
        {
          "internalType": "uint256",
          "name": "configuration",
          "type": "uint256"
        }
      ],
      "name": "setConfiguration",
      "outputs": [],
      "stateMutability": "nonpayable",
      "type": "function"
    },
    {
      "inputs": [
        {
          "internalType": "address",
          "name": "asset",
          "type": "address"
        },
        {
          "internalType": "address",
          "name": "rateStrategyAddress",
          "type": "address"
        }
      ],
      "name": "setReserveInterestRateStrategyAddress",
      "outputs": [],
      "stateMutability": "nonpayable",
      "type": "function"
    },
    {
      "inputs": [
        {
          "internalType": "address",
          "name": "asset",
          "type": "address"
        },
        {
          "internalType": "bool",
          "name": "useAsCollateral",
          "type": "bool"
        }
      ],
      "name": "setUserUseReserveAsCollateral",
      "outputs": [],
      "stateMutability": "nonpayable",
      "type": "function"
    },
    {
      "inputs": [
        {
          "internalType": "address",
          "name": "asset",
          "type": "address"
        },
        {
          "internalType": "uint256",
          "name": "amount",
          "type": "uint256"
        },
        {
          "internalType": "address",
          "name": "to",
          "type": "address"
        }
      ],
      "name": "withdraw",
      "outputs": [
        {
          "internalType": "uint256",
          "name": "",
          "type": "uint256"
        }
      ],
      "stateMutability": "nonpayable",
      "type": "function"
    },
    {
      "inputs": [
        {
          "internalType": "address",
          "name": "asset",
          "type": "address"
        },
        {
          "internalType": "uint256",
          "name": "amount",
          "type": "uint256"
        },
        {
          "internalType": "address",
          "name": "to",
          "type": "address"
        },
        {
          "internalType": "address",
          "name": "user",
          "type": "address"
        }
      ],
      "name": "withdrawETH",
      "outputs": [],
      "stateMutability": "nonpayable",
      "type": "function"
    }
  ],
  "bytecode": "0x60806040523480156200001157600080fd5b5060405162004b4338038062004b4383398101604081905262000034916200005f565b600080546001600160a01b0319166001600160a01b039290921691909117905560806005556200008f565b60006020828403121562000071578081fd5b81516001600160a01b038116811462000088578182fd5b9392505050565b614aa4806200009f6000396000f3fe608060405234801561001057600080fd5b506004361061014c5760003560e01c80636c665a55116100c3578063d15e00531161007c578063d15e0053146104e0578063d1946dbc146104f3578063d5ed393314610508578063f45346dc1461051b578063f8119d511461052e578063fe65acfe1461053657600080fd5b80636c665a55146103eb5780639835159c146103fe578063a3aefba214610411578063b8d2927614610434578063bf92857c1461045e578063c44b11f71461049e57600080fd5b8063384c88c511610115578063384c88c514610316578063386497fd146103405780634417a583146103615780635a3b74b9146103b25780635ceae9c4146103c557806369328dec146103d857600080fd5b8062a718a9146101515780631d2118f9146101665780631f735227146101a55780632abfd515146101cf57806335ea6a75146101e2575b600080fd5b61016461015f36600461439c565b610551565b005b6101646101743660046142d2565b6001600160a01b03918216600090815260016020526040902060050180546001600160a01b03191691909216179055565b6101b86101b336600461429a565b610ed9565b6040516101c69291906146e3565b60405180910390f35b6101646101dd366004614500565b610f85565b6103096101f036600461429a565b604080516101608101825260006101408201818152825260208201819052918101829052606081018290526080810182905260a0810182905260c0810182905260e081018290526101008101829052610120810191909152506001600160a01b03908116600090815260016020818152604092839020835161016081018552815461014082019081528152928101546001600160801b0380821693850193909352600160801b908190048316948401949094526002810154808316606085015293909304166080820152600382015464ffffffffff811660a0830152600160281b9004831660c08201526004820154831660e0820152600590910154918216610100820152600160a01b90910460ff1661012082015290565b6040516101c69190614742565b6103296103243660046142d2565b610fc1565b6040805192151583529015156020830152016101c6565b61035361034e36600461429a565b6110cc565b6040519081526020016101c6565b6103a361036f36600461429a565b60408051602080820183526000918290526001600160a01b0393909316815260028352819020815192830190915254815290565b604051905181526020016101c6565b6101646103c0366004614467565b6110f3565b6103536103d33660046144bf565b6112e3565b6103536103e63660046144bf565b611650565b6101646103f93660046144bf565b611ab9565b61016461040c36600461430a565b611efb565b61042461041f36600461429a565b612042565b60405190151581526020016101c6565b610164610442366004614494565b6001600160a01b03909116600090815260016020526040902055565b61047161046c36600461429a565b612092565b604080519687526020870195909552938501929092526060840152608083015260a082015260c0016101c6565b6103a36104ac36600461429a565b60408051602080820183526000918290526001600160a01b0393909316815260018352819020815192830190915254815290565b6103536104ee36600461429a565b61214f565b6104fb612170565b6040516101c69190614696565b610164610516366004614403565b612243565b6101646105293660046144bf565b612467565b600554610353565b6000546040516001600160a01b0390911681526020016101c6565b6001600160a01b0380861660009081526001602052604080822087841683529120600382015491929091600160281b900416158015906105a457506003810154600160281b90046001600160a01b031615155b60405180604001604052806002815260200161373960f01b815250906105e65760405162461bcd60e51b81526004016105dd919061470f565b60405180910390fd5b50600060026000876001600160a01b03166001600160a01b03168152602001908152602001600020905061067f6040518061018001604052806000815260200160008152602001600081526020016000815260200160008152602001600081526020016000815260200160008152602001600081526020016000815260200160006001600160a01b031681526020016000151581525090565b604080516020808201835284548252600480546000548551631f94a27560e31b81529551610719968e966001969095600395946001600160a01b03169363fca513a893808301939290829003018186803b1580156106dc57600080fd5b505afa1580156106f0573d6000803e3d6000fd5b505050506040513d601f19601f8201168201806040525081019061071491906142b6565b6126a3565b610100860152505050506004838101546040516370a0823160e01b81526001600160a01b038a8116938201939093529116906370a082319060240160206040518083038186803b15801561076c57600080fd5b505afa158015610780573d6000803e3d6000fd5b505050506040513d601f19601f820116820180604052508101906107a4919061459e565b602082018190526101008201516107be9186918591612b75565b6001600160a01b03871660009081526006602052604090206107df90612c5e565b6003840154600160281b90046001600160a01b0390811661014083018190526040516370a0823160e01b81529189166004830152906370a082319060240160206040518083038186803b15801561083557600080fd5b505afa158015610849573d6000803e3d6000fd5b505050506040513d601f19601f8201168201806040525081019061086d919061459e565b8152602081015161088090611388612c85565b6040820181905286116108935785610899565b80604001515b6060820181905281516108b491869186918d918d9190612d2c565b60e0830181905260c0830191909152606082015111156108d95760e081015160608201525b846109a6576101408101516040516370a0823160e01b81526001600160a01b0391821660048201526000918b16906370a082319060240160206040518083038186803b15801561092857600080fd5b505afa15801561093c573d6000803e3d6000fd5b505050506040513d601f19601f82011682018060405250810190610960919061459e565b90508160c0015181101560405180604001604052806002815260200161343560f01b815250906109a35760405162461bcd60e51b81526004016105dd919061470f565b50505b6109af83613010565b60048381015460608301516001860154604051637a94c56560e11b81526001600160a01b039093169363f5298aca936109fe938d939092600160801b9091046001600160801b03169101614626565b600060405180830381600087803b158015610a1857600080fd5b505af1158015610a2c573d6000803e3d6000fd5b5050505060038301546060820151610a5a9185918b91600160281b90046001600160a01b03169060006130d0565b8415610bbc576101408101516040516370a0823160e01b81523360048201526001600160a01b03909116906370a082319060240160206040518083038186803b158015610aa657600080fd5b505afa158015610aba573d6000803e3d6000fd5b505050506040513d601f19601f82011682018060405250810190610ade919061459e565b61012082015261014081015160c082015160405163f866c31960e01b81526001600160a01b038a81166004830152336024830152604482019290925291169063f866c31990606401600060405180830381600087803b158015610b4057600080fd5b505af1158015610b54573d6000803e3d6000fd5b5050505080610120015160001415610bb7573360009081526002602052604090206005850154610b91908290600160a01b900460ff16600161335a565b60405133906001600160a01b038c1690600080516020614a4f83398151915290600090a3505b610c5e565b610bc584613010565b61014081015160c0820151610be19186918c91906000906130d0565b61014081015160c08201516001860154604051636b81068560e11b81526001600160a01b039093169263d7020d0a92610c2b928c923392916001600160801b0316906004016145f5565b600060405180830381600087803b158015610c4557600080fd5b505af1158015610c59573d6000803e3d6000fd5b505050505b805160c08201511415610cb6576005840154610c87908390600160a01b900460ff16600061335a565b866001600160a01b0316896001600160a01b0316600080516020614a2f83398151915260405160405180910390a35b60008054906101000a90046001600160a01b03166001600160a01b031663ad5c46486040518163ffffffff1660e01b815260040160206040518083038186803b158015610d0257600080fd5b505afa158015610d16573d6000803e3d6000fd5b505050506040513d601f19601f82011682018060405250810190610d3a91906142b6565b6001600160a01b0316886001600160a01b03161415610df457600383015460608201516040516323b872dd60e01b8152336004820152600160281b9092046001600160a01b03908116602484015260448301919091528916906323b872dd90606401602060405180830381600087803b158015610db657600080fd5b505af1158015610dca573d6000803e3d6000fd5b505050506040513d601f19601f82011682018060405250810190610dee9190614552565b50610e20565b60038301546060820151610e20916001600160a01b038b8116923392600160281b9004909116906133e6565b6001600160a01b0387166000908152600660205260409020610e4190613440565b610e4a876134f7565b866001600160a01b0316886001600160a01b03168a6001600160a01b03167fe413a321e8681d831f4dbccbca790d2952b56f977908e45be37335533e00528684606001518560c00151338b604051610ec6949392919093845260208401929092526001600160a01b031660408301521515606082015260800190565b60405180910390a4505050505050505050565b6001600160a01b03811660009081526006602052604080822090516309f2038760e11b8152829173__$290865961ff33dccdf21412a02a8599e57$__916313e4070e91610f2c9160040190815260200190565b604080518083038186803b158015610f4357600080fd5b505af4158015610f57573d6000803e3d6000fd5b505050506040513d601f19601f82011682018060405250810190610f7b919061456e565b9094909350915050565b6001600160a01b0381166000908152600660205260409020610fa690612c5e565b610fb1848484611650565b50610fbb816134f7565b50505050565b6001600160a01b038082166000908152600160208181526040808420815161016081018352815461014082019081528152938101546001600160801b0380821686860152600160801b91829004811686850152600280840154808316606089015292909204166080860152600382015464ffffffffff811660a0870152600160281b9004871660c08601526004820154871660e086015260059091015480871661010086015260ff600160a01b9091048116610120860190815296891686529083528185208251938401909252905482529351929384936110a491839116613598565b93506110c182610120015160ff16826135f390919063ffffffff16565b925050509250929050565b6001600160a01b03811660009081526001602052604081206110ed90613649565b92915050565b6001600160a01b038083166000908152600160208181526040808420338552600283528185206004805496548451631f94a27560e31b81529451939873__$5201a97c05ba6aa659e2f36a933dd51801$__98635fa297e5988b988e988e989297966003969495949094169363fca513a8938282019392909190829003018186803b15801561118057600080fd5b505afa158015611194573d6000803e3d6000fd5b505050506040513d601f19601f820116820180604052508101906111b891906142b6565b6040516001600160e01b031960e08b901b16815260048101989098526001600160a01b03968716602489015294151560448801526064870193909352608486019190915260a485015260c48401521660e48201526101040160006040518083038186803b15801561122857600080fd5b505af415801561123c573d6000803e3d6000fd5b505033600090815260066020526040902061125992509050612c5e565b600581015433600090815260026020526040902061128191600160a01b900460ff168461335a565b61128a336134f7565b81156112b95760405133906001600160a01b03851690600080516020614a4f83398151915290600090a3505050565b60405133906001600160a01b03851690600080516020614a2f83398151915290600090a35b505050565b6001600160a01b0383811660009081526001602090815260408083206003015481518083019092526002825261373960f01b928201929092529192600160281b909104166113445760405162461bcd60e51b81526004016105dd919061470f565b506001600160a01b0384811660009081526001602052604080822060048082015492516370a0823160e01b815287861691810191909152909391909116906370a082319060240160206040518083038186803b1580156113a357600080fd5b505afa1580156113b7573d6000803e3d6000fd5b505050506040513d601f19601f820116820180604052508101906113db919061459e565b604051632835d86f60e21b8152600481018790526001600160a01b03861660248201526044810182905290915073__$5201a97c05ba6aa659e2f36a933dd51801$__9063a0d761bc9060640160006040518083038186803b15801561143f57600080fd5b505af4158015611453573d6000803e3d6000fd5b5050506001600160a01b03851660009081526006602052604090206114789150612c5e565b80808610156114845750845b61148d83613010565b6004838101546001850154604051637a94c56560e11b81526001600160a01b039092169263f5298aca926114d7928a928792600160801b9092046001600160801b03169101614626565b600060405180830381600087803b1580156114f157600080fd5b505af1158015611505573d6000803e3d6000fd5b505050506003830154600160281b90046001600160a01b031661152c8489838560006130d0565b61153683836136b6565b61156e5760058401546001600160a01b038716600090815260026020526040812061156e929091600160a01b90910460ff16906136c2565b6115836001600160a01b0389163383856133e6565b6040516388dd91a160e01b8152336004820152602481018390526001600160a01b038216906388dd91a190604401600060405180830381600087803b1580156115cb57600080fd5b505af11580156115df573d6000803e3d6000fd5b505050506115ec866134f7565b336001600160a01b0316866001600160a01b0316896001600160a01b03167f4cdde6e09bb755c9a5589ebaec640bbfedff1362d4b255ebf8339782b9942faa8560405161163b91815260200190565b60405180910390a450925050505b9392505050565b6001600160a01b03838116600090815260016020526040808220600381015491516370a0823160e01b815233600482015292939092600160281b9092041690839082906370a082319060240160206040518083038186803b1580156116b457600080fd5b505afa1580156116c8573d6000803e3d6000fd5b505050506040513d601f19601f820116820180604052508101906116ec919061459e565b9050856000198114156116fc5750805b73__$5201a97c05ba6aa659e2f36a933dd51801$__63d09db04a898385600160026000336001600160a01b03166001600160a01b03168152602001908152602001600020600360045460008054906101000a90046001600160a01b03166001600160a01b031663fca513a86040518163ffffffff1660e01b815260040160206040518083038186803b15801561179157600080fd5b505afa1580156117a5573d6000803e3d6000fd5b505050506040513d601f19601f820116820180604052508101906117c991906142b6565b6040518963ffffffff1660e01b81526004016117ec989796959493929190614650565b60006040518083038186803b15801561180457600080fd5b505af4158015611818573d6000803e3d6000fd5b5050505060008054906101000a90046001600160a01b03166001600160a01b03166377532ed96040518163ffffffff1660e01b815260040160206040518083038186803b15801561186857600080fd5b505afa15801561187c573d6000803e3d6000fd5b505050506040513d601f19601f820116820180604052508101906118a091906142b6565b6001600160a01b0316336001600160a01b0316146118d0573360009081526006602052604090206118d090612c5e565b6118d984613010565b6118e78489856000856130d0565b8181141561193f57600584015433600090815260026020526040812061191a929091600160a01b90910460ff169061335a565b60405133906001600160a01b038a1690600080516020614a2f83398151915290600090a35b6001840154604051636b81068560e11b81526001600160a01b0385169163d7020d0a916119809133918b9187916001600160801b03909116906004016145f5565b600060405180830381600087803b15801561199a57600080fd5b505af11580156119ae573d6000803e3d6000fd5b5050505060008054906101000a90046001600160a01b03166001600160a01b03166377532ed96040518163ffffffff1660e01b815260040160206040518083038186803b1580156119fe57600080fd5b505afa158015611a12573d6000803e3d6000fd5b505050506040513d601f19601f82011682018060405250810190611a3691906142b6565b6001600160a01b0316336001600160a01b031614611a5757611a57336134f7565b856001600160a01b0316336001600160a01b0316896001600160a01b03167f3115d1449a7b732c986cba18244e897a450f61e1bb8d589cd2e69e6c8924f9f784604051611aa691815260200190565b60405180910390a4979650505050505050565b6001600160a01b038381166000908152600160209081526040918290206003015482518084019093526002835261373960f01b918301919091529091600160281b90910416611b1b5760405162461bcd60e51b81526004016105dd919061470f565b506001600160a01b038084166000908152600160209081526040808320858516845260028352818420600382015485548451631f94a27560e31b8152945193979296600160281b90920483169533959294919093169263fca513a89260048082019391829003018186803b158015611b9257600080fd5b505afa158015611ba6573d6000803e3d6000fd5b505050506040513d601f19601f82011682018060405250810190611bca91906142b6565b8554909150600090611c729060301c60ff16611be790600a6148ab565b60405163b3596f0760e01b81526001600160a01b038c81166004830152611c6c918c9187169063b3596f079060240160206040518083038186803b158015611c2e57600080fd5b505afa158015611c42573d6000803e3d6000fd5b505050506040513d601f19601f82011682018060405250810190611c66919061459e565b90613727565b90613733565b60048054604051631c7d75d760e31b815292935073__$5201a97c05ba6aa659e2f36a933dd51801$__9263e3ebaeb892611cbd928c928e9288926001928e92600392918d9101614650565b60006040518083038186803b158015611cd557600080fd5b505af4158015611ce9573d6000803e3d6000fd5b5050506001600160a01b0388166000908152600660205260409020611d0e9150612c5e565b611d1786613010565b60008660040160009054906101000a90046001600160a01b03166001600160a01b031663b3f1c93d858a8c8b60010160109054906101000a90046001600160801b03166040518563ffffffff1660e01b8152600401611d7994939291906145f5565b602060405180830381600087803b158015611d9357600080fd5b505af1158015611da7573d6000803e3d6000fd5b505050506040513d601f19601f82011682018060405250810190611dcb9190614552565b90508015611def576005870154611def908790600160a01b900460ff1660016136c2565b611dfd878b8760008d6130d0565b604051634efecaa560e01b81526001600160a01b038581166004830152602482018b9052861690634efecaa590604401602060405180830381600087803b158015611e4757600080fd5b505af1158015611e5b573d6000803e3d6000fd5b505050506040513d601f19601f82011682018060405250810190611e7f919061459e565b50611e89886134f7565b876001600160a01b03168a6001600160a01b03167f96558a334f4759f0e7c423d68c84721860bd8fbf94ddc4e55158ecb125ad04b5868c8b60020160109054906101000a90046001600160801b0316604051611ee793929190614626565b60405180910390a350505050505050505050565b60408051808201909152600281526106e760f31b6020820152883b611f335760405162461bcd60e51b81526004016105dd919061470f565b50600054604080518082019091526002815261373560f01b6020820152906001600160a01b03163314611f795760405162461bcd60e51b81526004016105dd919061470f565b506001600160a01b0388811660009081526001602052604090819020905163f2a3bb1d60e01b815260048101919091528882166024820152878216604482015290861660648201526084810185905260a4810184905260c4810183905260ff821660e482015273__$d3b4366daeb9cadc7528af6145b50b2183$__9063f2a3bb1d906101040160006040518083038186803b15801561201757600080fd5b505af415801561202b573d6000803e3d6000fd5b505050506120388861373f565b5050505050505050565b6001600160a01b03811660009081526002602090815260408083208151928301909152548082527f5555555555555555555555555555555555555555555555555555555555555555161515611649565b60008060008060008061212c876001600260008b6001600160a01b03166001600160a01b03168152602001908152602001600020604051806020016040529081600082015481525050600360045460008054906101000a90046001600160a01b03166001600160a01b031663fca513a86040518163ffffffff1660e01b815260040160206040518083038186803b1580156106dc57600080fd5b93995091975090945092509050612144868684613852565b935091939550919395565b6001600160a01b03811660009081526001602052604081206110ed90613886565b6060600060045467ffffffffffffffff81111561219d57634e487b7160e01b600052604160045260246000fd5b6040519080825280602002602001820160405280156121c6578160200160208202803683370190505b50905060005b60045481101561223d5760008181526003602052604090205482516001600160a01b039091169083908390811061221357634e487b7160e01b600052603260045260246000fd5b6001600160a01b039092166020928302919091019091015280612235816149d7565b9150506121cc565b50919050565b6001600160a01b038087166000908152600160209081526040918290206003015482518084019093526002835261363360f01b91830191909152909133600160281b90920416146122a75760405162461bcd60e51b81526004016105dd919061470f565b5061236185600160026000896001600160a01b03166001600160a01b03168152602001908152602001600020600360045460008054906101000a90046001600160a01b03166001600160a01b031663fca513a86040518163ffffffff1660e01b815260040160206040518083038186803b15801561232457600080fd5b505afa158015612338573d6000803e3d6000fd5b505050506040513d601f19601f8201168201806040525081019061235c91906142b6565b6138db565b6001600160a01b03868116600090815260016020526040902060050154600160a01b900460ff16908581169087161461245e5761239e83856136b6565b6123f8576001600160a01b0386166000908152600260205260408120906123c8908290849061335a565b866001600160a01b0316886001600160a01b0316600080516020614a2f83398151915260405160405180910390a3505b8115801561240557508315155b1561245e576001600160a01b038516600090815260026020526040902061242e8183600161335a565b856001600160a01b0316886001600160a01b0316600080516020614a4f83398151915260405160405180910390a3505b50505050505050565b6001600160a01b03831660009081526001602052604090819020905163674d75df60e11b8152600481018490526024810182905273__$5201a97c05ba6aa659e2f36a933dd51801$__9063ce9aebbe9060440160006040518083038186803b1580156124d257600080fd5b505af41580156124e6573d6000803e3d6000fd5b5050506001600160a01b038316600090815260066020526040902061250b9150612c5e565b6003810154600160281b90046001600160a01b031661252982613010565b6125378286838760006130d0565b61254c6001600160a01b0386163383876133e6565b6001820154604051630ab714fb60e11b81526000916001600160a01b0384169163156e29f69161258e9188918a916001600160801b0390911690600401614626565b602060405180830381600087803b1580156125a857600080fd5b505af11580156125bc573d6000803e3d6000fd5b505050506040513d601f19601f820116820180604052508101906125e09190614552565b905080156126495760058301546001600160a01b038516600090815260026020526040902061261a91600160a01b900460ff16600161335a565b836001600160a01b0316866001600160a01b0316600080516020614a4f83398151915260405160405180910390a35b612652846134f7565b60408051338152602081018790526001600160a01b0380871692908916917f7cfff908a4b583f36430b25d75964c458d8ede8a99bd61be750e97ee1b2f3a96910160405180910390a3505050505050565b6000806000806000612748604051806102400160405280600081526020016000815260200160008152602001600081526020016000815260200160008152602001600081526020016000815260200160008152602001600081526020016000815260200160008152602001600081526020016000815260200160001515815260200160006001600160a01b031681526020016000151581526020016000151581525090565b8951612767576000806000806000199550955095509550955050612b67565b600060e08201525b878160e001511015612ac65760e081015161278b908b90613947565b61279457612aae565b60e0810151600090815260208a81526040808320546001600160a01b03166101e085018190528352908d905290206127e8815461ffff80821692601083901c821692602081901c9092169160301c60ff1690565b6080860181905260c08601929092525060a084019190915261280b90600a6148ab565b60208301526101e082015160405163b3596f0760e01b81526001600160a01b0391821660048201529089169063b3596f079060240160206040518083038186803b15801561285857600080fd5b505afa15801561286c573d6000803e3d6000fd5b505050506040513d601f19601f82011682018060405250810190612890919061459e565b825260c0820151158015906128b0575060e08201516128b0908c906135f3565b156129c25760038101546040516370a0823160e01b81526001600160a01b038f81166004830152600160281b909204909116906370a082319060240160206040518083038186803b15801561290457600080fd5b505afa158015612918573d6000803e3d6000fd5b505050506040513d601f19601f8201168201806040525081019061293c919061459e565b604083018190526020830151835160009261295b9291611c6c91613727565b61012084015190915061296e90826139a2565b61012084015260a083015161299490612988908390613727565b610160850151906139a2565b61016084015260c08301516129ba906129ae908390613727565b610180850151906139a2565b610180840152505b60e08201516129d2908c90613598565b15612aac578060040160009054906101000a90046001600160a01b03166001600160a01b03166370a082318e6040518263ffffffff1660e01b8152600401612a2991906001600160a01b0391909116815260200190565b60206040518083038186803b158015612a4157600080fd5b505afa158015612a55573d6000803e3d6000fd5b505050506040513d601f19601f82011682018060405250810190612a79919061459e565b6060830181905260208301518351612aa592612a999291611c6c91613727565b610140840151906139a2565b6101408301525b505b60e08101805190612abe826149d7565b90525061276f565b600081610120015111612ada576000612aef565b610120810151610160820151612aef91613733565b610160820152610120810151612b06576000612b1b565b610120810151610180820151612b1b91613733565b6101808201819052610120820151610140830151612b38926139ae565b610100820181905261012082015161014083015161016084015161018090940151919850965091945090925090505b965096509650965096915050565b6040805180820190915260028152611a1960f11b6020820152670de0b6b3a76400008310612bb65760405162461bcd60e51b81526004016105dd919061470f565b506005840154604080516020810190915284548152600091612be29190600160a01b900460ff166135f3565b90508060405180604001604052806002815260200161343360f01b81525090612c1e5760405162461bcd60e51b81526004016105dd919061470f565b506040805180820190915260028152610d0d60f21b602082015282612c565760405162461bcd60e51b81526004016105dd919061470f565b505050505050565b8054612c7157681043561a882930000081555b612c7a816139d2565b815542600290910155565b6000821580612c92575081155b15612c9f575060006110ed565b81612cad6002612710614848565b612cb990600019614972565b612cc39190614848565b83111560405180604001604052806002815260200161068760f31b81525090612cff5760405162461bcd60e51b81526004016105dd919061470f565b50612710612d0e600282614848565b612d188486614953565b612d229190614830565b6116499190614848565b60008060008060008060009054906101000a90046001600160a01b03166001600160a01b031663fca513a86040518163ffffffff1660e01b815260040160206040518083038186803b158015612d8157600080fd5b505afa158015612d95573d6000803e3d6000fd5b505050506040513d601f19601f82011682018060405250810190612db991906142b6565b9050612dfb6040518060e00160405280600081526020016000815260200160008152602001600081526020016000815260200160008152602001600081525090565b60405163b3596f0760e01b81526001600160a01b038b8116600483015283169063b3596f079060240160206040518083038186803b158015612e3c57600080fd5b505afa158015612e50573d6000803e3d6000fd5b505050506040513d601f19601f82011682018060405250810190612e74919061459e565b6040828101919091525163b3596f0760e01b81526001600160a01b038a8116600483015283169063b3596f079060240160206040518083038186803b158015612ebc57600080fd5b505afa158015612ed0573d6000803e3d6000fd5b505050506040513d601f19601f82011682018060405250810190612ef4919061459e565b6060820152612f1f8c5461ffff80821692601083901c821692602081901c9092169160301c60ff1690565b60c0850152602084015250508a5460301c60ff1660a08201819052612f8990612f5890612f4d90600a6148ab565b604084015190613727565b611c6c8360200151612f838560c00151600a612f7491906148ab565b6060870151611c66908f613727565b90612c85565b60808201819052871015612ff457869350612fed8160200151612fe7612fc48460c00151600a612fb991906148ab565b606086015190613727565b611c6c8560a00151600a612fd891906148ab565b6040870151611c66908b613727565b90613b0f565b9250612fff565b806080015193508792505b50919a909950975050505050505050565b60008160040160009054906101000a90046001600160a01b03166001600160a01b031663b1bf962d6040518163ffffffff1660e01b815260040160206040518083038186803b15801561306257600080fd5b505afa158015613076573d6000803e3d6000fd5b505050506040513d601f19601f8201168201806040525081019061309a919061459e565b600183015460038401549192506001600160801b03600160801b820481169291169064ffffffffff1661245e8585848685613bd1565b6130fb6040518060800160405280600081526020016000815260200160008152602001600081525090565b60018601546004808801546040805163b1bf962d60e01b8152905161319894600160801b90046001600160801b0316936001600160a01b039093169263b1bf962d92808201926020929091829003018186803b15801561315a57600080fd5b505afa15801561316e573d6000803e3d6000fd5b505050506040513d601f19601f82011682018060405250810190613192919061459e565b90613d2e565b6060820181905260058701546040516272fa8b60e91b81526001600160a01b03888116600483015287811660248301526044820187905260648201869052608482019390935291169063e5f516009060a401604080518083038186803b15801561320157600080fd5b505afa158015613215573d6000803e3d6000fd5b505050506040513d601f19601f8201168201806040525081019061323991906145b6565b604080840191909152602080840183905281518083019092526002825261353360f01b90820152906001600160801b0310156132885760405162461bcd60e51b81526004016105dd919061470f565b50604080820151815180830190925260028252610d4d60f21b60208301526001600160801b0310156132cd5760405162461bcd60e51b81526004016105dd919061470f565b506020818101516040808401516001600160801b03808416600160801b82841681029190911760028d015560018c0154845195865295850192909252848116848401529304909216606082015290516001600160a01b038716917f4063a2df84b66bb796eb32622851d833e57b2c4292900c18f963af8808b13e35919081900360800190a2505050505050565b604080518082019091526002815261373760f01b6020820152608083106133945760405162461bcd60e51b81526004016105dd919061470f565b506133a0826002614953565b6133ab906001614830565b816133b75760006133ba565b60015b60ff16901b6133ca836002614953565b6133d5906001614830565b8454600190911b1916179092555050565b604080516001600160a01b0385811660248301528416604482015260648082018490528251808303909101815260849091019091526020810180516001600160e01b03166323b872dd60e01b179052610fbb908590613dcb565b8054682086ac3510526000001061346c578054613466906802b5e3af16b18800006136b6565b506134cf565b80546825f273933db5700000106134925780546134669068056bc75e2d631000006136b6565b8054682b5e3af16b18800000106134b857805461346690680821ab0d44149800006136b6565b80546134cd90680ad78ebc5ac62000006136b6565b505b8054681043561a882930000011156134ee57681043561a882930000081555b42600290910155565b6001600160a01b03808216600090815260026020908152604080832081518084018352905481526004805485548451631f94a27560e31b815294519697889761356a978b9760019796600396959094169363fca513a8938282019392909190829003018186803b1580156106dc57600080fd5b5050506001600160a01b038516600090815260066020526040902091935091506112de908383611d4c613e9d565b60006080821060405180604001604052806002815260200161373760f01b815250906135d75760405162461bcd60e51b81526004016105dd919061470f565b506135e3826002614953565b925190921c600116151592915050565b60006080821060405180604001604052806002815260200161373760f01b815250906136325760405162461bcd60e51b81526004016105dd919061470f565b5061363e826002614953565b6135e3906001614830565b600381015460009064ffffffffff90811690421681141561367d57505060010154600160801b90046001600160801b031690565b600183015460028401546000916136ae916001600160801b03600160801b9283900481169261319292041685613eec565b949350505050565b60006116498284614972565b604080518082019091526002815261373760f01b6020820152608083106136fc5760405162461bcd60e51b81526004016105dd919061470f565b50613708826002614953565b81613714576000613717565b60015b60ff16901b6133d5836002614953565b60006116498284614953565b60006116498284614848565b600454600554604080518082019091526002815261363560f01b602082015290821061377e5760405162461bcd60e51b81526004016105dd919061470f565b506001600160a01b038216600090815260016020526040812060050154600160a01b900460ff161515806137e757506000805260036020527f3617319a054d772f909f7c479a2cebe5066e836a939412e32403c99029b92eff546001600160a01b038481169116145b9050806112de576001600160a01b0383166000818152600160208181526040808420600501805460ff60a01b1916600160a01b60ff8a1602179055868452600390915290912080546001600160a01b03191690921790915561384a908390614830565b600455505050565b60008061385f8584612c85565b905083811015613873576000915050611649565b61387d81856136b6565b95945050505050565b600381015460009064ffffffffff9081169042168114156138b3575050600101546001600160801b031690565b600183015460028401546000916136ae916001600160801b0391821691613192911685613feb565b6040805160208101909152845481526000906138fd90889088908787876126a3565b945050505050670de0b6b3a7640000811015604051806040016040528060018152602001601b60f91b815250906120385760405162461bcd60e51b81526004016105dd919061470f565b60006080821060405180604001604052806002815260200161373760f01b815250906139865760405162461bcd60e51b81526004016105dd919061470f565b50613992826002614953565b925190921c600316151592915050565b60006116498284614830565b6000826139be5750600019611649565b6136ae836139cc8685612c85565b9061402a565b805460028201546000919082906139eb575060006139fd565b60028401546139fa9042614972565b90505b6000613a0d639cbf904083614848565b90506000613a1a866140e4565b905081613a4c57613a3b613a318760010154614141565b612f83858461402a565b613a459085614830565b9350613ae7565b6000613a5c639cbf904084614953565b613a669085614972565b905060005b838161ffff161015613abe57613a95613a878960010154614141565b612f83639cbf90408661402a565b613a9f9087614830565b9550613aaa886140e4565b925080613ab6816149b5565b915050613a6b565b50613ad9613acf8860010154614141565b612f83838561402a565b613ae39086614830565b9450505b6830ca024f987b900000841115613b05576830ca024f987b90000093505b5091949350505050565b604080518082019091526002815261035360f41b602082015260009082613b495760405162461bcd60e51b81526004016105dd919061470f565b506000613b57600284614848565b9050612710613b6882600019614972565b613b729190614848565b84111560405180604001604052806002815260200161068760f31b81525090613bae5760405162461bcd60e51b81526004016105dd919061470f565b508281613bbd61271087614953565b613bc79190614830565b6136ae9190614848565b600285015460009081906001600160801b031685858215613d08576000613bf88488613feb565b9050613c04818a613d2e565b604080518082019091526002815261353160f01b60208201529093506001600160801b03841115613c485760405162461bcd60e51b81526004016105dd919061470f565b5060018b0180546fffffffffffffffffffffffffffffffff19166001600160801b0385161790558915613d065760028b0154600090613c9790600160801b90046001600160801b031689613eec565b9050613ca3818a613d2e565b6040805180820190915260028152611a9960f11b60208201529093506001600160801b03841115613ce75760405162461bcd60e51b81526004016105dd919061470f565b505060018b0180546001600160801b03808516600160801b0291161790555b505b600399909901805464ffffffffff19164264ffffffffff16179055989650505050505050565b6000821580613d3b575081155b15613d48575060006110ed565b81613d6060026b033b2e3c9fd0803ce8000000614848565b613d6c90600019614972565b613d769190614848565b83111560405180604001604052806002815260200161068760f31b81525090613db25760405162461bcd60e51b81526004016105dd919061470f565b506b033b2e3c9fd0803ce8000000612d0e600282614848565b6000613e20826040518060400160405280602081526020017f5361666545524332303a206c6f772d6c6576656c2063616c6c206661696c6564815250856001600160a01b031661418f9092919063ffffffff16565b8051909150156112de5780806020019051810190613e3e9190614552565b6112de5760405162461bcd60e51b815260206004820152602a60248201527f5361666545524332303a204552433230206f7065726174696f6e20646964206e6044820152691bdd081cdd58d8d9595960b21b60648201526084016105dd565b811580613ea8575082155b15613eb95760006001850155610fbb565b655af3107a4000613ed7613ecd8383614953565b6139cc858761402a565b613ee19190614848565b600185015550505050565b600080613f004264ffffffffff85166136b6565b905080613f1c576b033b2e3c9fd0803ce80000009150506110ed565b6000613f29600183614972565b9050600060028311613f3c576000613f47565b613f47600284614972565b90506000613f596301e1338088614848565b90506000613f678280613d2e565b90506000613f758284613d2e565b905060006002613f8984611c668a8a613727565b613f939190614848565b905060006006613fa984611c6689818d8d613727565b613fb39190614848565b9050613fdc81613fd68481613fc88a8e613727565b6b033b2e3c9fd0803ce80000005b906139a2565b9b9a5050505050505050505050565b600080613fff4264ffffffffff85166136b6565b90506136ae6b033b2e3c9fd0803ce80000006301e133806140208785613727565b613fd69190614848565b604080518082019091526002815261035360f41b6020820152600090826140645760405162461bcd60e51b81526004016105dd919061470f565b506000614072600284614848565b9050670de0b6b3a764000061408982600019614972565b6140939190614848565b84111560405180604001604052806002815260200161068760f31b815250906140cf5760405162461bcd60e51b81526004016105dd919061470f565b508281613bbd670de0b6b3a764000087614953565b6000682086ac35105260000082600001541161410457506201d4c0919050565b81546825f273933db57000001061411e575061ea60919050565b8154682b5e3af16b1880000010614138575061ea60919050565b5061ea60919050565b600061213482111561417657612af882111561415f57506000919050565b61416a826004614953565b6110ed9061abe0614972565b612134614185836103e8614953565b6110ed9190614848565b60606136ae848460008585843b6141e85760405162461bcd60e51b815260206004820152601d60248201527f416464726573733a2063616c6c20746f206e6f6e2d636f6e747261637400000060448201526064016105dd565b600080866001600160a01b0316858760405161420491906145d9565b60006040518083038185875af1925050503d8060008114614241576040519150601f19603f3d011682016040523d82523d6000602084013e614246565b606091505b5091509150614256828286614261565b979650505050505050565b60608315614270575081611649565b8251156142805782518084602001fd5b8160405162461bcd60e51b81526004016105dd919061470f565b6000602082840312156142ab578081fd5b813561164981614a08565b6000602082840312156142c7578081fd5b815161164981614a08565b600080604083850312156142e4578081fd5b82356142ef81614a08565b915060208301356142ff81614a08565b809150509250929050565b600080600080600080600080610100898b031215614326578384fd5b883561433181614a08565b9750602089013561434181614a08565b9650604089013561435181614a08565b9550606089013561436181614a08565b94506080890135935060a0890135925060c0890135915060e089013560ff8116811461438b578182fd5b809150509295985092959890939650565b600080600080600060a086880312156143b3578081fd5b85356143be81614a08565b945060208601356143ce81614a08565b935060408601356143de81614a08565b92506060860135915060808601356143f581614a20565b809150509295509295909350565b60008060008060008060c0878903121561441b578182fd5b863561442681614a08565b9550602087013561443681614a08565b9450604087013561444681614a08565b959894975094956060810135955060808101359460a0909101359350915050565b60008060408385031215614479578182fd5b823561448481614a08565b915060208301356142ff81614a20565b600080604083850312156144a6578182fd5b82356144b181614a08565b946020939093013593505050565b6000806000606084860312156144d3578283fd5b83356144de81614a08565b92506020840135915060408401356144f581614a08565b809150509250925092565b60008060008060808587031215614515578384fd5b843561452081614a08565b935060208501359250604085013561453781614a08565b9150606085013561454781614a08565b939692955090935050565b600060208284031215614563578081fd5b815161164981614a20565b60008060408385031215614580578182fd5b82516004811061458e578283fd5b6020939093015192949293505050565b6000602082840312156145af578081fd5b5051919050565b600080604083850312156145c8578182fd5b505080516020909101519092909150565b600082516145eb818460208701614989565b9190910192915050565b6001600160a01b03948516815292909316602083015260408201526001600160801b03909116606082015260800190565b6001600160a01b0393909316835260208301919091526001600160801b0316604082015260600190565b6001600160a01b039889168152602081019790975260408701959095526060860193909352608085019190915260a084015260c083015290911660e08201526101000190565b6020808252825182820181905260009190848201906040850190845b818110156146d75783516001600160a01b0316835292840192918401916001016146b2565b50909695505050505050565b604081016004841061470557634e487b7160e01b600052602160045260246000fd5b9281526020015290565b602081526000825180602084015261472e816040850160208701614989565b601f01601f19169190910160400192915050565b81515181526101408101602083015161476660208401826001600160801b03169052565b50604083015161478160408401826001600160801b03169052565b50606083015161479c60608401826001600160801b03169052565b5060808301516147b760808401826001600160801b03169052565b5060a08301516147d060a084018264ffffffffff169052565b5060c08301516147eb60c08401826001600160a01b03169052565b5060e083015161480660e08401826001600160a01b03169052565b50610100838101516001600160a01b0316908301526101209283015160ff16929091019190915290565b60008219821115614843576148436149f2565b500190565b60008261486357634e487b7160e01b81526012600452602481fd5b500490565b600181815b808511156148a3578160001904821115614889576148896149f2565b8085161561489657918102915b93841c939080029061486d565b509250929050565b600061164983836000826148c1575060016110ed565b816148ce575060006110ed565b81600181146148e457600281146148ee5761490a565b60019150506110ed565b60ff8411156148ff576148ff6149f2565b50506001821b6110ed565b5060208310610133831016604e8410600b841016171561492d575081810a6110ed565b6149378383614868565b806000190482111561494b5761494b6149f2565b029392505050565b600081600019048311821515161561496d5761496d6149f2565b500290565b600082821015614984576149846149f2565b500390565b60005b838110156149a457818101518382015260200161498c565b83811115610fbb5750506000910152565b600061ffff808316818114156149cd576149cd6149f2565b6001019392505050565b60006000198214156149eb576149eb6149f2565b5060010190565b634e487b7160e01b600052601160045260246000fd5b6001600160a01b0381168114614a1d57600080fd5b50565b8015158114614a1d57600080fdfe44c58d81365b66dd4b1a7f36c25aa97b8c71c361ee4937adc1a00000227db5dd00058a56ea94653cdf4f152d227ace22d4c00ad99e2a43f58cb7d9e3feb295f2a26469706673582212205ac6faa9b0385dedf50bf1f0195afce649bf2ba969cdf5e07ff3e8774ee14e9664736f6c63430008040033",
  "linkReferences": {
    "contracts/libraries/logic/ReputationLogic.sol": {
      "ReputationLogic": [
        {
          "length": 20,
          "start": 4001
        }
      ]
    },
    "contracts/libraries/logic/ReserveLogic.sol": {
      "ReserveLogic": [
        {
          "length": 20,
          "start": 8320
        }
      ]
    },
    "contracts/libraries/logic/ValidationLogic.sol": {
      "ValidationLogic": [
        {
          "length": 20,
          "start": 4560
        },
        {
          "length": 20,
          "start": 5289
        },
        {
          "length": 20,
          "start": 6045
        },
        {
          "length": 20,
          "start": 7463
        },
        {
          "length": 20,
          "start": 9532
        }
      ]
    }
  },
  "deployedLinkReferences": {
    "contracts/libraries/logic/ReputationLogic.sol": {
      "ReputationLogic": [
        {
          "length": 20,
          "start": 3842
        }
      ]
    },
    "contracts/libraries/logic/ReserveLogic.sol": {
      "ReserveLogic": [
        {
          "length": 20,
          "start": 8161
        }
      ]
    },
    "contracts/libraries/logic/ValidationLogic.sol": {
      "ValidationLogic": [
        {
          "length": 20,
          "start": 4401
        },
        {
          "length": 20,
          "start": 5130
        },
        {
          "length": 20,
          "start": 5886
        },
        {
          "length": 20,
          "start": 7304
        },
        {
          "length": 20,
          "start": 9373
        }
      ]
    }
  }
}