{
  "_format": "hh-sol-artifact-1",
  "contractName": "LendingPool",
  "sourceName": "contracts/lendingpool/LendingPool.sol",
  "abi": [
    {
      "inputs": [
        {
          "internalType": "contract IAddressesProvider",
          "name": "provider",
          "type": "address"
        }
      ],
      "stateMutability": "nonpayable",
      "type": "constructor"
    },
    {
      "anonymous": false,
      "inputs": [
        {
          "indexed": true,
          "internalType": "address",
          "name": "reserve",
          "type": "address"
        },
        {
          "indexed": false,
          "internalType": "address",
          "name": "user",
          "type": "address"
        },
        {
          "indexed": true,
          "internalType": "address",
          "name": "onBehalfOf",
          "type": "address"
        },
        {
          "indexed": false,
          "internalType": "uint256",
          "name": "amount",
          "type": "uint256"
        },
        {
          "indexed": false,
          "internalType": "uint256",
          "name": "borrowRate",
          "type": "uint256"
        }
      ],
      "name": "Borrow",
      "type": "event"
    },
    {
      "anonymous": false,
      "inputs": [
        {
          "indexed": true,
          "internalType": "address",
          "name": "reserve",
          "type": "address"
        },
        {
          "indexed": false,
          "internalType": "address",
          "name": "user",
          "type": "address"
        },
        {
          "indexed": true,
          "internalType": "address",
          "name": "onBehalfOf",
          "type": "address"
        },
        {
          "indexed": false,
          "internalType": "uint256",
          "name": "amount",
          "type": "uint256"
        }
      ],
      "name": "Deposit",
      "type": "event"
    },
    {
      "anonymous": false,
      "inputs": [
        {
          "indexed": true,
          "internalType": "address",
          "name": "collateralAsset",
          "type": "address"
        },
        {
          "indexed": true,
          "internalType": "address",
          "name": "debtAsset",
          "type": "address"
        },
        {
          "indexed": true,
          "internalType": "address",
          "name": "user",
          "type": "address"
        },
        {
          "indexed": false,
          "internalType": "uint256",
          "name": "debtToCover",
          "type": "uint256"
        },
        {
          "indexed": false,
          "internalType": "uint256",
          "name": "liquidatedCollateralAmount",
          "type": "uint256"
        },
        {
          "indexed": false,
          "internalType": "address",
          "name": "liquidator",
          "type": "address"
        },
        {
          "indexed": false,
          "internalType": "bool",
          "name": "receiveAToken",
          "type": "bool"
        }
      ],
      "name": "LiquidationCall",
      "type": "event"
    },
    {
      "anonymous": false,
      "inputs": [
        {
          "indexed": true,
          "internalType": "address",
          "name": "reserve",
          "type": "address"
        },
        {
          "indexed": true,
          "internalType": "address",
          "name": "user",
          "type": "address"
        },
        {
          "indexed": true,
          "internalType": "address",
          "name": "repayer",
          "type": "address"
        },
        {
          "indexed": false,
          "internalType": "uint256",
          "name": "amount",
          "type": "uint256"
        }
      ],
      "name": "Repay",
      "type": "event"
    },
    {
      "anonymous": false,
      "inputs": [
        {
          "indexed": true,
          "internalType": "address",
          "name": "reserve",
          "type": "address"
        },
        {
          "indexed": false,
          "internalType": "uint256",
          "name": "liquidityRate",
          "type": "uint256"
        },
        {
          "indexed": false,
          "internalType": "uint256",
          "name": "variableBorrowRate",
          "type": "uint256"
        },
        {
          "indexed": false,
          "internalType": "uint256",
          "name": "liquidityIndex",
          "type": "uint256"
        },
        {
          "indexed": false,
          "internalType": "uint256",
          "name": "variableBorrowIndex",
          "type": "uint256"
        }
      ],
      "name": "ReserveDataUpdated",
      "type": "event"
    },
    {
      "anonymous": false,
      "inputs": [
        {
          "indexed": true,
          "internalType": "address",
          "name": "reserve",
          "type": "address"
        },
        {
          "indexed": true,
          "internalType": "address",
          "name": "user",
          "type": "address"
        }
      ],
      "name": "ReserveUsedAsCollateralDisabled",
      "type": "event"
    },
    {
      "anonymous": false,
      "inputs": [
        {
          "indexed": true,
          "internalType": "address",
          "name": "reserve",
          "type": "address"
        },
        {
          "indexed": true,
          "internalType": "address",
          "name": "user",
          "type": "address"
        }
      ],
      "name": "ReserveUsedAsCollateralEnabled",
      "type": "event"
    },
    {
      "anonymous": false,
      "inputs": [
        {
          "indexed": true,
          "internalType": "address",
          "name": "reserve",
          "type": "address"
        },
        {
          "indexed": true,
          "internalType": "address",
          "name": "user",
          "type": "address"
        },
        {
          "indexed": true,
          "internalType": "address",
          "name": "to",
          "type": "address"
        },
        {
          "indexed": false,
          "internalType": "uint256",
          "name": "amount",
          "type": "uint256"
        }
      ],
      "name": "Withdraw",
      "type": "event"
    },
    {
      "inputs": [],
      "name": "MAX_NUMBER_RESERVES",
      "outputs": [
        {
          "internalType": "uint256",
          "name": "",
          "type": "uint256"
        }
      ],
      "stateMutability": "view",
      "type": "function"
    },
    {
      "inputs": [
        {
          "internalType": "address",
          "name": "asset",
          "type": "address"
        },
        {
          "internalType": "uint256",
          "name": "amount",
          "type": "uint256"
        },
        {
          "internalType": "address",
          "name": "onBehalfOf",
          "type": "address"
        }
      ],
      "name": "borrow",
      "outputs": [],
      "stateMutability": "nonpayable",
      "type": "function"
    },
    {
      "inputs": [
        {
          "internalType": "address",
          "name": "asset",
          "type": "address"
        },
        {
          "internalType": "uint256",
          "name": "amount",
          "type": "uint256"
        },
        {
          "internalType": "address",
          "name": "onBehalfOf",
          "type": "address"
        }
      ],
      "name": "deposit",
      "outputs": [],
      "stateMutability": "nonpayable",
      "type": "function"
    },
    {
      "inputs": [
        {
          "internalType": "address",
          "name": "asset",
          "type": "address"
        },
        {
          "internalType": "address",
          "name": "from",
          "type": "address"
        },
        {
          "internalType": "address",
          "name": "to",
          "type": "address"
        },
        {
          "internalType": "uint256",
          "name": "amount",
          "type": "uint256"
        },
        {
          "internalType": "uint256",
          "name": "balanceFromBefore",
          "type": "uint256"
        },
        {
          "internalType": "uint256",
          "name": "balanceToBefore",
          "type": "uint256"
        }
      ],
      "name": "finalizeTransfer",
      "outputs": [],
      "stateMutability": "nonpayable",
      "type": "function"
    },
    {
      "inputs": [],
      "name": "getAddressesProvider",
      "outputs": [
        {
          "internalType": "contract IAddressesProvider",
          "name": "",
          "type": "address"
        }
      ],
      "stateMutability": "view",
      "type": "function"
    },
    {
      "inputs": [
        {
          "internalType": "address",
          "name": "asset",
          "type": "address"
        }
      ],
      "name": "getConfiguration",
      "outputs": [
        {
          "components": [
            {
              "internalType": "uint256",
              "name": "data",
              "type": "uint256"
            }
          ],
          "internalType": "struct DataTypes.ReserveConfigurationMap",
          "name": "",
          "type": "tuple"
        }
      ],
      "stateMutability": "view",
      "type": "function"
    },
    {
      "inputs": [
        {
          "internalType": "address",
          "name": "asset",
          "type": "address"
        }
      ],
      "name": "getReserveData",
      "outputs": [
        {
          "components": [
            {
              "components": [
                {
                  "internalType": "uint256",
                  "name": "data",
                  "type": "uint256"
                }
              ],
              "internalType": "struct DataTypes.ReserveConfigurationMap",
              "name": "configuration",
              "type": "tuple"
            },
            {
              "internalType": "uint128",
              "name": "liquidityIndex",
              "type": "uint128"
            },
            {
              "internalType": "uint128",
              "name": "variableBorrowIndex",
              "type": "uint128"
            },
            {
              "internalType": "uint128",
              "name": "currentLiquidityRate",
              "type": "uint128"
            },
            {
              "internalType": "uint128",
              "name": "currentVariableBorrowRate",
              "type": "uint128"
            },
            {
              "internalType": "uint40",
              "name": "lastUpdateTimestamp",
              "type": "uint40"
            },
            {
              "internalType": "address",
              "name": "aTokenAddress",
              "type": "address"
            },
            {
              "internalType": "address",
              "name": "variableDebtTokenAddress",
              "type": "address"
            },
            {
              "internalType": "address",
              "name": "interestRateStrategyAddress",
              "type": "address"
            },
            {
              "internalType": "uint8",
              "name": "id",
              "type": "uint8"
            }
          ],
          "internalType": "struct DataTypes.ReserveData",
          "name": "",
          "type": "tuple"
        }
      ],
      "stateMutability": "view",
      "type": "function"
    },
    {
      "inputs": [
        {
          "internalType": "address",
          "name": "asset",
          "type": "address"
        }
      ],
      "name": "getReserveNormalizedIncome",
      "outputs": [
        {
          "internalType": "uint256",
          "name": "",
          "type": "uint256"
        }
      ],
      "stateMutability": "view",
      "type": "function"
    },
    {
      "inputs": [
        {
          "internalType": "address",
          "name": "asset",
          "type": "address"
        }
      ],
      "name": "getReserveNormalizedVariableDebt",
      "outputs": [
        {
          "internalType": "uint256",
          "name": "",
          "type": "uint256"
        }
      ],
      "stateMutability": "view",
      "type": "function"
    },
    {
      "inputs": [],
      "name": "getReservesList",
      "outputs": [
        {
          "internalType": "address[]",
          "name": "",
          "type": "address[]"
        }
      ],
      "stateMutability": "view",
      "type": "function"
    },
    {
      "inputs": [
        {
          "internalType": "address",
          "name": "user",
          "type": "address"
        }
      ],
      "name": "getUserAccountData",
      "outputs": [
        {
          "internalType": "uint256",
          "name": "totalCollateralETH",
          "type": "uint256"
        },
        {
          "internalType": "uint256",
          "name": "totalDebtETH",
          "type": "uint256"
        },
        {
          "internalType": "uint256",
          "name": "availableBorrowsETH",
          "type": "uint256"
        },
        {
          "internalType": "uint256",
          "name": "currentLiquidationThreshold",
          "type": "uint256"
        },
        {
          "internalType": "uint256",
          "name": "ltv",
          "type": "uint256"
        },
        {
          "internalType": "uint256",
          "name": "healthFactor",
          "type": "uint256"
        }
      ],
      "stateMutability": "view",
      "type": "function"
    },
    {
      "inputs": [
        {
          "internalType": "address",
          "name": "user",
          "type": "address"
        }
      ],
      "name": "getUserClass",
      "outputs": [
        {
          "internalType": "enum DataTypes.UserClass",
          "name": "userClass",
          "type": "uint8"
        },
        {
          "internalType": "uint256",
          "name": "score",
          "type": "uint256"
        }
      ],
      "stateMutability": "view",
      "type": "function"
    },
    {
      "inputs": [
        {
          "internalType": "address",
          "name": "user",
          "type": "address"
        }
      ],
      "name": "getUserConfiguration",
      "outputs": [
        {
          "components": [
            {
              "internalType": "uint256",
              "name": "data",
              "type": "uint256"
            }
          ],
          "internalType": "struct DataTypes.UserConfigurationMap",
          "name": "",
          "type": "tuple"
        }
      ],
      "stateMutability": "view",
      "type": "function"
    },
    {
      "inputs": [
        {
          "internalType": "address",
          "name": "user",
          "type": "address"
        }
      ],
      "name": "getUserIsBorrowingAny",
      "outputs": [
        {
          "internalType": "bool",
          "name": "isBorrowingAny",
          "type": "bool"
        }
      ],
      "stateMutability": "view",
      "type": "function"
    },
    {
      "inputs": [
        {
          "internalType": "address",
          "name": "user",
          "type": "address"
        },
        {
          "internalType": "uint256",
          "name": "ltv",
          "type": "uint256"
        },
        {
          "internalType": "uint256",
          "name": "liquidationThreshold",
          "type": "uint256"
        }
      ],
      "name": "getUserLtvAndLt",
      "outputs": [
        {
          "internalType": "uint256",
          "name": "userLtv",
          "type": "uint256"
        },
        {
          "internalType": "uint256",
          "name": "userLiquidationThreshold",
          "type": "uint256"
        }
      ],
      "stateMutability": "view",
      "type": "function"
    },
    {
      "inputs": [
        {
          "internalType": "address",
          "name": "user",
          "type": "address"
        },
        {
          "internalType": "address",
          "name": "asset",
          "type": "address"
        }
      ],
      "name": "getUserReserveStatus",
      "outputs": [
        {
          "internalType": "bool",
          "name": "isBorrowing",
          "type": "bool"
        },
        {
          "internalType": "bool",
          "name": "isUsingAsCollateral",
          "type": "bool"
        }
      ],
      "stateMutability": "view",
      "type": "function"
    },
    {
      "inputs": [
        {
          "internalType": "address",
          "name": "asset",
          "type": "address"
        },
        {
          "internalType": "address",
          "name": "aTokenAddress",
          "type": "address"
        },
        {
          "internalType": "address",
          "name": "variableDebtAddress",
          "type": "address"
        },
        {
          "internalType": "address",
          "name": "interestRateStrategyAddress",
          "type": "address"
        },
        {
          "internalType": "uint256",
          "name": "ltv",
          "type": "uint256"
        },
        {
          "internalType": "uint256",
          "name": "liquidationThreshold",
          "type": "uint256"
        },
        {
          "internalType": "uint256",
          "name": "liquidationBonus",
          "type": "uint256"
        },
        {
          "internalType": "uint8",
          "name": "decimals",
          "type": "uint8"
        }
      ],
      "name": "initReserve",
      "outputs": [],
      "stateMutability": "nonpayable",
      "type": "function"
    },
    {
      "inputs": [
        {
          "internalType": "address",
          "name": "collateralAsset",
          "type": "address"
        },
        {
          "internalType": "address",
          "name": "debtAsset",
          "type": "address"
        },
        {
          "internalType": "address",
          "name": "user",
          "type": "address"
        },
        {
          "internalType": "uint256",
          "name": "debtToCover",
          "type": "uint256"
        },
        {
          "internalType": "bool",
          "name": "receiveAToken",
          "type": "bool"
        }
      ],
      "name": "liquidationCall",
      "outputs": [],
      "stateMutability": "nonpayable",
      "type": "function"
    },
    {
      "inputs": [
        {
          "internalType": "address",
          "name": "asset",
          "type": "address"
        },
        {
          "internalType": "uint256",
          "name": "amount",
          "type": "uint256"
        },
        {
          "internalType": "address",
          "name": "onBehalfOf",
          "type": "address"
        }
      ],
      "name": "repay",
      "outputs": [
        {
          "internalType": "uint256",
          "name": "",
          "type": "uint256"
        }
      ],
      "stateMutability": "nonpayable",
      "type": "function"
    },
    {
      "inputs": [
        {
          "internalType": "uint256",
          "name": "class",
          "type": "uint256"
        },
        {
          "internalType": "uint256",
          "name": "idealTimeSpan",
          "type": "uint256"
        },
        {
          "internalType": "uint256",
          "name": "scoreRange",
          "type": "uint256"
        },
        {
          "internalType": "uint256",
          "name": "dropFactor",
          "type": "uint256"
        },
        {
          "internalType": "uint256",
          "name": "adjustLtvBy",
          "type": "uint256"
        }
      ],
      "name": "setClassData",
      "outputs": [],
      "stateMutability": "nonpayable",
      "type": "function"
    },
    {
      "inputs": [
        {
          "internalType": "address",
          "name": "asset",
          "type": "address"
        },
        {
          "internalType": "uint256",
          "name": "configuration",
          "type": "uint256"
        }
      ],
      "name": "setConfiguration",
      "outputs": [],
      "stateMutability": "nonpayable",
      "type": "function"
    },
    {
      "inputs": [
        {
          "internalType": "address",
          "name": "asset",
          "type": "address"
        },
        {
          "internalType": "address",
          "name": "rateStrategyAddress",
          "type": "address"
        }
      ],
      "name": "setReserveInterestRateStrategyAddress",
      "outputs": [],
      "stateMutability": "nonpayable",
      "type": "function"
    },
    {
      "inputs": [
        {
          "internalType": "address",
          "name": "asset",
          "type": "address"
        },
        {
          "internalType": "bool",
          "name": "useAsCollateral",
          "type": "bool"
        }
      ],
      "name": "setUserUseReserveAsCollateral",
      "outputs": [],
      "stateMutability": "nonpayable",
      "type": "function"
    },
    {
      "inputs": [
        {
          "internalType": "address",
          "name": "asset",
          "type": "address"
        },
        {
          "internalType": "uint256",
          "name": "amount",
          "type": "uint256"
        },
        {
          "internalType": "address",
          "name": "to",
          "type": "address"
        }
      ],
      "name": "withdraw",
      "outputs": [
        {
          "internalType": "uint256",
          "name": "",
          "type": "uint256"
        }
      ],
      "stateMutability": "nonpayable",
      "type": "function"
    },
    {
      "inputs": [
        {
          "internalType": "address",
          "name": "asset",
          "type": "address"
        },
        {
          "internalType": "uint256",
          "name": "amount",
          "type": "uint256"
        },
        {
          "internalType": "address",
          "name": "to",
          "type": "address"
        },
        {
          "internalType": "address",
          "name": "user",
          "type": "address"
        }
      ],
      "name": "withdrawETH",
      "outputs": [],
      "stateMutability": "nonpayable",
      "type": "function"
    }
  ],
  "bytecode": "0x60806040523480156200001157600080fd5b5060405162004fe838038062004fe883398101604081905262000034916200005f565b600080546001600160a01b0319166001600160a01b039290921691909117905560806005556200008f565b60006020828403121562000071578081fd5b81516001600160a01b038116811462000088578182fd5b9392505050565b614f49806200009f6000396000f3fe608060405234801561001057600080fd5b50600436106101725760003560e01c806369328dec116100de578063c44b11f711610097578063d5ed393311610071578063d5ed393314610569578063f45346dc1461057c578063f8119d511461058f578063fe65acfe1461059757600080fd5b8063c44b11f7146104ff578063d15e005314610541578063d1946dbc1461055457600080fd5b806369328dec146104395780636c665a551461044c5780639835159c1461045f578063a3aefba214610472578063b8d2927614610495578063bf92857c146104bf57600080fd5b8063386497fd11610130578063386497fd14610366578063434e178f146103875780634417a583146103af57806349f5210d146104005780635a3b74b9146104135780635ceae9c41461042657600080fd5b8062a718a9146101775780631d2118f91461018c5780631f735227146101cb5780632abfd515146101f557806335ea6a7514610208578063384c88c51461033c575b600080fd5b61018a61018536600461479e565b6105b2565b005b61018a61019a3660046146d4565b6001600160a01b03918216600090815260016020526040902060050180546001600160a01b03191691909216179055565b6101de6101d936600461469c565b610f3f565b6040516101ec929190614b88565b60405180910390f35b61018a610203366004614902565b610fed565b61032f61021636600461469c565b604080516101608101825260006101408201818152825260208201819052918101829052606081018290526080810182905260a0810182905260c0810182905260e081018290526101008101829052610120810191909152506001600160a01b03908116600090815260016020818152604092839020835161016081018552815461014082019081528152928101546001600160801b0380821693850193909352600160801b908190048316948401949094526002810154808316606085015293909304166080820152600382015464ffffffffff811660a0830152600160281b9004831660c08201526004820154831660e0820152600590910154918216610100820152600160a01b90910460ff1661012082015290565b6040516101ec9190614be7565b61034f61034a3660046146d4565b61102b565b6040805192151583529015156020830152016101ec565b61037961037436600461469c565b611136565b6040519081526020016101ec565b61039a610395366004614954565b61115d565b604080519283526020830191909152016101ec565b6103f16103bd36600461469c565b60408051602080820183526000918290526001600160a01b0393909316815260028352819020815192830190915254815290565b604051905181526020016101ec565b61018a61040e366004614a8a565b611287565b61018a610421366004614869565b611336565b6103796104343660046148c1565b6114a1565b6103796104473660046148c1565b611810565b61018a61045a3660046148c1565b611c12565b61018a61046d36600461470c565b61208b565b61048561048036600461469c565b6121db565b60405190151581526020016101ec565b61018a6104a3366004614896565b6001600160a01b03909116600090815260016020526040902055565b6104d26104cd36600461469c565b61222b565b604080519687526020870195909552938501929092526060840152608083015260a082015260c0016101ec565b6103f161050d36600461469c565b60408051602080820183526000918290526001600160a01b0393909316815260018352819020815192830190915254815290565b61037961054f36600461469c565b6122e8565b61055c612309565b6040516101ec9190614b3b565b61018a610577366004614805565b6123dc565b61018a61058a3660046148c1565b612601565b600554610379565b6000546040516001600160a01b0390911681526020016101ec565b6001600160a01b0380861660009081526001602052604080822087841683529120600382015491929091600160281b9004161580159061060557506003810154600160281b90046001600160a01b031615155b60405180604001604052806002815260200161373960f01b815250906106475760405162461bcd60e51b815260040161063e9190614bb4565b60405180910390fd5b50600060026000876001600160a01b03166001600160a01b0316815260200190815260200160002090506106e06040518061018001604052806000815260200160008152602001600081526020016000815260200160008152602001600081526020016000815260200160008152602001600081526020016000815260200160006001600160a01b031681526020016000151581525090565b604080516020808201835284548252600480546000548551631f94a27560e31b8152955161077b968e966001969095600395946001600160a01b03169363fca513a893808301939290829003018186803b15801561073d57600080fd5b505afa158015610751573d6000803e3d6000fd5b505050506040513d601f19601f8201168201806040525081019061077591906146b8565b3061283f565b610100860152505050506004838101546040516370a0823160e01b81526001600160a01b038a8116938201939093529116906370a082319060240160206040518083038186803b1580156107ce57600080fd5b505afa1580156107e2573d6000803e3d6000fd5b505050506040513d601f19601f820116820180604052508101906108069190614a4f565b602082018190526101008201516108209186918591612de4565b6001600160a01b0387166000908152600660205260409020610843906007612ecd565b6003840154600160281b90046001600160a01b0390811661014083018190526040516370a0823160e01b81529189166004830152906370a082319060240160206040518083038186803b15801561089957600080fd5b505afa1580156108ad573d6000803e3d6000fd5b505050506040513d601f19601f820116820180604052508101906108d19190614a4f565b815260208101516108e490611388612ef6565b6040820181905286116108f757856108fd565b80604001515b60608201819052815161091891869186918d918d9190612f9d565b60e0830181905260c08301919091526060820151111561093d5760e081015160608201525b84610a0a576101408101516040516370a0823160e01b81526001600160a01b0391821660048201526000918b16906370a082319060240160206040518083038186803b15801561098c57600080fd5b505afa1580156109a0573d6000803e3d6000fd5b505050506040513d601f19601f820116820180604052508101906109c49190614a4f565b90508160c0015181101560405180604001604052806002815260200161343560f01b81525090610a075760405162461bcd60e51b815260040161063e9190614bb4565b50505b610a1383613281565b60048381015460608301516001860154604051637a94c56560e11b81526001600160a01b039093169363f5298aca93610a62938d939092600160801b9091046001600160801b03169101614b11565b600060405180830381600087803b158015610a7c57600080fd5b505af1158015610a90573d6000803e3d6000fd5b5050505060038301546060820151610abe9185918b91600160281b90046001600160a01b0316906000613341565b8415610c20576101408101516040516370a0823160e01b81523360048201526001600160a01b03909116906370a082319060240160206040518083038186803b158015610b0a57600080fd5b505afa158015610b1e573d6000803e3d6000fd5b505050506040513d601f19601f82011682018060405250810190610b429190614a4f565b61012082015261014081015160c082015160405163f866c31960e01b81526001600160a01b038a81166004830152336024830152604482019290925291169063f866c31990606401600060405180830381600087803b158015610ba457600080fd5b505af1158015610bb8573d6000803e3d6000fd5b5050505080610120015160001415610c1b573360009081526002602052604090206005850154610bf5908290600160a01b900460ff1660016135cb565b60405133906001600160a01b038c1690600080516020614ef483398151915290600090a3505b610cc2565b610c2984613281565b61014081015160c0820151610c459186918c9190600090613341565b61014081015160c08201516001860154604051636b81068560e11b81526001600160a01b039093169263d7020d0a92610c8f928c923392916001600160801b031690600401614ae0565b600060405180830381600087803b158015610ca957600080fd5b505af1158015610cbd573d6000803e3d6000fd5b505050505b805160c08201511415610d1a576005840154610ceb908390600160a01b900460ff1660006135cb565b866001600160a01b0316896001600160a01b0316600080516020614ed483398151915260405160405180910390a35b60008054906101000a90046001600160a01b03166001600160a01b031663ad5c46486040518163ffffffff1660e01b815260040160206040518083038186803b158015610d6657600080fd5b505afa158015610d7a573d6000803e3d6000fd5b505050506040513d601f19601f82011682018060405250810190610d9e91906146b8565b6001600160a01b0316886001600160a01b03161415610e5857600383015460608201516040516323b872dd60e01b8152336004820152600160281b9092046001600160a01b03908116602484015260448301919091528916906323b872dd90606401602060405180830381600087803b158015610e1a57600080fd5b505af1158015610e2e573d6000803e3d6000fd5b505050506040513d601f19601f82011682018060405250810190610e529190614988565b50610e84565b60038301546060820151610e84916001600160a01b038b8116923392600160281b900490911690613657565b6001600160a01b0387166000908152600660205260409020610ea79060076136b1565b610eb0876136fe565b866001600160a01b0316886001600160a01b03168a6001600160a01b03167fe413a321e8681d831f4dbccbca790d2952b56f977908e45be37335533e00528684606001518560c00151338b604051610f2c949392919093845260208401929092526001600160a01b031660408301521515606082015260800190565b60405180910390a4505050505050505050565b6001600160a01b038116600090815260066020526040808220905163072108db60e11b8152600481019190915260076024820152819073__$290865961ff33dccdf21412a02a8599e57$__90630e4211b690604401604080518083038186803b158015610fab57600080fd5b505af4158015610fbf573d6000803e3d6000fd5b505050506040513d601f19601f82011682018060405250810190610fe391906149a4565b9094909350915050565b6001600160a01b0381166000908152600660205260409020611010906007612ecd565b61101b848484611810565b50611025816136fe565b50505050565b6001600160a01b038082166000908152600160208181526040808420815161016081018352815461014082019081528152938101546001600160801b0380821686860152600160801b91829004811686850152600280840154808316606089015292909204166080860152600382015464ffffffffff811660a0870152600160281b9004871660c08601526004820154871660e086015260059091015480871661010086015260ff600160a01b90910481166101208601908152968916865290835281852082519384019092529054825293519293849361110e9183911661379f565b935061112b82610120015160ff16826137fa90919063ffffffff16565b925050509250929050565b6001600160a01b038116600090815260016020526040812061115790613850565b92915050565b6001600160a01b0383166000908152600660205260408120819081906111849060076138bd565b604051637a6ddb5360e11b8152600760048201526024810182905290915060009073__$290865961ff33dccdf21412a02a8599e57$__9063f4dbb6a69060440160a06040518083038186803b1580156111dc57600080fd5b505af41580156111f0573d6000803e3d6000fd5b505050506040513d601f19601f8201168201806040525081019061121491906149d4565b805190915060031415611251576080810151611231908790613a98565b935061124a816080015186613a9890919063ffffffff16565b925061127d565b6080810151611261908790613aa4565b935061127a816080015186613aa490919063ffffffff16565b92505b5050935093915050565b6000546001600160a01b031633146112e15760405162461bcd60e51b815260206004820152601c60248201527f43616c6c6572206e6f742041646472657373657350726f766964657200000000604482015260640161063e565b6040805160a08101825286815260208082019687528183019586526060820194855260808201938452600097885260079052952094518555925160018501559051600284015551600383015551600490910155565b6001600160a01b03828116600081815260016020818152604080842033855260029092528084206004805495549251635d30b37f60e01b81529081018490526024810196909652871515604487015260648601939093526084850192909252600360a485015260c484019290925290921660e482015273__$5201a97c05ba6aa659e2f36a933dd51801$__90635d30b37f906101040160006040518083038186803b1580156113e457600080fd5b505af41580156113f8573d6000803e3d6000fd5b5050336000908152600660205260409020611417925090506007612ecd565b600581015433600090815260026020526040902061143f91600160a01b900460ff16846135cb565b611448336136fe565b81156114775760405133906001600160a01b03851690600080516020614ef483398151915290600090a3505050565b60405133906001600160a01b03851690600080516020614ed483398151915290600090a35b505050565b6001600160a01b0383811660009081526001602090815260408083206003015481518083019092526002825261373960f01b928201929092529192600160281b909104166115025760405162461bcd60e51b815260040161063e9190614bb4565b506001600160a01b0384811660009081526001602052604080822060048082015492516370a0823160e01b815287861691810191909152909391909116906370a082319060240160206040518083038186803b15801561156157600080fd5b505afa158015611575573d6000803e3d6000fd5b505050506040513d601f19601f820116820180604052508101906115999190614a4f565b604051632835d86f60e21b8152600481018790526001600160a01b03861660248201526044810182905290915073__$5201a97c05ba6aa659e2f36a933dd51801$__9063a0d761bc9060640160006040518083038186803b1580156115fd57600080fd5b505af4158015611611573d6000803e3d6000fd5b5050506001600160a01b038516600090815260066020526040902061163891506007612ecd565b80808610156116445750845b61164d83613281565b6004838101546001850154604051637a94c56560e11b81526001600160a01b039092169263f5298aca92611697928a928792600160801b9092046001600160801b03169101614b11565b600060405180830381600087803b1580156116b157600080fd5b505af11580156116c5573d6000803e3d6000fd5b505050506003830154600160281b90046001600160a01b03166116ec848983856000613341565b6116f68383613a98565b61172e5760058401546001600160a01b038716600090815260026020526040812061172e929091600160a01b90910460ff1690613ab0565b6117436001600160a01b038916338385613657565b6040516388dd91a160e01b8152336004820152602481018390526001600160a01b038216906388dd91a190604401600060405180830381600087803b15801561178b57600080fd5b505af115801561179f573d6000803e3d6000fd5b505050506117ac866136fe565b336001600160a01b0316866001600160a01b0316896001600160a01b03167f4cdde6e09bb755c9a5589ebaec640bbfedff1362d4b255ebf8339782b9942faa856040516117fb91815260200190565b60405180910390a450925050505b9392505050565b6001600160a01b03838116600090815260016020526040808220600381015491516370a0823160e01b815233600482015292939092600160281b9092041690839082906370a082319060240160206040518083038186803b15801561187457600080fd5b505afa158015611888573d6000803e3d6000fd5b505050506040513d601f19601f820116820180604052508101906118ac9190614a4f565b9050856000198114156118bc5750805b33600090815260026020526040808220600480549354925163b139461f60e01b81526001600160a01b03808e16928201929092526024810186905260448101879052600160648201526084810192909252600360a483015260c4820193909352911660e482015273__$5201a97c05ba6aa659e2f36a933dd51801$__9063b139461f906101040160006040518083038186803b15801561195b57600080fd5b505af415801561196f573d6000803e3d6000fd5b5050505060008054906101000a90046001600160a01b03166001600160a01b03166377532ed96040518163ffffffff1660e01b815260040160206040518083038186803b1580156119bf57600080fd5b505afa1580156119d3573d6000803e3d6000fd5b505050506040513d601f19601f820116820180604052508101906119f791906146b8565b6001600160a01b0316336001600160a01b031614611a2957336000908152600660205260409020611a29906007612ecd565b611a3284613281565b611a40848985600085613341565b81811415611a98576005840154336000908152600260205260408120611a73929091600160a01b90910460ff16906135cb565b60405133906001600160a01b038a1690600080516020614ed483398151915290600090a35b6001840154604051636b81068560e11b81526001600160a01b0385169163d7020d0a91611ad99133918b9187916001600160801b0390911690600401614ae0565b600060405180830381600087803b158015611af357600080fd5b505af1158015611b07573d6000803e3d6000fd5b5050505060008054906101000a90046001600160a01b03166001600160a01b03166377532ed96040518163ffffffff1660e01b815260040160206040518083038186803b158015611b5757600080fd5b505afa158015611b6b573d6000803e3d6000fd5b505050506040513d601f19601f82011682018060405250810190611b8f91906146b8565b6001600160a01b0316336001600160a01b031614611bb057611bb0336136fe565b856001600160a01b0316336001600160a01b0316896001600160a01b03167f3115d1449a7b732c986cba18244e897a450f61e1bb8d589cd2e69e6c8924f9f784604051611bff91815260200190565b60405180910390a4979650505050505050565b6001600160a01b038381166000908152600160209081526040918290206003015482518084019093526002835261373960f01b918301919091529091600160281b90910416611c745760405162461bcd60e51b815260040161063e9190614bb4565b506001600160a01b038084166000908152600160209081526040808320858516845260028352818420600382015485548451631f94a27560e31b8152945193979296600160281b90920483169533959294919093169263fca513a89260048082019391829003018186803b158015611ceb57600080fd5b505afa158015611cff573d6000803e3d6000fd5b505050506040513d601f19601f82011682018060405250810190611d2391906146b8565b8554909150600090611dcb9060301c60ff16611d4090600a614d50565b60405163b3596f0760e01b81526001600160a01b038c81166004830152611dc5918c9187169063b3596f079060240160206040518083038186803b158015611d8757600080fd5b505afa158015611d9b573d6000803e3d6000fd5b505050506040513d601f19601f82011682018060405250810190611dbf9190614a4f565b90613b15565b90613b21565b60048054604051631ab9238b60e31b81526001600160a01b03808c1693820193909352602481018c9052604481018490526001606482015260848101899052600360a482015260c481019190915290841660e48201523061010482015290915073__$5201a97c05ba6aa659e2f36a933dd51801$__9063d5c91c58906101240160006040518083038186803b158015611e6357600080fd5b505af4158015611e77573d6000803e3d6000fd5b5050506001600160a01b0388166000908152600660205260409020611e9e91506007612ecd565b611ea786613281565b60008660040160009054906101000a90046001600160a01b03166001600160a01b031663b3f1c93d858a8c8b60010160109054906101000a90046001600160801b03166040518563ffffffff1660e01b8152600401611f099493929190614ae0565b602060405180830381600087803b158015611f2357600080fd5b505af1158015611f37573d6000803e3d6000fd5b505050506040513d601f19601f82011682018060405250810190611f5b9190614988565b90508015611f7f576005870154611f7f908790600160a01b900460ff166001613ab0565b611f8d878b8760008d613341565b604051634efecaa560e01b81526001600160a01b038581166004830152602482018b9052861690634efecaa590604401602060405180830381600087803b158015611fd757600080fd5b505af1158015611feb573d6000803e3d6000fd5b505050506040513d601f19601f8201168201806040525081019061200f9190614a4f565b50612019886136fe565b876001600160a01b03168a6001600160a01b03167f96558a334f4759f0e7c423d68c84721860bd8fbf94ddc4e55158ecb125ad04b5868c8b60020160109054906101000a90046001600160801b031660405161207793929190614b11565b60405180910390a350505050505050505050565b60408051808201909152600281526106e760f31b60208201526001600160a01b0389163b6120cc5760405162461bcd60e51b815260040161063e9190614bb4565b50600054604080518082019091526002815261373560f01b6020820152906001600160a01b031633146121125760405162461bcd60e51b815260040161063e9190614bb4565b506001600160a01b0388811660009081526001602052604090819020905163f2a3bb1d60e01b815260048101919091528882166024820152878216604482015290861660648201526084810185905260a4810184905260c4810183905260ff821660e482015273__$d3b4366daeb9cadc7528af6145b50b2183$__9063f2a3bb1d906101040160006040518083038186803b1580156121b057600080fd5b505af41580156121c4573d6000803e3d6000fd5b505050506121d188613b2d565b5050505050505050565b6001600160a01b03811660009081526002602090815260408083208151928301909152548082527f5555555555555555555555555555555555555555555555555555555555555555161515611809565b6000806000806000806122c5876001600260008b6001600160a01b03166001600160a01b03168152602001908152602001600020604051806020016040529081600082015481525050600360045460008054906101000a90046001600160a01b03166001600160a01b031663fca513a86040518163ffffffff1660e01b815260040160206040518083038186803b15801561073d57600080fd5b939950919750909450925090506122dd868684613c40565b935091939550919395565b6001600160a01b038116600090815260016020526040812061115790613c74565b6060600060045467ffffffffffffffff81111561233657634e487b7160e01b600052604160045260246000fd5b60405190808252806020026020018201604052801561235f578160200160208202803683370190505b50905060005b6004548110156123d65760008181526003602052604090205482516001600160a01b03909116908390839081106123ac57634e487b7160e01b600052603260045260246000fd5b6001600160a01b0390921660209283029190910190910152806123ce81614e7c565b915050612365565b50919050565b6001600160a01b038087166000908152600160209081526040918290206003015482518084019093526002835261363360f01b91830191909152909133600160281b90920416146124405760405162461bcd60e51b815260040161063e9190614bb4565b506124fb85600160026000896001600160a01b03166001600160a01b03168152602001908152602001600020600360045460008054906101000a90046001600160a01b03166001600160a01b031663fca513a86040518163ffffffff1660e01b815260040160206040518083038186803b1580156124bd57600080fd5b505afa1580156124d1573d6000803e3d6000fd5b505050506040513d601f19601f820116820180604052508101906124f591906146b8565b30613cc9565b6001600160a01b03868116600090815260016020526040902060050154600160a01b900460ff1690858116908716146125f8576125388385613a98565b612592576001600160a01b03861660009081526002602052604081209061256290829084906135cb565b866001600160a01b0316886001600160a01b0316600080516020614ed483398151915260405160405180910390a3505b8115801561259f57508315155b156125f8576001600160a01b03851660009081526002602052604090206125c8818360016135cb565b856001600160a01b0316886001600160a01b0316600080516020614ef483398151915260405160405180910390a3505b50505050505050565b6001600160a01b03831660009081526001602052604090819020905163674d75df60e11b8152600481018490526024810182905273__$5201a97c05ba6aa659e2f36a933dd51801$__9063ce9aebbe9060440160006040518083038186803b15801561266c57600080fd5b505af4158015612680573d6000803e3d6000fd5b5050506001600160a01b03831660009081526006602052604090206126a791506007612ecd565b6003810154600160281b90046001600160a01b03166126c582613281565b6126d3828683876000613341565b6126e86001600160a01b038616338387613657565b6001820154604051630ab714fb60e11b81526000916001600160a01b0384169163156e29f69161272a9188918a916001600160801b0390911690600401614b11565b602060405180830381600087803b15801561274457600080fd5b505af1158015612758573d6000803e3d6000fd5b505050506040513d601f19601f8201168201806040525081019061277c9190614988565b905080156127e55760058301546001600160a01b03851660009081526002602052604090206127b691600160a01b900460ff1660016135cb565b836001600160a01b0316866001600160a01b0316600080516020614ef483398151915260405160405180910390a35b6127ee846136fe565b60408051338152602081018790526001600160a01b0380871692908916917f7cfff908a4b583f36430b25d75964c458d8ede8a99bd61be750e97ee1b2f3a96910160405180910390a3505050505050565b60008060008060006128e4604051806102400160405280600081526020016000815260200160008152602001600081526020016000815260200160008152602001600081526020016000815260200160008152602001600081526020016000815260200160008152602001600081526020016000815260200160001515815260200160006001600160a01b031681526020016000151581526020016000151581525090565b8a51612903576000806000806000199550955095509550955050612dd5565b600060e08201525b888160e001511015612d345760e0810151612927908c90613d41565b61293057612d1c565b60e0810151600090815260208b81526040808320546001600160a01b03166101e085018190528352908e90529020612984815461ffff80821692601083901c821692602081901c9092169160301c60ff1690565b90508460a0018560c00186608001838152508381525083815250505050876001600160a01b031663434e178f8f8460a001518560c001516040518463ffffffff1660e01b81526004016129f5939291906001600160a01b039390931683526020830191909152604082015260600190565b604080518083038186803b158015612a0c57600080fd5b505afa158015612a20573d6000803e3d6000fd5b505050506040513d601f19601f82011682018060405250810190612a449190614a67565b60c084015260a08301526080820151612a5e90600a614d50565b60208301526101e082015160405163b3596f0760e01b81526001600160a01b039182166004820152908a169063b3596f079060240160206040518083038186803b158015612aab57600080fd5b505afa158015612abf573d6000803e3d6000fd5b505050506040513d601f19601f82011682018060405250810190612ae39190614a4f565b825260c082015115801590612b03575060e0820151612b03908d906137fa565b15612c30578060030160059054906101000a90046001600160a01b03166001600160a01b03166370a082318f6040518263ffffffff1660e01b8152600401612b5a91906001600160a01b0391909116815260200190565b60206040518083038186803b158015612b7257600080fd5b505afa158015612b86573d6000803e3d6000fd5b505050506040513d601f19601f82011682018060405250810190612baa9190614a4f565b6040830181905260208301518351600092612bc99291611dc591613b15565b610120840151909150612bdc9082613aa4565b61012084015260a0830151612c0290612bf6908390613b15565b61016085015190613aa4565b61016084015260c0830151612c2890612c1c908390613b15565b61018085015190613aa4565b610180840152505b60e0820151612c40908d9061379f565b15612d1a578060040160009054906101000a90046001600160a01b03166001600160a01b03166370a082318f6040518263ffffffff1660e01b8152600401612c9791906001600160a01b0391909116815260200190565b60206040518083038186803b158015612caf57600080fd5b505afa158015612cc3573d6000803e3d6000fd5b505050506040513d601f19601f82011682018060405250810190612ce79190614a4f565b6060830181905260208301518351612d1392612d079291611dc591613b15565b61014084015190613aa4565b6101408301525b505b60e08101805190612d2c82614e7c565b90525061290b565b600081610120015111612d48576000612d5d565b610120810151610160820151612d5d91613b21565b610160820152610120810151612d74576000612d89565b610120810151610180820151612d8991613b21565b6101808201819052610120820151610140830151612da692613d9c565b610100820181905261012082015161014083015161016084015161018090940151919850965091945090925090505b97509750975097509792505050565b6040805180820190915260028152611a1960f11b6020820152670de0b6b3a76400008310612e255760405162461bcd60e51b815260040161063e9190614bb4565b506005840154604080516020810190915284548152600091612e519190600160a01b900460ff166137fa565b90508060405180604001604052806002815260200161343360f01b81525090612e8d5760405162461bcd60e51b815260040161063e9190614bb4565b506040805180820190915260028152610d0d60f21b602082015282612ec55760405162461bcd60e51b815260040161063e9190614bb4565b505050505050565b8154612ee057681043561a882930000082555b612eea82826138bd565b82555042600290910155565b6000821580612f03575081155b15612f1057506000611157565b81612f1e6002612710614ced565b612f2a90600019614e17565b612f349190614ced565b83111560405180604001604052806002815260200161068760f31b81525090612f705760405162461bcd60e51b815260040161063e9190614bb4565b50612710612f7f600282614ced565b612f898486614df8565b612f939190614cd5565b6118099190614ced565b60008060008060008060009054906101000a90046001600160a01b03166001600160a01b031663fca513a86040518163ffffffff1660e01b815260040160206040518083038186803b158015612ff257600080fd5b505afa158015613006573d6000803e3d6000fd5b505050506040513d601f19601f8201168201806040525081019061302a91906146b8565b905061306c6040518060e00160405280600081526020016000815260200160008152602001600081526020016000815260200160008152602001600081525090565b60405163b3596f0760e01b81526001600160a01b038b8116600483015283169063b3596f079060240160206040518083038186803b1580156130ad57600080fd5b505afa1580156130c1573d6000803e3d6000fd5b505050506040513d601f19601f820116820180604052508101906130e59190614a4f565b6040828101919091525163b3596f0760e01b81526001600160a01b038a8116600483015283169063b3596f079060240160206040518083038186803b15801561312d57600080fd5b505afa158015613141573d6000803e3d6000fd5b505050506040513d601f19601f820116820180604052508101906131659190614a4f565b60608201526131908c5461ffff80821692601083901c821692602081901c9092169160301c60ff1690565b60c0850152602084015250508a5460301c60ff1660a082018190526131fa906131c9906131be90600a614d50565b604084015190613b15565b611dc583602001516131f48560c00151600a6131e59190614d50565b6060870151611dbf908f613b15565b90612ef6565b608082018190528710156132655786935061325e81602001516132586132358460c00151600a61322a9190614d50565b606086015190613b15565b611dc58560a00151600a6132499190614d50565b6040870151611dbf908b613b15565b90613dc0565b9250613270565b806080015193508792505b50919a909950975050505050505050565b60008160040160009054906101000a90046001600160a01b03166001600160a01b031663b1bf962d6040518163ffffffff1660e01b815260040160206040518083038186803b1580156132d357600080fd5b505afa1580156132e7573d6000803e3d6000fd5b505050506040513d601f19601f8201168201806040525081019061330b9190614a4f565b600183015460038401549192506001600160801b03600160801b820481169291169064ffffffffff166125f88585848685613e82565b61336c6040518060800160405280600081526020016000815260200160008152602001600081525090565b60018601546004808801546040805163b1bf962d60e01b8152905161340994600160801b90046001600160801b0316936001600160a01b039093169263b1bf962d92808201926020929091829003018186803b1580156133cb57600080fd5b505afa1580156133df573d6000803e3d6000fd5b505050506040513d601f19601f820116820180604052508101906134039190614a4f565b90613fdf565b6060820181905260058701546040516272fa8b60e91b81526001600160a01b03888116600483015287811660248301526044820187905260648201869052608482019390935291169063e5f516009060a401604080518083038186803b15801561347257600080fd5b505afa158015613486573d6000803e3d6000fd5b505050506040513d601f19601f820116820180604052508101906134aa9190614a67565b604080840191909152602080840183905281518083019092526002825261353360f01b90820152906001600160801b0310156134f95760405162461bcd60e51b815260040161063e9190614bb4565b50604080820151815180830190925260028252610d4d60f21b60208301526001600160801b03101561353e5760405162461bcd60e51b815260040161063e9190614bb4565b506020818101516040808401516001600160801b03808416600160801b82841681029190911760028d015560018c0154845195865295850192909252848116848401529304909216606082015290516001600160a01b038716917f4063a2df84b66bb796eb32622851d833e57b2c4292900c18f963af8808b13e35919081900360800190a2505050505050565b604080518082019091526002815261373760f01b6020820152608083106136055760405162461bcd60e51b815260040161063e9190614bb4565b50613611826002614df8565b61361c906001614cd5565b8161362857600061362b565b60015b60ff16901b61363b836002614df8565b613646906001614cd5565b8454600190911b1916179092555050565b604080516001600160a01b0385811660248301528416604482015260648082018490528251808303909101815260849091019091526020810180516001600160e01b03166323b872dd60e01b17905261102590859061407c565b60006136c182846000015461414e565b606081015184549192506136d59190613a98565b504260028401558254681043561a8829300000111561149c575050681043561a88293000009055565b6001600160a01b03808216600090815260026020908152604080832081518084018352905481526004805485548451631f94a27560e31b8152945196978897613771978b9760019796600396959094169363fca513a8938282019392909190829003018186803b15801561073d57600080fd5b5050506001600160a01b0385166000908152600660205260409020919350915061149c908383611d4c6142f2565b60006080821060405180604001604052806002815260200161373760f01b815250906137de5760405162461bcd60e51b815260040161063e9190614bb4565b506137ea826002614df8565b925190921c600116151592915050565b60006080821060405180604001604052806002815260200161373760f01b815250906138395760405162461bcd60e51b815260040161063e9190614bb4565b50613845826002614df8565b6137ea906001614cd5565b600381015460009064ffffffffff90811690421681141561388457505060010154600160801b90046001600160801b031690565b600183015460028401546000916138b5916001600160801b03600160801b9283900481169261340392041685614341565b949350505050565b600082600201544214156138d357508154611157565b82546040805160a081018252600080825260208201819052918101829052606081018290526080810182905260028601546139115760009150613923565b60028601546139209042614e17565b91505b60006139336305265c0084614ced565b905061393f868561414e565b602081015160408201519193509082613994578061396d6139638b60010154614440565b6131f4888661448f565b6139779190614df8565b613983906103e8614df8565b61398d9087614cd5565b9550613a6d565b60006139a46305265c0085614df8565b6139ae9087614e17565b905060005b848161ffff161015613a2d57826139de6139d08d60010154614440565b6131f46305265c008861448f565b6139e89190614df8565b6139f4906103e8614df8565b6139fe9089614cd5565b9750613a0a8a8961414e565b955085602001519350856040015192508080613a2590614e5a565b9150506139b3565b5081613a49613a3f8c60010154614440565b6131f4848761448f565b613a539190614df8565b613a5f906103e8614df8565b613a699088614cd5565b9650505b6830ca024f987b900000861115613a8b576830ca024f987b90000095505b5093979650505050505050565b60006118098284614e17565b60006118098284614cd5565b604080518082019091526002815261373760f01b602082015260808310613aea5760405162461bcd60e51b815260040161063e9190614bb4565b50613af6826002614df8565b81613b02576000613b05565b60015b60ff16901b613646836002614df8565b60006118098284614df8565b60006118098284614ced565b600454600554604080518082019091526002815261363560f01b6020820152908210613b6c5760405162461bcd60e51b815260040161063e9190614bb4565b506001600160a01b038216600090815260016020526040812060050154600160a01b900460ff16151580613bd557506000805260036020527f3617319a054d772f909f7c479a2cebe5066e836a939412e32403c99029b92eff546001600160a01b038481169116145b90508061149c576001600160a01b0383166000818152600160208181526040808420600501805460ff60a01b1916600160a01b60ff8a1602179055868452600390915290912080546001600160a01b031916909217909155613c38908390614cd5565b600455505050565b600080613c4d8584612ef6565b905083811015613c61576000915050611809565b613c6b8185613a98565b95945050505050565b600381015460009064ffffffffff908116904216811415613ca1575050600101546001600160801b031690565b600183015460028401546000916138b5916001600160801b0391821691613403911685614549565b604080516020810190915285548152600090613cec90899089908888888861283f565b945050505050670de0b6b3a7640000811015604051806040016040528060018152602001601b60f91b81525090613d365760405162461bcd60e51b815260040161063e9190614bb4565b505050505050505050565b60006080821060405180604001604052806002815260200161373760f01b81525090613d805760405162461bcd60e51b815260040161063e9190614bb4565b50613d8c826002614df8565b925190921c600316151592915050565b600082613dac5750600019611809565b6138b583613dba8685612ef6565b9061448f565b604080518082019091526002815261035360f41b602082015260009082613dfa5760405162461bcd60e51b815260040161063e9190614bb4565b506000613e08600284614ced565b9050612710613e1982600019614e17565b613e239190614ced565b84111560405180604001604052806002815260200161068760f31b81525090613e5f5760405162461bcd60e51b815260040161063e9190614bb4565b508281613e6e61271087614df8565b613e789190614cd5565b6138b59190614ced565b600285015460009081906001600160801b031685858215613fb9576000613ea98488614549565b9050613eb5818a613fdf565b604080518082019091526002815261353160f01b60208201529093506001600160801b03841115613ef95760405162461bcd60e51b815260040161063e9190614bb4565b5060018b0180546fffffffffffffffffffffffffffffffff19166001600160801b0385161790558915613fb75760028b0154600090613f4890600160801b90046001600160801b031689614341565b9050613f54818a613fdf565b6040805180820190915260028152611a9960f11b60208201529093506001600160801b03841115613f985760405162461bcd60e51b815260040161063e9190614bb4565b505060018b0180546001600160801b03808516600160801b0291161790555b505b600399909901805464ffffffffff19164264ffffffffff16179055989650505050505050565b6000821580613fec575081155b15613ff957506000611157565b8161401160026b033b2e3c9fd0803ce8000000614ced565b61401d90600019614e17565b6140279190614ced565b83111560405180604001604052806002815260200161068760f31b815250906140635760405162461bcd60e51b815260040161063e9190614bb4565b506b033b2e3c9fd0803ce8000000612f7f600282614ced565b60006140d1826040518060400160405280602081526020017f5361666545524332303a206c6f772d6c6576656c2063616c6c206661696c6564815250856001600160a01b03166145889092919063ffffffff16565b80519091501561149c57808060200190518101906140ef9190614988565b61149c5760405162461bcd60e51b815260206004820152602a60248201527f5361666545524332303a204552433230206f7065726174696f6e20646964206e6044820152691bdd081cdd58d8d9595960b21b606482015260840161063e565b6141806040518060a0016040528060008152602001600081526020016000815260200160008152602001600081525090565b682086ac35105260000082116141de5750600360008181526020848152604091829020825160a08101845281548152600182015492810192909252600281015492820192909252918101546060830152600401546080820152611157565b6825f273933db5700000821161424557826000600281526020019081526020016000206040518060a0016040529081600082015481526020016001820154815260200160028201548152602001600382015481526020016004820154815250509050611157565b682b5e3af16b1880000082116142a35750600160008181526020848152604091829020825160a08101845281548152938101549184019190915260028101549183019190915260038101546060830152600401546080820152611157565b5060008080526020838152604091829020825160a08101845281548152600182015492810192909252600281015492820192909252600382015460608201526004909101546080820152611157565b8115806142fd575082155b1561430e5760006001850155611025565b655af3107a400061432c6143228383614df8565b613dba858761448f565b6143369190614ced565b600185015550505050565b6000806143554264ffffffffff8516613a98565b905080614371576b033b2e3c9fd0803ce8000000915050611157565b600061437e600183614e17565b905060006002831161439157600061439c565b61439c600284614e17565b905060006143ae6301e1338088614ced565b905060006143bc8280613fdf565b905060006143ca8284613fdf565b9050600060026143de84611dbf8a8a613b15565b6143e89190614ced565b9050600060066143fe84611dbf89818d8d613b15565b6144089190614ced565b90506144318161442b848161441d8a8e613b15565b6b033b2e3c9fd0803ce80000005b90613aa4565b9b9a5050505050505050505050565b600061213482111561447657612af882111561445f5750610fa0919050565b61446a826004614df8565b6111579061abe0614e17565b61213461448583612710614df8565b6111579190614ced565b604080518082019091526002815261035360f41b6020820152600090826144c95760405162461bcd60e51b815260040161063e9190614bb4565b5060006144d7600284614ced565b9050670de0b6b3a76400006144ee82600019614e17565b6144f89190614ced565b84111560405180604001604052806002815260200161068760f31b815250906145345760405162461bcd60e51b815260040161063e9190614bb4565b508281613e6e670de0b6b3a764000087614df8565b60008061455d4264ffffffffff8516613a98565b90506138b56b033b2e3c9fd0803ce80000006301e1338061457e8785613b15565b61442b9190614ced565b60606138b58484600085856001600160a01b0385163b6145ea5760405162461bcd60e51b815260206004820152601d60248201527f416464726573733a2063616c6c20746f206e6f6e2d636f6e7472616374000000604482015260640161063e565b600080866001600160a01b031685876040516146069190614ac4565b60006040518083038185875af1925050503d8060008114614643576040519150601f19603f3d011682016040523d82523d6000602084013e614648565b606091505b5091509150614658828286614663565b979650505050505050565b60608315614672575081611809565b8251156146825782518084602001fd5b8160405162461bcd60e51b815260040161063e9190614bb4565b6000602082840312156146ad578081fd5b813561180981614ead565b6000602082840312156146c9578081fd5b815161180981614ead565b600080604083850312156146e6578081fd5b82356146f181614ead565b9150602083013561470181614ead565b809150509250929050565b600080600080600080600080610100898b031215614728578384fd5b883561473381614ead565b9750602089013561474381614ead565b9650604089013561475381614ead565b9550606089013561476381614ead565b94506080890135935060a0890135925060c0890135915060e089013560ff8116811461478d578182fd5b809150509295985092959890939650565b600080600080600060a086880312156147b5578081fd5b85356147c081614ead565b945060208601356147d081614ead565b935060408601356147e081614ead565b92506060860135915060808601356147f781614ec5565b809150509295509295909350565b60008060008060008060c0878903121561481d578182fd5b863561482881614ead565b9550602087013561483881614ead565b9450604087013561484881614ead565b959894975094956060810135955060808101359460a0909101359350915050565b6000806040838503121561487b578182fd5b823561488681614ead565b9150602083013561470181614ec5565b600080604083850312156148a8578182fd5b82356148b381614ead565b946020939093013593505050565b6000806000606084860312156148d5578283fd5b83356148e081614ead565b92506020840135915060408401356148f781614ead565b809150509250925092565b60008060008060808587031215614917578182fd5b843561492281614ead565b935060208501359250604085013561493981614ead565b9150606085013561494981614ead565b939692955090935050565b600080600060608486031215614968578081fd5b833561497381614ead565b95602085013595506040909401359392505050565b600060208284031215614999578081fd5b815161180981614ec5565b600080604083850312156149b6578182fd5b8251600481106149c4578283fd5b6020939093015192949293505050565b600060a082840312156149e5578081fd5b60405160a0810181811067ffffffffffffffff82111715614a1457634e487b7160e01b83526041600452602483fd5b806040525082518152602083015160208201526040830151604082015260608301516060820152608083015160808201528091505092915050565b600060208284031215614a60578081fd5b5051919050565b60008060408385031215614a79578182fd5b505080516020909101519092909150565b600080600080600060a08688031215614aa1578283fd5b505083359560208501359550604085013594606081013594506080013592509050565b60008251614ad6818460208701614e2e565b9190910192915050565b6001600160a01b03948516815292909316602083015260408201526001600160801b03909116606082015260800190565b6001600160a01b0393909316835260208301919091526001600160801b0316604082015260600190565b6020808252825182820181905260009190848201906040850190845b81811015614b7c5783516001600160a01b031683529284019291840191600101614b57565b50909695505050505050565b6040810160048410614baa57634e487b7160e01b600052602160045260246000fd5b9281526020015290565b6020815260008251806020840152614bd3816040850160208701614e2e565b601f01601f19169190910160400192915050565b815151815261014081016020830151614c0b60208401826001600160801b03169052565b506040830151614c2660408401826001600160801b03169052565b506060830151614c4160608401826001600160801b03169052565b506080830151614c5c60808401826001600160801b03169052565b5060a0830151614c7560a084018264ffffffffff169052565b5060c0830151614c9060c08401826001600160a01b03169052565b5060e0830151614cab60e08401826001600160a01b03169052565b50610100838101516001600160a01b0316908301526101209283015160ff16929091019190915290565b60008219821115614ce857614ce8614e97565b500190565b600082614d0857634e487b7160e01b81526012600452602481fd5b500490565b600181815b80851115614d48578160001904821115614d2e57614d2e614e97565b80851615614d3b57918102915b93841c9390800290614d12565b509250929050565b60006118098383600082614d6657506001611157565b81614d7357506000611157565b8160018114614d895760028114614d9357614daf565b6001915050611157565b60ff841115614da457614da4614e97565b50506001821b611157565b5060208310610133831016604e8410600b8410161715614dd2575081810a611157565b614ddc8383614d0d565b8060001904821115614df057614df0614e97565b029392505050565b6000816000190483118215151615614e1257614e12614e97565b500290565b600082821015614e2957614e29614e97565b500390565b60005b83811015614e49578181015183820152602001614e31565b838111156110255750506000910152565b600061ffff80831681811415614e7257614e72614e97565b6001019392505050565b6000600019821415614e9057614e90614e97565b5060010190565b634e487b7160e01b600052601160045260246000fd5b6001600160a01b0381168114614ec257600080fd5b50565b8015158114614ec257600080fdfe44c58d81365b66dd4b1a7f36c25aa97b8c71c361ee4937adc1a00000227db5dd00058a56ea94653cdf4f152d227ace22d4c00ad99e2a43f58cb7d9e3feb295f2a26469706673582212204e3e7cc083907c987e70aefdfb950dc65122053d78adc750cfa1d32784b9234b64736f6c63430008040033",
  "linkReferences": {
    "contracts/libraries/logic/ReputationLogic.sol": {
      "ReputationLogic": [
        {
          "length": 20,
          "start": 4118
        },
        {
          "length": 20,
          "start": 4678
        }
      ]
    },
    "contracts/libraries/logic/ReserveLogic.sol": {
      "ReserveLogic": [
        {
          "length": 20,
          "start": 8729
        }
      ]
    },
    "contracts/libraries/logic/ValidationLogic.sol": {
      "ValidationLogic": [
        {
          "length": 20,
          "start": 5197
        },
        {
          "length": 20,
          "start": 5735
        },
        {
          "length": 20,
          "start": 6596
        },
        {
          "length": 20,
          "start": 7884
        },
        {
          "length": 20,
          "start": 9942
        }
      ]
    }
  },
  "deployedLinkReferences": {
    "contracts/libraries/logic/ReputationLogic.sol": {
      "ReputationLogic": [
        {
          "length": 20,
          "start": 3959
        },
        {
          "length": 20,
          "start": 4519
        }
      ]
    },
    "contracts/libraries/logic/ReserveLogic.sol": {
      "ReserveLogic": [
        {
          "length": 20,
          "start": 8570
        }
      ]
    },
    "contracts/libraries/logic/ValidationLogic.sol": {
      "ValidationLogic": [
        {
          "length": 20,
          "start": 5038
        },
        {
          "length": 20,
          "start": 5576
        },
        {
          "length": 20,
          "start": 6437
        },
        {
          "length": 20,
          "start": 7725
        },
        {
          "length": 20,
          "start": 9783
        }
      ]
    }
  }
}