{
  "_format": "hh-sol-artifact-1",
  "contractName": "LendingPool",
  "sourceName": "contracts/lendingpool/LendingPool.sol",
  "abi": [
    {
      "inputs": [
        {
          "internalType": "contract IAddressesProvider",
          "name": "provider",
          "type": "address"
        }
      ],
      "stateMutability": "nonpayable",
      "type": "constructor"
    },
    {
      "anonymous": false,
      "inputs": [
        {
          "indexed": true,
          "internalType": "address",
          "name": "reserve",
          "type": "address"
        },
        {
          "indexed": false,
          "internalType": "address",
          "name": "user",
          "type": "address"
        },
        {
          "indexed": true,
          "internalType": "address",
          "name": "onBehalfOf",
          "type": "address"
        },
        {
          "indexed": false,
          "internalType": "uint256",
          "name": "amount",
          "type": "uint256"
        },
        {
          "indexed": false,
          "internalType": "uint256",
          "name": "borrowRate",
          "type": "uint256"
        }
      ],
      "name": "Borrow",
      "type": "event"
    },
    {
      "anonymous": false,
      "inputs": [
        {
          "indexed": true,
          "internalType": "address",
          "name": "reserve",
          "type": "address"
        },
        {
          "indexed": false,
          "internalType": "address",
          "name": "user",
          "type": "address"
        },
        {
          "indexed": true,
          "internalType": "address",
          "name": "onBehalfOf",
          "type": "address"
        },
        {
          "indexed": false,
          "internalType": "uint256",
          "name": "amount",
          "type": "uint256"
        }
      ],
      "name": "Deposit",
      "type": "event"
    },
    {
      "anonymous": false,
      "inputs": [
        {
          "indexed": true,
          "internalType": "address",
          "name": "collateralAsset",
          "type": "address"
        },
        {
          "indexed": true,
          "internalType": "address",
          "name": "debtAsset",
          "type": "address"
        },
        {
          "indexed": true,
          "internalType": "address",
          "name": "user",
          "type": "address"
        },
        {
          "indexed": false,
          "internalType": "uint256",
          "name": "debtToCover",
          "type": "uint256"
        },
        {
          "indexed": false,
          "internalType": "uint256",
          "name": "liquidatedCollateralAmount",
          "type": "uint256"
        },
        {
          "indexed": false,
          "internalType": "address",
          "name": "liquidator",
          "type": "address"
        },
        {
          "indexed": false,
          "internalType": "bool",
          "name": "receiveAToken",
          "type": "bool"
        }
      ],
      "name": "LiquidationCall",
      "type": "event"
    },
    {
      "anonymous": false,
      "inputs": [
        {
          "indexed": true,
          "internalType": "address",
          "name": "reserve",
          "type": "address"
        },
        {
          "indexed": true,
          "internalType": "address",
          "name": "user",
          "type": "address"
        },
        {
          "indexed": true,
          "internalType": "address",
          "name": "repayer",
          "type": "address"
        },
        {
          "indexed": false,
          "internalType": "uint256",
          "name": "amount",
          "type": "uint256"
        }
      ],
      "name": "Repay",
      "type": "event"
    },
    {
      "anonymous": false,
      "inputs": [
        {
          "indexed": true,
          "internalType": "address",
          "name": "reserve",
          "type": "address"
        },
        {
          "indexed": false,
          "internalType": "uint256",
          "name": "liquidityRate",
          "type": "uint256"
        },
        {
          "indexed": false,
          "internalType": "uint256",
          "name": "variableBorrowRate",
          "type": "uint256"
        },
        {
          "indexed": false,
          "internalType": "uint256",
          "name": "liquidityIndex",
          "type": "uint256"
        },
        {
          "indexed": false,
          "internalType": "uint256",
          "name": "variableBorrowIndex",
          "type": "uint256"
        }
      ],
      "name": "ReserveDataUpdated",
      "type": "event"
    },
    {
      "anonymous": false,
      "inputs": [
        {
          "indexed": true,
          "internalType": "address",
          "name": "reserve",
          "type": "address"
        },
        {
          "indexed": true,
          "internalType": "address",
          "name": "user",
          "type": "address"
        }
      ],
      "name": "ReserveUsedAsCollateralDisabled",
      "type": "event"
    },
    {
      "anonymous": false,
      "inputs": [
        {
          "indexed": true,
          "internalType": "address",
          "name": "reserve",
          "type": "address"
        },
        {
          "indexed": true,
          "internalType": "address",
          "name": "user",
          "type": "address"
        }
      ],
      "name": "ReserveUsedAsCollateralEnabled",
      "type": "event"
    },
    {
      "anonymous": false,
      "inputs": [
        {
          "indexed": true,
          "internalType": "address",
          "name": "reserve",
          "type": "address"
        },
        {
          "indexed": true,
          "internalType": "address",
          "name": "user",
          "type": "address"
        },
        {
          "indexed": true,
          "internalType": "address",
          "name": "to",
          "type": "address"
        },
        {
          "indexed": false,
          "internalType": "uint256",
          "name": "amount",
          "type": "uint256"
        }
      ],
      "name": "Withdraw",
      "type": "event"
    },
    {
      "inputs": [],
      "name": "MAX_NUMBER_RESERVES",
      "outputs": [
        {
          "internalType": "uint256",
          "name": "",
          "type": "uint256"
        }
      ],
      "stateMutability": "view",
      "type": "function"
    },
    {
      "inputs": [
        {
          "internalType": "address",
          "name": "asset",
          "type": "address"
        },
        {
          "internalType": "uint256",
          "name": "amount",
          "type": "uint256"
        },
        {
          "internalType": "address",
          "name": "onBehalfOf",
          "type": "address"
        }
      ],
      "name": "borrow",
      "outputs": [],
      "stateMutability": "nonpayable",
      "type": "function"
    },
    {
      "inputs": [
        {
          "internalType": "address",
          "name": "asset",
          "type": "address"
        },
        {
          "internalType": "uint256",
          "name": "amount",
          "type": "uint256"
        },
        {
          "internalType": "address",
          "name": "onBehalfOf",
          "type": "address"
        }
      ],
      "name": "deposit",
      "outputs": [],
      "stateMutability": "nonpayable",
      "type": "function"
    },
    {
      "inputs": [
        {
          "internalType": "address",
          "name": "asset",
          "type": "address"
        },
        {
          "internalType": "address",
          "name": "from",
          "type": "address"
        },
        {
          "internalType": "address",
          "name": "to",
          "type": "address"
        },
        {
          "internalType": "uint256",
          "name": "amount",
          "type": "uint256"
        },
        {
          "internalType": "uint256",
          "name": "balanceFromBefore",
          "type": "uint256"
        },
        {
          "internalType": "uint256",
          "name": "balanceToBefore",
          "type": "uint256"
        }
      ],
      "name": "finalizeTransfer",
      "outputs": [],
      "stateMutability": "nonpayable",
      "type": "function"
    },
    {
      "inputs": [],
      "name": "getAddressesProvider",
      "outputs": [
        {
          "internalType": "contract IAddressesProvider",
          "name": "",
          "type": "address"
        }
      ],
      "stateMutability": "view",
      "type": "function"
    },
    {
      "inputs": [
        {
          "internalType": "address",
          "name": "asset",
          "type": "address"
        }
      ],
      "name": "getConfiguration",
      "outputs": [
        {
          "components": [
            {
              "internalType": "uint256",
              "name": "data",
              "type": "uint256"
            }
          ],
          "internalType": "struct DataTypes.ReserveConfigurationMap",
          "name": "",
          "type": "tuple"
        }
      ],
      "stateMutability": "view",
      "type": "function"
    },
    {
      "inputs": [
        {
          "internalType": "address",
          "name": "asset",
          "type": "address"
        }
      ],
      "name": "getReserveData",
      "outputs": [
        {
          "components": [
            {
              "components": [
                {
                  "internalType": "uint256",
                  "name": "data",
                  "type": "uint256"
                }
              ],
              "internalType": "struct DataTypes.ReserveConfigurationMap",
              "name": "configuration",
              "type": "tuple"
            },
            {
              "internalType": "uint128",
              "name": "liquidityIndex",
              "type": "uint128"
            },
            {
              "internalType": "uint128",
              "name": "variableBorrowIndex",
              "type": "uint128"
            },
            {
              "internalType": "uint128",
              "name": "currentLiquidityRate",
              "type": "uint128"
            },
            {
              "internalType": "uint128",
              "name": "currentVariableBorrowRate",
              "type": "uint128"
            },
            {
              "internalType": "uint40",
              "name": "lastUpdateTimestamp",
              "type": "uint40"
            },
            {
              "internalType": "address",
              "name": "aTokenAddress",
              "type": "address"
            },
            {
              "internalType": "address",
              "name": "variableDebtTokenAddress",
              "type": "address"
            },
            {
              "internalType": "address",
              "name": "interestRateStrategyAddress",
              "type": "address"
            },
            {
              "internalType": "uint8",
              "name": "id",
              "type": "uint8"
            }
          ],
          "internalType": "struct DataTypes.ReserveData",
          "name": "",
          "type": "tuple"
        }
      ],
      "stateMutability": "view",
      "type": "function"
    },
    {
      "inputs": [
        {
          "internalType": "address",
          "name": "asset",
          "type": "address"
        }
      ],
      "name": "getReserveNormalizedIncome",
      "outputs": [
        {
          "internalType": "uint256",
          "name": "",
          "type": "uint256"
        }
      ],
      "stateMutability": "view",
      "type": "function"
    },
    {
      "inputs": [
        {
          "internalType": "address",
          "name": "asset",
          "type": "address"
        }
      ],
      "name": "getReserveNormalizedVariableDebt",
      "outputs": [
        {
          "internalType": "uint256",
          "name": "",
          "type": "uint256"
        }
      ],
      "stateMutability": "view",
      "type": "function"
    },
    {
      "inputs": [],
      "name": "getReservesList",
      "outputs": [
        {
          "internalType": "address[]",
          "name": "",
          "type": "address[]"
        }
      ],
      "stateMutability": "view",
      "type": "function"
    },
    {
      "inputs": [
        {
          "internalType": "address",
          "name": "user",
          "type": "address"
        }
      ],
      "name": "getUserAccountData",
      "outputs": [
        {
          "internalType": "uint256",
          "name": "totalCollateralETH",
          "type": "uint256"
        },
        {
          "internalType": "uint256",
          "name": "totalDebtETH",
          "type": "uint256"
        },
        {
          "internalType": "uint256",
          "name": "availableBorrowsETH",
          "type": "uint256"
        },
        {
          "internalType": "uint256",
          "name": "currentLiquidationThreshold",
          "type": "uint256"
        },
        {
          "internalType": "uint256",
          "name": "ltv",
          "type": "uint256"
        },
        {
          "internalType": "uint256",
          "name": "healthFactor",
          "type": "uint256"
        }
      ],
      "stateMutability": "view",
      "type": "function"
    },
    {
      "inputs": [
        {
          "internalType": "address",
          "name": "user",
          "type": "address"
        }
      ],
      "name": "getUserClass",
      "outputs": [
        {
          "internalType": "enum DataTypes.UserClass",
          "name": "userClass",
          "type": "uint8"
        },
        {
          "internalType": "uint256",
          "name": "score",
          "type": "uint256"
        }
      ],
      "stateMutability": "view",
      "type": "function"
    },
    {
      "inputs": [
        {
          "internalType": "address",
          "name": "user",
          "type": "address"
        }
      ],
      "name": "getUserConfiguration",
      "outputs": [
        {
          "components": [
            {
              "internalType": "uint256",
              "name": "data",
              "type": "uint256"
            }
          ],
          "internalType": "struct DataTypes.UserConfigurationMap",
          "name": "",
          "type": "tuple"
        }
      ],
      "stateMutability": "view",
      "type": "function"
    },
    {
      "inputs": [
        {
          "internalType": "address",
          "name": "user",
          "type": "address"
        }
      ],
      "name": "getUserIsBorrowingAny",
      "outputs": [
        {
          "internalType": "bool",
          "name": "isBorrowingAny",
          "type": "bool"
        }
      ],
      "stateMutability": "view",
      "type": "function"
    },
    {
      "inputs": [
        {
          "internalType": "address",
          "name": "user",
          "type": "address"
        },
        {
          "internalType": "address",
          "name": "asset",
          "type": "address"
        }
      ],
      "name": "getUserReserveStatus",
      "outputs": [
        {
          "internalType": "bool",
          "name": "isBorrowing",
          "type": "bool"
        },
        {
          "internalType": "bool",
          "name": "isUsingAsCollateral",
          "type": "bool"
        }
      ],
      "stateMutability": "view",
      "type": "function"
    },
    {
      "inputs": [
        {
          "internalType": "address",
          "name": "asset",
          "type": "address"
        },
        {
          "internalType": "address",
          "name": "aTokenAddress",
          "type": "address"
        },
        {
          "internalType": "address",
          "name": "variableDebtAddress",
          "type": "address"
        },
        {
          "internalType": "address",
          "name": "interestRateStrategyAddress",
          "type": "address"
        },
        {
          "internalType": "uint256",
          "name": "ltv",
          "type": "uint256"
        },
        {
          "internalType": "uint256",
          "name": "liquidationThreshold",
          "type": "uint256"
        },
        {
          "internalType": "uint256",
          "name": "liquidationBonus",
          "type": "uint256"
        },
        {
          "internalType": "uint8",
          "name": "decimals",
          "type": "uint8"
        }
      ],
      "name": "initReserve",
      "outputs": [],
      "stateMutability": "nonpayable",
      "type": "function"
    },
    {
      "inputs": [
        {
          "internalType": "address",
          "name": "collateralAsset",
          "type": "address"
        },
        {
          "internalType": "address",
          "name": "debtAsset",
          "type": "address"
        },
        {
          "internalType": "address",
          "name": "user",
          "type": "address"
        },
        {
          "internalType": "uint256",
          "name": "debtToCover",
          "type": "uint256"
        },
        {
          "internalType": "bool",
          "name": "receiveAToken",
          "type": "bool"
        }
      ],
      "name": "liquidationCall",
      "outputs": [],
      "stateMutability": "nonpayable",
      "type": "function"
    },
    {
      "inputs": [
        {
          "internalType": "address",
          "name": "asset",
          "type": "address"
        },
        {
          "internalType": "uint256",
          "name": "amount",
          "type": "uint256"
        },
        {
          "internalType": "address",
          "name": "onBehalfOf",
          "type": "address"
        }
      ],
      "name": "repay",
      "outputs": [
        {
          "internalType": "uint256",
          "name": "",
          "type": "uint256"
        }
      ],
      "stateMutability": "nonpayable",
      "type": "function"
    },
    {
      "inputs": [
        {
          "internalType": "uint256",
          "name": "class",
          "type": "uint256"
        },
        {
          "internalType": "uint256",
          "name": "idealTimeSpan",
          "type": "uint256"
        },
        {
          "internalType": "uint256",
          "name": "scoreRange",
          "type": "uint256"
        },
        {
          "internalType": "uint256",
          "name": "dropFactor",
          "type": "uint256"
        }
      ],
      "name": "setClassData",
      "outputs": [],
      "stateMutability": "nonpayable",
      "type": "function"
    },
    {
      "inputs": [
        {
          "internalType": "address",
          "name": "asset",
          "type": "address"
        },
        {
          "internalType": "uint256",
          "name": "configuration",
          "type": "uint256"
        }
      ],
      "name": "setConfiguration",
      "outputs": [],
      "stateMutability": "nonpayable",
      "type": "function"
    },
    {
      "inputs": [
        {
          "internalType": "address",
          "name": "asset",
          "type": "address"
        },
        {
          "internalType": "address",
          "name": "rateStrategyAddress",
          "type": "address"
        }
      ],
      "name": "setReserveInterestRateStrategyAddress",
      "outputs": [],
      "stateMutability": "nonpayable",
      "type": "function"
    },
    {
      "inputs": [
        {
          "internalType": "address",
          "name": "asset",
          "type": "address"
        },
        {
          "internalType": "bool",
          "name": "useAsCollateral",
          "type": "bool"
        }
      ],
      "name": "setUserUseReserveAsCollateral",
      "outputs": [],
      "stateMutability": "nonpayable",
      "type": "function"
    },
    {
      "inputs": [
        {
          "internalType": "address",
          "name": "asset",
          "type": "address"
        },
        {
          "internalType": "uint256",
          "name": "amount",
          "type": "uint256"
        },
        {
          "internalType": "address",
          "name": "to",
          "type": "address"
        }
      ],
      "name": "withdraw",
      "outputs": [
        {
          "internalType": "uint256",
          "name": "",
          "type": "uint256"
        }
      ],
      "stateMutability": "nonpayable",
      "type": "function"
    },
    {
      "inputs": [
        {
          "internalType": "address",
          "name": "asset",
          "type": "address"
        },
        {
          "internalType": "uint256",
          "name": "amount",
          "type": "uint256"
        },
        {
          "internalType": "address",
          "name": "to",
          "type": "address"
        },
        {
          "internalType": "address",
          "name": "user",
          "type": "address"
        }
      ],
      "name": "withdrawETH",
      "outputs": [],
      "stateMutability": "nonpayable",
      "type": "function"
    }
  ],
  "bytecode": "0x60806040523480156200001157600080fd5b5060405162004d2538038062004d2583398101604081905262000034916200005f565b600080546001600160a01b0319166001600160a01b039290921691909117905560806005556200008f565b60006020828403121562000071578081fd5b81516001600160a01b038116811462000088578182fd5b9392505050565b614c86806200009f6000396000f3fe608060405234801561001057600080fd5b50600436106101575760003560e01c80639835159c116100c3578063d15e00531161007c578063d15e0053146104fe578063d1946dbc14610511578063d5ed393314610526578063f45346dc14610539578063f8119d511461054c578063fe65acfe1461055457600080fd5b80639835159c14610409578063a3aefba21461041c578063b4eeb8241461043f578063b8d2927614610452578063bf92857c1461047c578063c44b11f7146104bc57600080fd5b8063386497fd11610115578063386497fd1461034b5780634417a5831461036c5780635a3b74b9146103bd5780635ceae9c4146103d057806369328dec146103e35780636c665a55146103f657600080fd5b8062a718a91461015c5780631d2118f9146101715780631f735227146101b05780632abfd515146101da57806335ea6a75146101ed578063384c88c514610321575b600080fd5b61016f61016a36600461454d565b61056f565b005b61016f61017f366004614483565b6001600160a01b03918216600090815260016020526040902060050180546001600160a01b03191691909216179055565b6101c36101be36600461444b565b610efb565b6040516101d19291906148c5565b60405180910390f35b61016f6101e83660046146b1565b610fa9565b6103146101fb36600461444b565b604080516101608101825260006101408201818152825260208201819052918101829052606081018290526080810182905260a0810182905260c0810182905260e081018290526101008101829052610120810191909152506001600160a01b03908116600090815260016020818152604092839020835161016081018552815461014082019081528152928101546001600160801b0380821693850193909352600160801b908190048316948401949094526002810154808316606085015293909304166080820152600382015464ffffffffff811660a0830152600160281b9004831660c08201526004820154831660e0820152600590910154918216610100820152600160a01b90910460ff1661012082015290565b6040516101d19190614924565b61033461032f366004614483565b610fe7565b6040805192151583529015156020830152016101d1565b61035e61035936600461444b565b6110f2565b6040519081526020016101d1565b6103ae61037a36600461444b565b60408051602080820183526000918290526001600160a01b0393909316815260028352819020815192830190915254815290565b604051905181526020016101d1565b61016f6103cb366004614618565b611119565b61035e6103de366004614670565b61130b565b61035e6103f1366004614670565b61167a565b61016f610404366004614670565b611ae5565b61016f6104173660046144bb565b611f29565b61042f61042a36600461444b565b612070565b60405190151581526020016101d1565b61016f61044d36600461478a565b6120c0565b61016f610460366004614645565b6001600160a01b03909116600090815260016020526040902055565b61048f61048a36600461444b565b612155565b604080519687526020870195909552938501929092526060840152608083015260a082015260c0016101d1565b6103ae6104ca36600461444b565b60408051602080820183526000918290526001600160a01b0393909316815260018352819020815192830190915254815290565b61035e61050c36600461444b565b612212565b610519612233565b6040516101d19190614878565b61016f6105343660046145b4565b612306565b61016f610547366004614670565b61252a565b60055461035e565b6000546040516001600160a01b0390911681526020016101d1565b6001600160a01b0380861660009081526001602052604080822087841683529120600382015491929091600160281b900416158015906105c257506003810154600160281b90046001600160a01b031615155b60405180604001604052806002815260200161373960f01b815250906106045760405162461bcd60e51b81526004016105fb91906148f1565b60405180910390fd5b50600060026000876001600160a01b03166001600160a01b03168152602001908152602001600020905061069d6040518061018001604052806000815260200160008152602001600081526020016000815260200160008152602001600081526020016000815260200160008152602001600081526020016000815260200160006001600160a01b031681526020016000151581525090565b604080516020808201835284548252600480546000548551631f94a27560e31b81529551610737968e966001969095600395946001600160a01b03169363fca513a893808301939290829003018186803b1580156106fa57600080fd5b505afa15801561070e573d6000803e3d6000fd5b505050506040513d601f19601f820116820180604052508101906107329190614467565b612768565b610100860152505050506004838101546040516370a0823160e01b81526001600160a01b038a8116938201939093529116906370a082319060240160206040518083038186803b15801561078a57600080fd5b505afa15801561079e573d6000803e3d6000fd5b505050506040513d601f19601f820116820180604052508101906107c2919061474f565b602082018190526101008201516107dc9186918591612c3a565b6001600160a01b03871660009081526006602052604090206107ff906007612d23565b6003840154600160281b90046001600160a01b0390811661014083018190526040516370a0823160e01b81529189166004830152906370a082319060240160206040518083038186803b15801561085557600080fd5b505afa158015610869573d6000803e3d6000fd5b505050506040513d601f19601f8201168201806040525081019061088d919061474f565b815260208101516108a090611388612d4c565b6040820181905286116108b357856108b9565b80604001515b6060820181905281516108d491869186918d918d9190612df3565b60e0830181905260c0830191909152606082015111156108f95760e081015160608201525b846109c6576101408101516040516370a0823160e01b81526001600160a01b0391821660048201526000918b16906370a082319060240160206040518083038186803b15801561094857600080fd5b505afa15801561095c573d6000803e3d6000fd5b505050506040513d601f19601f82011682018060405250810190610980919061474f565b90508160c0015181101560405180604001604052806002815260200161343560f01b815250906109c35760405162461bcd60e51b81526004016105fb91906148f1565b50505b6109cf836130d7565b60048381015460608301516001860154604051637a94c56560e11b81526001600160a01b039093169363f5298aca93610a1e938d939092600160801b9091046001600160801b03169101614808565b600060405180830381600087803b158015610a3857600080fd5b505af1158015610a4c573d6000803e3d6000fd5b5050505060038301546060820151610a7a9185918b91600160281b90046001600160a01b0316906000613197565b8415610bdc576101408101516040516370a0823160e01b81523360048201526001600160a01b03909116906370a082319060240160206040518083038186803b158015610ac657600080fd5b505afa158015610ada573d6000803e3d6000fd5b505050506040513d601f19601f82011682018060405250810190610afe919061474f565b61012082015261014081015160c082015160405163f866c31960e01b81526001600160a01b038a81166004830152336024830152604482019290925291169063f866c31990606401600060405180830381600087803b158015610b6057600080fd5b505af1158015610b74573d6000803e3d6000fd5b5050505080610120015160001415610bd7573360009081526002602052604090206005850154610bb1908290600160a01b900460ff166001613421565b60405133906001600160a01b038c1690600080516020614c3183398151915290600090a3505b610c7e565b610be5846130d7565b61014081015160c0820151610c019186918c9190600090613197565b61014081015160c08201516001860154604051636b81068560e11b81526001600160a01b039093169263d7020d0a92610c4b928c923392916001600160801b0316906004016147d7565b600060405180830381600087803b158015610c6557600080fd5b505af1158015610c79573d6000803e3d6000fd5b505050505b805160c08201511415610cd6576005840154610ca7908390600160a01b900460ff166000613421565b866001600160a01b0316896001600160a01b0316600080516020614c1183398151915260405160405180910390a35b60008054906101000a90046001600160a01b03166001600160a01b031663ad5c46486040518163ffffffff1660e01b815260040160206040518083038186803b158015610d2257600080fd5b505afa158015610d36573d6000803e3d6000fd5b505050506040513d601f19601f82011682018060405250810190610d5a9190614467565b6001600160a01b0316886001600160a01b03161415610e1457600383015460608201516040516323b872dd60e01b8152336004820152600160281b9092046001600160a01b03908116602484015260448301919091528916906323b872dd90606401602060405180830381600087803b158015610dd657600080fd5b505af1158015610dea573d6000803e3d6000fd5b505050506040513d601f19601f82011682018060405250810190610e0e9190614703565b50610e40565b60038301546060820151610e40916001600160a01b038b8116923392600160281b9004909116906134ad565b6001600160a01b0387166000908152600660205260409020610e63906007613507565b610e6c87613554565b866001600160a01b0316886001600160a01b03168a6001600160a01b03167fe413a321e8681d831f4dbccbca790d2952b56f977908e45be37335533e00528684606001518560c00151338b604051610ee8949392919093845260208401929092526001600160a01b031660408301521515606082015260800190565b60405180910390a4505050505050505050565b6001600160a01b038116600090815260066020526040808220905163072108db60e11b8152600481019190915260076024820152819073__$290865961ff33dccdf21412a02a8599e57$__90630e4211b690604401604080518083038186803b158015610f6757600080fd5b505af4158015610f7b573d6000803e3d6000fd5b505050506040513d601f19601f82011682018060405250810190610f9f919061471f565b9094909350915050565b6001600160a01b0381166000908152600660205260409020610fcc906007612d23565b610fd784848461167a565b50610fe181613554565b50505050565b6001600160a01b038082166000908152600160208181526040808420815161016081018352815461014082019081528152938101546001600160801b0380821686860152600160801b91829004811686850152600280840154808316606089015292909204166080860152600382015464ffffffffff811660a0870152600160281b9004871660c08601526004820154871660e086015260059091015480871661010086015260ff600160a01b9091048116610120860190815296891686529083528185208251938401909252905482529351929384936110ca918391166135f5565b93506110e782610120015160ff168261365090919063ffffffff16565b925050509250929050565b6001600160a01b0381166000908152600160205260408120611113906136a6565b92915050565b6001600160a01b038083166000908152600160208181526040808420338552600283528185206004805496548451631f94a27560e31b81529451939873__$5201a97c05ba6aa659e2f36a933dd51801$__98635fa297e5988b988e988e989297966003969495949094169363fca513a8938282019392909190829003018186803b1580156111a657600080fd5b505afa1580156111ba573d6000803e3d6000fd5b505050506040513d601f19601f820116820180604052508101906111de9190614467565b6040516001600160e01b031960e08b901b16815260048101989098526001600160a01b03968716602489015294151560448801526064870193909352608486019190915260a485015260c48401521660e48201526101040160006040518083038186803b15801561124e57600080fd5b505af4158015611262573d6000803e3d6000fd5b5050336000908152600660205260409020611281925090506007612d23565b60058101543360009081526002602052604090206112a991600160a01b900460ff1684613421565b6112b233613554565b81156112e15760405133906001600160a01b03851690600080516020614c3183398151915290600090a3505050565b60405133906001600160a01b03851690600080516020614c1183398151915290600090a35b505050565b6001600160a01b0383811660009081526001602090815260408083206003015481518083019092526002825261373960f01b928201929092529192600160281b9091041661136c5760405162461bcd60e51b81526004016105fb91906148f1565b506001600160a01b0384811660009081526001602052604080822060048082015492516370a0823160e01b815287861691810191909152909391909116906370a082319060240160206040518083038186803b1580156113cb57600080fd5b505afa1580156113df573d6000803e3d6000fd5b505050506040513d601f19601f82011682018060405250810190611403919061474f565b604051632835d86f60e21b8152600481018790526001600160a01b03861660248201526044810182905290915073__$5201a97c05ba6aa659e2f36a933dd51801$__9063a0d761bc9060640160006040518083038186803b15801561146757600080fd5b505af415801561147b573d6000803e3d6000fd5b5050506001600160a01b03851660009081526006602052604090206114a291506007612d23565b80808610156114ae5750845b6114b7836130d7565b6004838101546001850154604051637a94c56560e11b81526001600160a01b039092169263f5298aca92611501928a928792600160801b9092046001600160801b03169101614808565b600060405180830381600087803b15801561151b57600080fd5b505af115801561152f573d6000803e3d6000fd5b505050506003830154600160281b90046001600160a01b0316611556848983856000613197565b6115608383613713565b6115985760058401546001600160a01b0387166000908152600260205260408120611598929091600160a01b90910460ff169061371f565b6115ad6001600160a01b0389163383856134ad565b6040516388dd91a160e01b8152336004820152602481018390526001600160a01b038216906388dd91a190604401600060405180830381600087803b1580156115f557600080fd5b505af1158015611609573d6000803e3d6000fd5b5050505061161686613554565b336001600160a01b0316866001600160a01b0316896001600160a01b03167f4cdde6e09bb755c9a5589ebaec640bbfedff1362d4b255ebf8339782b9942faa8560405161166591815260200190565b60405180910390a450925050505b9392505050565b6001600160a01b03838116600090815260016020526040808220600381015491516370a0823160e01b815233600482015292939092600160281b9092041690839082906370a082319060240160206040518083038186803b1580156116de57600080fd5b505afa1580156116f2573d6000803e3d6000fd5b505050506040513d601f19601f82011682018060405250810190611716919061474f565b9050856000198114156117265750805b73__$5201a97c05ba6aa659e2f36a933dd51801$__63d09db04a898385600160026000336001600160a01b03166001600160a01b03168152602001908152602001600020600360045460008054906101000a90046001600160a01b03166001600160a01b031663fca513a86040518163ffffffff1660e01b815260040160206040518083038186803b1580156117bb57600080fd5b505afa1580156117cf573d6000803e3d6000fd5b505050506040513d601f19601f820116820180604052508101906117f39190614467565b6040518963ffffffff1660e01b8152600401611816989796959493929190614832565b60006040518083038186803b15801561182e57600080fd5b505af4158015611842573d6000803e3d6000fd5b5050505060008054906101000a90046001600160a01b03166001600160a01b03166377532ed96040518163ffffffff1660e01b815260040160206040518083038186803b15801561189257600080fd5b505afa1580156118a6573d6000803e3d6000fd5b505050506040513d601f19601f820116820180604052508101906118ca9190614467565b6001600160a01b0316336001600160a01b0316146118fc573360009081526006602052604090206118fc906007612d23565b611905846130d7565b611913848985600085613197565b8181141561196b576005840154336000908152600260205260408120611946929091600160a01b90910460ff1690613421565b60405133906001600160a01b038a1690600080516020614c1183398151915290600090a35b6001840154604051636b81068560e11b81526001600160a01b0385169163d7020d0a916119ac9133918b9187916001600160801b03909116906004016147d7565b600060405180830381600087803b1580156119c657600080fd5b505af11580156119da573d6000803e3d6000fd5b5050505060008054906101000a90046001600160a01b03166001600160a01b03166377532ed96040518163ffffffff1660e01b815260040160206040518083038186803b158015611a2a57600080fd5b505afa158015611a3e573d6000803e3d6000fd5b505050506040513d601f19601f82011682018060405250810190611a629190614467565b6001600160a01b0316336001600160a01b031614611a8357611a8333613554565b856001600160a01b0316336001600160a01b0316896001600160a01b03167f3115d1449a7b732c986cba18244e897a450f61e1bb8d589cd2e69e6c8924f9f784604051611ad291815260200190565b60405180910390a4979650505050505050565b6001600160a01b038381166000908152600160209081526040918290206003015482518084019093526002835261373960f01b918301919091529091600160281b90910416611b475760405162461bcd60e51b81526004016105fb91906148f1565b506001600160a01b038084166000908152600160209081526040808320858516845260028352818420600382015485548451631f94a27560e31b8152945193979296600160281b90920483169533959294919093169263fca513a89260048082019391829003018186803b158015611bbe57600080fd5b505afa158015611bd2573d6000803e3d6000fd5b505050506040513d601f19601f82011682018060405250810190611bf69190614467565b8554909150600090611c9e9060301c60ff16611c1390600a614a8d565b60405163b3596f0760e01b81526001600160a01b038c81166004830152611c98918c9187169063b3596f079060240160206040518083038186803b158015611c5a57600080fd5b505afa158015611c6e573d6000803e3d6000fd5b505050506040513d601f19601f82011682018060405250810190611c92919061474f565b90613784565b90613790565b60048054604051631c7d75d760e31b815292935073__$5201a97c05ba6aa659e2f36a933dd51801$__9263e3ebaeb892611ce9928c928e9288926001928e92600392918d9101614832565b60006040518083038186803b158015611d0157600080fd5b505af4158015611d15573d6000803e3d6000fd5b5050506001600160a01b0388166000908152600660205260409020611d3c91506007612d23565b611d45866130d7565b60008660040160009054906101000a90046001600160a01b03166001600160a01b031663b3f1c93d858a8c8b60010160109054906101000a90046001600160801b03166040518563ffffffff1660e01b8152600401611da794939291906147d7565b602060405180830381600087803b158015611dc157600080fd5b505af1158015611dd5573d6000803e3d6000fd5b505050506040513d601f19601f82011682018060405250810190611df99190614703565b90508015611e1d576005870154611e1d908790600160a01b900460ff16600161371f565b611e2b878b8760008d613197565b604051634efecaa560e01b81526001600160a01b038581166004830152602482018b9052861690634efecaa590604401602060405180830381600087803b158015611e7557600080fd5b505af1158015611e89573d6000803e3d6000fd5b505050506040513d601f19601f82011682018060405250810190611ead919061474f565b50611eb788613554565b876001600160a01b03168a6001600160a01b03167f96558a334f4759f0e7c423d68c84721860bd8fbf94ddc4e55158ecb125ad04b5868c8b60020160109054906101000a90046001600160801b0316604051611f1593929190614808565b60405180910390a350505050505050505050565b60408051808201909152600281526106e760f31b6020820152883b611f615760405162461bcd60e51b81526004016105fb91906148f1565b50600054604080518082019091526002815261373560f01b6020820152906001600160a01b03163314611fa75760405162461bcd60e51b81526004016105fb91906148f1565b506001600160a01b0388811660009081526001602052604090819020905163f2a3bb1d60e01b815260048101919091528882166024820152878216604482015290861660648201526084810185905260a4810184905260c4810183905260ff821660e482015273__$d3b4366daeb9cadc7528af6145b50b2183$__9063f2a3bb1d906101040160006040518083038186803b15801561204557600080fd5b505af4158015612059573d6000803e3d6000fd5b505050506120668861379c565b5050505050505050565b6001600160a01b03811660009081526002602090815260408083208151928301909152548082527f5555555555555555555555555555555555555555555555555555555555555555161515611673565b6000546001600160a01b0316331461211a5760405162461bcd60e51b815260206004820152601c60248201527f43616c6c6572206e6f742041646472657373657350726f76696465720000000060448201526064016105fb565b604080516060810182529384526020808501938452848201928352600095865260079052909320915182555160018201559051600290910155565b6000806000806000806121ef876001600260008b6001600160a01b03166001600160a01b03168152602001908152602001600020604051806020016040529081600082015481525050600360045460008054906101000a90046001600160a01b03166001600160a01b031663fca513a86040518163ffffffff1660e01b815260040160206040518083038186803b1580156106fa57600080fd5b939950919750909450925090506122078686846138af565b935091939550919395565b6001600160a01b0381166000908152600160205260408120611113906138e3565b6060600060045467ffffffffffffffff81111561226057634e487b7160e01b600052604160045260246000fd5b604051908082528060200260200182016040528015612289578160200160208202803683370190505b50905060005b6004548110156123005760008181526003602052604090205482516001600160a01b03909116908390839081106122d657634e487b7160e01b600052603260045260246000fd5b6001600160a01b0390921660209283029190910190910152806122f881614bb9565b91505061228f565b50919050565b6001600160a01b038087166000908152600160209081526040918290206003015482518084019093526002835261363360f01b91830191909152909133600160281b909204161461236a5760405162461bcd60e51b81526004016105fb91906148f1565b5061242485600160026000896001600160a01b03166001600160a01b03168152602001908152602001600020600360045460008054906101000a90046001600160a01b03166001600160a01b031663fca513a86040518163ffffffff1660e01b815260040160206040518083038186803b1580156123e757600080fd5b505afa1580156123fb573d6000803e3d6000fd5b505050506040513d601f19601f8201168201806040525081019061241f9190614467565b613938565b6001600160a01b03868116600090815260016020526040902060050154600160a01b900460ff169085811690871614612521576124618385613713565b6124bb576001600160a01b03861660009081526002602052604081209061248b9082908490613421565b866001600160a01b0316886001600160a01b0316600080516020614c1183398151915260405160405180910390a3505b811580156124c857508315155b15612521576001600160a01b03851660009081526002602052604090206124f181836001613421565b856001600160a01b0316886001600160a01b0316600080516020614c3183398151915260405160405180910390a3505b50505050505050565b6001600160a01b03831660009081526001602052604090819020905163674d75df60e11b8152600481018490526024810182905273__$5201a97c05ba6aa659e2f36a933dd51801$__9063ce9aebbe9060440160006040518083038186803b15801561259557600080fd5b505af41580156125a9573d6000803e3d6000fd5b5050506001600160a01b03831660009081526006602052604090206125d091506007612d23565b6003810154600160281b90046001600160a01b03166125ee826130d7565b6125fc828683876000613197565b6126116001600160a01b0386163383876134ad565b6001820154604051630ab714fb60e11b81526000916001600160a01b0384169163156e29f6916126539188918a916001600160801b0390911690600401614808565b602060405180830381600087803b15801561266d57600080fd5b505af1158015612681573d6000803e3d6000fd5b505050506040513d601f19601f820116820180604052508101906126a59190614703565b9050801561270e5760058301546001600160a01b03851660009081526002602052604090206126df91600160a01b900460ff166001613421565b836001600160a01b0316866001600160a01b0316600080516020614c3183398151915260405160405180910390a35b61271784613554565b60408051338152602081018790526001600160a01b0380871692908916917f7cfff908a4b583f36430b25d75964c458d8ede8a99bd61be750e97ee1b2f3a96910160405180910390a3505050505050565b600080600080600061280d604051806102400160405280600081526020016000815260200160008152602001600081526020016000815260200160008152602001600081526020016000815260200160008152602001600081526020016000815260200160008152602001600081526020016000815260200160001515815260200160006001600160a01b031681526020016000151581526020016000151581525090565b895161282c576000806000806000199550955095509550955050612c2c565b600060e08201525b878160e001511015612b8b5760e0810151612850908b906139a4565b61285957612b73565b60e0810151600090815260208a81526040808320546001600160a01b03166101e085018190528352908d905290206128ad815461ffff80821692601083901c821692602081901c9092169160301c60ff1690565b6080860181905260c08601929092525060a08401919091526128d090600a614a8d565b60208301526101e082015160405163b3596f0760e01b81526001600160a01b0391821660048201529089169063b3596f079060240160206040518083038186803b15801561291d57600080fd5b505afa158015612931573d6000803e3d6000fd5b505050506040513d601f19601f82011682018060405250810190612955919061474f565b825260c082015115801590612975575060e0820151612975908c90613650565b15612a875760038101546040516370a0823160e01b81526001600160a01b038f81166004830152600160281b909204909116906370a082319060240160206040518083038186803b1580156129c957600080fd5b505afa1580156129dd573d6000803e3d6000fd5b505050506040513d601f19601f82011682018060405250810190612a01919061474f565b6040830181905260208301518351600092612a209291611c9891613784565b610120840151909150612a3390826139ff565b61012084015260a0830151612a5990612a4d908390613784565b610160850151906139ff565b61016084015260c0830151612a7f90612a73908390613784565b610180850151906139ff565b610180840152505b60e0820151612a97908c906135f5565b15612b71578060040160009054906101000a90046001600160a01b03166001600160a01b03166370a082318e6040518263ffffffff1660e01b8152600401612aee91906001600160a01b0391909116815260200190565b60206040518083038186803b158015612b0657600080fd5b505afa158015612b1a573d6000803e3d6000fd5b505050506040513d601f19601f82011682018060405250810190612b3e919061474f565b6060830181905260208301518351612b6a92612b5e9291611c9891613784565b610140840151906139ff565b6101408301525b505b60e08101805190612b8382614bb9565b905250612834565b600081610120015111612b9f576000612bb4565b610120810151610160820151612bb491613790565b610160820152610120810151612bcb576000612be0565b610120810151610180820151612be091613790565b6101808201819052610120820151610140830151612bfd92613a0b565b610100820181905261012082015161014083015161016084015161018090940151919850965091945090925090505b965096509650965096915050565b6040805180820190915260028152611a1960f11b6020820152670de0b6b3a76400008310612c7b5760405162461bcd60e51b81526004016105fb91906148f1565b506005840154604080516020810190915284548152600091612ca79190600160a01b900460ff16613650565b90508060405180604001604052806002815260200161343360f01b81525090612ce35760405162461bcd60e51b81526004016105fb91906148f1565b506040805180820190915260028152610d0d60f21b602082015282612d1b5760405162461bcd60e51b81526004016105fb91906148f1565b505050505050565b8154612d3657681043561a882930000082555b612d408282613a2f565b82555042600290910155565b6000821580612d59575081155b15612d6657506000611113565b81612d746002612710614a2a565b612d8090600019614b54565b612d8a9190614a2a565b83111560405180604001604052806002815260200161068760f31b81525090612dc65760405162461bcd60e51b81526004016105fb91906148f1565b50612710612dd5600282614a2a565b612ddf8486614b35565b612de99190614a12565b6116739190614a2a565b60008060008060008060009054906101000a90046001600160a01b03166001600160a01b031663fca513a86040518163ffffffff1660e01b815260040160206040518083038186803b158015612e4857600080fd5b505afa158015612e5c573d6000803e3d6000fd5b505050506040513d601f19601f82011682018060405250810190612e809190614467565b9050612ec26040518060e00160405280600081526020016000815260200160008152602001600081526020016000815260200160008152602001600081525090565b60405163b3596f0760e01b81526001600160a01b038b8116600483015283169063b3596f079060240160206040518083038186803b158015612f0357600080fd5b505afa158015612f17573d6000803e3d6000fd5b505050506040513d601f19601f82011682018060405250810190612f3b919061474f565b6040828101919091525163b3596f0760e01b81526001600160a01b038a8116600483015283169063b3596f079060240160206040518083038186803b158015612f8357600080fd5b505afa158015612f97573d6000803e3d6000fd5b505050506040513d601f19601f82011682018060405250810190612fbb919061474f565b6060820152612fe68c5461ffff80821692601083901c821692602081901c9092169160301c60ff1690565b60c0850152602084015250508a5460301c60ff1660a082018190526130509061301f9061301490600a614a8d565b604084015190613784565b611c98836020015161304a8560c00151600a61303b9190614a8d565b6060870151611c92908f613784565b90612d4c565b608082018190528710156130bb578693506130b481602001516130ae61308b8460c00151600a6130809190614a8d565b606086015190613784565b611c988560a00151600a61309f9190614a8d565b6040870151611c92908b613784565b90613be5565b92506130c6565b806080015193508792505b50919a909950975050505050505050565b60008160040160009054906101000a90046001600160a01b03166001600160a01b031663b1bf962d6040518163ffffffff1660e01b815260040160206040518083038186803b15801561312957600080fd5b505afa15801561313d573d6000803e3d6000fd5b505050506040513d601f19601f82011682018060405250810190613161919061474f565b600183015460038401549192506001600160801b03600160801b820481169291169064ffffffffff166125218585848685613ca7565b6131c26040518060800160405280600081526020016000815260200160008152602001600081525090565b60018601546004808801546040805163b1bf962d60e01b8152905161325f94600160801b90046001600160801b0316936001600160a01b039093169263b1bf962d92808201926020929091829003018186803b15801561322157600080fd5b505afa158015613235573d6000803e3d6000fd5b505050506040513d601f19601f82011682018060405250810190613259919061474f565b90613e04565b6060820181905260058701546040516272fa8b60e91b81526001600160a01b03888116600483015287811660248301526044820187905260648201869052608482019390935291169063e5f516009060a401604080518083038186803b1580156132c857600080fd5b505afa1580156132dc573d6000803e3d6000fd5b505050506040513d601f19601f820116820180604052508101906133009190614767565b604080840191909152602080840183905281518083019092526002825261353360f01b90820152906001600160801b03101561334f5760405162461bcd60e51b81526004016105fb91906148f1565b50604080820151815180830190925260028252610d4d60f21b60208301526001600160801b0310156133945760405162461bcd60e51b81526004016105fb91906148f1565b506020818101516040808401516001600160801b03808416600160801b82841681029190911760028d015560018c0154845195865295850192909252848116848401529304909216606082015290516001600160a01b038716917f4063a2df84b66bb796eb32622851d833e57b2c4292900c18f963af8808b13e35919081900360800190a2505050505050565b604080518082019091526002815261373760f01b60208201526080831061345b5760405162461bcd60e51b81526004016105fb91906148f1565b50613467826002614b35565b613472906001614a12565b8161347e576000613481565b60015b60ff16901b613491836002614b35565b61349c906001614a12565b8454600190911b1916179092555050565b604080516001600160a01b0385811660248301528416604482015260648082018490528251808303909101815260849091019091526020810180516001600160e01b03166323b872dd60e01b179052610fe1908590613ea1565b6000613517828460000154613f73565b6040810151845491925061352b9190613713565b504260028401558254681043561a88293000001115611306575050681043561a88293000009055565b6001600160a01b03808216600090815260026020908152604080832081518084018352905481526004805485548451631f94a27560e31b81529451969788976135c7978b9760019796600396959094169363fca513a8938282019392909190829003018186803b1580156106fa57600080fd5b5050506001600160a01b03851660009081526006602052604090209193509150611306908383611d4c6140aa565b60006080821060405180604001604052806002815260200161373760f01b815250906136345760405162461bcd60e51b81526004016105fb91906148f1565b50613640826002614b35565b925190921c600116151592915050565b60006080821060405180604001604052806002815260200161373760f01b8152509061368f5760405162461bcd60e51b81526004016105fb91906148f1565b5061369b826002614b35565b613640906001614a12565b600381015460009064ffffffffff9081169042168114156136da57505060010154600160801b90046001600160801b031690565b6001830154600284015460009161370b916001600160801b03600160801b92839004811692613259920416856140f9565b949350505050565b60006116738284614b54565b604080518082019091526002815261373760f01b6020820152608083106137595760405162461bcd60e51b81526004016105fb91906148f1565b50613765826002614b35565b81613771576000613774565b60015b60ff16901b61349c836002614b35565b60006116738284614b35565b60006116738284614a2a565b600454600554604080518082019091526002815261363560f01b60208201529082106137db5760405162461bcd60e51b81526004016105fb91906148f1565b506001600160a01b038216600090815260016020526040812060050154600160a01b900460ff1615158061384457506000805260036020527f3617319a054d772f909f7c479a2cebe5066e836a939412e32403c99029b92eff546001600160a01b038481169116145b905080611306576001600160a01b0383166000818152600160208181526040808420600501805460ff60a01b1916600160a01b60ff8a1602179055868452600390915290912080546001600160a01b0319169092179091556138a7908390614a12565b600455505050565b6000806138bc8584612d4c565b9050838110156138d0576000915050611673565b6138da8185613713565b95945050505050565b600381015460009064ffffffffff908116904216811415613910575050600101546001600160801b031690565b6001830154600284015460009161370b916001600160801b03918216916132599116856141f8565b60408051602081019091528454815260009061395a9088908890878787612768565b945050505050670de0b6b3a7640000811015604051806040016040528060018152602001601b60f91b815250906120665760405162461bcd60e51b81526004016105fb91906148f1565b60006080821060405180604001604052806002815260200161373760f01b815250906139e35760405162461bcd60e51b81526004016105fb91906148f1565b506139ef826002614b35565b925190921c600316151592915050565b60006116738284614a12565b600082613a1b5750600019611673565b61370b83613a298685612d4c565b90614237565b81546040805160608101825260008082526020820181905291810182905290919082906002860154613a645760009150613a76565b6002860154613a739042614b54565b91505b6000613a86639cbf904084614a2a565b9050613a928685613f73565b805160208201519193509082613ae45780613abd613ab38b600101546142f1565b61304a8886614237565b613ac79190614b35565b613ad3906103e8614b35565b613add9087614a12565b9550613bba565b6000613af4639cbf904085614b35565b613afe9087614b54565b905060005b848161ffff161015613b7a5782613b2e613b208d600101546142f1565b61304a639cbf904088614237565b613b389190614b35565b613b44906103e8614b35565b613b4e9089614a12565b9750613b5a8a89613f73565b805160208201519197509450925080613b7281614b97565b915050613b03565b5081613b96613b8c8c600101546142f1565b61304a8487614237565b613ba09190614b35565b613bac906103e8614b35565b613bb69088614a12565b9650505b6830ca024f987b900000861115613bd8576830ca024f987b90000095505b5093979650505050505050565b604080518082019091526002815261035360f41b602082015260009082613c1f5760405162461bcd60e51b81526004016105fb91906148f1565b506000613c2d600284614a2a565b9050612710613c3e82600019614b54565b613c489190614a2a565b84111560405180604001604052806002815260200161068760f31b81525090613c845760405162461bcd60e51b81526004016105fb91906148f1565b508281613c9361271087614b35565b613c9d9190614a12565b61370b9190614a2a565b600285015460009081906001600160801b031685858215613dde576000613cce84886141f8565b9050613cda818a613e04565b604080518082019091526002815261353160f01b60208201529093506001600160801b03841115613d1e5760405162461bcd60e51b81526004016105fb91906148f1565b5060018b0180546fffffffffffffffffffffffffffffffff19166001600160801b0385161790558915613ddc5760028b0154600090613d6d90600160801b90046001600160801b0316896140f9565b9050613d79818a613e04565b6040805180820190915260028152611a9960f11b60208201529093506001600160801b03841115613dbd5760405162461bcd60e51b81526004016105fb91906148f1565b505060018b0180546001600160801b03808516600160801b0291161790555b505b600399909901805464ffffffffff19164264ffffffffff16179055989650505050505050565b6000821580613e11575081155b15613e1e57506000611113565b81613e3660026b033b2e3c9fd0803ce8000000614a2a565b613e4290600019614b54565b613e4c9190614a2a565b83111560405180604001604052806002815260200161068760f31b81525090613e885760405162461bcd60e51b81526004016105fb91906148f1565b506b033b2e3c9fd0803ce8000000612dd5600282614a2a565b6000613ef6826040518060400160405280602081526020017f5361666545524332303a206c6f772d6c6576656c2063616c6c206661696c6564815250856001600160a01b03166143409092919063ffffffff16565b8051909150156113065780806020019051810190613f149190614703565b6113065760405162461bcd60e51b815260206004820152602a60248201527f5361666545524332303a204552433230206f7065726174696f6e20646964206e6044820152691bdd081cdd58d8d9595960b21b60648201526084016105fb565b613f9760405180606001604052806000815260200160008152602001600081525090565b682086ac3510526000008211613fe05750600080805260208381526040918290208251606081018452815481526001820154928101929092526002015491810191909152611113565b6825f273933db57000008211614027575060016000818152602084815260409182902082516060810184528154815293810154918401919091526002015490820152611113565b682b5e3af16b18800000821161406f57506002600081815260208481526040918290208251606081018452815481526001820154928101929092529092015490820152611113565b506003600090815260208381526040918290208251606081018452815481526001820154928101929092526002015491810191909152611113565b8115806140b5575082155b156140c65760006001850155610fe1565b655af3107a40006140e46140da8383614b35565b613a298587614237565b6140ee9190614a2a565b600185015550505050565b60008061410d4264ffffffffff8516613713565b905080614129576b033b2e3c9fd0803ce8000000915050611113565b6000614136600183614b54565b9050600060028311614149576000614154565b614154600284614b54565b905060006141666301e1338088614a2a565b905060006141748280613e04565b905060006141828284613e04565b90506000600261419684611c928a8a613784565b6141a09190614a2a565b9050600060066141b684611c9289818d8d613784565b6141c09190614a2a565b90506141e9816141e384816141d58a8e613784565b6b033b2e3c9fd0803ce80000005b906139ff565b9b9a5050505050505050505050565b60008061420c4264ffffffffff8516613713565b905061370b6b033b2e3c9fd0803ce80000006301e1338061422d8785613784565b6141e39190614a2a565b604080518082019091526002815261035360f41b6020820152600090826142715760405162461bcd60e51b81526004016105fb91906148f1565b50600061427f600284614a2a565b9050670de0b6b3a764000061429682600019614b54565b6142a09190614a2a565b84111560405180604001604052806002815260200161068760f31b815250906142dc5760405162461bcd60e51b81526004016105fb91906148f1565b508281613c93670de0b6b3a764000087614b35565b600061213482111561432757612af88211156143105750610fa0919050565b61431b826004614b35565b6111139061abe0614b54565b61213461433683612710614b35565b6111139190614a2a565b606061370b848460008585843b6143995760405162461bcd60e51b815260206004820152601d60248201527f416464726573733a2063616c6c20746f206e6f6e2d636f6e747261637400000060448201526064016105fb565b600080866001600160a01b031685876040516143b591906147bb565b60006040518083038185875af1925050503d80600081146143f2576040519150601f19603f3d011682016040523d82523d6000602084013e6143f7565b606091505b5091509150614407828286614412565b979650505050505050565b60608315614421575081611673565b8251156144315782518084602001fd5b8160405162461bcd60e51b81526004016105fb91906148f1565b60006020828403121561445c578081fd5b813561167381614bea565b600060208284031215614478578081fd5b815161167381614bea565b60008060408385031215614495578081fd5b82356144a081614bea565b915060208301356144b081614bea565b809150509250929050565b600080600080600080600080610100898b0312156144d7578384fd5b88356144e281614bea565b975060208901356144f281614bea565b9650604089013561450281614bea565b9550606089013561451281614bea565b94506080890135935060a0890135925060c0890135915060e089013560ff8116811461453c578182fd5b809150509295985092959890939650565b600080600080600060a08688031215614564578081fd5b853561456f81614bea565b9450602086013561457f81614bea565b9350604086013561458f81614bea565b92506060860135915060808601356145a681614c02565b809150509295509295909350565b60008060008060008060c087890312156145cc578182fd5b86356145d781614bea565b955060208701356145e781614bea565b945060408701356145f781614bea565b959894975094956060810135955060808101359460a0909101359350915050565b6000806040838503121561462a578182fd5b823561463581614bea565b915060208301356144b081614c02565b60008060408385031215614657578182fd5b823561466281614bea565b946020939093013593505050565b600080600060608486031215614684578283fd5b833561468f81614bea565b92506020840135915060408401356146a681614bea565b809150509250925092565b600080600080608085870312156146c6578384fd5b84356146d181614bea565b93506020850135925060408501356146e881614bea565b915060608501356146f881614bea565b939692955090935050565b600060208284031215614714578081fd5b815161167381614c02565b60008060408385031215614731578182fd5b82516004811061473f578283fd5b6020939093015192949293505050565b600060208284031215614760578081fd5b5051919050565b60008060408385031215614779578182fd5b505080516020909101519092909150565b6000806000806080858703121561479f578182fd5b5050823594602084013594506040840135936060013592509050565b600082516147cd818460208701614b6b565b9190910192915050565b6001600160a01b03948516815292909316602083015260408201526001600160801b03909116606082015260800190565b6001600160a01b0393909316835260208301919091526001600160801b0316604082015260600190565b6001600160a01b039889168152602081019790975260408701959095526060860193909352608085019190915260a084015260c083015290911660e08201526101000190565b6020808252825182820181905260009190848201906040850190845b818110156148b95783516001600160a01b031683529284019291840191600101614894565b50909695505050505050565b60408101600484106148e757634e487b7160e01b600052602160045260246000fd5b9281526020015290565b6020815260008251806020840152614910816040850160208701614b6b565b601f01601f19169190910160400192915050565b81515181526101408101602083015161494860208401826001600160801b03169052565b50604083015161496360408401826001600160801b03169052565b50606083015161497e60608401826001600160801b03169052565b50608083015161499960808401826001600160801b03169052565b5060a08301516149b260a084018264ffffffffff169052565b5060c08301516149cd60c08401826001600160a01b03169052565b5060e08301516149e860e08401826001600160a01b03169052565b50610100838101516001600160a01b0316908301526101209283015160ff16929091019190915290565b60008219821115614a2557614a25614bd4565b500190565b600082614a4557634e487b7160e01b81526012600452602481fd5b500490565b600181815b80851115614a85578160001904821115614a6b57614a6b614bd4565b80851615614a7857918102915b93841c9390800290614a4f565b509250929050565b60006116738383600082614aa357506001611113565b81614ab057506000611113565b8160018114614ac65760028114614ad057614aec565b6001915050611113565b60ff841115614ae157614ae1614bd4565b50506001821b611113565b5060208310610133831016604e8410600b8410161715614b0f575081810a611113565b614b198383614a4a565b8060001904821115614b2d57614b2d614bd4565b029392505050565b6000816000190483118215151615614b4f57614b4f614bd4565b500290565b600082821015614b6657614b66614bd4565b500390565b60005b83811015614b86578181015183820152602001614b6e565b83811115610fe15750506000910152565b600061ffff80831681811415614baf57614baf614bd4565b6001019392505050565b6000600019821415614bcd57614bcd614bd4565b5060010190565b634e487b7160e01b600052601160045260246000fd5b6001600160a01b0381168114614bff57600080fd5b50565b8015158114614bff57600080fdfe44c58d81365b66dd4b1a7f36c25aa97b8c71c361ee4937adc1a00000227db5dd00058a56ea94653cdf4f152d227ace22d4c00ad99e2a43f58cb7d9e3feb295f2a2646970667358221220770fd635258cdc6256d0b20889f0ff3457e942e02d9c62711d3228fe37b97a9a64736f6c63430008040033",
  "linkReferences": {
    "contracts/libraries/logic/ReputationLogic.sol": {
      "ReputationLogic": [
        {
          "length": 20,
          "start": 4050
        }
      ]
    },
    "contracts/libraries/logic/ReserveLogic.sol": {
      "ReserveLogic": [
        {
          "length": 20,
          "start": 8366
        }
      ]
    },
    "contracts/libraries/logic/ValidationLogic.sol": {
      "ValidationLogic": [
        {
          "length": 20,
          "start": 4598
        },
        {
          "length": 20,
          "start": 5329
        },
        {
          "length": 20,
          "start": 6087
        },
        {
          "length": 20,
          "start": 7507
        },
        {
          "length": 20,
          "start": 9727
        }
      ]
    }
  },
  "deployedLinkReferences": {
    "contracts/libraries/logic/ReputationLogic.sol": {
      "ReputationLogic": [
        {
          "length": 20,
          "start": 3891
        }
      ]
    },
    "contracts/libraries/logic/ReserveLogic.sol": {
      "ReserveLogic": [
        {
          "length": 20,
          "start": 8207
        }
      ]
    },
    "contracts/libraries/logic/ValidationLogic.sol": {
      "ValidationLogic": [
        {
          "length": 20,
          "start": 4439
        },
        {
          "length": 20,
          "start": 5170
        },
        {
          "length": 20,
          "start": 5928
        },
        {
          "length": 20,
          "start": 7348
        },
        {
          "length": 20,
          "start": 9568
        }
      ]
    }
  }
}