{
  "_format": "hh-sol-artifact-1",
  "contractName": "WETHGateway",
  "sourceName": "contracts/utils/WETHGateway.sol",
  "abi": [
    {
      "inputs": [
        {
          "internalType": "address",
          "name": "weth",
          "type": "address"
        },
        {
          "internalType": "address",
          "name": "_lendingPool",
          "type": "address"
        }
      ],
      "stateMutability": "nonpayable",
      "type": "constructor"
    },
    {
      "anonymous": false,
      "inputs": [
        {
          "indexed": true,
          "internalType": "address",
          "name": "previousOwner",
          "type": "address"
        },
        {
          "indexed": true,
          "internalType": "address",
          "name": "newOwner",
          "type": "address"
        }
      ],
      "name": "OwnershipTransferred",
      "type": "event"
    },
    {
      "stateMutability": "payable",
      "type": "fallback"
    },
    {
      "inputs": [
        {
          "internalType": "uint256",
          "name": "amount",
          "type": "uint256"
        }
      ],
      "name": "borrowETH",
      "outputs": [],
      "stateMutability": "nonpayable",
      "type": "function"
    },
    {
      "inputs": [],
      "name": "depositETH",
      "outputs": [],
      "stateMutability": "payable",
      "type": "function"
    },
    {
      "inputs": [
        {
          "internalType": "address",
          "name": "to",
          "type": "address"
        },
        {
          "internalType": "uint256",
          "name": "amount",
          "type": "uint256"
        }
      ],
      "name": "emergencyEtherTransfer",
      "outputs": [],
      "stateMutability": "nonpayable",
      "type": "function"
    },
    {
      "inputs": [
        {
          "internalType": "address",
          "name": "token",
          "type": "address"
        },
        {
          "internalType": "address",
          "name": "to",
          "type": "address"
        },
        {
          "internalType": "uint256",
          "name": "amount",
          "type": "uint256"
        }
      ],
      "name": "emergencyTokenTransfer",
      "outputs": [],
      "stateMutability": "nonpayable",
      "type": "function"
    },
    {
      "inputs": [],
      "name": "getWETHAddress",
      "outputs": [
        {
          "internalType": "address",
          "name": "",
          "type": "address"
        }
      ],
      "stateMutability": "view",
      "type": "function"
    },
    {
      "inputs": [],
      "name": "owner",
      "outputs": [
        {
          "internalType": "address",
          "name": "",
          "type": "address"
        }
      ],
      "stateMutability": "view",
      "type": "function"
    },
    {
      "inputs": [],
      "name": "renounceOwnership",
      "outputs": [],
      "stateMutability": "nonpayable",
      "type": "function"
    },
    {
      "inputs": [
        {
          "internalType": "uint256",
          "name": "amount",
          "type": "uint256"
        }
      ],
      "name": "repayETH",
      "outputs": [],
      "stateMutability": "payable",
      "type": "function"
    },
    {
      "inputs": [
        {
          "internalType": "address",
          "name": "newOwner",
          "type": "address"
        }
      ],
      "name": "transferOwnership",
      "outputs": [],
      "stateMutability": "nonpayable",
      "type": "function"
    },
    {
      "inputs": [
        {
          "internalType": "uint256",
          "name": "amount",
          "type": "uint256"
        }
      ],
      "name": "withdrawETH",
      "outputs": [],
      "stateMutability": "nonpayable",
      "type": "function"
    },
    {
      "stateMutability": "payable",
      "type": "receive"
    }
  ],
  "bytecode": "0x60c06040523480156200001157600080fd5b506040516200136b3803806200136b833981016040819052620000349162000156565b6200003f33620000e9565b6001600160601b0319606083811b821660805282901b1660a05260405163095ea7b360e01b81526001600160a01b038083166004830152600019602483015283169063095ea7b390604401602060405180830381600087803b158015620000a557600080fd5b505af1158015620000ba573d6000803e3d6000fd5b505050506040513d601f19601f82011682018060405250810190620000e091906200018d565b505050620001b6565b600080546001600160a01b038381166001600160a01b0319831681178455604051919092169283917f8be0079c531659141344cd1fd0a4f28419497f9722a3daafe3b4186f6b6457e09190a35050565b80516001600160a01b03811681146200015157600080fd5b919050565b6000806040838503121562000169578182fd5b620001748362000139565b9150620001846020840162000139565b90509250929050565b6000602082840312156200019f578081fd5b81518015158114620001af578182fd5b9392505050565b60805160601c60a05160601c61111a62000251600039600081816102c9015281816104b7015281816105d20152818161080c015281816109b80152610c0801526000818160a5015281816101fb0152818161029e01528181610431015281816104e7015281816105ff01528181610671015281816107e1015281816109e501528181610a7a01528181610b820152610c38015261111a6000f3fe6080604052600436106100955760003560e01c8063affa881711610059578063affa8817146101ec578063eed88b8d1461021f578063f14210a61461023f578063f2fde38b1461025f578063f6326fb31461027f5761010f565b80632247463e1461014e578063715018a6146101615780637b2af625146101765780638da5cb5b14610196578063a3d5b255146101cc5761010f565b3661010f57336001600160a01b037f0000000000000000000000000000000000000000000000000000000000000000161461010d5760405162461bcd60e51b8152602060048201526013602482015272149958d95a5d99481b9bdd08185b1b1bddd959606a1b60448201526064015b60405180910390fd5b005b60405162461bcd60e51b815260206004820152601460248201527311985b1b189858dac81b9bdd08185b1b1bddd95960621b6044820152606401610104565b61010d61015c366004610fb3565b610287565b34801561016d57600080fd5b5061010d610585565b34801561018257600080fd5b5061010d610191366004610fb3565b6105bb565b3480156101a257600080fd5b506000546001600160a01b03165b6040516001600160a01b03909116815260200160405180910390f35b3480156101d857600080fd5b5061010d6101e7366004610e60565b6106e4565b3480156101f857600080fd5b507f00000000000000000000000000000000000000000000000000000000000000006101b0565b34801561022b57600080fd5b5061010d61023a366004610ea0565b610796565b34801561024b57600080fd5b5061010d61025a366004610fb3565b6107ca565b34801561026b57600080fd5b5061010d61027a366004610e3d565b610ae8565b61010d610b80565b6040516335ea6a7560e01b81526001600160a01b037f0000000000000000000000000000000000000000000000000000000000000000811660048301526000917f0000000000000000000000000000000000000000000000000000000000000000909116906335ea6a75906024016101406040518083038186803b15801561030e57600080fd5b505afa158015610322573d6000803e3d6000fd5b505050506040513d601f19601f820116820180604052508101906103469190610eeb565b60e001516040516370a0823160e01b81523360048201526001600160a01b03909116906370a082319060240160206040518083038186803b15801561038a57600080fd5b505afa15801561039e573d6000803e3d6000fd5b505050506040513d601f19601f820116820180604052508101906103c29190610fcb565b9050808210156103cf5750805b8034101561042f5760405162461bcd60e51b815260206004820152602760248201527f6d73672e76616c7565206973206c657373207468616e2072657061796d656e7460448201526608185b5bdd5b9d60ca1b6064820152608401610104565b7f00000000000000000000000000000000000000000000000000000000000000006001600160a01b031663d0e30db0826040518263ffffffff1660e01b81526004016000604051808303818588803b15801561048a57600080fd5b505af115801561049e573d6000803e3d6000fd5b505060405163173aba7160e21b81526001600160a01b037f0000000000000000000000000000000000000000000000000000000000000000169350635ceae9c4925061051391507f0000000000000000000000000000000000000000000000000000000000000000903490339060040161101c565b602060405180830381600087803b15801561052d57600080fd5b505af1158015610541573d6000803e3d6000fd5b505050506040513d601f19601f820116820180604052508101906105659190610fcb565b5080341115610581576105813361057c83346110ac565b610c92565b5050565b6000546001600160a01b031633146105af5760405162461bcd60e51b81526004016101049061103f565b6105b96000610d4a565b565b604051636c665a5560e01b81526001600160a01b037f00000000000000000000000000000000000000000000000000000000000000001690636c665a559061062b907f0000000000000000000000000000000000000000000000000000000000000000908590339060040161101c565b600060405180830381600087803b15801561064557600080fd5b505af1158015610659573d6000803e3d6000fd5b5050604051632e1a7d4d60e01b8152600481018490527f00000000000000000000000000000000000000000000000000000000000000006001600160a01b03169250632e1a7d4d9150602401600060405180830381600087803b1580156106bf57600080fd5b505af11580156106d3573d6000803e3d6000fd5b505050506106e13382610c92565b50565b6000546001600160a01b0316331461070e5760405162461bcd60e51b81526004016101049061103f565b60405163a9059cbb60e01b81526001600160a01b0383811660048301526024820183905284169063a9059cbb90604401602060405180830381600087803b15801561075857600080fd5b505af115801561076c573d6000803e3d6000fd5b505050506040513d601f19601f820116820180604052508101906107909190610ecb565b50505050565b6000546001600160a01b031633146107c05760405162461bcd60e51b81526004016101049061103f565b6105818282610c92565b6040516335ea6a7560e01b81526001600160a01b037f0000000000000000000000000000000000000000000000000000000000000000811660048301526000917f0000000000000000000000000000000000000000000000000000000000000000909116906335ea6a75906024016101406040518083038186803b15801561085157600080fd5b505afa158015610865573d6000803e3d6000fd5b505050506040513d601f19601f820116820180604052508101906108899190610eeb565b60c001516040516370a0823160e01b81523360048201529091506000906001600160a01b038316906370a082319060240160206040518083038186803b1580156108d257600080fd5b505afa1580156108e6573d6000803e3d6000fd5b505050506040513d601f19601f8201168201806040525081019061090a9190610fcb565b90508260001981141561091a5750805b6040516323b872dd60e01b8152336004820152306024820152604481018290526001600160a01b038416906323b872dd90606401602060405180830381600087803b15801561096857600080fd5b505af115801561097c573d6000803e3d6000fd5b505050506040513d601f19601f820116820180604052508101906109a09190610ecb565b50604051631a4ca37b60e21b81526001600160a01b037f000000000000000000000000000000000000000000000000000000000000000016906369328dec90610a11907f0000000000000000000000000000000000000000000000000000000000000000908590309060040161101c565b602060405180830381600087803b158015610a2b57600080fd5b505af1158015610a3f573d6000803e3d6000fd5b505050506040513d601f19601f82011682018060405250810190610a639190610fcb565b50604051632e1a7d4d60e01b8152600481018290527f00000000000000000000000000000000000000000000000000000000000000006001600160a01b031690632e1a7d4d90602401600060405180830381600087803b158015610ac657600080fd5b505af1158015610ada573d6000803e3d6000fd5b505050506107903382610c92565b6000546001600160a01b03163314610b125760405162461bcd60e51b81526004016101049061103f565b6001600160a01b038116610b775760405162461bcd60e51b815260206004820152602660248201527f4f776e61626c653a206e6577206f776e657220697320746865207a65726f206160448201526564647265737360d01b6064820152608401610104565b6106e181610d4a565b7f00000000000000000000000000000000000000000000000000000000000000006001600160a01b031663d0e30db0346040518263ffffffff1660e01b81526004016000604051808303818588803b158015610bdb57600080fd5b505af1158015610bef573d6000803e3d6000fd5b5050604051633d14d1b760e21b81526001600160a01b037f000000000000000000000000000000000000000000000000000000000000000016935063f45346dc9250610c6491507f0000000000000000000000000000000000000000000000000000000000000000903490339060040161101c565b600060405180830381600087803b158015610c7e57600080fd5b505af1158015610790573d6000803e3d6000fd5b604080516000808252602082019092526001600160a01b038416908390604051610cbc9190610fe3565b60006040518083038185875af1925050503d8060008114610cf9576040519150601f19603f3d011682016040523d82523d6000602084013e610cfe565b606091505b5050905080610d455760405162461bcd60e51b815260206004820152601360248201527211551217d514905394d1915497d19052531151606a1b6044820152606401610104565b505050565b600080546001600160a01b038381166001600160a01b0319831681178455604051919092169283917f8be0079c531659141344cd1fd0a4f28419497f9722a3daafe3b4186f6b6457e09190a35050565b8051610da5816110cf565b919050565b600060208284031215610dbb578081fd5b6040516020810181811067ffffffffffffffff82111715610dea57634e487b7160e01b83526041600452602483fd5b6040529151825250919050565b80516fffffffffffffffffffffffffffffffff81168114610da557600080fd5b805164ffffffffff81168114610da557600080fd5b805160ff81168114610da557600080fd5b600060208284031215610e4e578081fd5b8135610e59816110cf565b9392505050565b600080600060608486031215610e74578182fd5b8335610e7f816110cf565b92506020840135610e8f816110cf565b929592945050506040919091013590565b60008060408385031215610eb2578182fd5b8235610ebd816110cf565b946020939093013593505050565b600060208284031215610edc578081fd5b81518015158114610e59578182fd5b60006101408284031215610efd578081fd5b610f05611074565b610f0f8484610daa565b8152610f1d60208401610df7565b6020820152610f2e60408401610df7565b6040820152610f3f60608401610df7565b6060820152610f5060808401610df7565b6080820152610f6160a08401610e17565b60a0820152610f7260c08401610d9a565b60c0820152610f8360e08401610d9a565b60e0820152610100610f96818501610d9a565b90820152610120610fa8848201610e2c565b908201529392505050565b600060208284031215610fc4578081fd5b5035919050565b600060208284031215610fdc578081fd5b5051919050565b60008251815b818110156110035760208186018101518583015201610fe9565b818111156110115782828501525b509190910192915050565b6001600160a01b0393841681526020810192909252909116604082015260600190565b6020808252818101527f4f776e61626c653a2063616c6c6572206973206e6f7420746865206f776e6572604082015260600190565b604051610140810167ffffffffffffffff811182821017156110a657634e487b7160e01b600052604160045260246000fd5b60405290565b6000828210156110ca57634e487b7160e01b81526011600452602481fd5b500390565b6001600160a01b03811681146106e157600080fdfea26469706673582212207939ba3276ef31a64ea1d3cd3452d38e16e8cbf9f5b6b3ce90b5a1f5edd50fef64736f6c63430008040033",
  "linkReferences": {},
  "deployedLinkReferences": {}
}