{
  "_format": "hh-sol-artifact-1",
  "contractName": "WETHGateway",
  "sourceName": "contracts/utils/WETHGateway.sol",
  "abi": [
    {
      "inputs": [
        {
          "internalType": "address",
          "name": "weth",
          "type": "address"
        },
        {
          "internalType": "address",
          "name": "_lendingPool",
          "type": "address"
        },
        {
          "internalType": "address",
          "name": "_refiCollection",
          "type": "address"
        }
      ],
      "stateMutability": "nonpayable",
      "type": "constructor"
    },
    {
      "anonymous": false,
      "inputs": [
        {
          "indexed": true,
          "internalType": "address",
          "name": "previousOwner",
          "type": "address"
        },
        {
          "indexed": true,
          "internalType": "address",
          "name": "newOwner",
          "type": "address"
        }
      ],
      "name": "OwnershipTransferred",
      "type": "event"
    },
    {
      "stateMutability": "payable",
      "type": "fallback"
    },
    {
      "inputs": [
        {
          "internalType": "uint256",
          "name": "amount",
          "type": "uint256"
        },
        {
          "internalType": "address",
          "name": "onBehalfOf",
          "type": "address"
        }
      ],
      "name": "borrowETH",
      "outputs": [],
      "stateMutability": "nonpayable",
      "type": "function"
    },
    {
      "inputs": [],
      "name": "depositETH",
      "outputs": [],
      "stateMutability": "payable",
      "type": "function"
    },
    {
      "inputs": [
        {
          "internalType": "address",
          "name": "to",
          "type": "address"
        },
        {
          "internalType": "uint256",
          "name": "amount",
          "type": "uint256"
        }
      ],
      "name": "emergencyEtherTransfer",
      "outputs": [],
      "stateMutability": "nonpayable",
      "type": "function"
    },
    {
      "inputs": [
        {
          "internalType": "address",
          "name": "token",
          "type": "address"
        },
        {
          "internalType": "address",
          "name": "to",
          "type": "address"
        },
        {
          "internalType": "uint256",
          "name": "amount",
          "type": "uint256"
        }
      ],
      "name": "emergencyTokenTransfer",
      "outputs": [],
      "stateMutability": "nonpayable",
      "type": "function"
    },
    {
      "inputs": [],
      "name": "getWETHAddress",
      "outputs": [
        {
          "internalType": "address",
          "name": "",
          "type": "address"
        }
      ],
      "stateMutability": "view",
      "type": "function"
    },
    {
      "inputs": [],
      "name": "owner",
      "outputs": [
        {
          "internalType": "address",
          "name": "",
          "type": "address"
        }
      ],
      "stateMutability": "view",
      "type": "function"
    },
    {
      "inputs": [],
      "name": "renounceOwnership",
      "outputs": [],
      "stateMutability": "nonpayable",
      "type": "function"
    },
    {
      "inputs": [
        {
          "internalType": "uint256",
          "name": "amount",
          "type": "uint256"
        }
      ],
      "name": "repayETH",
      "outputs": [],
      "stateMutability": "payable",
      "type": "function"
    },
    {
      "inputs": [
        {
          "internalType": "address",
          "name": "newOwner",
          "type": "address"
        }
      ],
      "name": "transferOwnership",
      "outputs": [],
      "stateMutability": "nonpayable",
      "type": "function"
    },
    {
      "inputs": [
        {
          "internalType": "uint256",
          "name": "amount",
          "type": "uint256"
        }
      ],
      "name": "withdrawETH",
      "outputs": [],
      "stateMutability": "nonpayable",
      "type": "function"
    },
    {
      "stateMutability": "payable",
      "type": "receive"
    }
  ],
  "bytecode": "0x60e06040523480156200001157600080fd5b50604051620013e6380380620013e683398101604081905262000034916200015f565b6200003f33620000f2565b6001600160601b0319606084811b821660805283811b821660a05282901b1660c05260405163095ea7b360e01b81526001600160a01b038084166004830152600019602483015284169063095ea7b390604401602060405180830381600087803b158015620000ad57600080fd5b505af1158015620000c2573d6000803e3d6000fd5b505050506040513d601f19601f82011682018060405250810190620000e89190620001a8565b50505050620001d1565b600080546001600160a01b038381166001600160a01b0319831681178455604051919092169283917f8be0079c531659141344cd1fd0a4f28419497f9722a3daafe3b4186f6b6457e09190a35050565b80516001600160a01b03811681146200015a57600080fd5b919050565b60008060006060848603121562000174578283fd5b6200017f8462000142565b92506200018f6020850162000142565b91506200019f6040850162000142565b90509250925092565b600060208284031215620001ba578081fd5b81518015158114620001ca578182fd5b9392505050565b60805160601c60a05160601c60c05160601c61116d6200027960003960006106900152600081816102c9015281816104eb015281816107090152818161085f01528181610a460152610c7d01526000818160a5015281816101fb0152818161029e01528181610431015281816104b7015281816106d2015281816107790152818161083401528181610a0b01528181610ab601528181610bc30152610c49015261116d6000f3fe6080604052600436106100955760003560e01c8063affa881711610059578063affa8817146101ec578063eed88b8d1461021f578063f14210a61461023f578063f2fde38b1461025f578063f6326fb31461027f5761010f565b80632247463e1461014e578063715018a6146101615780638da5cb5b14610176578063a3d5b255146101ac578063ad2843df146101cc5761010f565b3661010f57336001600160a01b037f0000000000000000000000000000000000000000000000000000000000000000161461010d5760405162461bcd60e51b8152602060048201526013602482015272149958d95a5d99481b9bdd08185b1b1bddd959606a1b60448201526064015b60405180910390fd5b005b60405162461bcd60e51b815260206004820152601460248201527311985b1b189858dac81b9bdd08185b1b1bddd95960621b6044820152606401610104565b61010d61015c366004610ffa565b610287565b34801561016d57600080fd5b5061010d61058b565b34801561018257600080fd5b506000546001600160a01b03165b6040516001600160a01b03909116815260200160405180910390f35b3480156101b857600080fd5b5061010d6101c7366004610ea7565b6105c1565b3480156101d857600080fd5b5061010d6101e736600461102a565b610673565b3480156101f857600080fd5b507f0000000000000000000000000000000000000000000000000000000000000000610190565b34801561022b57600080fd5b5061010d61023a366004610ee7565b6107e9565b34801561024b57600080fd5b5061010d61025a366004610ffa565b61081d565b34801561026b57600080fd5b5061010d61027a366004610e84565b610b26565b61010d610bc1565b6040516335ea6a7560e01b81526001600160a01b037f0000000000000000000000000000000000000000000000000000000000000000811660048301526000917f0000000000000000000000000000000000000000000000000000000000000000909116906335ea6a75906024016101406040518083038186803b15801561030e57600080fd5b505afa158015610322573d6000803e3d6000fd5b505050506040513d601f19601f820116820180604052508101906103469190610f32565b60e001516040516370a0823160e01b81523360048201526001600160a01b03909116906370a082319060240160206040518083038186803b15801561038a57600080fd5b505afa15801561039e573d6000803e3d6000fd5b505050506040513d601f19601f820116820180604052508101906103c29190611012565b9050808210156103cf5750805b8034101561042f5760405162461bcd60e51b815260206004820152602760248201527f6d73672e76616c7565206973206c657373207468616e2072657061796d656e7460448201526608185b5bdd5b9d60ca1b6064820152608401610104565b7f00000000000000000000000000000000000000000000000000000000000000006001600160a01b031663d0e30db0826040518263ffffffff1660e01b81526004016000604051808303818588803b15801561048a57600080fd5b505af115801561049e573d6000803e3d6000fd5b505060405163173aba7160e21b81526001600160a01b037f0000000000000000000000000000000000000000000000000000000000000000811660048301523460248301523360448301527f0000000000000000000000000000000000000000000000000000000000000000169350635ceae9c492506064019050602060405180830381600087803b15801561053357600080fd5b505af1158015610547573d6000803e3d6000fd5b505050506040513d601f19601f8201168201806040525081019061056b9190611012565b5080341115610587576105873361058283346110ff565b610cd9565b5050565b6000546001600160a01b031633146105b55760405162461bcd60e51b815260040161010490611092565b6105bf6000610d91565b565b6000546001600160a01b031633146105eb5760405162461bcd60e51b815260040161010490611092565b60405163a9059cbb60e01b81526001600160a01b0383811660048301526024820183905284169063a9059cbb90604401602060405180830381600087803b15801561063557600080fd5b505af1158015610649573d6000803e3d6000fd5b505050506040513d601f19601f8201168201806040525081019061066d9190610f12565b50505050565b336001600160a01b03821614806106b25750336001600160a01b037f000000000000000000000000000000000000000000000000000000000000000016145b6106bb57600080fd5b604051636c665a5560e01b81526001600160a01b037f0000000000000000000000000000000000000000000000000000000000000000811660048301526024820184905282811660448301527f00000000000000000000000000000000000000000000000000000000000000001690636c665a5590606401600060405180830381600087803b15801561074d57600080fd5b505af1158015610761573d6000803e3d6000fd5b5050604051632e1a7d4d60e01b8152600481018590527f00000000000000000000000000000000000000000000000000000000000000006001600160a01b03169250632e1a7d4d9150602401600060405180830381600087803b1580156107c757600080fd5b505af11580156107db573d6000803e3d6000fd5b505050506105873383610cd9565b6000546001600160a01b031633146108135760405162461bcd60e51b815260040161010490611092565b6105878282610cd9565b6040516335ea6a7560e01b81526001600160a01b037f0000000000000000000000000000000000000000000000000000000000000000811660048301526000917f0000000000000000000000000000000000000000000000000000000000000000909116906335ea6a75906024016101406040518083038186803b1580156108a457600080fd5b505afa1580156108b8573d6000803e3d6000fd5b505050506040513d601f19601f820116820180604052508101906108dc9190610f32565b60c001516040516370a0823160e01b81523360048201529091506000906001600160a01b038316906370a082319060240160206040518083038186803b15801561092557600080fd5b505afa158015610939573d6000803e3d6000fd5b505050506040513d601f19601f8201168201806040525081019061095d9190611012565b90508260001981141561096d5750805b6040516323b872dd60e01b8152336004820152306024820152604481018290526001600160a01b038416906323b872dd90606401602060405180830381600087803b1580156109bb57600080fd5b505af11580156109cf573d6000803e3d6000fd5b505050506040513d601f19601f820116820180604052508101906109f39190610f12565b50604051632abfd51560e01b81526001600160a01b037f000000000000000000000000000000000000000000000000000000000000000081166004830152602482018390523060448301523360648301527f00000000000000000000000000000000000000000000000000000000000000001690632abfd51590608401600060405180830381600087803b158015610a8a57600080fd5b505af1158015610a9e573d6000803e3d6000fd5b5050604051632e1a7d4d60e01b8152600481018490527f00000000000000000000000000000000000000000000000000000000000000006001600160a01b03169250632e1a7d4d9150602401600060405180830381600087803b158015610b0457600080fd5b505af1158015610b18573d6000803e3d6000fd5b5050505061066d3382610cd9565b6000546001600160a01b03163314610b505760405162461bcd60e51b815260040161010490611092565b6001600160a01b038116610bb55760405162461bcd60e51b815260206004820152602660248201527f4f776e61626c653a206e6577206f776e657220697320746865207a65726f206160448201526564647265737360d01b6064820152608401610104565b610bbe81610d91565b50565b7f00000000000000000000000000000000000000000000000000000000000000006001600160a01b031663d0e30db0346040518263ffffffff1660e01b81526004016000604051808303818588803b158015610c1c57600080fd5b505af1158015610c30573d6000803e3d6000fd5b5050604051633d14d1b760e21b81526001600160a01b037f0000000000000000000000000000000000000000000000000000000000000000811660048301523460248301523360448301527f000000000000000000000000000000000000000000000000000000000000000016935063f45346dc92506064019050600060405180830381600087803b158015610cc557600080fd5b505af115801561066d573d6000803e3d6000fd5b604080516000808252602082019092526001600160a01b038416908390604051610d039190611059565b60006040518083038185875af1925050503d8060008114610d40576040519150601f19603f3d011682016040523d82523d6000602084013e610d45565b606091505b5050905080610d8c5760405162461bcd60e51b815260206004820152601360248201527211551217d514905394d1915497d19052531151606a1b6044820152606401610104565b505050565b600080546001600160a01b038381166001600160a01b0319831681178455604051919092169283917f8be0079c531659141344cd1fd0a4f28419497f9722a3daafe3b4186f6b6457e09190a35050565b8051610dec81611122565b919050565b600060208284031215610e02578081fd5b6040516020810181811067ffffffffffffffff82111715610e3157634e487b7160e01b83526041600452602483fd5b6040529151825250919050565b80516fffffffffffffffffffffffffffffffff81168114610dec57600080fd5b805164ffffffffff81168114610dec57600080fd5b805160ff81168114610dec57600080fd5b600060208284031215610e95578081fd5b8135610ea081611122565b9392505050565b600080600060608486031215610ebb578182fd5b8335610ec681611122565b92506020840135610ed681611122565b929592945050506040919091013590565b60008060408385031215610ef9578182fd5b8235610f0481611122565b946020939093013593505050565b600060208284031215610f23578081fd5b81518015158114610ea0578182fd5b60006101408284031215610f44578081fd5b610f4c6110c7565b610f568484610df1565b8152610f6460208401610e3e565b6020820152610f7560408401610e3e565b6040820152610f8660608401610e3e565b6060820152610f9760808401610e3e565b6080820152610fa860a08401610e5e565b60a0820152610fb960c08401610de1565b60c0820152610fca60e08401610de1565b60e0820152610100610fdd818501610de1565b90820152610120610fef848201610e73565b908201529392505050565b60006020828403121561100b578081fd5b5035919050565b600060208284031215611023578081fd5b5051919050565b6000806040838503121561103c578182fd5b82359150602083013561104e81611122565b809150509250929050565b60008251815b81811015611079576020818601810151858301520161105f565b818111156110875782828501525b509190910192915050565b6020808252818101527f4f776e61626c653a2063616c6c6572206973206e6f7420746865206f776e6572604082015260600190565b604051610140810167ffffffffffffffff811182821017156110f957634e487b7160e01b600052604160045260246000fd5b60405290565b60008282101561111d57634e487b7160e01b81526011600452602481fd5b500390565b6001600160a01b0381168114610bbe57600080fdfea26469706673582212204619555bc5ddd9b48a692ae7a62b63706229874e069f8a68e30acf0ed7437f8864736f6c63430008040033",
  "linkReferences": {},
  "deployedLinkReferences": {}
}