{
  "_format": "hh-sol-artifact-1",
  "contractName": "GenericLogic",
  "sourceName": "contracts/libraries/logic/GenericLogic.sol",
  "abi": [
    {
      "inputs": [],
      "name": "HEALTH_FACTOR_LIQUIDATION_THRESHOLD",
      "outputs": [
        {
          "internalType": "uint256",
          "name": "",
          "type": "uint256"
        }
      ],
      "stateMutability": "view",
      "type": "function"
    }
  ],
  "bytecode": "0x6111aa61003a600b82828239805160001a60731461002d57634e487b7160e01b600052600060045260246000fd5b30600052607381538281f3fe730000000000000000000000000000000000000000301460806040526004361061003f5760003560e01c8062b06e4014610044578063c3525c281461006c575b600080fd5b610057610052366004610e6a565b610089565b60405190151581526020015b60405180910390f35b61007b670de0b6b3a764000081565b604051908152602001610063565b60006100c561009d36879003870187610ef7565b517f555555555555555555555555555555555555555555555555555555555555555516151590565b158061010d57506001600160a01b03891660009081526020879052604090206005015461010b90600160a01b900460ff1661010536889003880188610ef7565b906105ba565b155b1561011a575060016105ae565b6101726040518061014001604052806000815260200160008152602001600081526020016000815260200160008152602001600081526020016000815260200160008152602001600081526020016000151581525090565b6001600160a01b038a1660009081526020889052604090206101b0905461ffff80821692601083901c821692602081901c9092169160301c60ff1690565b84525060208084019190915260408051630261bf8b60e01b815290516001600160a01b0387169350630261bf8b92600480840193919291829003018186803b1580156101fb57600080fd5b505afa15801561020f573d6000803e3d6000fd5b505050506040513d601f19601f820116820180604052508101906102339190610e4e565b602082015160405163434e178f60e01b81526001600160a01b038c811660048301526127106024830152604482019290925291169063434e178f90606401604080518083038186803b15801561028857600080fd5b505afa15801561029c573d6000803e3d6000fd5b505050506040513d601f19601f820116820180604052508101906102c09190610f5c565b60208301819052151590506102d95760019150506105ae565b6103d689886102ed368a90038a018a610ef7565b8888886001600160a01b031663fca513a86040518163ffffffff1660e01b815260040160206040518083038186803b15801561032857600080fd5b505afa15801561033c573d6000803e3d6000fd5b505050506040513d601f19601f820116820180604052508101906103609190610e4e565b896001600160a01b0316630261bf8b6040518163ffffffff1660e01b815260040160206040518083038186803b15801561039957600080fd5b505afa1580156103ad573d6000803e3d6000fd5b505050506040513d601f19601f820116820180604052508101906103d19190610e4e565b61062b565b506080850152506060830181905260408301919091526103fa5760019150506105ae565b80516105169061040b90600a61104d565b6105108a866001600160a01b031663fca513a86040518163ffffffff1660e01b815260040160206040518083038186803b15801561044857600080fd5b505afa15801561045c573d6000803e3d6000fd5b505050506040513d601f19601f820116820180604052508101906104809190610e4e565b6001600160a01b031663b3596f078f6040518263ffffffff1660e01b81526004016104ba91906001600160a01b0391909116815260200190565b60206040518083038186803b1580156104d257600080fd5b505afa1580156104e6573d6000803e3d6000fd5b505050506040513d601f19601f8201168201806040525081019061050a9190610f44565b90610bd0565b90610be3565b60a08201819052604082015161052b91610bef565b60c082018190526105405760009150506105ae565b61057f8160c0015161051061056684602001518560a00151610bd090919063ffffffff16565b6080850151604086015161057991610bd0565b90610bef565b60e0820181905260c0820151606083015160009261059e929190610bfb565b670de0b6b3a76400001115925050505b98975050505050505050565b60006080821060405180604001604052806002815260200161373760f01b815250906106025760405162461bcd60e51b81526004016105f99190610f7f565b60405180910390fd5b5061060e8260026110f5565b610619906001610fd2565b83516001911c16151590505b92915050565b60008060008060006106d0604051806102400160405280600081526020016000815260200160008152602001600081526020016000815260200160008152602001600081526020016000815260200160008152602001600081526020016000815260200160008152602001600081526020016000815260200160001515815260200160006001600160a01b031681526020016000151581526020016000151581525090565b8a516106ef576000806000806000199550955095509550955050610bc1565b600060e08201525b888160e001511015610b205760e0810151610713908c90610c27565b61071c57610b08565b60e0810151600090815260208b81526040808320546001600160a01b03166101e085018190528352908e90529020610770815461ffff80821692601083901c821692602081901c9092169160301c60ff1690565b90508460a0018560c00186608001838152508381525083815250505050876001600160a01b031663434e178f8f8460a001518560c001516040518463ffffffff1660e01b81526004016107e1939291906001600160a01b039390931683526020830191909152604082015260600190565b604080518083038186803b1580156107f857600080fd5b505afa15801561080c573d6000803e3d6000fd5b505050506040513d601f19601f820116820180604052508101906108309190610f5c565b60c084015260a0830152608082015161084a90600a61104d565b60208301526101e082015160405163b3596f0760e01b81526001600160a01b039182166004820152908a169063b3596f079060240160206040518083038186803b15801561089757600080fd5b505afa1580156108ab573d6000803e3d6000fd5b505050506040513d601f19601f820116820180604052508101906108cf9190610f44565b825260c0820151158015906108ef575060e08201516108ef908d906105ba565b15610a1c578060030160059054906101000a90046001600160a01b03166001600160a01b03166370a082318f6040518263ffffffff1660e01b815260040161094691906001600160a01b0391909116815260200190565b60206040518083038186803b15801561095e57600080fd5b505afa158015610972573d6000803e3d6000fd5b505050506040513d601f19601f820116820180604052508101906109969190610f44565b60408301819052602083015183516000926109b5929161051091610bd0565b6101208401519091506109c89082610c82565b61012084015260a08301516109ee906109e2908390610bd0565b61016085015190610c82565b61016084015260c0830151610a1490610a08908390610bd0565b61018085015190610c82565b610180840152505b60e0820151610a2c908d90610c8e565b15610b06578060040160009054906101000a90046001600160a01b03166001600160a01b03166370a082318f6040518263ffffffff1660e01b8152600401610a8391906001600160a01b0391909116815260200190565b60206040518083038186803b158015610a9b57600080fd5b505afa158015610aaf573d6000803e3d6000fd5b505050506040513d601f19601f82011682018060405250810190610ad39190610f44565b6060830181905260208301518351610aff92610af3929161051091610bd0565b61014084015190610c82565b6101408301525b505b60e08101805190610b188261112b565b9052506106f7565b600081610120015111610b34576000610b49565b610120810151610160820151610b4991610be3565b610160820152610120810151610b60576000610b75565b610120810151610180820151610b7591610be3565b6101808201819052610120820151610140830151610b9292610bfb565b610100820181905261012082015161014083015161016084015161018090940151919850965091945090925090505b97509750975097509792505050565b6000610bdc82846110f5565b9392505050565b6000610bdc8284610fea565b6000610bdc8284611114565b600082610c0b5750600019610bdc565b610c1f83610c198685610cd9565b90610d80565b949350505050565b60006080821060405180604001604052806002815260200161373760f01b81525090610c665760405162461bcd60e51b81526004016105f99190610f7f565b50610c728260026110f5565b925190921c600316151592915050565b6000610bdc8284610fd2565b60006080821060405180604001604052806002815260200161373760f01b81525090610ccd5760405162461bcd60e51b81526004016105f99190610f7f565b506106198260026110f5565b6000821580610ce6575081155b15610cf357506000610625565b81610d016002612710610fea565b610d0d90600019611114565b610d179190610fea565b83111560405180604001604052806002815260200161068760f31b81525090610d535760405162461bcd60e51b81526004016105f99190610f7f565b50612710610d62600282610fea565b610d6c84866110f5565b610d769190610fd2565b610bdc9190610fea565b604080518082019091526002815261035360f41b602082015260009082610dba5760405162461bcd60e51b81526004016105f99190610f7f565b506000610dc8600284610fea565b9050670de0b6b3a7640000610ddf82600019611114565b610de99190610fea565b84111560405180604001604052806002815260200161068760f31b81525090610e255760405162461bcd60e51b81526004016105f99190610f7f565b508281610e3a670de0b6b3a7640000876110f5565b610e449190610fd2565b610c1f9190610fea565b600060208284031215610e5f578081fd5b8151610bdc8161115c565b600080600080600080600080888a03610100811215610e87578485fd5b8935610e928161115c565b985060208a0135610ea28161115c565b975060408a0135965060608a013595506020607f1982011215610ec3578485fd5b5060808901935060a0890135925060c0890135915060e0890135610ee68161115c565b809150509295985092959890939650565b600060208284031215610f08578081fd5b6040516020810181811067ffffffffffffffff82111715610f3757634e487b7160e01b83526041600452602483fd5b6040529135825250919050565b600060208284031215610f55578081fd5b5051919050565b60008060408385031215610f6e578182fd5b505080516020909101519092909150565b6000602080835283518082850152825b81811015610fab57858101830151858201604001528201610f8f565b81811115610fbc5783604083870101525b50601f01601f1916929092016040019392505050565b60008219821115610fe557610fe5611146565b500190565b60008261100557634e487b7160e01b81526012600452602481fd5b500490565b600181815b8085111561104557816000190482111561102b5761102b611146565b8085161561103857918102915b93841c939080029061100f565b509250929050565b6000610bdc838360008261106357506001610625565b8161107057506000610625565b81600181146110865760028114611090576110ac565b6001915050610625565b60ff8411156110a1576110a1611146565b50506001821b610625565b5060208310610133831016604e8410600b84101617156110cf575081810a610625565b6110d9838361100a565b80600019048211156110ed576110ed611146565b029392505050565b600081600019048311821515161561110f5761110f611146565b500290565b60008282101561112657611126611146565b500390565b600060001982141561113f5761113f611146565b5060010190565b634e487b7160e01b600052601160045260246000fd5b6001600160a01b038116811461117157600080fd5b5056fea2646970667358221220d4f75f91cbfaf89f49019f728d3e81b1ad2058f92da234e38758fe1499bef08564736f6c63430008040033",
  "linkReferences": {},
  "deployedLinkReferences": {}
}