{
  "_format": "hh-sol-artifact-1",
  "contractName": "GenericLogic",
  "sourceName": "contracts/libraries/logic/GenericLogic.sol",
  "abi": [
    {
      "inputs": [],
      "name": "HEALTH_FACTOR_LIQUIDATION_THRESHOLD",
      "outputs": [
        {
          "internalType": "uint256",
          "name": "",
          "type": "uint256"
        }
      ],
      "stateMutability": "view",
      "type": "function"
    }
  ],
  "bytecode": "0x610e2961003a600b82828239805160001a60731461002d57634e487b7160e01b600052600060045260246000fd5b30600052607381538281f3fe73000000000000000000000000000000000000000030146080604052600436106100405760003560e01c8063c3525c2814610045578063e617042414610067575b600080fd5b610054670de0b6b3a764000081565b6040519081526020015b60405180910390f35b61007a610075366004610b2c565b61008a565b604051901515815260200161005e565b60006100c661009e36879003870187610bb1565b517f555555555555555555555555555555555555555555555555555555555555555516151590565b158061010e57506001600160a01b03891660009081526020879052604090206005015461010c90600160a01b900460ff1661010636889003880188610bb1565b9061034d565b155b1561011b57506001610341565b6101736040518061014001604052806000815260200160008152602001600081526020016000815260200160008152602001600081526020016000815260200160008152602001600081526020016000151581525090565b6001600160a01b038a1660009081526020889052604090206101b1905461ffff80821692601083901c821692602081901c9092169160301c60ff1690565b84525060208301819052151590506101cd576001915050610341565b6101e989886101e1368a90038a018a610bb1565b8888886103be565b5060808501525060608301819052604083019190915261020d576001915050610341565b80516102a99061021e90600a610ce4565b60405163b3596f0760e01b81526001600160a01b038d811660048301526102a3918c9188169063b3596f079060240160206040518083038186803b15801561026557600080fd5b505afa158015610279573d6000803e3d6000fd5b505050506040513d601f19601f8201168201806040525081019061029d9190610bfe565b90610892565b906108a5565b60a0820181905260408201516102be916108b1565b60c082018190526102d3576000915050610341565b6103128160c001516102a36102f984602001518560a0015161089290919063ffffffff16565b6080850151604086015161030c91610892565b906108b1565b60e0820181905260c082015160608301516000926103319291906108bd565b670de0b6b3a76400001115925050505b98975050505050505050565b60006080821060405180604001604052806002815260200161373760f01b815250906103955760405162461bcd60e51b815260040161038c9190610c16565b60405180910390fd5b506103a1826002610d8c565b6103ac906001610c69565b83516001911c16151590505b92915050565b6000806000806000610463604051806102400160405280600081526020016000815260200160008152602001600081526020016000815260200160008152602001600081526020016000815260200160008152602001600081526020016000815260200160008152602001600081526020016000815260200160001515815260200160006001600160a01b031681526020016000151581526020016000151581525090565b8951610482576000806000806000199550955095509550955050610884565b600060e08201525b878160e0015110156107e35760e08101516104a6908b906108e9565b6104af576107cb565b60e0810151600090815260208a81526040808320546001600160a01b03166101e085018190528352908d90529020610503815461ffff80821692601083901c821692602081901c9092169160301c60ff1690565b6080860181905260c08601929092525060a084019190915261052690600a610ce4565b60208301526101e082015160405163b3596f0760e01b81526001600160a01b0391821660048201529089169063b3596f079060240160206040518083038186803b15801561057357600080fd5b505afa158015610587573d6000803e3d6000fd5b505050506040513d601f19601f820116820180604052508101906105ab9190610bfe565b825260c0820151158015906105cb575060e08201516105cb908c9061034d565b156106df5760038101546040516370a0823160e01b81526001600160a01b038f8116600483015265010000000000909204909116906370a082319060240160206040518083038186803b15801561062157600080fd5b505afa158015610635573d6000803e3d6000fd5b505050506040513d601f19601f820116820180604052508101906106599190610bfe565b604083018190526020830151835160009261067892916102a391610892565b61012084015190915061068b9082610944565b61012084015260a08301516106b1906106a5908390610892565b61016085015190610944565b61016084015260c08301516106d7906106cb908390610892565b61018085015190610944565b610180840152505b60e08201516106ef908c90610950565b156107c9578060040160009054906101000a90046001600160a01b03166001600160a01b03166370a082318e6040518263ffffffff1660e01b815260040161074691906001600160a01b0391909116815260200190565b60206040518083038186803b15801561075e57600080fd5b505afa158015610772573d6000803e3d6000fd5b505050506040513d601f19601f820116820180604052508101906107969190610bfe565b60608301819052602083015183516107c2926107b692916102a391610892565b61014084015190610944565b6101408301525b505b60e081018051906107db82610dc2565b90525061048a565b6000816101200151116107f757600061080c565b61012081015161016082015161080c916108a5565b610160820152610120810151610823576000610838565b610120810151610180820151610838916108a5565b6101808201819052610120820151610140830151610855926108bd565b610100820181905261012082015161014083015161016084015161018090940151919850965091945090925090505b965096509650965096915050565b600061089e8284610d8c565b9392505050565b600061089e8284610c81565b600061089e8284610dab565b6000826108cd575060001961089e565b6108e1836108db868561099b565b90610a42565b949350505050565b60006080821060405180604001604052806002815260200161373760f01b815250906109285760405162461bcd60e51b815260040161038c9190610c16565b50610934826002610d8c565b925190921c600316151592915050565b600061089e8284610c69565b60006080821060405180604001604052806002815260200161373760f01b8152509061098f5760405162461bcd60e51b815260040161038c9190610c16565b506103ac826002610d8c565b60008215806109a8575081155b156109b5575060006103b8565b816109c36002612710610c81565b6109cf90600019610dab565b6109d99190610c81565b83111560405180604001604052806002815260200161068760f31b81525090610a155760405162461bcd60e51b815260040161038c9190610c16565b50612710610a24600282610c81565b610a2e8486610d8c565b610a389190610c69565b61089e9190610c81565b604080518082019091526002815261035360f41b602082015260009082610a7c5760405162461bcd60e51b815260040161038c9190610c16565b506000610a8a600284610c81565b9050670de0b6b3a7640000610aa182600019610dab565b610aab9190610c81565b84111560405180604001604052806002815260200161068760f31b81525090610ae75760405162461bcd60e51b815260040161038c9190610c16565b508281610afc670de0b6b3a764000087610d8c565b610b069190610c69565b6108e19190610c81565b80356001600160a01b0381168114610b2757600080fd5b919050565b600080600080600080600080888a03610100811215610b49578485fd5b610b528a610b10565b9850610b6060208b01610b10565b975060408a0135965060608a013595506020607f1982011215610b81578485fd5b5060808901935060a0890135925060c08901359150610ba260e08a01610b10565b90509295985092959890939650565b600060208284031215610bc2578081fd5b6040516020810181811067ffffffffffffffff82111715610bf157634e487b7160e01b83526041600452602483fd5b6040529135825250919050565b600060208284031215610c0f578081fd5b5051919050565b6000602080835283518082850152825b81811015610c4257858101830151858201604001528201610c26565b81811115610c535783604083870101525b50601f01601f1916929092016040019392505050565b60008219821115610c7c57610c7c610ddd565b500190565b600082610c9c57634e487b7160e01b81526012600452602481fd5b500490565b600181815b80851115610cdc578160001904821115610cc257610cc2610ddd565b80851615610ccf57918102915b93841c9390800290610ca6565b509250929050565b600061089e8383600082610cfa575060016103b8565b81610d07575060006103b8565b8160018114610d1d5760028114610d2757610d43565b60019150506103b8565b60ff841115610d3857610d38610ddd565b50506001821b6103b8565b5060208310610133831016604e8410600b8410161715610d66575081810a6103b8565b610d708383610ca1565b8060001904821115610d8457610d84610ddd565b029392505050565b6000816000190483118215151615610da657610da6610ddd565b500290565b600082821015610dbd57610dbd610ddd565b500390565b6000600019821415610dd657610dd6610ddd565b5060010190565b634e487b7160e01b600052601160045260246000fdfea2646970667358221220e84c02d31760506bf95073e23ab8a7234018d223e30f9e6a17661e386fc7645864736f6c63430008040033",
  "linkReferences": {},
  "deployedLinkReferences": {}
}