{
  "_format": "hh-sol-artifact-1",
  "contractName": "RefiCollection",
  "sourceName": "contracts/tokenization/RefiCollection.sol",
  "abi": [
    {
      "inputs": [
        {
          "internalType": "address",
          "name": "lendingPoolAddr",
          "type": "address"
        },
        {
          "internalType": "address",
          "name": "addressesProviderAddr",
          "type": "address"
        }
      ],
      "stateMutability": "nonpayable",
      "type": "constructor"
    },
    {
      "anonymous": false,
      "inputs": [
        {
          "indexed": true,
          "internalType": "address",
          "name": "owner",
          "type": "address"
        },
        {
          "indexed": true,
          "internalType": "address",
          "name": "approved",
          "type": "address"
        },
        {
          "indexed": true,
          "internalType": "uint256",
          "name": "tokenId",
          "type": "uint256"
        }
      ],
      "name": "Approval",
      "type": "event"
    },
    {
      "anonymous": false,
      "inputs": [
        {
          "indexed": true,
          "internalType": "address",
          "name": "owner",
          "type": "address"
        },
        {
          "indexed": true,
          "internalType": "address",
          "name": "operator",
          "type": "address"
        },
        {
          "indexed": false,
          "internalType": "bool",
          "name": "approved",
          "type": "bool"
        }
      ],
      "name": "ApprovalForAll",
      "type": "event"
    },
    {
      "anonymous": false,
      "inputs": [
        {
          "indexed": true,
          "internalType": "address",
          "name": "from",
          "type": "address"
        },
        {
          "indexed": true,
          "internalType": "address",
          "name": "to",
          "type": "address"
        },
        {
          "indexed": true,
          "internalType": "uint256",
          "name": "tokenId",
          "type": "uint256"
        }
      ],
      "name": "Transfer",
      "type": "event"
    },
    {
      "inputs": [
        {
          "internalType": "address",
          "name": "to",
          "type": "address"
        },
        {
          "internalType": "uint256",
          "name": "tokenId",
          "type": "uint256"
        }
      ],
      "name": "approve",
      "outputs": [],
      "stateMutability": "nonpayable",
      "type": "function"
    },
    {
      "inputs": [
        {
          "internalType": "address",
          "name": "owner",
          "type": "address"
        }
      ],
      "name": "balanceOf",
      "outputs": [
        {
          "internalType": "uint256",
          "name": "",
          "type": "uint256"
        }
      ],
      "stateMutability": "view",
      "type": "function"
    },
    {
      "inputs": [
        {
          "internalType": "uint256",
          "name": "tokenId",
          "type": "uint256"
        }
      ],
      "name": "getApproved",
      "outputs": [
        {
          "internalType": "address",
          "name": "",
          "type": "address"
        }
      ],
      "stateMutability": "view",
      "type": "function"
    },
    {
      "inputs": [
        {
          "internalType": "address",
          "name": "user",
          "type": "address"
        }
      ],
      "name": "getBorrowLimit",
      "outputs": [
        {
          "internalType": "uint256",
          "name": "availableBorrowsETH",
          "type": "uint256"
        }
      ],
      "stateMutability": "view",
      "type": "function"
    },
    {
      "inputs": [
        {
          "internalType": "address",
          "name": "owner",
          "type": "address"
        }
      ],
      "name": "getTokenId",
      "outputs": [
        {
          "internalType": "uint256",
          "name": "token",
          "type": "uint256"
        }
      ],
      "stateMutability": "view",
      "type": "function"
    },
    {
      "inputs": [
        {
          "internalType": "address",
          "name": "owner",
          "type": "address"
        },
        {
          "internalType": "address",
          "name": "operator",
          "type": "address"
        }
      ],
      "name": "isApprovedForAll",
      "outputs": [
        {
          "internalType": "bool",
          "name": "",
          "type": "bool"
        }
      ],
      "stateMutability": "view",
      "type": "function"
    },
    {
      "inputs": [
        {
          "internalType": "string",
          "name": "_description",
          "type": "string"
        },
        {
          "internalType": "string",
          "name": "_bronzeCardCID",
          "type": "string"
        },
        {
          "internalType": "string",
          "name": "_silverCardCID",
          "type": "string"
        },
        {
          "internalType": "string",
          "name": "_goldCardCID",
          "type": "string"
        },
        {
          "internalType": "string",
          "name": "_platinumCardCID",
          "type": "string"
        }
      ],
      "name": "mint",
      "outputs": [],
      "stateMutability": "nonpayable",
      "type": "function"
    },
    {
      "inputs": [],
      "name": "name",
      "outputs": [
        {
          "internalType": "string",
          "name": "",
          "type": "string"
        }
      ],
      "stateMutability": "view",
      "type": "function"
    },
    {
      "inputs": [
        {
          "internalType": "uint256",
          "name": "tokenId",
          "type": "uint256"
        }
      ],
      "name": "ownerOf",
      "outputs": [
        {
          "internalType": "address",
          "name": "",
          "type": "address"
        }
      ],
      "stateMutability": "view",
      "type": "function"
    },
    {
      "inputs": [
        {
          "internalType": "uint256",
          "name": "amount",
          "type": "uint256"
        },
        {
          "internalType": "address",
          "name": "toRecieve",
          "type": "address"
        }
      ],
      "name": "payETHUsingCard",
      "outputs": [],
      "stateMutability": "nonpayable",
      "type": "function"
    },
    {
      "inputs": [
        {
          "internalType": "address",
          "name": "asset",
          "type": "address"
        },
        {
          "internalType": "uint256",
          "name": "amount",
          "type": "uint256"
        },
        {
          "internalType": "address",
          "name": "toRecieve",
          "type": "address"
        }
      ],
      "name": "payUsingCard",
      "outputs": [],
      "stateMutability": "nonpayable",
      "type": "function"
    },
    {
      "inputs": [],
      "name": "refresh",
      "outputs": [],
      "stateMutability": "nonpayable",
      "type": "function"
    },
    {
      "inputs": [
        {
          "internalType": "address",
          "name": "from",
          "type": "address"
        },
        {
          "internalType": "address",
          "name": "to",
          "type": "address"
        },
        {
          "internalType": "uint256",
          "name": "tokenId",
          "type": "uint256"
        }
      ],
      "name": "safeTransferFrom",
      "outputs": [],
      "stateMutability": "nonpayable",
      "type": "function"
    },
    {
      "inputs": [
        {
          "internalType": "address",
          "name": "from",
          "type": "address"
        },
        {
          "internalType": "address",
          "name": "to",
          "type": "address"
        },
        {
          "internalType": "uint256",
          "name": "tokenId",
          "type": "uint256"
        },
        {
          "internalType": "bytes",
          "name": "_data",
          "type": "bytes"
        }
      ],
      "name": "safeTransferFrom",
      "outputs": [],
      "stateMutability": "nonpayable",
      "type": "function"
    },
    {
      "inputs": [
        {
          "internalType": "address",
          "name": "operator",
          "type": "address"
        },
        {
          "internalType": "bool",
          "name": "approved",
          "type": "bool"
        }
      ],
      "name": "setApprovalForAll",
      "outputs": [],
      "stateMutability": "nonpayable",
      "type": "function"
    },
    {
      "inputs": [
        {
          "internalType": "bytes4",
          "name": "interfaceId",
          "type": "bytes4"
        }
      ],
      "name": "supportsInterface",
      "outputs": [
        {
          "internalType": "bool",
          "name": "",
          "type": "bool"
        }
      ],
      "stateMutability": "view",
      "type": "function"
    },
    {
      "inputs": [],
      "name": "symbol",
      "outputs": [
        {
          "internalType": "string",
          "name": "",
          "type": "string"
        }
      ],
      "stateMutability": "view",
      "type": "function"
    },
    {
      "inputs": [
        {
          "internalType": "uint256",
          "name": "tokenId",
          "type": "uint256"
        }
      ],
      "name": "tokenURI",
      "outputs": [
        {
          "internalType": "string",
          "name": "",
          "type": "string"
        }
      ],
      "stateMutability": "view",
      "type": "function"
    },
    {
      "inputs": [
        {
          "internalType": "address",
          "name": "from",
          "type": "address"
        },
        {
          "internalType": "address",
          "name": "to",
          "type": "address"
        },
        {
          "internalType": "uint256",
          "name": "tokenId",
          "type": "uint256"
        }
      ],
      "name": "transferFrom",
      "outputs": [],
      "stateMutability": "nonpayable",
      "type": "function"
    },
    {
      "stateMutability": "payable",
      "type": "receive"
    }
  ],
  "bytecode": "0x60c06040523480156200001157600080fd5b50604051620027d0380380620027d0833981016040819052620000349162000180565b604080518082018252600d81526c1499599a48141c9bdd1bd8dbdb609a1b6020808301918252835180850190945260048452635245464960e01b9084015281519192916200008591600091620000bd565b5080516200009b906001906020840190620000bd565b5050506001600160601b0319606092831b8116608052911b1660a052620001f4565b828054620000cb90620001b7565b90600052602060002090601f016020900481019282620000ef57600085556200013a565b82601f106200010a57805160ff19168380011785556200013a565b828001600101855582156200013a579182015b828111156200013a5782518255916020019190600101906200011d565b50620001489291506200014c565b5090565b5b808211156200014857600081556001016200014d565b80516001600160a01b03811681146200017b57600080fd5b919050565b6000806040838503121562000193578182fd5b6200019e8362000163565b9150620001ae6020840162000163565b90509250929050565b600181811c90821680620001cc57607f821691505b60208210811415620001ee57634e487b7160e01b600052602260045260246000fd5b50919050565b60805160601c60a05160601c6125a26200022e600039600061070901526000818161089001528181610aaf015261125c01526125a26000f3fe6080604052600436106101185760003560e01c806370a08231116100a0578063b88d4fde11610064578063b88d4fde14610318578063c87b56dd14610338578063e985e9c514610358578063f1537686146103a1578063f8ac93e8146103d757600080fd5b806370a08231146102755780637c17d237146102a357806386833e91146102c357806395d89b41146102e3578063a22cb465146102f857600080fd5b806323b872dd116100e757806323b872dd146101d557806339c5a921146101f55780633d1a39e51461021557806342842e0e146102355780636352211e1461025557600080fd5b806301ffc9a71461012457806306fdde0314610159578063081812fc1461017b578063095ea7b3146101b357600080fd5b3661011f57005b600080fd5b34801561013057600080fd5b5061014461013f366004611f42565b6103e6565b60405190151581526020015b60405180910390f35b34801561016557600080fd5b5061016e610438565b6040516101509190612339565b34801561018757600080fd5b5061019b610196366004612076565b6104ca565b6040516001600160a01b039091168152602001610150565b3480156101bf57600080fd5b506101d36101ce366004611eba565b610564565b005b3480156101e157600080fd5b506101d36101f0366004611dd0565b61067a565b34801561020157600080fd5b506101d361021036600461208e565b6106ab565b34801561022157600080fd5b506101d3610230366004611ee5565b610808565b34801561024157600080fd5b506101d3610250366004611dd0565b610974565b34801561026157600080fd5b5061019b610270366004612076565b61098f565b34801561028157600080fd5b50610295610290366004611d60565b610a06565b604051908152602001610150565b3480156102af57600080fd5b506102956102be366004611d60565b610a8d565b3480156102cf57600080fd5b506101d36102de366004611faa565b610b37565b3480156102ef57600080fd5b5061016e610c80565b34801561030457600080fd5b506101d3610313366004611e8d565b610c8f565b34801561032457600080fd5b506101d3610333366004611e10565b610c9a565b34801561034457600080fd5b5061016e610353366004612076565b610ccc565b34801561036457600080fd5b50610144610373366004611d98565b6001600160a01b03918216600090815260056020908152604080832093909416825291909152205460ff1690565b3480156103ad57600080fd5b506102956103bc366004611d60565b6001600160a01b031660009081526008602052604090205490565b3480156103e357600080fd5b50005b60006001600160e01b031982166380ac58cd60e01b148061041757506001600160e01b03198216635b5e139f60e01b145b8061043257506301ffc9a760e01b6001600160e01b03198316145b92915050565b60606000805461044790612489565b80601f016020809104026020016040519081016040528092919081815260200182805461047390612489565b80156104c05780601f10610495576101008083540402835291602001916104c0565b820191906000526020600020905b8154815290600101906020018083116104a357829003601f168201915b5050505050905090565b6000818152600260205260408120546001600160a01b03166105485760405162461bcd60e51b815260206004820152602c60248201527f4552433732313a20617070726f76656420717565727920666f72206e6f6e657860448201526b34b9ba32b73a103a37b5b2b760a11b60648201526084015b60405180910390fd5b506000908152600460205260409020546001600160a01b031690565b600061056f8261098f565b9050806001600160a01b0316836001600160a01b031614156105dd5760405162461bcd60e51b815260206004820152602160248201527f4552433732313a20617070726f76616c20746f2063757272656e74206f776e656044820152603960f91b606482015260840161053f565b336001600160a01b03821614806105f957506105f98133610373565b61066b5760405162461bcd60e51b815260206004820152603860248201527f4552433732313a20617070726f76652063616c6c6572206973206e6f74206f7760448201527f6e6572206e6f7220617070726f76656420666f7220616c6c0000000000000000606482015260840161053f565b6106758383610d4e565b505050565b6106843382610dbc565b6106a05760405162461bcd60e51b815260040161053f9061239e565b610675838383610eb3565b336000908152600860205260409020546107075760405162461bcd60e51b815260206004820152601a60248201527f43616c6c657220646f65736e2774206861766520612063617264000000000000604482015260640161053f565b7f00000000000000000000000000000000000000000000000000000000000000006001600160a01b03166377532ed96040518163ffffffff1660e01b815260040160206040518083038186803b15801561076057600080fd5b505afa158015610774573d6000803e3d6000fd5b505050506040513d601f19601f820116820180604052508101906107989190611d7c565b60405163ad2843df60e01b8152600481018490523360248201526001600160a01b03919091169063ad2843df90604401600060405180830381600087803b1580156107e257600080fd5b505af11580156107f6573d6000803e3d6000fd5b50505050610804818361105e565b5050565b336000908152600860205260409020546108645760405162461bcd60e51b815260206004820152601a60248201527f43616c6c657220646f65736e2774206861766520612063617264000000000000604482015260640161053f565b604051636c665a5560e01b81526001600160a01b038481166004830152602482018490523360448301527f00000000000000000000000000000000000000000000000000000000000000001690636c665a5590606401600060405180830381600087803b1580156108d457600080fd5b505af11580156108e8573d6000803e3d6000fd5b505060405163a9059cbb60e01b81526001600160a01b038481166004830152602482018690528616925063a9059cbb9150604401602060405180830381600087803b15801561093657600080fd5b505af115801561094a573d6000803e3d6000fd5b505050506040513d601f19601f8201168201806040525081019061096e9190611f26565b50505050565b61067583838360405180602001604052806000815250610c9a565b6000818152600260205260408120546001600160a01b0316806104325760405162461bcd60e51b815260206004820152602960248201527f4552433732313a206f776e657220717565727920666f72206e6f6e657869737460448201526832b73a103a37b5b2b760b91b606482015260840161053f565b60006001600160a01b038216610a715760405162461bcd60e51b815260206004820152602a60248201527f4552433732313a2062616c616e636520717565727920666f7220746865207a65604482015269726f206164647265737360b01b606482015260840161053f565b506001600160a01b031660009081526003602052604090205490565b604051632fe4a15f60e21b81526001600160a01b0382811660048301526000917f00000000000000000000000000000000000000000000000000000000000000009091169063bf92857c9060240160c06040518083038186803b158015610af357600080fd5b505afa158015610b07573d6000803e3d6000fd5b505050506040513d601f19601f82011682018060405250810190610b2b91906120b2565b50919695505050505050565b610b45600680546001019055565b6000610b5060065490565b9050610b5c338261111b565b6040805160c0810182526a526566692043617264202360a81b60e082015260eb8082018490528251808303909101815261010b8201835281526020808201899052818301889052606082018790526080820186905260a08201859052600084815260078252929092208151805192939192610bda9284920190611c2b565b506020828101518051610bf39260018501920190611c2b565b5060408201518051610c0f916002840191602090910190611c2b565b5060608201518051610c2b916003840191602090910190611c2b565b5060808201518051610c47916004840191602090910190611c2b565b5060a08201518051610c63916005840191602090910190611c2b565b505033600090815260086020526040902091909155505050505050565b60606001805461044790612489565b610804338383611135565b610ca43383610dbc565b610cc05760405162461bcd60e51b815260040161053f9061239e565b61096e84848484611204565b60606000610cd98361098f565b600084815260076020526040812091925090610d239060018101610cfd8786611237565b604051602001610d0f93929190612218565b604051602081830303815290604052611752565b905080604051602001610d3691906122b7565b60405160208183030381529060405292505050919050565b600081815260046020526040902080546001600160a01b0319166001600160a01b0384169081179091558190610d838261098f565b6001600160a01b03167f8c5be1e5ebec7d5bd14f71427d1e84f3dd0314c0f7b2291e5b200ac8c7c3b92560405160405180910390a45050565b6000818152600260205260408120546001600160a01b0316610e355760405162461bcd60e51b815260206004820152602c60248201527f4552433732313a206f70657261746f7220717565727920666f72206e6f6e657860448201526b34b9ba32b73a103a37b5b2b760a11b606482015260840161053f565b6000610e408361098f565b9050806001600160a01b0316846001600160a01b03161480610e7b5750836001600160a01b0316610e70846104ca565b6001600160a01b0316145b80610eab57506001600160a01b0380821660009081526005602090815260408083209388168352929052205460ff165b949350505050565b826001600160a01b0316610ec68261098f565b6001600160a01b031614610f2e5760405162461bcd60e51b815260206004820152602960248201527f4552433732313a207472616e73666572206f6620746f6b656e2074686174206960448201526839903737ba1037bbb760b91b606482015260840161053f565b6001600160a01b038216610f905760405162461bcd60e51b8152602060048201526024808201527f4552433732313a207472616e7366657220746f20746865207a65726f206164646044820152637265737360e01b606482015260840161053f565b610f9b8383836118c6565b610fa6600082610d4e565b6001600160a01b0383166000908152600360205260408120805460019290610fcf908490612446565b90915550506001600160a01b0382166000908152600360205260408120805460019290610ffd9084906123ef565b909155505060008181526002602052604080822080546001600160a01b0319166001600160a01b0386811691821790925591518493918716917fddf252ad1be2c89b69c2b068fc378daa952ba7f163c4a11628f55a4df523b3ef91a4505050565b604080516000808252602082019092526001600160a01b03841690839060405161108891906121bf565b60006040518083038185875af1925050503d80600081146110c5576040519150601f19603f3d011682016040523d82523d6000602084013e6110ca565b606091505b50509050806106755760405162461bcd60e51b815260206004820152601860248201527f434152445f4554485f5452414e534645525f4641494c45440000000000000000604482015260640161053f565b61080482826040518060200160405280600081525061199d565b816001600160a01b0316836001600160a01b031614156111975760405162461bcd60e51b815260206004820152601960248201527f4552433732313a20617070726f766520746f2063616c6c657200000000000000604482015260640161053f565b6001600160a01b03838116600081815260056020908152604080832094871680845294825291829020805460ff191686151590811790915591519182527f17307eab39ab6107e8899845ad3d59bd9653f200f220920489ca2b5937696c31910160405180910390a3505050565b61120f848484610eb3565b61121b848484846119d0565b61096e5760405162461bcd60e51b815260040161053f9061234c565b604051631f73522760e01b81526001600160a01b0382811660048301526060916000917f00000000000000000000000000000000000000000000000000000000000000001690631f73522790602401604080518083038186803b15801561129d57600080fd5b505afa1580156112b1573d6000803e3d6000fd5b505050506040513d601f19601f820116820180604052508101906112d59190611f7a565b5090506000600760008681526020019081526020016000206040518060c001604052908160008201805461130890612489565b80601f016020809104026020016040519081016040528092919081815260200182805461133490612489565b80156113815780601f1061135657610100808354040283529160200191611381565b820191906000526020600020905b81548152906001019060200180831161136457829003601f168201915b5050505050815260200160018201805461139a90612489565b80601f01602080910402602001604051908101604052809291908181526020018280546113c690612489565b80156114135780601f106113e857610100808354040283529160200191611413565b820191906000526020600020905b8154815290600101906020018083116113f657829003601f168201915b5050505050815260200160028201805461142c90612489565b80601f016020809104026020016040519081016040528092919081815260200182805461145890612489565b80156114a55780601f1061147a576101008083540402835291602001916114a5565b820191906000526020600020905b81548152906001019060200180831161148857829003601f168201915b505050505081526020016003820180546114be90612489565b80601f01602080910402602001604051908101604052809291908181526020018280546114ea90612489565b80156115375780601f1061150c57610100808354040283529160200191611537565b820191906000526020600020905b81548152906001019060200180831161151a57829003601f168201915b5050505050815260200160048201805461155090612489565b80601f016020809104026020016040519081016040528092919081815260200182805461157c90612489565b80156115c95780601f1061159e576101008083540402835291602001916115c9565b820191906000526020600020905b8154815290600101906020018083116115ac57829003601f168201915b505050505081526020016005820180546115e290612489565b80601f016020809104026020016040519081016040528092919081815260200182805461160e90612489565b801561165b5780601f106116305761010080835404028352916020019161165b565b820191906000526020600020905b81548152906001019060200180831161163e57829003601f168201915b505050505081525050905060606000600381111561168957634e487b7160e01b600052602160045260246000fd5b8360038111156116a957634e487b7160e01b600052602160045260246000fd5b14156116ba575060a0810151611727565b60018360038111156116dc57634e487b7160e01b600052602160045260246000fd5b14156116ed57506080810151611727565b600283600381111561170f57634e487b7160e01b600052602160045260246000fd5b141561172057506060810151611727565b5060408101515b8060405160200161173891906121db565b604051602081830303815290604052935050505092915050565b606081516000141561177257505060408051602081019091526000815290565b600060405180606001604052806040815260200161252d60409139905060006003845160026117a191906123ef565b6117ab9190612407565b6117b6906004612427565b905060006117c58260206123ef565b67ffffffffffffffff8111156117eb57634e487b7160e01b600052604160045260246000fd5b6040519080825280601f01601f191660200182016040528015611815576020820181803683370190505b509050818152600183018586518101602084015b81831015611881576003830192508251603f8160121c168501518253600182019150603f81600c1c168501518253600182019150603f8160061c168501518253600182019150603f8116850151825350600101611829565b60038951066001811461189b57600281146118ac576118b8565b613d3d60f01b6001198301526118b8565b603d60f81b6000198301525b509398975050505050505050565b6001600160a01b0383161561194e5760405162461bcd60e51b815260206004820152604260248201527f4f6e6c79206d696e74696e6720697320616c6c6f7765642e205468657365204e60448201527f4654732063616e2774206265206275726e6564206f72207472616e7366657272606482015261195960f21b608482015260a40161053f565b61195782610a06565b156106755760405162461bcd60e51b815260206004820152601660248201527527b7363c9037b7329031b0b932103832b9103ab9b2b960511b604482015260640161053f565b6119a78383611add565b6119b460008484846119d0565b6106755760405162461bcd60e51b815260040161053f9061234c565b60006001600160a01b0384163b15611ad257604051630a85bd0160e11b81526001600160a01b0385169063150b7a0290611a149033908990889088906004016122fc565b602060405180830381600087803b158015611a2e57600080fd5b505af1925050508015611a5e575060408051601f3d908101601f19168201909252611a5b91810190611f5e565b60015b611ab8573d808015611a8c576040519150601f19603f3d011682016040523d82523d6000602084013e611a91565b606091505b508051611ab05760405162461bcd60e51b815260040161053f9061234c565b805181602001fd5b6001600160e01b031916630a85bd0160e11b149050610eab565b506001949350505050565b6001600160a01b038216611b335760405162461bcd60e51b815260206004820181905260248201527f4552433732313a206d696e7420746f20746865207a65726f2061646472657373604482015260640161053f565b6000818152600260205260409020546001600160a01b031615611b985760405162461bcd60e51b815260206004820152601c60248201527f4552433732313a20746f6b656e20616c7265616479206d696e74656400000000604482015260640161053f565b611ba4600083836118c6565b6001600160a01b0382166000908152600360205260408120805460019290611bcd9084906123ef565b909155505060008181526002602052604080822080546001600160a01b0319166001600160a01b03861690811790915590518392907fddf252ad1be2c89b69c2b068fc378daa952ba7f163c4a11628f55a4df523b3ef908290a45050565b828054611c3790612489565b90600052602060002090601f016020900481019282611c595760008555611c9f565b82601f10611c7257805160ff1916838001178555611c9f565b82800160010185558215611c9f579182015b82811115611c9f578251825591602001919060010190611c84565b50611cab929150611caf565b5090565b5b80821115611cab5760008155600101611cb0565b600067ffffffffffffffff80841115611cdf57611cdf6124da565b604051601f8501601f19908116603f01168101908282118183101715611d0757611d076124da565b81604052809350858152868686011115611d2057600080fd5b858560208301376000602087830101525050509392505050565b600082601f830112611d4a578081fd5b611d5983833560208501611cc4565b9392505050565b600060208284031215611d71578081fd5b8135611d59816124f0565b600060208284031215611d8d578081fd5b8151611d59816124f0565b60008060408385031215611daa578081fd5b8235611db5816124f0565b91506020830135611dc5816124f0565b809150509250929050565b600080600060608486031215611de4578081fd5b8335611def816124f0565b92506020840135611dff816124f0565b929592945050506040919091013590565b60008060008060808587031215611e25578081fd5b8435611e30816124f0565b93506020850135611e40816124f0565b925060408501359150606085013567ffffffffffffffff811115611e62578182fd5b8501601f81018713611e72578182fd5b611e8187823560208401611cc4565b91505092959194509250565b60008060408385031215611e9f578182fd5b8235611eaa816124f0565b91506020830135611dc581612508565b60008060408385031215611ecc578182fd5b8235611ed7816124f0565b946020939093013593505050565b600080600060608486031215611ef9578283fd5b8335611f04816124f0565b9250602084013591506040840135611f1b816124f0565b809150509250925092565b600060208284031215611f37578081fd5b8151611d5981612508565b600060208284031215611f53578081fd5b8135611d5981612516565b600060208284031215611f6f578081fd5b8151611d5981612516565b60008060408385031215611f8c578081fd5b825160048110611f9a578182fd5b6020939093015192949293505050565b600080600080600060a08688031215611fc1578283fd5b853567ffffffffffffffff80821115611fd8578485fd5b611fe489838a01611d3a565b96506020880135915080821115611ff9578485fd5b61200589838a01611d3a565b9550604088013591508082111561201a578485fd5b61202689838a01611d3a565b9450606088013591508082111561203b578283fd5b61204789838a01611d3a565b9350608088013591508082111561205c578283fd5b5061206988828901611d3a565b9150509295509295909350565b600060208284031215612087578081fd5b5035919050565b600080604083850312156120a0578182fd5b823591506020830135611dc5816124f0565b60008060008060008060c087890312156120ca578384fd5b865195506020870151945060408701519350606087015192506080870151915060a087015190509295509295509295565b6000815180845261211381602086016020860161245d565b601f01601f19169290920160200192915050565b8054600090600181811c908083168061214157607f831692505b602080841082141561216157634e487b7160e01b86526022600452602486fd5b8180156121755760018114612186576121b3565b60ff198616895284890196506121b3565b60008881526020902060005b868110156121ab5781548b820152908501908301612192565b505084890196505b50505050505092915050565b600082516121d181846020870161245d565b9190910192915050565b7468747470733a2f2f697066732e696f2f697066732f60581b81526000825161220b81601585016020870161245d565b9190910160150192915050565b693d913730b6b2911d101160b11b81526000612237600a830186612127565b61088b60f21b8082526f113232b9b1b934b83a34b7b7111d101160811b60028301526122666012830187612127565b908152691134b6b0b3b2911d101160b11b6002820152845190915061229281600c84016020880161245d565b601160f91b600c9290910191820152607d60f81b600d820152600e0195945050505050565b7f646174613a6170706c69636174696f6e2f6a736f6e3b6261736536342c0000008152600082516122ef81601d85016020870161245d565b91909101601d0192915050565b6001600160a01b038581168252841660208201526040810183905260806060820181905260009061232f908301846120fb565b9695505050505050565b602081526000611d5960208301846120fb565b60208082526032908201527f4552433732313a207472616e7366657220746f206e6f6e20455243373231526560408201527131b2b4bb32b91034b6b83632b6b2b73a32b960711b606082015260800190565b60208082526031908201527f4552433732313a207472616e736665722063616c6c6572206973206e6f74206f6040820152701ddb995c881b9bdc88185c1c1c9bdd9959607a1b606082015260800190565b60008219821115612402576124026124c4565b500190565b60008261242257634e487b7160e01b81526012600452602481fd5b500490565b6000816000190483118215151615612441576124416124c4565b500290565b600082821015612458576124586124c4565b500390565b60005b83811015612478578181015183820152602001612460565b8381111561096e5750506000910152565b600181811c9082168061249d57607f821691505b602082108114156124be57634e487b7160e01b600052602260045260246000fd5b50919050565b634e487b7160e01b600052601160045260246000fd5b634e487b7160e01b600052604160045260246000fd5b6001600160a01b038116811461250557600080fd5b50565b801515811461250557600080fd5b6001600160e01b03198116811461250557600080fdfe4142434445464748494a4b4c4d4e4f505152535455565758595a6162636465666768696a6b6c6d6e6f707172737475767778797a303132333435363738392b2fa2646970667358221220dc64c6891e4beea455c3801935317b60393d22ca82e1eb17295cbcee25fbeeb164736f6c63430008040033",
  "linkReferences": {},
  "deployedLinkReferences": {}
}