{
  "_format": "hh-sol-artifact-1",
  "contractName": "RefiCollection",
  "sourceName": "contracts/tokenization/RefiCollection.sol",
  "abi": [
    {
      "inputs": [
        {
          "internalType": "address",
          "name": "lendingPoolAddr",
          "type": "address"
        }
      ],
      "stateMutability": "nonpayable",
      "type": "constructor"
    },
    {
      "anonymous": false,
      "inputs": [
        {
          "indexed": true,
          "internalType": "address",
          "name": "owner",
          "type": "address"
        },
        {
          "indexed": true,
          "internalType": "address",
          "name": "approved",
          "type": "address"
        },
        {
          "indexed": true,
          "internalType": "uint256",
          "name": "tokenId",
          "type": "uint256"
        }
      ],
      "name": "Approval",
      "type": "event"
    },
    {
      "anonymous": false,
      "inputs": [
        {
          "indexed": true,
          "internalType": "address",
          "name": "owner",
          "type": "address"
        },
        {
          "indexed": true,
          "internalType": "address",
          "name": "operator",
          "type": "address"
        },
        {
          "indexed": false,
          "internalType": "bool",
          "name": "approved",
          "type": "bool"
        }
      ],
      "name": "ApprovalForAll",
      "type": "event"
    },
    {
      "anonymous": false,
      "inputs": [
        {
          "indexed": true,
          "internalType": "address",
          "name": "from",
          "type": "address"
        },
        {
          "indexed": true,
          "internalType": "address",
          "name": "to",
          "type": "address"
        },
        {
          "indexed": true,
          "internalType": "uint256",
          "name": "tokenId",
          "type": "uint256"
        }
      ],
      "name": "Transfer",
      "type": "event"
    },
    {
      "inputs": [
        {
          "internalType": "address",
          "name": "to",
          "type": "address"
        },
        {
          "internalType": "uint256",
          "name": "tokenId",
          "type": "uint256"
        }
      ],
      "name": "approve",
      "outputs": [],
      "stateMutability": "nonpayable",
      "type": "function"
    },
    {
      "inputs": [
        {
          "internalType": "address",
          "name": "owner",
          "type": "address"
        }
      ],
      "name": "balanceOf",
      "outputs": [
        {
          "internalType": "uint256",
          "name": "",
          "type": "uint256"
        }
      ],
      "stateMutability": "view",
      "type": "function"
    },
    {
      "inputs": [
        {
          "internalType": "uint256",
          "name": "tokenId",
          "type": "uint256"
        }
      ],
      "name": "getApproved",
      "outputs": [
        {
          "internalType": "address",
          "name": "",
          "type": "address"
        }
      ],
      "stateMutability": "view",
      "type": "function"
    },
    {
      "inputs": [
        {
          "internalType": "address",
          "name": "owner",
          "type": "address"
        }
      ],
      "name": "getTokenId",
      "outputs": [
        {
          "internalType": "uint256",
          "name": "token",
          "type": "uint256"
        }
      ],
      "stateMutability": "view",
      "type": "function"
    },
    {
      "inputs": [
        {
          "internalType": "address",
          "name": "owner",
          "type": "address"
        },
        {
          "internalType": "address",
          "name": "operator",
          "type": "address"
        }
      ],
      "name": "isApprovedForAll",
      "outputs": [
        {
          "internalType": "bool",
          "name": "",
          "type": "bool"
        }
      ],
      "stateMutability": "view",
      "type": "function"
    },
    {
      "inputs": [
        {
          "internalType": "string",
          "name": "_name",
          "type": "string"
        },
        {
          "internalType": "string",
          "name": "_description",
          "type": "string"
        },
        {
          "internalType": "string",
          "name": "_bronzeCardCID",
          "type": "string"
        },
        {
          "internalType": "string",
          "name": "_silverCardCID",
          "type": "string"
        },
        {
          "internalType": "string",
          "name": "_goldCardCID",
          "type": "string"
        },
        {
          "internalType": "string",
          "name": "_diamondCardCID",
          "type": "string"
        }
      ],
      "name": "mint",
      "outputs": [],
      "stateMutability": "nonpayable",
      "type": "function"
    },
    {
      "inputs": [],
      "name": "name",
      "outputs": [
        {
          "internalType": "string",
          "name": "",
          "type": "string"
        }
      ],
      "stateMutability": "view",
      "type": "function"
    },
    {
      "inputs": [
        {
          "internalType": "uint256",
          "name": "tokenId",
          "type": "uint256"
        }
      ],
      "name": "ownerOf",
      "outputs": [
        {
          "internalType": "address",
          "name": "",
          "type": "address"
        }
      ],
      "stateMutability": "view",
      "type": "function"
    },
    {
      "inputs": [
        {
          "internalType": "address",
          "name": "from",
          "type": "address"
        },
        {
          "internalType": "address",
          "name": "to",
          "type": "address"
        },
        {
          "internalType": "uint256",
          "name": "tokenId",
          "type": "uint256"
        }
      ],
      "name": "safeTransferFrom",
      "outputs": [],
      "stateMutability": "nonpayable",
      "type": "function"
    },
    {
      "inputs": [
        {
          "internalType": "address",
          "name": "from",
          "type": "address"
        },
        {
          "internalType": "address",
          "name": "to",
          "type": "address"
        },
        {
          "internalType": "uint256",
          "name": "tokenId",
          "type": "uint256"
        },
        {
          "internalType": "bytes",
          "name": "_data",
          "type": "bytes"
        }
      ],
      "name": "safeTransferFrom",
      "outputs": [],
      "stateMutability": "nonpayable",
      "type": "function"
    },
    {
      "inputs": [
        {
          "internalType": "address",
          "name": "operator",
          "type": "address"
        },
        {
          "internalType": "bool",
          "name": "approved",
          "type": "bool"
        }
      ],
      "name": "setApprovalForAll",
      "outputs": [],
      "stateMutability": "nonpayable",
      "type": "function"
    },
    {
      "inputs": [
        {
          "internalType": "bytes4",
          "name": "interfaceId",
          "type": "bytes4"
        }
      ],
      "name": "supportsInterface",
      "outputs": [
        {
          "internalType": "bool",
          "name": "",
          "type": "bool"
        }
      ],
      "stateMutability": "view",
      "type": "function"
    },
    {
      "inputs": [],
      "name": "symbol",
      "outputs": [
        {
          "internalType": "string",
          "name": "",
          "type": "string"
        }
      ],
      "stateMutability": "view",
      "type": "function"
    },
    {
      "inputs": [
        {
          "internalType": "uint256",
          "name": "tokenId",
          "type": "uint256"
        }
      ],
      "name": "tokenURI",
      "outputs": [
        {
          "internalType": "string",
          "name": "",
          "type": "string"
        }
      ],
      "stateMutability": "view",
      "type": "function"
    },
    {
      "inputs": [
        {
          "internalType": "address",
          "name": "from",
          "type": "address"
        },
        {
          "internalType": "address",
          "name": "to",
          "type": "address"
        },
        {
          "internalType": "uint256",
          "name": "tokenId",
          "type": "uint256"
        }
      ],
      "name": "transferFrom",
      "outputs": [],
      "stateMutability": "nonpayable",
      "type": "function"
    }
  ],
  "bytecode": "0x60a06040523480156200001157600080fd5b50604051620020eb380380620020eb833981016040819052620000349162000157565b604080518082018252600a8152694f63746f74686f72706560b01b6020808301918252835180850190945260048452635245464960e01b9084015281519192916200008291600091620000b1565b50805162000098906001906020840190620000b1565b50505060601b6001600160601b031916608052620001c4565b828054620000bf9062000187565b90600052602060002090601f016020900481019282620000e357600085556200012e565b82601f10620000fe57805160ff19168380011785556200012e565b828001600101855582156200012e579182015b828111156200012e57825182559160200191906001019062000111565b506200013c92915062000140565b5090565b5b808211156200013c576000815560010162000141565b60006020828403121562000169578081fd5b81516001600160a01b038116811462000180578182fd5b9392505050565b600181811c908216806200019c57607f821691505b60208210811415620001be57634e487b7160e01b600052602260045260246000fd5b50919050565b60805160601c611f08620001e36000396000610c950152611f086000f3fe608060405234801561001057600080fd5b50600436106100f55760003560e01c806370a0823111610097578063c87b56dd11610066578063c87b56dd146101ff578063e985e9c514610212578063ef5f5c0e1461024e578063f15376861461026157600080fd5b806370a08231146101b057806395d89b41146101d1578063a22cb465146101d9578063b88d4fde146101ec57600080fd5b8063095ea7b3116100d3578063095ea7b31461016257806323b872dd1461017757806342842e0e1461018a5780636352211e1461019d57600080fd5b806301ffc9a7146100fa57806306fdde0314610122578063081812fc14610137575b600080fd5b61010d610108366004611932565b61028a565b60405190151581526020015b60405180910390f35b61012a6102dc565b6040516101199190611cc2565b61014a610145366004611a88565b61036e565b6040516001600160a01b039091168152602001610119565b610175610170366004611909565b610408565b005b61017561018536600461181b565b61051e565b61017561019836600461181b565b61054f565b61014a6101ab366004611a88565b61056a565b6101c36101be3660046117cf565b6105e1565b604051908152602001610119565b61012a610668565b6101756101e73660046118cf565b610677565b6101756101fa366004611856565b610686565b61012a61020d366004611a88565b6106be565b61010d6102203660046117e9565b6001600160a01b03918216600090815260056020908152604080832093909416825291909152205460ff1690565b61017561025c36600461199a565b610740565b6101c361026f3660046117cf565b6001600160a01b031660009081526008602052604090205490565b60006001600160e01b031982166380ac58cd60e01b14806102bb57506001600160e01b03198216635b5e139f60e01b145b806102d657506301ffc9a760e01b6001600160e01b03198316145b92915050565b6060600080546102eb90611e12565b80601f016020809104026020016040519081016040528092919081815260200182805461031790611e12565b80156103645780601f1061033957610100808354040283529160200191610364565b820191906000526020600020905b81548152906001019060200180831161034757829003601f168201915b5050505050905090565b6000818152600260205260408120546001600160a01b03166103ec5760405162461bcd60e51b815260206004820152602c60248201527f4552433732313a20617070726f76656420717565727920666f72206e6f6e657860448201526b34b9ba32b73a103a37b5b2b760a11b60648201526084015b60405180910390fd5b506000908152600460205260409020546001600160a01b031690565b60006104138261056a565b9050806001600160a01b0316836001600160a01b031614156104815760405162461bcd60e51b815260206004820152602160248201527f4552433732313a20617070726f76616c20746f2063757272656e74206f776e656044820152603960f91b60648201526084016103e3565b336001600160a01b038216148061049d575061049d8133610220565b61050f5760405162461bcd60e51b815260206004820152603860248201527f4552433732313a20617070726f76652063616c6c6572206973206e6f74206f7760448201527f6e6572206e6f7220617070726f76656420666f7220616c6c000000000000000060648201526084016103e3565b610519838361085e565b505050565b61052833826108cc565b6105445760405162461bcd60e51b81526004016103e390611d27565b6105198383836109c3565b61051983838360405180602001604052806000815250610686565b6000818152600260205260408120546001600160a01b0316806102d65760405162461bcd60e51b815260206004820152602960248201527f4552433732313a206f776e657220717565727920666f72206e6f6e657869737460448201526832b73a103a37b5b2b760b91b60648201526084016103e3565b60006001600160a01b03821661064c5760405162461bcd60e51b815260206004820152602a60248201527f4552433732313a2062616c616e636520717565727920666f7220746865207a65604482015269726f206164647265737360b01b60648201526084016103e3565b506001600160a01b031660009081526003602052604090205490565b6060600180546102eb90611e12565b610682338383610b6e565b5050565b61069033836108cc565b6106ac5760405162461bcd60e51b81526004016103e390611d27565b6106b884848484610c3d565b50505050565b606060006106cb8361056a565b60008481526007602052604081209192509061071590600181016106ef8786610c70565b60405160200161070193929190611ba1565b60405160208183030381529060405261118b565b9050806040516020016107289190611c40565b60405160208183030381529060405292505050919050565b61074e600680546001019055565b600061075960065490565b905061076533826112ff565b6040805160c0810182528881526020808201899052818301889052606082018790526080820186905260a082018590526000848152600782529290922081518051929391926107b7928492019061167e565b5060208281015180516107d0926001850192019061167e565b50604082015180516107ec91600284019160209091019061167e565b506060820151805161080891600384019160209091019061167e565b506080820151805161082491600484019160209091019061167e565b5060a0820151805161084091600584019160209091019061167e565b50503360009081526008602052604090209190915550505050505050565b600081815260046020526040902080546001600160a01b0319166001600160a01b03841690811790915581906108938261056a565b6001600160a01b03167f8c5be1e5ebec7d5bd14f71427d1e84f3dd0314c0f7b2291e5b200ac8c7c3b92560405160405180910390a45050565b6000818152600260205260408120546001600160a01b03166109455760405162461bcd60e51b815260206004820152602c60248201527f4552433732313a206f70657261746f7220717565727920666f72206e6f6e657860448201526b34b9ba32b73a103a37b5b2b760a11b60648201526084016103e3565b60006109508361056a565b9050806001600160a01b0316846001600160a01b0316148061098b5750836001600160a01b03166109808461036e565b6001600160a01b0316145b806109bb57506001600160a01b0380821660009081526005602090815260408083209388168352929052205460ff165b949350505050565b826001600160a01b03166109d68261056a565b6001600160a01b031614610a3e5760405162461bcd60e51b815260206004820152602960248201527f4552433732313a207472616e73666572206f6620746f6b656e2074686174206960448201526839903737ba1037bbb760b91b60648201526084016103e3565b6001600160a01b038216610aa05760405162461bcd60e51b8152602060048201526024808201527f4552433732313a207472616e7366657220746f20746865207a65726f206164646044820152637265737360e01b60648201526084016103e3565b610aab838383611319565b610ab660008261085e565b6001600160a01b0383166000908152600360205260408120805460019290610adf908490611dcf565b90915550506001600160a01b0382166000908152600360205260408120805460019290610b0d908490611d78565b909155505060008181526002602052604080822080546001600160a01b0319166001600160a01b0386811691821790925591518493918716917fddf252ad1be2c89b69c2b068fc378daa952ba7f163c4a11628f55a4df523b3ef91a4505050565b816001600160a01b0316836001600160a01b03161415610bd05760405162461bcd60e51b815260206004820152601960248201527f4552433732313a20617070726f766520746f2063616c6c65720000000000000060448201526064016103e3565b6001600160a01b03838116600081815260056020908152604080832094871680845294825291829020805460ff191686151590811790915591519182527f17307eab39ab6107e8899845ad3d59bd9653f200f220920489ca2b5937696c31910160405180910390a3505050565b610c488484846109c3565b610c54848484846113f0565b6106b85760405162461bcd60e51b81526004016103e390611cd5565b604051631f73522760e01b81526001600160a01b0382811660048301526060916000917f00000000000000000000000000000000000000000000000000000000000000001690631f73522790602401604080518083038186803b158015610cd657600080fd5b505afa158015610cea573d6000803e3d6000fd5b505050506040513d601f19601f82011682018060405250810190610d0e919061196a565b5090506000600760008681526020019081526020016000206040518060c0016040529081600082018054610d4190611e12565b80601f0160208091040260200160405190810160405280929190818152602001828054610d6d90611e12565b8015610dba5780601f10610d8f57610100808354040283529160200191610dba565b820191906000526020600020905b815481529060010190602001808311610d9d57829003601f168201915b50505050508152602001600182018054610dd390611e12565b80601f0160208091040260200160405190810160405280929190818152602001828054610dff90611e12565b8015610e4c5780601f10610e2157610100808354040283529160200191610e4c565b820191906000526020600020905b815481529060010190602001808311610e2f57829003601f168201915b50505050508152602001600282018054610e6590611e12565b80601f0160208091040260200160405190810160405280929190818152602001828054610e9190611e12565b8015610ede5780601f10610eb357610100808354040283529160200191610ede565b820191906000526020600020905b815481529060010190602001808311610ec157829003601f168201915b50505050508152602001600382018054610ef790611e12565b80601f0160208091040260200160405190810160405280929190818152602001828054610f2390611e12565b8015610f705780601f10610f4557610100808354040283529160200191610f70565b820191906000526020600020905b815481529060010190602001808311610f5357829003601f168201915b50505050508152602001600482018054610f8990611e12565b80601f0160208091040260200160405190810160405280929190818152602001828054610fb590611e12565b80156110025780601f10610fd757610100808354040283529160200191611002565b820191906000526020600020905b815481529060010190602001808311610fe557829003601f168201915b5050505050815260200160058201805461101b90611e12565b80601f016020809104026020016040519081016040528092919081815260200182805461104790611e12565b80156110945780601f1061106957610100808354040283529160200191611094565b820191906000526020600020905b81548152906001019060200180831161107757829003601f168201915b50505050508152505090506060600060038111156110c257634e487b7160e01b600052602160045260246000fd5b8360038111156110e257634e487b7160e01b600052602160045260246000fd5b14156110f3575060a0810151611160565b600183600381111561111557634e487b7160e01b600052602160045260246000fd5b141561112657506080810151611160565b600283600381111561114857634e487b7160e01b600052602160045260246000fd5b141561115957506060810151611160565b5060408101515b806040516020016111719190611b64565b604051602081830303815290604052935050505092915050565b60608151600014156111ab57505060408051602081019091526000815290565b6000604051806060016040528060408152602001611e9360409139905060006003845160026111da9190611d78565b6111e49190611d90565b6111ef906004611db0565b905060006111fe826020611d78565b67ffffffffffffffff81111561122457634e487b7160e01b600052604160045260246000fd5b6040519080825280601f01601f19166020018201604052801561124e576020820181803683370190505b509050818152600183018586518101602084015b818310156112ba576003830192508251603f8160121c168501518253600182019150603f81600c1c168501518253600182019150603f8160061c168501518253600182019150603f8116850151825350600101611262565b6003895106600181146112d457600281146112e5576112f1565b613d3d60f01b6001198301526112f1565b603d60f81b6000198301525b509398975050505050505050565b6106828282604051806020016040528060008152506114fd565b6001600160a01b038316156113a15760405162461bcd60e51b815260206004820152604260248201527f4f6e6c79206d696e74696e6720697320616c6c6f7765642e205468657365204e60448201527f4654732063616e2774206265206275726e6564206f72207472616e7366657272606482015261195960f21b608482015260a4016103e3565b6113aa826105e1565b156105195760405162461bcd60e51b815260206004820152601660248201527527b7363c9037b7329031b0b932103832b9103ab9b2b960511b60448201526064016103e3565b60006001600160a01b0384163b156114f257604051630a85bd0160e11b81526001600160a01b0385169063150b7a0290611434903390899088908890600401611c85565b602060405180830381600087803b15801561144e57600080fd5b505af192505050801561147e575060408051601f3d908101601f1916820190925261147b9181019061194e565b60015b6114d8573d8080156114ac576040519150601f19603f3d011682016040523d82523d6000602084013e6114b1565b606091505b5080516114d05760405162461bcd60e51b81526004016103e390611cd5565b805181602001fd5b6001600160e01b031916630a85bd0160e11b1490506109bb565b506001949350505050565b6115078383611530565b61151460008484846113f0565b6105195760405162461bcd60e51b81526004016103e390611cd5565b6001600160a01b0382166115865760405162461bcd60e51b815260206004820181905260248201527f4552433732313a206d696e7420746f20746865207a65726f206164647265737360448201526064016103e3565b6000818152600260205260409020546001600160a01b0316156115eb5760405162461bcd60e51b815260206004820152601c60248201527f4552433732313a20746f6b656e20616c7265616479206d696e7465640000000060448201526064016103e3565b6115f760008383611319565b6001600160a01b0382166000908152600360205260408120805460019290611620908490611d78565b909155505060008181526002602052604080822080546001600160a01b0319166001600160a01b03861690811790915590518392907fddf252ad1be2c89b69c2b068fc378daa952ba7f163c4a11628f55a4df523b3ef908290a45050565b82805461168a90611e12565b90600052602060002090601f0160209004810192826116ac57600085556116f2565b82601f106116c557805160ff19168380011785556116f2565b828001600101855582156116f2579182015b828111156116f25782518255916020019190600101906116d7565b506116fe929150611702565b5090565b5b808211156116fe5760008155600101611703565b600067ffffffffffffffff8084111561173257611732611e63565b604051601f8501601f19908116603f0116810190828211818310171561175a5761175a611e63565b8160405280935085815286868601111561177357600080fd5b858560208301376000602087830101525050509392505050565b80356001600160a01b03811681146117a457600080fd5b919050565b600082601f8301126117b9578081fd5b6117c883833560208501611717565b9392505050565b6000602082840312156117e0578081fd5b6117c88261178d565b600080604083850312156117fb578081fd5b6118048361178d565b91506118126020840161178d565b90509250929050565b60008060006060848603121561182f578081fd5b6118388461178d565b92506118466020850161178d565b9150604084013590509250925092565b6000806000806080858703121561186b578081fd5b6118748561178d565b93506118826020860161178d565b925060408501359150606085013567ffffffffffffffff8111156118a4578182fd5b8501601f810187136118b4578182fd5b6118c387823560208401611717565b91505092959194509250565b600080604083850312156118e1578182fd5b6118ea8361178d565b9150602083013580151581146118fe578182fd5b809150509250929050565b6000806040838503121561191b578182fd5b6119248361178d565b946020939093013593505050565b600060208284031215611943578081fd5b81356117c881611e79565b60006020828403121561195f578081fd5b81516117c881611e79565b6000806040838503121561197c578182fd5b82516004811061198a578283fd5b6020939093015192949293505050565b60008060008060008060c087890312156119b2578182fd5b863567ffffffffffffffff808211156119c9578384fd5b6119d58a838b016117a9565b975060208901359150808211156119ea578384fd5b6119f68a838b016117a9565b96506040890135915080821115611a0b578384fd5b611a178a838b016117a9565b95506060890135915080821115611a2c578384fd5b611a388a838b016117a9565b94506080890135915080821115611a4d578384fd5b611a598a838b016117a9565b935060a0890135915080821115611a6e578283fd5b50611a7b89828a016117a9565b9150509295509295509295565b600060208284031215611a99578081fd5b5035919050565b60008151808452611ab8816020860160208601611de6565b601f01601f19169290920160200192915050565b8054600090600181811c9080831680611ae657607f831692505b6020808410821415611b0657634e487b7160e01b86526022600452602486fd5b818015611b1a5760018114611b2b57611b58565b60ff19861689528489019650611b58565b60008881526020902060005b86811015611b505781548b820152908501908301611b37565b505084890196505b50505050505092915050565b7468747470733a2f2f697066732e696f2f697066732f60581b815260008251611b94816015850160208701611de6565b9190910160150192915050565b693d913730b6b2911d101160b11b81526000611bc0600a830186611acc565b61088b60f21b8082526f113232b9b1b934b83a34b7b7111d101160811b6002830152611bef6012830187611acc565b908152691134b6b0b3b2911d101160b11b60028201528451909150611c1b81600c840160208801611de6565b601160f91b600c9290910191820152607d60f81b600d820152600e0195945050505050565b7f646174613a6170706c69636174696f6e2f6a736f6e3b6261736536342c000000815260008251611c7881601d850160208701611de6565b91909101601d0192915050565b6001600160a01b0385811682528416602082015260408101839052608060608201819052600090611cb890830184611aa0565b9695505050505050565b6020815260006117c86020830184611aa0565b60208082526032908201527f4552433732313a207472616e7366657220746f206e6f6e20455243373231526560408201527131b2b4bb32b91034b6b83632b6b2b73a32b960711b606082015260800190565b60208082526031908201527f4552433732313a207472616e736665722063616c6c6572206973206e6f74206f6040820152701ddb995c881b9bdc88185c1c1c9bdd9959607a1b606082015260800190565b60008219821115611d8b57611d8b611e4d565b500190565b600082611dab57634e487b7160e01b81526012600452602481fd5b500490565b6000816000190483118215151615611dca57611dca611e4d565b500290565b600082821015611de157611de1611e4d565b500390565b60005b83811015611e01578181015183820152602001611de9565b838111156106b85750506000910152565b600181811c90821680611e2657607f821691505b60208210811415611e4757634e487b7160e01b600052602260045260246000fd5b50919050565b634e487b7160e01b600052601160045260246000fd5b634e487b7160e01b600052604160045260246000fd5b6001600160e01b031981168114611e8f57600080fd5b5056fe4142434445464748494a4b4c4d4e4f505152535455565758595a6162636465666768696a6b6c6d6e6f707172737475767778797a303132333435363738392b2fa2646970667358221220fc81190ad48134501753b0660e1b282b0265e0c204981680c451e49d073c470a64736f6c63430008040033",
  "linkReferences": {},
  "deployedLinkReferences": {}
}