{
  "_format": "hh-sol-artifact-1",
  "contractName": "RefiCollection",
  "sourceName": "contracts/tokenization/RefiCollection.sol",
  "abi": [
    {
      "inputs": [
        {
          "internalType": "address",
          "name": "lendingPoolAddr",
          "type": "address"
        }
      ],
      "stateMutability": "nonpayable",
      "type": "constructor"
    },
    {
      "anonymous": false,
      "inputs": [
        {
          "indexed": true,
          "internalType": "address",
          "name": "owner",
          "type": "address"
        },
        {
          "indexed": true,
          "internalType": "address",
          "name": "approved",
          "type": "address"
        },
        {
          "indexed": true,
          "internalType": "uint256",
          "name": "tokenId",
          "type": "uint256"
        }
      ],
      "name": "Approval",
      "type": "event"
    },
    {
      "anonymous": false,
      "inputs": [
        {
          "indexed": true,
          "internalType": "address",
          "name": "owner",
          "type": "address"
        },
        {
          "indexed": true,
          "internalType": "address",
          "name": "operator",
          "type": "address"
        },
        {
          "indexed": false,
          "internalType": "bool",
          "name": "approved",
          "type": "bool"
        }
      ],
      "name": "ApprovalForAll",
      "type": "event"
    },
    {
      "anonymous": false,
      "inputs": [
        {
          "indexed": true,
          "internalType": "address",
          "name": "from",
          "type": "address"
        },
        {
          "indexed": true,
          "internalType": "address",
          "name": "to",
          "type": "address"
        },
        {
          "indexed": true,
          "internalType": "uint256",
          "name": "tokenId",
          "type": "uint256"
        }
      ],
      "name": "Transfer",
      "type": "event"
    },
    {
      "inputs": [
        {
          "internalType": "address",
          "name": "to",
          "type": "address"
        },
        {
          "internalType": "uint256",
          "name": "tokenId",
          "type": "uint256"
        }
      ],
      "name": "approve",
      "outputs": [],
      "stateMutability": "nonpayable",
      "type": "function"
    },
    {
      "inputs": [
        {
          "internalType": "address",
          "name": "owner",
          "type": "address"
        }
      ],
      "name": "balanceOf",
      "outputs": [
        {
          "internalType": "uint256",
          "name": "",
          "type": "uint256"
        }
      ],
      "stateMutability": "view",
      "type": "function"
    },
    {
      "inputs": [
        {
          "internalType": "uint256",
          "name": "tokenId",
          "type": "uint256"
        }
      ],
      "name": "getApproved",
      "outputs": [
        {
          "internalType": "address",
          "name": "",
          "type": "address"
        }
      ],
      "stateMutability": "view",
      "type": "function"
    },
    {
      "inputs": [
        {
          "internalType": "address",
          "name": "owner",
          "type": "address"
        }
      ],
      "name": "getTokenId",
      "outputs": [
        {
          "internalType": "uint256",
          "name": "token",
          "type": "uint256"
        }
      ],
      "stateMutability": "view",
      "type": "function"
    },
    {
      "inputs": [
        {
          "internalType": "address",
          "name": "owner",
          "type": "address"
        },
        {
          "internalType": "address",
          "name": "operator",
          "type": "address"
        }
      ],
      "name": "isApprovedForAll",
      "outputs": [
        {
          "internalType": "bool",
          "name": "",
          "type": "bool"
        }
      ],
      "stateMutability": "view",
      "type": "function"
    },
    {
      "inputs": [
        {
          "internalType": "string",
          "name": "_name",
          "type": "string"
        },
        {
          "internalType": "string",
          "name": "_description",
          "type": "string"
        },
        {
          "internalType": "string",
          "name": "_bronzeCardCID",
          "type": "string"
        },
        {
          "internalType": "string",
          "name": "_silverCardCID",
          "type": "string"
        },
        {
          "internalType": "string",
          "name": "_goldCardCID",
          "type": "string"
        },
        {
          "internalType": "string",
          "name": "_platinumCardCID",
          "type": "string"
        }
      ],
      "name": "mint",
      "outputs": [],
      "stateMutability": "nonpayable",
      "type": "function"
    },
    {
      "inputs": [],
      "name": "name",
      "outputs": [
        {
          "internalType": "string",
          "name": "",
          "type": "string"
        }
      ],
      "stateMutability": "view",
      "type": "function"
    },
    {
      "inputs": [
        {
          "internalType": "uint256",
          "name": "tokenId",
          "type": "uint256"
        }
      ],
      "name": "ownerOf",
      "outputs": [
        {
          "internalType": "address",
          "name": "",
          "type": "address"
        }
      ],
      "stateMutability": "view",
      "type": "function"
    },
    {
      "inputs": [],
      "name": "refresh",
      "outputs": [],
      "stateMutability": "nonpayable",
      "type": "function"
    },
    {
      "inputs": [
        {
          "internalType": "address",
          "name": "from",
          "type": "address"
        },
        {
          "internalType": "address",
          "name": "to",
          "type": "address"
        },
        {
          "internalType": "uint256",
          "name": "tokenId",
          "type": "uint256"
        }
      ],
      "name": "safeTransferFrom",
      "outputs": [],
      "stateMutability": "nonpayable",
      "type": "function"
    },
    {
      "inputs": [
        {
          "internalType": "address",
          "name": "from",
          "type": "address"
        },
        {
          "internalType": "address",
          "name": "to",
          "type": "address"
        },
        {
          "internalType": "uint256",
          "name": "tokenId",
          "type": "uint256"
        },
        {
          "internalType": "bytes",
          "name": "_data",
          "type": "bytes"
        }
      ],
      "name": "safeTransferFrom",
      "outputs": [],
      "stateMutability": "nonpayable",
      "type": "function"
    },
    {
      "inputs": [
        {
          "internalType": "address",
          "name": "operator",
          "type": "address"
        },
        {
          "internalType": "bool",
          "name": "approved",
          "type": "bool"
        }
      ],
      "name": "setApprovalForAll",
      "outputs": [],
      "stateMutability": "nonpayable",
      "type": "function"
    },
    {
      "inputs": [
        {
          "internalType": "bytes4",
          "name": "interfaceId",
          "type": "bytes4"
        }
      ],
      "name": "supportsInterface",
      "outputs": [
        {
          "internalType": "bool",
          "name": "",
          "type": "bool"
        }
      ],
      "stateMutability": "view",
      "type": "function"
    },
    {
      "inputs": [],
      "name": "symbol",
      "outputs": [
        {
          "internalType": "string",
          "name": "",
          "type": "string"
        }
      ],
      "stateMutability": "view",
      "type": "function"
    },
    {
      "inputs": [
        {
          "internalType": "uint256",
          "name": "tokenId",
          "type": "uint256"
        }
      ],
      "name": "tokenURI",
      "outputs": [
        {
          "internalType": "string",
          "name": "",
          "type": "string"
        }
      ],
      "stateMutability": "view",
      "type": "function"
    },
    {
      "inputs": [
        {
          "internalType": "address",
          "name": "from",
          "type": "address"
        },
        {
          "internalType": "address",
          "name": "to",
          "type": "address"
        },
        {
          "internalType": "uint256",
          "name": "tokenId",
          "type": "uint256"
        }
      ],
      "name": "transferFrom",
      "outputs": [],
      "stateMutability": "nonpayable",
      "type": "function"
    }
  ],
  "bytecode": "0x60a06040523480156200001157600080fd5b50604051620020f9380380620020f983398101604081905262000034916200015a565b604080518082018252600d81526c1499599a48141c9bdd1bd8dbdb609a1b6020808301918252835180850190945260048452635245464960e01b9084015281519192916200008591600091620000b4565b5080516200009b906001906020840190620000b4565b50505060601b6001600160601b031916608052620001c7565b828054620000c2906200018a565b90600052602060002090601f016020900481019282620000e6576000855562000131565b82601f106200010157805160ff191683800117855562000131565b8280016001018555821562000131579182015b828111156200013157825182559160200191906001019062000114565b506200013f92915062000143565b5090565b5b808211156200013f576000815560010162000144565b6000602082840312156200016c578081fd5b81516001600160a01b038116811462000183578182fd5b9392505050565b600181811c908216806200019f57607f821691505b60208210811415620001c157634e487b7160e01b600052602260045260246000fd5b50919050565b60805160601c611f13620001e66000396000610ca00152611f136000f3fe608060405234801561001057600080fd5b50600436106101005760003560e01c806395d89b4111610097578063e985e9c511610066578063e985e9c51461021d578063ef5f5c0e14610259578063f15376861461026c578063f8ac93e81461018057600080fd5b806395d89b41146101dc578063a22cb465146101e4578063b88d4fde146101f7578063c87b56dd1461020a57600080fd5b806323b872dd116100d357806323b872dd1461018257806342842e0e146101955780636352211e146101a857806370a08231146101bb57600080fd5b806301ffc9a71461010557806306fdde031461012d578063081812fc14610142578063095ea7b31461016d575b600080fd5b61011861011336600461193d565b610295565b60405190151581526020015b60405180910390f35b6101356102e7565b6040516101249190611ccd565b610155610150366004611a93565b610379565b6040516001600160a01b039091168152602001610124565b61018061017b366004611914565b610413565b005b610180610190366004611826565b610529565b6101806101a3366004611826565b61055a565b6101556101b6366004611a93565b610575565b6101ce6101c93660046117da565b6105ec565b604051908152602001610124565b610135610673565b6101806101f23660046118da565b610682565b610180610205366004611861565b610691565b610135610218366004611a93565b6106c9565b61011861022b3660046117f4565b6001600160a01b03918216600090815260056020908152604080832093909416825291909152205460ff1690565b6101806102673660046119a5565b61074b565b6101ce61027a3660046117da565b6001600160a01b031660009081526008602052604090205490565b60006001600160e01b031982166380ac58cd60e01b14806102c657506001600160e01b03198216635b5e139f60e01b145b806102e157506301ffc9a760e01b6001600160e01b03198316145b92915050565b6060600080546102f690611e1d565b80601f016020809104026020016040519081016040528092919081815260200182805461032290611e1d565b801561036f5780601f106103445761010080835404028352916020019161036f565b820191906000526020600020905b81548152906001019060200180831161035257829003601f168201915b5050505050905090565b6000818152600260205260408120546001600160a01b03166103f75760405162461bcd60e51b815260206004820152602c60248201527f4552433732313a20617070726f76656420717565727920666f72206e6f6e657860448201526b34b9ba32b73a103a37b5b2b760a11b60648201526084015b60405180910390fd5b506000908152600460205260409020546001600160a01b031690565b600061041e82610575565b9050806001600160a01b0316836001600160a01b0316141561048c5760405162461bcd60e51b815260206004820152602160248201527f4552433732313a20617070726f76616c20746f2063757272656e74206f776e656044820152603960f91b60648201526084016103ee565b336001600160a01b03821614806104a857506104a8813361022b565b61051a5760405162461bcd60e51b815260206004820152603860248201527f4552433732313a20617070726f76652063616c6c6572206973206e6f74206f7760448201527f6e6572206e6f7220617070726f76656420666f7220616c6c000000000000000060648201526084016103ee565b6105248383610869565b505050565b61053333826108d7565b61054f5760405162461bcd60e51b81526004016103ee90611d32565b6105248383836109ce565b61052483838360405180602001604052806000815250610691565b6000818152600260205260408120546001600160a01b0316806102e15760405162461bcd60e51b815260206004820152602960248201527f4552433732313a206f776e657220717565727920666f72206e6f6e657869737460448201526832b73a103a37b5b2b760b91b60648201526084016103ee565b60006001600160a01b0382166106575760405162461bcd60e51b815260206004820152602a60248201527f4552433732313a2062616c616e636520717565727920666f7220746865207a65604482015269726f206164647265737360b01b60648201526084016103ee565b506001600160a01b031660009081526003602052604090205490565b6060600180546102f690611e1d565b61068d338383610b79565b5050565b61069b33836108d7565b6106b75760405162461bcd60e51b81526004016103ee90611d32565b6106c384848484610c48565b50505050565b606060006106d683610575565b60008481526007602052604081209192509061072090600181016106fa8786610c7b565b60405160200161070c93929190611bac565b604051602081830303815290604052611196565b9050806040516020016107339190611c4b565b60405160208183030381529060405292505050919050565b610759600680546001019055565b600061076460065490565b9050610770338261130a565b6040805160c0810182528881526020808201899052818301889052606082018790526080820186905260a082018590526000848152600782529290922081518051929391926107c29284920190611689565b5060208281015180516107db9260018501920190611689565b50604082015180516107f7916002840191602090910190611689565b5060608201518051610813916003840191602090910190611689565b506080820151805161082f916004840191602090910190611689565b5060a0820151805161084b916005840191602090910190611689565b50503360009081526008602052604090209190915550505050505050565b600081815260046020526040902080546001600160a01b0319166001600160a01b038416908117909155819061089e82610575565b6001600160a01b03167f8c5be1e5ebec7d5bd14f71427d1e84f3dd0314c0f7b2291e5b200ac8c7c3b92560405160405180910390a45050565b6000818152600260205260408120546001600160a01b03166109505760405162461bcd60e51b815260206004820152602c60248201527f4552433732313a206f70657261746f7220717565727920666f72206e6f6e657860448201526b34b9ba32b73a103a37b5b2b760a11b60648201526084016103ee565b600061095b83610575565b9050806001600160a01b0316846001600160a01b031614806109965750836001600160a01b031661098b84610379565b6001600160a01b0316145b806109c657506001600160a01b0380821660009081526005602090815260408083209388168352929052205460ff165b949350505050565b826001600160a01b03166109e182610575565b6001600160a01b031614610a495760405162461bcd60e51b815260206004820152602960248201527f4552433732313a207472616e73666572206f6620746f6b656e2074686174206960448201526839903737ba1037bbb760b91b60648201526084016103ee565b6001600160a01b038216610aab5760405162461bcd60e51b8152602060048201526024808201527f4552433732313a207472616e7366657220746f20746865207a65726f206164646044820152637265737360e01b60648201526084016103ee565b610ab6838383611324565b610ac1600082610869565b6001600160a01b0383166000908152600360205260408120805460019290610aea908490611dda565b90915550506001600160a01b0382166000908152600360205260408120805460019290610b18908490611d83565b909155505060008181526002602052604080822080546001600160a01b0319166001600160a01b0386811691821790925591518493918716917fddf252ad1be2c89b69c2b068fc378daa952ba7f163c4a11628f55a4df523b3ef91a4505050565b816001600160a01b0316836001600160a01b03161415610bdb5760405162461bcd60e51b815260206004820152601960248201527f4552433732313a20617070726f766520746f2063616c6c65720000000000000060448201526064016103ee565b6001600160a01b03838116600081815260056020908152604080832094871680845294825291829020805460ff191686151590811790915591519182527f17307eab39ab6107e8899845ad3d59bd9653f200f220920489ca2b5937696c31910160405180910390a3505050565b610c538484846109ce565b610c5f848484846113fb565b6106c35760405162461bcd60e51b81526004016103ee90611ce0565b604051631f73522760e01b81526001600160a01b0382811660048301526060916000917f00000000000000000000000000000000000000000000000000000000000000001690631f73522790602401604080518083038186803b158015610ce157600080fd5b505afa158015610cf5573d6000803e3d6000fd5b505050506040513d601f19601f82011682018060405250810190610d199190611975565b5090506000600760008681526020019081526020016000206040518060c0016040529081600082018054610d4c90611e1d565b80601f0160208091040260200160405190810160405280929190818152602001828054610d7890611e1d565b8015610dc55780601f10610d9a57610100808354040283529160200191610dc5565b820191906000526020600020905b815481529060010190602001808311610da857829003601f168201915b50505050508152602001600182018054610dde90611e1d565b80601f0160208091040260200160405190810160405280929190818152602001828054610e0a90611e1d565b8015610e575780601f10610e2c57610100808354040283529160200191610e57565b820191906000526020600020905b815481529060010190602001808311610e3a57829003601f168201915b50505050508152602001600282018054610e7090611e1d565b80601f0160208091040260200160405190810160405280929190818152602001828054610e9c90611e1d565b8015610ee95780601f10610ebe57610100808354040283529160200191610ee9565b820191906000526020600020905b815481529060010190602001808311610ecc57829003601f168201915b50505050508152602001600382018054610f0290611e1d565b80601f0160208091040260200160405190810160405280929190818152602001828054610f2e90611e1d565b8015610f7b5780601f10610f5057610100808354040283529160200191610f7b565b820191906000526020600020905b815481529060010190602001808311610f5e57829003601f168201915b50505050508152602001600482018054610f9490611e1d565b80601f0160208091040260200160405190810160405280929190818152602001828054610fc090611e1d565b801561100d5780601f10610fe25761010080835404028352916020019161100d565b820191906000526020600020905b815481529060010190602001808311610ff057829003601f168201915b5050505050815260200160058201805461102690611e1d565b80601f016020809104026020016040519081016040528092919081815260200182805461105290611e1d565b801561109f5780601f106110745761010080835404028352916020019161109f565b820191906000526020600020905b81548152906001019060200180831161108257829003601f168201915b50505050508152505090506060600060038111156110cd57634e487b7160e01b600052602160045260246000fd5b8360038111156110ed57634e487b7160e01b600052602160045260246000fd5b14156110fe575060a081015161116b565b600183600381111561112057634e487b7160e01b600052602160045260246000fd5b14156111315750608081015161116b565b600283600381111561115357634e487b7160e01b600052602160045260246000fd5b14156111645750606081015161116b565b5060408101515b8060405160200161117c9190611b6f565b604051602081830303815290604052935050505092915050565b60608151600014156111b657505060408051602081019091526000815290565b6000604051806060016040528060408152602001611e9e60409139905060006003845160026111e59190611d83565b6111ef9190611d9b565b6111fa906004611dbb565b90506000611209826020611d83565b67ffffffffffffffff81111561122f57634e487b7160e01b600052604160045260246000fd5b6040519080825280601f01601f191660200182016040528015611259576020820181803683370190505b509050818152600183018586518101602084015b818310156112c5576003830192508251603f8160121c168501518253600182019150603f81600c1c168501518253600182019150603f8160061c168501518253600182019150603f811685015182535060010161126d565b6003895106600181146112df57600281146112f0576112fc565b613d3d60f01b6001198301526112fc565b603d60f81b6000198301525b509398975050505050505050565b61068d828260405180602001604052806000815250611508565b6001600160a01b038316156113ac5760405162461bcd60e51b815260206004820152604260248201527f4f6e6c79206d696e74696e6720697320616c6c6f7765642e205468657365204e60448201527f4654732063616e2774206265206275726e6564206f72207472616e7366657272606482015261195960f21b608482015260a4016103ee565b6113b5826105ec565b156105245760405162461bcd60e51b815260206004820152601660248201527527b7363c9037b7329031b0b932103832b9103ab9b2b960511b60448201526064016103ee565b60006001600160a01b0384163b156114fd57604051630a85bd0160e11b81526001600160a01b0385169063150b7a029061143f903390899088908890600401611c90565b602060405180830381600087803b15801561145957600080fd5b505af1925050508015611489575060408051601f3d908101601f1916820190925261148691810190611959565b60015b6114e3573d8080156114b7576040519150601f19603f3d011682016040523d82523d6000602084013e6114bc565b606091505b5080516114db5760405162461bcd60e51b81526004016103ee90611ce0565b805181602001fd5b6001600160e01b031916630a85bd0160e11b1490506109c6565b506001949350505050565b611512838361153b565b61151f60008484846113fb565b6105245760405162461bcd60e51b81526004016103ee90611ce0565b6001600160a01b0382166115915760405162461bcd60e51b815260206004820181905260248201527f4552433732313a206d696e7420746f20746865207a65726f206164647265737360448201526064016103ee565b6000818152600260205260409020546001600160a01b0316156115f65760405162461bcd60e51b815260206004820152601c60248201527f4552433732313a20746f6b656e20616c7265616479206d696e7465640000000060448201526064016103ee565b61160260008383611324565b6001600160a01b038216600090815260036020526040812080546001929061162b908490611d83565b909155505060008181526002602052604080822080546001600160a01b0319166001600160a01b03861690811790915590518392907fddf252ad1be2c89b69c2b068fc378daa952ba7f163c4a11628f55a4df523b3ef908290a45050565b82805461169590611e1d565b90600052602060002090601f0160209004810192826116b757600085556116fd565b82601f106116d057805160ff19168380011785556116fd565b828001600101855582156116fd579182015b828111156116fd5782518255916020019190600101906116e2565b5061170992915061170d565b5090565b5b80821115611709576000815560010161170e565b600067ffffffffffffffff8084111561173d5761173d611e6e565b604051601f8501601f19908116603f0116810190828211818310171561176557611765611e6e565b8160405280935085815286868601111561177e57600080fd5b858560208301376000602087830101525050509392505050565b80356001600160a01b03811681146117af57600080fd5b919050565b600082601f8301126117c4578081fd5b6117d383833560208501611722565b9392505050565b6000602082840312156117eb578081fd5b6117d382611798565b60008060408385031215611806578081fd5b61180f83611798565b915061181d60208401611798565b90509250929050565b60008060006060848603121561183a578081fd5b61184384611798565b925061185160208501611798565b9150604084013590509250925092565b60008060008060808587031215611876578081fd5b61187f85611798565b935061188d60208601611798565b925060408501359150606085013567ffffffffffffffff8111156118af578182fd5b8501601f810187136118bf578182fd5b6118ce87823560208401611722565b91505092959194509250565b600080604083850312156118ec578182fd5b6118f583611798565b915060208301358015158114611909578182fd5b809150509250929050565b60008060408385031215611926578182fd5b61192f83611798565b946020939093013593505050565b60006020828403121561194e578081fd5b81356117d381611e84565b60006020828403121561196a578081fd5b81516117d381611e84565b60008060408385031215611987578182fd5b825160048110611995578283fd5b6020939093015192949293505050565b60008060008060008060c087890312156119bd578182fd5b863567ffffffffffffffff808211156119d4578384fd5b6119e08a838b016117b4565b975060208901359150808211156119f5578384fd5b611a018a838b016117b4565b96506040890135915080821115611a16578384fd5b611a228a838b016117b4565b95506060890135915080821115611a37578384fd5b611a438a838b016117b4565b94506080890135915080821115611a58578384fd5b611a648a838b016117b4565b935060a0890135915080821115611a79578283fd5b50611a8689828a016117b4565b9150509295509295509295565b600060208284031215611aa4578081fd5b5035919050565b60008151808452611ac3816020860160208601611df1565b601f01601f19169290920160200192915050565b8054600090600181811c9080831680611af157607f831692505b6020808410821415611b1157634e487b7160e01b86526022600452602486fd5b818015611b255760018114611b3657611b63565b60ff19861689528489019650611b63565b60008881526020902060005b86811015611b5b5781548b820152908501908301611b42565b505084890196505b50505050505092915050565b7468747470733a2f2f697066732e696f2f697066732f60581b815260008251611b9f816015850160208701611df1565b9190910160150192915050565b693d913730b6b2911d101160b11b81526000611bcb600a830186611ad7565b61088b60f21b8082526f113232b9b1b934b83a34b7b7111d101160811b6002830152611bfa6012830187611ad7565b908152691134b6b0b3b2911d101160b11b60028201528451909150611c2681600c840160208801611df1565b601160f91b600c9290910191820152607d60f81b600d820152600e0195945050505050565b7f646174613a6170706c69636174696f6e2f6a736f6e3b6261736536342c000000815260008251611c8381601d850160208701611df1565b91909101601d0192915050565b6001600160a01b0385811682528416602082015260408101839052608060608201819052600090611cc390830184611aab565b9695505050505050565b6020815260006117d36020830184611aab565b60208082526032908201527f4552433732313a207472616e7366657220746f206e6f6e20455243373231526560408201527131b2b4bb32b91034b6b83632b6b2b73a32b960711b606082015260800190565b60208082526031908201527f4552433732313a207472616e736665722063616c6c6572206973206e6f74206f6040820152701ddb995c881b9bdc88185c1c1c9bdd9959607a1b606082015260800190565b60008219821115611d9657611d96611e58565b500190565b600082611db657634e487b7160e01b81526012600452602481fd5b500490565b6000816000190483118215151615611dd557611dd5611e58565b500290565b600082821015611dec57611dec611e58565b500390565b60005b83811015611e0c578181015183820152602001611df4565b838111156106c35750506000910152565b600181811c90821680611e3157607f821691505b60208210811415611e5257634e487b7160e01b600052602260045260246000fd5b50919050565b634e487b7160e01b600052601160045260246000fd5b634e487b7160e01b600052604160045260246000fd5b6001600160e01b031981168114611e9a57600080fd5b5056fe4142434445464748494a4b4c4d4e4f505152535455565758595a6162636465666768696a6b6c6d6e6f707172737475767778797a303132333435363738392b2fa2646970667358221220ffad7be3b33f893026103215558f85b07f056869e2604434d2f8de0a51fe6f2664736f6c63430008040033",
  "linkReferences": {},
  "deployedLinkReferences": {}
}