{
  "_format": "hh-sol-artifact-1",
  "contractName": "RefiCollection",
  "sourceName": "contracts/tokenization/RefiCollection.sol",
  "abi": [
    {
      "inputs": [
        {
          "internalType": "address",
          "name": "lendingPoolAddr",
          "type": "address"
        },
        {
          "internalType": "address",
          "name": "addressesProviderAddr",
          "type": "address"
        }
      ],
      "stateMutability": "nonpayable",
      "type": "constructor"
    },
    {
      "anonymous": false,
      "inputs": [
        {
          "indexed": true,
          "internalType": "address",
          "name": "owner",
          "type": "address"
        },
        {
          "indexed": true,
          "internalType": "address",
          "name": "approved",
          "type": "address"
        },
        {
          "indexed": true,
          "internalType": "uint256",
          "name": "tokenId",
          "type": "uint256"
        }
      ],
      "name": "Approval",
      "type": "event"
    },
    {
      "anonymous": false,
      "inputs": [
        {
          "indexed": true,
          "internalType": "address",
          "name": "owner",
          "type": "address"
        },
        {
          "indexed": true,
          "internalType": "address",
          "name": "operator",
          "type": "address"
        },
        {
          "indexed": false,
          "internalType": "bool",
          "name": "approved",
          "type": "bool"
        }
      ],
      "name": "ApprovalForAll",
      "type": "event"
    },
    {
      "anonymous": false,
      "inputs": [
        {
          "indexed": true,
          "internalType": "address",
          "name": "from",
          "type": "address"
        },
        {
          "indexed": true,
          "internalType": "address",
          "name": "to",
          "type": "address"
        },
        {
          "indexed": true,
          "internalType": "uint256",
          "name": "tokenId",
          "type": "uint256"
        }
      ],
      "name": "Transfer",
      "type": "event"
    },
    {
      "inputs": [
        {
          "internalType": "address",
          "name": "to",
          "type": "address"
        },
        {
          "internalType": "uint256",
          "name": "tokenId",
          "type": "uint256"
        }
      ],
      "name": "approve",
      "outputs": [],
      "stateMutability": "nonpayable",
      "type": "function"
    },
    {
      "inputs": [
        {
          "internalType": "address",
          "name": "owner",
          "type": "address"
        }
      ],
      "name": "balanceOf",
      "outputs": [
        {
          "internalType": "uint256",
          "name": "",
          "type": "uint256"
        }
      ],
      "stateMutability": "view",
      "type": "function"
    },
    {
      "inputs": [
        {
          "internalType": "uint256",
          "name": "tokenId",
          "type": "uint256"
        }
      ],
      "name": "getApproved",
      "outputs": [
        {
          "internalType": "address",
          "name": "",
          "type": "address"
        }
      ],
      "stateMutability": "view",
      "type": "function"
    },
    {
      "inputs": [
        {
          "internalType": "address",
          "name": "user",
          "type": "address"
        }
      ],
      "name": "getBorrowLimit",
      "outputs": [
        {
          "internalType": "uint256",
          "name": "availableBorrowsETH",
          "type": "uint256"
        }
      ],
      "stateMutability": "view",
      "type": "function"
    },
    {
      "inputs": [
        {
          "internalType": "address",
          "name": "owner",
          "type": "address"
        }
      ],
      "name": "getTokenId",
      "outputs": [
        {
          "internalType": "uint256",
          "name": "token",
          "type": "uint256"
        }
      ],
      "stateMutability": "view",
      "type": "function"
    },
    {
      "inputs": [
        {
          "internalType": "address",
          "name": "owner",
          "type": "address"
        },
        {
          "internalType": "address",
          "name": "operator",
          "type": "address"
        }
      ],
      "name": "isApprovedForAll",
      "outputs": [
        {
          "internalType": "bool",
          "name": "",
          "type": "bool"
        }
      ],
      "stateMutability": "view",
      "type": "function"
    },
    {
      "inputs": [
        {
          "internalType": "string",
          "name": "_description",
          "type": "string"
        },
        {
          "internalType": "string",
          "name": "_bronzeCardCID",
          "type": "string"
        },
        {
          "internalType": "string",
          "name": "_silverCardCID",
          "type": "string"
        },
        {
          "internalType": "string",
          "name": "_goldCardCID",
          "type": "string"
        },
        {
          "internalType": "string",
          "name": "_platinumCardCID",
          "type": "string"
        }
      ],
      "name": "mint",
      "outputs": [],
      "stateMutability": "nonpayable",
      "type": "function"
    },
    {
      "inputs": [],
      "name": "name",
      "outputs": [
        {
          "internalType": "string",
          "name": "",
          "type": "string"
        }
      ],
      "stateMutability": "view",
      "type": "function"
    },
    {
      "inputs": [
        {
          "internalType": "uint256",
          "name": "tokenId",
          "type": "uint256"
        }
      ],
      "name": "ownerOf",
      "outputs": [
        {
          "internalType": "address",
          "name": "",
          "type": "address"
        }
      ],
      "stateMutability": "view",
      "type": "function"
    },
    {
      "inputs": [
        {
          "internalType": "uint256",
          "name": "amount",
          "type": "uint256"
        },
        {
          "internalType": "address",
          "name": "toRecieve",
          "type": "address"
        }
      ],
      "name": "payETHUsingCard",
      "outputs": [],
      "stateMutability": "nonpayable",
      "type": "function"
    },
    {
      "inputs": [
        {
          "internalType": "address",
          "name": "asset",
          "type": "address"
        },
        {
          "internalType": "uint256",
          "name": "amount",
          "type": "uint256"
        },
        {
          "internalType": "address",
          "name": "toRecieve",
          "type": "address"
        }
      ],
      "name": "payUsingCard",
      "outputs": [],
      "stateMutability": "nonpayable",
      "type": "function"
    },
    {
      "inputs": [],
      "name": "refresh",
      "outputs": [],
      "stateMutability": "nonpayable",
      "type": "function"
    },
    {
      "inputs": [
        {
          "internalType": "address",
          "name": "from",
          "type": "address"
        },
        {
          "internalType": "address",
          "name": "to",
          "type": "address"
        },
        {
          "internalType": "uint256",
          "name": "tokenId",
          "type": "uint256"
        }
      ],
      "name": "safeTransferFrom",
      "outputs": [],
      "stateMutability": "nonpayable",
      "type": "function"
    },
    {
      "inputs": [
        {
          "internalType": "address",
          "name": "from",
          "type": "address"
        },
        {
          "internalType": "address",
          "name": "to",
          "type": "address"
        },
        {
          "internalType": "uint256",
          "name": "tokenId",
          "type": "uint256"
        },
        {
          "internalType": "bytes",
          "name": "_data",
          "type": "bytes"
        }
      ],
      "name": "safeTransferFrom",
      "outputs": [],
      "stateMutability": "nonpayable",
      "type": "function"
    },
    {
      "inputs": [
        {
          "internalType": "address",
          "name": "operator",
          "type": "address"
        },
        {
          "internalType": "bool",
          "name": "approved",
          "type": "bool"
        }
      ],
      "name": "setApprovalForAll",
      "outputs": [],
      "stateMutability": "nonpayable",
      "type": "function"
    },
    {
      "inputs": [
        {
          "internalType": "bytes4",
          "name": "interfaceId",
          "type": "bytes4"
        }
      ],
      "name": "supportsInterface",
      "outputs": [
        {
          "internalType": "bool",
          "name": "",
          "type": "bool"
        }
      ],
      "stateMutability": "view",
      "type": "function"
    },
    {
      "inputs": [],
      "name": "symbol",
      "outputs": [
        {
          "internalType": "string",
          "name": "",
          "type": "string"
        }
      ],
      "stateMutability": "view",
      "type": "function"
    },
    {
      "inputs": [
        {
          "internalType": "uint256",
          "name": "tokenId",
          "type": "uint256"
        }
      ],
      "name": "tokenURI",
      "outputs": [
        {
          "internalType": "string",
          "name": "",
          "type": "string"
        }
      ],
      "stateMutability": "view",
      "type": "function"
    },
    {
      "inputs": [
        {
          "internalType": "address",
          "name": "from",
          "type": "address"
        },
        {
          "internalType": "address",
          "name": "to",
          "type": "address"
        },
        {
          "internalType": "uint256",
          "name": "tokenId",
          "type": "uint256"
        }
      ],
      "name": "transferFrom",
      "outputs": [],
      "stateMutability": "nonpayable",
      "type": "function"
    },
    {
      "stateMutability": "payable",
      "type": "receive"
    }
  ],
  "bytecode": "0x60c06040523480156200001157600080fd5b50604051620027cc380380620027cc833981016040819052620000349162000180565b604080518082018252600d81526c1499599a48141c9bdd1bd8dbdb609a1b6020808301918252835180850190945260048452635245464960e01b9084015281519192916200008591600091620000bd565b5080516200009b906001906020840190620000bd565b5050506001600160601b0319606092831b8116608052911b1660a052620001f4565b828054620000cb90620001b7565b90600052602060002090601f016020900481019282620000ef57600085556200013a565b82601f106200010a57805160ff19168380011785556200013a565b828001600101855582156200013a579182015b828111156200013a5782518255916020019190600101906200011d565b50620001489291506200014c565b5090565b5b808211156200014857600081556001016200014d565b80516001600160a01b03811681146200017b57600080fd5b919050565b6000806040838503121562000193578182fd5b6200019e8362000163565b9150620001ae6020840162000163565b90509250929050565b600181811c90821680620001cc57607f821691505b60208210811415620001ee57634e487b7160e01b600052602260045260246000fd5b50919050565b60805160601c60a05160601c61259e6200022e600039600061070901526000818161089001528181610aaf0152611258015261259e6000f3fe6080604052600436106101185760003560e01c806370a08231116100a0578063b88d4fde11610064578063b88d4fde14610318578063c87b56dd14610338578063e985e9c514610358578063f1537686146103a1578063f8ac93e8146103d757600080fd5b806370a08231146102755780637c17d237146102a357806386833e91146102c357806395d89b41146102e3578063a22cb465146102f857600080fd5b806323b872dd116100e757806323b872dd146101d557806339c5a921146101f55780633d1a39e51461021557806342842e0e146102355780636352211e1461025557600080fd5b806301ffc9a71461012457806306fdde0314610159578063081812fc1461017b578063095ea7b3146101b357600080fd5b3661011f57005b600080fd5b34801561013057600080fd5b5061014461013f366004611f3e565b6103e6565b60405190151581526020015b60405180910390f35b34801561016557600080fd5b5061016e610438565b6040516101509190612335565b34801561018757600080fd5b5061019b610196366004612072565b6104ca565b6040516001600160a01b039091168152602001610150565b3480156101bf57600080fd5b506101d36101ce366004611eb6565b610564565b005b3480156101e157600080fd5b506101d36101f0366004611dcc565b61067a565b34801561020157600080fd5b506101d361021036600461208a565b6106ab565b34801561022157600080fd5b506101d3610230366004611ee1565b610808565b34801561024157600080fd5b506101d3610250366004611dcc565b610974565b34801561026157600080fd5b5061019b610270366004612072565b61098f565b34801561028157600080fd5b50610295610290366004611d5c565b610a06565b604051908152602001610150565b3480156102af57600080fd5b506102956102be366004611d5c565b610a8d565b3480156102cf57600080fd5b506101d36102de366004611fa6565b610b37565b3480156102ef57600080fd5b5061016e610c80565b34801561030457600080fd5b506101d3610313366004611e89565b610c8f565b34801561032457600080fd5b506101d3610333366004611e0c565b610c9a565b34801561034457600080fd5b5061016e610353366004612072565b610ccc565b34801561036457600080fd5b50610144610373366004611d94565b6001600160a01b03918216600090815260056020908152604080832093909416825291909152205460ff1690565b3480156103ad57600080fd5b506102956103bc366004611d5c565b6001600160a01b031660009081526008602052604090205490565b3480156103e357600080fd5b50005b60006001600160e01b031982166380ac58cd60e01b148061041757506001600160e01b03198216635b5e139f60e01b145b8061043257506301ffc9a760e01b6001600160e01b03198316145b92915050565b60606000805461044790612485565b80601f016020809104026020016040519081016040528092919081815260200182805461047390612485565b80156104c05780601f10610495576101008083540402835291602001916104c0565b820191906000526020600020905b8154815290600101906020018083116104a357829003601f168201915b5050505050905090565b6000818152600260205260408120546001600160a01b03166105485760405162461bcd60e51b815260206004820152602c60248201527f4552433732313a20617070726f76656420717565727920666f72206e6f6e657860448201526b34b9ba32b73a103a37b5b2b760a11b60648201526084015b60405180910390fd5b506000908152600460205260409020546001600160a01b031690565b600061056f8261098f565b9050806001600160a01b0316836001600160a01b031614156105dd5760405162461bcd60e51b815260206004820152602160248201527f4552433732313a20617070726f76616c20746f2063757272656e74206f776e656044820152603960f91b606482015260840161053f565b336001600160a01b03821614806105f957506105f98133610373565b61066b5760405162461bcd60e51b815260206004820152603860248201527f4552433732313a20617070726f76652063616c6c6572206973206e6f74206f7760448201527f6e6572206e6f7220617070726f76656420666f7220616c6c0000000000000000606482015260840161053f565b6106758383610d4e565b505050565b6106843382610dbc565b6106a05760405162461bcd60e51b815260040161053f9061239a565b610675838383610eb3565b336000908152600860205260409020546107075760405162461bcd60e51b815260206004820152601a60248201527f43616c6c657220646f65736e2774206861766520612063617264000000000000604482015260640161053f565b7f00000000000000000000000000000000000000000000000000000000000000006001600160a01b03166377532ed96040518163ffffffff1660e01b815260040160206040518083038186803b15801561076057600080fd5b505afa158015610774573d6000803e3d6000fd5b505050506040513d601f19601f820116820180604052508101906107989190611d78565b60405163ad2843df60e01b8152600481018490523360248201526001600160a01b03919091169063ad2843df90604401600060405180830381600087803b1580156107e257600080fd5b505af11580156107f6573d6000803e3d6000fd5b50505050610804818361105a565b5050565b336000908152600860205260409020546108645760405162461bcd60e51b815260206004820152601a60248201527f43616c6c657220646f65736e2774206861766520612063617264000000000000604482015260640161053f565b604051636c665a5560e01b81526001600160a01b038481166004830152602482018490523360448301527f00000000000000000000000000000000000000000000000000000000000000001690636c665a5590606401600060405180830381600087803b1580156108d457600080fd5b505af11580156108e8573d6000803e3d6000fd5b505060405163a9059cbb60e01b81526001600160a01b038481166004830152602482018690528616925063a9059cbb9150604401602060405180830381600087803b15801561093657600080fd5b505af115801561094a573d6000803e3d6000fd5b505050506040513d601f19601f8201168201806040525081019061096e9190611f22565b50505050565b61067583838360405180602001604052806000815250610c9a565b6000818152600260205260408120546001600160a01b0316806104325760405162461bcd60e51b815260206004820152602960248201527f4552433732313a206f776e657220717565727920666f72206e6f6e657869737460448201526832b73a103a37b5b2b760b91b606482015260840161053f565b60006001600160a01b038216610a715760405162461bcd60e51b815260206004820152602a60248201527f4552433732313a2062616c616e636520717565727920666f7220746865207a65604482015269726f206164647265737360b01b606482015260840161053f565b506001600160a01b031660009081526003602052604090205490565b604051632fe4a15f60e21b81526001600160a01b0382811660048301526000917f00000000000000000000000000000000000000000000000000000000000000009091169063bf92857c9060240160c06040518083038186803b158015610af357600080fd5b505afa158015610b07573d6000803e3d6000fd5b505050506040513d601f19601f82011682018060405250810190610b2b91906120ae565b50919695505050505050565b610b45600680546001019055565b6000610b5060065490565b9050610b5c3382611117565b6040805160c0810182526a526566692043617264202360a81b60e082015260eb8082018490528251808303909101815261010b8201835281526020808201899052818301889052606082018790526080820186905260a08201859052600084815260078252929092208151805192939192610bda9284920190611c27565b506020828101518051610bf39260018501920190611c27565b5060408201518051610c0f916002840191602090910190611c27565b5060608201518051610c2b916003840191602090910190611c27565b5060808201518051610c47916004840191602090910190611c27565b5060a08201518051610c63916005840191602090910190611c27565b505033600090815260086020526040902091909155505050505050565b60606001805461044790612485565b610804338383611131565b610ca43383610dbc565b610cc05760405162461bcd60e51b815260040161053f9061239a565b61096e84848484611200565b60606000610cd98361098f565b600084815260076020526040812091925090610d239060018101610cfd8786611233565b604051602001610d0f93929190612214565b60405160208183030381529060405261174e565b905080604051602001610d3691906122b3565b60405160208183030381529060405292505050919050565b600081815260046020526040902080546001600160a01b0319166001600160a01b0384169081179091558190610d838261098f565b6001600160a01b03167f8c5be1e5ebec7d5bd14f71427d1e84f3dd0314c0f7b2291e5b200ac8c7c3b92560405160405180910390a45050565b6000818152600260205260408120546001600160a01b0316610e355760405162461bcd60e51b815260206004820152602c60248201527f4552433732313a206f70657261746f7220717565727920666f72206e6f6e657860448201526b34b9ba32b73a103a37b5b2b760a11b606482015260840161053f565b6000610e408361098f565b9050806001600160a01b0316846001600160a01b03161480610e7b5750836001600160a01b0316610e70846104ca565b6001600160a01b0316145b80610eab57506001600160a01b0380821660009081526005602090815260408083209388168352929052205460ff165b949350505050565b826001600160a01b0316610ec68261098f565b6001600160a01b031614610f2a5760405162461bcd60e51b815260206004820152602560248201527f4552433732313a207472616e736665722066726f6d20696e636f72726563742060448201526437bbb732b960d91b606482015260840161053f565b6001600160a01b038216610f8c5760405162461bcd60e51b8152602060048201526024808201527f4552433732313a207472616e7366657220746f20746865207a65726f206164646044820152637265737360e01b606482015260840161053f565b610f978383836118c2565b610fa2600082610d4e565b6001600160a01b0383166000908152600360205260408120805460019290610fcb908490612442565b90915550506001600160a01b0382166000908152600360205260408120805460019290610ff99084906123eb565b909155505060008181526002602052604080822080546001600160a01b0319166001600160a01b0386811691821790925591518493918716917fddf252ad1be2c89b69c2b068fc378daa952ba7f163c4a11628f55a4df523b3ef91a4505050565b604080516000808252602082019092526001600160a01b03841690839060405161108491906121bb565b60006040518083038185875af1925050503d80600081146110c1576040519150601f19603f3d011682016040523d82523d6000602084013e6110c6565b606091505b50509050806106755760405162461bcd60e51b815260206004820152601860248201527f434152445f4554485f5452414e534645525f4641494c45440000000000000000604482015260640161053f565b610804828260405180602001604052806000815250611999565b816001600160a01b0316836001600160a01b031614156111935760405162461bcd60e51b815260206004820152601960248201527f4552433732313a20617070726f766520746f2063616c6c657200000000000000604482015260640161053f565b6001600160a01b03838116600081815260056020908152604080832094871680845294825291829020805460ff191686151590811790915591519182527f17307eab39ab6107e8899845ad3d59bd9653f200f220920489ca2b5937696c31910160405180910390a3505050565b61120b848484610eb3565b611217848484846119cc565b61096e5760405162461bcd60e51b815260040161053f90612348565b604051631f73522760e01b81526001600160a01b0382811660048301526060916000917f00000000000000000000000000000000000000000000000000000000000000001690631f73522790602401604080518083038186803b15801561129957600080fd5b505afa1580156112ad573d6000803e3d6000fd5b505050506040513d601f19601f820116820180604052508101906112d19190611f76565b5090506000600760008681526020019081526020016000206040518060c001604052908160008201805461130490612485565b80601f016020809104026020016040519081016040528092919081815260200182805461133090612485565b801561137d5780601f106113525761010080835404028352916020019161137d565b820191906000526020600020905b81548152906001019060200180831161136057829003601f168201915b5050505050815260200160018201805461139690612485565b80601f01602080910402602001604051908101604052809291908181526020018280546113c290612485565b801561140f5780601f106113e45761010080835404028352916020019161140f565b820191906000526020600020905b8154815290600101906020018083116113f257829003601f168201915b5050505050815260200160028201805461142890612485565b80601f016020809104026020016040519081016040528092919081815260200182805461145490612485565b80156114a15780601f10611476576101008083540402835291602001916114a1565b820191906000526020600020905b81548152906001019060200180831161148457829003601f168201915b505050505081526020016003820180546114ba90612485565b80601f01602080910402602001604051908101604052809291908181526020018280546114e690612485565b80156115335780601f1061150857610100808354040283529160200191611533565b820191906000526020600020905b81548152906001019060200180831161151657829003601f168201915b5050505050815260200160048201805461154c90612485565b80601f016020809104026020016040519081016040528092919081815260200182805461157890612485565b80156115c55780601f1061159a576101008083540402835291602001916115c5565b820191906000526020600020905b8154815290600101906020018083116115a857829003601f168201915b505050505081526020016005820180546115de90612485565b80601f016020809104026020016040519081016040528092919081815260200182805461160a90612485565b80156116575780601f1061162c57610100808354040283529160200191611657565b820191906000526020600020905b81548152906001019060200180831161163a57829003601f168201915b505050505081525050905060606000600381111561168557634e487b7160e01b600052602160045260246000fd5b8360038111156116a557634e487b7160e01b600052602160045260246000fd5b14156116b6575060a0810151611723565b60018360038111156116d857634e487b7160e01b600052602160045260246000fd5b14156116e957506080810151611723565b600283600381111561170b57634e487b7160e01b600052602160045260246000fd5b141561171c57506060810151611723565b5060408101515b8060405160200161173491906121d7565b604051602081830303815290604052935050505092915050565b606081516000141561176e57505060408051602081019091526000815290565b6000604051806060016040528060408152602001612529604091399050600060038451600261179d91906123eb565b6117a79190612403565b6117b2906004612423565b905060006117c18260206123eb565b67ffffffffffffffff8111156117e757634e487b7160e01b600052604160045260246000fd5b6040519080825280601f01601f191660200182016040528015611811576020820181803683370190505b509050818152600183018586518101602084015b8183101561187d576003830192508251603f8160121c168501518253600182019150603f81600c1c168501518253600182019150603f8160061c168501518253600182019150603f8116850151825350600101611825565b60038951066001811461189757600281146118a8576118b4565b613d3d60f01b6001198301526118b4565b603d60f81b6000198301525b509398975050505050505050565b6001600160a01b0383161561194a5760405162461bcd60e51b815260206004820152604260248201527f4f6e6c79206d696e74696e6720697320616c6c6f7765642e205468657365204e60448201527f4654732063616e2774206265206275726e6564206f72207472616e7366657272606482015261195960f21b608482015260a40161053f565b61195382610a06565b156106755760405162461bcd60e51b815260206004820152601660248201527527b7363c9037b7329031b0b932103832b9103ab9b2b960511b604482015260640161053f565b6119a38383611ad9565b6119b060008484846119cc565b6106755760405162461bcd60e51b815260040161053f90612348565b60006001600160a01b0384163b15611ace57604051630a85bd0160e11b81526001600160a01b0385169063150b7a0290611a109033908990889088906004016122f8565b602060405180830381600087803b158015611a2a57600080fd5b505af1925050508015611a5a575060408051601f3d908101601f19168201909252611a5791810190611f5a565b60015b611ab4573d808015611a88576040519150601f19603f3d011682016040523d82523d6000602084013e611a8d565b606091505b508051611aac5760405162461bcd60e51b815260040161053f90612348565b805181602001fd5b6001600160e01b031916630a85bd0160e11b149050610eab565b506001949350505050565b6001600160a01b038216611b2f5760405162461bcd60e51b815260206004820181905260248201527f4552433732313a206d696e7420746f20746865207a65726f2061646472657373604482015260640161053f565b6000818152600260205260409020546001600160a01b031615611b945760405162461bcd60e51b815260206004820152601c60248201527f4552433732313a20746f6b656e20616c7265616479206d696e74656400000000604482015260640161053f565b611ba0600083836118c2565b6001600160a01b0382166000908152600360205260408120805460019290611bc99084906123eb565b909155505060008181526002602052604080822080546001600160a01b0319166001600160a01b03861690811790915590518392907fddf252ad1be2c89b69c2b068fc378daa952ba7f163c4a11628f55a4df523b3ef908290a45050565b828054611c3390612485565b90600052602060002090601f016020900481019282611c555760008555611c9b565b82601f10611c6e57805160ff1916838001178555611c9b565b82800160010185558215611c9b579182015b82811115611c9b578251825591602001919060010190611c80565b50611ca7929150611cab565b5090565b5b80821115611ca75760008155600101611cac565b600067ffffffffffffffff80841115611cdb57611cdb6124d6565b604051601f8501601f19908116603f01168101908282118183101715611d0357611d036124d6565b81604052809350858152868686011115611d1c57600080fd5b858560208301376000602087830101525050509392505050565b600082601f830112611d46578081fd5b611d5583833560208501611cc0565b9392505050565b600060208284031215611d6d578081fd5b8135611d55816124ec565b600060208284031215611d89578081fd5b8151611d55816124ec565b60008060408385031215611da6578081fd5b8235611db1816124ec565b91506020830135611dc1816124ec565b809150509250929050565b600080600060608486031215611de0578081fd5b8335611deb816124ec565b92506020840135611dfb816124ec565b929592945050506040919091013590565b60008060008060808587031215611e21578081fd5b8435611e2c816124ec565b93506020850135611e3c816124ec565b925060408501359150606085013567ffffffffffffffff811115611e5e578182fd5b8501601f81018713611e6e578182fd5b611e7d87823560208401611cc0565b91505092959194509250565b60008060408385031215611e9b578182fd5b8235611ea6816124ec565b91506020830135611dc181612504565b60008060408385031215611ec8578182fd5b8235611ed3816124ec565b946020939093013593505050565b600080600060608486031215611ef5578283fd5b8335611f00816124ec565b9250602084013591506040840135611f17816124ec565b809150509250925092565b600060208284031215611f33578081fd5b8151611d5581612504565b600060208284031215611f4f578081fd5b8135611d5581612512565b600060208284031215611f6b578081fd5b8151611d5581612512565b60008060408385031215611f88578081fd5b825160048110611f96578182fd5b6020939093015192949293505050565b600080600080600060a08688031215611fbd578283fd5b853567ffffffffffffffff80821115611fd4578485fd5b611fe089838a01611d36565b96506020880135915080821115611ff5578485fd5b61200189838a01611d36565b95506040880135915080821115612016578485fd5b61202289838a01611d36565b94506060880135915080821115612037578283fd5b61204389838a01611d36565b93506080880135915080821115612058578283fd5b5061206588828901611d36565b9150509295509295909350565b600060208284031215612083578081fd5b5035919050565b6000806040838503121561209c578182fd5b823591506020830135611dc1816124ec565b60008060008060008060c087890312156120c6578384fd5b865195506020870151945060408701519350606087015192506080870151915060a087015190509295509295509295565b6000815180845261210f816020860160208601612459565b601f01601f19169290920160200192915050565b8054600090600181811c908083168061213d57607f831692505b602080841082141561215d57634e487b7160e01b86526022600452602486fd5b8180156121715760018114612182576121af565b60ff198616895284890196506121af565b60008881526020902060005b868110156121a75781548b82015290850190830161218e565b505084890196505b50505050505092915050565b600082516121cd818460208701612459565b9190910192915050565b7468747470733a2f2f697066732e696f2f697066732f60581b815260008251612207816015850160208701612459565b9190910160150192915050565b693d913730b6b2911d101160b11b81526000612233600a830186612123565b61088b60f21b8082526f113232b9b1b934b83a34b7b7111d101160811b60028301526122626012830187612123565b908152691134b6b0b3b2911d101160b11b6002820152845190915061228e81600c840160208801612459565b601160f91b600c9290910191820152607d60f81b600d820152600e0195945050505050565b7f646174613a6170706c69636174696f6e2f6a736f6e3b6261736536342c0000008152600082516122eb81601d850160208701612459565b91909101601d0192915050565b6001600160a01b038581168252841660208201526040810183905260806060820181905260009061232b908301846120f7565b9695505050505050565b602081526000611d5560208301846120f7565b60208082526032908201527f4552433732313a207472616e7366657220746f206e6f6e20455243373231526560408201527131b2b4bb32b91034b6b83632b6b2b73a32b960711b606082015260800190565b60208082526031908201527f4552433732313a207472616e736665722063616c6c6572206973206e6f74206f6040820152701ddb995c881b9bdc88185c1c1c9bdd9959607a1b606082015260800190565b600082198211156123fe576123fe6124c0565b500190565b60008261241e57634e487b7160e01b81526012600452602481fd5b500490565b600081600019048311821515161561243d5761243d6124c0565b500290565b600082821015612454576124546124c0565b500390565b60005b8381101561247457818101518382015260200161245c565b8381111561096e5750506000910152565b600181811c9082168061249957607f821691505b602082108114156124ba57634e487b7160e01b600052602260045260246000fd5b50919050565b634e487b7160e01b600052601160045260246000fd5b634e487b7160e01b600052604160045260246000fd5b6001600160a01b038116811461250157600080fd5b50565b801515811461250157600080fd5b6001600160e01b03198116811461250157600080fdfe4142434445464748494a4b4c4d4e4f505152535455565758595a6162636465666768696a6b6c6d6e6f707172737475767778797a303132333435363738392b2fa2646970667358221220c413a992845ca58496552d16cf5231285a94b5a826f74532d124ad0431333bd864736f6c63430008040033",
  "linkReferences": {},
  "deployedLinkReferences": {}
}