{
  "_format": "hh-sol-artifact-1",
  "contractName": "RefiCollection",
  "sourceName": "contracts/tokenization/RefiCollection.sol",
  "abi": [
    {
      "inputs": [
        {
          "internalType": "address",
          "name": "lendingPoolAddr",
          "type": "address"
        }
      ],
      "stateMutability": "nonpayable",
      "type": "constructor"
    },
    {
      "anonymous": false,
      "inputs": [
        {
          "indexed": true,
          "internalType": "address",
          "name": "owner",
          "type": "address"
        },
        {
          "indexed": true,
          "internalType": "address",
          "name": "approved",
          "type": "address"
        },
        {
          "indexed": true,
          "internalType": "uint256",
          "name": "tokenId",
          "type": "uint256"
        }
      ],
      "name": "Approval",
      "type": "event"
    },
    {
      "anonymous": false,
      "inputs": [
        {
          "indexed": true,
          "internalType": "address",
          "name": "owner",
          "type": "address"
        },
        {
          "indexed": true,
          "internalType": "address",
          "name": "operator",
          "type": "address"
        },
        {
          "indexed": false,
          "internalType": "bool",
          "name": "approved",
          "type": "bool"
        }
      ],
      "name": "ApprovalForAll",
      "type": "event"
    },
    {
      "anonymous": false,
      "inputs": [
        {
          "indexed": true,
          "internalType": "address",
          "name": "from",
          "type": "address"
        },
        {
          "indexed": true,
          "internalType": "address",
          "name": "to",
          "type": "address"
        },
        {
          "indexed": true,
          "internalType": "uint256",
          "name": "tokenId",
          "type": "uint256"
        }
      ],
      "name": "Transfer",
      "type": "event"
    },
    {
      "inputs": [
        {
          "internalType": "address",
          "name": "to",
          "type": "address"
        },
        {
          "internalType": "uint256",
          "name": "tokenId",
          "type": "uint256"
        }
      ],
      "name": "approve",
      "outputs": [],
      "stateMutability": "nonpayable",
      "type": "function"
    },
    {
      "inputs": [
        {
          "internalType": "address",
          "name": "owner",
          "type": "address"
        }
      ],
      "name": "balanceOf",
      "outputs": [
        {
          "internalType": "uint256",
          "name": "",
          "type": "uint256"
        }
      ],
      "stateMutability": "view",
      "type": "function"
    },
    {
      "inputs": [
        {
          "internalType": "uint256",
          "name": "tokenId",
          "type": "uint256"
        }
      ],
      "name": "getApproved",
      "outputs": [
        {
          "internalType": "address",
          "name": "",
          "type": "address"
        }
      ],
      "stateMutability": "view",
      "type": "function"
    },
    {
      "inputs": [
        {
          "internalType": "address",
          "name": "owner",
          "type": "address"
        },
        {
          "internalType": "address",
          "name": "operator",
          "type": "address"
        }
      ],
      "name": "isApprovedForAll",
      "outputs": [
        {
          "internalType": "bool",
          "name": "",
          "type": "bool"
        }
      ],
      "stateMutability": "view",
      "type": "function"
    },
    {
      "inputs": [
        {
          "internalType": "string",
          "name": "_name",
          "type": "string"
        },
        {
          "internalType": "string",
          "name": "_description",
          "type": "string"
        },
        {
          "internalType": "string",
          "name": "_bronzeCardURL",
          "type": "string"
        },
        {
          "internalType": "string",
          "name": "_silverCardURL",
          "type": "string"
        },
        {
          "internalType": "string",
          "name": "_goldCardURL",
          "type": "string"
        },
        {
          "internalType": "string",
          "name": "_diamondCardURL",
          "type": "string"
        }
      ],
      "name": "mint",
      "outputs": [],
      "stateMutability": "nonpayable",
      "type": "function"
    },
    {
      "inputs": [],
      "name": "name",
      "outputs": [
        {
          "internalType": "string",
          "name": "",
          "type": "string"
        }
      ],
      "stateMutability": "view",
      "type": "function"
    },
    {
      "inputs": [
        {
          "internalType": "uint256",
          "name": "tokenId",
          "type": "uint256"
        }
      ],
      "name": "ownerOf",
      "outputs": [
        {
          "internalType": "address",
          "name": "",
          "type": "address"
        }
      ],
      "stateMutability": "view",
      "type": "function"
    },
    {
      "inputs": [
        {
          "internalType": "address",
          "name": "from",
          "type": "address"
        },
        {
          "internalType": "address",
          "name": "to",
          "type": "address"
        },
        {
          "internalType": "uint256",
          "name": "tokenId",
          "type": "uint256"
        }
      ],
      "name": "safeTransferFrom",
      "outputs": [],
      "stateMutability": "nonpayable",
      "type": "function"
    },
    {
      "inputs": [
        {
          "internalType": "address",
          "name": "from",
          "type": "address"
        },
        {
          "internalType": "address",
          "name": "to",
          "type": "address"
        },
        {
          "internalType": "uint256",
          "name": "tokenId",
          "type": "uint256"
        },
        {
          "internalType": "bytes",
          "name": "_data",
          "type": "bytes"
        }
      ],
      "name": "safeTransferFrom",
      "outputs": [],
      "stateMutability": "nonpayable",
      "type": "function"
    },
    {
      "inputs": [
        {
          "internalType": "address",
          "name": "operator",
          "type": "address"
        },
        {
          "internalType": "bool",
          "name": "approved",
          "type": "bool"
        }
      ],
      "name": "setApprovalForAll",
      "outputs": [],
      "stateMutability": "nonpayable",
      "type": "function"
    },
    {
      "inputs": [
        {
          "internalType": "bytes4",
          "name": "interfaceId",
          "type": "bytes4"
        }
      ],
      "name": "supportsInterface",
      "outputs": [
        {
          "internalType": "bool",
          "name": "",
          "type": "bool"
        }
      ],
      "stateMutability": "view",
      "type": "function"
    },
    {
      "inputs": [],
      "name": "symbol",
      "outputs": [
        {
          "internalType": "string",
          "name": "",
          "type": "string"
        }
      ],
      "stateMutability": "view",
      "type": "function"
    },
    {
      "inputs": [
        {
          "internalType": "uint256",
          "name": "tokenId",
          "type": "uint256"
        }
      ],
      "name": "tokenURI",
      "outputs": [
        {
          "internalType": "string",
          "name": "",
          "type": "string"
        }
      ],
      "stateMutability": "view",
      "type": "function"
    },
    {
      "inputs": [
        {
          "internalType": "address",
          "name": "from",
          "type": "address"
        },
        {
          "internalType": "address",
          "name": "to",
          "type": "address"
        },
        {
          "internalType": "uint256",
          "name": "tokenId",
          "type": "uint256"
        }
      ],
      "name": "transferFrom",
      "outputs": [],
      "stateMutability": "nonpayable",
      "type": "function"
    }
  ],
  "bytecode": "0x60a06040523480156200001157600080fd5b5060405162001fe938038062001fe983398101604081905262000034916200015a565b604080518082018252600d81526c1499599a48141c9bdd1bd8dbdb609a1b6020808301918252835180850190945260048452635245464960e01b9084015281519192916200008591600091620000b4565b5080516200009b906001906020840190620000b4565b50505060601b6001600160601b031916608052620001c7565b828054620000c2906200018a565b90600052602060002090601f016020900481019282620000e6576000855562000131565b82601f106200010157805160ff191683800117855562000131565b8280016001018555821562000131579182015b828111156200013157825182559160200191906001019062000114565b506200013f92915062000143565b5090565b5b808211156200013f576000815560010162000144565b6000602082840312156200016c578081fd5b81516001600160a01b038116811462000183578182fd5b9392505050565b600181811c908216806200019f57607f821691505b60208210811415620001c157634e487b7160e01b600052602260045260246000fd5b50919050565b60805160601c611e03620001e66000396000610c4f0152611e036000f3fe608060405234801561001057600080fd5b50600436106100ea5760003560e01c806370a082311161008c578063b88d4fde11610066578063b88d4fde146101e1578063c87b56dd146101f4578063e985e9c514610207578063ef5f5c0e1461024357600080fd5b806370a08231146101a557806395d89b41146101c6578063a22cb465146101ce57600080fd5b8063095ea7b3116100c8578063095ea7b31461015757806323b872dd1461016c57806342842e0e1461017f5780636352211e1461019257600080fd5b806301ffc9a7146100ef57806306fdde0314610117578063081812fc1461012c575b600080fd5b6101026100fd36600461187b565b610256565b60405190151581526020015b60405180910390f35b61011f6102a8565b60405161010e9190611bbd565b61013f61013a3660046119c0565b61033a565b6040516001600160a01b03909116815260200161010e565b61016a610165366004611852565b6103d4565b005b61016a61017a366004611764565b6104ea565b61016a61018d366004611764565b61051b565b61013f6101a03660046119c0565b610536565b6101b86101b3366004611718565b6105ad565b60405190815260200161010e565b61011f610634565b61016a6101dc366004611818565b610643565b61016a6101ef36600461179f565b610652565b61011f6102023660046119c0565b61068a565b610102610215366004611732565b6001600160a01b03918216600090815260056020908152604080832093909416825291909152205460ff1690565b61016a6102513660046118d2565b61070c565b60006001600160e01b031982166380ac58cd60e01b148061028757506001600160e01b03198216635b5e139f60e01b145b806102a257506301ffc9a760e01b6001600160e01b03198316145b92915050565b6060600080546102b790611d0d565b80601f01602080910402602001604051908101604052809291908181526020018280546102e390611d0d565b80156103305780601f1061030557610100808354040283529160200191610330565b820191906000526020600020905b81548152906001019060200180831161031357829003601f168201915b5050505050905090565b6000818152600260205260408120546001600160a01b03166103b85760405162461bcd60e51b815260206004820152602c60248201527f4552433732313a20617070726f76656420717565727920666f72206e6f6e657860448201526b34b9ba32b73a103a37b5b2b760a11b60648201526084015b60405180910390fd5b506000908152600460205260409020546001600160a01b031690565b60006103df82610536565b9050806001600160a01b0316836001600160a01b0316141561044d5760405162461bcd60e51b815260206004820152602160248201527f4552433732313a20617070726f76616c20746f2063757272656e74206f776e656044820152603960f91b60648201526084016103af565b336001600160a01b038216148061046957506104698133610215565b6104db5760405162461bcd60e51b815260206004820152603860248201527f4552433732313a20617070726f76652063616c6c6572206973206e6f74206f7760448201527f6e6572206e6f7220617070726f76656420666f7220616c6c000000000000000060648201526084016103af565b6104e58383610818565b505050565b6104f43382610886565b6105105760405162461bcd60e51b81526004016103af90611c22565b6104e583838361097d565b6104e583838360405180602001604052806000815250610652565b6000818152600260205260408120546001600160a01b0316806102a25760405162461bcd60e51b815260206004820152602960248201527f4552433732313a206f776e657220717565727920666f72206e6f6e657869737460448201526832b73a103a37b5b2b760b91b60648201526084016103af565b60006001600160a01b0382166106185760405162461bcd60e51b815260206004820152602a60248201527f4552433732313a2062616c616e636520717565727920666f7220746865207a65604482015269726f206164647265737360b01b60648201526084016103af565b506001600160a01b031660009081526003602052604090205490565b6060600180546102b790611d0d565b61064e338383610b28565b5050565b61065c3383610886565b6106785760405162461bcd60e51b81526004016103af90611c22565b61068484848484610bf7565b50505050565b6060600061069783610536565b6000848152600760205260408120919250906106e190600181016106bb8786610c2a565b6040516020016106cd93929190611a9c565b604051602081830303815290604052611123565b9050806040516020016106f49190611b3b565b60405160208183030381529060405292505050919050565b61071a600680546001019055565b600061072560065490565b90506107313382611297565b6040805160c0810182528881526020808201899052818301889052606082018790526080820186905260a0820185905260008481526007825292909220815180519293919261078392849201906115c7565b50602082810151805161079c92600185019201906115c7565b50604082015180516107b89160028401916020909101906115c7565b50606082015180516107d49160038401916020909101906115c7565b50608082015180516107f09160048401916020909101906115c7565b5060a0820151805161080c9160058401916020909101906115c7565b50505050505050505050565b600081815260046020526040902080546001600160a01b0319166001600160a01b038416908117909155819061084d82610536565b6001600160a01b03167f8c5be1e5ebec7d5bd14f71427d1e84f3dd0314c0f7b2291e5b200ac8c7c3b92560405160405180910390a45050565b6000818152600260205260408120546001600160a01b03166108ff5760405162461bcd60e51b815260206004820152602c60248201527f4552433732313a206f70657261746f7220717565727920666f72206e6f6e657860448201526b34b9ba32b73a103a37b5b2b760a11b60648201526084016103af565b600061090a83610536565b9050806001600160a01b0316846001600160a01b031614806109455750836001600160a01b031661093a8461033a565b6001600160a01b0316145b8061097557506001600160a01b0380821660009081526005602090815260408083209388168352929052205460ff165b949350505050565b826001600160a01b031661099082610536565b6001600160a01b0316146109f85760405162461bcd60e51b815260206004820152602960248201527f4552433732313a207472616e73666572206f6620746f6b656e2074686174206960448201526839903737ba1037bbb760b91b60648201526084016103af565b6001600160a01b038216610a5a5760405162461bcd60e51b8152602060048201526024808201527f4552433732313a207472616e7366657220746f20746865207a65726f206164646044820152637265737360e01b60648201526084016103af565b610a658383836112b1565b610a70600082610818565b6001600160a01b0383166000908152600360205260408120805460019290610a99908490611cca565b90915550506001600160a01b0382166000908152600360205260408120805460019290610ac7908490611c73565b909155505060008181526002602052604080822080546001600160a01b0319166001600160a01b0386811691821790925591518493918716917fddf252ad1be2c89b69c2b068fc378daa952ba7f163c4a11628f55a4df523b3ef91a4505050565b816001600160a01b0316836001600160a01b03161415610b8a5760405162461bcd60e51b815260206004820152601960248201527f4552433732313a20617070726f766520746f2063616c6c65720000000000000060448201526064016103af565b6001600160a01b03838116600081815260056020908152604080832094871680845294825291829020805460ff191686151590811790915591519182527f17307eab39ab6107e8899845ad3d59bd9653f200f220920489ca2b5937696c31910160405180910390a3505050565b610c0284848461097d565b610c0e84848484611339565b6106845760405162461bcd60e51b81526004016103af90611bd0565b604051631f73522760e01b81526001600160a01b0382811660048301526060916000917f00000000000000000000000000000000000000000000000000000000000000001690631f7352279060240160206040518083038186803b158015610c9157600080fd5b505afa158015610ca5573d6000803e3d6000fd5b505050506040513d601f19601f82011682018060405250810190610cc991906118b3565b90506000600760008681526020019081526020016000206040518060c0016040529081600082018054610cfb90611d0d565b80601f0160208091040260200160405190810160405280929190818152602001828054610d2790611d0d565b8015610d745780601f10610d4957610100808354040283529160200191610d74565b820191906000526020600020905b815481529060010190602001808311610d5757829003601f168201915b50505050508152602001600182018054610d8d90611d0d565b80601f0160208091040260200160405190810160405280929190818152602001828054610db990611d0d565b8015610e065780601f10610ddb57610100808354040283529160200191610e06565b820191906000526020600020905b815481529060010190602001808311610de957829003601f168201915b50505050508152602001600282018054610e1f90611d0d565b80601f0160208091040260200160405190810160405280929190818152602001828054610e4b90611d0d565b8015610e985780601f10610e6d57610100808354040283529160200191610e98565b820191906000526020600020905b815481529060010190602001808311610e7b57829003601f168201915b50505050508152602001600382018054610eb190611d0d565b80601f0160208091040260200160405190810160405280929190818152602001828054610edd90611d0d565b8015610f2a5780601f10610eff57610100808354040283529160200191610f2a565b820191906000526020600020905b815481529060010190602001808311610f0d57829003601f168201915b50505050508152602001600482018054610f4390611d0d565b80601f0160208091040260200160405190810160405280929190818152602001828054610f6f90611d0d565b8015610fbc5780601f10610f9157610100808354040283529160200191610fbc565b820191906000526020600020905b815481529060010190602001808311610f9f57829003601f168201915b50505050508152602001600582018054610fd590611d0d565b80601f016020809104026020016040519081016040528092919081815260200182805461100190611d0d565b801561104e5780601f106110235761010080835404028352916020019161104e565b820191906000526020600020905b81548152906001019060200180831161103157829003601f168201915b505050505081525050905060606000600381111561107c57634e487b7160e01b600052602160045260246000fd5b83600381111561109c57634e487b7160e01b600052602160045260246000fd5b14156110ad575060a081015161111a565b60018360038111156110cf57634e487b7160e01b600052602160045260246000fd5b14156110e05750608081015161111a565b600283600381111561110257634e487b7160e01b600052602160045260246000fd5b14156111135750606081015161111a565b5060408101515b95945050505050565b606081516000141561114357505060408051602081019091526000815290565b6000604051806060016040528060408152602001611d8e60409139905060006003845160026111729190611c73565b61117c9190611c8b565b611187906004611cab565b90506000611196826020611c73565b67ffffffffffffffff8111156111bc57634e487b7160e01b600052604160045260246000fd5b6040519080825280601f01601f1916602001820160405280156111e6576020820181803683370190505b509050818152600183018586518101602084015b81831015611252576003830192508251603f8160121c168501518253600182019150603f81600c1c168501518253600182019150603f8160061c168501518253600182019150603f81168501518253506001016111fa565b60038951066001811461126c576002811461127d57611289565b613d3d60f01b600119830152611289565b603d60f81b6000198301525b509398975050505050505050565b61064e828260405180602001604052806000815250611446565b6001600160a01b038316156104e55760405162461bcd60e51b815260206004820152604260248201527f4f6e6c79206d696e74696e6720697320616c6c6f7765642e205468657365204e60448201527f4654732063616e2774206265206275726e6564206f72207472616e7366657272606482015261195960f21b608482015260a4016103af565b60006001600160a01b0384163b1561143b57604051630a85bd0160e11b81526001600160a01b0385169063150b7a029061137d903390899088908890600401611b80565b602060405180830381600087803b15801561139757600080fd5b505af19250505080156113c7575060408051601f3d908101601f191682019092526113c491810190611897565b60015b611421573d8080156113f5576040519150601f19603f3d011682016040523d82523d6000602084013e6113fa565b606091505b5080516114195760405162461bcd60e51b81526004016103af90611bd0565b805181602001fd5b6001600160e01b031916630a85bd0160e11b149050610975565b506001949350505050565b6114508383611479565b61145d6000848484611339565b6104e55760405162461bcd60e51b81526004016103af90611bd0565b6001600160a01b0382166114cf5760405162461bcd60e51b815260206004820181905260248201527f4552433732313a206d696e7420746f20746865207a65726f206164647265737360448201526064016103af565b6000818152600260205260409020546001600160a01b0316156115345760405162461bcd60e51b815260206004820152601c60248201527f4552433732313a20746f6b656e20616c7265616479206d696e7465640000000060448201526064016103af565b611540600083836112b1565b6001600160a01b0382166000908152600360205260408120805460019290611569908490611c73565b909155505060008181526002602052604080822080546001600160a01b0319166001600160a01b03861690811790915590518392907fddf252ad1be2c89b69c2b068fc378daa952ba7f163c4a11628f55a4df523b3ef908290a45050565b8280546115d390611d0d565b90600052602060002090601f0160209004810192826115f5576000855561163b565b82601f1061160e57805160ff191683800117855561163b565b8280016001018555821561163b579182015b8281111561163b578251825591602001919060010190611620565b5061164792915061164b565b5090565b5b80821115611647576000815560010161164c565b600067ffffffffffffffff8084111561167b5761167b611d5e565b604051601f8501601f19908116603f011681019082821181831017156116a3576116a3611d5e565b816040528093508581528686860111156116bc57600080fd5b858560208301376000602087830101525050509392505050565b80356001600160a01b03811681146116ed57600080fd5b919050565b600082601f830112611702578081fd5b61171183833560208501611660565b9392505050565b600060208284031215611729578081fd5b611711826116d6565b60008060408385031215611744578081fd5b61174d836116d6565b915061175b602084016116d6565b90509250929050565b600080600060608486031215611778578081fd5b611781846116d6565b925061178f602085016116d6565b9150604084013590509250925092565b600080600080608085870312156117b4578081fd5b6117bd856116d6565b93506117cb602086016116d6565b925060408501359150606085013567ffffffffffffffff8111156117ed578182fd5b8501601f810187136117fd578182fd5b61180c87823560208401611660565b91505092959194509250565b6000806040838503121561182a578182fd5b611833836116d6565b915060208301358015158114611847578182fd5b809150509250929050565b60008060408385031215611864578182fd5b61186d836116d6565b946020939093013593505050565b60006020828403121561188c578081fd5b813561171181611d74565b6000602082840312156118a8578081fd5b815161171181611d74565b6000602082840312156118c4578081fd5b815160048110611711578182fd5b60008060008060008060c087890312156118ea578182fd5b863567ffffffffffffffff80821115611901578384fd5b61190d8a838b016116f2565b97506020890135915080821115611922578384fd5b61192e8a838b016116f2565b96506040890135915080821115611943578384fd5b61194f8a838b016116f2565b95506060890135915080821115611964578384fd5b6119708a838b016116f2565b94506080890135915080821115611985578384fd5b6119918a838b016116f2565b935060a08901359150808211156119a6578283fd5b506119b389828a016116f2565b9150509295509295509295565b6000602082840312156119d1578081fd5b5035919050565b600081518084526119f0816020860160208601611ce1565b601f01601f19169290920160200192915050565b8054600090600181811c9080831680611a1e57607f831692505b6020808410821415611a3e57634e487b7160e01b86526022600452602486fd5b818015611a525760018114611a6357611a90565b60ff19861689528489019650611a90565b60008881526020902060005b86811015611a885781548b820152908501908301611a6f565b505084890196505b50505050505092915050565b693d913730b6b2911d101160b11b81526000611abb600a830186611a04565b61088b60f21b8082526f113232b9b1b934b83a34b7b7111d101160811b6002830152611aea6012830187611a04565b908152691134b6b0b3b2911d101160b11b60028201528451909150611b1681600c840160208801611ce1565b601160f91b600c9290910191820152607d60f81b600d820152600e0195945050505050565b7f646174613a6170706c69636174696f6e2f6a736f6e3b6261736536342c000000815260008251611b7381601d850160208701611ce1565b91909101601d0192915050565b6001600160a01b0385811682528416602082015260408101839052608060608201819052600090611bb3908301846119d8565b9695505050505050565b60208152600061171160208301846119d8565b60208082526032908201527f4552433732313a207472616e7366657220746f206e6f6e20455243373231526560408201527131b2b4bb32b91034b6b83632b6b2b73a32b960711b606082015260800190565b60208082526031908201527f4552433732313a207472616e736665722063616c6c6572206973206e6f74206f6040820152701ddb995c881b9bdc88185c1c1c9bdd9959607a1b606082015260800190565b60008219821115611c8657611c86611d48565b500190565b600082611ca657634e487b7160e01b81526012600452602481fd5b500490565b6000816000190483118215151615611cc557611cc5611d48565b500290565b600082821015611cdc57611cdc611d48565b500390565b60005b83811015611cfc578181015183820152602001611ce4565b838111156106845750506000910152565b600181811c90821680611d2157607f821691505b60208210811415611d4257634e487b7160e01b600052602260045260246000fd5b50919050565b634e487b7160e01b600052601160045260246000fd5b634e487b7160e01b600052604160045260246000fd5b6001600160e01b031981168114611d8a57600080fd5b5056fe4142434445464748494a4b4c4d4e4f505152535455565758595a6162636465666768696a6b6c6d6e6f707172737475767778797a303132333435363738392b2fa2646970667358221220f0aed42eeb930a311ac23bc82a817806724691834e9bb50cbf421ecc9868fcf364736f6c63430008040033",
  "linkReferences": {},
  "deployedLinkReferences": {}
}