{
  "_format": "hh-sol-artifact-1",
  "contractName": "RefiCollection",
  "sourceName": "contracts/tokenization/RefiCollection.sol",
  "abi": [
    {
      "inputs": [
        {
          "internalType": "address",
          "name": "addressesProviderAddr",
          "type": "address"
        }
      ],
      "stateMutability": "nonpayable",
      "type": "constructor"
    },
    {
      "anonymous": false,
      "inputs": [
        {
          "indexed": true,
          "internalType": "address",
          "name": "owner",
          "type": "address"
        },
        {
          "indexed": true,
          "internalType": "address",
          "name": "approved",
          "type": "address"
        },
        {
          "indexed": true,
          "internalType": "uint256",
          "name": "tokenId",
          "type": "uint256"
        }
      ],
      "name": "Approval",
      "type": "event"
    },
    {
      "anonymous": false,
      "inputs": [
        {
          "indexed": true,
          "internalType": "address",
          "name": "owner",
          "type": "address"
        },
        {
          "indexed": true,
          "internalType": "address",
          "name": "operator",
          "type": "address"
        },
        {
          "indexed": false,
          "internalType": "bool",
          "name": "approved",
          "type": "bool"
        }
      ],
      "name": "ApprovalForAll",
      "type": "event"
    },
    {
      "anonymous": false,
      "inputs": [
        {
          "indexed": true,
          "internalType": "address",
          "name": "from",
          "type": "address"
        },
        {
          "indexed": true,
          "internalType": "address",
          "name": "to",
          "type": "address"
        },
        {
          "indexed": true,
          "internalType": "uint256",
          "name": "tokenId",
          "type": "uint256"
        }
      ],
      "name": "Transfer",
      "type": "event"
    },
    {
      "inputs": [
        {
          "internalType": "address",
          "name": "to",
          "type": "address"
        },
        {
          "internalType": "uint256",
          "name": "tokenId",
          "type": "uint256"
        }
      ],
      "name": "approve",
      "outputs": [],
      "stateMutability": "nonpayable",
      "type": "function"
    },
    {
      "inputs": [
        {
          "internalType": "address",
          "name": "owner",
          "type": "address"
        }
      ],
      "name": "balanceOf",
      "outputs": [
        {
          "internalType": "uint256",
          "name": "",
          "type": "uint256"
        }
      ],
      "stateMutability": "view",
      "type": "function"
    },
    {
      "inputs": [
        {
          "internalType": "uint256",
          "name": "tokenId",
          "type": "uint256"
        }
      ],
      "name": "getApproved",
      "outputs": [
        {
          "internalType": "address",
          "name": "",
          "type": "address"
        }
      ],
      "stateMutability": "view",
      "type": "function"
    },
    {
      "inputs": [
        {
          "internalType": "address",
          "name": "user",
          "type": "address"
        }
      ],
      "name": "getBorrowLimit",
      "outputs": [
        {
          "internalType": "uint256",
          "name": "availableBorrowsETH",
          "type": "uint256"
        }
      ],
      "stateMutability": "view",
      "type": "function"
    },
    {
      "inputs": [],
      "name": "getSupportedAssets",
      "outputs": [
        {
          "components": [
            {
              "internalType": "string",
              "name": "symbol",
              "type": "string"
            },
            {
              "internalType": "address",
              "name": "tokenAddress",
              "type": "address"
            },
            {
              "internalType": "address",
              "name": "aTokenAddress",
              "type": "address"
            },
            {
              "internalType": "address",
              "name": "dTokenAddress",
              "type": "address"
            }
          ],
          "internalType": "struct RefiCollection.TokenDetailedData[]",
          "name": "",
          "type": "tuple[]"
        }
      ],
      "stateMutability": "view",
      "type": "function"
    },
    {
      "inputs": [
        {
          "internalType": "address",
          "name": "owner",
          "type": "address"
        }
      ],
      "name": "getTokenId",
      "outputs": [
        {
          "internalType": "uint256",
          "name": "token",
          "type": "uint256"
        }
      ],
      "stateMutability": "view",
      "type": "function"
    },
    {
      "inputs": [
        {
          "internalType": "address",
          "name": "owner",
          "type": "address"
        },
        {
          "internalType": "address",
          "name": "operator",
          "type": "address"
        }
      ],
      "name": "isApprovedForAll",
      "outputs": [
        {
          "internalType": "bool",
          "name": "",
          "type": "bool"
        }
      ],
      "stateMutability": "view",
      "type": "function"
    },
    {
      "inputs": [
        {
          "internalType": "string",
          "name": "_description",
          "type": "string"
        },
        {
          "internalType": "string",
          "name": "_bronzeCardCID",
          "type": "string"
        },
        {
          "internalType": "string",
          "name": "_silverCardCID",
          "type": "string"
        },
        {
          "internalType": "string",
          "name": "_goldCardCID",
          "type": "string"
        },
        {
          "internalType": "string",
          "name": "_platinumCardCID",
          "type": "string"
        }
      ],
      "name": "mint",
      "outputs": [],
      "stateMutability": "nonpayable",
      "type": "function"
    },
    {
      "inputs": [],
      "name": "name",
      "outputs": [
        {
          "internalType": "string",
          "name": "",
          "type": "string"
        }
      ],
      "stateMutability": "view",
      "type": "function"
    },
    {
      "inputs": [
        {
          "internalType": "uint256",
          "name": "tokenId",
          "type": "uint256"
        }
      ],
      "name": "ownerOf",
      "outputs": [
        {
          "internalType": "address",
          "name": "",
          "type": "address"
        }
      ],
      "stateMutability": "view",
      "type": "function"
    },
    {
      "inputs": [
        {
          "internalType": "uint256",
          "name": "amount",
          "type": "uint256"
        },
        {
          "internalType": "address",
          "name": "toRecieve",
          "type": "address"
        }
      ],
      "name": "payETHUsingCard",
      "outputs": [],
      "stateMutability": "nonpayable",
      "type": "function"
    },
    {
      "inputs": [
        {
          "internalType": "address",
          "name": "asset",
          "type": "address"
        },
        {
          "internalType": "uint256",
          "name": "amount",
          "type": "uint256"
        },
        {
          "internalType": "address",
          "name": "toRecieve",
          "type": "address"
        }
      ],
      "name": "payUsingCard",
      "outputs": [],
      "stateMutability": "nonpayable",
      "type": "function"
    },
    {
      "inputs": [],
      "name": "refresh",
      "outputs": [],
      "stateMutability": "nonpayable",
      "type": "function"
    },
    {
      "inputs": [
        {
          "internalType": "address",
          "name": "from",
          "type": "address"
        },
        {
          "internalType": "address",
          "name": "to",
          "type": "address"
        },
        {
          "internalType": "uint256",
          "name": "tokenId",
          "type": "uint256"
        }
      ],
      "name": "safeTransferFrom",
      "outputs": [],
      "stateMutability": "nonpayable",
      "type": "function"
    },
    {
      "inputs": [
        {
          "internalType": "address",
          "name": "from",
          "type": "address"
        },
        {
          "internalType": "address",
          "name": "to",
          "type": "address"
        },
        {
          "internalType": "uint256",
          "name": "tokenId",
          "type": "uint256"
        },
        {
          "internalType": "bytes",
          "name": "_data",
          "type": "bytes"
        }
      ],
      "name": "safeTransferFrom",
      "outputs": [],
      "stateMutability": "nonpayable",
      "type": "function"
    },
    {
      "inputs": [
        {
          "internalType": "address",
          "name": "operator",
          "type": "address"
        },
        {
          "internalType": "bool",
          "name": "approved",
          "type": "bool"
        }
      ],
      "name": "setApprovalForAll",
      "outputs": [],
      "stateMutability": "nonpayable",
      "type": "function"
    },
    {
      "inputs": [
        {
          "internalType": "bytes4",
          "name": "interfaceId",
          "type": "bytes4"
        }
      ],
      "name": "supportsInterface",
      "outputs": [
        {
          "internalType": "bool",
          "name": "",
          "type": "bool"
        }
      ],
      "stateMutability": "view",
      "type": "function"
    },
    {
      "inputs": [],
      "name": "symbol",
      "outputs": [
        {
          "internalType": "string",
          "name": "",
          "type": "string"
        }
      ],
      "stateMutability": "view",
      "type": "function"
    },
    {
      "inputs": [
        {
          "internalType": "uint256",
          "name": "tokenId",
          "type": "uint256"
        }
      ],
      "name": "tokenURI",
      "outputs": [
        {
          "internalType": "string",
          "name": "",
          "type": "string"
        }
      ],
      "stateMutability": "view",
      "type": "function"
    },
    {
      "inputs": [
        {
          "internalType": "address",
          "name": "from",
          "type": "address"
        },
        {
          "internalType": "address",
          "name": "to",
          "type": "address"
        },
        {
          "internalType": "uint256",
          "name": "tokenId",
          "type": "uint256"
        }
      ],
      "name": "transferFrom",
      "outputs": [],
      "stateMutability": "nonpayable",
      "type": "function"
    },
    {
      "stateMutability": "payable",
      "type": "receive"
    }
  ],
  "bytecode": "0x60a06040523480156200001157600080fd5b506040516200304f3803806200304f83398101604081905262000034916200015a565b604080518082018252600d81526c1499599a48141c9bdd1bd8dbdb609a1b6020808301918252835180850190945260048452635245464960e01b9084015281519192916200008591600091620000b4565b5080516200009b906001906020840190620000b4565b50505060601b6001600160601b031916608052620001c7565b828054620000c2906200018a565b90600052602060002090601f016020900481019282620000e6576000855562000131565b82601f106200010157805160ff191683800117855562000131565b8280016001018555821562000131579182015b828111156200013157825182559160200191906001019062000114565b506200013f92915062000143565b5090565b5b808211156200013f576000815560010162000144565b6000602082840312156200016c578081fd5b81516001600160a01b038116811462000183578182fd5b9392505050565b600181811c908216806200019f57607f821691505b60208210811415620001c157634e487b7160e01b600052602260045260246000fd5b50919050565b60805160601c612e4d62000202600039600081816107360152818161089301528181610b3101528181610e6401526116f30152612e4d6000f3fe6080604052600436106101235760003560e01c80637c17d237116100a0578063c87b56dd11610064578063c87b56dd14610343578063e5406dbf14610363578063e985e9c514610385578063f1537686146103ce578063f8ac93e81461040457600080fd5b80637c17d237146102ae57806386833e91146102ce57806395d89b41146102ee578063a22cb46514610303578063b88d4fde1461032357600080fd5b806339c5a921116100e757806339c5a921146102005780633d1a39e51461022057806342842e0e146102405780636352211e1461026057806370a082311461028057600080fd5b806301ffc9a71461012f57806306fdde0314610164578063081812fc14610186578063095ea7b3146101be57806323b872dd146101e057600080fd5b3661012a57005b600080fd5b34801561013b57600080fd5b5061014f61014a36600461257c565b610413565b60405190151581526020015b60405180910390f35b34801561017057600080fd5b50610179610465565b60405161015b9190612b46565b34801561019257600080fd5b506101a66101a13660046127eb565b6104f7565b6040516001600160a01b03909116815260200161015b565b3480156101ca57600080fd5b506101de6101d9366004612440565b610591565b005b3480156101ec57600080fd5b506101de6101fb366004612356565b6106a7565b34801561020c57600080fd5b506101de61021b366004612803565b6106d8565b34801561022c57600080fd5b506101de61023b36600461246b565b610835565b34801561024c57600080fd5b506101de61025b366004612356565b610a14565b34801561026c57600080fd5b506101a661027b3660046127eb565b610a2f565b34801561028c57600080fd5b506102a061029b3660046122e6565b610aa6565b60405190815260200161015b565b3480156102ba57600080fd5b506102a06102c93660046122e6565b610b2d565b3480156102da57600080fd5b506101de6102e9366004612657565b610c47565b3480156102fa57600080fd5b50610179610d90565b34801561030f57600080fd5b506101de61031e366004612413565b610d9f565b34801561032f57600080fd5b506101de61033e366004612396565b610daa565b34801561034f57600080fd5b5061017961035e3660046127eb565b610ddc565b34801561036f57600080fd5b50610378610e5e565b60405161015b9190612aae565b34801561039157600080fd5b5061014f6103a036600461231e565b6001600160a01b03918216600090815260056020908152604080832093909416825291909152205460ff1690565b3480156103da57600080fd5b506102a06103e93660046122e6565b6001600160a01b031660009081526008602052604090205490565b34801561041057600080fd5b50005b60006001600160e01b031982166380ac58cd60e01b148061044457506001600160e01b03198216635b5e139f60e01b145b8061045f57506301ffc9a760e01b6001600160e01b03198316145b92915050565b60606000805461047490612d19565b80601f01602080910402602001604051908101604052809291908181526020018280546104a090612d19565b80156104ed5780601f106104c2576101008083540402835291602001916104ed565b820191906000526020600020905b8154815290600101906020018083116104d057829003601f168201915b5050505050905090565b6000818152600260205260408120546001600160a01b03166105755760405162461bcd60e51b815260206004820152602c60248201527f4552433732313a20617070726f76656420717565727920666f72206e6f6e657860448201526b34b9ba32b73a103a37b5b2b760a11b60648201526084015b60405180910390fd5b506000908152600460205260409020546001600160a01b031690565b600061059c82610a2f565b9050806001600160a01b0316836001600160a01b0316141561060a5760405162461bcd60e51b815260206004820152602160248201527f4552433732313a20617070726f76616c20746f2063757272656e74206f776e656044820152603960f91b606482015260840161056c565b336001600160a01b0382161480610626575061062681336103a0565b6106985760405162461bcd60e51b815260206004820152603860248201527f4552433732313a20617070726f76652063616c6c6572206973206e6f74206f7760448201527f6e6572206e6f7220617070726f76656420666f7220616c6c0000000000000000606482015260840161056c565b6106a28383611204565b505050565b6106b13382611272565b6106cd5760405162461bcd60e51b815260040161056c90612bab565b6106a2838383611369565b336000908152600860205260409020546107345760405162461bcd60e51b815260206004820152601a60248201527f43616c6c657220646f65736e2774206861766520612063617264000000000000604482015260640161056c565b7f00000000000000000000000000000000000000000000000000000000000000006001600160a01b03166377532ed96040518163ffffffff1660e01b815260040160206040518083038186803b15801561078d57600080fd5b505afa1580156107a1573d6000803e3d6000fd5b505050506040513d601f19601f820116820180604052508101906107c59190612302565b60405163ad2843df60e01b8152600481018490523360248201526001600160a01b03919091169063ad2843df90604401600060405180830381600087803b15801561080f57600080fd5b505af1158015610823573d6000803e3d6000fd5b505050506108318183611514565b5050565b336000908152600860205260409020546108915760405162461bcd60e51b815260206004820152601a60248201527f43616c6c657220646f65736e2774206861766520612063617264000000000000604482015260640161056c565b7f00000000000000000000000000000000000000000000000000000000000000006001600160a01b0316630261bf8b6040518163ffffffff1660e01b815260040160206040518083038186803b1580156108ea57600080fd5b505afa1580156108fe573d6000803e3d6000fd5b505050506040513d601f19601f820116820180604052508101906109229190612302565b604051636c665a5560e01b81526001600160a01b038581166004830152602482018590523360448301529190911690636c665a5590606401600060405180830381600087803b15801561097457600080fd5b505af1158015610988573d6000803e3d6000fd5b505060405163a9059cbb60e01b81526001600160a01b038481166004830152602482018690528616925063a9059cbb9150604401602060405180830381600087803b1580156109d657600080fd5b505af11580156109ea573d6000803e3d6000fd5b505050506040513d601f19601f82011682018060405250810190610a0e9190612560565b50505050565b6106a283838360405180602001604052806000815250610daa565b6000818152600260205260408120546001600160a01b03168061045f5760405162461bcd60e51b815260206004820152602960248201527f4552433732313a206f776e657220717565727920666f72206e6f6e657869737460448201526832b73a103a37b5b2b760b91b606482015260840161056c565b60006001600160a01b038216610b115760405162461bcd60e51b815260206004820152602a60248201527f4552433732313a2062616c616e636520717565727920666f7220746865207a65604482015269726f206164647265737360b01b606482015260840161056c565b506001600160a01b031660009081526003602052604090205490565b60007f00000000000000000000000000000000000000000000000000000000000000006001600160a01b0316630261bf8b6040518163ffffffff1660e01b815260040160206040518083038186803b158015610b8857600080fd5b505afa158015610b9c573d6000803e3d6000fd5b505050506040513d601f19601f82011682018060405250810190610bc09190612302565b604051632fe4a15f60e21b81526001600160a01b038481166004830152919091169063bf92857c9060240160c06040518083038186803b158015610c0357600080fd5b505afa158015610c17573d6000803e3d6000fd5b505050506040513d601f19601f82011682018060405250810190610c3b9190612827565b50919695505050505050565b610c55600680546001019055565b6000610c6060065490565b9050610c6c33826115d1565b6040805160c0810182526a526566692043617264202360a81b60e082015260eb8082018490528251808303909101815261010b8201835281526020808201899052818301889052606082018790526080820186905260a08201859052600084815260078252929092208151805192939192610cea9284920190612152565b506020828101518051610d039260018501920190612152565b5060408201518051610d1f916002840191602090910190612152565b5060608201518051610d3b916003840191602090910190612152565b5060808201518051610d57916004840191602090910190612152565b5060a08201518051610d73916005840191602090910190612152565b505033600090815260086020526040902091909155505050505050565b60606001805461047490612d19565b6108313383836115eb565b610db43383611272565b610dd05760405162461bcd60e51b815260040161056c90612bab565b610a0e848484846116ba565b60606000610de983610a2f565b600084815260076020526040812091925090610e339060018101610e0d87866116ed565b604051602001610e1f9392919061298d565b604051602081830303815290604052611c79565b905080604051602001610e469190612a2c565b60405160208183030381529060405292505050919050565b606060007f00000000000000000000000000000000000000000000000000000000000000006001600160a01b0316630261bf8b6040518163ffffffff1660e01b815260040160206040518083038186803b158015610ebb57600080fd5b505afa158015610ecf573d6000803e3d6000fd5b505050506040513d601f19601f82011682018060405250810190610ef39190612302565b90506000816001600160a01b031663d1946dbc6040518163ffffffff1660e01b815260040160006040518083038186803b158015610f3057600080fd5b505afa158015610f44573d6000803e3d6000fd5b505050506040513d6000823e601f3d908101601f19168201604052610f6c91908101906124ac565b90506000815167ffffffffffffffff811115610f9857634e487b7160e01b600052604160045260246000fd5b604051908082528060200260200182016040528015610feb57816020015b60408051608081018252606080825260006020808401829052938301819052908201528252600019909201910181610fb65790505b50905060005b82518110156111fc576000846001600160a01b03166335ea6a7585848151811061102b57634e487b7160e01b600052603260045260246000fd5b60200260200101516040518263ffffffff1660e01b815260040161105e91906001600160a01b0391909116815260200190565b6101406040518083038186803b15801561107757600080fd5b505afa15801561108b573d6000803e3d6000fd5b505050506040513d601f19601f820116820180604052508101906110af9190612723565b905060008483815181106110d357634e487b7160e01b600052603260045260246000fd5b60200260200101516001600160a01b03166395d89b416040518163ffffffff1660e01b815260040160006040518083038186803b15801561111357600080fd5b505afa158015611127573d6000803e3d6000fd5b505050506040513d6000823e601f3d908101601f1916820160405261114f91908101906125e4565b9050604051806080016040528082815260200186858151811061118257634e487b7160e01b600052603260045260246000fd5b60200260200101516001600160a01b031681526020018360c001516001600160a01b031681526020018360e001516001600160a01b03168152508484815181106111dc57634e487b7160e01b600052603260045260246000fd5b6020026020010181905250505080806111f490612d54565b915050610ff1565b509392505050565b600081815260046020526040902080546001600160a01b0319166001600160a01b038416908117909155819061123982610a2f565b6001600160a01b03167f8c5be1e5ebec7d5bd14f71427d1e84f3dd0314c0f7b2291e5b200ac8c7c3b92560405160405180910390a45050565b6000818152600260205260408120546001600160a01b03166112eb5760405162461bcd60e51b815260206004820152602c60248201527f4552433732313a206f70657261746f7220717565727920666f72206e6f6e657860448201526b34b9ba32b73a103a37b5b2b760a11b606482015260840161056c565b60006112f683610a2f565b9050806001600160a01b0316846001600160a01b031614806113315750836001600160a01b0316611326846104f7565b6001600160a01b0316145b8061136157506001600160a01b0380821660009081526005602090815260408083209388168352929052205460ff165b949350505050565b826001600160a01b031661137c82610a2f565b6001600160a01b0316146113e45760405162461bcd60e51b815260206004820152602960248201527f4552433732313a207472616e73666572206f6620746f6b656e2074686174206960448201526839903737ba1037bbb760b91b606482015260840161056c565b6001600160a01b0382166114465760405162461bcd60e51b8152602060048201526024808201527f4552433732313a207472616e7366657220746f20746865207a65726f206164646044820152637265737360e01b606482015260840161056c565b611451838383611ded565b61145c600082611204565b6001600160a01b0383166000908152600360205260408120805460019290611485908490612cd6565b90915550506001600160a01b03821660009081526003602052604081208054600192906114b3908490612c7f565b909155505060008181526002602052604080822080546001600160a01b0319166001600160a01b0386811691821790925591518493918716917fddf252ad1be2c89b69c2b068fc378daa952ba7f163c4a11628f55a4df523b3ef91a4505050565b604080516000808252602082019092526001600160a01b03841690839060405161153e9190612934565b60006040518083038185875af1925050503d806000811461157b576040519150601f19603f3d011682016040523d82523d6000602084013e611580565b606091505b50509050806106a25760405162461bcd60e51b815260206004820152601860248201527f434152445f4554485f5452414e534645525f4641494c45440000000000000000604482015260640161056c565b610831828260405180602001604052806000815250611ec4565b816001600160a01b0316836001600160a01b0316141561164d5760405162461bcd60e51b815260206004820152601960248201527f4552433732313a20617070726f766520746f2063616c6c657200000000000000604482015260640161056c565b6001600160a01b03838116600081815260056020908152604080832094871680845294825291829020805460ff191686151590811790915591519182527f17307eab39ab6107e8899845ad3d59bd9653f200f220920489ca2b5937696c31910160405180910390a3505050565b6116c5848484611369565b6116d184848484611ef7565b610a0e5760405162461bcd60e51b815260040161056c90612b59565b606060007f00000000000000000000000000000000000000000000000000000000000000006001600160a01b0316630261bf8b6040518163ffffffff1660e01b815260040160206040518083038186803b15801561174a57600080fd5b505afa15801561175e573d6000803e3d6000fd5b505050506040513d601f19601f820116820180604052508101906117829190612302565b604051631f73522760e01b81526001600160a01b0385811660048301529190911690631f73522790602401604080518083038186803b1580156117c457600080fd5b505afa1580156117d8573d6000803e3d6000fd5b505050506040513d601f19601f820116820180604052508101906117fc91906125b4565b5090506000600760008681526020019081526020016000206040518060c001604052908160008201805461182f90612d19565b80601f016020809104026020016040519081016040528092919081815260200182805461185b90612d19565b80156118a85780601f1061187d576101008083540402835291602001916118a8565b820191906000526020600020905b81548152906001019060200180831161188b57829003601f168201915b505050505081526020016001820180546118c190612d19565b80601f01602080910402602001604051908101604052809291908181526020018280546118ed90612d19565b801561193a5780601f1061190f5761010080835404028352916020019161193a565b820191906000526020600020905b81548152906001019060200180831161191d57829003601f168201915b5050505050815260200160028201805461195390612d19565b80601f016020809104026020016040519081016040528092919081815260200182805461197f90612d19565b80156119cc5780601f106119a1576101008083540402835291602001916119cc565b820191906000526020600020905b8154815290600101906020018083116119af57829003601f168201915b505050505081526020016003820180546119e590612d19565b80601f0160208091040260200160405190810160405280929190818152602001828054611a1190612d19565b8015611a5e5780601f10611a3357610100808354040283529160200191611a5e565b820191906000526020600020905b815481529060010190602001808311611a4157829003601f168201915b50505050508152602001600482018054611a7790612d19565b80601f0160208091040260200160405190810160405280929190818152602001828054611aa390612d19565b8015611af05780601f10611ac557610100808354040283529160200191611af0565b820191906000526020600020905b815481529060010190602001808311611ad357829003601f168201915b50505050508152602001600582018054611b0990612d19565b80601f0160208091040260200160405190810160405280929190818152602001828054611b3590612d19565b8015611b825780601f10611b5757610100808354040283529160200191611b82565b820191906000526020600020905b815481529060010190602001808311611b6557829003601f168201915b5050505050815250509050606060006003811115611bb057634e487b7160e01b600052602160045260246000fd5b836003811115611bd057634e487b7160e01b600052602160045260246000fd5b1415611be1575060a0810151611c4e565b6001836003811115611c0357634e487b7160e01b600052602160045260246000fd5b1415611c1457506080810151611c4e565b6002836003811115611c3657634e487b7160e01b600052602160045260246000fd5b1415611c4757506060810151611c4e565b5060408101515b80604051602001611c5f9190612950565b604051602081830303815290604052935050505092915050565b6060815160001415611c9957505060408051602081019091526000815290565b6000604051806060016040528060408152602001612dd86040913990506000600384516002611cc89190612c7f565b611cd29190612c97565b611cdd906004612cb7565b90506000611cec826020612c7f565b67ffffffffffffffff811115611d1257634e487b7160e01b600052604160045260246000fd5b6040519080825280601f01601f191660200182016040528015611d3c576020820181803683370190505b509050818152600183018586518101602084015b81831015611da8576003830192508251603f8160121c168501518253600182019150603f81600c1c168501518253600182019150603f8160061c168501518253600182019150603f8116850151825350600101611d50565b600389510660018114611dc25760028114611dd357611ddf565b613d3d60f01b600119830152611ddf565b603d60f81b6000198301525b509398975050505050505050565b6001600160a01b03831615611e755760405162461bcd60e51b815260206004820152604260248201527f4f6e6c79206d696e74696e6720697320616c6c6f7765642e205468657365204e60448201527f4654732063616e2774206265206275726e6564206f72207472616e7366657272606482015261195960f21b608482015260a40161056c565b611e7e82610aa6565b156106a25760405162461bcd60e51b815260206004820152601660248201527527b7363c9037b7329031b0b932103832b9103ab9b2b960511b604482015260640161056c565b611ece8383612004565b611edb6000848484611ef7565b6106a25760405162461bcd60e51b815260040161056c90612b59565b60006001600160a01b0384163b15611ff957604051630a85bd0160e11b81526001600160a01b0385169063150b7a0290611f3b903390899088908890600401612a71565b602060405180830381600087803b158015611f5557600080fd5b505af1925050508015611f85575060408051601f3d908101601f19168201909252611f8291810190612598565b60015b611fdf573d808015611fb3576040519150601f19603f3d011682016040523d82523d6000602084013e611fb8565b606091505b508051611fd75760405162461bcd60e51b815260040161056c90612b59565b805181602001fd5b6001600160e01b031916630a85bd0160e11b149050611361565b506001949350505050565b6001600160a01b03821661205a5760405162461bcd60e51b815260206004820181905260248201527f4552433732313a206d696e7420746f20746865207a65726f2061646472657373604482015260640161056c565b6000818152600260205260409020546001600160a01b0316156120bf5760405162461bcd60e51b815260206004820152601c60248201527f4552433732313a20746f6b656e20616c7265616479206d696e74656400000000604482015260640161056c565b6120cb60008383611ded565b6001600160a01b03821660009081526003602052604081208054600192906120f4908490612c7f565b909155505060008181526002602052604080822080546001600160a01b0319166001600160a01b03861690811790915590518392907fddf252ad1be2c89b69c2b068fc378daa952ba7f163c4a11628f55a4df523b3ef908290a45050565b82805461215e90612d19565b90600052602060002090601f01602090048101928261218057600085556121c6565b82601f1061219957805160ff19168380011785556121c6565b828001600101855582156121c6579182015b828111156121c65782518255916020019190600101906121ab565b506121d29291506121d6565b5090565b5b808211156121d257600081556001016121d7565b60006121fe6121f984612c57565b612c26565b905082815283838301111561221257600080fd5b828260208301376000602084830101529392505050565b805161223481612d9b565b919050565b600082601f830112612249578081fd5b612258838335602085016121eb565b9392505050565b600060208284031215612270578081fd5b6040516020810181811067ffffffffffffffff8211171561229357612293612d85565b6040529151825250919050565b80516fffffffffffffffffffffffffffffffff8116811461223457600080fd5b805164ffffffffff8116811461223457600080fd5b805160ff8116811461223457600080fd5b6000602082840312156122f7578081fd5b813561225881612d9b565b600060208284031215612313578081fd5b815161225881612d9b565b60008060408385031215612330578081fd5b823561233b81612d9b565b9150602083013561234b81612d9b565b809150509250929050565b60008060006060848603121561236a578081fd5b833561237581612d9b565b9250602084013561238581612d9b565b929592945050506040919091013590565b600080600080608085870312156123ab578182fd5b84356123b681612d9b565b935060208501356123c681612d9b565b925060408501359150606085013567ffffffffffffffff8111156123e8578182fd5b8501601f810187136123f8578182fd5b612407878235602084016121eb565b91505092959194509250565b60008060408385031215612425578182fd5b823561243081612d9b565b9150602083013561234b81612db3565b60008060408385031215612452578182fd5b823561245d81612d9b565b946020939093013593505050565b60008060006060848603121561247f578081fd5b833561248a81612d9b565b92506020840135915060408401356124a181612d9b565b809150509250925092565b600060208083850312156124be578182fd5b825167ffffffffffffffff808211156124d5578384fd5b818501915085601f8301126124e8578384fd5b8151818111156124fa576124fa612d85565b8060051b915061250b848301612c26565b8181528481019084860184860187018a1015612525578788fd5b8795505b83861015612553578051945061253e85612d9b565b84835260019590950194918601918601612529565b5098975050505050505050565b600060208284031215612571578081fd5b815161225881612db3565b60006020828403121561258d578081fd5b813561225881612dc1565b6000602082840312156125a9578081fd5b815161225881612dc1565b600080604083850312156125c6578182fd5b8251600481106125d4578283fd5b6020939093015192949293505050565b6000602082840312156125f5578081fd5b815167ffffffffffffffff81111561260b578182fd5b8201601f8101841361261b578182fd5b80516126296121f982612c57565b81815285602083850101111561263d578384fd5b61264e826020830160208601612ced565b95945050505050565b600080600080600060a0868803121561266e578283fd5b853567ffffffffffffffff80821115612685578485fd5b61269189838a01612239565b965060208801359150808211156126a6578485fd5b6126b289838a01612239565b955060408801359150808211156126c7578485fd5b6126d389838a01612239565b945060608801359150808211156126e8578283fd5b6126f489838a01612239565b93506080880135915080821115612709578283fd5b5061271688828901612239565b9150509295509295909350565b60006101408284031215612735578081fd5b61273d612bfc565b612747848461225f565b8152612755602084016122a0565b6020820152612766604084016122a0565b6040820152612777606084016122a0565b6060820152612788608084016122a0565b608082015261279960a084016122c0565b60a08201526127aa60c08401612229565b60c08201526127bb60e08401612229565b60e08201526101006127ce818501612229565b908201526101206127e08482016122d5565b908201529392505050565b6000602082840312156127fc578081fd5b5035919050565b60008060408385031215612815578182fd5b82359150602083013561234b81612d9b565b60008060008060008060c0878903121561283f578384fd5b865195506020870151945060408701519350606087015192506080870151915060a087015190509295509295509295565b60008151808452612888816020860160208601612ced565b601f01601f19169290920160200192915050565b8054600090600181811c90808316806128b657607f831692505b60208084108214156128d657634e487b7160e01b86526022600452602486fd5b8180156128ea57600181146128fb57612928565b60ff19861689528489019650612928565b60008881526020902060005b868110156129205781548b820152908501908301612907565b505084890196505b50505050505092915050565b60008251612946818460208701612ced565b9190910192915050565b7468747470733a2f2f697066732e696f2f697066732f60581b815260008251612980816015850160208701612ced565b9190910160150192915050565b693d913730b6b2911d101160b11b815260006129ac600a83018661289c565b61088b60f21b8082526f113232b9b1b934b83a34b7b7111d101160811b60028301526129db601283018761289c565b908152691134b6b0b3b2911d101160b11b60028201528451909150612a0781600c840160208801612ced565b601160f91b600c9290910191820152607d60f81b600d820152600e0195945050505050565b7f646174613a6170706c69636174696f6e2f6a736f6e3b6261736536342c000000815260008251612a6481601d850160208701612ced565b91909101601d0192915050565b6001600160a01b0385811682528416602082015260408101839052608060608201819052600090612aa490830184612870565b9695505050505050565b60006020808301818452808551808352604092508286019150828160051b870101848801865b83811015612b3857603f19898403018552815160808151818652612afa82870182612870565b838b01516001600160a01b03908116888d01528a85015181168b89015260609485015116939096019290925250509386019390860190600101612ad4565b509098975050505050505050565b6020815260006122586020830184612870565b60208082526032908201527f4552433732313a207472616e7366657220746f206e6f6e20455243373231526560408201527131b2b4bb32b91034b6b83632b6b2b73a32b960711b606082015260800190565b60208082526031908201527f4552433732313a207472616e736665722063616c6c6572206973206e6f74206f6040820152701ddb995c881b9bdc88185c1c1c9bdd9959607a1b606082015260800190565b604051610140810167ffffffffffffffff81118282101715612c2057612c20612d85565b60405290565b604051601f8201601f1916810167ffffffffffffffff81118282101715612c4f57612c4f612d85565b604052919050565b600067ffffffffffffffff821115612c7157612c71612d85565b50601f01601f191660200190565b60008219821115612c9257612c92612d6f565b500190565b600082612cb257634e487b7160e01b81526012600452602481fd5b500490565b6000816000190483118215151615612cd157612cd1612d6f565b500290565b600082821015612ce857612ce8612d6f565b500390565b60005b83811015612d08578181015183820152602001612cf0565b83811115610a0e5750506000910152565b600181811c90821680612d2d57607f821691505b60208210811415612d4e57634e487b7160e01b600052602260045260246000fd5b50919050565b6000600019821415612d6857612d68612d6f565b5060010190565b634e487b7160e01b600052601160045260246000fd5b634e487b7160e01b600052604160045260246000fd5b6001600160a01b0381168114612db057600080fd5b50565b8015158114612db057600080fd5b6001600160e01b031981168114612db057600080fdfe4142434445464748494a4b4c4d4e4f505152535455565758595a6162636465666768696a6b6c6d6e6f707172737475767778797a303132333435363738392b2fa26469706673582212205136b00082abf1419267202965c624e7749b93557e4bf4224ac92e2e5675ab9b64736f6c63430008040033",
  "linkReferences": {},
  "deployedLinkReferences": {}
}