{
  "_format": "hh-sol-artifact-1",
  "contractName": "RefiCollection",
  "sourceName": "contracts/tokenization/RefiCollection.sol",
  "abi": [
    {
      "inputs": [
        {
          "internalType": "address",
          "name": "addressesProviderAddr",
          "type": "address"
        }
      ],
      "stateMutability": "nonpayable",
      "type": "constructor"
    },
    {
      "anonymous": false,
      "inputs": [
        {
          "indexed": true,
          "internalType": "address",
          "name": "owner",
          "type": "address"
        },
        {
          "indexed": true,
          "internalType": "address",
          "name": "approved",
          "type": "address"
        },
        {
          "indexed": true,
          "internalType": "uint256",
          "name": "tokenId",
          "type": "uint256"
        }
      ],
      "name": "Approval",
      "type": "event"
    },
    {
      "anonymous": false,
      "inputs": [
        {
          "indexed": true,
          "internalType": "address",
          "name": "owner",
          "type": "address"
        },
        {
          "indexed": true,
          "internalType": "address",
          "name": "operator",
          "type": "address"
        },
        {
          "indexed": false,
          "internalType": "bool",
          "name": "approved",
          "type": "bool"
        }
      ],
      "name": "ApprovalForAll",
      "type": "event"
    },
    {
      "anonymous": false,
      "inputs": [
        {
          "indexed": true,
          "internalType": "address",
          "name": "from",
          "type": "address"
        },
        {
          "indexed": true,
          "internalType": "address",
          "name": "to",
          "type": "address"
        },
        {
          "indexed": true,
          "internalType": "uint256",
          "name": "tokenId",
          "type": "uint256"
        }
      ],
      "name": "Transfer",
      "type": "event"
    },
    {
      "inputs": [
        {
          "internalType": "address",
          "name": "to",
          "type": "address"
        },
        {
          "internalType": "uint256",
          "name": "tokenId",
          "type": "uint256"
        }
      ],
      "name": "approve",
      "outputs": [],
      "stateMutability": "nonpayable",
      "type": "function"
    },
    {
      "inputs": [
        {
          "internalType": "address",
          "name": "owner",
          "type": "address"
        }
      ],
      "name": "balanceOf",
      "outputs": [
        {
          "internalType": "uint256",
          "name": "",
          "type": "uint256"
        }
      ],
      "stateMutability": "view",
      "type": "function"
    },
    {
      "inputs": [
        {
          "internalType": "uint256",
          "name": "tokenId",
          "type": "uint256"
        }
      ],
      "name": "getApproved",
      "outputs": [
        {
          "internalType": "address",
          "name": "",
          "type": "address"
        }
      ],
      "stateMutability": "view",
      "type": "function"
    },
    {
      "inputs": [
        {
          "internalType": "address",
          "name": "user",
          "type": "address"
        }
      ],
      "name": "getBorrowLimit",
      "outputs": [
        {
          "internalType": "uint256",
          "name": "availableBorrowsETH",
          "type": "uint256"
        }
      ],
      "stateMutability": "view",
      "type": "function"
    },
    {
      "inputs": [],
      "name": "getSupportedAssets",
      "outputs": [
        {
          "components": [
            {
              "internalType": "string",
              "name": "symbol",
              "type": "string"
            },
            {
              "internalType": "address",
              "name": "tokenAddress",
              "type": "address"
            },
            {
              "internalType": "address",
              "name": "aTokenAddress",
              "type": "address"
            },
            {
              "internalType": "address",
              "name": "dTokenAddress",
              "type": "address"
            }
          ],
          "internalType": "struct RefiCollection.TokenDetailedData[]",
          "name": "",
          "type": "tuple[]"
        }
      ],
      "stateMutability": "view",
      "type": "function"
    },
    {
      "inputs": [
        {
          "internalType": "address",
          "name": "owner",
          "type": "address"
        }
      ],
      "name": "getTokenId",
      "outputs": [
        {
          "internalType": "uint256",
          "name": "token",
          "type": "uint256"
        }
      ],
      "stateMutability": "view",
      "type": "function"
    },
    {
      "inputs": [
        {
          "internalType": "address",
          "name": "owner",
          "type": "address"
        },
        {
          "internalType": "address",
          "name": "operator",
          "type": "address"
        }
      ],
      "name": "isApprovedForAll",
      "outputs": [
        {
          "internalType": "bool",
          "name": "",
          "type": "bool"
        }
      ],
      "stateMutability": "view",
      "type": "function"
    },
    {
      "inputs": [
        {
          "internalType": "string",
          "name": "_description",
          "type": "string"
        },
        {
          "internalType": "string",
          "name": "_bronzeCardCID",
          "type": "string"
        },
        {
          "internalType": "string",
          "name": "_silverCardCID",
          "type": "string"
        },
        {
          "internalType": "string",
          "name": "_goldCardCID",
          "type": "string"
        },
        {
          "internalType": "string",
          "name": "_platinumCardCID",
          "type": "string"
        }
      ],
      "name": "mint",
      "outputs": [],
      "stateMutability": "nonpayable",
      "type": "function"
    },
    {
      "inputs": [],
      "name": "name",
      "outputs": [
        {
          "internalType": "string",
          "name": "",
          "type": "string"
        }
      ],
      "stateMutability": "view",
      "type": "function"
    },
    {
      "inputs": [
        {
          "internalType": "uint256",
          "name": "tokenId",
          "type": "uint256"
        }
      ],
      "name": "ownerOf",
      "outputs": [
        {
          "internalType": "address",
          "name": "",
          "type": "address"
        }
      ],
      "stateMutability": "view",
      "type": "function"
    },
    {
      "inputs": [
        {
          "internalType": "uint256",
          "name": "amount",
          "type": "uint256"
        },
        {
          "internalType": "address",
          "name": "toRecieve",
          "type": "address"
        }
      ],
      "name": "payETHUsingCard",
      "outputs": [],
      "stateMutability": "nonpayable",
      "type": "function"
    },
    {
      "inputs": [
        {
          "internalType": "address",
          "name": "asset",
          "type": "address"
        },
        {
          "internalType": "uint256",
          "name": "amount",
          "type": "uint256"
        },
        {
          "internalType": "address",
          "name": "toRecieve",
          "type": "address"
        }
      ],
      "name": "payUsingCard",
      "outputs": [],
      "stateMutability": "nonpayable",
      "type": "function"
    },
    {
      "inputs": [],
      "name": "refresh",
      "outputs": [],
      "stateMutability": "nonpayable",
      "type": "function"
    },
    {
      "inputs": [
        {
          "internalType": "address",
          "name": "from",
          "type": "address"
        },
        {
          "internalType": "address",
          "name": "to",
          "type": "address"
        },
        {
          "internalType": "uint256",
          "name": "tokenId",
          "type": "uint256"
        }
      ],
      "name": "safeTransferFrom",
      "outputs": [],
      "stateMutability": "nonpayable",
      "type": "function"
    },
    {
      "inputs": [
        {
          "internalType": "address",
          "name": "from",
          "type": "address"
        },
        {
          "internalType": "address",
          "name": "to",
          "type": "address"
        },
        {
          "internalType": "uint256",
          "name": "tokenId",
          "type": "uint256"
        },
        {
          "internalType": "bytes",
          "name": "_data",
          "type": "bytes"
        }
      ],
      "name": "safeTransferFrom",
      "outputs": [],
      "stateMutability": "nonpayable",
      "type": "function"
    },
    {
      "inputs": [
        {
          "internalType": "address",
          "name": "operator",
          "type": "address"
        },
        {
          "internalType": "bool",
          "name": "approved",
          "type": "bool"
        }
      ],
      "name": "setApprovalForAll",
      "outputs": [],
      "stateMutability": "nonpayable",
      "type": "function"
    },
    {
      "inputs": [
        {
          "internalType": "bytes4",
          "name": "interfaceId",
          "type": "bytes4"
        }
      ],
      "name": "supportsInterface",
      "outputs": [
        {
          "internalType": "bool",
          "name": "",
          "type": "bool"
        }
      ],
      "stateMutability": "view",
      "type": "function"
    },
    {
      "inputs": [],
      "name": "symbol",
      "outputs": [
        {
          "internalType": "string",
          "name": "",
          "type": "string"
        }
      ],
      "stateMutability": "view",
      "type": "function"
    },
    {
      "inputs": [
        {
          "internalType": "uint256",
          "name": "tokenId",
          "type": "uint256"
        }
      ],
      "name": "tokenURI",
      "outputs": [
        {
          "internalType": "string",
          "name": "",
          "type": "string"
        }
      ],
      "stateMutability": "view",
      "type": "function"
    },
    {
      "inputs": [
        {
          "internalType": "address",
          "name": "from",
          "type": "address"
        },
        {
          "internalType": "address",
          "name": "to",
          "type": "address"
        },
        {
          "internalType": "uint256",
          "name": "tokenId",
          "type": "uint256"
        }
      ],
      "name": "transferFrom",
      "outputs": [],
      "stateMutability": "nonpayable",
      "type": "function"
    },
    {
      "stateMutability": "payable",
      "type": "receive"
    }
  ],
  "bytecode": "0x60a06040523480156200001157600080fd5b50604051620031b2380380620031b283398101604081905262000034916200015a565b604080518082018252600d81526c1499599a48141c9bdd1bd8dbdb609a1b6020808301918252835180850190945260048452635245464960e01b9084015281519192916200008591600091620000b4565b5080516200009b906001906020840190620000b4565b50505060601b6001600160601b031916608052620001c7565b828054620000c2906200018a565b90600052602060002090601f016020900481019282620000e6576000855562000131565b82601f106200010157805160ff191683800117855562000131565b8280016001018555821562000131579182015b828111156200013157825182559160200191906001019062000114565b506200013f92915062000143565b5090565b5b808211156200013f576000815560010162000144565b6000602082840312156200016c578081fd5b81516001600160a01b038116811462000183578182fd5b9392505050565b600181811c908216806200019f57607f821691505b60208210811415620001c157634e487b7160e01b600052602260045260246000fd5b50919050565b60805160601c612fb062000202600039600081816107360152818161089301528181610b3101528181610e6001526118050152612fb06000f3fe6080604052600436106101235760003560e01c80637c17d237116100a0578063c87b56dd11610064578063c87b56dd14610343578063e5406dbf14610363578063e985e9c514610385578063f1537686146103ce578063f8ac93e81461040457600080fd5b80637c17d237146102ae57806386833e91146102ce57806395d89b41146102ee578063a22cb46514610303578063b88d4fde1461032357600080fd5b806339c5a921116100e757806339c5a921146102005780633d1a39e51461022057806342842e0e146102405780636352211e1461026057806370a082311461028057600080fd5b806301ffc9a71461012f57806306fdde0314610164578063081812fc14610186578063095ea7b3146101be57806323b872dd146101e057600080fd5b3661012a57005b600080fd5b34801561013b57600080fd5b5061014f61014a36600461268e565b610413565b60405190151581526020015b60405180910390f35b34801561017057600080fd5b50610179610465565b60405161015b9190612c8b565b34801561019257600080fd5b506101a66101a13660046128fd565b6104f7565b6040516001600160a01b03909116815260200161015b565b3480156101ca57600080fd5b506101de6101d9366004612552565b610591565b005b3480156101ec57600080fd5b506101de6101fb366004612468565b6106a7565b34801561020c57600080fd5b506101de61021b366004612915565b6106d8565b34801561022c57600080fd5b506101de61023b36600461257d565b610835565b34801561024c57600080fd5b506101de61025b366004612468565b610a14565b34801561026c57600080fd5b506101a661027b3660046128fd565b610a2f565b34801561028c57600080fd5b506102a061029b3660046123f8565b610aa6565b60405190815260200161015b565b3480156102ba57600080fd5b506102a06102c93660046123f8565b610b2d565b3480156102da57600080fd5b506101de6102e9366004612769565b610c47565b3480156102fa57600080fd5b50610179610d8c565b34801561030f57600080fd5b506101de61031e366004612525565b610d9b565b34801561032f57600080fd5b506101de61033e3660046124a8565b610da6565b34801561034f57600080fd5b5061017961035e3660046128fd565b610dd8565b34801561036f57600080fd5b50610378610e5a565b60405161015b9190612bf3565b34801561039157600080fd5b5061014f6103a0366004612430565b6001600160a01b03918216600090815260056020908152604080832093909416825291909152205460ff1690565b3480156103da57600080fd5b506102a06103e93660046123f8565b6001600160a01b031660009081526008602052604090205490565b34801561041057600080fd5b50005b60006001600160e01b031982166380ac58cd60e01b148061044457506001600160e01b03198216635b5e139f60e01b145b8061045f57506301ffc9a760e01b6001600160e01b03198316145b92915050565b60606000805461047490612e52565b80601f01602080910402602001604051908101604052809291908181526020018280546104a090612e52565b80156104ed5780601f106104c2576101008083540402835291602001916104ed565b820191906000526020600020905b8154815290600101906020018083116104d057829003601f168201915b5050505050905090565b6000818152600260205260408120546001600160a01b03166105755760405162461bcd60e51b815260206004820152602c60248201527f4552433732313a20617070726f76656420717565727920666f72206e6f6e657860448201526b34b9ba32b73a103a37b5b2b760a11b60648201526084015b60405180910390fd5b506000908152600460205260409020546001600160a01b031690565b600061059c82610a2f565b9050806001600160a01b0316836001600160a01b0316141561060a5760405162461bcd60e51b815260206004820152602160248201527f4552433732313a20617070726f76616c20746f2063757272656e74206f776e656044820152603960f91b606482015260840161056c565b336001600160a01b0382161480610626575061062681336103a0565b6106985760405162461bcd60e51b815260206004820152603860248201527f4552433732313a20617070726f76652063616c6c6572206973206e6f74206f7760448201527f6e6572206e6f7220617070726f76656420666f7220616c6c0000000000000000606482015260840161056c565b6106a28383611200565b505050565b6106b1338261126e565b6106cd5760405162461bcd60e51b815260040161056c90612cf0565b6106a2838383611365565b336000908152600860205260409020546107345760405162461bcd60e51b815260206004820152601a60248201527f43616c6c657220646f65736e2774206861766520612063617264000000000000604482015260640161056c565b7f00000000000000000000000000000000000000000000000000000000000000006001600160a01b03166377532ed96040518163ffffffff1660e01b815260040160206040518083038186803b15801561078d57600080fd5b505afa1580156107a1573d6000803e3d6000fd5b505050506040513d601f19601f820116820180604052508101906107c59190612414565b60405163ad2843df60e01b8152600481018490523360248201526001600160a01b03919091169063ad2843df90604401600060405180830381600087803b15801561080f57600080fd5b505af1158015610823573d6000803e3d6000fd5b50505050610831818361150c565b5050565b336000908152600860205260409020546108915760405162461bcd60e51b815260206004820152601a60248201527f43616c6c657220646f65736e2774206861766520612063617264000000000000604482015260640161056c565b7f00000000000000000000000000000000000000000000000000000000000000006001600160a01b0316630261bf8b6040518163ffffffff1660e01b815260040160206040518083038186803b1580156108ea57600080fd5b505afa1580156108fe573d6000803e3d6000fd5b505050506040513d601f19601f820116820180604052508101906109229190612414565b604051636c665a5560e01b81526001600160a01b038581166004830152602482018590523360448301529190911690636c665a5590606401600060405180830381600087803b15801561097457600080fd5b505af1158015610988573d6000803e3d6000fd5b505060405163a9059cbb60e01b81526001600160a01b038481166004830152602482018690528616925063a9059cbb9150604401602060405180830381600087803b1580156109d657600080fd5b505af11580156109ea573d6000803e3d6000fd5b505050506040513d601f19601f82011682018060405250810190610a0e9190612672565b50505050565b6106a283838360405180602001604052806000815250610da6565b6000818152600260205260408120546001600160a01b03168061045f5760405162461bcd60e51b815260206004820152602960248201527f4552433732313a206f776e657220717565727920666f72206e6f6e657869737460448201526832b73a103a37b5b2b760b91b606482015260840161056c565b60006001600160a01b038216610b115760405162461bcd60e51b815260206004820152602a60248201527f4552433732313a2062616c616e636520717565727920666f7220746865207a65604482015269726f206164647265737360b01b606482015260840161056c565b506001600160a01b031660009081526003602052604090205490565b60007f00000000000000000000000000000000000000000000000000000000000000006001600160a01b0316630261bf8b6040518163ffffffff1660e01b815260040160206040518083038186803b158015610b8857600080fd5b505afa158015610b9c573d6000803e3d6000fd5b505050506040513d601f19601f82011682018060405250810190610bc09190612414565b604051632fe4a15f60e21b81526001600160a01b038481166004830152919091169063bf92857c9060240160c06040518083038186803b158015610c0357600080fd5b505afa158015610c17573d6000803e3d6000fd5b505050506040513d601f19601f82011682018060405250810190610c3b9190612939565b50919695505050505050565b610c55600680546001019055565b6000610c6060065490565b9050610c6c33826115c9565b6040518060c00160405280610c80836115e3565b604051602001610c909190612a9f565b60408051601f1981840301815291815290825260208281018a9052828201899052606083018890526080830187905260a090920185905260008481526007835220825180519192610ce692849290910190612264565b506020828101518051610cff9260018501920190612264565b5060408201518051610d1b916002840191602090910190612264565b5060608201518051610d37916003840191602090910190612264565b5060808201518051610d53916004840191602090910190612264565b5060a08201518051610d6f916005840191602090910190612264565b505033600090815260086020526040902091909155505050505050565b60606001805461047490612e52565b6108313383836116fd565b610db0338361126e565b610dcc5760405162461bcd60e51b815260040161056c90612cf0565b610a0e848484846117cc565b60606000610de583610a2f565b600084815260076020526040812091925090610e2f9060018101610e0987866117ff565b604051602001610e1b93929190612ad2565b604051602081830303815290604052611d8b565b905080604051602001610e429190612b71565b60405160208183030381529060405292505050919050565b606060007f00000000000000000000000000000000000000000000000000000000000000006001600160a01b0316630261bf8b6040518163ffffffff1660e01b815260040160206040518083038186803b158015610eb757600080fd5b505afa158015610ecb573d6000803e3d6000fd5b505050506040513d601f19601f82011682018060405250810190610eef9190612414565b90506000816001600160a01b031663d1946dbc6040518163ffffffff1660e01b815260040160006040518083038186803b158015610f2c57600080fd5b505afa158015610f40573d6000803e3d6000fd5b505050506040513d6000823e601f3d908101601f19168201604052610f6891908101906125be565b90506000815167ffffffffffffffff811115610f9457634e487b7160e01b600052604160045260246000fd5b604051908082528060200260200182016040528015610fe757816020015b60408051608081018252606080825260006020808401829052938301819052908201528252600019909201910181610fb25790505b50905060005b82518110156111f8576000846001600160a01b03166335ea6a7585848151811061102757634e487b7160e01b600052603260045260246000fd5b60200260200101516040518263ffffffff1660e01b815260040161105a91906001600160a01b0391909116815260200190565b6101406040518083038186803b15801561107357600080fd5b505afa158015611087573d6000803e3d6000fd5b505050506040513d601f19601f820116820180604052508101906110ab9190612835565b905060008483815181106110cf57634e487b7160e01b600052603260045260246000fd5b60200260200101516001600160a01b03166395d89b416040518163ffffffff1660e01b815260040160006040518083038186803b15801561110f57600080fd5b505afa158015611123573d6000803e3d6000fd5b505050506040513d6000823e601f3d908101601f1916820160405261114b91908101906126f6565b9050604051806080016040528082815260200186858151811061117e57634e487b7160e01b600052603260045260246000fd5b60200260200101516001600160a01b031681526020018360c001516001600160a01b031681526020018360e001516001600160a01b03168152508484815181106111d857634e487b7160e01b600052603260045260246000fd5b6020026020010181905250505080806111f090612e8d565b915050610fed565b509392505050565b600081815260046020526040902080546001600160a01b0319166001600160a01b038416908117909155819061123582610a2f565b6001600160a01b03167f8c5be1e5ebec7d5bd14f71427d1e84f3dd0314c0f7b2291e5b200ac8c7c3b92560405160405180910390a45050565b6000818152600260205260408120546001600160a01b03166112e75760405162461bcd60e51b815260206004820152602c60248201527f4552433732313a206f70657261746f7220717565727920666f72206e6f6e657860448201526b34b9ba32b73a103a37b5b2b760a11b606482015260840161056c565b60006112f283610a2f565b9050806001600160a01b0316846001600160a01b0316148061132d5750836001600160a01b0316611322846104f7565b6001600160a01b0316145b8061135d57506001600160a01b0380821660009081526005602090815260408083209388168352929052205460ff165b949350505050565b826001600160a01b031661137882610a2f565b6001600160a01b0316146113dc5760405162461bcd60e51b815260206004820152602560248201527f4552433732313a207472616e736665722066726f6d20696e636f72726563742060448201526437bbb732b960d91b606482015260840161056c565b6001600160a01b03821661143e5760405162461bcd60e51b8152602060048201526024808201527f4552433732313a207472616e7366657220746f20746865207a65726f206164646044820152637265737360e01b606482015260840161056c565b611449838383611eff565b611454600082611200565b6001600160a01b038316600090815260036020526040812080546001929061147d908490612e0f565b90915550506001600160a01b03821660009081526003602052604081208054600192906114ab908490612dc4565b909155505060008181526002602052604080822080546001600160a01b0319166001600160a01b0386811691821790925591518493918716917fddf252ad1be2c89b69c2b068fc378daa952ba7f163c4a11628f55a4df523b3ef91a4505050565b604080516000808252602082019092526001600160a01b0384169083906040516115369190612a46565b60006040518083038185875af1925050503d8060008114611573576040519150601f19603f3d011682016040523d82523d6000602084013e611578565b606091505b50509050806106a25760405162461bcd60e51b815260206004820152601860248201527f434152445f4554485f5452414e534645525f4641494c45440000000000000000604482015260640161056c565b610831828260405180602001604052806000815250611fd6565b6060816116075750506040805180820190915260018152600360fc1b602082015290565b8160005b8115611631578061161b81612e8d565b915061162a9050600a83612ddc565b915061160b565b60008167ffffffffffffffff81111561165a57634e487b7160e01b600052604160045260246000fd5b6040519080825280601f01601f191660200182016040528015611684576020820181803683370190505b5090505b841561135d57611699600183612e0f565b91506116a6600a86612ea8565b6116b1906030612dc4565b60f81b8183815181106116d457634e487b7160e01b600052603260045260246000fd5b60200101906001600160f81b031916908160001a9053506116f6600a86612ddc565b9450611688565b816001600160a01b0316836001600160a01b0316141561175f5760405162461bcd60e51b815260206004820152601960248201527f4552433732313a20617070726f766520746f2063616c6c657200000000000000604482015260640161056c565b6001600160a01b03838116600081815260056020908152604080832094871680845294825291829020805460ff191686151590811790915591519182527f17307eab39ab6107e8899845ad3d59bd9653f200f220920489ca2b5937696c31910160405180910390a3505050565b6117d7848484611365565b6117e384848484612009565b610a0e5760405162461bcd60e51b815260040161056c90612c9e565b606060007f00000000000000000000000000000000000000000000000000000000000000006001600160a01b0316630261bf8b6040518163ffffffff1660e01b815260040160206040518083038186803b15801561185c57600080fd5b505afa158015611870573d6000803e3d6000fd5b505050506040513d601f19601f820116820180604052508101906118949190612414565b604051631f73522760e01b81526001600160a01b0385811660048301529190911690631f73522790602401604080518083038186803b1580156118d657600080fd5b505afa1580156118ea573d6000803e3d6000fd5b505050506040513d601f19601f8201168201806040525081019061190e91906126c6565b5090506000600760008681526020019081526020016000206040518060c001604052908160008201805461194190612e52565b80601f016020809104026020016040519081016040528092919081815260200182805461196d90612e52565b80156119ba5780601f1061198f576101008083540402835291602001916119ba565b820191906000526020600020905b81548152906001019060200180831161199d57829003601f168201915b505050505081526020016001820180546119d390612e52565b80601f01602080910402602001604051908101604052809291908181526020018280546119ff90612e52565b8015611a4c5780601f10611a2157610100808354040283529160200191611a4c565b820191906000526020600020905b815481529060010190602001808311611a2f57829003601f168201915b50505050508152602001600282018054611a6590612e52565b80601f0160208091040260200160405190810160405280929190818152602001828054611a9190612e52565b8015611ade5780601f10611ab357610100808354040283529160200191611ade565b820191906000526020600020905b815481529060010190602001808311611ac157829003601f168201915b50505050508152602001600382018054611af790612e52565b80601f0160208091040260200160405190810160405280929190818152602001828054611b2390612e52565b8015611b705780601f10611b4557610100808354040283529160200191611b70565b820191906000526020600020905b815481529060010190602001808311611b5357829003601f168201915b50505050508152602001600482018054611b8990612e52565b80601f0160208091040260200160405190810160405280929190818152602001828054611bb590612e52565b8015611c025780601f10611bd757610100808354040283529160200191611c02565b820191906000526020600020905b815481529060010190602001808311611be557829003601f168201915b50505050508152602001600582018054611c1b90612e52565b80601f0160208091040260200160405190810160405280929190818152602001828054611c4790612e52565b8015611c945780601f10611c6957610100808354040283529160200191611c94565b820191906000526020600020905b815481529060010190602001808311611c7757829003601f168201915b5050505050815250509050606060006003811115611cc257634e487b7160e01b600052602160045260246000fd5b836003811115611ce257634e487b7160e01b600052602160045260246000fd5b1415611cf3575060a0810151611d60565b6001836003811115611d1557634e487b7160e01b600052602160045260246000fd5b1415611d2657506080810151611d60565b6002836003811115611d4857634e487b7160e01b600052602160045260246000fd5b1415611d5957506060810151611d60565b5060408101515b80604051602001611d719190612a62565b604051602081830303815290604052935050505092915050565b6060815160001415611dab57505060408051602081019091526000815290565b6000604051806060016040528060408152602001612f3b6040913990506000600384516002611dda9190612dc4565b611de49190612ddc565b611def906004612df0565b90506000611dfe826020612dc4565b67ffffffffffffffff811115611e2457634e487b7160e01b600052604160045260246000fd5b6040519080825280601f01601f191660200182016040528015611e4e576020820181803683370190505b509050818152600183018586518101602084015b81831015611eba576003830192508251603f8160121c168501518253600182019150603f81600c1c168501518253600182019150603f8160061c168501518253600182019150603f8116850151825350600101611e62565b600389510660018114611ed45760028114611ee557611ef1565b613d3d60f01b600119830152611ef1565b603d60f81b6000198301525b509398975050505050505050565b6001600160a01b03831615611f875760405162461bcd60e51b815260206004820152604260248201527f4f6e6c79206d696e74696e6720697320616c6c6f7765642e205468657365204e60448201527f4654732063616e2774206265206275726e6564206f72207472616e7366657272606482015261195960f21b608482015260a40161056c565b611f9082610aa6565b156106a25760405162461bcd60e51b815260206004820152601660248201527527b7363c9037b7329031b0b932103832b9103ab9b2b960511b604482015260640161056c565b611fe08383612116565b611fed6000848484612009565b6106a25760405162461bcd60e51b815260040161056c90612c9e565b60006001600160a01b0384163b1561210b57604051630a85bd0160e11b81526001600160a01b0385169063150b7a029061204d903390899088908890600401612bb6565b602060405180830381600087803b15801561206757600080fd5b505af1925050508015612097575060408051601f3d908101601f19168201909252612094918101906126aa565b60015b6120f1573d8080156120c5576040519150601f19603f3d011682016040523d82523d6000602084013e6120ca565b606091505b5080516120e95760405162461bcd60e51b815260040161056c90612c9e565b805181602001fd5b6001600160e01b031916630a85bd0160e11b14905061135d565b506001949350505050565b6001600160a01b03821661216c5760405162461bcd60e51b815260206004820181905260248201527f4552433732313a206d696e7420746f20746865207a65726f2061646472657373604482015260640161056c565b6000818152600260205260409020546001600160a01b0316156121d15760405162461bcd60e51b815260206004820152601c60248201527f4552433732313a20746f6b656e20616c7265616479206d696e74656400000000604482015260640161056c565b6121dd60008383611eff565b6001600160a01b0382166000908152600360205260408120805460019290612206908490612dc4565b909155505060008181526002602052604080822080546001600160a01b0319166001600160a01b03861690811790915590518392907fddf252ad1be2c89b69c2b068fc378daa952ba7f163c4a11628f55a4df523b3ef908290a45050565b82805461227090612e52565b90600052602060002090601f01602090048101928261229257600085556122d8565b82601f106122ab57805160ff19168380011785556122d8565b828001600101855582156122d8579182015b828111156122d85782518255916020019190600101906122bd565b506122e49291506122e8565b5090565b5b808211156122e457600081556001016122e9565b600061231061230b84612d9c565b612d6b565b905082815283838301111561232457600080fd5b828260208301376000602084830101529392505050565b805161234681612efe565b919050565b600082601f83011261235b578081fd5b61236a838335602085016122fd565b9392505050565b600060208284031215612382578081fd5b6040516020810181811067ffffffffffffffff821117156123a5576123a5612ee8565b6040529151825250919050565b80516fffffffffffffffffffffffffffffffff8116811461234657600080fd5b805164ffffffffff8116811461234657600080fd5b805160ff8116811461234657600080fd5b600060208284031215612409578081fd5b813561236a81612efe565b600060208284031215612425578081fd5b815161236a81612efe565b60008060408385031215612442578081fd5b823561244d81612efe565b9150602083013561245d81612efe565b809150509250929050565b60008060006060848603121561247c578081fd5b833561248781612efe565b9250602084013561249781612efe565b929592945050506040919091013590565b600080600080608085870312156124bd578182fd5b84356124c881612efe565b935060208501356124d881612efe565b925060408501359150606085013567ffffffffffffffff8111156124fa578182fd5b8501601f8101871361250a578182fd5b612519878235602084016122fd565b91505092959194509250565b60008060408385031215612537578182fd5b823561254281612efe565b9150602083013561245d81612f16565b60008060408385031215612564578182fd5b823561256f81612efe565b946020939093013593505050565b600080600060608486031215612591578081fd5b833561259c81612efe565b92506020840135915060408401356125b381612efe565b809150509250925092565b600060208083850312156125d0578182fd5b825167ffffffffffffffff808211156125e7578384fd5b818501915085601f8301126125fa578384fd5b81518181111561260c5761260c612ee8565b8060051b915061261d848301612d6b565b8181528481019084860184860187018a1015612637578788fd5b8795505b83861015612665578051945061265085612efe565b8483526001959095019491860191860161263b565b5098975050505050505050565b600060208284031215612683578081fd5b815161236a81612f16565b60006020828403121561269f578081fd5b813561236a81612f24565b6000602082840312156126bb578081fd5b815161236a81612f24565b600080604083850312156126d8578182fd5b8251600481106126e6578283fd5b6020939093015192949293505050565b600060208284031215612707578081fd5b815167ffffffffffffffff81111561271d578182fd5b8201601f8101841361272d578182fd5b805161273b61230b82612d9c565b81815285602083850101111561274f578384fd5b612760826020830160208601612e26565b95945050505050565b600080600080600060a08688031215612780578283fd5b853567ffffffffffffffff80821115612797578485fd5b6127a389838a0161234b565b965060208801359150808211156127b8578485fd5b6127c489838a0161234b565b955060408801359150808211156127d9578485fd5b6127e589838a0161234b565b945060608801359150808211156127fa578283fd5b61280689838a0161234b565b9350608088013591508082111561281b578283fd5b506128288882890161234b565b9150509295509295909350565b60006101408284031215612847578081fd5b61284f612d41565b6128598484612371565b8152612867602084016123b2565b6020820152612878604084016123b2565b6040820152612889606084016123b2565b606082015261289a608084016123b2565b60808201526128ab60a084016123d2565b60a08201526128bc60c0840161233b565b60c08201526128cd60e0840161233b565b60e08201526101006128e081850161233b565b908201526101206128f28482016123e7565b908201529392505050565b60006020828403121561290e578081fd5b5035919050565b60008060408385031215612927578182fd5b82359150602083013561245d81612efe565b60008060008060008060c08789031215612951578384fd5b865195506020870151945060408701519350606087015192506080870151915060a087015190509295509295509295565b6000815180845261299a816020860160208601612e26565b601f01601f19169290920160200192915050565b8054600090600181811c90808316806129c857607f831692505b60208084108214156129e857634e487b7160e01b86526022600452602486fd5b8180156129fc5760018114612a0d57612a3a565b60ff19861689528489019650612a3a565b60008881526020902060005b86811015612a325781548b820152908501908301612a19565b505084890196505b50505050505092915050565b60008251612a58818460208701612e26565b9190910192915050565b7468747470733a2f2f697066732e696f2f697066732f60581b815260008251612a92816015850160208701612e26565b9190910160150192915050565b6a526566692043617264202360a81b815260008251612ac581600b850160208701612e26565b91909101600b0192915050565b693d913730b6b2911d101160b11b81526000612af1600a8301866129ae565b61088b60f21b8082526f113232b9b1b934b83a34b7b7111d101160811b6002830152612b2060128301876129ae565b908152691134b6b0b3b2911d101160b11b60028201528451909150612b4c81600c840160208801612e26565b601160f91b600c9290910191820152607d60f81b600d820152600e0195945050505050565b7f646174613a6170706c69636174696f6e2f6a736f6e3b6261736536342c000000815260008251612ba981601d850160208701612e26565b91909101601d0192915050565b6001600160a01b0385811682528416602082015260408101839052608060608201819052600090612be990830184612982565b9695505050505050565b60006020808301818452808551808352604092508286019150828160051b870101848801865b83811015612c7d57603f19898403018552815160808151818652612c3f82870182612982565b838b01516001600160a01b03908116888d01528a85015181168b89015260609485015116939096019290925250509386019390860190600101612c19565b509098975050505050505050565b60208152600061236a6020830184612982565b60208082526032908201527f4552433732313a207472616e7366657220746f206e6f6e20455243373231526560408201527131b2b4bb32b91034b6b83632b6b2b73a32b960711b606082015260800190565b60208082526031908201527f4552433732313a207472616e736665722063616c6c6572206973206e6f74206f6040820152701ddb995c881b9bdc88185c1c1c9bdd9959607a1b606082015260800190565b604051610140810167ffffffffffffffff81118282101715612d6557612d65612ee8565b60405290565b604051601f8201601f1916810167ffffffffffffffff81118282101715612d9457612d94612ee8565b604052919050565b600067ffffffffffffffff821115612db657612db6612ee8565b50601f01601f191660200190565b60008219821115612dd757612dd7612ebc565b500190565b600082612deb57612deb612ed2565b500490565b6000816000190483118215151615612e0a57612e0a612ebc565b500290565b600082821015612e2157612e21612ebc565b500390565b60005b83811015612e41578181015183820152602001612e29565b83811115610a0e5750506000910152565b600181811c90821680612e6657607f821691505b60208210811415612e8757634e487b7160e01b600052602260045260246000fd5b50919050565b6000600019821415612ea157612ea1612ebc565b5060010190565b600082612eb757612eb7612ed2565b500690565b634e487b7160e01b600052601160045260246000fd5b634e487b7160e01b600052601260045260246000fd5b634e487b7160e01b600052604160045260246000fd5b6001600160a01b0381168114612f1357600080fd5b50565b8015158114612f1357600080fd5b6001600160e01b031981168114612f1357600080fdfe4142434445464748494a4b4c4d4e4f505152535455565758595a6162636465666768696a6b6c6d6e6f707172737475767778797a303132333435363738392b2fa2646970667358221220c9a24ea9fc53608620a539530b8a13907a98bb71c872597e111c746729fba10864736f6c63430008040033",
  "linkReferences": {},
  "deployedLinkReferences": {}
}