{
  "_format": "hh-sol-artifact-1",
  "contractName": "ReserveInterestRateStrategy",
  "sourceName": "contracts/lendingpool/ReserveInterestRateStrategy.sol",
  "abi": [
    {
      "inputs": [
        {
          "internalType": "contract IAddressesProvider",
          "name": "provider",
          "type": "address"
        },
        {
          "internalType": "uint256",
          "name": "optimalUtilizationRate",
          "type": "uint256"
        },
        {
          "internalType": "uint256",
          "name": "baseVariableBorrowRate",
          "type": "uint256"
        },
        {
          "internalType": "uint256",
          "name": "variableRateSlope1",
          "type": "uint256"
        },
        {
          "internalType": "uint256",
          "name": "variableRateSlope2",
          "type": "uint256"
        }
      ],
      "stateMutability": "nonpayable",
      "type": "constructor"
    },
    {
      "inputs": [],
      "name": "EXCESS_UTILIZATION_RATE",
      "outputs": [
        {
          "internalType": "uint256",
          "name": "",
          "type": "uint256"
        }
      ],
      "stateMutability": "view",
      "type": "function"
    },
    {
      "inputs": [],
      "name": "OPTIMAL_UTILIZATION_RATE",
      "outputs": [
        {
          "internalType": "uint256",
          "name": "",
          "type": "uint256"
        }
      ],
      "stateMutability": "view",
      "type": "function"
    },
    {
      "inputs": [],
      "name": "addressesProvider",
      "outputs": [
        {
          "internalType": "contract IAddressesProvider",
          "name": "",
          "type": "address"
        }
      ],
      "stateMutability": "view",
      "type": "function"
    },
    {
      "inputs": [
        {
          "internalType": "address",
          "name": "reserve",
          "type": "address"
        },
        {
          "internalType": "address",
          "name": "aToken",
          "type": "address"
        },
        {
          "internalType": "uint256",
          "name": "liquidityAdded",
          "type": "uint256"
        },
        {
          "internalType": "uint256",
          "name": "liquidityTaken",
          "type": "uint256"
        },
        {
          "internalType": "uint256",
          "name": "totalVariableDebt",
          "type": "uint256"
        }
      ],
      "name": "calculateInterestRates",
      "outputs": [
        {
          "internalType": "uint256",
          "name": "",
          "type": "uint256"
        },
        {
          "internalType": "uint256",
          "name": "",
          "type": "uint256"
        }
      ],
      "stateMutability": "view",
      "type": "function"
    },
    {
      "inputs": [],
      "name": "getBaseVariableBorrowRate",
      "outputs": [
        {
          "internalType": "uint256",
          "name": "",
          "type": "uint256"
        }
      ],
      "stateMutability": "view",
      "type": "function"
    },
    {
      "inputs": [],
      "name": "getMaxVariableBorrowRate",
      "outputs": [
        {
          "internalType": "uint256",
          "name": "",
          "type": "uint256"
        }
      ],
      "stateMutability": "view",
      "type": "function"
    },
    {
      "inputs": [],
      "name": "getVariableRateSlope1",
      "outputs": [
        {
          "internalType": "uint256",
          "name": "",
          "type": "uint256"
        }
      ],
      "stateMutability": "view",
      "type": "function"
    },
    {
      "inputs": [],
      "name": "getVariableRateSlope2",
      "outputs": [
        {
          "internalType": "uint256",
          "name": "",
          "type": "uint256"
        }
      ],
      "stateMutability": "view",
      "type": "function"
    }
  ],
  "bytecode": "0x61014060405234801561001157600080fd5b50604051610aca380380610aca833981016040819052610030916100ad565b83608081815250506100608461004e61008a60201b61051b1760201c565b61009a60201b61052b1790919060201c565b60a05260609490941b6001600160601b03191660c05260e091909152610100525061012052610123565b6b033b2e3c9fd0803ce800000090565b60006100a68284610100565b9392505050565b600080600080600060a086880312156100c4578081fd5b85516001600160a01b03811681146100da578182fd5b602087015160408801516060890151608090990151929a91995097965090945092505050565b60008282101561011e57634e487b7160e01b81526011600452602481fd5b500390565b60805160a05160c05160601c60e05161010051610120516109046101c6600039600081816101a7015281816101d201526103d7015260008181608f0152818161021701528181610422015261047d01526000818160eb015281816101f60152818161040101526104b10152600061014301526000818160c7015261037101526000818161011c0152818161034501528181610395015261045901526109046000f3fe608060405234801561001057600080fd5b50600436106100885760003560e01c8063a15f30ac1161005b578063a15f30ac14610117578063c72c4d101461013e578063e5f516001461017d578063f4202409146101a557600080fd5b80630b3429a21461008d57806317319873146100c257806334762ca5146100e957806380031e371461010f575b600080fd5b7f00000000000000000000000000000000000000000000000000000000000000005b6040519081526020015b60405180910390f35b6100af7f000000000000000000000000000000000000000000000000000000000000000081565b7f00000000000000000000000000000000000000000000000000000000000000006100af565b6100af6101cb565b6100af7f000000000000000000000000000000000000000000000000000000000000000081565b6101657f000000000000000000000000000000000000000000000000000000000000000081565b6040516001600160a01b0390911681526020016100b9565b61019061018b366004610793565b610246565b604080519283526020830191909152016100b9565b7f00000000000000000000000000000000000000000000000000000000000000006100af565b60006102417f000000000000000000000000000000000000000000000000000000000000000061023b7f00000000000000000000000000000000000000000000000000000000000000007f0000000000000000000000000000000000000000000000000000000000000000610540565b90610540565b905090565b6040516370a0823160e01b81526001600160a01b03858116600483015260009182918291908916906370a082319060240160206040518083038186803b15801561028f57600080fd5b505afa1580156102a3573d6000803e3d6000fd5b505050506040513d601f19601f820116820180604052508101906102c791906107df565b90506102d78661023b838861052b565b90506103046040518060800160405280600081526020016000815260200160008152602001600081525090565b848152600060208201819052604082015284156103395780516103349061032c908490610540565b82519061054c565b61033c565b60005b606082018190527f000000000000000000000000000000000000000000000000000000000000000010156104515760006103cd7f00000000000000000000000000000000000000000000000000000000000000006103c77f0000000000000000000000000000000000000000000000000000000000000000856060015161052b90919063ffffffff16565b9061054c565b90506104466103fc7f000000000000000000000000000000000000000000000000000000000000000083610633565b61023b7f00000000000000000000000000000000000000000000000000000000000000007f0000000000000000000000000000000000000000000000000000000000000000610540565b6020830152506104dc565b6104d66104af7f00000000000000000000000000000000000000000000000000000000000000006103c77f0000000000000000000000000000000000000000000000000000000000000000856060015161063390919063ffffffff16565b7f000000000000000000000000000000000000000000000000000000000000000090610540565b60208201525b6104ff6127106104f983606001518861063390919063ffffffff16565b906106ee565b6040820181905260209091015190999098509650505050505050565b6b033b2e3c9fd0803ce800000090565b600061053782846108a1565b90505b92915050565b6000610537828461084a565b604080518082019091526002815261035360f41b60208201526000908261058f5760405162461bcd60e51b815260040161058691906107f7565b60405180910390fd5b50600061059d600284610862565b90506b033b2e3c9fd0803ce80000006105b8826000196108a1565b6105c29190610862565b84111560405180604001604052806002815260200161068760f31b815250906105fe5760405162461bcd60e51b815260040161058691906107f7565b5082816106176b033b2e3c9fd0803ce800000087610882565b610621919061084a565b61062b9190610862565b949350505050565b6000821580610640575081155b1561064d5750600061053a565b8161066560026b033b2e3c9fd0803ce8000000610862565b610671906000196108a1565b61067b9190610862565b83111560405180604001604052806002815260200161068760f31b815250906106b75760405162461bcd60e51b815260040161058691906107f7565b506b033b2e3c9fd0803ce80000006106d0600282610862565b6106da8486610882565b6106e4919061084a565b6105379190610862565b60008215806106fb575081155b156107085750600061053a565b816107166002612710610862565b610722906000196108a1565b61072c9190610862565b83111560405180604001604052806002815260200161068760f31b815250906107685760405162461bcd60e51b815260040161058691906107f7565b506127106106d0600282610862565b80356001600160a01b038116811461078e57600080fd5b919050565b600080600080600060a086880312156107aa578081fd5b6107b386610777565b94506107c160208701610777565b94979496505050506040830135926060810135926080909101359150565b6000602082840312156107f0578081fd5b5051919050565b6000602080835283518082850152825b8181101561082357858101830151858201604001528201610807565b818111156108345783604083870101525b50601f01601f1916929092016040019392505050565b6000821982111561085d5761085d6108b8565b500190565b60008261087d57634e487b7160e01b81526012600452602481fd5b500490565b600081600019048311821515161561089c5761089c6108b8565b500290565b6000828210156108b3576108b36108b8565b500390565b634e487b7160e01b600052601160045260246000fdfea26469706673582212200a003be3ec2abd3c594d7b781b4234617b348d34cb9cdaeec4654859fe69552364736f6c63430008040033",
  "linkReferences": {},
  "deployedLinkReferences": {}
}