{
  "_format": "hh-sol-artifact-1",
  "contractName": "AddressesProvider",
  "sourceName": "contracts/AddressesProvider.sol",
  "abi": [
    {
      "inputs": [],
      "stateMutability": "nonpayable",
      "type": "constructor"
    },
    {
      "inputs": [],
      "name": "DAI",
      "outputs": [
        {
          "internalType": "address",
          "name": "",
          "type": "address"
        }
      ],
      "stateMutability": "view",
      "type": "function"
    },
    {
      "inputs": [],
      "name": "DAI_TO_ETH",
      "outputs": [
        {
          "internalType": "address",
          "name": "",
          "type": "address"
        }
      ],
      "stateMutability": "view",
      "type": "function"
    },
    {
      "inputs": [],
      "name": "DAI_TO_USD",
      "outputs": [
        {
          "internalType": "address",
          "name": "",
          "type": "address"
        }
      ],
      "stateMutability": "view",
      "type": "function"
    },
    {
      "inputs": [],
      "name": "ETH_TO_USD",
      "outputs": [
        {
          "internalType": "address",
          "name": "",
          "type": "address"
        }
      ],
      "stateMutability": "view",
      "type": "function"
    },
    {
      "inputs": [],
      "name": "LINK",
      "outputs": [
        {
          "internalType": "address",
          "name": "",
          "type": "address"
        }
      ],
      "stateMutability": "view",
      "type": "function"
    },
    {
      "inputs": [],
      "name": "LINK_TO_ETH",
      "outputs": [
        {
          "internalType": "address",
          "name": "",
          "type": "address"
        }
      ],
      "stateMutability": "view",
      "type": "function"
    },
    {
      "inputs": [],
      "name": "LINK_TO_USD",
      "outputs": [
        {
          "internalType": "address",
          "name": "",
          "type": "address"
        }
      ],
      "stateMutability": "view",
      "type": "function"
    },
    {
      "inputs": [],
      "name": "WETH",
      "outputs": [
        {
          "internalType": "address",
          "name": "",
          "type": "address"
        }
      ],
      "stateMutability": "view",
      "type": "function"
    },
    {
      "inputs": [],
      "name": "getAssetsAndETHPriceSources",
      "outputs": [
        {
          "internalType": "address[]",
          "name": "",
          "type": "address[]"
        },
        {
          "internalType": "address[]",
          "name": "",
          "type": "address[]"
        }
      ],
      "stateMutability": "view",
      "type": "function"
    },
    {
      "inputs": [],
      "name": "getAssetsAndUSDPriceSources",
      "outputs": [
        {
          "internalType": "bytes32[]",
          "name": "",
          "type": "bytes32[]"
        },
        {
          "internalType": "address[]",
          "name": "",
          "type": "address[]"
        }
      ],
      "stateMutability": "view",
      "type": "function"
    },
    {
      "inputs": [],
      "name": "getLendingPool",
      "outputs": [
        {
          "internalType": "address",
          "name": "",
          "type": "address"
        }
      ],
      "stateMutability": "view",
      "type": "function"
    },
    {
      "inputs": [],
      "name": "getPriceOracle",
      "outputs": [
        {
          "internalType": "address",
          "name": "",
          "type": "address"
        }
      ],
      "stateMutability": "view",
      "type": "function"
    },
    {
      "inputs": [],
      "name": "getWETHGateway",
      "outputs": [
        {
          "internalType": "address",
          "name": "",
          "type": "address"
        }
      ],
      "stateMutability": "view",
      "type": "function"
    },
    {
      "inputs": [],
      "name": "isProduction",
      "outputs": [
        {
          "internalType": "bool",
          "name": "",
          "type": "bool"
        }
      ],
      "stateMutability": "view",
      "type": "function"
    },
    {
      "inputs": [],
      "name": "protocolDataProvider",
      "outputs": [
        {
          "internalType": "address",
          "name": "",
          "type": "address"
        }
      ],
      "stateMutability": "view",
      "type": "function"
    },
    {
      "inputs": [],
      "name": "walletBalanceProvider",
      "outputs": [
        {
          "internalType": "address",
          "name": "",
          "type": "address"
        }
      ],
      "stateMutability": "view",
      "type": "function"
    }
  ],
  "bytecode": "0x610120604052600080546001600160a01b031990811673c778417e063141139fce010982780140aa0cd5ab17909155600180548216735592ec0cfb4dbc12d3ab100b257153436a1f0fea1790556002805482167301be23585060835e02b77ef475b0cc51aa1e07091790556003805482167374825dbc8bf76cc4e9494d0ecb210f676efa001d17905560048054821673fabe80711f3ea886c3ac102c81ffc9825e16162e179055600580548216738a753747a1fa494ec906ce90e9f37563a8af630e179055600680548216732ba49aaa16e6afd2a993473cfb70fa8559b523cf1790556007805490911673d8bd0a1cb028a31aa859a21a3758685a95de46231790553480156200010e57600080fd5b50600030604051620001209062001688565b6001600160a01b039091168152602001604051809103906000f0801580156200014d573d6000803e3d6000fd5b506001600160601b0319606082901b166080529050604051620001709062001696565b604051809103906000f0801580156200018d573d6000803e3d6000fd5b50600080546001600160a01b0319166001600160a01b0392909216919091179055604051620001bc90620016a4565b6040808252600990820152682220a4902a37b5b2b760b91b60608201526080602082018190526003908201526244414960e81b60a082015260c001604051809103906000f08015801562000214573d6000803e3d6000fd5b50600180546001600160a01b0319166001600160a01b03929092169190911790556040516200024390620016a4565b6040808252600a90820152692624a725902a37b5b2b760b11b6060820152608060208201819052600490820152634c494e4b60e01b60a082015260c001604051809103906000f0801580156200029d573d6000803e3d6000fd5b50600280546001600160a01b0319166001600160a01b03929092169190911790556040516706f05b59d3b2000090620002d690620016b2565b908152602001604051809103906000f080158015620002f9573d6000803e3d6000fd5b50600380546001600160a01b0319166001600160a01b03929092169190911790556040516706f05b59d3b20000906200033290620016b2565b908152602001604051809103906000f08015801562000355573d6000803e3d6000fd5b50600480546001600160a01b0319166001600160a01b03929092169190911790556040516445d964b800906200038b90620016b2565b908152602001604051809103906000f080158015620003ae573d6000803e3d6000fd5b50600580546001600160a01b0319166001600160a01b03929092169190911790556040516305e69ec090620003e390620016b2565b908152602001604051809103906000f08015801562000406573d6000803e3d6000fd5b50600680546001600160a01b0319166001600160a01b03929092169190911790556040516377359400906200043b90620016b2565b908152602001604051809103906000f0801580156200045e573d6000803e3d6000fd5b50600780546001600160a01b0319166001600160a01b03928316179055600080546040519192169083906200049390620016c0565b6001600160a01b03928316815291166020820152604001604051809103906000f080158015620004c7573d6000803e3d6000fd5b50606081811b6001600160601b03191660a0526040805160028082529281019091529192506000919081602001602082028036833750506040805160028082526060820183529394506000939092509060208301908036833701905050905062000530620006c9565b6000805460405193955091935091849184916001600160a01b0390911690670de0b6b3a7640000906200056390620016ce565b62000572949392919062001780565b604051809103906000f0801580156200058f573d6000803e3d6000fd5b506001600160601b0319606082901b1660c0529050620005af8562000823565b620005ba8562000c89565b620005c585620010b8565b30604051620005d490620016dc565b6001600160a01b039091168152602001604051809103906000f08015801562000601573d6000803e3d6000fd5b506001600160601b031960609190911b1660e0526040805160038082526080820190925260009181602001602082028036833750506040805160038082526080820190925292935060009291506020820160608036833701905050905062000668620014ed565b6040519193509150829082906200067f90620016ea565b6200068c929190620017c6565b604051809103906000f080158015620006a9573d6000803e3d6000fd5b5060601b6001600160601b03191661010052506200182195505050505050565b60408051600280825260608281019093528291600091816020016020820280368337505060408051600280825260608201835293945060009390925090602083019080368337505060015484519293506001600160a01b0316918491506000906200074457634e487b7160e01b600052603260045260246000fd5b6001600160a01b0392831660209182029290920101526002548351911690839060019081106200078457634e487b7160e01b600052603260045260246000fd5b6001600160a01b03928316602091820292909201015260035482519116908290600090620007c257634e487b7160e01b600052603260045260246000fd5b6001600160a01b0392831660209182029290920101526004548251911690829060019081106200080257634e487b7160e01b600052603260045260246000fd5b6001600160a01b039092166020928302919091019091015290939092509050565b6000805460405183916001600160a01b0316906012906200084490620016f8565b6001600160a01b03938416815292909116602083015260ff16604082015260a060608201819052600b908201526a30aba2aa24102a37b5b2b760a91b60c082015260e060808201819052600590820152640c2ae8aa8960db1b61010082015261012001604051809103906000f080158015620008c4573d6000803e3d6000fd5b50905060008260008054906101000a90046001600160a01b03166012604051620008ee9062001706565b6001600160a01b03938416815292909116602083015260ff16604082015260a060608201819052600a90820152693222aa24102a37b5b2b760b11b60c082015260e060808201819052600490820152630c88aa8960e31b61010082015261012001604051809103906000f0801580156200096c573d6000803e3d6000fd5b5060405163820f0fb560e01b815260416004820152909150600090309073__$acfa992bb9b9449e585e2b7d311f34c7d0$__9063820f0fb59060240160206040518083038186803b158015620009c157600080fd5b505af4158015620009d6573d6000803e3d6000fd5b505050506040513d601f19601f82011682018060405250810190620009fc919062001722565b60405163820f0fb560e01b81526000600482015273__$acfa992bb9b9449e585e2b7d311f34c7d0$__9063820f0fb59060240160206040518083038186803b15801562000a4857600080fd5b505af415801562000a5d573d6000803e3d6000fd5b505050506040513d601f19601f8201168201806040525081019062000a83919062001722565b60405163820f0fb560e01b81526008600482015273__$acfa992bb9b9449e585e2b7d311f34c7d0$__9063820f0fb59060240160206040518083038186803b15801562000acf57600080fd5b505af415801562000ae4573d6000803e3d6000fd5b505050506040513d601f19601f8201168201806040525081019062000b0a919062001722565b60405163820f0fb560e01b81526064600482015273__$acfa992bb9b9449e585e2b7d311f34c7d0$__9063820f0fb59060240160206040518083038186803b15801562000b5657600080fd5b505af415801562000b6b573d6000803e3d6000fd5b505050506040513d601f19601f8201168201806040525081019062000b91919062001722565b60405162000b9f9062001714565b6001600160a01b039095168552602085019390935260408401919091526060830152608082015260a001604051809103906000f08015801562000be6573d6000803e3d6000fd5b5060005460405163260d456760e21b81526001600160a01b039182166004820152858216602482015284821660448201528183166064820152611d4c6084820152611f4060a4820152612af860c4820152601260e4820152919250851690639835159c90610104015b600060405180830381600087803b15801562000c6a57600080fd5b505af115801562000c7f573d6000803e3d6000fd5b5050505050505050565b60015460405160009183916001600160a01b039091169060129062000cae90620016f8565b6001600160a01b03938416815292909116602083015260ff16604082015260a060608201819052600a908201526930a220a4902a37b5b2b760b11b60c082015260e060808201819052600490820152636144414960e01b61010082015261012001604051809103906000f08015801562000d2c573d6000803e3d6000fd5b5060015460405191925060009184916001600160a01b03169060129062000d539062001706565b6001600160a01b03938416815292909116602083015260ff16604082015260a060608201819052600a9082015269322220a4902a37b5b2b760b11b60c082015260e060808201819052600490820152636444414960e01b61010082015261012001604051809103906000f08015801562000dd1573d6000803e3d6000fd5b5060405163820f0fb560e01b815260506004820152909150600090309073__$acfa992bb9b9449e585e2b7d311f34c7d0$__9063820f0fb59060240160206040518083038186803b15801562000e2657600080fd5b505af415801562000e3b573d6000803e3d6000fd5b505050506040513d601f19601f8201168201806040525081019062000e61919062001722565b60405163820f0fb560e01b81526000600482015273__$acfa992bb9b9449e585e2b7d311f34c7d0$__9063820f0fb59060240160206040518083038186803b15801562000ead57600080fd5b505af415801562000ec2573d6000803e3d6000fd5b505050506040513d601f19601f8201168201806040525081019062000ee8919062001722565b60405163820f0fb560e01b815260048082015273__$acfa992bb9b9449e585e2b7d311f34c7d0$__9063820f0fb59060240160206040518083038186803b15801562000f3357600080fd5b505af415801562000f48573d6000803e3d6000fd5b505050506040513d601f19601f8201168201806040525081019062000f6e919062001722565b60405163820f0fb560e01b8152604b600482015273__$acfa992bb9b9449e585e2b7d311f34c7d0$__9063820f0fb59060240160206040518083038186803b15801562000fba57600080fd5b505af415801562000fcf573d6000803e3d6000fd5b505050506040513d601f19601f8201168201806040525081019062000ff5919062001722565b604051620010039062001714565b6001600160a01b039095168552602085019390935260408401919091526060830152608082015260a001604051809103906000f0801580156200104a573d6000803e3d6000fd5b5060015460405163260d456760e21b81526001600160a01b039182166004820152858216602482015284821660448201528183166064820152611d4c6084820152611f4060a4820152612af860c4820152601260e4820152919250851690639835159c906101040162000c4f565b60025460405160009183916001600160a01b0390911690601290620010dd90620016f8565b6001600160a01b03938416815292909116602083015260ff16604082015260a060608201819052600b908201526a30a624a725902a37b5b2b760a91b60c082015260e06080820181905260059082015264614c494e4b60d81b61010082015261012001604051809103906000f0801580156200115d573d6000803e3d6000fd5b5060025460405191925060009184916001600160a01b031690601290620011849062001706565b6001600160a01b03938416815292909116602083015260ff16604082015260a060608201819052600b908201526a322624a725902a37b5b2b760a91b60c082015260e06080820181905260059082015264644c494e4b60d81b61010082015261012001604051809103906000f08015801562001204573d6000803e3d6000fd5b5060405163820f0fb560e01b8152602d6004820152909150600090309073__$acfa992bb9b9449e585e2b7d311f34c7d0$__9063820f0fb59060240160206040518083038186803b1580156200125957600080fd5b505af41580156200126e573d6000803e3d6000fd5b505050506040513d601f19601f8201168201806040525081019062001294919062001722565b60405163820f0fb560e01b81526000600482015273__$acfa992bb9b9449e585e2b7d311f34c7d0$__9063820f0fb59060240160206040518083038186803b158015620012e057600080fd5b505af4158015620012f5573d6000803e3d6000fd5b505050506040513d601f19601f820116820180604052508101906200131b919062001722565b60405163820f0fb560e01b81526007600482015273__$acfa992bb9b9449e585e2b7d311f34c7d0$__9063820f0fb59060240160206040518083038186803b1580156200136757600080fd5b505af41580156200137c573d6000803e3d6000fd5b505050506040513d601f19601f82011682018060405250810190620013a2919062001722565b60405163820f0fb560e01b815261012c600482015273__$acfa992bb9b9449e585e2b7d311f34c7d0$__9063820f0fb59060240160206040518083038186803b158015620013ef57600080fd5b505af415801562001404573d6000803e3d6000fd5b505050506040513d601f19601f820116820180604052508101906200142a919062001722565b604051620014389062001714565b6001600160a01b039095168552602085019390935260408401919091526060830152608082015260a001604051809103906000f0801580156200147f573d6000803e3d6000fd5b5060025460405163260d456760e21b81526001600160a01b039182166004820152858216602482015284821660448201528183166064820152611d4c6084820152611f4060a4820152612af860c4820152601260e4820152919250851690639835159c906101040162000c4f565b6040805160038082526080820190925260609182916000916020820184803683375050604080516003808252608082019092529293506000929150602082016060803683370190505090506244414960e81b826000815181106200156157634e487b7160e01b600052603260045260246000fd5b602002602001018181525050634c494e4b60e01b826001815181106200159757634e487b7160e01b600052603260045260246000fd5b6020026020010181815250506208aa8960eb1b82600281518110620015cc57634e487b7160e01b600052603260045260246000fd5b602090810291909101015260065481516001600160a01b039091169082906000906200160857634e487b7160e01b600052603260045260246000fd5b6001600160a01b0392831660209182029290920101526007548251911690829060019081106200164857634e487b7160e01b600052603260045260246000fd5b6001600160a01b0392831660209182029290920101526005548251911690829060029081106200080257634e487b7160e01b600052603260045260246000fd5b61434e8062001f1883390190565b610969806200626683390190565b610c5a8062006bcf83390190565b610261806200782983390190565b61136b8062007a8a83390190565b6108908062008df583390190565b611c83806200968583390190565b610ebe806200b30883390190565b611c1b806200c1c683390190565b6113ae806200dde183390190565b610a31806200f18f83390190565b60006020828403121562001734578081fd5b5051919050565b6000815180845260208085019450808401835b83811015620017755781516001600160a01b0316875295820195908201906001016200174e565b509495945050505050565b6080815260006200179560808301876200173b565b8281036020840152620017a981876200173b565b6001600160a01b0395909516604084015250506060015292915050565b604080825283519082018190526000906020906060840190828701845b828110156200180157815184529284019290840190600101620017e3565b505050838103828501526200181781866200173b565b9695505050505050565b60805160601c60a05160601c60c05160601c60e05160601c6101005160601c6106a36200187560003960006101610152600061019b01526000610296015260006101fe0152600061010701526106a36000f3fe608060405234801561001057600080fd5b50600436106101005760003560e01c806377532ed9116100975780639ea47ca2116100665780639ea47ca21461025b578063ad5c46481461026e578063e0bab4c414610281578063fca513a81461029457600080fd5b806377532ed9146101fc57806377cc6afd146102225780637a541de1146102355780637f1b013c1461024857600080fd5b80633f843bce116100d35780633f843bce146101965780634aa72f0c146101bd5780636ce36ce7146101d357806370342a7a146101e957600080fd5b80630261bf8b146101055780630cb42c70146101445780630efd44521461015c5780631b6b6d2314610183575b600080fd5b7f00000000000000000000000000000000000000000000000000000000000000005b6040516001600160a01b0390911681526020015b60405180910390f35b61014c600081565b604051901515815260200161013b565b6101277f000000000000000000000000000000000000000000000000000000000000000081565b600254610127906001600160a01b031681565b6101277f000000000000000000000000000000000000000000000000000000000000000081565b6101c56102ba565b60405161013b9291906105e8565b6101db610410565b60405161013b929190610616565b600454610127906001600160a01b031681565b7f0000000000000000000000000000000000000000000000000000000000000000610127565b600654610127906001600160a01b031681565b600354610127906001600160a01b031681565b600754610127906001600160a01b031681565b600554610127906001600160a01b031681565b600054610127906001600160a01b031681565b600154610127906001600160a01b031681565b7f0000000000000000000000000000000000000000000000000000000000000000610127565b60408051600280825260608281019093528291600091816020016020820280368337505060408051600280825260608201835293945060009390925090602083019080368337505060015484519293506001600160a01b03169184915060009061033457634e487b7160e01b600052603260045260246000fd5b6001600160a01b03928316602091820292909201015260025483519116908390600190811061037357634e487b7160e01b600052603260045260246000fd5b6001600160a01b039283166020918202929092010152600354825191169082906000906103b057634e487b7160e01b600052603260045260246000fd5b6001600160a01b0392831660209182029290920101526004548251911690829060019081106103ef57634e487b7160e01b600052603260045260246000fd5b6001600160a01b039092166020928302919091019091015290939092509050565b6040805160038082526080820190925260609182916000916020820184803683375050604080516003808252608082019092529293506000929150602082016060803683370190505090506244414960e81b8260008151811061048357634e487b7160e01b600052603260045260246000fd5b602002602001018181525050634c494e4b60e01b826001815181106104b857634e487b7160e01b600052603260045260246000fd5b6020026020010181815250506208aa8960eb1b826002815181106104ec57634e487b7160e01b600052603260045260246000fd5b602090810291909101015260065481516001600160a01b0390911690829060009061052757634e487b7160e01b600052603260045260246000fd5b6001600160a01b03928316602091820292909201015260075482519116908290600190811061056657634e487b7160e01b600052603260045260246000fd5b6001600160a01b0392831660209182029290920101526005548251911690829060029081106103ef57634e487b7160e01b600052603260045260246000fd5b6000815180845260208085019450808401835b838110156105dd5781516001600160a01b0316875295820195908201906001016105b8565b509495945050505050565b6040815260006105fb60408301856105a5565b828103602084015261060d81856105a5565b95945050505050565b604080825283519082018190526000906020906060840190828701845b8281101561064f57815184529284019290840190600101610633565b5050508381038285015261066381866105a5565b969550505050505056fea2646970667358221220b45a88f07786b226c66c230cdae85b4356857225541ebab49392f49d2f457b6864736f6c6343000804003360806040523480156200001157600080fd5b506040516200434e3803806200434e83398101604081905262000034916200005f565b600080546001600160a01b0319166001600160a01b039290921691909117905560806005556200008f565b60006020828403121562000071578081fd5b81516001600160a01b038116811462000088578182fd5b9392505050565b6142af806200009f6000396000f3fe608060405234801561001057600080fd5b50600436106101365760003560e01c80639835159c116100b8578063d15e00531161007c578063d15e005314610496578063d1946dbc146104a9578063d5ed3933146104be578063f45346dc146104d1578063f8119d51146104e4578063fe65acfe146104ec57600080fd5b80639835159c146103b4578063a3aefba2146103c7578063b8d29276146103ea578063bf92857c14610414578063c44b11f71461045457600080fd5b80634417a583116100ff5780634417a583146103175780635a3b74b9146103685780635ceae9c41461037b57806369328dec1461038e5780636c665a55146103a157600080fd5b8062a718a91461013b5780631d2118f91461015057806335ea6a751461018f578063384c88c5146102cc578063386497fd146102f6575b600080fd5b61014e610149366004613c77565b610507565b005b61014e61015e366004613bad565b6001600160a01b03918216600090815260016020526040902060050180546001600160a01b03191691909216179055565b6102b661019d366004613b75565b604080516101608101825260006101408201818152825260208201819052918101829052606081018290526080810182905260a0810182905260c0810182905260e081018290526101008101829052610120810191909152506001600160a01b03908116600090815260016020818152604092839020835161016081018552815461014082019081528152928101546001600160801b0380821693850193909352600160801b908190048316948401949094526002810154808316606085015293909304166080820152600382015464ffffffffff811660a0830152600160281b9004831660c08201526004820154831660e0820152600590910154918216610100820152600160a01b90910460ff1661012082015290565b6040516102c39190613f6f565b60405180910390f35b6102df6102da366004613bad565b610e44565b6040805192151583529015156020830152016102c3565b610309610304366004613b75565b610f4f565b6040519081526020016102c3565b610359610325366004613b75565b60408051602080820183526000918290526001600160a01b0393909316815260028352819020815192830190915254815290565b604051905181526020016102c3565b61014e610376366004613d42565b610f76565b610309610389366004613d9a565b611144565b61030961039c366004613d9a565b611488565b61014e6103af366004613d9a565b611798565b61014e6103c2366004613be5565b611bb0565b6103da6103d5366004613b75565b611cf7565b60405190151581526020016102c3565b61014e6103f8366004613d6f565b6001600160a01b03909116600090815260016020526040902055565b610427610422366004613b75565b611d47565b604080519687526020870195909552938501929092526060840152608083015260a082015260c0016102c3565b610359610462366004613b75565b60408051602080820183526000918290526001600160a01b0393909316815260018352819020815192830190915254815290565b6103096104a4366004613b75565b611e04565b6104b1611e25565b6040516102c39190613eef565b61014e6104cc366004613cde565b611ef8565b61014e6104df366004613d9a565b61211c565b600554610309565b6000546040516001600160a01b0390911681526020016102c3565b6001600160a01b0380861660009081526001602052604080822087841683529120600382015491929091600160281b9004161580159061055a57506003810154600160281b90046001600160a01b031615155b60405180604001604052806002815260200161373960f01b8152509061059c5760405162461bcd60e51b81526004016105939190613f3c565b60405180910390fd5b50600060026000876001600160a01b03166001600160a01b0316815260200190815260200160002090506106356040518061018001604052806000815260200160008152602001600081526020016000815260200160008152602001600081526020016000815260200160008152602001600081526020016000815260200160006001600160a01b031681526020016000151581525090565b604080516020808201835284548252600480546000548551631f94a27560e31b815295516106cf968e966001969095600395946001600160a01b03169363fca513a893808301939290829003018186803b15801561069257600080fd5b505afa1580156106a6573d6000803e3d6000fd5b505050506040513d601f19601f820116820180604052508101906106ca9190613b91565b61232e565b610100860152505050506004838101546040516370a0823160e01b81526001600160a01b038a8116938201939093529116906370a082319060240160206040518083038186803b15801561072257600080fd5b505afa158015610736573d6000803e3d6000fd5b505050506040513d601f19601f8201168201806040525081019061075a9190613df7565b602082018190526101008201516107749186918591612800565b6003840154600160281b90046001600160a01b0390811661014083018190526040516370a0823160e01b81529189166004830152906370a082319060240160206040518083038186803b1580156107ca57600080fd5b505afa1580156107de573d6000803e3d6000fd5b505050506040513d601f19601f820116820180604052508101906108029190613df7565b81526020810151610815906113886128e9565b604082018190528611610828578561082e565b80604001515b60608201819052815161084991869186918d918d9190612990565b60e0830181905260c08301919091526060820151111561086e5760e081015160608201525b8461093b576101408101516040516370a0823160e01b81526001600160a01b0391821660048201526000918b16906370a082319060240160206040518083038186803b1580156108bd57600080fd5b505afa1580156108d1573d6000803e3d6000fd5b505050506040513d601f19601f820116820180604052508101906108f59190613df7565b90508160c0015181101560405180604001604052806002815260200161343560f01b815250906109385760405162461bcd60e51b81526004016105939190613f3c565b50505b61094483612c74565b60048381015460608301516001860154604051637a94c56560e11b81526001600160a01b039093169363f5298aca93610993938d939092600160801b9091046001600160801b03169101613e7f565b600060405180830381600087803b1580156109ad57600080fd5b505af11580156109c1573d6000803e3d6000fd5b50505050600383015460608201516109ef9185918b91600160281b90046001600160a01b0316906000612d34565b8415610b51576101408101516040516370a0823160e01b81523360048201526001600160a01b03909116906370a082319060240160206040518083038186803b158015610a3b57600080fd5b505afa158015610a4f573d6000803e3d6000fd5b505050506040513d601f19601f82011682018060405250810190610a739190613df7565b61012082015261014081015160c082015160405163f866c31960e01b81526001600160a01b038a81166004830152336024830152604482019290925291169063f866c31990606401600060405180830381600087803b158015610ad557600080fd5b505af1158015610ae9573d6000803e3d6000fd5b5050505080610120015160001415610b4c573360009081526002602052604090206005850154610b26908290600160a01b900460ff166001612fbe565b60405133906001600160a01b038c169060008051602061425a83398151915290600090a3505b610bf3565b610b5a84612c74565b61014081015160c0820151610b769186918c9190600090612d34565b61014081015160c08201516001860154604051636b81068560e11b81526001600160a01b039093169263d7020d0a92610bc0928c923392916001600160801b031690600401613e4e565b600060405180830381600087803b158015610bda57600080fd5b505af1158015610bee573d6000803e3d6000fd5b505050505b805160c08201511415610c4b576005840154610c1c908390600160a01b900460ff166000612fbe565b866001600160a01b0316896001600160a01b031660008051602061423a83398151915260405160405180910390a35b60008054906101000a90046001600160a01b03166001600160a01b031663ad5c46486040518163ffffffff1660e01b815260040160206040518083038186803b158015610c9757600080fd5b505afa158015610cab573d6000803e3d6000fd5b505050506040513d601f19601f82011682018060405250810190610ccf9190613b91565b6001600160a01b0316886001600160a01b03161415610d8957600383015460608201516040516323b872dd60e01b8152336004820152600160281b9092046001600160a01b03908116602484015260448301919091528916906323b872dd90606401602060405180830381600087803b158015610d4b57600080fd5b505af1158015610d5f573d6000803e3d6000fd5b505050506040513d601f19601f82011682018060405250810190610d839190613ddb565b50610db5565b60038301546060820151610db5916001600160a01b038b8116923392600160281b90049091169061304a565b866001600160a01b0316886001600160a01b03168a6001600160a01b03167fe413a321e8681d831f4dbccbca790d2952b56f977908e45be37335533e00528684606001518560c00151338b604051610e31949392919093845260208401929092526001600160a01b031660408301521515606082015260800190565b60405180910390a4505050505050505050565b6001600160a01b038082166000908152600160208181526040808420815161016081018352815461014082019081528152938101546001600160801b0380821686860152600160801b91829004811686850152600280840154808316606089015292909204166080860152600382015464ffffffffff811660a0870152600160281b9004871660c08601526004820154871660e086015260059091015480871661010086015260ff600160a01b909104811661012086019081529689168652908352818520825193840190925290548252935192938493610f27918391166130aa565b9350610f4482610120015160ff168261310590919063ffffffff16565b925050509250929050565b6001600160a01b0381166000908152600160205260408120610f709061315b565b92915050565b6001600160a01b038083166000908152600160208181526040808420338552600283528185206004805496548451631f94a27560e31b81529451939873__$5201a97c05ba6aa659e2f36a933dd51801$__98635fa297e5988b988e988e989297966003969495949094169363fca513a8938282019392909190829003018186803b15801561100357600080fd5b505afa158015611017573d6000803e3d6000fd5b505050506040513d601f19601f8201168201806040525081019061103b9190613b91565b6040516001600160e01b031960e08b901b16815260048101989098526001600160a01b03968716602489015294151560448801526064870193909352608486019190915260a485015260c48401521660e48201526101040160006040518083038186803b1580156110ab57600080fd5b505af41580156110bf573d6000803e3d6000fd5b5050505060058101543360009081526002602052604090206110eb91600160a01b900460ff1684612fbe565b811561111a5760405133906001600160a01b0385169060008051602061425a83398151915290600090a3505050565b60405133906001600160a01b0385169060008051602061423a83398151915290600090a35b505050565b6001600160a01b0383811660009081526001602090815260408083206003015481518083019092526002825261373960f01b928201929092529192600160281b909104166111a55760405162461bcd60e51b81526004016105939190613f3c565b506001600160a01b0384811660009081526001602052604080822060048082015492516370a0823160e01b815287861691810191909152909391909116906370a082319060240160206040518083038186803b15801561120457600080fd5b505afa158015611218573d6000803e3d6000fd5b505050506040513d601f19601f8201168201806040525081019061123c9190613df7565b604051632835d86f60e21b8152600481018790526001600160a01b03861660248201526044810182905290915073__$5201a97c05ba6aa659e2f36a933dd51801$__9063a0d761bc9060640160006040518083038186803b1580156112a057600080fd5b505af41580156112b4573d6000803e3d6000fd5b508392505050808610156112c55750845b6112ce83612c74565b6004838101546001850154604051637a94c56560e11b81526001600160a01b039092169263f5298aca92611318928a928792600160801b9092046001600160801b03169101613e7f565b600060405180830381600087803b15801561133257600080fd5b505af1158015611346573d6000803e3d6000fd5b505050506003830154600160281b90046001600160a01b031661136d848983856000612d34565b61137783836131c8565b6113af5760058401546001600160a01b03871660009081526002602052604081206113af929091600160a01b90910460ff16906131d4565b6113c46001600160a01b03891633838561304a565b6040516388dd91a160e01b8152336004820152602481018390526001600160a01b038216906388dd91a190604401600060405180830381600087803b15801561140c57600080fd5b505af1158015611420573d6000803e3d6000fd5b50505050336001600160a01b0316866001600160a01b0316896001600160a01b03167f4cdde6e09bb755c9a5589ebaec640bbfedff1362d4b255ebf8339782b9942faa8560405161147391815260200190565b60405180910390a450925050505b9392505050565b6001600160a01b03838116600090815260016020526040808220600381015491516370a0823160e01b815233600482015292939092600160281b9092041690839082906370a082319060240160206040518083038186803b1580156114ec57600080fd5b505afa158015611500573d6000803e3d6000fd5b505050506040513d601f19601f820116820180604052508101906115249190613df7565b9050856000198114156115345750805b73__$5201a97c05ba6aa659e2f36a933dd51801$__63d09db04a898385600160026000336001600160a01b03166001600160a01b03168152602001908152602001600020600360045460008054906101000a90046001600160a01b03166001600160a01b031663fca513a86040518163ffffffff1660e01b815260040160206040518083038186803b1580156115c957600080fd5b505afa1580156115dd573d6000803e3d6000fd5b505050506040513d601f19601f820116820180604052508101906116019190613b91565b6040518963ffffffff1660e01b8152600401611624989796959493929190613ea9565b60006040518083038186803b15801561163c57600080fd5b505af4158015611650573d6000803e3d6000fd5b5050505061165d84612c74565b61166b848985600085612d34565b818114156116c357600584015433600090815260026020526040812061169e929091600160a01b90910460ff1690612fbe565b60405133906001600160a01b038a169060008051602061423a83398151915290600090a35b6001840154604051636b81068560e11b81526001600160a01b0385169163d7020d0a916117049133918b9187916001600160801b0390911690600401613e4e565b600060405180830381600087803b15801561171e57600080fd5b505af1158015611732573d6000803e3d6000fd5b50505050856001600160a01b0316336001600160a01b0316896001600160a01b03167f3115d1449a7b732c986cba18244e897a450f61e1bb8d589cd2e69e6c8924f9f78460405161178591815260200190565b60405180910390a4979650505050505050565b6001600160a01b038381166000908152600160209081526040918290206003015482518084019093526002835261373960f01b918301919091529091600160281b909104166117fa5760405162461bcd60e51b81526004016105939190613f3c565b506001600160a01b038084166000908152600160209081526040808320858516845260028352818420600382015485548451631f94a27560e31b8152945193979296600160281b90920483169533959294919093169263fca513a89260048082019391829003018186803b15801561187157600080fd5b505afa158015611885573d6000803e3d6000fd5b505050506040513d601f19601f820116820180604052508101906118a99190613b91565b85549091506000906119519060301c60ff166118c690600a6140d8565b60405163b3596f0760e01b81526001600160a01b038c8116600483015261194b918c9187169063b3596f079060240160206040518083038186803b15801561190d57600080fd5b505afa158015611921573d6000803e3d6000fd5b505050506040513d601f19601f820116820180604052508101906119459190613df7565b90613239565b90613245565b60048054604051631c7d75d760e31b815292935073__$5201a97c05ba6aa659e2f36a933dd51801$__9263e3ebaeb89261199c928c928e9288926001928e92600392918d9101613ea9565b60006040518083038186803b1580156119b457600080fd5b505af41580156119c8573d6000803e3d6000fd5b505050506119d586612c74565b60008660040160009054906101000a90046001600160a01b03166001600160a01b031663b3f1c93d858a8c8b60010160109054906101000a90046001600160801b03166040518563ffffffff1660e01b8152600401611a379493929190613e4e565b602060405180830381600087803b158015611a5157600080fd5b505af1158015611a65573d6000803e3d6000fd5b505050506040513d601f19601f82011682018060405250810190611a899190613ddb565b90508015611aad576005870154611aad908790600160a01b900460ff1660016131d4565b611abb878b8760008d612d34565b604051634efecaa560e01b81526001600160a01b038581166004830152602482018b9052861690634efecaa590604401602060405180830381600087803b158015611b0557600080fd5b505af1158015611b19573d6000803e3d6000fd5b505050506040513d601f19601f82011682018060405250810190611b3d9190613df7565b50876001600160a01b03168a6001600160a01b03167f96558a334f4759f0e7c423d68c84721860bd8fbf94ddc4e55158ecb125ad04b5868c8b60020160109054906101000a90046001600160801b0316604051611b9c93929190613e7f565b60405180910390a350505050505050505050565b60408051808201909152600281526106e760f31b6020820152883b611be85760405162461bcd60e51b81526004016105939190613f3c565b50600054604080518082019091526002815261373560f01b6020820152906001600160a01b03163314611c2e5760405162461bcd60e51b81526004016105939190613f3c565b506001600160a01b0388811660009081526001602052604090819020905163f2a3bb1d60e01b815260048101919091528882166024820152878216604482015290861660648201526084810185905260a4810184905260c4810183905260ff821660e482015273__$d3b4366daeb9cadc7528af6145b50b2183$__9063f2a3bb1d906101040160006040518083038186803b158015611ccc57600080fd5b505af4158015611ce0573d6000803e3d6000fd5b50505050611ced88613251565b5050505050505050565b6001600160a01b03811660009081526002602090815260408083208151928301909152548082527f5555555555555555555555555555555555555555555555555555555555555555161515611481565b600080600080600080611de1876001600260008b6001600160a01b03166001600160a01b03168152602001908152602001600020604051806020016040529081600082015481525050600360045460008054906101000a90046001600160a01b03166001600160a01b031663fca513a86040518163ffffffff1660e01b815260040160206040518083038186803b15801561069257600080fd5b93995091975090945092509050611df9868684613364565b935091939550919395565b6001600160a01b0381166000908152600160205260408120610f7090613398565b6060600060045467ffffffffffffffff811115611e5257634e487b7160e01b600052604160045260246000fd5b604051908082528060200260200182016040528015611e7b578160200160208202803683370190505b50905060005b600454811015611ef25760008181526003602052604090205482516001600160a01b0390911690839083908110611ec857634e487b7160e01b600052603260045260246000fd5b6001600160a01b039092166020928302919091019091015280611eea816141e2565b915050611e81565b50919050565b6001600160a01b038087166000908152600160209081526040918290206003015482518084019093526002835261363360f01b91830191909152909133600160281b9092041614611f5c5760405162461bcd60e51b81526004016105939190613f3c565b5061201685600160026000896001600160a01b03166001600160a01b03168152602001908152602001600020600360045460008054906101000a90046001600160a01b03166001600160a01b031663fca513a86040518163ffffffff1660e01b815260040160206040518083038186803b158015611fd957600080fd5b505afa158015611fed573d6000803e3d6000fd5b505050506040513d601f19601f820116820180604052508101906120119190613b91565b6133ed565b6001600160a01b03868116600090815260016020526040902060050154600160a01b900460ff1690858116908716146121135761205383856131c8565b6120ad576001600160a01b03861660009081526002602052604081209061207d9082908490612fbe565b866001600160a01b0316886001600160a01b031660008051602061423a83398151915260405160405180910390a3505b811580156120ba57508315155b15612113576001600160a01b03851660009081526002602052604090206120e381836001612fbe565b856001600160a01b0316886001600160a01b031660008051602061425a83398151915260405160405180910390a3505b50505050505050565b6001600160a01b03831660009081526001602052604090819020905163674d75df60e11b8152600481018490526024810182905273__$5201a97c05ba6aa659e2f36a933dd51801$__9063ce9aebbe9060440160006040518083038186803b15801561218757600080fd5b505af415801561219b573d6000803e3d6000fd5b505050506003810154600160281b90046001600160a01b03166121bd82612c74565b6121cb828683876000612d34565b6121e06001600160a01b03861633838761304a565b6001820154604051630ab714fb60e11b81526000916001600160a01b0384169163156e29f6916122229188918a916001600160801b0390911690600401613e7f565b602060405180830381600087803b15801561223c57600080fd5b505af1158015612250573d6000803e3d6000fd5b505050506040513d601f19601f820116820180604052508101906122749190613ddb565b905080156122dd5760058301546001600160a01b03851660009081526002602052604090206122ae91600160a01b900460ff166001612fbe565b836001600160a01b0316866001600160a01b031660008051602061425a83398151915260405160405180910390a35b60408051338152602081018790526001600160a01b0380871692908916917f7cfff908a4b583f36430b25d75964c458d8ede8a99bd61be750e97ee1b2f3a96910160405180910390a3505050505050565b60008060008060006123d3604051806102400160405280600081526020016000815260200160008152602001600081526020016000815260200160008152602001600081526020016000815260200160008152602001600081526020016000815260200160008152602001600081526020016000815260200160001515815260200160006001600160a01b031681526020016000151581526020016000151581525090565b89516123f25760008060008060001995509550955095509550506127f2565b600060e08201525b878160e0015110156127515760e0810151612416908b90613459565b61241f57612739565b60e0810151600090815260208a81526040808320546001600160a01b03166101e085018190528352908d90529020612473815461ffff80821692601083901c821692602081901c9092169160301c60ff1690565b6080860181905260c08601929092525060a084019190915261249690600a6140d8565b60208301526101e082015160405163b3596f0760e01b81526001600160a01b0391821660048201529089169063b3596f079060240160206040518083038186803b1580156124e357600080fd5b505afa1580156124f7573d6000803e3d6000fd5b505050506040513d601f19601f8201168201806040525081019061251b9190613df7565b825260c08201511580159061253b575060e082015161253b908c90613105565b1561264d5760038101546040516370a0823160e01b81526001600160a01b038f81166004830152600160281b909204909116906370a082319060240160206040518083038186803b15801561258f57600080fd5b505afa1580156125a3573d6000803e3d6000fd5b505050506040513d601f19601f820116820180604052508101906125c79190613df7565b60408301819052602083015183516000926125e6929161194b91613239565b6101208401519091506125f990826134b4565b61012084015260a083015161261f90612613908390613239565b610160850151906134b4565b61016084015260c083015161264590612639908390613239565b610180850151906134b4565b610180840152505b60e082015161265d908c906130aa565b15612737578060040160009054906101000a90046001600160a01b03166001600160a01b03166370a082318e6040518263ffffffff1660e01b81526004016126b491906001600160a01b0391909116815260200190565b60206040518083038186803b1580156126cc57600080fd5b505afa1580156126e0573d6000803e3d6000fd5b505050506040513d601f19601f820116820180604052508101906127049190613df7565b606083018190526020830151835161273092612724929161194b91613239565b610140840151906134b4565b6101408301525b505b60e08101805190612749826141e2565b9052506123fa565b60008161012001511161276557600061277a565b61012081015161016082015161277a91613245565b6101608201526101208101516127915760006127a6565b6101208101516101808201516127a691613245565b61018082018190526101208201516101408301516127c3926134c0565b610100820181905261012082015161014083015161016084015161018090940151919850965091945090925090505b965096509650965096915050565b6040805180820190915260028152611a1960f11b6020820152670de0b6b3a764000083106128415760405162461bcd60e51b81526004016105939190613f3c565b50600584015460408051602081019091528454815260009161286d9190600160a01b900460ff16613105565b90508060405180604001604052806002815260200161343360f01b815250906128a95760405162461bcd60e51b81526004016105939190613f3c565b506040805180820190915260028152610d0d60f21b6020820152826128e15760405162461bcd60e51b81526004016105939190613f3c565b505050505050565b60008215806128f6575081155b1561290357506000610f70565b816129116002612710614075565b61291d9060001961419f565b6129279190614075565b83111560405180604001604052806002815260200161068760f31b815250906129635760405162461bcd60e51b81526004016105939190613f3c565b50612710612972600282614075565b61297c8486614180565b612986919061405d565b6114819190614075565b60008060008060008060009054906101000a90046001600160a01b03166001600160a01b031663fca513a86040518163ffffffff1660e01b815260040160206040518083038186803b1580156129e557600080fd5b505afa1580156129f9573d6000803e3d6000fd5b505050506040513d601f19601f82011682018060405250810190612a1d9190613b91565b9050612a5f6040518060e00160405280600081526020016000815260200160008152602001600081526020016000815260200160008152602001600081525090565b60405163b3596f0760e01b81526001600160a01b038b8116600483015283169063b3596f079060240160206040518083038186803b158015612aa057600080fd5b505afa158015612ab4573d6000803e3d6000fd5b505050506040513d601f19601f82011682018060405250810190612ad89190613df7565b6040828101919091525163b3596f0760e01b81526001600160a01b038a8116600483015283169063b3596f079060240160206040518083038186803b158015612b2057600080fd5b505afa158015612b34573d6000803e3d6000fd5b505050506040513d601f19601f82011682018060405250810190612b589190613df7565b6060820152612b838c5461ffff80821692601083901c821692602081901c9092169160301c60ff1690565b60c0850152602084015250508a5460301c60ff1660a08201819052612bed90612bbc90612bb190600a6140d8565b604084015190613239565b61194b8360200151612be78560c00151600a612bd891906140d8565b6060870151611945908f613239565b906128e9565b60808201819052871015612c5857869350612c518160200151612c4b612c288460c00151600a612c1d91906140d8565b606086015190613239565b61194b8560a00151600a612c3c91906140d8565b6040870151611945908b613239565b906134e4565b9250612c63565b806080015193508792505b50919a909950975050505050505050565b60008160040160009054906101000a90046001600160a01b03166001600160a01b031663b1bf962d6040518163ffffffff1660e01b815260040160206040518083038186803b158015612cc657600080fd5b505afa158015612cda573d6000803e3d6000fd5b505050506040513d601f19601f82011682018060405250810190612cfe9190613df7565b600183015460038401549192506001600160801b03600160801b820481169291169064ffffffffff1661211385858486856135a6565b612d5f6040518060800160405280600081526020016000815260200160008152602001600081525090565b60018601546004808801546040805163b1bf962d60e01b81529051612dfc94600160801b90046001600160801b0316936001600160a01b039093169263b1bf962d92808201926020929091829003018186803b158015612dbe57600080fd5b505afa158015612dd2573d6000803e3d6000fd5b505050506040513d601f19601f82011682018060405250810190612df69190613df7565b90613703565b6060820181905260058701546040516272fa8b60e91b81526001600160a01b03888116600483015287811660248301526044820187905260648201869052608482019390935291169063e5f516009060a401604080518083038186803b158015612e6557600080fd5b505afa158015612e79573d6000803e3d6000fd5b505050506040513d601f19601f82011682018060405250810190612e9d9190613e0f565b604080840191909152602080840183905281518083019092526002825261353360f01b90820152906001600160801b031015612eec5760405162461bcd60e51b81526004016105939190613f3c565b50604080820151815180830190925260028252610d4d60f21b60208301526001600160801b031015612f315760405162461bcd60e51b81526004016105939190613f3c565b506020818101516040808401516001600160801b03808416600160801b82841681029190911760028d015560018c0154845195865295850192909252848116848401529304909216606082015290516001600160a01b038716917f4063a2df84b66bb796eb32622851d833e57b2c4292900c18f963af8808b13e35919081900360800190a2505050505050565b604080518082019091526002815261373760f01b602082015260808310612ff85760405162461bcd60e51b81526004016105939190613f3c565b50613004826002614180565b61300f90600161405d565b8161301b57600061301e565b60015b60ff16901b61302e836002614180565b61303990600161405d565b8454600190911b1916179092555050565b604080516001600160a01b0385811660248301528416604482015260648082018490528251808303909101815260849091019091526020810180516001600160e01b03166323b872dd60e01b1790526130a49085906137a0565b50505050565b60006080821060405180604001604052806002815260200161373760f01b815250906130e95760405162461bcd60e51b81526004016105939190613f3c565b506130f5826002614180565b925190921c600116151592915050565b60006080821060405180604001604052806002815260200161373760f01b815250906131445760405162461bcd60e51b81526004016105939190613f3c565b50613150826002614180565b6130f590600161405d565b600381015460009064ffffffffff90811690421681141561318f57505060010154600160801b90046001600160801b031690565b600183015460028401546000916131c0916001600160801b03600160801b92839004811692612df692041685613872565b949350505050565b6000611481828461419f565b604080518082019091526002815261373760f01b60208201526080831061320e5760405162461bcd60e51b81526004016105939190613f3c565b5061321a826002614180565b81613226576000613229565b60015b60ff16901b613039836002614180565b60006114818284614180565b60006114818284614075565b600454600554604080518082019091526002815261363560f01b60208201529082106132905760405162461bcd60e51b81526004016105939190613f3c565b506001600160a01b038216600090815260016020526040812060050154600160a01b900460ff161515806132f957506000805260036020527f3617319a054d772f909f7c479a2cebe5066e836a939412e32403c99029b92eff546001600160a01b038481169116145b90508061113f576001600160a01b0383166000818152600160208181526040808420600501805460ff60a01b1916600160a01b60ff8a1602179055868452600390915290912080546001600160a01b03191690921790915561335c90839061405d565b600455505050565b60008061337185846128e9565b905083811015613385576000915050611481565b61338f81856131c8565b95945050505050565b600381015460009064ffffffffff9081169042168114156133c5575050600101546001600160801b031690565b600183015460028401546000916131c0916001600160801b0391821691612df6911685613971565b60408051602081019091528454815260009061340f908890889087878761232e565b945050505050670de0b6b3a7640000811015604051806040016040528060018152602001601b60f91b81525090611ced5760405162461bcd60e51b81526004016105939190613f3c565b60006080821060405180604001604052806002815260200161373760f01b815250906134985760405162461bcd60e51b81526004016105939190613f3c565b506134a4826002614180565b925190921c600316151592915050565b6000611481828461405d565b6000826134d05750600019611481565b6131c0836134de86856128e9565b906139b0565b604080518082019091526002815261035360f41b60208201526000908261351e5760405162461bcd60e51b81526004016105939190613f3c565b50600061352c600284614075565b905061271061353d8260001961419f565b6135479190614075565b84111560405180604001604052806002815260200161068760f31b815250906135835760405162461bcd60e51b81526004016105939190613f3c565b50828161359261271087614180565b61359c919061405d565b6131c09190614075565b600285015460009081906001600160801b0316858582156136dd5760006135cd8488613971565b90506135d9818a613703565b604080518082019091526002815261353160f01b60208201529093506001600160801b0384111561361d5760405162461bcd60e51b81526004016105939190613f3c565b5060018b0180546fffffffffffffffffffffffffffffffff19166001600160801b03851617905589156136db5760028b015460009061366c90600160801b90046001600160801b031689613872565b9050613678818a613703565b6040805180820190915260028152611a9960f11b60208201529093506001600160801b038411156136bc5760405162461bcd60e51b81526004016105939190613f3c565b505060018b0180546001600160801b03808516600160801b0291161790555b505b600399909901805464ffffffffff19164264ffffffffff16179055989650505050505050565b6000821580613710575081155b1561371d57506000610f70565b8161373560026b033b2e3c9fd0803ce8000000614075565b6137419060001961419f565b61374b9190614075565b83111560405180604001604052806002815260200161068760f31b815250906137875760405162461bcd60e51b81526004016105939190613f3c565b506b033b2e3c9fd0803ce8000000612972600282614075565b60006137f5826040518060400160405280602081526020017f5361666545524332303a206c6f772d6c6576656c2063616c6c206661696c6564815250856001600160a01b0316613a6a9092919063ffffffff16565b80519091501561113f57808060200190518101906138139190613ddb565b61113f5760405162461bcd60e51b815260206004820152602a60248201527f5361666545524332303a204552433230206f7065726174696f6e20646964206e6044820152691bdd081cdd58d8d9595960b21b6064820152608401610593565b6000806138864264ffffffffff85166131c8565b9050806138a2576b033b2e3c9fd0803ce8000000915050610f70565b60006138af60018361419f565b90506000600283116138c25760006138cd565b6138cd60028461419f565b905060006138df6301e1338088614075565b905060006138ed8280613703565b905060006138fb8284613703565b90506000600261390f846119458a8a613239565b6139199190614075565b90506000600661392f8461194589818d8d613239565b6139399190614075565b90506139628161395c848161394e8a8e613239565b6b033b2e3c9fd0803ce80000005b906134b4565b9b9a5050505050505050505050565b6000806139854264ffffffffff85166131c8565b90506131c06b033b2e3c9fd0803ce80000006301e133806139a68785613239565b61395c9190614075565b604080518082019091526002815261035360f41b6020820152600090826139ea5760405162461bcd60e51b81526004016105939190613f3c565b5060006139f8600284614075565b9050670de0b6b3a7640000613a0f8260001961419f565b613a199190614075565b84111560405180604001604052806002815260200161068760f31b81525090613a555760405162461bcd60e51b81526004016105939190613f3c565b508281613592670de0b6b3a764000087614180565b60606131c0848460008585843b613ac35760405162461bcd60e51b815260206004820152601d60248201527f416464726573733a2063616c6c20746f206e6f6e2d636f6e74726163740000006044820152606401610593565b600080866001600160a01b03168587604051613adf9190613e32565b60006040518083038185875af1925050503d8060008114613b1c576040519150601f19603f3d011682016040523d82523d6000602084013e613b21565b606091505b5091509150613b31828286613b3c565b979650505050505050565b60608315613b4b575081611481565b825115613b5b5782518084602001fd5b8160405162461bcd60e51b81526004016105939190613f3c565b600060208284031215613b86578081fd5b813561148181614213565b600060208284031215613ba2578081fd5b815161148181614213565b60008060408385031215613bbf578081fd5b8235613bca81614213565b91506020830135613bda81614213565b809150509250929050565b600080600080600080600080610100898b031215613c01578384fd5b8835613c0c81614213565b97506020890135613c1c81614213565b96506040890135613c2c81614213565b95506060890135613c3c81614213565b94506080890135935060a0890135925060c0890135915060e089013560ff81168114613c66578182fd5b809150509295985092959890939650565b600080600080600060a08688031215613c8e578081fd5b8535613c9981614213565b94506020860135613ca981614213565b93506040860135613cb981614213565b9250606086013591506080860135613cd08161422b565b809150509295509295909350565b60008060008060008060c08789031215613cf6578182fd5b8635613d0181614213565b95506020870135613d1181614213565b94506040870135613d2181614213565b959894975094956060810135955060808101359460a0909101359350915050565b60008060408385031215613d54578182fd5b8235613d5f81614213565b91506020830135613bda8161422b565b60008060408385031215613d81578182fd5b8235613d8c81614213565b946020939093013593505050565b600080600060608486031215613dae578283fd5b8335613db981614213565b9250602084013591506040840135613dd081614213565b809150509250925092565b600060208284031215613dec578081fd5b81516114818161422b565b600060208284031215613e08578081fd5b5051919050565b60008060408385031215613e21578182fd5b505080516020909101519092909150565b60008251613e448184602087016141b6565b9190910192915050565b6001600160a01b03948516815292909316602083015260408201526001600160801b03909116606082015260800190565b6001600160a01b0393909316835260208301919091526001600160801b0316604082015260600190565b6001600160a01b039889168152602081019790975260408701959095526060860193909352608085019190915260a084015260c083015290911660e08201526101000190565b6020808252825182820181905260009190848201906040850190845b81811015613f305783516001600160a01b031683529284019291840191600101613f0b565b50909695505050505050565b6020815260008251806020840152613f5b8160408501602087016141b6565b601f01601f19169190910160400192915050565b815151815261014081016020830151613f9360208401826001600160801b03169052565b506040830151613fae60408401826001600160801b03169052565b506060830151613fc960608401826001600160801b03169052565b506080830151613fe460808401826001600160801b03169052565b5060a0830151613ffd60a084018264ffffffffff169052565b5060c083015161401860c08401826001600160a01b03169052565b5060e083015161403360e08401826001600160a01b03169052565b50610100838101516001600160a01b0316908301526101209283015160ff16929091019190915290565b60008219821115614070576140706141fd565b500190565b60008261409057634e487b7160e01b81526012600452602481fd5b500490565b600181815b808511156140d05781600019048211156140b6576140b66141fd565b808516156140c357918102915b93841c939080029061409a565b509250929050565b600061148183836000826140ee57506001610f70565b816140fb57506000610f70565b8160018114614111576002811461411b57614137565b6001915050610f70565b60ff84111561412c5761412c6141fd565b50506001821b610f70565b5060208310610133831016604e8410600b841016171561415a575081810a610f70565b6141648383614095565b8060001904821115614178576141786141fd565b029392505050565b600081600019048311821515161561419a5761419a6141fd565b500290565b6000828210156141b1576141b16141fd565b500390565b60005b838110156141d15781810151838201526020016141b9565b838111156130a45750506000910152565b60006000198214156141f6576141f66141fd565b5060010190565b634e487b7160e01b600052601160045260246000fd5b6001600160a01b038116811461422857600080fd5b50565b801515811461422857600080fdfe44c58d81365b66dd4b1a7f36c25aa97b8c71c361ee4937adc1a00000227db5dd00058a56ea94653cdf4f152d227ace22d4c00ad99e2a43f58cb7d9e3feb295f2a2646970667358221220c97254beed2a46fdf80af4c01e548bc9be4d8d29ca1744ab30dba766a5bf246764736f6c6343000804003360c0604052600d60808190526c2bb930b83832b21022ba3432b960991b60a090815261002e916000919061007a565b50604080518082019091526004808252630ae8aa8960e31b602090920191825261005a9160019161007a565b506002805460ff1916601217905534801561007457600080fd5b5061014e565b82805461008690610113565b90600052602060002090601f0160209004810192826100a857600085556100ee565b82601f106100c157805160ff19168380011785556100ee565b828001600101855582156100ee579182015b828111156100ee5782518255916020019190600101906100d3565b506100fa9291506100fe565b5090565b5b808211156100fa57600081556001016100ff565b600181811c9082168061012757607f821691505b6020821081141561014857634e487b7160e01b600052602260045260246000fd5b50919050565b61080c8061015d6000396000f3fe60806040526004361061009c5760003560e01c8063313ce56711610064578063313ce5671461015b57806370a082311461018757806395d89b41146101b4578063a9059cbb146101c9578063d0e30db0146101e9578063dd62ed3e146101f157600080fd5b806306fdde03146100a1578063095ea7b3146100cc57806318160ddd146100fc57806323b872dd146101195780632e1a7d4d14610139575b600080fd5b3480156100ad57600080fd5b506100b6610229565b6040516100c39190610703565b60405180910390f35b3480156100d857600080fd5b506100ec6100e73660046106c2565b6102b7565b60405190151581526020016100c3565b34801561010857600080fd5b50475b6040519081526020016100c3565b34801561012557600080fd5b506100ec610134366004610687565b610323565b34801561014557600080fd5b506101596101543660046106eb565b6104a7565b005b34801561016757600080fd5b506002546101759060ff1681565b60405160ff90911681526020016100c3565b34801561019357600080fd5b5061010b6101a236600461063b565b60036020526000908152604090205481565b3480156101c057600080fd5b506100b66105a3565b3480156101d557600080fd5b506100ec6101e43660046106c2565b6105b0565b6101596105c4565b3480156101fd57600080fd5b5061010b61020c366004610655565b600460209081526000928352604080842090915290825290205481565b6000805461023690610785565b80601f016020809104026020016040519081016040528092919081815260200182805461026290610785565b80156102af5780601f10610284576101008083540402835291602001916102af565b820191906000526020600020905b81548152906001019060200180831161029257829003601f168201915b505050505081565b3360008181526004602090815260408083206001600160a01b038716808552925280832085905551919290917f8c5be1e5ebec7d5bd14f71427d1e84f3dd0314c0f7b2291e5b200ac8c7c3b925906103129086815260200190565b60405180910390a350600192915050565b6001600160a01b03831660009081526003602052604081205482111561034857600080fd5b6001600160a01b038416331480159061038657506001600160a01b038416600090815260046020908152604080832033845290915290205460001914155b156103f4576001600160a01b03841660009081526004602090815260408083203384529091529020548211156103bb57600080fd5b6001600160a01b0384166000908152600460209081526040808320338452909152812080548492906103ee90849061076e565b90915550505b6001600160a01b0384166000908152600360205260408120805484929061041c90849061076e565b90915550506001600160a01b03831660009081526003602052604081208054849290610449908490610756565b92505081905550826001600160a01b0316846001600160a01b03167fddf252ad1be2c89b69c2b068fc378daa952ba7f163c4a11628f55a4df523b3ef8460405161049591815260200190565b60405180910390a35060019392505050565b336000908152600360205260409020548111156105195760405162461bcd60e51b815260206004820152602660248201527f45524332303a207472616e7366657220616d6f756e7420657863656564732062604482015265616c616e636560d01b606482015260840160405180910390fd5b336000908152600360205260408120805483929061053890849061076e565b9091555050604051339082156108fc029083906000818181858888f1935050505015801561056a573d6000803e3d6000fd5b5060405181815233907f7fcf532c15f0a6db0bd6d0e038bea71d30d808c7d98cb3bf7268a95bf5081b659060200160405180910390a250565b6001805461023690610785565b60006105bd338484610323565b9392505050565b33600090815260036020526040812080543492906105e3908490610756565b909155505060405134815233907fe1fffcc4923d04b559f4d29a8bfc6cda04eb5b0d3c460751c2402c5c5cc9109c9060200160405180910390a2565b80356001600160a01b038116811461063657600080fd5b919050565b60006020828403121561064c578081fd5b6105bd8261061f565b60008060408385031215610667578081fd5b6106708361061f565b915061067e6020840161061f565b90509250929050565b60008060006060848603121561069b578081fd5b6106a48461061f565b92506106b26020850161061f565b9150604084013590509250925092565b600080604083850312156106d4578182fd5b6106dd8361061f565b946020939093013593505050565b6000602082840312156106fc578081fd5b5035919050565b6000602080835283518082850152825b8181101561072f57858101830151858201604001528201610713565b818111156107405783604083870101525b50601f01601f1916929092016040019392505050565b60008219821115610769576107696107c0565b500190565b600082821015610780576107806107c0565b500390565b600181811c9082168061079957607f821691505b602082108114156107ba57634e487b7160e01b600052602260045260246000fd5b50919050565b634e487b7160e01b600052601160045260246000fdfea26469706673582212208654a83941e7996b28bf8637329d22887b3202406a3494f31a9d4c83f1588f1864736f6c6343000804003360806040523480156200001157600080fd5b5060405162000c5a38038062000c5a8339810160408190526200003491620001c7565b8151829082906200004d9060039060208501906200006e565b508051620000639060049060208401906200006e565b505050505062000281565b8280546200007c906200022e565b90600052602060002090601f016020900481019282620000a05760008555620000eb565b82601f10620000bb57805160ff1916838001178555620000eb565b82800160010185558215620000eb579182015b82811115620000eb578251825591602001919060010190620000ce565b50620000f9929150620000fd565b5090565b5b80821115620000f95760008155600101620000fe565b600082601f83011262000125578081fd5b81516001600160401b03808211156200014257620001426200026b565b604051601f8301601f19908116603f011681019082821181831017156200016d576200016d6200026b565b8160405283815260209250868385880101111562000189578485fd5b8491505b83821015620001ac57858201830151818301840152908201906200018d565b83821115620001bd57848385830101525b9695505050505050565b60008060408385031215620001da578182fd5b82516001600160401b0380821115620001f1578384fd5b620001ff8683870162000114565b9350602085015191508082111562000215578283fd5b50620002248582860162000114565b9150509250929050565b600181811c908216806200024357607f821691505b602082108114156200026557634e487b7160e01b600052602260045260246000fd5b50919050565b634e487b7160e01b600052604160045260246000fd5b6109c980620002916000396000f3fe608060405234801561001057600080fd5b50600436106100b45760003560e01c806340c10f191161007157806340c10f191461014157806370a082311461015657806395d89b411461017f578063a457c2d714610187578063a9059cbb1461019a578063dd62ed3e146101ad57600080fd5b806306fdde03146100b9578063095ea7b3146100d757806318160ddd146100fa57806323b872dd1461010c578063313ce5671461011f578063395093511461012e575b600080fd5b6100c16101e6565b6040516100ce91906108e1565b60405180910390f35b6100ea6100e53660046108b8565b610278565b60405190151581526020016100ce565b6002545b6040519081526020016100ce565b6100ea61011a36600461087d565b61028e565b604051601281526020016100ce565b6100ea61013c3660046108b8565b61033d565b61015461014f3660046108b8565b610379565b005b6100fe61016436600461082a565b6001600160a01b031660009081526020819052604090205490565b6100c1610387565b6100ea6101953660046108b8565b610396565b6100ea6101a83660046108b8565b61042f565b6100fe6101bb36600461084b565b6001600160a01b03918216600090815260016020908152604080832093909416825291909152205490565b6060600380546101f590610958565b80601f016020809104026020016040519081016040528092919081815260200182805461022190610958565b801561026e5780601f106102435761010080835404028352916020019161026e565b820191906000526020600020905b81548152906001019060200180831161025157829003601f168201915b5050505050905090565b600061028533848461043c565b50600192915050565b600061029b848484610560565b6001600160a01b0384166000908152600160209081526040808320338452909152902054828110156103255760405162461bcd60e51b815260206004820152602860248201527f45524332303a207472616e7366657220616d6f756e74206578636565647320616044820152676c6c6f77616e636560c01b60648201526084015b60405180910390fd5b610332853385840361043c565b506001949350505050565b3360008181526001602090815260408083206001600160a01b03871684529091528120549091610285918590610374908690610934565b61043c565b610383828261072f565b5050565b6060600480546101f590610958565b3360009081526001602090815260408083206001600160a01b0386168452909152812054828110156104185760405162461bcd60e51b815260206004820152602560248201527f45524332303a2064656372656173656420616c6c6f77616e63652062656c6f77604482015264207a65726f60d81b606482015260840161031c565b610425338585840361043c565b5060019392505050565b6000610285338484610560565b6001600160a01b03831661049e5760405162461bcd60e51b8152602060048201526024808201527f45524332303a20617070726f76652066726f6d20746865207a65726f206164646044820152637265737360e01b606482015260840161031c565b6001600160a01b0382166104ff5760405162461bcd60e51b815260206004820152602260248201527f45524332303a20617070726f766520746f20746865207a65726f206164647265604482015261737360f01b606482015260840161031c565b6001600160a01b0383811660008181526001602090815260408083209487168084529482529182902085905590518481527f8c5be1e5ebec7d5bd14f71427d1e84f3dd0314c0f7b2291e5b200ac8c7c3b925910160405180910390a3505050565b6001600160a01b0383166105c45760405162461bcd60e51b815260206004820152602560248201527f45524332303a207472616e736665722066726f6d20746865207a65726f206164604482015264647265737360d81b606482015260840161031c565b6001600160a01b0382166106265760405162461bcd60e51b815260206004820152602360248201527f45524332303a207472616e7366657220746f20746865207a65726f206164647260448201526265737360e81b606482015260840161031c565b6001600160a01b0383166000908152602081905260409020548181101561069e5760405162461bcd60e51b815260206004820152602660248201527f45524332303a207472616e7366657220616d6f756e7420657863656564732062604482015265616c616e636560d01b606482015260840161031c565b6001600160a01b038085166000908152602081905260408082208585039055918516815290812080548492906106d5908490610934565b92505081905550826001600160a01b0316846001600160a01b03167fddf252ad1be2c89b69c2b068fc378daa952ba7f163c4a11628f55a4df523b3ef8460405161072191815260200190565b60405180910390a350505050565b6001600160a01b0382166107855760405162461bcd60e51b815260206004820152601f60248201527f45524332303a206d696e7420746f20746865207a65726f206164647265737300604482015260640161031c565b80600260008282546107979190610934565b90915550506001600160a01b038216600090815260208190526040812080548392906107c4908490610934565b90915550506040518181526001600160a01b038316906000907fddf252ad1be2c89b69c2b068fc378daa952ba7f163c4a11628f55a4df523b3ef9060200160405180910390a35050565b80356001600160a01b038116811461082557600080fd5b919050565b60006020828403121561083b578081fd5b6108448261080e565b9392505050565b6000806040838503121561085d578081fd5b6108668361080e565b91506108746020840161080e565b90509250929050565b600080600060608486031215610891578081fd5b61089a8461080e565b92506108a86020850161080e565b9150604084013590509250925092565b600080604083850312156108ca578182fd5b6108d38361080e565b946020939093013593505050565b6000602080835283518082850152825b8181101561090d578581018301518582016040015282016108f1565b8181111561091e5783604083870101525b50601f01601f1916929092016040019392505050565b6000821982111561095357634e487b7160e01b81526011600452602481fd5b500190565b600181811c9082168061096c57607f821691505b6020821081141561098d57634e487b7160e01b600052602260045260246000fd5b5091905056fea2646970667358221220da8c21195155d3a6ac6808f25312652be8182c5f0677908e6919741bf9b40b2b64736f6c63430008040033608060405234801561001057600080fd5b5060405161026138038061026183398101604081905261002f91610037565b60005561004f565b600060208284031215610048578081fd5b5051919050565b6102038061005e6000396000f3fe608060405234801561001057600080fd5b50600436106100625760003560e01c8063313ce5671461006757806354fd4d501461007b5780637284e4161461008a57806391b7f5ed146100be5780639a6fc8f5146100d3578063feaf968c14610125575b600080fd5b604051601281526020015b60405180910390f35b60405160018152602001610072565b604080518082018252601281527129b0b6b83632902232b9b1b934b83a34b7b760711b60208201529051610072919061017a565b6100d16100cc366004610131565b600055565b005b6100ee6100e1366004610149565b6000549091429081908390565b6040805169ffffffffffffffffffff968716815260208101959095528401929092526060830152909116608082015260a001610072565b600080544280826100ee565b600060208284031215610142578081fd5b5035919050565b60006020828403121561015a578081fd5b813569ffffffffffffffffffff81168114610173578182fd5b9392505050565b6000602080835283518082850152825b818110156101a65785810183015185820160400152820161018a565b818111156101b75783604083870101525b50601f01601f191692909201604001939250505056fea264697066735822122079ff9fc8265026e1a89ba653dd914a18a5096058c30e5765bd8c74ed52cc6ec664736f6c6343000804003360c06040523480156200001157600080fd5b506040516200136b3803806200136b833981016040819052620000349162000156565b6200003f33620000e9565b6001600160601b0319606083811b821660805282901b1660a05260405163095ea7b360e01b81526001600160a01b038083166004830152600019602483015283169063095ea7b390604401602060405180830381600087803b158015620000a557600080fd5b505af1158015620000ba573d6000803e3d6000fd5b505050506040513d601f19601f82011682018060405250810190620000e091906200018d565b505050620001b6565b600080546001600160a01b038381166001600160a01b0319831681178455604051919092169283917f8be0079c531659141344cd1fd0a4f28419497f9722a3daafe3b4186f6b6457e09190a35050565b80516001600160a01b03811681146200015157600080fd5b919050565b6000806040838503121562000169578182fd5b620001748362000139565b9150620001846020840162000139565b90509250929050565b6000602082840312156200019f578081fd5b81518015158114620001af578182fd5b9392505050565b60805160601c60a05160601c61111a62000251600039600081816102c9015281816104b7015281816105d20152818161080c015281816109b80152610c0801526000818160a5015281816101fb0152818161029e01528181610431015281816104e7015281816105ff01528181610671015281816107e1015281816109e501528181610a7a01528181610b820152610c38015261111a6000f3fe6080604052600436106100955760003560e01c8063affa881711610059578063affa8817146101ec578063eed88b8d1461021f578063f14210a61461023f578063f2fde38b1461025f578063f6326fb31461027f5761010f565b80632247463e1461014e578063715018a6146101615780637b2af625146101765780638da5cb5b14610196578063a3d5b255146101cc5761010f565b3661010f57336001600160a01b037f0000000000000000000000000000000000000000000000000000000000000000161461010d5760405162461bcd60e51b8152602060048201526013602482015272149958d95a5d99481b9bdd08185b1b1bddd959606a1b60448201526064015b60405180910390fd5b005b60405162461bcd60e51b815260206004820152601460248201527311985b1b189858dac81b9bdd08185b1b1bddd95960621b6044820152606401610104565b61010d61015c366004610fb3565b610287565b34801561016d57600080fd5b5061010d610585565b34801561018257600080fd5b5061010d610191366004610fb3565b6105bb565b3480156101a257600080fd5b506000546001600160a01b03165b6040516001600160a01b03909116815260200160405180910390f35b3480156101d857600080fd5b5061010d6101e7366004610e60565b6106e4565b3480156101f857600080fd5b507f00000000000000000000000000000000000000000000000000000000000000006101b0565b34801561022b57600080fd5b5061010d61023a366004610ea0565b610796565b34801561024b57600080fd5b5061010d61025a366004610fb3565b6107ca565b34801561026b57600080fd5b5061010d61027a366004610e3d565b610ae8565b61010d610b80565b6040516335ea6a7560e01b81526001600160a01b037f0000000000000000000000000000000000000000000000000000000000000000811660048301526000917f0000000000000000000000000000000000000000000000000000000000000000909116906335ea6a75906024016101406040518083038186803b15801561030e57600080fd5b505afa158015610322573d6000803e3d6000fd5b505050506040513d601f19601f820116820180604052508101906103469190610eeb565b60e001516040516370a0823160e01b81523360048201526001600160a01b03909116906370a082319060240160206040518083038186803b15801561038a57600080fd5b505afa15801561039e573d6000803e3d6000fd5b505050506040513d601f19601f820116820180604052508101906103c29190610fcb565b9050808210156103cf5750805b8034101561042f5760405162461bcd60e51b815260206004820152602760248201527f6d73672e76616c7565206973206c657373207468616e2072657061796d656e7460448201526608185b5bdd5b9d60ca1b6064820152608401610104565b7f00000000000000000000000000000000000000000000000000000000000000006001600160a01b031663d0e30db0826040518263ffffffff1660e01b81526004016000604051808303818588803b15801561048a57600080fd5b505af115801561049e573d6000803e3d6000fd5b505060405163173aba7160e21b81526001600160a01b037f0000000000000000000000000000000000000000000000000000000000000000169350635ceae9c4925061051391507f0000000000000000000000000000000000000000000000000000000000000000903490339060040161101c565b602060405180830381600087803b15801561052d57600080fd5b505af1158015610541573d6000803e3d6000fd5b505050506040513d601f19601f820116820180604052508101906105659190610fcb565b5080341115610581576105813361057c83346110ac565b610c92565b5050565b6000546001600160a01b031633146105af5760405162461bcd60e51b81526004016101049061103f565b6105b96000610d4a565b565b604051636c665a5560e01b81526001600160a01b037f00000000000000000000000000000000000000000000000000000000000000001690636c665a559061062b907f0000000000000000000000000000000000000000000000000000000000000000908590339060040161101c565b600060405180830381600087803b15801561064557600080fd5b505af1158015610659573d6000803e3d6000fd5b5050604051632e1a7d4d60e01b8152600481018490527f00000000000000000000000000000000000000000000000000000000000000006001600160a01b03169250632e1a7d4d9150602401600060405180830381600087803b1580156106bf57600080fd5b505af11580156106d3573d6000803e3d6000fd5b505050506106e13382610c92565b50565b6000546001600160a01b0316331461070e5760405162461bcd60e51b81526004016101049061103f565b60405163a9059cbb60e01b81526001600160a01b0383811660048301526024820183905284169063a9059cbb90604401602060405180830381600087803b15801561075857600080fd5b505af115801561076c573d6000803e3d6000fd5b505050506040513d601f19601f820116820180604052508101906107909190610ecb565b50505050565b6000546001600160a01b031633146107c05760405162461bcd60e51b81526004016101049061103f565b6105818282610c92565b6040516335ea6a7560e01b81526001600160a01b037f0000000000000000000000000000000000000000000000000000000000000000811660048301526000917f0000000000000000000000000000000000000000000000000000000000000000909116906335ea6a75906024016101406040518083038186803b15801561085157600080fd5b505afa158015610865573d6000803e3d6000fd5b505050506040513d601f19601f820116820180604052508101906108899190610eeb565b60c001516040516370a0823160e01b81523360048201529091506000906001600160a01b038316906370a082319060240160206040518083038186803b1580156108d257600080fd5b505afa1580156108e6573d6000803e3d6000fd5b505050506040513d601f19601f8201168201806040525081019061090a9190610fcb565b90508260001981141561091a5750805b6040516323b872dd60e01b8152336004820152306024820152604481018290526001600160a01b038416906323b872dd90606401602060405180830381600087803b15801561096857600080fd5b505af115801561097c573d6000803e3d6000fd5b505050506040513d601f19601f820116820180604052508101906109a09190610ecb565b50604051631a4ca37b60e21b81526001600160a01b037f000000000000000000000000000000000000000000000000000000000000000016906369328dec90610a11907f0000000000000000000000000000000000000000000000000000000000000000908590309060040161101c565b602060405180830381600087803b158015610a2b57600080fd5b505af1158015610a3f573d6000803e3d6000fd5b505050506040513d601f19601f82011682018060405250810190610a639190610fcb565b50604051632e1a7d4d60e01b8152600481018290527f00000000000000000000000000000000000000000000000000000000000000006001600160a01b031690632e1a7d4d90602401600060405180830381600087803b158015610ac657600080fd5b505af1158015610ada573d6000803e3d6000fd5b505050506107903382610c92565b6000546001600160a01b03163314610b125760405162461bcd60e51b81526004016101049061103f565b6001600160a01b038116610b775760405162461bcd60e51b815260206004820152602660248201527f4f776e61626c653a206e6577206f776e657220697320746865207a65726f206160448201526564647265737360d01b6064820152608401610104565b6106e181610d4a565b7f00000000000000000000000000000000000000000000000000000000000000006001600160a01b031663d0e30db0346040518263ffffffff1660e01b81526004016000604051808303818588803b158015610bdb57600080fd5b505af1158015610bef573d6000803e3d6000fd5b5050604051633d14d1b760e21b81526001600160a01b037f000000000000000000000000000000000000000000000000000000000000000016935063f45346dc9250610c6491507f0000000000000000000000000000000000000000000000000000000000000000903490339060040161101c565b600060405180830381600087803b158015610c7e57600080fd5b505af1158015610790573d6000803e3d6000fd5b604080516000808252602082019092526001600160a01b038416908390604051610cbc9190610fe3565b60006040518083038185875af1925050503d8060008114610cf9576040519150601f19603f3d011682016040523d82523d6000602084013e610cfe565b606091505b5050905080610d455760405162461bcd60e51b815260206004820152601360248201527211551217d514905394d1915497d19052531151606a1b6044820152606401610104565b505050565b600080546001600160a01b038381166001600160a01b0319831681178455604051919092169283917f8be0079c531659141344cd1fd0a4f28419497f9722a3daafe3b4186f6b6457e09190a35050565b8051610da5816110cf565b919050565b600060208284031215610dbb578081fd5b6040516020810181811067ffffffffffffffff82111715610dea57634e487b7160e01b83526041600452602483fd5b6040529151825250919050565b80516fffffffffffffffffffffffffffffffff81168114610da557600080fd5b805164ffffffffff81168114610da557600080fd5b805160ff81168114610da557600080fd5b600060208284031215610e4e578081fd5b8135610e59816110cf565b9392505050565b600080600060608486031215610e74578182fd5b8335610e7f816110cf565b92506020840135610e8f816110cf565b929592945050506040919091013590565b60008060408385031215610eb2578182fd5b8235610ebd816110cf565b946020939093013593505050565b600060208284031215610edc578081fd5b81518015158114610e59578182fd5b60006101408284031215610efd578081fd5b610f05611074565b610f0f8484610daa565b8152610f1d60208401610df7565b6020820152610f2e60408401610df7565b6040820152610f3f60608401610df7565b6060820152610f5060808401610df7565b6080820152610f6160a08401610e17565b60a0820152610f7260c08401610d9a565b60c0820152610f8360e08401610d9a565b60e0820152610100610f96818501610d9a565b90820152610120610fa8848201610e2c565b908201529392505050565b600060208284031215610fc4578081fd5b5035919050565b600060208284031215610fdc578081fd5b5051919050565b60008251815b818110156110035760208186018101518583015201610fe9565b818111156110115782828501525b509190910192915050565b6001600160a01b0393841681526020810192909252909116604082015260600190565b6020808252818101527f4f776e61626c653a2063616c6c6572206973206e6f7420746865206f776e6572604082015260600190565b604051610140810167ffffffffffffffff811182821017156110a657634e487b7160e01b600052604160045260246000fd5b60405290565b6000828210156110ca57634e487b7160e01b81526011600452602481fd5b500390565b6001600160a01b03811681146106e157600080fdfea264697066735822122019e271142e29a9a29cd170f02c331e59d932b36d90616b6a2c49f369a537e57164736f6c6343000804003360c060405234801561001057600080fd5b5060405161089038038061089083398101604081905261002f916102f4565b6100398484610097565b606082901b6001600160601b03191660805260a08190526040518181526001600160a01b038316907fe27c4c1372396a3d15a9922f74f9dfc7c72b1ad6d63868470787249c356454c19060200160405180910390a2505050506103a9565b80518251146100ec5760405162461bcd60e51b815260206004820152601a60248201527f494e434f4e53495354454e545f504152414d535f4c454e475448000000000000604482015260640160405180910390fd5b60005b825181101561022f5781818151811061011857634e487b7160e01b600052603260045260246000fd5b602002602001015160008085848151811061014357634e487b7160e01b600052603260045260246000fd5b60200260200101516001600160a01b03166001600160a01b0316815260200190815260200160002060006101000a8154816001600160a01b0302191690836001600160a01b031602179055508181815181106101af57634e487b7160e01b600052603260045260246000fd5b60200260200101516001600160a01b03168382815181106101e057634e487b7160e01b600052603260045260246000fd5b60200260200101516001600160a01b03167f22c5b7b2d8561d39f7f210b6b326a1aa69f15311163082308ac4877db6339dc160405160405180910390a3806102278161036c565b9150506100ef565b505050565b80516001600160a01b038116811461024b57600080fd5b919050565b600082601f830112610260578081fd5b815160206001600160401b038083111561027c5761027c610393565b8260051b604051601f19603f830116810181811084821117156102a1576102a1610393565b604052848152838101925086840182880185018910156102bf578687fd5b8692505b858310156102e8576102d481610234565b8452928401926001929092019184016102c3565b50979650505050505050565b60008060008060808587031215610309578384fd5b84516001600160401b038082111561031f578586fd5b61032b88838901610250565b95506020870151915080821115610340578485fd5b5061034d87828801610250565b93505061035c60408601610234565b6060959095015193969295505050565b600060001982141561038c57634e487b7160e01b81526011600452602481fd5b5060010190565b634e487b7160e01b600052604160045260246000fd5b60805160601c60a0516104b26103de6000396000818160610152610260015260008181610112015261023501526104b26000f3fe608060405234801561001057600080fd5b50600436106100575760003560e01c80638c89b64f1461005c57806392bf2be0146100965780639d23d9f2146100da578063b3596f07146100fa578063e19f47001461010d575b600080fd5b6100837f000000000000000000000000000000000000000000000000000000000000000081565b6040519081526020015b60405180910390f35b6100c26100a4366004610324565b6001600160a01b039081166000908152602081905260409020541690565b6040516001600160a01b03909116815260200161008d565b6100ed6100e8366004610352565b610134565b60405161008d9190610411565b610083610108366004610324565b610213565b6100c27f000000000000000000000000000000000000000000000000000000000000000081565b606060008267ffffffffffffffff81111561015f57634e487b7160e01b600052604160045260246000fd5b604051908082528060200260200182016040528015610188578160200160208202803683370190505b50905060005b8381101561020b576101ce8585838181106101b957634e487b7160e01b600052603260045260246000fd5b90506020020160208101906101089190610324565b8282815181106101ee57634e487b7160e01b600052603260045260246000fd5b60209081029190910101528061020381610455565b91505061018e565b509392505050565b6001600160a01b038082166000818152602081905260408120549092908116917f0000000000000000000000000000000000000000000000000000000000000000909116141561028557507f000000000000000000000000000000000000000000000000000000000000000092915050565b6000816001600160a01b031663feaf968c6040518163ffffffff1660e01b815260040160a06040518083038186803b1580156102c057600080fd5b505afa1580156102d4573d6000803e3d6000fd5b505050506040513d601f19601f820116820180604052508101906102f891906103c2565b5091979650505050505050565b805169ffffffffffffffffffff8116811461031f57600080fd5b919050565b600060208284031215610335578081fd5b81356001600160a01b038116811461034b578182fd5b9392505050565b60008060208385031215610364578081fd5b823567ffffffffffffffff8082111561037b578283fd5b818501915085601f83011261038e578283fd5b81358181111561039c578384fd5b8660208260051b85010111156103b0578384fd5b60209290920196919550909350505050565b600080600080600060a086880312156103d9578081fd5b6103e286610305565b945060208601519350604086015192506060860151915061040560808701610305565b90509295509295909350565b6020808252825182820181905260009190848201906040850190845b818110156104495783518352928401929184019160010161042d565b50909695505050505050565b600060001982141561047557634e487b7160e01b81526011600452602481fd5b506001019056fea264697066735822122066608e8fbb5343ad82da4fdec4f5c3154650fc708f527a9d8a0250627ff2dab464736f6c6343000804003360a060405234801561001057600080fd5b50604051611c83380380611c8383398101604081905261002f91610044565b60601b6001600160601b031916608052610072565b600060208284031215610055578081fd5b81516001600160a01b038116811461006b578182fd5b9392505050565b60805160601c611bb56100ce6000396000818160870152818161020001528181610311015281816105b4015281816106e30152818161086e01528181610af001528181610c3701528181610eed01526110140152611bb56000f3fe608060405234801561001057600080fd5b506004361061007d5760003560e01c80633e1501411161005b5780633e1501411461016d578063b316ff89146101a0578063d2493b6c146101b5578063f561ae41146101e857600080fd5b80630542975c1461008257806328dd2d01146100c657806335ea6a7514610118575b600080fd5b6100a97f000000000000000000000000000000000000000000000000000000000000000081565b6040516001600160a01b0390911681526020015b60405180910390f35b6100d96100d43660046115bf565b6101f0565b604080519889526020890197909752958701949094526060860192909252608085015260a0840152151560c0830152151560e0820152610100016100bd565b61012b610126366004611580565b61085e565b604080519889526020890197909752958701949094526060860192909252608085015260a084015260c083015264ffffffffff1660e0820152610100016100bd565b61018061017b366004611580565b610ae6565b6040805194855260208501939093529183015260608201526080016100bd565b6101a8610c31565b6040516100bd91906118ab565b6101c86101c3366004611580565b610ee6565b604080516001600160a01b039384168152929091166020830152016100bd565b6101a861100e565b60008060008060008060008060007f00000000000000000000000000000000000000000000000000000000000000006001600160a01b0316630261bf8b6040518163ffffffff1660e01b815260040160206040518083038186803b15801561025757600080fd5b505afa15801561026b573d6000803e3d6000fd5b505050506040513d601f19601f8201168201806040525081019061028f91906115a3565b6040516335ea6a7560e01b81526001600160a01b038d8116600483015291909116906335ea6a75906024016101406040518083038186803b1580156102d357600080fd5b505afa1580156102e7573d6000803e3d6000fd5b505050506040513d601f19601f8201168201806040525081019061030b9190611756565b905060007f00000000000000000000000000000000000000000000000000000000000000006001600160a01b0316630261bf8b6040518163ffffffff1660e01b815260040160206040518083038186803b15801561036857600080fd5b505afa15801561037c573d6000803e3d6000fd5b505050506040513d601f19601f820116820180604052508101906103a091906115a3565b604051634417a58360e01b81526001600160a01b038d811660048301529190911690634417a5839060240160206040518083038186803b1580156103e357600080fd5b505afa1580156103f7573d6000803e3d6000fd5b505050506040513d601f19601f8201168201806040525081019061041b919061173b565b60c08301516040516370a0823160e01b81526001600160a01b038e811660048301529293509116906370a082319060240160206040518083038186803b15801561046457600080fd5b505afa158015610478573d6000803e3d6000fd5b505050506040513d601f19601f8201168201806040525081019061049c919061181e565b60e08301516040516370a0823160e01b81526001600160a01b038e81166004830152929c509116906370a082319060240160206040518083038186803b1580156104e557600080fd5b505afa1580156104f9573d6000803e3d6000fd5b505050506040513d601f19601f8201168201806040525081019061051d919061181e565b60e0830151604051630ed1279f60e11b81526001600160a01b038e81166004830152929b50911690631da24f3e9060240160206040518083038186803b15801561056657600080fd5b505afa15801561057a573d6000803e3d6000fd5b505050506040513d601f19601f8201168201806040525081019061059e919061181e565b975081606001516001600160801b0316965060007f00000000000000000000000000000000000000000000000000000000000000006001600160a01b0316630261bf8b6040518163ffffffff1660e01b815260040160206040518083038186803b15801561060b57600080fd5b505afa15801561061f573d6000803e3d6000fd5b505050506040513d601f19601f8201168201806040525081019061064391906115a3565b604051632fe4a15f60e21b81526001600160a01b038e81166004830152919091169063bf92857c9060240160c06040518083038186803b15801561068657600080fd5b505afa15801561069a573d6000803e3d6000fd5b505050506040513d601f19601f820116820180604052508101906106be9190611836565b60408051631f94a27560e31b81529051919d5093965061081295506001600160a01b037f000000000000000000000000000000000000000000000000000000000000000016945063fca513a893600480820194506020935090829003018186803b15801561072b57600080fd5b505afa15801561073f573d6000803e3d6000fd5b505050506040513d601f19601f8201168201806040525081019061076391906115a3565b6001600160a01b031663b3596f078f6040518263ffffffff1660e01b815260040161079d91906001600160a01b0391909116815260200190565b60206040518083038186803b1580156107b557600080fd5b505afa1580156107c9573d6000803e3d6000fd5b505050506040513d601f19601f820116820180604052508101906107ed919061181e565b84515161080c9060301c60ff1661080590600a611a12565b849061132d565b90611342565b955061082f83610120015160ff168361134e90919063ffffffff16565b945061084c83610120015160ff16836113bd90919063ffffffff16565b93505050509295985092959890939650565b60008060008060008060008060007f00000000000000000000000000000000000000000000000000000000000000006001600160a01b0316630261bf8b6040518163ffffffff1660e01b815260040160206040518083038186803b1580156108c557600080fd5b505afa1580156108d9573d6000803e3d6000fd5b505050506040513d601f19601f820116820180604052508101906108fd91906115a3565b6040516335ea6a7560e01b81526001600160a01b038c8116600483015291909116906335ea6a75906024016101406040518083038186803b15801561094157600080fd5b505afa158015610955573d6000803e3d6000fd5b505050506040513d601f19601f820116820180604052508101906109799190611756565b905060008160e001516001600160a01b03166318160ddd6040518163ffffffff1660e01b815260040160206040518083038186803b1580156109ba57600080fd5b505afa1580156109ce573d6000803e3d6000fd5b505050506040513d601f19601f820116820180604052508101906109f2919061181e565b60c08301516040516370a0823160e01b81526001600160a01b039182166004820152919250600091908d16906370a082319060240160206040518083038186803b158015610a3f57600080fd5b505afa158015610a53573d6000803e3d6000fd5b505050506040513d601f19601f82011682018060405250810190610a77919061181e565b90508115610a9857610a93610a8c8284611408565b8390611414565b610a9b565b60005b606084015160808501516020860151604087015160a090970151949e50949c506001600160801b039182169b5081169950928316975091909216945092509050919395975091939597565b60008060008060007f00000000000000000000000000000000000000000000000000000000000000006001600160a01b0316630261bf8b6040518163ffffffff1660e01b815260040160206040518083038186803b158015610b4757600080fd5b505afa158015610b5b573d6000803e3d6000fd5b505050506040513d601f19601f82011682018060405250810190610b7f91906115a3565b60405163c44b11f760e01b81526001600160a01b038881166004830152919091169063c44b11f79060240160206040518083038186803b158015610bc257600080fd5b505afa158015610bd6573d6000803e3d6000fd5b505050506040513d601f19601f82011682018060405250810190610bfa919061173b565b9050610c22815161ffff80821692601083901c821692602081901c9092169160301c60ff1690565b99929850909650945092505050565b606060007f00000000000000000000000000000000000000000000000000000000000000006001600160a01b0316630261bf8b6040518163ffffffff1660e01b815260040160206040518083038186803b158015610c8e57600080fd5b505afa158015610ca2573d6000803e3d6000fd5b505050506040513d601f19601f82011682018060405250810190610cc691906115a3565b90506000816001600160a01b031663d1946dbc6040518163ffffffff1660e01b815260040160006040518083038186803b158015610d0357600080fd5b505afa158015610d17573d6000803e3d6000fd5b505050506040513d6000823e601f3d908101601f19168201604052610d3f91908101906115f7565b90506000815167ffffffffffffffff811115610d6b57634e487b7160e01b600052604160045260246000fd5b604051908082528060200260200182016040528015610db157816020015b604080518082019091526060815260006020820152815260200190600190039081610d895790505b50905060005b8251811015610ede576040518060400160405280848381518110610deb57634e487b7160e01b600052603260045260246000fd5b60200260200101516001600160a01b03166395d89b416040518163ffffffff1660e01b815260040160006040518083038186803b158015610e2b57600080fd5b505afa158015610e3f573d6000803e3d6000fd5b505050506040513d6000823e601f3d908101601f19168201604052610e6791908101906116ab565b8152602001848381518110610e8c57634e487b7160e01b600052603260045260246000fd5b60200260200101516001600160a01b0316815250828281518110610ec057634e487b7160e01b600052603260045260246000fd5b60200260200101819052508080610ed690611b20565b915050610db7565b509392505050565b60008060007f00000000000000000000000000000000000000000000000000000000000000006001600160a01b0316630261bf8b6040518163ffffffff1660e01b815260040160206040518083038186803b158015610f4457600080fd5b505afa158015610f58573d6000803e3d6000fd5b505050506040513d601f19601f82011682018060405250810190610f7c91906115a3565b6040516335ea6a7560e01b81526001600160a01b03868116600483015291909116906335ea6a75906024016101406040518083038186803b158015610fc057600080fd5b505afa158015610fd4573d6000803e3d6000fd5b505050506040513d601f19601f82011682018060405250810190610ff89190611756565b90508060c001518160e001519250925050915091565b606060007f00000000000000000000000000000000000000000000000000000000000000006001600160a01b0316630261bf8b6040518163ffffffff1660e01b815260040160206040518083038186803b15801561106b57600080fd5b505afa15801561107f573d6000803e3d6000fd5b505050506040513d601f19601f820116820180604052508101906110a391906115a3565b90506000816001600160a01b031663d1946dbc6040518163ffffffff1660e01b815260040160006040518083038186803b1580156110e057600080fd5b505afa1580156110f4573d6000803e3d6000fd5b505050506040513d6000823e601f3d908101601f1916820160405261111c91908101906115f7565b90506000815167ffffffffffffffff81111561114857634e487b7160e01b600052604160045260246000fd5b60405190808252806020026020018201604052801561118e57816020015b6040805180820190915260608152600060208201528152602001906001900390816111665790505b50905060005b8251811015610ede576000846001600160a01b03166335ea6a758584815181106111ce57634e487b7160e01b600052603260045260246000fd5b60200260200101516040518263ffffffff1660e01b815260040161120191906001600160a01b0391909116815260200190565b6101406040518083038186803b15801561121a57600080fd5b505afa15801561122e573d6000803e3d6000fd5b505050506040513d601f19601f820116820180604052508101906112529190611756565b905060405180604001604052808260c001516001600160a01b03166395d89b416040518163ffffffff1660e01b815260040160006040518083038186803b15801561129c57600080fd5b505afa1580156112b0573d6000803e3d6000fd5b505050506040513d6000823e601f3d908101601f191682016040526112d891908101906116ab565b81526020018260c001516001600160a01b031681525083838151811061130e57634e487b7160e01b600052603260045260246000fd5b602002602001018190525050808061132590611b20565b915050611194565b60006113398284611aba565b90505b92915050565b600061133982846119af565b60006080821060405180604001604052806002815260200161373760f01b815250906113965760405162461bcd60e51b815260040161138d9190611929565b60405180910390fd5b506113a2826002611aba565b6113ad906001611997565b925190921c600116151592915050565b60006080821060405180604001604052806002815260200161373760f01b815250906113fc5760405162461bcd60e51b815260040161138d9190611929565b506113ad826002611aba565b60006113398284611997565b604080518082019091526002815261035360f41b60208201526000908261144e5760405162461bcd60e51b815260040161138d9190611929565b50600061145c6002846119af565b90506b033b2e3c9fd0803ce800000061147782600019611ad9565b61148191906119af565b84111560405180604001604052806002815260200161068760f31b815250906114bd5760405162461bcd60e51b815260040161138d9190611929565b5082816114d66b033b2e3c9fd0803ce800000087611aba565b6114e09190611997565b6114ea91906119af565b949350505050565b80516114fd81611b67565b919050565b600060208284031215611513578081fd5b6040516020810181811067ffffffffffffffff8211171561153657611536611b51565b6040529151825250919050565b80516001600160801b03811681146114fd57600080fd5b805164ffffffffff811681146114fd57600080fd5b805160ff811681146114fd57600080fd5b600060208284031215611591578081fd5b813561159c81611b67565b9392505050565b6000602082840312156115b4578081fd5b815161159c81611b67565b600080604083850312156115d1578081fd5b82356115dc81611b67565b915060208301356115ec81611b67565b809150509250929050565b60006020808385031215611609578182fd5b825167ffffffffffffffff80821115611620578384fd5b818501915085601f830112611633578384fd5b81518181111561164557611645611b51565b8060051b9150611656848301611966565b8181528481019084860184860187018a1015611670578788fd5b8795505b8386101561169e578051945061168985611b67565b84835260019590950194918601918601611674565b5098975050505050505050565b6000602082840312156116bc578081fd5b815167ffffffffffffffff808211156116d3578283fd5b818401915084601f8301126116e6578283fd5b8151818111156116f8576116f8611b51565b61170b601f8201601f1916602001611966565b9150808252856020828501011115611721578384fd5b611732816020840160208601611af0565b50949350505050565b60006020828403121561174c578081fd5b6113398383611502565b60006101408284031215611768578081fd5b61177061193c565b61177a8484611502565b815261178860208401611543565b602082015261179960408401611543565b60408201526117aa60608401611543565b60608201526117bb60808401611543565b60808201526117cc60a0840161155a565b60a08201526117dd60c084016114f2565b60c08201526117ee60e084016114f2565b60e08201526101006118018185016114f2565b9082015261012061181384820161156f565b908201529392505050565b60006020828403121561182f578081fd5b5051919050565b60008060008060008060c0878903121561184e578182fd5b865195506020870151945060408701519350606087015192506080870151915060a087015190509295509295509295565b60008151808452611897816020860160208601611af0565b601f01601f19169290920160200192915050565b60006020808301818452808551808352604092508286019150828160051b870101848801865b8381101561191b57888303603f19018552815180518785526118f58886018261187f565b918901516001600160a01b031694890194909452948701949250908601906001016118d1565b509098975050505050505050565b602081526000611339602083018461187f565b604051610140810167ffffffffffffffff8111828210171561196057611960611b51565b60405290565b604051601f8201601f1916810167ffffffffffffffff8111828210171561198f5761198f611b51565b604052919050565b600082198211156119aa576119aa611b3b565b500190565b6000826119ca57634e487b7160e01b81526012600452602481fd5b500490565b600181815b80851115611a0a5781600019048211156119f0576119f0611b3b565b808516156119fd57918102915b93841c93908002906119d4565b509250929050565b60006113398383600082611a285750600161133c565b81611a355750600061133c565b8160018114611a4b5760028114611a5557611a71565b600191505061133c565b60ff841115611a6657611a66611b3b565b50506001821b61133c565b5060208310610133831016604e8410600b8410161715611a94575081810a61133c565b611a9e83836119cf565b8060001904821115611ab257611ab2611b3b565b029392505050565b6000816000190483118215151615611ad457611ad4611b3b565b500290565b600082821015611aeb57611aeb611b3b565b500390565b60005b83811015611b0b578181015183820152602001611af3565b83811115611b1a576000848401525b50505050565b6000600019821415611b3457611b34611b3b565b5060010190565b634e487b7160e01b600052601160045260246000fd5b634e487b7160e01b600052604160045260246000fd5b6001600160a01b0381168114611b7c57600080fd5b5056fea2646970667358221220ae44485d5d2b27b9bb4e4e910f2590e43eef5532a4e41b4256216b43db18444b64736f6c6343000804003360806040523480156200001157600080fd5b5060405162000ebe38038062000ebe8339810160408190526200003491620001c9565b80518251146200008a5760405162461bcd60e51b815260206004820152601a60248201527f494e434f4e53495354454e545f504152414d535f4c454e475448000000000000604482015260640160405180910390fd5b60005b82518110156200013457818181518110620000b857634e487b7160e01b600052603260045260246000fd5b6020026020010151600080858481518110620000e457634e487b7160e01b600052603260045260246000fd5b6020026020010151815260200190815260200160002060006101000a8154816001600160a01b0302191690836001600160a01b0316021790555080806200012b90620002ea565b9150506200008d565b50505062000328565b600082601f8301126200014e578081fd5b81516020620001676200016183620002c4565b62000291565b80838252828201915082860187848660051b890101111562000187578586fd5b855b85811015620001bc5781516001600160a01b0381168114620001a9578788fd5b8452928401929084019060010162000189565b5090979650505050505050565b60008060408385031215620001dc578182fd5b82516001600160401b0380821115620001f3578384fd5b818501915085601f83011262000207578384fd5b815160206200021a6200016183620002c4565b8083825282820191508286018a848660051b89010111156200023a578889fd5b8896505b848710156200025e5780518352600196909601959183019183016200023e565b509188015191965090935050508082111562000278578283fd5b5062000287858286016200013d565b9150509250929050565b604051601f8201601f191681016001600160401b0381118282101715620002bc57620002bc62000312565b604052919050565b60006001600160401b03821115620002e057620002e062000312565b5060051b60200190565b60006000198214156200030b57634e487b7160e01b81526011600452602481fd5b5060010190565b634e487b7160e01b600052604160045260246000fd5b610b8680620003386000396000f3fe6080604052600436106100435760003560e01c80630240534314610087578063b59b28ef146100be578063dffad8e9146100eb578063f7888aec1461011957600080fd5b3661008257333b6100805760405162461bcd60e51b8152602060048201526002602482015261191960f11b60448201526064015b60405180910390fd5b005b600080fd5b34801561009357600080fd5b506100a76100a2366004610826565b610139565b6040516100b5929190610a47565b60405180910390f35b3480156100ca57600080fd5b506100de6100d936600461085e565b61048b565b6040516100b59190610aa7565b3480156100f757600080fd5b5061010b61010636600461098e565b6105dc565b6040519081526020016100b5565b34801561012557600080fd5b5061010b610134366004610826565b610674565b6060806000846001600160a01b0316630261bf8b6040518163ffffffff1660e01b815260040160206040518083038186803b15801561017757600080fd5b505afa15801561018b573d6000803e3d6000fd5b505050506040513d601f19601f820116820180604052508101906101af919061080a565b90506000816001600160a01b031663d1946dbc6040518163ffffffff1660e01b815260040160006040518083038186803b1580156101ec57600080fd5b505afa158015610200573d6000803e3d6000fd5b505050506040513d6000823e601f3d908101601f1916820160405261022891908101906108c7565b905060008151600161023a9190610aba565b67ffffffffffffffff81111561026057634e487b7160e01b600052604160045260246000fd5b604051908082528060200260200182016040528015610289578160200160208202803683370190505b50905060005b825181101561030a578281815181106102b857634e487b7160e01b600052603260045260246000fd5b60200260200101518282815181106102e057634e487b7160e01b600052603260045260246000fd5b6001600160a01b03909216602092830291909101909101528061030281610af1565b91505061028f565b5073eeeeeeeeeeeeeeeeeeeeeeeeeeeeeeeeeeeeeeee8183518151811061034157634e487b7160e01b600052603260045260246000fd5b60200260200101906001600160a01b031690816001600160a01b0316815250506000815167ffffffffffffffff81111561038b57634e487b7160e01b600052604160045260246000fd5b6040519080825280602002602001820160405280156103b4578160200160208202803683370190505b50905060005b8351811015610431576103f4888483815181106103e757634e487b7160e01b600052603260045260246000fd5b6020026020010151610674565b82828151811061041457634e487b7160e01b600052603260045260246000fd5b60209081029190910101528061042981610af1565b9150506103ba565b506104508773eeeeeeeeeeeeeeeeeeeeeeeeeeeeeeeeeeeeeeee610674565b8184518151811061047157634e487b7160e01b600052603260045260246000fd5b6020908102919091010152909450925050505b9250929050565b606060006104998386610ad2565b67ffffffffffffffff8111156104bf57634e487b7160e01b600052604160045260246000fd5b6040519080825280602002602001820160405280156104e8578160200160208202803683370190505b50905060005b858110156105d25760005b848110156105bf5761056e88888481811061052457634e487b7160e01b600052603260045260246000fd5b905060200201602081019061053991906107e7565b87878481811061055957634e487b7160e01b600052603260045260246000fd5b905060200201602081019061013491906107e7565b838261057a8886610ad2565b6105849190610aba565b815181106105a257634e487b7160e01b600052603260045260246000fd5b6020908102919091010152806105b781610af1565b9150506104f9565b50806105ca81610af1565b9150506104ee565b5095945050505050565b600081815260208190526040808220548151633fabe5a360e21b815291516001600160a01b03909116918391839163feaf968c9160048083019260a0929190829003018186803b15801561062f57600080fd5b505afa158015610643573d6000803e3d6000fd5b505050506040513d601f19601f8201168201806040525081019061066791906109be565b5091979650505050505050565b60006001600160a01b03821673eeeeeeeeeeeeeeeeeeeeeeeeeeeeeeeeeeeeeeee14156106ac57506001600160a01b03821631610774565b6001600160a01b0382163b1561073c576040516370a0823160e01b81526001600160a01b0384811660048301528316906370a082319060240160206040518083038186803b1580156106fd57600080fd5b505afa158015610711573d6000803e3d6000fd5b505050506040513d601f19601f8201168201806040525081019061073591906109a6565b9050610774565b60405162461bcd60e51b815260206004820152600d60248201526c24a72b20a624a22faa27a5a2a760991b6044820152606401610077565b92915050565b805161078581610b38565b919050565b60008083601f84011261079b578081fd5b50813567ffffffffffffffff8111156107b2578182fd5b6020830191508360208260051b850101111561048457600080fd5b805169ffffffffffffffffffff8116811461078557600080fd5b6000602082840312156107f8578081fd5b813561080381610b38565b9392505050565b60006020828403121561081b578081fd5b815161080381610b38565b60008060408385031215610838578081fd5b823561084381610b38565b9150602083013561085381610b38565b809150509250929050565b60008060008060408587031215610873578182fd5b843567ffffffffffffffff8082111561088a578384fd5b6108968883890161078a565b909650945060208701359150808211156108ae578384fd5b506108bb8782880161078a565b95989497509550505050565b600060208083850312156108d9578182fd5b825167ffffffffffffffff808211156108f0578384fd5b818501915085601f830112610903578384fd5b81518181111561091557610915610b22565b8060051b604051601f19603f8301168101818110858211171561093a5761093a610b22565b604052828152858101935084860182860187018a1015610958578788fd5b8795505b838610156109815761096d8161077a565b85526001959095019493860193860161095c565b5098975050505050505050565b60006020828403121561099f578081fd5b5035919050565b6000602082840312156109b7578081fd5b5051919050565b600080600080600060a086880312156109d5578081fd5b6109de866107cd565b9450602086015193506040860151925060608601519150610a01608087016107cd565b90509295509295909350565b6000815180845260208085019450808401835b83811015610a3c57815187529582019590820190600101610a20565b509495945050505050565b604080825283519082018190526000906020906060840190828701845b82811015610a895781516001600160a01b031684529284019290840190600101610a64565b50505083810382850152610a9d8186610a0d565b9695505050505050565b6020815260006108036020830184610a0d565b60008219821115610acd57610acd610b0c565b500190565b6000816000190483118215151615610aec57610aec610b0c565b500290565b6000600019821415610b0557610b05610b0c565b5060010190565b634e487b7160e01b600052601160045260246000fd5b634e487b7160e01b600052604160045260246000fd5b6001600160a01b0381168114610b4d57600080fd5b5056fea26469706673582212201093f18e381581aa2161d952fa8c6a1e4e8acb5812b74c88d7f9b246958ac4a864736f6c6343000804003360806040523480156200001157600080fd5b5060405162001c1b38038062001c1b833981016040819052620000349162000292565b604080518082018252600b8082526a105513d2d15397d253541360aa1b6020808401828152855180870190965292855284015281519192916000916200007e916003919062000139565b5081516200009490600490602085019062000139565b506005805460ff191660ff9290921691909117905550620000b790508262000110565b620000c28162000129565b6005805460ff191660ff8516179055505060058054610100600160a81b0319166101006001600160a01b039586160217905550600680546001600160a01b03191691909216179055620003aa565b80516200012590600390602084019062000139565b5050565b8051620001259060049060208401905b82805462000147906200033e565b90600052602060002090601f0160209004810192826200016b5760008555620001b6565b82601f106200018657805160ff1916838001178555620001b6565b82800160010185558215620001b6579182015b82811115620001b657825182559160200191906001019062000199565b50620001c4929150620001c8565b5090565b5b80821115620001c45760008155600101620001c9565b600082601f830112620001f0578081fd5b81516001600160401b03808211156200020d576200020d6200037b565b604051601f8301601f19908116603f011681019082821181831017156200023857620002386200037b565b8160405283815260209250868385880101111562000254578485fd5b8491505b8382101562000277578582018301518183018401529082019062000258565b838211156200028857848385830101525b9695505050505050565b600080600080600060a08688031215620002aa578081fd5b8551620002b78162000391565b6020870151909550620002ca8162000391565b604087015190945060ff81168114620002e1578182fd5b60608701519093506001600160401b0380821115620002fe578283fd5b6200030c89838a01620001df565b9350608088015191508082111562000322578283fd5b506200033188828901620001df565b9150509295509295909350565b600181811c908216806200035357607f821691505b602082108114156200037557634e487b7160e01b600052602260045260246000fd5b50919050565b634e487b7160e01b600052604160045260246000fd5b6001600160a01b0381168114620003a757600080fd5b50565b61186180620003ba6000396000f3fe608060405234801561001057600080fd5b50600436106101375760003560e01c806370a08231116100b8578063a9059cbb1161007c578063a9059cbb146102b6578063b16a19de146102c9578063b1bf962d146102da578063d7020d0a146102e2578063dd62ed3e146102f5578063f866c3191461032e57600080fd5b806370a08231146102495780637535d2461461025c57806388dd91a11461028657806395d89b411461029b578063a457c2d7146102a357600080fd5b80631da24f3e116100ff5780631da24f3e146101e857806323b872dd146101fb578063313ce5671461020e57806339509351146102235780634efecaa51461023657600080fd5b806306fdde031461013c578063095ea7b31461015a5780630afbcdc91461017d578063156e29f6146101bf57806318160ddd146101d2575b600080fd5b610144610341565b604051610151919061165a565b60405180910390f35b61016d6101683660046115ab565b6103d3565b6040519015158152602001610151565b6101aa61018b3660046114e3565b6001600160a01b03166000908152602081905260409020546002549091565b60408051928352602083019190915201610151565b61016d6101cd3660046115d4565b6103ea565b6101da610534565b604051908152602001610151565b6101da6101f63660046114e3565b6105e5565b61016d61020936600461152f565b610603565b60055460405160ff9091168152602001610151565b61016d6102313660046115ab565b6106a7565b6101da6102443660046115ab565b6106dd565b6101da6102573660046114e3565b610753565b60055461010090046001600160a01b03165b6040516001600160a01b039091168152602001610151565b6102996102943660046115ab565b6107fe565b005b610144610858565b61016d6102b13660046115ab565b610867565b61016d6102c43660046115ab565b6108b6565b6006546001600160a01b031661026e565b6101da6108fa565b6102996102f036600461156a565b61090a565b6101da6103033660046114fd565b6001600160a01b03918216600090815260016020908152604080832093909416825291909152205490565b61029961033c36600461152f565b610a54565b6060600380546103509061172b565b80601f016020809104026020016040519081016040528092919081815260200182805461037c9061172b565b80156103c95780601f1061039e576101008083540402835291602001916103c9565b820191906000526020600020905b8154815290600101906020018083116103ac57829003601f168201915b5050505050905090565b60006103e0338484610af7565b5060015b92915050565b60055460009061010090046001600160a01b0316336001600160a01b03161460405180604001604052806002815260200161323960f01b8152509061044b5760405162461bcd60e51b8152600401610442919061165a565b60405180910390fd5b506001600160a01b038416600090815260208190526040812054906104708585610c13565b6040805180820190915260028152611a9b60f11b6020820152909150816104aa5760405162461bcd60e51b8152600401610442919061165a565b506104b58682610cf1565b6040518581526001600160a01b038716906000906000805160206117e78339815191529060200160405180910390a360408051868152602081018690526001600160a01b038816917f4c209b5fc8ad50758f13e2e1088ba56a560dff690a1c6fef26394f4c03821c4f910160405180910390a2501590505b9392505050565b60008061054060025490565b90508061054f57600091505090565b60055460065460405163d15e005360e01b81526001600160a01b0391821660048201526105df9261010090049091169063d15e00539060240160206040518083038186803b1580156105a057600080fd5b505afa1580156105b4573d6000803e3d6000fd5b505050506040513d601f19601f820116820180604052508101906105d89190611626565b8290610d9c565b91505090565b6001600160a01b0381166000908152602081905260408120546103e4565b6000610610848484610e57565b610662843361065d856040518060600160405280602881526020016117bf602891396001600160a01b038a1660009081526001602090815260408083203384529091529020549190610e64565b610af7565b826001600160a01b0316846001600160a01b03166000805160206117e78339815191528460405161069591815260200190565b60405180910390a35060019392505050565b3360008181526001602090815260408083206001600160a01b038716845290915281205490916103e091859061065d9086610e90565b60055460009061010090046001600160a01b0316336001600160a01b03161460405180604001604052806002815260200161323960f01b815250906107355760405162461bcd60e51b8152600401610442919061165a565b5060065461074d906001600160a01b03168484610e9c565b50919050565b60055460065460405163d15e005360e01b81526001600160a01b0391821660048201526000926103e492610100909104169063d15e00539060240160206040518083038186803b1580156107a657600080fd5b505afa1580156107ba573d6000803e3d6000fd5b505050506040513d601f19601f820116820180604052508101906107de9190611626565b6001600160a01b0384166000908152602081905260409020545b90610d9c565b60055461010090046001600160a01b0316336001600160a01b03161460405180604001604052806002815260200161323960f01b815250906108535760405162461bcd60e51b8152600401610442919061165a565b505050565b6060600480546103509061172b565b60006103e0338461065d85604051806060016040528060258152602001611807602591393360009081526001602090815260408083206001600160a01b038d1684529091529020549190610e64565b60006108c3338484610e57565b6040518281526001600160a01b0384169033906000805160206117e78339815191529060200160405180910390a350600192915050565b600061090560025490565b905090565b60055461010090046001600160a01b0316336001600160a01b03161460405180604001604052806002815260200161323960f01b8152509061095f5760405162461bcd60e51b8152600401610442919061165a565b50600061096c8383610c13565b60408051808201909152600281526106a760f31b6020820152909150816109a65760405162461bcd60e51b8152600401610442919061165a565b506109b18582610eee565b6006546109c8906001600160a01b03168585610e9c565b6040518381526000906001600160a01b038716906000805160206117e78339815191529060200160405180910390a3836001600160a01b0316856001600160a01b03167f5d624aa9c148153ab3446c1b154f660ee7701e549fe9b62dab7171b1c80e6fa28585604051610a45929190918252602082015260400190565b60405180910390a35050505050565b60055461010090046001600160a01b0316336001600160a01b03161460405180604001604052806002815260200161323960f01b81525090610aa95760405162461bcd60e51b8152600401610442919061165a565b50610ab78383836000610f9f565b816001600160a01b0316836001600160a01b03166000805160206117e783398151915283604051610aea91815260200190565b60405180910390a3505050565b6001600160a01b038316610b595760405162461bcd60e51b8152602060048201526024808201527f45524332303a20617070726f76652066726f6d20746865207a65726f206164646044820152637265737360e01b6064820152608401610442565b6001600160a01b038216610bba5760405162461bcd60e51b815260206004820152602260248201527f45524332303a20617070726f766520746f20746865207a65726f206164647265604482015261737360f01b6064820152608401610442565b6001600160a01b0383811660008181526001602090815260408083209487168084529482529182902085905590518481527f8c5be1e5ebec7d5bd14f71427d1e84f3dd0314c0f7b2291e5b200ac8c7c3b9259101610aea565b604080518082019091526002815261035360f41b602082015260009082610c4d5760405162461bcd60e51b8152600401610442919061165a565b506000610c5b6002846116a5565b90506b033b2e3c9fd0803ce8000000610c76826000196116e4565b610c8091906116a5565b84111560405180604001604052806002815260200161068760f31b81525090610cbc5760405162461bcd60e51b8152600401610442919061165a565b508281610cd56b033b2e3c9fd0803ce8000000876116c5565b610cdf919061168d565b610ce991906116a5565b949350505050565b6001600160a01b038216610d475760405162461bcd60e51b815260206004820152601f60248201527f45524332303a206d696e7420746f20746865207a65726f2061646472657373006044820152606401610442565b600254610d548183610e90565b6002556001600160a01b038316600090815260208190526040902054610d7a8184610e90565b6001600160a01b03909416600090815260208190526040902093909355505050565b6000821580610da9575081155b15610db6575060006103e4565b81610dce60026b033b2e3c9fd0803ce80000006116a5565b610dda906000196116e4565b610de491906116a5565b83111560405180604001604052806002815260200161068760f31b81525090610e205760405162461bcd60e51b8152600401610442919061165a565b506b033b2e3c9fd0803ce8000000610e396002826116a5565b610e4384866116c5565b610e4d919061168d565b61052d91906116a5565b6108538383836001610f9f565b60008184841115610e885760405162461bcd60e51b8152600401610442919061165a565b505050900390565b600061052d828461168d565b604080516001600160a01b038416602482015260448082018490528251808303909101815260649091019091526020810180516001600160e01b031663a9059cbb60e01b179052610853908490611179565b6001600160a01b038216610f4e5760405162461bcd60e51b815260206004820152602160248201527f45524332303a206275726e2066726f6d20746865207a65726f206164647265736044820152607360f81b6064820152608401610442565b600254610f5b818361124b565b6002556001600160a01b038316600090815260208181526040918290205482516060810190935260228084529092610d7a9286929061177790830139839190610e64565b60065460055460405163d15e005360e01b81526001600160a01b03928316600482018190529261010090920490911690600090829063d15e00539060240160206040518083038186803b158015610ff557600080fd5b505afa158015611009573d6000803e3d6000fd5b505050506040513d601f19601f8201168201806040525081019061102d9190611626565b90506000611054826107f88a6001600160a01b031660009081526020819052604090205490565b9050600061107b836107f88a6001600160a01b031660009081526020819052604090205490565b9050611091898961108c8a87610c13565b611257565b85156111185760405163d5ed393360e01b81526001600160a01b0386811660048301528a811660248301528981166044830152606482018990526084820184905260a4820183905285169063d5ed39339060c401600060405180830381600087803b1580156110ff57600080fd5b505af1158015611113573d6000803e3d6000fd5b505050505b876001600160a01b0316896001600160a01b03167f4beccb90f994c31aced7a23b5611020728a23d8ec5cddd1a3e9d97b96fda86668986604051611166929190918252602082015260400190565b60405180910390a3505050505050505050565b60006111ce826040518060400160405280602081526020017f5361666545524332303a206c6f772d6c6576656c2063616c6c206661696c6564815250856001600160a01b03166113bc9092919063ffffffff16565b80519091501561085357808060200190518101906111ec9190611606565b6108535760405162461bcd60e51b815260206004820152602a60248201527f5361666545524332303a204552433230206f7065726174696f6e20646964206e6044820152691bdd081cdd58d8d9595960b21b6064820152608401610442565b600061052d82846116e4565b6001600160a01b0383166112bb5760405162461bcd60e51b815260206004820152602560248201527f45524332303a207472616e736665722066726f6d20746865207a65726f206164604482015264647265737360d81b6064820152608401610442565b6001600160a01b03821661131d5760405162461bcd60e51b815260206004820152602360248201527f45524332303a207472616e7366657220746f20746865207a65726f206164647260448201526265737360e81b6064820152608401610442565b6000806000856001600160a01b03166001600160a01b0316815260200190815260200160002054905061136b8260405180606001604052806026815260200161179960269139839190610e64565b6001600160a01b03808616600090815260208190526040808220939093559085168152205461139a9083610e90565b6001600160a01b03909316600090815260208190526040902092909255505050565b6060610ce9848460008585843b6114155760405162461bcd60e51b815260206004820152601d60248201527f416464726573733a2063616c6c20746f206e6f6e2d636f6e74726163740000006044820152606401610442565b600080866001600160a01b03168587604051611431919061163e565b60006040518083038185875af1925050503d806000811461146e576040519150601f19603f3d011682016040523d82523d6000602084013e611473565b606091505b509150915061148382828661148e565b979650505050505050565b6060831561149d57508161052d565b8251156114ad5782518084602001fd5b8160405162461bcd60e51b8152600401610442919061165a565b80356001600160a01b03811681146114de57600080fd5b919050565b6000602082840312156114f4578081fd5b61052d826114c7565b6000806040838503121561150f578081fd5b611518836114c7565b9150611526602084016114c7565b90509250929050565b600080600060608486031215611543578081fd5b61154c846114c7565b925061155a602085016114c7565b9150604084013590509250925092565b6000806000806080858703121561157f578081fd5b611588856114c7565b9350611596602086016114c7565b93969395505050506040820135916060013590565b600080604083850312156115bd578182fd5b6115c6836114c7565b946020939093013593505050565b6000806000606084860312156115e8578283fd5b6115f1846114c7565b95602085013595506040909401359392505050565b600060208284031215611617578081fd5b8151801515811461052d578182fd5b600060208284031215611637578081fd5b5051919050565b600082516116508184602087016116fb565b9190910192915050565b60208152600082518060208401526116798160408501602087016116fb565b601f01601f19169190910160400192915050565b600082198211156116a0576116a0611760565b500190565b6000826116c057634e487b7160e01b81526012600452602481fd5b500490565b60008160001904831182151516156116df576116df611760565b500290565b6000828210156116f6576116f6611760565b500390565b60005b838110156117165781810151838201526020016116fe565b83811115611725576000848401525b50505050565b600181811c9082168061173f57607f821691505b6020821081141561074d57634e487b7160e01b600052602260045260246000fd5b634e487b7160e01b600052601160045260246000fdfe45524332303a206275726e20616d6f756e7420657863656564732062616c616e636545524332303a207472616e7366657220616d6f756e7420657863656564732062616c616e636545524332303a207472616e7366657220616d6f756e74206578636565647320616c6c6f77616e6365ddf252ad1be2c89b69c2b068fc378daa952ba7f163c4a11628f55a4df523b3ef45524332303a2064656372656173656420616c6c6f77616e63652062656c6f77207a65726fa2646970667358221220a91365cde6f78992116e68d4bfada336b1c341bc3b3440d7d1aa079fe2e4483b64736f6c6343000804003360806040523480156200001157600080fd5b50604051620013ae380380620013ae83398101604081905262000034916200028f565b604080518082018252600e8082526d111150951513d2d15397d253541360921b60208084018281528551808701909652928552840152815191929160009162000081916003919062000136565b5081516200009790600490602085019062000136565b506005805460ff191660ff9290921691909117905550620000ba9050826200010d565b620000c58162000126565b6005805460ff191660ff85161790555050600780546001600160a01b039485166001600160a01b031991821617909155600880549390941692169190911790915550620003a7565b80516200012290600390602084019062000136565b5050565b8051620001229060049060208401905b82805462000144906200033b565b90600052602060002090601f016020900481019282620001685760008555620001b3565b82601f106200018357805160ff1916838001178555620001b3565b82800160010185558215620001b3579182015b82811115620001b357825182559160200191906001019062000196565b50620001c1929150620001c5565b5090565b5b80821115620001c15760008155600101620001c6565b600082601f830112620001ed578081fd5b81516001600160401b03808211156200020a576200020a62000378565b604051601f8301601f19908116603f0116810190828211818310171562000235576200023562000378565b8160405283815260209250868385880101111562000251578485fd5b8491505b8382101562000274578582018301518183018401529082019062000255565b838211156200028557848385830101525b9695505050505050565b600080600080600060a08688031215620002a7578081fd5b8551620002b4816200038e565b6020870151909550620002c7816200038e565b604087015190945060ff81168114620002de578182fd5b60608701519093506001600160401b0380821115620002fb578283fd5b6200030989838a01620001dc565b935060808801519150808211156200031f578283fd5b506200032e88828901620001dc565b9150509295509295909350565b600181811c908216806200035057607f821691505b602082108114156200037257634e487b7160e01b600052602260045260246000fd5b50919050565b634e487b7160e01b600052604160045260246000fd5b6001600160a01b0381168114620003a457600080fd5b50565b610ff780620003b76000396000f3fe608060405234801561001057600080fd5b50600436106101375760003560e01c80637535d246116100b8578063b1bf962d1161007c578063b1bf962d146102bb578063b3f1c93d146102c3578063b9a7b622146102d6578063c04a8a10146102de578063dd62ed3e146102f3578063f5298aca1461030157600080fd5b80637535d2461461026f57806395d89b4114610294578063a457c2d714610210578063a9059cbb1461029c578063b16a19de146102aa57600080fd5b806323b872dd116100ff57806323b872dd146101e8578063313ce567146101fb57806339509351146102105780636bd76d241461022357806370a082311461025c57600080fd5b806306fdde031461013c578063095ea7b31461015a5780630afbcdc91461017d57806318160ddd146101bf5780631da24f3e146101d5575b600080fd5b610144610314565b6040516101519190610e8d565b60405180910390f35b61016d610168366004610e1a565b6103a6565b6040519015158152602001610151565b6101aa61018b366004610d52565b6001600160a01b03166000908152602081905260409020546002549091565b60408051928352602083019190915201610151565b6101c76103ef565b604051908152602001610151565b6101c76101e3366004610d52565b610482565b61016d6101f6366004610d9e565b6104a2565b60055460405160ff9091168152602001610151565b61016d61021e366004610e1a565b6104e6565b6101c7610231366004610d6c565b6001600160a01b03918216600090815260066020908152604080832093909416825291909152205490565b6101c761026a366004610d52565b610531565b6007546001600160a01b03165b6040516001600160a01b039091168152602001610151565b6101446105eb565b61016d6101f6366004610e1a565b6008546001600160a01b031661027c565b6101c76105fa565b61016d6102d1366004610dd9565b610605565b6101c7600181565b6102f16102ec366004610e1a565b610796565b005b6101c761021e366004610d6c565b6102f161030f366004610e43565b61080d565b60606003805461032390610f4e565b80601f016020809104026020016040519081016040528092919081815260200182805461034f90610f4e565b801561039c5780601f106103715761010080835404028352916020019161039c565b820191906000526020600020905b81548152906001019060200180831161037f57829003601f168201915b5050505050905090565b60405162461bcd60e51b81526020600482015260166024820152751054141493d5905317d393d517d4d5541413d495115160521b60448201526000906064015b60405180910390fd5b60075460085460405163386497fd60e01b81526001600160a01b03918216600482015260009261047d92169063386497fd9060240160206040518083038186803b15801561043c57600080fd5b505afa158015610450573d6000803e3d6000fd5b505050506040513d601f19601f820116820180604052508101906104749190610e75565b6002549061092f565b905090565b6001600160a01b0381166000908152602081905260408120545b92915050565b60405162461bcd60e51b81526020600482015260166024820152751514905394d1915497d393d517d4d5541413d495115160521b60448201526000906064016103e6565b60405162461bcd60e51b815260206004820152601760248201527f414c4c4f57414e43455f4e4f545f535550504f5254454400000000000000000060448201526000906064016103e6565b6001600160a01b038116600090815260208190526040812054806105585750600092915050565b60075460085460405163386497fd60e01b81526001600160a01b0391821660048201526105e492919091169063386497fd9060240160206040518083038186803b1580156105a557600080fd5b505afa1580156105b9573d6000803e3d6000fd5b505050506040513d601f19601f820116820180604052508101906105dd9190610e75565b829061092f565b9392505050565b60606004805461032390610f4e565b600061047d60025490565b60006106196007546001600160a01b031690565b6001600160a01b0316336001600160a01b03161460405180604001604052806002815260200161323960f01b815250906106665760405162461bcd60e51b81526004016103e69190610e8d565b50836001600160a01b0316856001600160a01b03161461068b5761068b8486856109ea565b6001600160a01b038416600090815260208190526040812054906106af8585610abc565b6040805180820190915260028152611a9b60f11b6020820152909150816106e95760405162461bcd60e51b81526004016103e69190610e8d565b506106f48682610b9a565b6040518581526001600160a01b038716906000907fddf252ad1be2c89b69c2b068fc378daa952ba7f163c4a11628f55a4df523b3ef9060200160405180910390a3856001600160a01b0316876001600160a01b03167f2f00e3cdd69a77be7ed215ec7b2a36784dd158f921fca79ac29deffa353fe6ee8787604051610783929190918252602082015260400190565b60405180910390a3501595945050505050565b3360008181526006602090815260408083206001600160a01b038781168086529190935292208490556008549192917fda919360433220e13b51e8c211e490d148e61a3bd53de8c097194e458b97f3e19116604080516001600160a01b039092168252602082018690520160405180910390a35050565b600754604080518082019091526002815261323960f01b6020820152906001600160a01b031633146108525760405162461bcd60e51b81526004016103e69190610e8d565b50600061085f8383610abc565b60408051808201909152600281526106a760f31b6020820152909150816108995760405162461bcd60e51b81526004016103e69190610e8d565b506108a48482610c45565b6040518381526000906001600160a01b038616907fddf252ad1be2c89b69c2b068fc378daa952ba7f163c4a11628f55a4df523b3ef9060200160405180910390a360408051848152602081018490526001600160a01b038616917f49995e5dd6158cf69ad3e9777c46755a1a826a446c6416992167462dad033b2a910160405180910390a250505050565b600082158061093c575081155b156109495750600061049c565b8161096160026b033b2e3c9fd0803ce8000000610ef8565b61096d90600019610f37565b6109779190610ef8565b83111560405180604001604052806002815260200161068760f31b815250906109b35760405162461bcd60e51b81526004016103e69190610e8d565b506b033b2e3c9fd0803ce80000006109cc600282610ef8565b6109d68486610f18565b6109e09190610ee0565b6105e49190610ef8565b6040805180820182526002815261353960f01b6020808301919091526001600160a01b038087166000908152600683528481209187168152915291822054610a33918490610cf2565b6001600160a01b038086166000818152600660209081526040808320948916808452949091529020839055919250907fda919360433220e13b51e8c211e490d148e61a3bd53de8c097194e458b97f3e1610a956008546001600160a01b031690565b604080516001600160a01b039092168252602082018690520160405180910390a350505050565b604080518082019091526002815261035360f41b602082015260009082610af65760405162461bcd60e51b81526004016103e69190610e8d565b506000610b04600284610ef8565b90506b033b2e3c9fd0803ce8000000610b1f82600019610f37565b610b299190610ef8565b84111560405180604001604052806002815260200161068760f31b81525090610b655760405162461bcd60e51b81526004016103e69190610e8d565b508281610b7e6b033b2e3c9fd0803ce800000087610f18565b610b889190610ee0565b610b929190610ef8565b949350505050565b6001600160a01b038216610bf05760405162461bcd60e51b815260206004820152601f60248201527f45524332303a206d696e7420746f20746865207a65726f20616464726573730060448201526064016103e6565b600254610bfd8183610d1e565b6002556001600160a01b038316600090815260208190526040902054610c238184610d1e565b6001600160a01b03909416600090815260208190526040902093909355505050565b6001600160a01b038216610ca55760405162461bcd60e51b815260206004820152602160248201527f45524332303a206275726e2066726f6d20746865207a65726f206164647265736044820152607360f81b60648201526084016103e6565b600254610cb28183610d2a565b6002556001600160a01b038316600090815260208181526040918290205482516060810190935260228084529092610c2392869290610fa0908301398391905b60008184841115610d165760405162461bcd60e51b81526004016103e69190610e8d565b505050900390565b60006105e48284610ee0565b60006105e48284610f37565b80356001600160a01b0381168114610d4d57600080fd5b919050565b600060208284031215610d63578081fd5b6105e482610d36565b60008060408385031215610d7e578081fd5b610d8783610d36565b9150610d9560208401610d36565b90509250929050565b600080600060608486031215610db2578081fd5b610dbb84610d36565b9250610dc960208501610d36565b9150604084013590509250925092565b60008060008060808587031215610dee578081fd5b610df785610d36565b9350610e0560208601610d36565b93969395505050506040820135916060013590565b60008060408385031215610e2c578182fd5b610e3583610d36565b946020939093013593505050565b600080600060608486031215610e57578283fd5b610e6084610d36565b95602085013595506040909401359392505050565b600060208284031215610e86578081fd5b5051919050565b6000602080835283518082850152825b81811015610eb957858101830151858201604001528201610e9d565b81811115610eca5783604083870101525b50601f01601f1916929092016040019392505050565b60008219821115610ef357610ef3610f89565b500190565b600082610f1357634e487b7160e01b81526012600452602481fd5b500490565b6000816000190483118215151615610f3257610f32610f89565b500290565b600082821015610f4957610f49610f89565b500390565b600181811c90821680610f6257607f821691505b60208210811415610f8357634e487b7160e01b600052602260045260246000fd5b50919050565b634e487b7160e01b600052601160045260246000fdfe45524332303a206275726e20616d6f756e7420657863656564732062616c616e6365a26469706673582212207494090018d4aabea1619eef9093e82e6c3a5a5bb861346f93f66138a789986364736f6c6343000804003361014060405234801561001157600080fd5b50604051610a31380380610a31833981016040819052610030916100ad565b83608081815250506100608461004e61008a60201b61050b1760201c565b61009a60201b61051b1790919060201c565b60a05260609490941b6001600160601b03191660c05260e091909152610100525061012052610123565b6b033b2e3c9fd0803ce800000090565b60006100a68284610100565b9392505050565b600080600080600060a086880312156100c4578081fd5b85516001600160a01b03811681146100da578182fd5b602087015160408801516060890151608090990151929a91995097965090945092505050565b60008282101561011e57634e487b7160e01b81526011600452602481fd5b500390565b60805160a05160c05160601c60e051610100516101205161086b6101c6600039600081816101a7015281816101d201526103d7015260008181608f0152818161021701528181610422015261047d01526000818160eb015281816101f60152818161040101526104b10152600061014301526000818160c7015261037101526000818161011c01528181610345015281816103950152610459015261086b6000f3fe608060405234801561001057600080fd5b50600436106100885760003560e01c8063a15f30ac1161005b578063a15f30ac14610117578063c72c4d101461013e578063e5f516001461017d578063f4202409146101a557600080fd5b80630b3429a21461008d57806317319873146100c257806334762ca5146100e957806380031e371461010f575b600080fd5b7f00000000000000000000000000000000000000000000000000000000000000005b6040519081526020015b60405180910390f35b6100af7f000000000000000000000000000000000000000000000000000000000000000081565b7f00000000000000000000000000000000000000000000000000000000000000006100af565b6100af6101cb565b6100af7f000000000000000000000000000000000000000000000000000000000000000081565b6101657f000000000000000000000000000000000000000000000000000000000000000081565b6040516001600160a01b0390911681526020016100b9565b61019061018b3660046106fa565b610246565b604080519283526020830191909152016100b9565b7f00000000000000000000000000000000000000000000000000000000000000006100af565b60006102417f000000000000000000000000000000000000000000000000000000000000000061023b7f00000000000000000000000000000000000000000000000000000000000000007f0000000000000000000000000000000000000000000000000000000000000000610530565b90610530565b905090565b6040516370a0823160e01b81526001600160a01b03858116600483015260009182918291908916906370a082319060240160206040518083038186803b15801561028f57600080fd5b505afa1580156102a3573d6000803e3d6000fd5b505050506040513d601f19601f820116820180604052508101906102c79190610746565b90506102d78661023b838861051b565b90506103046040518060800160405280600081526020016000815260200160008152602001600081525090565b848152600060208201819052604082015284156103395780516103349061032c908490610530565b82519061053c565b61033c565b60005b606082018190527f000000000000000000000000000000000000000000000000000000000000000010156104515760006103cd7f00000000000000000000000000000000000000000000000000000000000000006103c77f0000000000000000000000000000000000000000000000000000000000000000856060015161051b90919063ffffffff16565b9061053c565b90506104466103fc7f000000000000000000000000000000000000000000000000000000000000000083610623565b61023b7f00000000000000000000000000000000000000000000000000000000000000007f0000000000000000000000000000000000000000000000000000000000000000610530565b6020830152506104dc565b6104d66104af7f00000000000000000000000000000000000000000000000000000000000000006103c77f0000000000000000000000000000000000000000000000000000000000000000856060015161062390919063ffffffff16565b7f000000000000000000000000000000000000000000000000000000000000000090610530565b60208201525b606081015160208201516104ef91610623565b6040820181905260209091015190999098509650505050505050565b6b033b2e3c9fd0803ce800000090565b60006105278284610808565b90505b92915050565b600061052782846107b1565b604080518082019091526002815261035360f41b60208201526000908261057f5760405162461bcd60e51b8152600401610576919061075e565b60405180910390fd5b50600061058d6002846107c9565b90506b033b2e3c9fd0803ce80000006105a882600019610808565b6105b291906107c9565b84111560405180604001604052806002815260200161068760f31b815250906105ee5760405162461bcd60e51b8152600401610576919061075e565b5082816106076b033b2e3c9fd0803ce8000000876107e9565b61061191906107b1565b61061b91906107c9565b949350505050565b6000821580610630575081155b1561063d5750600061052a565b8161065560026b033b2e3c9fd0803ce80000006107c9565b61066190600019610808565b61066b91906107c9565b83111560405180604001604052806002815260200161068760f31b815250906106a75760405162461bcd60e51b8152600401610576919061075e565b506b033b2e3c9fd0803ce80000006106c06002826107c9565b6106ca84866107e9565b6106d491906107b1565b61052791906107c9565b80356001600160a01b03811681146106f557600080fd5b919050565b600080600080600060a08688031215610711578081fd5b61071a866106de565b9450610728602087016106de565b94979496505050506040830135926060810135926080909101359150565b600060208284031215610757578081fd5b5051919050565b6000602080835283518082850152825b8181101561078a5785810183015185820160400152820161076e565b8181111561079b5783604083870101525b50601f01601f1916929092016040019392505050565b600082198211156107c4576107c461081f565b500190565b6000826107e457634e487b7160e01b81526012600452602481fd5b500490565b60008160001904831182151516156108035761080361081f565b500290565b60008282101561081a5761081a61081f565b500390565b634e487b7160e01b600052601160045260246000fdfea26469706673582212202645e1a7342a2a7f1f26396ef07582de81f39bb3aee445c7c0efc8f5a25999c164736f6c63430008040033",
  "linkReferences": {
    "contracts/libraries/logic/ReserveLogic.sol": {
      "ReserveLogic": [
        {
          "length": 20,
          "start": 15437
        }
      ]
    },
    "contracts/libraries/logic/ValidationLogic.sol": {
      "ValidationLogic": [
        {
          "length": 20,
          "start": 12139
        },
        {
          "length": 20,
          "start": 12834
        },
        {
          "length": 20,
          "start": 13549
        },
        {
          "length": 20,
          "start": 14622
        },
        {
          "length": 20,
          "start": 16649
        }
      ]
    },
    "contracts/libraries/math/WadRayMath.sol": {
      "WadRayMath": [
        {
          "length": 20,
          "start": 2443
        },
        {
          "length": 20,
          "start": 2578
        },
        {
          "length": 20,
          "start": 2713
        },
        {
          "length": 20,
          "start": 2848
        },
        {
          "length": 20,
          "start": 3568
        },
        {
          "length": 20,
          "start": 3703
        },
        {
          "length": 20,
          "start": 3837
        },
        {
          "length": 20,
          "start": 3972
        },
        {
          "length": 20,
          "start": 4643
        },
        {
          "length": 20,
          "start": 4778
        },
        {
          "length": 20,
          "start": 4913
        },
        {
          "length": 20,
          "start": 5049
        }
      ]
    }
  },
  "deployedLinkReferences": {}
}