{
  "_format": "hh-sol-artifact-1",
  "contractName": "AddressesProvider",
  "sourceName": "contracts/AddressesProvider.sol",
  "abi": [
    {
      "inputs": [],
      "stateMutability": "nonpayable",
      "type": "constructor"
    },
    {
      "inputs": [],
      "name": "DAI",
      "outputs": [
        {
          "internalType": "address",
          "name": "",
          "type": "address"
        }
      ],
      "stateMutability": "view",
      "type": "function"
    },
    {
      "inputs": [],
      "name": "DAI_TO_ETH",
      "outputs": [
        {
          "internalType": "address",
          "name": "",
          "type": "address"
        }
      ],
      "stateMutability": "view",
      "type": "function"
    },
    {
      "inputs": [],
      "name": "DAI_TO_USD",
      "outputs": [
        {
          "internalType": "address",
          "name": "",
          "type": "address"
        }
      ],
      "stateMutability": "view",
      "type": "function"
    },
    {
      "inputs": [],
      "name": "ETH_TO_USD",
      "outputs": [
        {
          "internalType": "address",
          "name": "",
          "type": "address"
        }
      ],
      "stateMutability": "view",
      "type": "function"
    },
    {
      "inputs": [],
      "name": "LINK",
      "outputs": [
        {
          "internalType": "address",
          "name": "",
          "type": "address"
        }
      ],
      "stateMutability": "view",
      "type": "function"
    },
    {
      "inputs": [],
      "name": "LINK_TO_ETH",
      "outputs": [
        {
          "internalType": "address",
          "name": "",
          "type": "address"
        }
      ],
      "stateMutability": "view",
      "type": "function"
    },
    {
      "inputs": [],
      "name": "LINK_TO_USD",
      "outputs": [
        {
          "internalType": "address",
          "name": "",
          "type": "address"
        }
      ],
      "stateMutability": "view",
      "type": "function"
    },
    {
      "inputs": [],
      "name": "WETH",
      "outputs": [
        {
          "internalType": "address",
          "name": "",
          "type": "address"
        }
      ],
      "stateMutability": "view",
      "type": "function"
    },
    {
      "inputs": [],
      "name": "getAssetsAndETHPriceSources",
      "outputs": [
        {
          "internalType": "address[]",
          "name": "",
          "type": "address[]"
        },
        {
          "internalType": "address[]",
          "name": "",
          "type": "address[]"
        }
      ],
      "stateMutability": "view",
      "type": "function"
    },
    {
      "inputs": [],
      "name": "getAssetsAndUSDPriceSources",
      "outputs": [
        {
          "internalType": "bytes32[]",
          "name": "",
          "type": "bytes32[]"
        },
        {
          "internalType": "address[]",
          "name": "",
          "type": "address[]"
        }
      ],
      "stateMutability": "view",
      "type": "function"
    },
    {
      "inputs": [],
      "name": "getLendingPool",
      "outputs": [
        {
          "internalType": "address",
          "name": "",
          "type": "address"
        }
      ],
      "stateMutability": "view",
      "type": "function"
    },
    {
      "inputs": [],
      "name": "getPriceOracle",
      "outputs": [
        {
          "internalType": "address",
          "name": "",
          "type": "address"
        }
      ],
      "stateMutability": "view",
      "type": "function"
    },
    {
      "inputs": [],
      "name": "getWETHGateway",
      "outputs": [
        {
          "internalType": "address",
          "name": "",
          "type": "address"
        }
      ],
      "stateMutability": "view",
      "type": "function"
    },
    {
      "inputs": [],
      "name": "isProduction",
      "outputs": [
        {
          "internalType": "bool",
          "name": "",
          "type": "bool"
        }
      ],
      "stateMutability": "view",
      "type": "function"
    },
    {
      "inputs": [],
      "name": "protocolDataProvider",
      "outputs": [
        {
          "internalType": "address",
          "name": "",
          "type": "address"
        }
      ],
      "stateMutability": "view",
      "type": "function"
    },
    {
      "inputs": [],
      "name": "walletBalanceProvider",
      "outputs": [
        {
          "internalType": "address",
          "name": "",
          "type": "address"
        }
      ],
      "stateMutability": "view",
      "type": "function"
    }
  ],
  "bytecode": "0x610120604052600080546001600160a01b031990811673c778417e063141139fce010982780140aa0cd5ab17909155600180548216735592ec0cfb4dbc12d3ab100b257153436a1f0fea1790556002805482167301be23585060835e02b77ef475b0cc51aa1e07091790556003805482167374825dbc8bf76cc4e9494d0ecb210f676efa001d17905560048054821673fabe80711f3ea886c3ac102c81ffc9825e16162e179055600580548216738a753747a1fa494ec906ce90e9f37563a8af630e179055600680548216732ba49aaa16e6afd2a993473cfb70fa8559b523cf1790556007805490911673d8bd0a1cb028a31aa859a21a3758685a95de46231790553480156200010e57600080fd5b50600030604051620001209062001688565b6001600160a01b039091168152602001604051809103906000f0801580156200014d573d6000803e3d6000fd5b506001600160601b0319606082901b166080529050604051620001709062001696565b604051809103906000f0801580156200018d573d6000803e3d6000fd5b50600080546001600160a01b0319166001600160a01b0392909216919091179055604051620001bc90620016a4565b6040808252600990820152682220a4902a37b5b2b760b91b60608201526080602082018190526003908201526244414960e81b60a082015260c001604051809103906000f08015801562000214573d6000803e3d6000fd5b50600180546001600160a01b0319166001600160a01b03929092169190911790556040516200024390620016a4565b6040808252600a90820152692624a725902a37b5b2b760b11b6060820152608060208201819052600490820152634c494e4b60e01b60a082015260c001604051809103906000f0801580156200029d573d6000803e3d6000fd5b50600280546001600160a01b0319166001600160a01b03929092169190911790556040516706f05b59d3b2000090620002d690620016b2565b908152602001604051809103906000f080158015620002f9573d6000803e3d6000fd5b50600380546001600160a01b0319166001600160a01b03929092169190911790556040516706f05b59d3b20000906200033290620016b2565b908152602001604051809103906000f08015801562000355573d6000803e3d6000fd5b50600480546001600160a01b0319166001600160a01b03929092169190911790556040516445d964b800906200038b90620016b2565b908152602001604051809103906000f080158015620003ae573d6000803e3d6000fd5b50600580546001600160a01b0319166001600160a01b03929092169190911790556040516305e69ec090620003e390620016b2565b908152602001604051809103906000f08015801562000406573d6000803e3d6000fd5b50600680546001600160a01b0319166001600160a01b03929092169190911790556040516377359400906200043b90620016b2565b908152602001604051809103906000f0801580156200045e573d6000803e3d6000fd5b50600780546001600160a01b0319166001600160a01b03928316179055600080546040519192169083906200049390620016c0565b6001600160a01b03928316815291166020820152604001604051809103906000f080158015620004c7573d6000803e3d6000fd5b50606081811b6001600160601b03191660a0526040805160028082529281019091529192506000919081602001602082028036833750506040805160028082526060820183529394506000939092509060208301908036833701905050905062000530620006c9565b6000805460405193955091935091849184916001600160a01b0390911690670de0b6b3a7640000906200056390620016ce565b62000572949392919062001780565b604051809103906000f0801580156200058f573d6000803e3d6000fd5b506001600160601b0319606082901b1660c0529050620005af8562000823565b620005ba8562000c89565b620005c585620010b8565b30604051620005d490620016dc565b6001600160a01b039091168152602001604051809103906000f08015801562000601573d6000803e3d6000fd5b506001600160601b031960609190911b1660e0526040805160038082526080820190925260009181602001602082028036833750506040805160038082526080820190925292935060009291506020820160608036833701905050905062000668620014ed565b6040519193509150829082906200067f90620016ea565b6200068c929190620017c6565b604051809103906000f080158015620006a9573d6000803e3d6000fd5b5060601b6001600160601b03191661010052506200182195505050505050565b60408051600280825260608281019093528291600091816020016020820280368337505060408051600280825260608201835293945060009390925090602083019080368337505060015484519293506001600160a01b0316918491506000906200074457634e487b7160e01b600052603260045260246000fd5b6001600160a01b0392831660209182029290920101526002548351911690839060019081106200078457634e487b7160e01b600052603260045260246000fd5b6001600160a01b03928316602091820292909201015260035482519116908290600090620007c257634e487b7160e01b600052603260045260246000fd5b6001600160a01b0392831660209182029290920101526004548251911690829060019081106200080257634e487b7160e01b600052603260045260246000fd5b6001600160a01b039092166020928302919091019091015290939092509050565b6000805460405183916001600160a01b0316906012906200084490620016f8565b6001600160a01b03938416815292909116602083015260ff16604082015260a060608201819052600b908201526a30aba2aa24102a37b5b2b760a91b60c082015260e060808201819052600590820152640c2ae8aa8960db1b61010082015261012001604051809103906000f080158015620008c4573d6000803e3d6000fd5b50905060008260008054906101000a90046001600160a01b03166012604051620008ee9062001706565b6001600160a01b03938416815292909116602083015260ff16604082015260a060608201819052600a90820152693222aa24102a37b5b2b760b11b60c082015260e060808201819052600490820152630c88aa8960e31b61010082015261012001604051809103906000f0801580156200096c573d6000803e3d6000fd5b5060405163820f0fb560e01b815260416004820152909150600090309073__$acfa992bb9b9449e585e2b7d311f34c7d0$__9063820f0fb59060240160206040518083038186803b158015620009c157600080fd5b505af4158015620009d6573d6000803e3d6000fd5b505050506040513d601f19601f82011682018060405250810190620009fc919062001722565b60405163820f0fb560e01b81526000600482015273__$acfa992bb9b9449e585e2b7d311f34c7d0$__9063820f0fb59060240160206040518083038186803b15801562000a4857600080fd5b505af415801562000a5d573d6000803e3d6000fd5b505050506040513d601f19601f8201168201806040525081019062000a83919062001722565b60405163820f0fb560e01b81526008600482015273__$acfa992bb9b9449e585e2b7d311f34c7d0$__9063820f0fb59060240160206040518083038186803b15801562000acf57600080fd5b505af415801562000ae4573d6000803e3d6000fd5b505050506040513d601f19601f8201168201806040525081019062000b0a919062001722565b60405163820f0fb560e01b81526064600482015273__$acfa992bb9b9449e585e2b7d311f34c7d0$__9063820f0fb59060240160206040518083038186803b15801562000b5657600080fd5b505af415801562000b6b573d6000803e3d6000fd5b505050506040513d601f19601f8201168201806040525081019062000b91919062001722565b60405162000b9f9062001714565b6001600160a01b039095168552602085019390935260408401919091526060830152608082015260a001604051809103906000f08015801562000be6573d6000803e3d6000fd5b5060005460405163260d456760e21b81526001600160a01b039182166004820152858216602482015284821660448201528183166064820152611d4c6084820152611f4060a4820152612af860c4820152601260e4820152919250851690639835159c90610104015b600060405180830381600087803b15801562000c6a57600080fd5b505af115801562000c7f573d6000803e3d6000fd5b5050505050505050565b60015460405160009183916001600160a01b039091169060129062000cae90620016f8565b6001600160a01b03938416815292909116602083015260ff16604082015260a060608201819052600a908201526930a220a4902a37b5b2b760b11b60c082015260e060808201819052600490820152636144414960e01b61010082015261012001604051809103906000f08015801562000d2c573d6000803e3d6000fd5b5060015460405191925060009184916001600160a01b03169060129062000d539062001706565b6001600160a01b03938416815292909116602083015260ff16604082015260a060608201819052600a9082015269322220a4902a37b5b2b760b11b60c082015260e060808201819052600490820152636444414960e01b61010082015261012001604051809103906000f08015801562000dd1573d6000803e3d6000fd5b5060405163820f0fb560e01b815260506004820152909150600090309073__$acfa992bb9b9449e585e2b7d311f34c7d0$__9063820f0fb59060240160206040518083038186803b15801562000e2657600080fd5b505af415801562000e3b573d6000803e3d6000fd5b505050506040513d601f19601f8201168201806040525081019062000e61919062001722565b60405163820f0fb560e01b81526000600482015273__$acfa992bb9b9449e585e2b7d311f34c7d0$__9063820f0fb59060240160206040518083038186803b15801562000ead57600080fd5b505af415801562000ec2573d6000803e3d6000fd5b505050506040513d601f19601f8201168201806040525081019062000ee8919062001722565b60405163820f0fb560e01b815260048082015273__$acfa992bb9b9449e585e2b7d311f34c7d0$__9063820f0fb59060240160206040518083038186803b15801562000f3357600080fd5b505af415801562000f48573d6000803e3d6000fd5b505050506040513d601f19601f8201168201806040525081019062000f6e919062001722565b60405163820f0fb560e01b8152604b600482015273__$acfa992bb9b9449e585e2b7d311f34c7d0$__9063820f0fb59060240160206040518083038186803b15801562000fba57600080fd5b505af415801562000fcf573d6000803e3d6000fd5b505050506040513d601f19601f8201168201806040525081019062000ff5919062001722565b604051620010039062001714565b6001600160a01b039095168552602085019390935260408401919091526060830152608082015260a001604051809103906000f0801580156200104a573d6000803e3d6000fd5b5060015460405163260d456760e21b81526001600160a01b039182166004820152858216602482015284821660448201528183166064820152611d4c6084820152611f4060a4820152612af860c4820152601260e4820152919250851690639835159c906101040162000c4f565b60025460405160009183916001600160a01b0390911690601290620010dd90620016f8565b6001600160a01b03938416815292909116602083015260ff16604082015260a060608201819052600b908201526a30a624a725902a37b5b2b760a91b60c082015260e06080820181905260059082015264614c494e4b60d81b61010082015261012001604051809103906000f0801580156200115d573d6000803e3d6000fd5b5060025460405191925060009184916001600160a01b031690601290620011849062001706565b6001600160a01b03938416815292909116602083015260ff16604082015260a060608201819052600b908201526a322624a725902a37b5b2b760a91b60c082015260e06080820181905260059082015264644c494e4b60d81b61010082015261012001604051809103906000f08015801562001204573d6000803e3d6000fd5b5060405163820f0fb560e01b8152602d6004820152909150600090309073__$acfa992bb9b9449e585e2b7d311f34c7d0$__9063820f0fb59060240160206040518083038186803b1580156200125957600080fd5b505af41580156200126e573d6000803e3d6000fd5b505050506040513d601f19601f8201168201806040525081019062001294919062001722565b60405163820f0fb560e01b81526000600482015273__$acfa992bb9b9449e585e2b7d311f34c7d0$__9063820f0fb59060240160206040518083038186803b158015620012e057600080fd5b505af4158015620012f5573d6000803e3d6000fd5b505050506040513d601f19601f820116820180604052508101906200131b919062001722565b60405163820f0fb560e01b81526007600482015273__$acfa992bb9b9449e585e2b7d311f34c7d0$__9063820f0fb59060240160206040518083038186803b1580156200136757600080fd5b505af41580156200137c573d6000803e3d6000fd5b505050506040513d601f19601f82011682018060405250810190620013a2919062001722565b60405163820f0fb560e01b815261012c600482015273__$acfa992bb9b9449e585e2b7d311f34c7d0$__9063820f0fb59060240160206040518083038186803b158015620013ef57600080fd5b505af415801562001404573d6000803e3d6000fd5b505050506040513d601f19601f820116820180604052508101906200142a919062001722565b604051620014389062001714565b6001600160a01b039095168552602085019390935260408401919091526060830152608082015260a001604051809103906000f0801580156200147f573d6000803e3d6000fd5b5060025460405163260d456760e21b81526001600160a01b039182166004820152858216602482015284821660448201528183166064820152611d4c6084820152611f4060a4820152612af860c4820152601260e4820152919250851690639835159c906101040162000c4f565b6040805160038082526080820190925260609182916000916020820184803683375050604080516003808252608082019092529293506000929150602082016060803683370190505090506244414960e81b826000815181106200156157634e487b7160e01b600052603260045260246000fd5b602002602001018181525050634c494e4b60e01b826001815181106200159757634e487b7160e01b600052603260045260246000fd5b6020026020010181815250506208aa8960eb1b82600281518110620015cc57634e487b7160e01b600052603260045260246000fd5b602090810291909101015260065481516001600160a01b039091169082906000906200160857634e487b7160e01b600052603260045260246000fd5b6001600160a01b0392831660209182029290920101526007548251911690829060019081106200164857634e487b7160e01b600052603260045260246000fd5b6001600160a01b0392831660209182029290920101526005548251911690829060029081106200080257634e487b7160e01b600052603260045260246000fd5b61405b8062001f1883390190565b6109698062005f7383390190565b610c5a80620068dc83390190565b610261806200753683390190565b61136b806200779783390190565b6108908062008b0283390190565b611c73806200939283390190565b610ebe806200b00583390190565b611c1b806200bec383390190565b6112bc806200dade83390190565b610aca806200ed9a83390190565b60006020828403121562001734578081fd5b5051919050565b6000815180845260208085019450808401835b83811015620017755781516001600160a01b0316875295820195908201906001016200174e565b509495945050505050565b6080815260006200179560808301876200173b565b8281036020840152620017a981876200173b565b6001600160a01b0395909516604084015250506060015292915050565b604080825283519082018190526000906020906060840190828701845b828110156200180157815184529284019290840190600101620017e3565b505050838103828501526200181781866200173b565b9695505050505050565b60805160601c60a05160601c60c05160601c60e05160601c6101005160601c6106a36200187560003960006101610152600061019b01526000610296015260006101fe0152600061010701526106a36000f3fe608060405234801561001057600080fd5b50600436106101005760003560e01c806377532ed9116100975780639ea47ca2116100665780639ea47ca21461025b578063ad5c46481461026e578063e0bab4c414610281578063fca513a81461029457600080fd5b806377532ed9146101fc57806377cc6afd146102225780637a541de1146102355780637f1b013c1461024857600080fd5b80633f843bce116100d35780633f843bce146101965780634aa72f0c146101bd5780636ce36ce7146101d357806370342a7a146101e957600080fd5b80630261bf8b146101055780630cb42c70146101445780630efd44521461015c5780631b6b6d2314610183575b600080fd5b7f00000000000000000000000000000000000000000000000000000000000000005b6040516001600160a01b0390911681526020015b60405180910390f35b61014c600081565b604051901515815260200161013b565b6101277f000000000000000000000000000000000000000000000000000000000000000081565b600254610127906001600160a01b031681565b6101277f000000000000000000000000000000000000000000000000000000000000000081565b6101c56102ba565b60405161013b9291906105e8565b6101db610410565b60405161013b929190610616565b600454610127906001600160a01b031681565b7f0000000000000000000000000000000000000000000000000000000000000000610127565b600654610127906001600160a01b031681565b600354610127906001600160a01b031681565b600754610127906001600160a01b031681565b600554610127906001600160a01b031681565b600054610127906001600160a01b031681565b600154610127906001600160a01b031681565b7f0000000000000000000000000000000000000000000000000000000000000000610127565b60408051600280825260608281019093528291600091816020016020820280368337505060408051600280825260608201835293945060009390925090602083019080368337505060015484519293506001600160a01b03169184915060009061033457634e487b7160e01b600052603260045260246000fd5b6001600160a01b03928316602091820292909201015260025483519116908390600190811061037357634e487b7160e01b600052603260045260246000fd5b6001600160a01b039283166020918202929092010152600354825191169082906000906103b057634e487b7160e01b600052603260045260246000fd5b6001600160a01b0392831660209182029290920101526004548251911690829060019081106103ef57634e487b7160e01b600052603260045260246000fd5b6001600160a01b039092166020928302919091019091015290939092509050565b6040805160038082526080820190925260609182916000916020820184803683375050604080516003808252608082019092529293506000929150602082016060803683370190505090506244414960e81b8260008151811061048357634e487b7160e01b600052603260045260246000fd5b602002602001018181525050634c494e4b60e01b826001815181106104b857634e487b7160e01b600052603260045260246000fd5b6020026020010181815250506208aa8960eb1b826002815181106104ec57634e487b7160e01b600052603260045260246000fd5b602090810291909101015260065481516001600160a01b0390911690829060009061052757634e487b7160e01b600052603260045260246000fd5b6001600160a01b03928316602091820292909201015260075482519116908290600190811061056657634e487b7160e01b600052603260045260246000fd5b6001600160a01b0392831660209182029290920101526005548251911690829060029081106103ef57634e487b7160e01b600052603260045260246000fd5b6000815180845260208085019450808401835b838110156105dd5781516001600160a01b0316875295820195908201906001016105b8565b509495945050505050565b6040815260006105fb60408301856105a5565b828103602084015261060d81856105a5565b95945050505050565b604080825283519082018190526000906020906060840190828701845b8281101561064f57815184529284019290840190600101610633565b5050508381038285015261066381866105a5565b969550505050505056fea2646970667358221220602cf7f1335bb22a4a14c24271d3dd1a06ac1c3ee9837ccf7f1f0e02a3de8cde64736f6c6343000804003360806040523480156200001157600080fd5b506040516200405b3803806200405b83398101604081905262000034916200005f565b600080546001600160a01b0319166001600160a01b039290921691909117905560806005556200008f565b60006020828403121562000071578081fd5b81516001600160a01b038116811462000088578182fd5b9392505050565b613fbc806200009f6000396000f3fe608060405234801561001057600080fd5b50600436106101205760003560e01c80639835159c116100ad578063d1946dbc11610071578063d1946dbc14610446578063d5ed39331461045b578063f45346dc1461046e578063f8119d5114610481578063fe65acfe1461048957600080fd5b80639835159c14610374578063b8d2927614610387578063bf92857c146103b1578063c44b11f7146103f1578063d15e00531461043357600080fd5b80634417a583116100f45780634417a583146102d75780635a3b74b9146103285780635ceae9c41461033b57806369328dec1461034e5780636c665a551461036157600080fd5b8062a718a9146101255780631d2118f91461013a57806335ea6a7514610179578063386497fd146102b6575b600080fd5b610138610133366004613984565b6104a4565b005b6101386101483660046138ba565b6001600160a01b03918216600090815260016020526040902060050180546001600160a01b03191691909216179055565b6102a0610187366004613882565b604080516101608101825260006101408201818152825260208201819052918101829052606081018290526080810182905260a0810182905260c0810182905260e081018290526101008101829052610120810191909152506001600160a01b03908116600090815260016020818152604092839020835161016081018552815461014082019081528152928101546001600160801b0380821693850193909352600160801b908190048316948401949094526002810154808316606085015293909304166080820152600382015464ffffffffff811660a0830152600160281b9004831660c08201526004820154831660e0820152600590910154918216610100820152600160a01b90910460ff1661012082015290565b6040516102ad9190613c7c565b60405180910390f35b6102c96102c4366004613882565b610ca3565b6040519081526020016102ad565b6103196102e5366004613882565b60408051602080820183526000918290526001600160a01b0393909316815260028352819020815192830190915254815290565b604051905181526020016102ad565b610138610336366004613a4f565b610cca565b6102c9610349366004613aa7565b610e98565b6102c961035c366004613aa7565b6111dc565b61013861036f366004613aa7565b6114ec565b6101386103823660046138f2565b611904565b610138610395366004613a7c565b6001600160a01b03909116600090815260016020526040902055565b6103c46103bf366004613882565b611a4b565b604080519687526020870195909552938501929092526060840152608083015260a082015260c0016102ad565b6103196103ff366004613882565b60408051602080820183526000918290526001600160a01b0393909316815260018352819020815192830190915254815290565b6102c9610441366004613882565b611b08565b61044e611b29565b6040516102ad9190613bfc565b6101386104693660046139eb565b611bfc565b61013861047c366004613aa7565b611e20565b6005546102c9565b6000546040516001600160a01b0390911681526020016102ad565b6001600160a01b0380861660009081526001602052604080822087841683529120600382015491929091600160281b900416158015906104f757506003810154600160281b90046001600160a01b031615155b60405180604001604052806002815260200161373960f01b815250906105395760405162461bcd60e51b81526004016105309190613c49565b60405180910390fd5b50600060026000876001600160a01b03166001600160a01b0316815260200190815260200160002090506105d26040518061018001604052806000815260200160008152602001600081526020016000815260200160008152602001600081526020016000815260200160008152602001600081526020016000815260200160006001600160a01b031681526020016000151581525090565b604080516020808201835284548252600480546000548551631f94a27560e31b8152955161066c968e966001969095600395946001600160a01b03169363fca513a893808301939290829003018186803b15801561062f57600080fd5b505afa158015610643573d6000803e3d6000fd5b505050506040513d601f19601f82011682018060405250810190610667919061389e565b61203b565b610100860152505050506004838101546040516370a0823160e01b81526001600160a01b038a8116938201939093529116906370a082319060240160206040518083038186803b1580156106bf57600080fd5b505afa1580156106d3573d6000803e3d6000fd5b505050506040513d601f19601f820116820180604052508101906106f79190613b04565b60208201819052610100820151610711918691859161250d565b6003840154600160281b90046001600160a01b0390811661014083018190526040516370a0823160e01b81529189166004830152906370a082319060240160206040518083038186803b15801561076757600080fd5b505afa15801561077b573d6000803e3d6000fd5b505050506040513d601f19601f8201168201806040525081019061079f9190613b04565b815260208101516107b2906113886125f6565b6040820181905286116107c557856107cb565b80604001515b6060820181905281516107e691869186918d918d919061269d565b60e0830181905260c08301919091526060820151111561080b5760e081015160608201525b846108d8576101408101516040516370a0823160e01b81526001600160a01b0391821660048201526000918b16906370a082319060240160206040518083038186803b15801561085a57600080fd5b505afa15801561086e573d6000803e3d6000fd5b505050506040513d601f19601f820116820180604052508101906108929190613b04565b90508160c0015181101560405180604001604052806002815260200161343560f01b815250906108d55760405162461bcd60e51b81526004016105309190613c49565b50505b6108e183612981565b60048381015460608301516001860154604051637a94c56560e11b81526001600160a01b039093169363f5298aca93610930938d939092600160801b9091046001600160801b03169101613b8c565b600060405180830381600087803b15801561094a57600080fd5b505af115801561095e573d6000803e3d6000fd5b505050506003830154606082015161098c9185918b91600160281b90046001600160a01b0316906000612a41565b8415610aee576101408101516040516370a0823160e01b81523360048201526001600160a01b03909116906370a082319060240160206040518083038186803b1580156109d857600080fd5b505afa1580156109ec573d6000803e3d6000fd5b505050506040513d601f19601f82011682018060405250810190610a109190613b04565b61012082015261014081015160c082015160405163f866c31960e01b81526001600160a01b038a81166004830152336024830152604482019290925291169063f866c31990606401600060405180830381600087803b158015610a7257600080fd5b505af1158015610a86573d6000803e3d6000fd5b5050505080610120015160001415610ae9573360009081526002602052604090206005850154610ac3908290600160a01b900460ff166001612ccb565b60405133906001600160a01b038c1690600080516020613f6783398151915290600090a3505b610b90565b610af784612981565b61014081015160c0820151610b139186918c9190600090612a41565b61014081015160c08201516001860154604051636b81068560e11b81526001600160a01b039093169263d7020d0a92610b5d928c923392916001600160801b031690600401613b5b565b600060405180830381600087803b158015610b7757600080fd5b505af1158015610b8b573d6000803e3d6000fd5b505050505b805160c08201511415610be8576005840154610bb9908390600160a01b900460ff166000612ccb565b866001600160a01b0316896001600160a01b0316600080516020613f4783398151915260405160405180910390a35b60038301546060820151610c14916001600160a01b038b8116923392600160281b900490911690612d57565b866001600160a01b0316886001600160a01b03168a6001600160a01b03167fe413a321e8681d831f4dbccbca790d2952b56f977908e45be37335533e00528684606001518560c00151338b604051610c90949392919093845260208401929092526001600160a01b031660408301521515606082015260800190565b60405180910390a4505050505050505050565b6001600160a01b0381166000908152600160205260408120610cc490612db7565b92915050565b6001600160a01b038083166000908152600160208181526040808420338552600283528185206004805496548451631f94a27560e31b81529451939873__$5201a97c05ba6aa659e2f36a933dd51801$__98635fa297e5988b988e988e989297966003969495949094169363fca513a8938282019392909190829003018186803b158015610d5757600080fd5b505afa158015610d6b573d6000803e3d6000fd5b505050506040513d601f19601f82011682018060405250810190610d8f919061389e565b6040516001600160e01b031960e08b901b16815260048101989098526001600160a01b03968716602489015294151560448801526064870193909352608486019190915260a485015260c48401521660e48201526101040160006040518083038186803b158015610dff57600080fd5b505af4158015610e13573d6000803e3d6000fd5b505050506005810154336000908152600260205260409020610e3f91600160a01b900460ff1684612ccb565b8115610e6e5760405133906001600160a01b03851690600080516020613f6783398151915290600090a3505050565b60405133906001600160a01b03851690600080516020613f4783398151915290600090a35b505050565b6001600160a01b0383811660009081526001602090815260408083206003015481518083019092526002825261373960f01b928201929092529192600160281b90910416610ef95760405162461bcd60e51b81526004016105309190613c49565b506001600160a01b0384811660009081526001602052604080822060048082015492516370a0823160e01b815287861691810191909152909391909116906370a082319060240160206040518083038186803b158015610f5857600080fd5b505afa158015610f6c573d6000803e3d6000fd5b505050506040513d601f19601f82011682018060405250810190610f909190613b04565b604051632835d86f60e21b8152600481018790526001600160a01b03861660248201526044810182905290915073__$5201a97c05ba6aa659e2f36a933dd51801$__9063a0d761bc9060640160006040518083038186803b158015610ff457600080fd5b505af4158015611008573d6000803e3d6000fd5b508392505050808610156110195750845b61102283612981565b6004838101546001850154604051637a94c56560e11b81526001600160a01b039092169263f5298aca9261106c928a928792600160801b9092046001600160801b03169101613b8c565b600060405180830381600087803b15801561108657600080fd5b505af115801561109a573d6000803e3d6000fd5b505050506003830154600160281b90046001600160a01b03166110c1848983856000612a41565b6110cb8383612e24565b6111035760058401546001600160a01b0387166000908152600260205260408120611103929091600160a01b90910460ff1690612e30565b6111186001600160a01b038916338385612d57565b6040516388dd91a160e01b8152336004820152602481018390526001600160a01b038216906388dd91a190604401600060405180830381600087803b15801561116057600080fd5b505af1158015611174573d6000803e3d6000fd5b50505050336001600160a01b0316866001600160a01b0316896001600160a01b03167f4cdde6e09bb755c9a5589ebaec640bbfedff1362d4b255ebf8339782b9942faa856040516111c791815260200190565b60405180910390a450925050505b9392505050565b6001600160a01b03838116600090815260016020526040808220600381015491516370a0823160e01b815233600482015292939092600160281b9092041690839082906370a082319060240160206040518083038186803b15801561124057600080fd5b505afa158015611254573d6000803e3d6000fd5b505050506040513d601f19601f820116820180604052508101906112789190613b04565b9050856000198114156112885750805b73__$5201a97c05ba6aa659e2f36a933dd51801$__63d09db04a898385600160026000336001600160a01b03166001600160a01b03168152602001908152602001600020600360045460008054906101000a90046001600160a01b03166001600160a01b031663fca513a86040518163ffffffff1660e01b815260040160206040518083038186803b15801561131d57600080fd5b505afa158015611331573d6000803e3d6000fd5b505050506040513d601f19601f82011682018060405250810190611355919061389e565b6040518963ffffffff1660e01b8152600401611378989796959493929190613bb6565b60006040518083038186803b15801561139057600080fd5b505af41580156113a4573d6000803e3d6000fd5b505050506113b184612981565b6113bf848985600085612a41565b818114156114175760058401543360009081526002602052604081206113f2929091600160a01b90910460ff1690612ccb565b60405133906001600160a01b038a1690600080516020613f4783398151915290600090a35b6001840154604051636b81068560e11b81526001600160a01b0385169163d7020d0a916114589133918b9187916001600160801b0390911690600401613b5b565b600060405180830381600087803b15801561147257600080fd5b505af1158015611486573d6000803e3d6000fd5b50505050856001600160a01b0316336001600160a01b0316896001600160a01b03167f3115d1449a7b732c986cba18244e897a450f61e1bb8d589cd2e69e6c8924f9f7846040516114d991815260200190565b60405180910390a4979650505050505050565b6001600160a01b038381166000908152600160209081526040918290206003015482518084019093526002835261373960f01b918301919091529091600160281b9091041661154e5760405162461bcd60e51b81526004016105309190613c49565b506001600160a01b038084166000908152600160209081526040808320858516845260028352818420600382015485548451631f94a27560e31b8152945193979296600160281b90920483169533959294919093169263fca513a89260048082019391829003018186803b1580156115c557600080fd5b505afa1580156115d9573d6000803e3d6000fd5b505050506040513d601f19601f820116820180604052508101906115fd919061389e565b85549091506000906116a59060301c60ff1661161a90600a613de5565b60405163b3596f0760e01b81526001600160a01b038c8116600483015261169f918c9187169063b3596f079060240160206040518083038186803b15801561166157600080fd5b505afa158015611675573d6000803e3d6000fd5b505050506040513d601f19601f820116820180604052508101906116999190613b04565b90612e95565b90612ea1565b60048054604051631c7d75d760e31b815292935073__$5201a97c05ba6aa659e2f36a933dd51801$__9263e3ebaeb8926116f0928c928e9288926001928e92600392918d9101613bb6565b60006040518083038186803b15801561170857600080fd5b505af415801561171c573d6000803e3d6000fd5b5050505061172986612981565b60008660040160009054906101000a90046001600160a01b03166001600160a01b031663b3f1c93d858a8c8b60010160109054906101000a90046001600160801b03166040518563ffffffff1660e01b815260040161178b9493929190613b5b565b602060405180830381600087803b1580156117a557600080fd5b505af11580156117b9573d6000803e3d6000fd5b505050506040513d601f19601f820116820180604052508101906117dd9190613ae8565b90508015611801576005870154611801908790600160a01b900460ff166001612e30565b61180f878b8760008d612a41565b604051634efecaa560e01b81526001600160a01b038581166004830152602482018b9052861690634efecaa590604401602060405180830381600087803b15801561185957600080fd5b505af115801561186d573d6000803e3d6000fd5b505050506040513d601f19601f820116820180604052508101906118919190613b04565b50876001600160a01b03168a6001600160a01b03167f96558a334f4759f0e7c423d68c84721860bd8fbf94ddc4e55158ecb125ad04b5868c8b60020160109054906101000a90046001600160801b03166040516118f093929190613b8c565b60405180910390a350505050505050505050565b60408051808201909152600281526106e760f31b6020820152883b61193c5760405162461bcd60e51b81526004016105309190613c49565b50600054604080518082019091526002815261373560f01b6020820152906001600160a01b031633146119825760405162461bcd60e51b81526004016105309190613c49565b506001600160a01b0388811660009081526001602052604090819020905163f2a3bb1d60e01b815260048101919091528882166024820152878216604482015290861660648201526084810185905260a4810184905260c4810183905260ff821660e482015273__$d3b4366daeb9cadc7528af6145b50b2183$__9063f2a3bb1d906101040160006040518083038186803b158015611a2057600080fd5b505af4158015611a34573d6000803e3d6000fd5b50505050611a4188612ead565b5050505050505050565b600080600080600080611ae5876001600260008b6001600160a01b03166001600160a01b03168152602001908152602001600020604051806020016040529081600082015481525050600360045460008054906101000a90046001600160a01b03166001600160a01b031663fca513a86040518163ffffffff1660e01b815260040160206040518083038186803b15801561062f57600080fd5b93995091975090945092509050611afd868684612fc0565b935091939550919395565b6001600160a01b0381166000908152600160205260408120610cc490612ff4565b6060600060045467ffffffffffffffff811115611b5657634e487b7160e01b600052604160045260246000fd5b604051908082528060200260200182016040528015611b7f578160200160208202803683370190505b50905060005b600454811015611bf65760008181526003602052604090205482516001600160a01b0390911690839083908110611bcc57634e487b7160e01b600052603260045260246000fd5b6001600160a01b039092166020928302919091019091015280611bee81613eef565b915050611b85565b50919050565b6001600160a01b038087166000908152600160209081526040918290206003015482518084019093526002835261363360f01b91830191909152909133600160281b9092041614611c605760405162461bcd60e51b81526004016105309190613c49565b50611d1a85600160026000896001600160a01b03166001600160a01b03168152602001908152602001600020600360045460008054906101000a90046001600160a01b03166001600160a01b031663fca513a86040518163ffffffff1660e01b815260040160206040518083038186803b158015611cdd57600080fd5b505afa158015611cf1573d6000803e3d6000fd5b505050506040513d601f19601f82011682018060405250810190611d15919061389e565b613049565b6001600160a01b03868116600090815260016020526040902060050154600160a01b900460ff169085811690871614611e1757611d578385612e24565b611db1576001600160a01b038616600090815260026020526040812090611d819082908490612ccb565b866001600160a01b0316886001600160a01b0316600080516020613f4783398151915260405160405180910390a3505b81158015611dbe57508315155b15611e17576001600160a01b0385166000908152600260205260409020611de781836001612ccb565b856001600160a01b0316886001600160a01b0316600080516020613f6783398151915260405160405180910390a3505b50505050505050565b6001600160a01b0383166000818152600160208190526040918290209151631afdf41360e11b815260048101939093526024830185905260448301529073__$5201a97c05ba6aa659e2f36a933dd51801$__906335fbe8269060640160006040518083038186803b158015611e9457600080fd5b505af4158015611ea8573d6000803e3d6000fd5b505050506003810154600160281b90046001600160a01b0316611eca82612981565b611ed8828683876000612a41565b611eed6001600160a01b038616338387612d57565b6001820154604051630ab714fb60e11b81526000916001600160a01b0384169163156e29f691611f2f9188918a916001600160801b0390911690600401613b8c565b602060405180830381600087803b158015611f4957600080fd5b505af1158015611f5d573d6000803e3d6000fd5b505050506040513d601f19601f82011682018060405250810190611f819190613ae8565b90508015611fea5760058301546001600160a01b0385166000908152600260205260409020611fbb91600160a01b900460ff166001612ccb565b836001600160a01b0316866001600160a01b0316600080516020613f6783398151915260405160405180910390a35b60408051338152602081018790526001600160a01b0380871692908916917f7cfff908a4b583f36430b25d75964c458d8ede8a99bd61be750e97ee1b2f3a96910160405180910390a3505050505050565b60008060008060006120e0604051806102400160405280600081526020016000815260200160008152602001600081526020016000815260200160008152602001600081526020016000815260200160008152602001600081526020016000815260200160008152602001600081526020016000815260200160001515815260200160006001600160a01b031681526020016000151581526020016000151581525090565b89516120ff5760008060008060001995509550955095509550506124ff565b600060e08201525b878160e00151101561245e5760e0810151612123908b906130b5565b61212c57612446565b60e0810151600090815260208a81526040808320546001600160a01b03166101e085018190528352908d90529020612180815461ffff80821692601083901c821692602081901c9092169160301c60ff1690565b6080860181905260c08601929092525060a08401919091526121a390600a613de5565b60208301526101e082015160405163b3596f0760e01b81526001600160a01b0391821660048201529089169063b3596f079060240160206040518083038186803b1580156121f057600080fd5b505afa158015612204573d6000803e3d6000fd5b505050506040513d601f19601f820116820180604052508101906122289190613b04565b825260c082015115801590612248575060e0820151612248908c90613110565b1561235a5760038101546040516370a0823160e01b81526001600160a01b038f81166004830152600160281b909204909116906370a082319060240160206040518083038186803b15801561229c57600080fd5b505afa1580156122b0573d6000803e3d6000fd5b505050506040513d601f19601f820116820180604052508101906122d49190613b04565b60408301819052602083015183516000926122f3929161169f91612e95565b6101208401519091506123069082613176565b61012084015260a083015161232c90612320908390612e95565b61016085015190613176565b61016084015260c083015161235290612346908390612e95565b61018085015190613176565b610180840152505b60e082015161236a908c90613182565b15612444578060040160009054906101000a90046001600160a01b03166001600160a01b03166370a082318e6040518263ffffffff1660e01b81526004016123c191906001600160a01b0391909116815260200190565b60206040518083038186803b1580156123d957600080fd5b505afa1580156123ed573d6000803e3d6000fd5b505050506040513d601f19601f820116820180604052508101906124119190613b04565b606083018190526020830151835161243d92612431929161169f91612e95565b61014084015190613176565b6101408301525b505b60e0810180519061245682613eef565b905250612107565b600081610120015111612472576000612487565b61012081015161016082015161248791612ea1565b61016082015261012081015161249e5760006124b3565b6101208101516101808201516124b391612ea1565b61018082018190526101208201516101408301516124d0926131cd565b610100820181905261012082015161014083015161016084015161018090940151919850965091945090925090505b965096509650965096915050565b6040805180820190915260028152611a1960f11b6020820152670de0b6b3a7640000831061254e5760405162461bcd60e51b81526004016105309190613c49565b50600584015460408051602081019091528454815260009161257a9190600160a01b900460ff16613110565b90508060405180604001604052806002815260200161343360f01b815250906125b65760405162461bcd60e51b81526004016105309190613c49565b506040805180820190915260028152610d0d60f21b6020820152826125ee5760405162461bcd60e51b81526004016105309190613c49565b505050505050565b6000821580612603575081155b1561261057506000610cc4565b8161261e6002612710613d82565b61262a90600019613eac565b6126349190613d82565b83111560405180604001604052806002815260200161068760f31b815250906126705760405162461bcd60e51b81526004016105309190613c49565b5061271061267f600282613d82565b6126898486613e8d565b6126939190613d6a565b6111d59190613d82565b60008060008060008060009054906101000a90046001600160a01b03166001600160a01b031663fca513a86040518163ffffffff1660e01b815260040160206040518083038186803b1580156126f257600080fd5b505afa158015612706573d6000803e3d6000fd5b505050506040513d601f19601f8201168201806040525081019061272a919061389e565b905061276c6040518060e00160405280600081526020016000815260200160008152602001600081526020016000815260200160008152602001600081525090565b60405163b3596f0760e01b81526001600160a01b038b8116600483015283169063b3596f079060240160206040518083038186803b1580156127ad57600080fd5b505afa1580156127c1573d6000803e3d6000fd5b505050506040513d601f19601f820116820180604052508101906127e59190613b04565b6040828101919091525163b3596f0760e01b81526001600160a01b038a8116600483015283169063b3596f079060240160206040518083038186803b15801561282d57600080fd5b505afa158015612841573d6000803e3d6000fd5b505050506040513d601f19601f820116820180604052508101906128659190613b04565b60608201526128908c5461ffff80821692601083901c821692602081901c9092169160301c60ff1690565b60c0850152602084015250508a5460301c60ff1660a082018190526128fa906128c9906128be90600a613de5565b604084015190612e95565b61169f83602001516128f48560c00151600a6128e59190613de5565b6060870151611699908f612e95565b906125f6565b608082018190528710156129655786935061295e81602001516129586129358460c00151600a61292a9190613de5565b606086015190612e95565b61169f8560a00151600a6129499190613de5565b6040870151611699908b612e95565b906131f1565b9250612970565b806080015193508792505b50919a909950975050505050505050565b60008160040160009054906101000a90046001600160a01b03166001600160a01b031663b1bf962d6040518163ffffffff1660e01b815260040160206040518083038186803b1580156129d357600080fd5b505afa1580156129e7573d6000803e3d6000fd5b505050506040513d601f19601f82011682018060405250810190612a0b9190613b04565b600183015460038401549192506001600160801b03600160801b820481169291169064ffffffffff16611e1785858486856132b3565b612a6c6040518060800160405280600081526020016000815260200160008152602001600081525090565b60018601546004808801546040805163b1bf962d60e01b81529051612b0994600160801b90046001600160801b0316936001600160a01b039093169263b1bf962d92808201926020929091829003018186803b158015612acb57600080fd5b505afa158015612adf573d6000803e3d6000fd5b505050506040513d601f19601f82011682018060405250810190612b039190613b04565b90613410565b6060820181905260058701546040516272fa8b60e91b81526001600160a01b03888116600483015287811660248301526044820187905260648201869052608482019390935291169063e5f516009060a401604080518083038186803b158015612b7257600080fd5b505afa158015612b86573d6000803e3d6000fd5b505050506040513d601f19601f82011682018060405250810190612baa9190613b1c565b604080840191909152602080840183905281518083019092526002825261353360f01b90820152906001600160801b031015612bf95760405162461bcd60e51b81526004016105309190613c49565b50604080820151815180830190925260028252610d4d60f21b60208301526001600160801b031015612c3e5760405162461bcd60e51b81526004016105309190613c49565b506020818101516040808401516001600160801b03808416600160801b82841681029190911760028d015560018c0154845195865295850192909252848116848401529304909216606082015290516001600160a01b038716917f4063a2df84b66bb796eb32622851d833e57b2c4292900c18f963af8808b13e35919081900360800190a2505050505050565b604080518082019091526002815261373760f01b602082015260808310612d055760405162461bcd60e51b81526004016105309190613c49565b50612d11826002613e8d565b612d1c906001613d6a565b81612d28576000612d2b565b60015b60ff16901b612d3b836002613e8d565b612d46906001613d6a565b8454600190911b1916179092555050565b604080516001600160a01b0385811660248301528416604482015260648082018490528251808303909101815260849091019091526020810180516001600160e01b03166323b872dd60e01b179052612db19085906134ad565b50505050565b600381015460009064ffffffffff908116904216811415612deb57505060010154600160801b90046001600160801b031690565b60018301546002840154600091612e1c916001600160801b03600160801b92839004811692612b039204168561357f565b949350505050565b60006111d58284613eac565b604080518082019091526002815261373760f01b602082015260808310612e6a5760405162461bcd60e51b81526004016105309190613c49565b50612e76826002613e8d565b81612e82576000612e85565b60015b60ff16901b612d46836002613e8d565b60006111d58284613e8d565b60006111d58284613d82565b600454600554604080518082019091526002815261363560f01b6020820152908210612eec5760405162461bcd60e51b81526004016105309190613c49565b506001600160a01b038216600090815260016020526040812060050154600160a01b900460ff16151580612f5557506000805260036020527f3617319a054d772f909f7c479a2cebe5066e836a939412e32403c99029b92eff546001600160a01b038481169116145b905080610e93576001600160a01b0383166000818152600160208181526040808420600501805460ff60a01b1916600160a01b60ff8a1602179055868452600390915290912080546001600160a01b031916909217909155612fb8908390613d6a565b600455505050565b600080612fcd85846125f6565b905083811015612fe15760009150506111d5565b612feb8185612e24565b95945050505050565b600381015460009064ffffffffff908116904216811415613021575050600101546001600160801b031690565b60018301546002840154600091612e1c916001600160801b0391821691612b0391168561367e565b60408051602081019091528454815260009061306b908890889087878761203b565b945050505050670de0b6b3a7640000811015604051806040016040528060018152602001601b60f91b81525090611a415760405162461bcd60e51b81526004016105309190613c49565b60006080821060405180604001604052806002815260200161373760f01b815250906130f45760405162461bcd60e51b81526004016105309190613c49565b50613100826002613e8d565b925190921c600316151592915050565b60006080821060405180604001604052806002815260200161373760f01b8152509061314f5760405162461bcd60e51b81526004016105309190613c49565b5061315b826002613e8d565b613166906001613d6a565b925190921c600116151592915050565b60006111d58284613d6a565b60006080821060405180604001604052806002815260200161373760f01b815250906131c15760405162461bcd60e51b81526004016105309190613c49565b50613166826002613e8d565b6000826131dd57506000196111d5565b612e1c836131eb86856125f6565b906136bd565b604080518082019091526002815261035360f41b60208201526000908261322b5760405162461bcd60e51b81526004016105309190613c49565b506000613239600284613d82565b905061271061324a82600019613eac565b6132549190613d82565b84111560405180604001604052806002815260200161068760f31b815250906132905760405162461bcd60e51b81526004016105309190613c49565b50828161329f61271087613e8d565b6132a99190613d6a565b612e1c9190613d82565b600285015460009081906001600160801b0316858582156133ea5760006132da848861367e565b90506132e6818a613410565b604080518082019091526002815261353160f01b60208201529093506001600160801b0384111561332a5760405162461bcd60e51b81526004016105309190613c49565b5060018b0180546fffffffffffffffffffffffffffffffff19166001600160801b03851617905589156133e85760028b015460009061337990600160801b90046001600160801b03168961357f565b9050613385818a613410565b6040805180820190915260028152611a9960f11b60208201529093506001600160801b038411156133c95760405162461bcd60e51b81526004016105309190613c49565b505060018b0180546001600160801b03808516600160801b0291161790555b505b600399909901805464ffffffffff19164264ffffffffff16179055989650505050505050565b600082158061341d575081155b1561342a57506000610cc4565b8161344260026b033b2e3c9fd0803ce8000000613d82565b61344e90600019613eac565b6134589190613d82565b83111560405180604001604052806002815260200161068760f31b815250906134945760405162461bcd60e51b81526004016105309190613c49565b506b033b2e3c9fd0803ce800000061267f600282613d82565b6000613502826040518060400160405280602081526020017f5361666545524332303a206c6f772d6c6576656c2063616c6c206661696c6564815250856001600160a01b03166137779092919063ffffffff16565b805190915015610e9357808060200190518101906135209190613ae8565b610e935760405162461bcd60e51b815260206004820152602a60248201527f5361666545524332303a204552433230206f7065726174696f6e20646964206e6044820152691bdd081cdd58d8d9595960b21b6064820152608401610530565b6000806135934264ffffffffff8516612e24565b9050806135af576b033b2e3c9fd0803ce8000000915050610cc4565b60006135bc600183613eac565b90506000600283116135cf5760006135da565b6135da600284613eac565b905060006135ec6301e1338088613d82565b905060006135fa8280613410565b905060006136088284613410565b90506000600261361c846116998a8a612e95565b6136269190613d82565b90506000600661363c8461169989818d8d612e95565b6136469190613d82565b905061366f81613669848161365b8a8e612e95565b6b033b2e3c9fd0803ce80000005b90613176565b9b9a5050505050505050505050565b6000806136924264ffffffffff8516612e24565b9050612e1c6b033b2e3c9fd0803ce80000006301e133806136b38785612e95565b6136699190613d82565b604080518082019091526002815261035360f41b6020820152600090826136f75760405162461bcd60e51b81526004016105309190613c49565b506000613705600284613d82565b9050670de0b6b3a764000061371c82600019613eac565b6137269190613d82565b84111560405180604001604052806002815260200161068760f31b815250906137625760405162461bcd60e51b81526004016105309190613c49565b50828161329f670de0b6b3a764000087613e8d565b6060612e1c848460008585843b6137d05760405162461bcd60e51b815260206004820152601d60248201527f416464726573733a2063616c6c20746f206e6f6e2d636f6e74726163740000006044820152606401610530565b600080866001600160a01b031685876040516137ec9190613b3f565b60006040518083038185875af1925050503d8060008114613829576040519150601f19603f3d011682016040523d82523d6000602084013e61382e565b606091505b509150915061383e828286613849565b979650505050505050565b606083156138585750816111d5565b8251156138685782518084602001fd5b8160405162461bcd60e51b81526004016105309190613c49565b600060208284031215613893578081fd5b81356111d581613f20565b6000602082840312156138af578081fd5b81516111d581613f20565b600080604083850312156138cc578081fd5b82356138d781613f20565b915060208301356138e781613f20565b809150509250929050565b600080600080600080600080610100898b03121561390e578384fd5b883561391981613f20565b9750602089013561392981613f20565b9650604089013561393981613f20565b9550606089013561394981613f20565b94506080890135935060a0890135925060c0890135915060e089013560ff81168114613973578182fd5b809150509295985092959890939650565b600080600080600060a0868803121561399b578081fd5b85356139a681613f20565b945060208601356139b681613f20565b935060408601356139c681613f20565b92506060860135915060808601356139dd81613f38565b809150509295509295909350565b60008060008060008060c08789031215613a03578182fd5b8635613a0e81613f20565b95506020870135613a1e81613f20565b94506040870135613a2e81613f20565b959894975094956060810135955060808101359460a0909101359350915050565b60008060408385031215613a61578182fd5b8235613a6c81613f20565b915060208301356138e781613f38565b60008060408385031215613a8e578182fd5b8235613a9981613f20565b946020939093013593505050565b600080600060608486031215613abb578283fd5b8335613ac681613f20565b9250602084013591506040840135613add81613f20565b809150509250925092565b600060208284031215613af9578081fd5b81516111d581613f38565b600060208284031215613b15578081fd5b5051919050565b60008060408385031215613b2e578182fd5b505080516020909101519092909150565b60008251613b51818460208701613ec3565b9190910192915050565b6001600160a01b03948516815292909316602083015260408201526001600160801b03909116606082015260800190565b6001600160a01b0393909316835260208301919091526001600160801b0316604082015260600190565b6001600160a01b039889168152602081019790975260408701959095526060860193909352608085019190915260a084015260c083015290911660e08201526101000190565b6020808252825182820181905260009190848201906040850190845b81811015613c3d5783516001600160a01b031683529284019291840191600101613c18565b50909695505050505050565b6020815260008251806020840152613c68816040850160208701613ec3565b601f01601f19169190910160400192915050565b815151815261014081016020830151613ca060208401826001600160801b03169052565b506040830151613cbb60408401826001600160801b03169052565b506060830151613cd660608401826001600160801b03169052565b506080830151613cf160808401826001600160801b03169052565b5060a0830151613d0a60a084018264ffffffffff169052565b5060c0830151613d2560c08401826001600160a01b03169052565b5060e0830151613d4060e08401826001600160a01b03169052565b50610100838101516001600160a01b0316908301526101209283015160ff16929091019190915290565b60008219821115613d7d57613d7d613f0a565b500190565b600082613d9d57634e487b7160e01b81526012600452602481fd5b500490565b600181815b80851115613ddd578160001904821115613dc357613dc3613f0a565b80851615613dd057918102915b93841c9390800290613da7565b509250929050565b60006111d58383600082613dfb57506001610cc4565b81613e0857506000610cc4565b8160018114613e1e5760028114613e2857613e44565b6001915050610cc4565b60ff841115613e3957613e39613f0a565b50506001821b610cc4565b5060208310610133831016604e8410600b8410161715613e67575081810a610cc4565b613e718383613da2565b8060001904821115613e8557613e85613f0a565b029392505050565b6000816000190483118215151615613ea757613ea7613f0a565b500290565b600082821015613ebe57613ebe613f0a565b500390565b60005b83811015613ede578181015183820152602001613ec6565b83811115612db15750506000910152565b6000600019821415613f0357613f03613f0a565b5060010190565b634e487b7160e01b600052601160045260246000fd5b6001600160a01b0381168114613f3557600080fd5b50565b8015158114613f3557600080fdfe44c58d81365b66dd4b1a7f36c25aa97b8c71c361ee4937adc1a00000227db5dd00058a56ea94653cdf4f152d227ace22d4c00ad99e2a43f58cb7d9e3feb295f2a2646970667358221220adf5b71eff8f2bb0fd04cb500be6c2707332119ee830ca3887370c081099fab264736f6c6343000804003360c0604052600d60808190526c2bb930b83832b21022ba3432b960991b60a090815261002e916000919061007a565b50604080518082019091526004808252630ae8aa8960e31b602090920191825261005a9160019161007a565b506002805460ff1916601217905534801561007457600080fd5b5061014e565b82805461008690610113565b90600052602060002090601f0160209004810192826100a857600085556100ee565b82601f106100c157805160ff19168380011785556100ee565b828001600101855582156100ee579182015b828111156100ee5782518255916020019190600101906100d3565b506100fa9291506100fe565b5090565b5b808211156100fa57600081556001016100ff565b600181811c9082168061012757607f821691505b6020821081141561014857634e487b7160e01b600052602260045260246000fd5b50919050565b61080c8061015d6000396000f3fe60806040526004361061009c5760003560e01c8063313ce56711610064578063313ce5671461015b57806370a082311461018757806395d89b41146101b4578063a9059cbb146101c9578063d0e30db0146101e9578063dd62ed3e146101f157600080fd5b806306fdde03146100a1578063095ea7b3146100cc57806318160ddd146100fc57806323b872dd146101195780632e1a7d4d14610139575b600080fd5b3480156100ad57600080fd5b506100b6610229565b6040516100c39190610703565b60405180910390f35b3480156100d857600080fd5b506100ec6100e73660046106c2565b6102b7565b60405190151581526020016100c3565b34801561010857600080fd5b50475b6040519081526020016100c3565b34801561012557600080fd5b506100ec610134366004610687565b610323565b34801561014557600080fd5b506101596101543660046106eb565b6104a7565b005b34801561016757600080fd5b506002546101759060ff1681565b60405160ff90911681526020016100c3565b34801561019357600080fd5b5061010b6101a236600461063b565b60036020526000908152604090205481565b3480156101c057600080fd5b506100b66105a3565b3480156101d557600080fd5b506100ec6101e43660046106c2565b6105b0565b6101596105c4565b3480156101fd57600080fd5b5061010b61020c366004610655565b600460209081526000928352604080842090915290825290205481565b6000805461023690610785565b80601f016020809104026020016040519081016040528092919081815260200182805461026290610785565b80156102af5780601f10610284576101008083540402835291602001916102af565b820191906000526020600020905b81548152906001019060200180831161029257829003601f168201915b505050505081565b3360008181526004602090815260408083206001600160a01b038716808552925280832085905551919290917f8c5be1e5ebec7d5bd14f71427d1e84f3dd0314c0f7b2291e5b200ac8c7c3b925906103129086815260200190565b60405180910390a350600192915050565b6001600160a01b03831660009081526003602052604081205482111561034857600080fd5b6001600160a01b038416331480159061038657506001600160a01b038416600090815260046020908152604080832033845290915290205460001914155b156103f4576001600160a01b03841660009081526004602090815260408083203384529091529020548211156103bb57600080fd5b6001600160a01b0384166000908152600460209081526040808320338452909152812080548492906103ee90849061076e565b90915550505b6001600160a01b0384166000908152600360205260408120805484929061041c90849061076e565b90915550506001600160a01b03831660009081526003602052604081208054849290610449908490610756565b92505081905550826001600160a01b0316846001600160a01b03167fddf252ad1be2c89b69c2b068fc378daa952ba7f163c4a11628f55a4df523b3ef8460405161049591815260200190565b60405180910390a35060019392505050565b336000908152600360205260409020548111156105195760405162461bcd60e51b815260206004820152602660248201527f45524332303a207472616e7366657220616d6f756e7420657863656564732062604482015265616c616e636560d01b606482015260840160405180910390fd5b336000908152600360205260408120805483929061053890849061076e565b9091555050604051339082156108fc029083906000818181858888f1935050505015801561056a573d6000803e3d6000fd5b5060405181815233907f7fcf532c15f0a6db0bd6d0e038bea71d30d808c7d98cb3bf7268a95bf5081b659060200160405180910390a250565b6001805461023690610785565b60006105bd338484610323565b9392505050565b33600090815260036020526040812080543492906105e3908490610756565b909155505060405134815233907fe1fffcc4923d04b559f4d29a8bfc6cda04eb5b0d3c460751c2402c5c5cc9109c9060200160405180910390a2565b80356001600160a01b038116811461063657600080fd5b919050565b60006020828403121561064c578081fd5b6105bd8261061f565b60008060408385031215610667578081fd5b6106708361061f565b915061067e6020840161061f565b90509250929050565b60008060006060848603121561069b578081fd5b6106a48461061f565b92506106b26020850161061f565b9150604084013590509250925092565b600080604083850312156106d4578182fd5b6106dd8361061f565b946020939093013593505050565b6000602082840312156106fc578081fd5b5035919050565b6000602080835283518082850152825b8181101561072f57858101830151858201604001528201610713565b818111156107405783604083870101525b50601f01601f1916929092016040019392505050565b60008219821115610769576107696107c0565b500190565b600082821015610780576107806107c0565b500390565b600181811c9082168061079957607f821691505b602082108114156107ba57634e487b7160e01b600052602260045260246000fd5b50919050565b634e487b7160e01b600052601160045260246000fdfea2646970667358221220998c677b7cc57e62e2915e583544f15777153c623b27863f16cf3358becc88cb64736f6c6343000804003360806040523480156200001157600080fd5b5060405162000c5a38038062000c5a8339810160408190526200003491620001c7565b8151829082906200004d9060039060208501906200006e565b508051620000639060049060208401906200006e565b505050505062000281565b8280546200007c906200022e565b90600052602060002090601f016020900481019282620000a05760008555620000eb565b82601f10620000bb57805160ff1916838001178555620000eb565b82800160010185558215620000eb579182015b82811115620000eb578251825591602001919060010190620000ce565b50620000f9929150620000fd565b5090565b5b80821115620000f95760008155600101620000fe565b600082601f83011262000125578081fd5b81516001600160401b03808211156200014257620001426200026b565b604051601f8301601f19908116603f011681019082821181831017156200016d576200016d6200026b565b8160405283815260209250868385880101111562000189578485fd5b8491505b83821015620001ac57858201830151818301840152908201906200018d565b83821115620001bd57848385830101525b9695505050505050565b60008060408385031215620001da578182fd5b82516001600160401b0380821115620001f1578384fd5b620001ff8683870162000114565b9350602085015191508082111562000215578283fd5b50620002248582860162000114565b9150509250929050565b600181811c908216806200024357607f821691505b602082108114156200026557634e487b7160e01b600052602260045260246000fd5b50919050565b634e487b7160e01b600052604160045260246000fd5b6109c980620002916000396000f3fe608060405234801561001057600080fd5b50600436106100b45760003560e01c806340c10f191161007157806340c10f191461014157806370a082311461015657806395d89b411461017f578063a457c2d714610187578063a9059cbb1461019a578063dd62ed3e146101ad57600080fd5b806306fdde03146100b9578063095ea7b3146100d757806318160ddd146100fa57806323b872dd1461010c578063313ce5671461011f578063395093511461012e575b600080fd5b6100c16101e6565b6040516100ce91906108e1565b60405180910390f35b6100ea6100e53660046108b8565b610278565b60405190151581526020016100ce565b6002545b6040519081526020016100ce565b6100ea61011a36600461087d565b61028e565b604051601281526020016100ce565b6100ea61013c3660046108b8565b61033d565b61015461014f3660046108b8565b610379565b005b6100fe61016436600461082a565b6001600160a01b031660009081526020819052604090205490565b6100c1610387565b6100ea6101953660046108b8565b610396565b6100ea6101a83660046108b8565b61042f565b6100fe6101bb36600461084b565b6001600160a01b03918216600090815260016020908152604080832093909416825291909152205490565b6060600380546101f590610958565b80601f016020809104026020016040519081016040528092919081815260200182805461022190610958565b801561026e5780601f106102435761010080835404028352916020019161026e565b820191906000526020600020905b81548152906001019060200180831161025157829003601f168201915b5050505050905090565b600061028533848461043c565b50600192915050565b600061029b848484610560565b6001600160a01b0384166000908152600160209081526040808320338452909152902054828110156103255760405162461bcd60e51b815260206004820152602860248201527f45524332303a207472616e7366657220616d6f756e74206578636565647320616044820152676c6c6f77616e636560c01b60648201526084015b60405180910390fd5b610332853385840361043c565b506001949350505050565b3360008181526001602090815260408083206001600160a01b03871684529091528120549091610285918590610374908690610934565b61043c565b610383828261072f565b5050565b6060600480546101f590610958565b3360009081526001602090815260408083206001600160a01b0386168452909152812054828110156104185760405162461bcd60e51b815260206004820152602560248201527f45524332303a2064656372656173656420616c6c6f77616e63652062656c6f77604482015264207a65726f60d81b606482015260840161031c565b610425338585840361043c565b5060019392505050565b6000610285338484610560565b6001600160a01b03831661049e5760405162461bcd60e51b8152602060048201526024808201527f45524332303a20617070726f76652066726f6d20746865207a65726f206164646044820152637265737360e01b606482015260840161031c565b6001600160a01b0382166104ff5760405162461bcd60e51b815260206004820152602260248201527f45524332303a20617070726f766520746f20746865207a65726f206164647265604482015261737360f01b606482015260840161031c565b6001600160a01b0383811660008181526001602090815260408083209487168084529482529182902085905590518481527f8c5be1e5ebec7d5bd14f71427d1e84f3dd0314c0f7b2291e5b200ac8c7c3b925910160405180910390a3505050565b6001600160a01b0383166105c45760405162461bcd60e51b815260206004820152602560248201527f45524332303a207472616e736665722066726f6d20746865207a65726f206164604482015264647265737360d81b606482015260840161031c565b6001600160a01b0382166106265760405162461bcd60e51b815260206004820152602360248201527f45524332303a207472616e7366657220746f20746865207a65726f206164647260448201526265737360e81b606482015260840161031c565b6001600160a01b0383166000908152602081905260409020548181101561069e5760405162461bcd60e51b815260206004820152602660248201527f45524332303a207472616e7366657220616d6f756e7420657863656564732062604482015265616c616e636560d01b606482015260840161031c565b6001600160a01b038085166000908152602081905260408082208585039055918516815290812080548492906106d5908490610934565b92505081905550826001600160a01b0316846001600160a01b03167fddf252ad1be2c89b69c2b068fc378daa952ba7f163c4a11628f55a4df523b3ef8460405161072191815260200190565b60405180910390a350505050565b6001600160a01b0382166107855760405162461bcd60e51b815260206004820152601f60248201527f45524332303a206d696e7420746f20746865207a65726f206164647265737300604482015260640161031c565b80600260008282546107979190610934565b90915550506001600160a01b038216600090815260208190526040812080548392906107c4908490610934565b90915550506040518181526001600160a01b038316906000907fddf252ad1be2c89b69c2b068fc378daa952ba7f163c4a11628f55a4df523b3ef9060200160405180910390a35050565b80356001600160a01b038116811461082557600080fd5b919050565b60006020828403121561083b578081fd5b6108448261080e565b9392505050565b6000806040838503121561085d578081fd5b6108668361080e565b91506108746020840161080e565b90509250929050565b600080600060608486031215610891578081fd5b61089a8461080e565b92506108a86020850161080e565b9150604084013590509250925092565b600080604083850312156108ca578182fd5b6108d38361080e565b946020939093013593505050565b6000602080835283518082850152825b8181101561090d578581018301518582016040015282016108f1565b8181111561091e5783604083870101525b50601f01601f1916929092016040019392505050565b6000821982111561095357634e487b7160e01b81526011600452602481fd5b500190565b600181811c9082168061096c57607f821691505b6020821081141561098d57634e487b7160e01b600052602260045260246000fd5b5091905056fea2646970667358221220da8c21195155d3a6ac6808f25312652be8182c5f0677908e6919741bf9b40b2b64736f6c63430008040033608060405234801561001057600080fd5b5060405161026138038061026183398101604081905261002f91610037565b60005561004f565b600060208284031215610048578081fd5b5051919050565b6102038061005e6000396000f3fe608060405234801561001057600080fd5b50600436106100625760003560e01c8063313ce5671461006757806354fd4d501461007b5780637284e4161461008a57806391b7f5ed146100be5780639a6fc8f5146100d3578063feaf968c14610125575b600080fd5b604051601281526020015b60405180910390f35b60405160018152602001610072565b604080518082018252601281527129b0b6b83632902232b9b1b934b83a34b7b760711b60208201529051610072919061017a565b6100d16100cc366004610131565b600055565b005b6100ee6100e1366004610149565b6000549091429081908390565b6040805169ffffffffffffffffffff968716815260208101959095528401929092526060830152909116608082015260a001610072565b600080544280826100ee565b600060208284031215610142578081fd5b5035919050565b60006020828403121561015a578081fd5b813569ffffffffffffffffffff81168114610173578182fd5b9392505050565b6000602080835283518082850152825b818110156101a65785810183015185820160400152820161018a565b818111156101b75783604083870101525b50601f01601f191692909201604001939250505056fea264697066735822122079ff9fc8265026e1a89ba653dd914a18a5096058c30e5765bd8c74ed52cc6ec664736f6c6343000804003360c06040523480156200001157600080fd5b506040516200136b3803806200136b833981016040819052620000349162000156565b6200003f33620000e9565b6001600160601b0319606083811b821660805282901b1660a05260405163095ea7b360e01b81526001600160a01b038083166004830152600019602483015283169063095ea7b390604401602060405180830381600087803b158015620000a557600080fd5b505af1158015620000ba573d6000803e3d6000fd5b505050506040513d601f19601f82011682018060405250810190620000e091906200018d565b505050620001b6565b600080546001600160a01b038381166001600160a01b0319831681178455604051919092169283917f8be0079c531659141344cd1fd0a4f28419497f9722a3daafe3b4186f6b6457e09190a35050565b80516001600160a01b03811681146200015157600080fd5b919050565b6000806040838503121562000169578182fd5b620001748362000139565b9150620001846020840162000139565b90509250929050565b6000602082840312156200019f578081fd5b81518015158114620001af578182fd5b9392505050565b60805160601c60a05160601c61111a62000251600039600081816102c9015281816104b7015281816105d20152818161080c015281816109b80152610c0801526000818160a5015281816101fb0152818161029e01528181610431015281816104e7015281816105ff01528181610671015281816107e1015281816109e501528181610a7a01528181610b820152610c38015261111a6000f3fe6080604052600436106100955760003560e01c8063affa881711610059578063affa8817146101ec578063eed88b8d1461021f578063f14210a61461023f578063f2fde38b1461025f578063f6326fb31461027f5761010f565b80632247463e1461014e578063715018a6146101615780637b2af625146101765780638da5cb5b14610196578063a3d5b255146101cc5761010f565b3661010f57336001600160a01b037f0000000000000000000000000000000000000000000000000000000000000000161461010d5760405162461bcd60e51b8152602060048201526013602482015272149958d95a5d99481b9bdd08185b1b1bddd959606a1b60448201526064015b60405180910390fd5b005b60405162461bcd60e51b815260206004820152601460248201527311985b1b189858dac81b9bdd08185b1b1bddd95960621b6044820152606401610104565b61010d61015c366004610fb3565b610287565b34801561016d57600080fd5b5061010d610585565b34801561018257600080fd5b5061010d610191366004610fb3565b6105bb565b3480156101a257600080fd5b506000546001600160a01b03165b6040516001600160a01b03909116815260200160405180910390f35b3480156101d857600080fd5b5061010d6101e7366004610e60565b6106e4565b3480156101f857600080fd5b507f00000000000000000000000000000000000000000000000000000000000000006101b0565b34801561022b57600080fd5b5061010d61023a366004610ea0565b610796565b34801561024b57600080fd5b5061010d61025a366004610fb3565b6107ca565b34801561026b57600080fd5b5061010d61027a366004610e3d565b610ae8565b61010d610b80565b6040516335ea6a7560e01b81526001600160a01b037f0000000000000000000000000000000000000000000000000000000000000000811660048301526000917f0000000000000000000000000000000000000000000000000000000000000000909116906335ea6a75906024016101406040518083038186803b15801561030e57600080fd5b505afa158015610322573d6000803e3d6000fd5b505050506040513d601f19601f820116820180604052508101906103469190610eeb565b60e001516040516370a0823160e01b81523360048201526001600160a01b03909116906370a082319060240160206040518083038186803b15801561038a57600080fd5b505afa15801561039e573d6000803e3d6000fd5b505050506040513d601f19601f820116820180604052508101906103c29190610fcb565b9050808210156103cf5750805b8034101561042f5760405162461bcd60e51b815260206004820152602760248201527f6d73672e76616c7565206973206c657373207468616e2072657061796d656e7460448201526608185b5bdd5b9d60ca1b6064820152608401610104565b7f00000000000000000000000000000000000000000000000000000000000000006001600160a01b031663d0e30db0826040518263ffffffff1660e01b81526004016000604051808303818588803b15801561048a57600080fd5b505af115801561049e573d6000803e3d6000fd5b505060405163173aba7160e21b81526001600160a01b037f0000000000000000000000000000000000000000000000000000000000000000169350635ceae9c4925061051391507f0000000000000000000000000000000000000000000000000000000000000000903490339060040161101c565b602060405180830381600087803b15801561052d57600080fd5b505af1158015610541573d6000803e3d6000fd5b505050506040513d601f19601f820116820180604052508101906105659190610fcb565b5080341115610581576105813361057c83346110ac565b610c92565b5050565b6000546001600160a01b031633146105af5760405162461bcd60e51b81526004016101049061103f565b6105b96000610d4a565b565b604051636c665a5560e01b81526001600160a01b037f00000000000000000000000000000000000000000000000000000000000000001690636c665a559061062b907f0000000000000000000000000000000000000000000000000000000000000000908590339060040161101c565b600060405180830381600087803b15801561064557600080fd5b505af1158015610659573d6000803e3d6000fd5b5050604051632e1a7d4d60e01b8152600481018490527f00000000000000000000000000000000000000000000000000000000000000006001600160a01b03169250632e1a7d4d9150602401600060405180830381600087803b1580156106bf57600080fd5b505af11580156106d3573d6000803e3d6000fd5b505050506106e13382610c92565b50565b6000546001600160a01b0316331461070e5760405162461bcd60e51b81526004016101049061103f565b60405163a9059cbb60e01b81526001600160a01b0383811660048301526024820183905284169063a9059cbb90604401602060405180830381600087803b15801561075857600080fd5b505af115801561076c573d6000803e3d6000fd5b505050506040513d601f19601f820116820180604052508101906107909190610ecb565b50505050565b6000546001600160a01b031633146107c05760405162461bcd60e51b81526004016101049061103f565b6105818282610c92565b6040516335ea6a7560e01b81526001600160a01b037f0000000000000000000000000000000000000000000000000000000000000000811660048301526000917f0000000000000000000000000000000000000000000000000000000000000000909116906335ea6a75906024016101406040518083038186803b15801561085157600080fd5b505afa158015610865573d6000803e3d6000fd5b505050506040513d601f19601f820116820180604052508101906108899190610eeb565b60c001516040516370a0823160e01b81523360048201529091506000906001600160a01b038316906370a082319060240160206040518083038186803b1580156108d257600080fd5b505afa1580156108e6573d6000803e3d6000fd5b505050506040513d601f19601f8201168201806040525081019061090a9190610fcb565b90508260001981141561091a5750805b6040516323b872dd60e01b8152336004820152306024820152604481018290526001600160a01b038416906323b872dd90606401602060405180830381600087803b15801561096857600080fd5b505af115801561097c573d6000803e3d6000fd5b505050506040513d601f19601f820116820180604052508101906109a09190610ecb565b50604051631a4ca37b60e21b81526001600160a01b037f000000000000000000000000000000000000000000000000000000000000000016906369328dec90610a11907f0000000000000000000000000000000000000000000000000000000000000000908590309060040161101c565b602060405180830381600087803b158015610a2b57600080fd5b505af1158015610a3f573d6000803e3d6000fd5b505050506040513d601f19601f82011682018060405250810190610a639190610fcb565b50604051632e1a7d4d60e01b8152600481018290527f00000000000000000000000000000000000000000000000000000000000000006001600160a01b031690632e1a7d4d90602401600060405180830381600087803b158015610ac657600080fd5b505af1158015610ada573d6000803e3d6000fd5b505050506107903382610c92565b6000546001600160a01b03163314610b125760405162461bcd60e51b81526004016101049061103f565b6001600160a01b038116610b775760405162461bcd60e51b815260206004820152602660248201527f4f776e61626c653a206e6577206f776e657220697320746865207a65726f206160448201526564647265737360d01b6064820152608401610104565b6106e181610d4a565b7f00000000000000000000000000000000000000000000000000000000000000006001600160a01b031663d0e30db0346040518263ffffffff1660e01b81526004016000604051808303818588803b158015610bdb57600080fd5b505af1158015610bef573d6000803e3d6000fd5b5050604051633d14d1b760e21b81526001600160a01b037f000000000000000000000000000000000000000000000000000000000000000016935063f45346dc9250610c6491507f0000000000000000000000000000000000000000000000000000000000000000903490339060040161101c565b600060405180830381600087803b158015610c7e57600080fd5b505af1158015610790573d6000803e3d6000fd5b604080516000808252602082019092526001600160a01b038416908390604051610cbc9190610fe3565b60006040518083038185875af1925050503d8060008114610cf9576040519150601f19603f3d011682016040523d82523d6000602084013e610cfe565b606091505b5050905080610d455760405162461bcd60e51b815260206004820152601360248201527211551217d514905394d1915497d19052531151606a1b6044820152606401610104565b505050565b600080546001600160a01b038381166001600160a01b0319831681178455604051919092169283917f8be0079c531659141344cd1fd0a4f28419497f9722a3daafe3b4186f6b6457e09190a35050565b8051610da5816110cf565b919050565b600060208284031215610dbb578081fd5b6040516020810181811067ffffffffffffffff82111715610dea57634e487b7160e01b83526041600452602483fd5b6040529151825250919050565b80516fffffffffffffffffffffffffffffffff81168114610da557600080fd5b805164ffffffffff81168114610da557600080fd5b805160ff81168114610da557600080fd5b600060208284031215610e4e578081fd5b8135610e59816110cf565b9392505050565b600080600060608486031215610e74578182fd5b8335610e7f816110cf565b92506020840135610e8f816110cf565b929592945050506040919091013590565b60008060408385031215610eb2578182fd5b8235610ebd816110cf565b946020939093013593505050565b600060208284031215610edc578081fd5b81518015158114610e59578182fd5b60006101408284031215610efd578081fd5b610f05611074565b610f0f8484610daa565b8152610f1d60208401610df7565b6020820152610f2e60408401610df7565b6040820152610f3f60608401610df7565b6060820152610f5060808401610df7565b6080820152610f6160a08401610e17565b60a0820152610f7260c08401610d9a565b60c0820152610f8360e08401610d9a565b60e0820152610100610f96818501610d9a565b90820152610120610fa8848201610e2c565b908201529392505050565b600060208284031215610fc4578081fd5b5035919050565b600060208284031215610fdc578081fd5b5051919050565b60008251815b818110156110035760208186018101518583015201610fe9565b818111156110115782828501525b509190910192915050565b6001600160a01b0393841681526020810192909252909116604082015260600190565b6020808252818101527f4f776e61626c653a2063616c6c6572206973206e6f7420746865206f776e6572604082015260600190565b604051610140810167ffffffffffffffff811182821017156110a657634e487b7160e01b600052604160045260246000fd5b60405290565b6000828210156110ca57634e487b7160e01b81526011600452602481fd5b500390565b6001600160a01b03811681146106e157600080fdfea2646970667358221220b32d5eaf64dcb0cf03018ee46f6f46be7aa1eece290568c3d94eac1506615de564736f6c6343000804003360c060405234801561001057600080fd5b5060405161089038038061089083398101604081905261002f916102f4565b6100398484610097565b606082901b6001600160601b03191660805260a08190526040518181526001600160a01b038316907fe27c4c1372396a3d15a9922f74f9dfc7c72b1ad6d63868470787249c356454c19060200160405180910390a2505050506103a9565b80518251146100ec5760405162461bcd60e51b815260206004820152601a60248201527f494e434f4e53495354454e545f504152414d535f4c454e475448000000000000604482015260640160405180910390fd5b60005b825181101561022f5781818151811061011857634e487b7160e01b600052603260045260246000fd5b602002602001015160008085848151811061014357634e487b7160e01b600052603260045260246000fd5b60200260200101516001600160a01b03166001600160a01b0316815260200190815260200160002060006101000a8154816001600160a01b0302191690836001600160a01b031602179055508181815181106101af57634e487b7160e01b600052603260045260246000fd5b60200260200101516001600160a01b03168382815181106101e057634e487b7160e01b600052603260045260246000fd5b60200260200101516001600160a01b03167f22c5b7b2d8561d39f7f210b6b326a1aa69f15311163082308ac4877db6339dc160405160405180910390a3806102278161036c565b9150506100ef565b505050565b80516001600160a01b038116811461024b57600080fd5b919050565b600082601f830112610260578081fd5b815160206001600160401b038083111561027c5761027c610393565b8260051b604051601f19603f830116810181811084821117156102a1576102a1610393565b604052848152838101925086840182880185018910156102bf578687fd5b8692505b858310156102e8576102d481610234565b8452928401926001929092019184016102c3565b50979650505050505050565b60008060008060808587031215610309578384fd5b84516001600160401b038082111561031f578586fd5b61032b88838901610250565b95506020870151915080821115610340578485fd5b5061034d87828801610250565b93505061035c60408601610234565b6060959095015193969295505050565b600060001982141561038c57634e487b7160e01b81526011600452602481fd5b5060010190565b634e487b7160e01b600052604160045260246000fd5b60805160601c60a0516104b26103de6000396000818160610152610260015260008181610112015261023501526104b26000f3fe608060405234801561001057600080fd5b50600436106100575760003560e01c80638c89b64f1461005c57806392bf2be0146100965780639d23d9f2146100da578063b3596f07146100fa578063e19f47001461010d575b600080fd5b6100837f000000000000000000000000000000000000000000000000000000000000000081565b6040519081526020015b60405180910390f35b6100c26100a4366004610324565b6001600160a01b039081166000908152602081905260409020541690565b6040516001600160a01b03909116815260200161008d565b6100ed6100e8366004610352565b610134565b60405161008d9190610411565b610083610108366004610324565b610213565b6100c27f000000000000000000000000000000000000000000000000000000000000000081565b606060008267ffffffffffffffff81111561015f57634e487b7160e01b600052604160045260246000fd5b604051908082528060200260200182016040528015610188578160200160208202803683370190505b50905060005b8381101561020b576101ce8585838181106101b957634e487b7160e01b600052603260045260246000fd5b90506020020160208101906101089190610324565b8282815181106101ee57634e487b7160e01b600052603260045260246000fd5b60209081029190910101528061020381610455565b91505061018e565b509392505050565b6001600160a01b038082166000818152602081905260408120549092908116917f0000000000000000000000000000000000000000000000000000000000000000909116141561028557507f000000000000000000000000000000000000000000000000000000000000000092915050565b6000816001600160a01b031663feaf968c6040518163ffffffff1660e01b815260040160a06040518083038186803b1580156102c057600080fd5b505afa1580156102d4573d6000803e3d6000fd5b505050506040513d601f19601f820116820180604052508101906102f891906103c2565b5091979650505050505050565b805169ffffffffffffffffffff8116811461031f57600080fd5b919050565b600060208284031215610335578081fd5b81356001600160a01b038116811461034b578182fd5b9392505050565b60008060208385031215610364578081fd5b823567ffffffffffffffff8082111561037b578283fd5b818501915085601f83011261038e578283fd5b81358181111561039c578384fd5b8660208260051b85010111156103b0578384fd5b60209290920196919550909350505050565b600080600080600060a086880312156103d9578081fd5b6103e286610305565b945060208601519350604086015192506060860151915061040560808701610305565b90509295509295909350565b6020808252825182820181905260009190848201906040850190845b818110156104495783518352928401929184019160010161042d565b50909695505050505050565b600060001982141561047557634e487b7160e01b81526011600452602481fd5b506001019056fea264697066735822122066608e8fbb5343ad82da4fdec4f5c3154650fc708f527a9d8a0250627ff2dab464736f6c6343000804003360a060405234801561001057600080fd5b50604051611c73380380611c7383398101604081905261002f91610044565b60601b6001600160601b031916608052610072565b600060208284031215610055578081fd5b81516001600160a01b038116811461006b578182fd5b9392505050565b60805160601c611ba56100ce6000396000818160870152818161020001528181610311015281816105b4015281816106e30152818161086e01528181610ae001528181610c2701528181610edd01526110040152611ba56000f3fe608060405234801561001057600080fd5b506004361061007d5760003560e01c80633e1501411161005b5780633e1501411461016d578063b316ff89146101a0578063d2493b6c146101b5578063f561ae41146101e857600080fd5b80630542975c1461008257806328dd2d01146100c657806335ea6a7514610118575b600080fd5b6100a97f000000000000000000000000000000000000000000000000000000000000000081565b6040516001600160a01b0390911681526020015b60405180910390f35b6100d96100d43660046115af565b6101f0565b604080519889526020890197909752958701949094526060860192909252608085015260a0840152151560c0830152151560e0820152610100016100bd565b61012b610126366004611570565b61085e565b604080519889526020890197909752958701949094526060860192909252608085015260a084015260c083015264ffffffffff1660e0820152610100016100bd565b61018061017b366004611570565b610ad6565b6040805194855260208501939093529183015260608201526080016100bd565b6101a8610c21565b6040516100bd919061189b565b6101c86101c3366004611570565b610ed6565b604080516001600160a01b039384168152929091166020830152016100bd565b6101a8610ffe565b60008060008060008060008060007f00000000000000000000000000000000000000000000000000000000000000006001600160a01b0316630261bf8b6040518163ffffffff1660e01b815260040160206040518083038186803b15801561025757600080fd5b505afa15801561026b573d6000803e3d6000fd5b505050506040513d601f19601f8201168201806040525081019061028f9190611593565b6040516335ea6a7560e01b81526001600160a01b038d8116600483015291909116906335ea6a75906024016101406040518083038186803b1580156102d357600080fd5b505afa1580156102e7573d6000803e3d6000fd5b505050506040513d601f19601f8201168201806040525081019061030b9190611746565b905060007f00000000000000000000000000000000000000000000000000000000000000006001600160a01b0316630261bf8b6040518163ffffffff1660e01b815260040160206040518083038186803b15801561036857600080fd5b505afa15801561037c573d6000803e3d6000fd5b505050506040513d601f19601f820116820180604052508101906103a09190611593565b604051634417a58360e01b81526001600160a01b038d811660048301529190911690634417a5839060240160206040518083038186803b1580156103e357600080fd5b505afa1580156103f7573d6000803e3d6000fd5b505050506040513d601f19601f8201168201806040525081019061041b919061172b565b60c08301516040516370a0823160e01b81526001600160a01b038e811660048301529293509116906370a082319060240160206040518083038186803b15801561046457600080fd5b505afa158015610478573d6000803e3d6000fd5b505050506040513d601f19601f8201168201806040525081019061049c919061180e565b60e08301516040516370a0823160e01b81526001600160a01b038e81166004830152929c509116906370a082319060240160206040518083038186803b1580156104e557600080fd5b505afa1580156104f9573d6000803e3d6000fd5b505050506040513d601f19601f8201168201806040525081019061051d919061180e565b60e0830151604051630ed1279f60e11b81526001600160a01b038e81166004830152929b50911690631da24f3e9060240160206040518083038186803b15801561056657600080fd5b505afa15801561057a573d6000803e3d6000fd5b505050506040513d601f19601f8201168201806040525081019061059e919061180e565b975081606001516001600160801b0316965060007f00000000000000000000000000000000000000000000000000000000000000006001600160a01b0316630261bf8b6040518163ffffffff1660e01b815260040160206040518083038186803b15801561060b57600080fd5b505afa15801561061f573d6000803e3d6000fd5b505050506040513d601f19601f820116820180604052508101906106439190611593565b604051632fe4a15f60e21b81526001600160a01b038e81166004830152919091169063bf92857c9060240160c06040518083038186803b15801561068657600080fd5b505afa15801561069a573d6000803e3d6000fd5b505050506040513d601f19601f820116820180604052508101906106be9190611826565b60408051631f94a27560e31b81529051919d5093965061081295506001600160a01b037f000000000000000000000000000000000000000000000000000000000000000016945063fca513a893600480820194506020935090829003018186803b15801561072b57600080fd5b505afa15801561073f573d6000803e3d6000fd5b505050506040513d601f19601f820116820180604052508101906107639190611593565b6001600160a01b031663b3596f078f6040518263ffffffff1660e01b815260040161079d91906001600160a01b0391909116815260200190565b60206040518083038186803b1580156107b557600080fd5b505afa1580156107c9573d6000803e3d6000fd5b505050506040513d601f19601f820116820180604052508101906107ed919061180e565b84515161080c9060301c60ff1661080590600a611a02565b849061131d565b90611332565b955061082f83610120015160ff168361133e90919063ffffffff16565b945061084c83610120015160ff16836113ad90919063ffffffff16565b93505050509295985092959890939650565b60008060008060008060008060007f00000000000000000000000000000000000000000000000000000000000000006001600160a01b0316630261bf8b6040518163ffffffff1660e01b815260040160206040518083038186803b1580156108c557600080fd5b505afa1580156108d9573d6000803e3d6000fd5b505050506040513d601f19601f820116820180604052508101906108fd9190611593565b6040516335ea6a7560e01b81526001600160a01b038c8116600483015291909116906335ea6a75906024016101406040518083038186803b15801561094157600080fd5b505afa158015610955573d6000803e3d6000fd5b505050506040513d601f19601f820116820180604052508101906109799190611746565b9050871561099a5761099561098e8a8a6113f8565b8990611404565b61099d565b60005b60c08201516040516370a0823160e01b81526001600160a01b0391821660048201529194508b16906370a082319060240160206040518083038186803b1580156109e657600080fd5b505afa1580156109fa573d6000803e3d6000fd5b505050506040513d601f19601f82011682018060405250810190610a1e919061180e565b8160e001516001600160a01b03166318160ddd6040518163ffffffff1660e01b815260040160206040518083038186803b158015610a5b57600080fd5b505afa158015610a6f573d6000803e3d6000fd5b505050506040513d601f19601f82011682018060405250810190610a93919061180e565b606083015160808401516020850151604086015160a090960151949f939e506001600160801b039283169d509082169b5081169950909216965092945091925050565b60008060008060007f00000000000000000000000000000000000000000000000000000000000000006001600160a01b0316630261bf8b6040518163ffffffff1660e01b815260040160206040518083038186803b158015610b3757600080fd5b505afa158015610b4b573d6000803e3d6000fd5b505050506040513d601f19601f82011682018060405250810190610b6f9190611593565b60405163c44b11f760e01b81526001600160a01b038881166004830152919091169063c44b11f79060240160206040518083038186803b158015610bb257600080fd5b505afa158015610bc6573d6000803e3d6000fd5b505050506040513d601f19601f82011682018060405250810190610bea919061172b565b9050610c12815161ffff80821692601083901c821692602081901c9092169160301c60ff1690565b99929850909650945092505050565b606060007f00000000000000000000000000000000000000000000000000000000000000006001600160a01b0316630261bf8b6040518163ffffffff1660e01b815260040160206040518083038186803b158015610c7e57600080fd5b505afa158015610c92573d6000803e3d6000fd5b505050506040513d601f19601f82011682018060405250810190610cb69190611593565b90506000816001600160a01b031663d1946dbc6040518163ffffffff1660e01b815260040160006040518083038186803b158015610cf357600080fd5b505afa158015610d07573d6000803e3d6000fd5b505050506040513d6000823e601f3d908101601f19168201604052610d2f91908101906115e7565b90506000815167ffffffffffffffff811115610d5b57634e487b7160e01b600052604160045260246000fd5b604051908082528060200260200182016040528015610da157816020015b604080518082019091526060815260006020820152815260200190600190039081610d795790505b50905060005b8251811015610ece576040518060400160405280848381518110610ddb57634e487b7160e01b600052603260045260246000fd5b60200260200101516001600160a01b03166395d89b416040518163ffffffff1660e01b815260040160006040518083038186803b158015610e1b57600080fd5b505afa158015610e2f573d6000803e3d6000fd5b505050506040513d6000823e601f3d908101601f19168201604052610e57919081019061169b565b8152602001848381518110610e7c57634e487b7160e01b600052603260045260246000fd5b60200260200101516001600160a01b0316815250828281518110610eb057634e487b7160e01b600052603260045260246000fd5b60200260200101819052508080610ec690611b10565b915050610da7565b509392505050565b60008060007f00000000000000000000000000000000000000000000000000000000000000006001600160a01b0316630261bf8b6040518163ffffffff1660e01b815260040160206040518083038186803b158015610f3457600080fd5b505afa158015610f48573d6000803e3d6000fd5b505050506040513d601f19601f82011682018060405250810190610f6c9190611593565b6040516335ea6a7560e01b81526001600160a01b03868116600483015291909116906335ea6a75906024016101406040518083038186803b158015610fb057600080fd5b505afa158015610fc4573d6000803e3d6000fd5b505050506040513d601f19601f82011682018060405250810190610fe89190611746565b90508060c001518160e001519250925050915091565b606060007f00000000000000000000000000000000000000000000000000000000000000006001600160a01b0316630261bf8b6040518163ffffffff1660e01b815260040160206040518083038186803b15801561105b57600080fd5b505afa15801561106f573d6000803e3d6000fd5b505050506040513d601f19601f820116820180604052508101906110939190611593565b90506000816001600160a01b031663d1946dbc6040518163ffffffff1660e01b815260040160006040518083038186803b1580156110d057600080fd5b505afa1580156110e4573d6000803e3d6000fd5b505050506040513d6000823e601f3d908101601f1916820160405261110c91908101906115e7565b90506000815167ffffffffffffffff81111561113857634e487b7160e01b600052604160045260246000fd5b60405190808252806020026020018201604052801561117e57816020015b6040805180820190915260608152600060208201528152602001906001900390816111565790505b50905060005b8251811015610ece576000846001600160a01b03166335ea6a758584815181106111be57634e487b7160e01b600052603260045260246000fd5b60200260200101516040518263ffffffff1660e01b81526004016111f191906001600160a01b0391909116815260200190565b6101406040518083038186803b15801561120a57600080fd5b505afa15801561121e573d6000803e3d6000fd5b505050506040513d601f19601f820116820180604052508101906112429190611746565b905060405180604001604052808260c001516001600160a01b03166395d89b416040518163ffffffff1660e01b815260040160006040518083038186803b15801561128c57600080fd5b505afa1580156112a0573d6000803e3d6000fd5b505050506040513d6000823e601f3d908101601f191682016040526112c8919081019061169b565b81526020018260c001516001600160a01b03168152508383815181106112fe57634e487b7160e01b600052603260045260246000fd5b602002602001018190525050808061131590611b10565b915050611184565b60006113298284611aaa565b90505b92915050565b6000611329828461199f565b60006080821060405180604001604052806002815260200161373760f01b815250906113865760405162461bcd60e51b815260040161137d9190611919565b60405180910390fd5b50611392826002611aaa565b61139d906001611987565b925190921c600116151592915050565b60006080821060405180604001604052806002815260200161373760f01b815250906113ec5760405162461bcd60e51b815260040161137d9190611919565b5061139d826002611aaa565b60006113298284611987565b604080518082019091526002815261035360f41b60208201526000908261143e5760405162461bcd60e51b815260040161137d9190611919565b50600061144c60028461199f565b90506b033b2e3c9fd0803ce800000061146782600019611ac9565b611471919061199f565b84111560405180604001604052806002815260200161068760f31b815250906114ad5760405162461bcd60e51b815260040161137d9190611919565b5082816114c66b033b2e3c9fd0803ce800000087611aaa565b6114d09190611987565b6114da919061199f565b949350505050565b80516114ed81611b57565b919050565b600060208284031215611503578081fd5b6040516020810181811067ffffffffffffffff8211171561152657611526611b41565b6040529151825250919050565b80516001600160801b03811681146114ed57600080fd5b805164ffffffffff811681146114ed57600080fd5b805160ff811681146114ed57600080fd5b600060208284031215611581578081fd5b813561158c81611b57565b9392505050565b6000602082840312156115a4578081fd5b815161158c81611b57565b600080604083850312156115c1578081fd5b82356115cc81611b57565b915060208301356115dc81611b57565b809150509250929050565b600060208083850312156115f9578182fd5b825167ffffffffffffffff80821115611610578384fd5b818501915085601f830112611623578384fd5b81518181111561163557611635611b41565b8060051b9150611646848301611956565b8181528481019084860184860187018a1015611660578788fd5b8795505b8386101561168e578051945061167985611b57565b84835260019590950194918601918601611664565b5098975050505050505050565b6000602082840312156116ac578081fd5b815167ffffffffffffffff808211156116c3578283fd5b818401915084601f8301126116d6578283fd5b8151818111156116e8576116e8611b41565b6116fb601f8201601f1916602001611956565b9150808252856020828501011115611711578384fd5b611722816020840160208601611ae0565b50949350505050565b60006020828403121561173c578081fd5b61132983836114f2565b60006101408284031215611758578081fd5b61176061192c565b61176a84846114f2565b815261177860208401611533565b602082015261178960408401611533565b604082015261179a60608401611533565b60608201526117ab60808401611533565b60808201526117bc60a0840161154a565b60a08201526117cd60c084016114e2565b60c08201526117de60e084016114e2565b60e08201526101006117f18185016114e2565b9082015261012061180384820161155f565b908201529392505050565b60006020828403121561181f578081fd5b5051919050565b60008060008060008060c0878903121561183e578182fd5b865195506020870151945060408701519350606087015192506080870151915060a087015190509295509295509295565b60008151808452611887816020860160208601611ae0565b601f01601f19169290920160200192915050565b60006020808301818452808551808352604092508286019150828160051b870101848801865b8381101561190b57888303603f19018552815180518785526118e58886018261186f565b918901516001600160a01b031694890194909452948701949250908601906001016118c1565b509098975050505050505050565b602081526000611329602083018461186f565b604051610140810167ffffffffffffffff8111828210171561195057611950611b41565b60405290565b604051601f8201601f1916810167ffffffffffffffff8111828210171561197f5761197f611b41565b604052919050565b6000821982111561199a5761199a611b2b565b500190565b6000826119ba57634e487b7160e01b81526012600452602481fd5b500490565b600181815b808511156119fa5781600019048211156119e0576119e0611b2b565b808516156119ed57918102915b93841c93908002906119c4565b509250929050565b60006113298383600082611a185750600161132c565b81611a255750600061132c565b8160018114611a3b5760028114611a4557611a61565b600191505061132c565b60ff841115611a5657611a56611b2b565b50506001821b61132c565b5060208310610133831016604e8410600b8410161715611a84575081810a61132c565b611a8e83836119bf565b8060001904821115611aa257611aa2611b2b565b029392505050565b6000816000190483118215151615611ac457611ac4611b2b565b500290565b600082821015611adb57611adb611b2b565b500390565b60005b83811015611afb578181015183820152602001611ae3565b83811115611b0a576000848401525b50505050565b6000600019821415611b2457611b24611b2b565b5060010190565b634e487b7160e01b600052601160045260246000fd5b634e487b7160e01b600052604160045260246000fd5b6001600160a01b0381168114611b6c57600080fd5b5056fea2646970667358221220f5e05f5bb15bdea2ec2ca9ad9f147e51f8d9ed39a9adf0c72e4b746e104e7bfa64736f6c6343000804003360806040523480156200001157600080fd5b5060405162000ebe38038062000ebe8339810160408190526200003491620001c9565b80518251146200008a5760405162461bcd60e51b815260206004820152601a60248201527f494e434f4e53495354454e545f504152414d535f4c454e475448000000000000604482015260640160405180910390fd5b60005b82518110156200013457818181518110620000b857634e487b7160e01b600052603260045260246000fd5b6020026020010151600080858481518110620000e457634e487b7160e01b600052603260045260246000fd5b6020026020010151815260200190815260200160002060006101000a8154816001600160a01b0302191690836001600160a01b0316021790555080806200012b90620002ea565b9150506200008d565b50505062000328565b600082601f8301126200014e578081fd5b81516020620001676200016183620002c4565b62000291565b80838252828201915082860187848660051b890101111562000187578586fd5b855b85811015620001bc5781516001600160a01b0381168114620001a9578788fd5b8452928401929084019060010162000189565b5090979650505050505050565b60008060408385031215620001dc578182fd5b82516001600160401b0380821115620001f3578384fd5b818501915085601f83011262000207578384fd5b815160206200021a6200016183620002c4565b8083825282820191508286018a848660051b89010111156200023a578889fd5b8896505b848710156200025e5780518352600196909601959183019183016200023e565b509188015191965090935050508082111562000278578283fd5b5062000287858286016200013d565b9150509250929050565b604051601f8201601f191681016001600160401b0381118282101715620002bc57620002bc62000312565b604052919050565b60006001600160401b03821115620002e057620002e062000312565b5060051b60200190565b60006000198214156200030b57634e487b7160e01b81526011600452602481fd5b5060010190565b634e487b7160e01b600052604160045260246000fd5b610b8680620003386000396000f3fe6080604052600436106100435760003560e01c80630240534314610087578063b59b28ef146100be578063dffad8e9146100eb578063f7888aec1461011957600080fd5b3661008257333b6100805760405162461bcd60e51b8152602060048201526002602482015261191960f11b60448201526064015b60405180910390fd5b005b600080fd5b34801561009357600080fd5b506100a76100a2366004610826565b610139565b6040516100b5929190610a47565b60405180910390f35b3480156100ca57600080fd5b506100de6100d936600461085e565b61048b565b6040516100b59190610aa7565b3480156100f757600080fd5b5061010b61010636600461098e565b6105dc565b6040519081526020016100b5565b34801561012557600080fd5b5061010b610134366004610826565b610674565b6060806000846001600160a01b0316630261bf8b6040518163ffffffff1660e01b815260040160206040518083038186803b15801561017757600080fd5b505afa15801561018b573d6000803e3d6000fd5b505050506040513d601f19601f820116820180604052508101906101af919061080a565b90506000816001600160a01b031663d1946dbc6040518163ffffffff1660e01b815260040160006040518083038186803b1580156101ec57600080fd5b505afa158015610200573d6000803e3d6000fd5b505050506040513d6000823e601f3d908101601f1916820160405261022891908101906108c7565b905060008151600161023a9190610aba565b67ffffffffffffffff81111561026057634e487b7160e01b600052604160045260246000fd5b604051908082528060200260200182016040528015610289578160200160208202803683370190505b50905060005b825181101561030a578281815181106102b857634e487b7160e01b600052603260045260246000fd5b60200260200101518282815181106102e057634e487b7160e01b600052603260045260246000fd5b6001600160a01b03909216602092830291909101909101528061030281610af1565b91505061028f565b5073eeeeeeeeeeeeeeeeeeeeeeeeeeeeeeeeeeeeeeee8183518151811061034157634e487b7160e01b600052603260045260246000fd5b60200260200101906001600160a01b031690816001600160a01b0316815250506000815167ffffffffffffffff81111561038b57634e487b7160e01b600052604160045260246000fd5b6040519080825280602002602001820160405280156103b4578160200160208202803683370190505b50905060005b8351811015610431576103f4888483815181106103e757634e487b7160e01b600052603260045260246000fd5b6020026020010151610674565b82828151811061041457634e487b7160e01b600052603260045260246000fd5b60209081029190910101528061042981610af1565b9150506103ba565b506104508773eeeeeeeeeeeeeeeeeeeeeeeeeeeeeeeeeeeeeeee610674565b8184518151811061047157634e487b7160e01b600052603260045260246000fd5b6020908102919091010152909450925050505b9250929050565b606060006104998386610ad2565b67ffffffffffffffff8111156104bf57634e487b7160e01b600052604160045260246000fd5b6040519080825280602002602001820160405280156104e8578160200160208202803683370190505b50905060005b858110156105d25760005b848110156105bf5761056e88888481811061052457634e487b7160e01b600052603260045260246000fd5b905060200201602081019061053991906107e7565b87878481811061055957634e487b7160e01b600052603260045260246000fd5b905060200201602081019061013491906107e7565b838261057a8886610ad2565b6105849190610aba565b815181106105a257634e487b7160e01b600052603260045260246000fd5b6020908102919091010152806105b781610af1565b9150506104f9565b50806105ca81610af1565b9150506104ee565b5095945050505050565b600081815260208190526040808220548151633fabe5a360e21b815291516001600160a01b03909116918391839163feaf968c9160048083019260a0929190829003018186803b15801561062f57600080fd5b505afa158015610643573d6000803e3d6000fd5b505050506040513d601f19601f8201168201806040525081019061066791906109be565b5091979650505050505050565b60006001600160a01b03821673eeeeeeeeeeeeeeeeeeeeeeeeeeeeeeeeeeeeeeee14156106ac57506001600160a01b03821631610774565b6001600160a01b0382163b1561073c576040516370a0823160e01b81526001600160a01b0384811660048301528316906370a082319060240160206040518083038186803b1580156106fd57600080fd5b505afa158015610711573d6000803e3d6000fd5b505050506040513d601f19601f8201168201806040525081019061073591906109a6565b9050610774565b60405162461bcd60e51b815260206004820152600d60248201526c24a72b20a624a22faa27a5a2a760991b6044820152606401610077565b92915050565b805161078581610b38565b919050565b60008083601f84011261079b578081fd5b50813567ffffffffffffffff8111156107b2578182fd5b6020830191508360208260051b850101111561048457600080fd5b805169ffffffffffffffffffff8116811461078557600080fd5b6000602082840312156107f8578081fd5b813561080381610b38565b9392505050565b60006020828403121561081b578081fd5b815161080381610b38565b60008060408385031215610838578081fd5b823561084381610b38565b9150602083013561085381610b38565b809150509250929050565b60008060008060408587031215610873578182fd5b843567ffffffffffffffff8082111561088a578384fd5b6108968883890161078a565b909650945060208701359150808211156108ae578384fd5b506108bb8782880161078a565b95989497509550505050565b600060208083850312156108d9578182fd5b825167ffffffffffffffff808211156108f0578384fd5b818501915085601f830112610903578384fd5b81518181111561091557610915610b22565b8060051b604051601f19603f8301168101818110858211171561093a5761093a610b22565b604052828152858101935084860182860187018a1015610958578788fd5b8795505b838610156109815761096d8161077a565b85526001959095019493860193860161095c565b5098975050505050505050565b60006020828403121561099f578081fd5b5035919050565b6000602082840312156109b7578081fd5b5051919050565b600080600080600060a086880312156109d5578081fd5b6109de866107cd565b9450602086015193506040860151925060608601519150610a01608087016107cd565b90509295509295909350565b6000815180845260208085019450808401835b83811015610a3c57815187529582019590820190600101610a20565b509495945050505050565b604080825283519082018190526000906020906060840190828701845b82811015610a895781516001600160a01b031684529284019290840190600101610a64565b50505083810382850152610a9d8186610a0d565b9695505050505050565b6020815260006108036020830184610a0d565b60008219821115610acd57610acd610b0c565b500190565b6000816000190483118215151615610aec57610aec610b0c565b500290565b6000600019821415610b0557610b05610b0c565b5060010190565b634e487b7160e01b600052601160045260246000fd5b634e487b7160e01b600052604160045260246000fd5b6001600160a01b0381168114610b4d57600080fd5b5056fea264697066735822122060a7e8abb43c798492463fd4699a0dcfe056e1de4647e3917863ca6f71ead20f64736f6c6343000804003360806040523480156200001157600080fd5b5060405162001c1b38038062001c1b833981016040819052620000349162000292565b604080518082018252600b8082526a105513d2d15397d253541360aa1b6020808401828152855180870190965292855284015281519192916000916200007e916003919062000139565b5081516200009490600490602085019062000139565b506005805460ff191660ff9290921691909117905550620000b790508262000110565b620000c28162000129565b6005805460ff191660ff8516179055505060058054610100600160a81b0319166101006001600160a01b039586160217905550600680546001600160a01b03191691909216179055620003aa565b80516200012590600390602084019062000139565b5050565b8051620001259060049060208401905b82805462000147906200033e565b90600052602060002090601f0160209004810192826200016b5760008555620001b6565b82601f106200018657805160ff1916838001178555620001b6565b82800160010185558215620001b6579182015b82811115620001b657825182559160200191906001019062000199565b50620001c4929150620001c8565b5090565b5b80821115620001c45760008155600101620001c9565b600082601f830112620001f0578081fd5b81516001600160401b03808211156200020d576200020d6200037b565b604051601f8301601f19908116603f011681019082821181831017156200023857620002386200037b565b8160405283815260209250868385880101111562000254578485fd5b8491505b8382101562000277578582018301518183018401529082019062000258565b838211156200028857848385830101525b9695505050505050565b600080600080600060a08688031215620002aa578081fd5b8551620002b78162000391565b6020870151909550620002ca8162000391565b604087015190945060ff81168114620002e1578182fd5b60608701519093506001600160401b0380821115620002fe578283fd5b6200030c89838a01620001df565b9350608088015191508082111562000322578283fd5b506200033188828901620001df565b9150509295509295909350565b600181811c908216806200035357607f821691505b602082108114156200037557634e487b7160e01b600052602260045260246000fd5b50919050565b634e487b7160e01b600052604160045260246000fd5b6001600160a01b0381168114620003a757600080fd5b50565b61186180620003ba6000396000f3fe608060405234801561001057600080fd5b50600436106101375760003560e01c806370a08231116100b8578063a9059cbb1161007c578063a9059cbb146102b6578063b16a19de146102c9578063b1bf962d146102da578063d7020d0a146102e2578063dd62ed3e146102f5578063f866c3191461032e57600080fd5b806370a08231146102495780637535d2461461025c57806388dd91a11461028657806395d89b411461029b578063a457c2d7146102a357600080fd5b80631da24f3e116100ff5780631da24f3e146101e857806323b872dd146101fb578063313ce5671461020e57806339509351146102235780634efecaa51461023657600080fd5b806306fdde031461013c578063095ea7b31461015a5780630afbcdc91461017d578063156e29f6146101bf57806318160ddd146101d2575b600080fd5b610144610341565b604051610151919061165a565b60405180910390f35b61016d6101683660046115ab565b6103d3565b6040519015158152602001610151565b6101aa61018b3660046114e3565b6001600160a01b03166000908152602081905260409020546002549091565b60408051928352602083019190915201610151565b61016d6101cd3660046115d4565b6103ea565b6101da610534565b604051908152602001610151565b6101da6101f63660046114e3565b6105e5565b61016d61020936600461152f565b610603565b60055460405160ff9091168152602001610151565b61016d6102313660046115ab565b6106a7565b6101da6102443660046115ab565b6106dd565b6101da6102573660046114e3565b610753565b60055461010090046001600160a01b03165b6040516001600160a01b039091168152602001610151565b6102996102943660046115ab565b6107fe565b005b610144610858565b61016d6102b13660046115ab565b610867565b61016d6102c43660046115ab565b6108b6565b6006546001600160a01b031661026e565b6101da6108fa565b6102996102f036600461156a565b61090a565b6101da6103033660046114fd565b6001600160a01b03918216600090815260016020908152604080832093909416825291909152205490565b61029961033c36600461152f565b610a54565b6060600380546103509061172b565b80601f016020809104026020016040519081016040528092919081815260200182805461037c9061172b565b80156103c95780601f1061039e576101008083540402835291602001916103c9565b820191906000526020600020905b8154815290600101906020018083116103ac57829003601f168201915b5050505050905090565b60006103e0338484610af7565b5060015b92915050565b60055460009061010090046001600160a01b0316336001600160a01b03161460405180604001604052806002815260200161323960f01b8152509061044b5760405162461bcd60e51b8152600401610442919061165a565b60405180910390fd5b506001600160a01b038416600090815260208190526040812054906104708585610c13565b6040805180820190915260028152611a9b60f11b6020820152909150816104aa5760405162461bcd60e51b8152600401610442919061165a565b506104b58682610cf1565b6040518581526001600160a01b038716906000906000805160206117e78339815191529060200160405180910390a360408051868152602081018690526001600160a01b038816917f4c209b5fc8ad50758f13e2e1088ba56a560dff690a1c6fef26394f4c03821c4f910160405180910390a2501590505b9392505050565b60008061054060025490565b90508061054f57600091505090565b60055460065460405163d15e005360e01b81526001600160a01b0391821660048201526105df9261010090049091169063d15e00539060240160206040518083038186803b1580156105a057600080fd5b505afa1580156105b4573d6000803e3d6000fd5b505050506040513d601f19601f820116820180604052508101906105d89190611626565b8290610d9c565b91505090565b6001600160a01b0381166000908152602081905260408120546103e4565b6000610610848484610e57565b610662843361065d856040518060600160405280602881526020016117bf602891396001600160a01b038a1660009081526001602090815260408083203384529091529020549190610e64565b610af7565b826001600160a01b0316846001600160a01b03166000805160206117e78339815191528460405161069591815260200190565b60405180910390a35060019392505050565b3360008181526001602090815260408083206001600160a01b038716845290915281205490916103e091859061065d9086610e90565b60055460009061010090046001600160a01b0316336001600160a01b03161460405180604001604052806002815260200161323960f01b815250906107355760405162461bcd60e51b8152600401610442919061165a565b5060065461074d906001600160a01b03168484610e9c565b50919050565b60055460065460405163d15e005360e01b81526001600160a01b0391821660048201526000926103e492610100909104169063d15e00539060240160206040518083038186803b1580156107a657600080fd5b505afa1580156107ba573d6000803e3d6000fd5b505050506040513d601f19601f820116820180604052508101906107de9190611626565b6001600160a01b0384166000908152602081905260409020545b90610d9c565b60055461010090046001600160a01b0316336001600160a01b03161460405180604001604052806002815260200161323960f01b815250906108535760405162461bcd60e51b8152600401610442919061165a565b505050565b6060600480546103509061172b565b60006103e0338461065d85604051806060016040528060258152602001611807602591393360009081526001602090815260408083206001600160a01b038d1684529091529020549190610e64565b60006108c3338484610e57565b6040518281526001600160a01b0384169033906000805160206117e78339815191529060200160405180910390a350600192915050565b600061090560025490565b905090565b60055461010090046001600160a01b0316336001600160a01b03161460405180604001604052806002815260200161323960f01b8152509061095f5760405162461bcd60e51b8152600401610442919061165a565b50600061096c8383610c13565b60408051808201909152600281526106a760f31b6020820152909150816109a65760405162461bcd60e51b8152600401610442919061165a565b506109b18582610eee565b6006546109c8906001600160a01b03168585610e9c565b6040518381526000906001600160a01b038716906000805160206117e78339815191529060200160405180910390a3836001600160a01b0316856001600160a01b03167f5d624aa9c148153ab3446c1b154f660ee7701e549fe9b62dab7171b1c80e6fa28585604051610a45929190918252602082015260400190565b60405180910390a35050505050565b60055461010090046001600160a01b0316336001600160a01b03161460405180604001604052806002815260200161323960f01b81525090610aa95760405162461bcd60e51b8152600401610442919061165a565b50610ab78383836000610f9f565b816001600160a01b0316836001600160a01b03166000805160206117e783398151915283604051610aea91815260200190565b60405180910390a3505050565b6001600160a01b038316610b595760405162461bcd60e51b8152602060048201526024808201527f45524332303a20617070726f76652066726f6d20746865207a65726f206164646044820152637265737360e01b6064820152608401610442565b6001600160a01b038216610bba5760405162461bcd60e51b815260206004820152602260248201527f45524332303a20617070726f766520746f20746865207a65726f206164647265604482015261737360f01b6064820152608401610442565b6001600160a01b0383811660008181526001602090815260408083209487168084529482529182902085905590518481527f8c5be1e5ebec7d5bd14f71427d1e84f3dd0314c0f7b2291e5b200ac8c7c3b9259101610aea565b604080518082019091526002815261035360f41b602082015260009082610c4d5760405162461bcd60e51b8152600401610442919061165a565b506000610c5b6002846116a5565b90506b033b2e3c9fd0803ce8000000610c76826000196116e4565b610c8091906116a5565b84111560405180604001604052806002815260200161068760f31b81525090610cbc5760405162461bcd60e51b8152600401610442919061165a565b508281610cd56b033b2e3c9fd0803ce8000000876116c5565b610cdf919061168d565b610ce991906116a5565b949350505050565b6001600160a01b038216610d475760405162461bcd60e51b815260206004820152601f60248201527f45524332303a206d696e7420746f20746865207a65726f2061646472657373006044820152606401610442565b600254610d548183610e90565b6002556001600160a01b038316600090815260208190526040902054610d7a8184610e90565b6001600160a01b03909416600090815260208190526040902093909355505050565b6000821580610da9575081155b15610db6575060006103e4565b81610dce60026b033b2e3c9fd0803ce80000006116a5565b610dda906000196116e4565b610de491906116a5565b83111560405180604001604052806002815260200161068760f31b81525090610e205760405162461bcd60e51b8152600401610442919061165a565b506b033b2e3c9fd0803ce8000000610e396002826116a5565b610e4384866116c5565b610e4d919061168d565b61052d91906116a5565b6108538383836001610f9f565b60008184841115610e885760405162461bcd60e51b8152600401610442919061165a565b505050900390565b600061052d828461168d565b604080516001600160a01b038416602482015260448082018490528251808303909101815260649091019091526020810180516001600160e01b031663a9059cbb60e01b179052610853908490611179565b6001600160a01b038216610f4e5760405162461bcd60e51b815260206004820152602160248201527f45524332303a206275726e2066726f6d20746865207a65726f206164647265736044820152607360f81b6064820152608401610442565b600254610f5b818361124b565b6002556001600160a01b038316600090815260208181526040918290205482516060810190935260228084529092610d7a9286929061177790830139839190610e64565b60065460055460405163d15e005360e01b81526001600160a01b03928316600482018190529261010090920490911690600090829063d15e00539060240160206040518083038186803b158015610ff557600080fd5b505afa158015611009573d6000803e3d6000fd5b505050506040513d601f19601f8201168201806040525081019061102d9190611626565b90506000611054826107f88a6001600160a01b031660009081526020819052604090205490565b9050600061107b836107f88a6001600160a01b031660009081526020819052604090205490565b9050611091898961108c8a87610c13565b611257565b85156111185760405163d5ed393360e01b81526001600160a01b0386811660048301528a811660248301528981166044830152606482018990526084820184905260a4820183905285169063d5ed39339060c401600060405180830381600087803b1580156110ff57600080fd5b505af1158015611113573d6000803e3d6000fd5b505050505b876001600160a01b0316896001600160a01b03167f4beccb90f994c31aced7a23b5611020728a23d8ec5cddd1a3e9d97b96fda86668986604051611166929190918252602082015260400190565b60405180910390a3505050505050505050565b60006111ce826040518060400160405280602081526020017f5361666545524332303a206c6f772d6c6576656c2063616c6c206661696c6564815250856001600160a01b03166113bc9092919063ffffffff16565b80519091501561085357808060200190518101906111ec9190611606565b6108535760405162461bcd60e51b815260206004820152602a60248201527f5361666545524332303a204552433230206f7065726174696f6e20646964206e6044820152691bdd081cdd58d8d9595960b21b6064820152608401610442565b600061052d82846116e4565b6001600160a01b0383166112bb5760405162461bcd60e51b815260206004820152602560248201527f45524332303a207472616e736665722066726f6d20746865207a65726f206164604482015264647265737360d81b6064820152608401610442565b6001600160a01b03821661131d5760405162461bcd60e51b815260206004820152602360248201527f45524332303a207472616e7366657220746f20746865207a65726f206164647260448201526265737360e81b6064820152608401610442565b6000806000856001600160a01b03166001600160a01b0316815260200190815260200160002054905061136b8260405180606001604052806026815260200161179960269139839190610e64565b6001600160a01b03808616600090815260208190526040808220939093559085168152205461139a9083610e90565b6001600160a01b03909316600090815260208190526040902092909255505050565b6060610ce9848460008585843b6114155760405162461bcd60e51b815260206004820152601d60248201527f416464726573733a2063616c6c20746f206e6f6e2d636f6e74726163740000006044820152606401610442565b600080866001600160a01b03168587604051611431919061163e565b60006040518083038185875af1925050503d806000811461146e576040519150601f19603f3d011682016040523d82523d6000602084013e611473565b606091505b509150915061148382828661148e565b979650505050505050565b6060831561149d57508161052d565b8251156114ad5782518084602001fd5b8160405162461bcd60e51b8152600401610442919061165a565b80356001600160a01b03811681146114de57600080fd5b919050565b6000602082840312156114f4578081fd5b61052d826114c7565b6000806040838503121561150f578081fd5b611518836114c7565b9150611526602084016114c7565b90509250929050565b600080600060608486031215611543578081fd5b61154c846114c7565b925061155a602085016114c7565b9150604084013590509250925092565b6000806000806080858703121561157f578081fd5b611588856114c7565b9350611596602086016114c7565b93969395505050506040820135916060013590565b600080604083850312156115bd578182fd5b6115c6836114c7565b946020939093013593505050565b6000806000606084860312156115e8578283fd5b6115f1846114c7565b95602085013595506040909401359392505050565b600060208284031215611617578081fd5b8151801515811461052d578182fd5b600060208284031215611637578081fd5b5051919050565b600082516116508184602087016116fb565b9190910192915050565b60208152600082518060208401526116798160408501602087016116fb565b601f01601f19169190910160400192915050565b600082198211156116a0576116a0611760565b500190565b6000826116c057634e487b7160e01b81526012600452602481fd5b500490565b60008160001904831182151516156116df576116df611760565b500290565b6000828210156116f6576116f6611760565b500390565b60005b838110156117165781810151838201526020016116fe565b83811115611725576000848401525b50505050565b600181811c9082168061173f57607f821691505b6020821081141561074d57634e487b7160e01b600052602260045260246000fd5b634e487b7160e01b600052601160045260246000fdfe45524332303a206275726e20616d6f756e7420657863656564732062616c616e636545524332303a207472616e7366657220616d6f756e7420657863656564732062616c616e636545524332303a207472616e7366657220616d6f756e74206578636565647320616c6c6f77616e6365ddf252ad1be2c89b69c2b068fc378daa952ba7f163c4a11628f55a4df523b3ef45524332303a2064656372656173656420616c6c6f77616e63652062656c6f77207a65726fa2646970667358221220ee31ea01d65c46c0c127636e166a643f98b09ff4e4836935d54bb34554a8194064736f6c6343000804003360806040523480156200001157600080fd5b50604051620012bc380380620012bc83398101604081905262000034916200028f565b604080518082018252600e8082526d111150951513d2d15397d253541360921b60208084018281528551808701909652928552840152815191929160009162000081916003919062000136565b5081516200009790600490602085019062000136565b506005805460ff191660ff9290921691909117905550620000ba9050826200010d565b620000c58162000126565b6005805460ff191660ff85161790555050600780546001600160a01b039485166001600160a01b031991821617909155600880549390941692169190911790915550620003a7565b80516200012290600390602084019062000136565b5050565b8051620001229060049060208401905b82805462000144906200033b565b90600052602060002090601f016020900481019282620001685760008555620001b3565b82601f106200018357805160ff1916838001178555620001b3565b82800160010185558215620001b3579182015b82811115620001b357825182559160200191906001019062000196565b50620001c1929150620001c5565b5090565b5b80821115620001c15760008155600101620001c6565b600082601f830112620001ed578081fd5b81516001600160401b03808211156200020a576200020a62000378565b604051601f8301601f19908116603f0116810190828211818310171562000235576200023562000378565b8160405283815260209250868385880101111562000251578485fd5b8491505b8382101562000274578582018301518183018401529082019062000255565b838211156200028557848385830101525b9695505050505050565b600080600080600060a08688031215620002a7578081fd5b8551620002b4816200038e565b6020870151909550620002c7816200038e565b604087015190945060ff81168114620002de578182fd5b60608701519093506001600160401b0380821115620002fb578283fd5b6200030989838a01620001dc565b935060808801519150808211156200031f578283fd5b506200032e88828901620001dc565b9150509295509295909350565b600181811c908216806200035057607f821691505b602082108114156200037257634e487b7160e01b600052602260045260246000fd5b50919050565b634e487b7160e01b600052604160045260246000fd5b6001600160a01b0381168114620003a457600080fd5b50565b610f0580620003b76000396000f3fe608060405234801561001057600080fd5b50600436106101375760003560e01c80637535d246116100b8578063b1bf962d1161007c578063b1bf962d146102bb578063b3f1c93d146102c3578063b9a7b622146102d6578063c04a8a10146102de578063dd62ed3e146102f3578063f5298aca1461030157600080fd5b80637535d2461461026f57806395d89b4114610294578063a457c2d714610210578063a9059cbb1461029c578063b16a19de146102aa57600080fd5b806323b872dd116100ff57806323b872dd146101e8578063313ce567146101fb57806339509351146102105780636bd76d241461022357806370a082311461025c57600080fd5b806306fdde031461013c578063095ea7b31461015a5780630afbcdc91461017d57806318160ddd146101bf5780631da24f3e146101d5575b600080fd5b610144610314565b6040516101519190610d9b565b60405180910390f35b61016d610168366004610d28565b6103a6565b6040519015158152602001610151565b6101aa61018b366004610c60565b6001600160a01b03166000908152602081905260409020546002549091565b60408051928352602083019190915201610151565b6101c76103ef565b604051908152602001610151565b6101c76101e3366004610c60565b610482565b61016d6101f6366004610cac565b6104a2565b60055460405160ff9091168152602001610151565b61016d61021e366004610d28565b6104e6565b6101c7610231366004610c7a565b6001600160a01b03918216600090815260066020908152604080832093909416825291909152205490565b6101c761026a366004610c60565b610531565b6007546001600160a01b03165b6040516001600160a01b039091168152602001610151565b6101446105eb565b61016d6101f6366004610d28565b6008546001600160a01b031661027c565b6101c76105fa565b61016d6102d1366004610ce7565b610605565b6101c7600181565b6102f16102ec366004610d28565b610772565b005b6101c761021e366004610c7a565b6102f161030f366004610d51565b6107e9565b60606003805461032390610e5c565b80601f016020809104026020016040519081016040528092919081815260200182805461034f90610e5c565b801561039c5780601f106103715761010080835404028352916020019161039c565b820191906000526020600020905b81548152906001019060200180831161037f57829003601f168201915b5050505050905090565b60405162461bcd60e51b81526020600482015260166024820152751054141493d5905317d393d517d4d5541413d495115160521b60448201526000906064015b60405180910390fd5b60075460085460405163386497fd60e01b81526001600160a01b03918216600482015260009261047d92169063386497fd9060240160206040518083038186803b15801561043c57600080fd5b505afa158015610450573d6000803e3d6000fd5b505050506040513d601f19601f820116820180604052508101906104749190610d83565b6002549061090b565b905090565b6001600160a01b0381166000908152602081905260408120545b92915050565b60405162461bcd60e51b81526020600482015260166024820152751514905394d1915497d393d517d4d5541413d495115160521b60448201526000906064016103e6565b60405162461bcd60e51b815260206004820152601760248201527f414c4c4f57414e43455f4e4f545f535550504f5254454400000000000000000060448201526000906064016103e6565b6001600160a01b038116600090815260208190526040812054806105585750600092915050565b60075460085460405163386497fd60e01b81526001600160a01b0391821660048201526105e492919091169063386497fd9060240160206040518083038186803b1580156105a557600080fd5b505afa1580156105b9573d6000803e3d6000fd5b505050506040513d601f19601f820116820180604052508101906105dd9190610d83565b829061090b565b9392505050565b60606004805461032390610e5c565b600061047d60025490565b60006106196007546001600160a01b031690565b6001600160a01b0316336001600160a01b03161460405180604001604052806002815260200161323960f01b815250906106665760405162461bcd60e51b81526004016103e69190610d9b565b506001600160a01b0384166000908152602081905260408120549061068b85856109c6565b6040805180820190915260028152611a9b60f11b6020820152909150816106c55760405162461bcd60e51b81526004016103e69190610d9b565b506106d08682610aa4565b6040518581526001600160a01b038716906000907fddf252ad1be2c89b69c2b068fc378daa952ba7f163c4a11628f55a4df523b3ef9060200160405180910390a3856001600160a01b0316876001600160a01b03167f2f00e3cdd69a77be7ed215ec7b2a36784dd158f921fca79ac29deffa353fe6ee878760405161075f929190918252602082015260400190565b60405180910390a3501595945050505050565b3360008181526006602090815260408083206001600160a01b038781168086529190935292208490556008549192917fda919360433220e13b51e8c211e490d148e61a3bd53de8c097194e458b97f3e19116604080516001600160a01b039092168252602082018690520160405180910390a35050565b600754604080518082019091526002815261323960f01b6020820152906001600160a01b0316331461082e5760405162461bcd60e51b81526004016103e69190610d9b565b50600061083b83836109c6565b60408051808201909152600281526106a760f31b6020820152909150816108755760405162461bcd60e51b81526004016103e69190610d9b565b506108808482610b4f565b6040518381526000906001600160a01b038616907fddf252ad1be2c89b69c2b068fc378daa952ba7f163c4a11628f55a4df523b3ef9060200160405180910390a360408051848152602081018490526001600160a01b038616917f49995e5dd6158cf69ad3e9777c46755a1a826a446c6416992167462dad033b2a910160405180910390a250505050565b6000821580610918575081155b156109255750600061049c565b8161093d60026b033b2e3c9fd0803ce8000000610e06565b61094990600019610e45565b6109539190610e06565b83111560405180604001604052806002815260200161068760f31b8152509061098f5760405162461bcd60e51b81526004016103e69190610d9b565b506b033b2e3c9fd0803ce80000006109a8600282610e06565b6109b28486610e26565b6109bc9190610dee565b6105e49190610e06565b604080518082019091526002815261035360f41b602082015260009082610a005760405162461bcd60e51b81526004016103e69190610d9b565b506000610a0e600284610e06565b90506b033b2e3c9fd0803ce8000000610a2982600019610e45565b610a339190610e06565b84111560405180604001604052806002815260200161068760f31b81525090610a6f5760405162461bcd60e51b81526004016103e69190610d9b565b508281610a886b033b2e3c9fd0803ce800000087610e26565b610a929190610dee565b610a9c9190610e06565b949350505050565b6001600160a01b038216610afa5760405162461bcd60e51b815260206004820152601f60248201527f45524332303a206d696e7420746f20746865207a65726f20616464726573730060448201526064016103e6565b600254610b078183610c00565b6002556001600160a01b038316600090815260208190526040902054610b2d8184610c00565b6001600160a01b03909416600090815260208190526040902093909355505050565b6001600160a01b038216610baf5760405162461bcd60e51b815260206004820152602160248201527f45524332303a206275726e2066726f6d20746865207a65726f206164647265736044820152607360f81b60648201526084016103e6565b600254610bbc8183610c0c565b6002556001600160a01b038316600090815260208181526040918290205482516060810190935260228084529092610b2d92869290610eae90830139839190610c18565b60006105e48284610dee565b60006105e48284610e45565b60008184841115610c3c5760405162461bcd60e51b81526004016103e69190610d9b565b505050900390565b80356001600160a01b0381168114610c5b57600080fd5b919050565b600060208284031215610c71578081fd5b6105e482610c44565b60008060408385031215610c8c578081fd5b610c9583610c44565b9150610ca360208401610c44565b90509250929050565b600080600060608486031215610cc0578081fd5b610cc984610c44565b9250610cd760208501610c44565b9150604084013590509250925092565b60008060008060808587031215610cfc578081fd5b610d0585610c44565b9350610d1360208601610c44565b93969395505050506040820135916060013590565b60008060408385031215610d3a578182fd5b610d4383610c44565b946020939093013593505050565b600080600060608486031215610d65578283fd5b610d6e84610c44565b95602085013595506040909401359392505050565b600060208284031215610d94578081fd5b5051919050565b6000602080835283518082850152825b81811015610dc757858101830151858201604001528201610dab565b81811115610dd85783604083870101525b50601f01601f1916929092016040019392505050565b60008219821115610e0157610e01610e97565b500190565b600082610e2157634e487b7160e01b81526012600452602481fd5b500490565b6000816000190483118215151615610e4057610e40610e97565b500290565b600082821015610e5757610e57610e97565b500390565b600181811c90821680610e7057607f821691505b60208210811415610e9157634e487b7160e01b600052602260045260246000fd5b50919050565b634e487b7160e01b600052601160045260246000fdfe45524332303a206275726e20616d6f756e7420657863656564732062616c616e6365a2646970667358221220d580e73403f53d67bcfc26503af1a5d6e003d1b876fffaad9296c579d82856fb64736f6c6343000804003361014060405234801561001157600080fd5b50604051610aca380380610aca833981016040819052610030916100ad565b83608081815250506100608461004e61008a60201b61051b1760201c565b61009a60201b61052b1790919060201c565b60a05260609490941b6001600160601b03191660c05260e091909152610100525061012052610123565b6b033b2e3c9fd0803ce800000090565b60006100a68284610100565b9392505050565b600080600080600060a086880312156100c4578081fd5b85516001600160a01b03811681146100da578182fd5b602087015160408801516060890151608090990151929a91995097965090945092505050565b60008282101561011e57634e487b7160e01b81526011600452602481fd5b500390565b60805160a05160c05160601c60e05161010051610120516109046101c6600039600081816101a7015281816101d201526103d7015260008181608f0152818161021701528181610422015261047d01526000818160eb015281816101f60152818161040101526104b10152600061014301526000818160c7015261037101526000818161011c0152818161034501528181610395015261045901526109046000f3fe608060405234801561001057600080fd5b50600436106100885760003560e01c8063a15f30ac1161005b578063a15f30ac14610117578063c72c4d101461013e578063e5f516001461017d578063f4202409146101a557600080fd5b80630b3429a21461008d57806317319873146100c257806334762ca5146100e957806380031e371461010f575b600080fd5b7f00000000000000000000000000000000000000000000000000000000000000005b6040519081526020015b60405180910390f35b6100af7f000000000000000000000000000000000000000000000000000000000000000081565b7f00000000000000000000000000000000000000000000000000000000000000006100af565b6100af6101cb565b6100af7f000000000000000000000000000000000000000000000000000000000000000081565b6101657f000000000000000000000000000000000000000000000000000000000000000081565b6040516001600160a01b0390911681526020016100b9565b61019061018b366004610793565b610246565b604080519283526020830191909152016100b9565b7f00000000000000000000000000000000000000000000000000000000000000006100af565b60006102417f000000000000000000000000000000000000000000000000000000000000000061023b7f00000000000000000000000000000000000000000000000000000000000000007f0000000000000000000000000000000000000000000000000000000000000000610540565b90610540565b905090565b6040516370a0823160e01b81526001600160a01b03858116600483015260009182918291908916906370a082319060240160206040518083038186803b15801561028f57600080fd5b505afa1580156102a3573d6000803e3d6000fd5b505050506040513d601f19601f820116820180604052508101906102c791906107df565b90506102d78661023b838861052b565b90506103046040518060800160405280600081526020016000815260200160008152602001600081525090565b848152600060208201819052604082015284156103395780516103349061032c908490610540565b82519061054c565b61033c565b60005b606082018190527f000000000000000000000000000000000000000000000000000000000000000010156104515760006103cd7f00000000000000000000000000000000000000000000000000000000000000006103c77f0000000000000000000000000000000000000000000000000000000000000000856060015161052b90919063ffffffff16565b9061054c565b90506104466103fc7f000000000000000000000000000000000000000000000000000000000000000083610633565b61023b7f00000000000000000000000000000000000000000000000000000000000000007f0000000000000000000000000000000000000000000000000000000000000000610540565b6020830152506104dc565b6104d66104af7f00000000000000000000000000000000000000000000000000000000000000006103c77f0000000000000000000000000000000000000000000000000000000000000000856060015161063390919063ffffffff16565b7f000000000000000000000000000000000000000000000000000000000000000090610540565b60208201525b6104ff6127106104f983606001518861063390919063ffffffff16565b906106ee565b6040820181905260209091015190999098509650505050505050565b6b033b2e3c9fd0803ce800000090565b600061053782846108a1565b90505b92915050565b6000610537828461084a565b604080518082019091526002815261035360f41b60208201526000908261058f5760405162461bcd60e51b815260040161058691906107f7565b60405180910390fd5b50600061059d600284610862565b90506b033b2e3c9fd0803ce80000006105b8826000196108a1565b6105c29190610862565b84111560405180604001604052806002815260200161068760f31b815250906105fe5760405162461bcd60e51b815260040161058691906107f7565b5082816106176b033b2e3c9fd0803ce800000087610882565b610621919061084a565b61062b9190610862565b949350505050565b6000821580610640575081155b1561064d5750600061053a565b8161066560026b033b2e3c9fd0803ce8000000610862565b610671906000196108a1565b61067b9190610862565b83111560405180604001604052806002815260200161068760f31b815250906106b75760405162461bcd60e51b815260040161058691906107f7565b506b033b2e3c9fd0803ce80000006106d0600282610862565b6106da8486610882565b6106e4919061084a565b6105379190610862565b60008215806106fb575081155b156107085750600061053a565b816107166002612710610862565b610722906000196108a1565b61072c9190610862565b83111560405180604001604052806002815260200161068760f31b815250906107685760405162461bcd60e51b815260040161058691906107f7565b506127106106d0600282610862565b80356001600160a01b038116811461078e57600080fd5b919050565b600080600080600060a086880312156107aa578081fd5b6107b386610777565b94506107c160208701610777565b94979496505050506040830135926060810135926080909101359150565b6000602082840312156107f0578081fd5b5051919050565b6000602080835283518082850152825b8181101561082357858101830151858201604001528201610807565b818111156108345783604083870101525b50601f01601f1916929092016040019392505050565b6000821982111561085d5761085d6108b8565b500190565b60008261087d57634e487b7160e01b81526012600452602481fd5b500490565b600081600019048311821515161561089c5761089c6108b8565b500290565b6000828210156108b3576108b36108b8565b500390565b634e487b7160e01b600052601160045260246000fdfea26469706673582212205e283f379338cb8ba1574f0c1a6ac6811662720f9a568249c9b4d77c5e4c51ed64736f6c63430008040033",
  "linkReferences": {
    "contracts/libraries/logic/ReserveLogic.sol": {
      "ReserveLogic": [
        {
          "length": 20,
          "start": 14753
        }
      ]
    },
    "contracts/libraries/logic/ValidationLogic.sol": {
      "ValidationLogic": [
        {
          "length": 20,
          "start": 11455
        },
        {
          "length": 20,
          "start": 12150
        },
        {
          "length": 20,
          "start": 12865
        },
        {
          "length": 20,
          "start": 13938
        },
        {
          "length": 20,
          "start": 15894
        }
      ]
    },
    "contracts/libraries/math/WadRayMath.sol": {
      "WadRayMath": [
        {
          "length": 20,
          "start": 2443
        },
        {
          "length": 20,
          "start": 2578
        },
        {
          "length": 20,
          "start": 2713
        },
        {
          "length": 20,
          "start": 2848
        },
        {
          "length": 20,
          "start": 3568
        },
        {
          "length": 20,
          "start": 3703
        },
        {
          "length": 20,
          "start": 3837
        },
        {
          "length": 20,
          "start": 3972
        },
        {
          "length": 20,
          "start": 4643
        },
        {
          "length": 20,
          "start": 4778
        },
        {
          "length": 20,
          "start": 4913
        },
        {
          "length": 20,
          "start": 5049
        }
      ]
    }
  },
  "deployedLinkReferences": {}
}