{
  "_format": "hh-sol-artifact-1",
  "contractName": "AddressesProvider",
  "sourceName": "contracts/AddressesProvider.sol",
  "abi": [
    {
      "inputs": [],
      "stateMutability": "nonpayable",
      "type": "constructor"
    },
    {
      "inputs": [],
      "name": "DAI",
      "outputs": [
        {
          "internalType": "address",
          "name": "",
          "type": "address"
        }
      ],
      "stateMutability": "view",
      "type": "function"
    },
    {
      "inputs": [],
      "name": "DAI_TO_ETH",
      "outputs": [
        {
          "internalType": "address",
          "name": "",
          "type": "address"
        }
      ],
      "stateMutability": "view",
      "type": "function"
    },
    {
      "inputs": [],
      "name": "DAI_TO_USD",
      "outputs": [
        {
          "internalType": "address",
          "name": "",
          "type": "address"
        }
      ],
      "stateMutability": "view",
      "type": "function"
    },
    {
      "inputs": [],
      "name": "ETH_TO_USD",
      "outputs": [
        {
          "internalType": "address",
          "name": "",
          "type": "address"
        }
      ],
      "stateMutability": "view",
      "type": "function"
    },
    {
      "inputs": [],
      "name": "LINK",
      "outputs": [
        {
          "internalType": "address",
          "name": "",
          "type": "address"
        }
      ],
      "stateMutability": "view",
      "type": "function"
    },
    {
      "inputs": [],
      "name": "LINK_TO_ETH",
      "outputs": [
        {
          "internalType": "address",
          "name": "",
          "type": "address"
        }
      ],
      "stateMutability": "view",
      "type": "function"
    },
    {
      "inputs": [],
      "name": "LINK_TO_USD",
      "outputs": [
        {
          "internalType": "address",
          "name": "",
          "type": "address"
        }
      ],
      "stateMutability": "view",
      "type": "function"
    },
    {
      "inputs": [],
      "name": "WETH",
      "outputs": [
        {
          "internalType": "address",
          "name": "",
          "type": "address"
        }
      ],
      "stateMutability": "view",
      "type": "function"
    },
    {
      "inputs": [],
      "name": "getAssetsAndETHPriceSources",
      "outputs": [
        {
          "internalType": "address[]",
          "name": "",
          "type": "address[]"
        },
        {
          "internalType": "address[]",
          "name": "",
          "type": "address[]"
        }
      ],
      "stateMutability": "view",
      "type": "function"
    },
    {
      "inputs": [],
      "name": "getAssetsAndUSDPriceSources",
      "outputs": [
        {
          "internalType": "bytes32[]",
          "name": "",
          "type": "bytes32[]"
        },
        {
          "internalType": "address[]",
          "name": "",
          "type": "address[]"
        }
      ],
      "stateMutability": "view",
      "type": "function"
    },
    {
      "inputs": [],
      "name": "getLendingPool",
      "outputs": [
        {
          "internalType": "address",
          "name": "",
          "type": "address"
        }
      ],
      "stateMutability": "view",
      "type": "function"
    },
    {
      "inputs": [],
      "name": "getPriceOracle",
      "outputs": [
        {
          "internalType": "address",
          "name": "",
          "type": "address"
        }
      ],
      "stateMutability": "view",
      "type": "function"
    },
    {
      "inputs": [],
      "name": "getRefiCollection",
      "outputs": [
        {
          "internalType": "address",
          "name": "",
          "type": "address"
        }
      ],
      "stateMutability": "view",
      "type": "function"
    },
    {
      "inputs": [],
      "name": "getWETHGateway",
      "outputs": [
        {
          "internalType": "address",
          "name": "",
          "type": "address"
        }
      ],
      "stateMutability": "view",
      "type": "function"
    },
    {
      "inputs": [],
      "name": "isProduction",
      "outputs": [
        {
          "internalType": "bool",
          "name": "",
          "type": "bool"
        }
      ],
      "stateMutability": "view",
      "type": "function"
    },
    {
      "inputs": [],
      "name": "protocolDataProvider",
      "outputs": [
        {
          "internalType": "address",
          "name": "",
          "type": "address"
        }
      ],
      "stateMutability": "view",
      "type": "function"
    },
    {
      "inputs": [],
      "name": "walletBalanceProvider",
      "outputs": [
        {
          "internalType": "address",
          "name": "",
          "type": "address"
        }
      ],
      "stateMutability": "view",
      "type": "function"
    }
  ],
  "bytecode": "0x610140604052600080546001600160a01b031990811673c778417e063141139fce010982780140aa0cd5ab17909155600180548216735592ec0cfb4dbc12d3ab100b257153436a1f0fea1790556002805482167301be23585060835e02b77ef475b0cc51aa1e07091790556003805482167374825dbc8bf76cc4e9494d0ecb210f676efa001d17905560048054821673fabe80711f3ea886c3ac102c81ffc9825e16162e179055600580548216738a753747a1fa494ec906ce90e9f37563a8af630e179055600680548216732ba49aaa16e6afd2a993473cfb70fa8559b523cf1790556007805490911673d8bd0a1cb028a31aa859a21a3758685a95de46231790553480156200010e57600080fd5b506000306040516200012090620018ee565b6001600160a01b039091168152602001604051809103906000f0801580156200014d573d6000803e3d6000fd5b506001600160601b0319606082901b1660805260405190915060009082906200017690620018fc565b6001600160a01b039091168152602001604051809103906000f080158015620001a3573d6000803e3d6000fd5b506001600160601b0319606082901b1660e0529050604051620001c6906200190a565b604051809103906000f080158015620001e3573d6000803e3d6000fd5b50600080546001600160a01b0319166001600160a01b0392909216919091179055604051620002129062001918565b6040808252600990820152682220a4902a37b5b2b760b91b60608201526080602082018190526003908201526244414960e81b60a082015260c001604051809103906000f0801580156200026a573d6000803e3d6000fd5b50600180546001600160a01b0319166001600160a01b0392909216919091179055604051620002999062001918565b6040808252600a90820152692624a725902a37b5b2b760b11b6060820152608060208201819052600490820152634c494e4b60e01b60a082015260c001604051809103906000f080158015620002f3573d6000803e3d6000fd5b50600280546001600160a01b0319166001600160a01b03929092169190911790556040516706f05b59d3b20000906200032c9062001926565b908152602001604051809103906000f0801580156200034f573d6000803e3d6000fd5b50600380546001600160a01b0319166001600160a01b03929092169190911790556040516706f05b59d3b2000090620003889062001926565b908152602001604051809103906000f080158015620003ab573d6000803e3d6000fd5b50600480546001600160a01b0319166001600160a01b039290921691909117905560405163b2d05e0090620003e09062001926565b908152602001604051809103906000f08015801562000403573d6000803e3d6000fd5b50600580546001600160a01b0319166001600160a01b03929092169190911790556040516359682f0090620004389062001926565b908152602001604051809103906000f0801580156200045b573d6000803e3d6000fd5b50600680546001600160a01b0319166001600160a01b03929092169190911790556040516359682f0090620004909062001926565b908152602001604051809103906000f080158015620004b3573d6000803e3d6000fd5b50600780546001600160a01b0319166001600160a01b0392831617905560008054604051919216908490620004e89062001934565b6001600160a01b03928316815291166020820152604001604051809103906000f0801580156200051c573d6000803e3d6000fd5b50606081811b6001600160601b03191660a05260408051600280825292810190915291925060009190816020016020820280368337505060408051600280825260608201835293945060009390925090602083019080368337019050509050620005856200092f565b6000805460405193955091935091849184916001600160a01b0390911690670de0b6b3a764000090620005b89062001942565b620005c79493929190620019f4565b604051809103906000f080158015620005e4573d6000803e3d6000fd5b506001600160601b0319606082901b1660c0529050620006048662000a89565b6200060f8662000eef565b6200061a866200131e565b6040516349f5210d60e01b8152600360048201526202bf20602482015261012c60448201526802b5e3af16b188000060648201526101f460848201526001600160a01b038716906349f5210d9060a401600060405180830381600087803b1580156200068557600080fd5b505af11580156200069a573d6000803e3d6000fd5b50506040516349f5210d60e01b8152600260048201526202bf20602482015260646044820181905268056bc75e2d6310000090820152600060848201526001600160a01b03891692506349f5210d915060a401600060405180830381600087803b1580156200070857600080fd5b505af11580156200071d573d6000803e3d6000fd5b50506040516349f5210d60e01b8152600160048201526202bf206024820152606460448201819052680821ab0d4414980000908201526101f460848201526001600160a01b03891692506349f5210d915060a401600060405180830381600087803b1580156200078c57600080fd5b505af1158015620007a1573d6000803e3d6000fd5b50506040516349f5210d60e01b8152600060048201526202bf206024820152606460448201819052680ad78ebc5ac6200000908201526103e860848201526001600160a01b03891692506349f5210d915060a401600060405180830381600087803b1580156200081057600080fd5b505af115801562000825573d6000803e3d6000fd5b5050505030604051620008389062001950565b6001600160a01b039091168152602001604051809103906000f08015801562000865573d6000803e3d6000fd5b506001600160601b031960609190911b166101005260408051600380825260808201909252600091816020016020820280368337505060408051600380825260808201909252929350600092915060208201606080368337019050509050620008cd62001753565b604051919350915082908290620008e4906200195e565b620008f192919062001a3a565b604051809103906000f0801580156200090e573d6000803e3d6000fd5b5060601b6001600160601b031916610120525062001a959650505050505050565b60408051600280825260608281019093528291600091816020016020820280368337505060408051600280825260608201835293945060009390925090602083019080368337505060015484519293506001600160a01b031691849150600090620009aa57634e487b7160e01b600052603260045260246000fd5b6001600160a01b039283166020918202929092010152600254835191169083906001908110620009ea57634e487b7160e01b600052603260045260246000fd5b6001600160a01b0392831660209182029290920101526003548251911690829060009062000a2857634e487b7160e01b600052603260045260246000fd5b6001600160a01b03928316602091820292909201015260045482519116908290600190811062000a6857634e487b7160e01b600052603260045260246000fd5b6001600160a01b039092166020928302919091019091015290939092509050565b6000805460405183916001600160a01b03169060129062000aaa906200196c565b6001600160a01b03938416815292909116602083015260ff16604082015260a060608201819052600b908201526a30aba2aa24102a37b5b2b760a91b60c082015260e060808201819052600590820152640c2ae8aa8960db1b61010082015261012001604051809103906000f08015801562000b2a573d6000803e3d6000fd5b50905060008260008054906101000a90046001600160a01b0316601260405162000b54906200197a565b6001600160a01b03938416815292909116602083015260ff16604082015260a060608201819052600a90820152693222aa24102a37b5b2b760b11b60c082015260e060808201819052600490820152630c88aa8960e31b61010082015261012001604051809103906000f08015801562000bd2573d6000803e3d6000fd5b5060405163820f0fb560e01b815260416004820152909150600090309073__$acfa992bb9b9449e585e2b7d311f34c7d0$__9063820f0fb59060240160206040518083038186803b15801562000c2757600080fd5b505af415801562000c3c573d6000803e3d6000fd5b505050506040513d601f19601f8201168201806040525081019062000c62919062001996565b60405163820f0fb560e01b81526000600482015273__$acfa992bb9b9449e585e2b7d311f34c7d0$__9063820f0fb59060240160206040518083038186803b15801562000cae57600080fd5b505af415801562000cc3573d6000803e3d6000fd5b505050506040513d601f19601f8201168201806040525081019062000ce9919062001996565b60405163820f0fb560e01b81526008600482015273__$acfa992bb9b9449e585e2b7d311f34c7d0$__9063820f0fb59060240160206040518083038186803b15801562000d3557600080fd5b505af415801562000d4a573d6000803e3d6000fd5b505050506040513d601f19601f8201168201806040525081019062000d70919062001996565b60405163820f0fb560e01b81526064600482015273__$acfa992bb9b9449e585e2b7d311f34c7d0$__9063820f0fb59060240160206040518083038186803b15801562000dbc57600080fd5b505af415801562000dd1573d6000803e3d6000fd5b505050506040513d601f19601f8201168201806040525081019062000df7919062001996565b60405162000e059062001988565b6001600160a01b039095168552602085019390935260408401919091526060830152608082015260a001604051809103906000f08015801562000e4c573d6000803e3d6000fd5b5060005460405163260d456760e21b81526001600160a01b039182166004820152858216602482015284821660448201528183166064820152611d4c6084820152611f4060a4820152612af860c4820152601260e4820152919250851690639835159c90610104015b600060405180830381600087803b15801562000ed057600080fd5b505af115801562000ee5573d6000803e3d6000fd5b5050505050505050565b60015460405160009183916001600160a01b039091169060129062000f14906200196c565b6001600160a01b03938416815292909116602083015260ff16604082015260a060608201819052600a908201526930a220a4902a37b5b2b760b11b60c082015260e060808201819052600490820152636144414960e01b61010082015261012001604051809103906000f08015801562000f92573d6000803e3d6000fd5b5060015460405191925060009184916001600160a01b03169060129062000fb9906200197a565b6001600160a01b03938416815292909116602083015260ff16604082015260a060608201819052600a9082015269322220a4902a37b5b2b760b11b60c082015260e060808201819052600490820152636444414960e01b61010082015261012001604051809103906000f08015801562001037573d6000803e3d6000fd5b5060405163820f0fb560e01b815260506004820152909150600090309073__$acfa992bb9b9449e585e2b7d311f34c7d0$__9063820f0fb59060240160206040518083038186803b1580156200108c57600080fd5b505af4158015620010a1573d6000803e3d6000fd5b505050506040513d601f19601f82011682018060405250810190620010c7919062001996565b60405163820f0fb560e01b81526000600482015273__$acfa992bb9b9449e585e2b7d311f34c7d0$__9063820f0fb59060240160206040518083038186803b1580156200111357600080fd5b505af415801562001128573d6000803e3d6000fd5b505050506040513d601f19601f820116820180604052508101906200114e919062001996565b60405163820f0fb560e01b815260048082015273__$acfa992bb9b9449e585e2b7d311f34c7d0$__9063820f0fb59060240160206040518083038186803b1580156200119957600080fd5b505af4158015620011ae573d6000803e3d6000fd5b505050506040513d601f19601f82011682018060405250810190620011d4919062001996565b60405163820f0fb560e01b8152604b600482015273__$acfa992bb9b9449e585e2b7d311f34c7d0$__9063820f0fb59060240160206040518083038186803b1580156200122057600080fd5b505af415801562001235573d6000803e3d6000fd5b505050506040513d601f19601f820116820180604052508101906200125b919062001996565b604051620012699062001988565b6001600160a01b039095168552602085019390935260408401919091526060830152608082015260a001604051809103906000f080158015620012b0573d6000803e3d6000fd5b5060015460405163260d456760e21b81526001600160a01b039182166004820152858216602482015284821660448201528183166064820152611d4c6084820152611f4060a4820152612af860c4820152601260e4820152919250851690639835159c906101040162000eb5565b60025460405160009183916001600160a01b039091169060129062001343906200196c565b6001600160a01b03938416815292909116602083015260ff16604082015260a060608201819052600b908201526a30a624a725902a37b5b2b760a91b60c082015260e06080820181905260059082015264614c494e4b60d81b61010082015261012001604051809103906000f080158015620013c3573d6000803e3d6000fd5b5060025460405191925060009184916001600160a01b031690601290620013ea906200197a565b6001600160a01b03938416815292909116602083015260ff16604082015260a060608201819052600b908201526a322624a725902a37b5b2b760a91b60c082015260e06080820181905260059082015264644c494e4b60d81b61010082015261012001604051809103906000f0801580156200146a573d6000803e3d6000fd5b5060405163820f0fb560e01b8152602d6004820152909150600090309073__$acfa992bb9b9449e585e2b7d311f34c7d0$__9063820f0fb59060240160206040518083038186803b158015620014bf57600080fd5b505af4158015620014d4573d6000803e3d6000fd5b505050506040513d601f19601f82011682018060405250810190620014fa919062001996565b60405163820f0fb560e01b81526000600482015273__$acfa992bb9b9449e585e2b7d311f34c7d0$__9063820f0fb59060240160206040518083038186803b1580156200154657600080fd5b505af41580156200155b573d6000803e3d6000fd5b505050506040513d601f19601f8201168201806040525081019062001581919062001996565b60405163820f0fb560e01b81526007600482015273__$acfa992bb9b9449e585e2b7d311f34c7d0$__9063820f0fb59060240160206040518083038186803b158015620015cd57600080fd5b505af4158015620015e2573d6000803e3d6000fd5b505050506040513d601f19601f8201168201806040525081019062001608919062001996565b60405163820f0fb560e01b815261012c600482015273__$acfa992bb9b9449e585e2b7d311f34c7d0$__9063820f0fb59060240160206040518083038186803b1580156200165557600080fd5b505af41580156200166a573d6000803e3d6000fd5b505050506040513d601f19601f8201168201806040525081019062001690919062001996565b6040516200169e9062001988565b6001600160a01b039095168552602085019390935260408401919091526060830152608082015260a001604051809103906000f080158015620016e5573d6000803e3d6000fd5b5060025460405163260d456760e21b81526001600160a01b039182166004820152858216602482015284821660448201528183166064820152611d4c6084820152611f4060a4820152612af860c4820152601260e4820152919250851690639835159c906101040162000eb5565b6040805160038082526080820190925260609182916000916020820184803683375050604080516003808252608082019092529293506000929150602082016060803683370190505090506244414960e81b82600081518110620017c757634e487b7160e01b600052603260045260246000fd5b602002602001018181525050634c494e4b60e01b82600181518110620017fd57634e487b7160e01b600052603260045260246000fd5b6020026020010181815250506208aa8960eb1b826002815181106200183257634e487b7160e01b600052603260045260246000fd5b602090810291909101015260065481516001600160a01b039091169082906000906200186e57634e487b7160e01b600052603260045260246000fd5b6001600160a01b039283166020918202929092010152600754825191169082906001908110620018ae57634e487b7160e01b600052603260045260246000fd5b6001600160a01b03928316602091820292909201015260055482519116908290600290811062000a6857634e487b7160e01b600052603260045260246000fd5b614fd680620021cb83390190565b6120f980620071a183390190565b610969806200929a83390190565b610c5a8062009c0383390190565b610261806200a85d83390190565b611345806200aabe83390190565b610890806200be0383390190565b612744806200c69383390190565b610ebe806200edd783390190565b611c1b806200fc9583390190565b6113ae80620118b083390190565b610a318062012c5e83390190565b600060208284031215620019a8578081fd5b5051919050565b6000815180845260208085019450808401835b83811015620019e95781516001600160a01b031687529582019590820190600101620019c2565b509495945050505050565b60808152600062001a096080830187620019af565b828103602084015262001a1d8187620019af565b6001600160a01b0395909516604084015250506060015292915050565b604080825283519082018190526000906020906060840190828701845b8281101562001a755781518452928401929084019060010162001a57565b5050508381038285015262001a8b8186620019af565b9695505050505050565b60805160601c60a05160601c60c05160601c60e05160601c6101005160601c6101205160601c6106d462001af7600039600061016c015260006101a601526000610242015260006102c7015260006102090152600061011201526106d46000f3fe608060405234801561001057600080fd5b506004361061010b5760003560e01c806377532ed9116100a25780637f1b013c116100715780637f1b013c146102795780639ea47ca21461028c578063ad5c46481461029f578063e0bab4c4146102b2578063fca513a8146102c557600080fd5b806377532ed91461020757806377cc6afd1461022d578063786a3373146102405780637a541de11461026657600080fd5b80633f843bce116100de5780633f843bce146101a15780634aa72f0c146101c85780636ce36ce7146101de57806370342a7a146101f457600080fd5b80630261bf8b146101105780630cb42c701461014f5780630efd4452146101675780631b6b6d231461018e575b600080fd5b7f00000000000000000000000000000000000000000000000000000000000000005b6040516001600160a01b0390911681526020015b60405180910390f35b610157600081565b6040519015158152602001610146565b6101327f000000000000000000000000000000000000000000000000000000000000000081565b600254610132906001600160a01b031681565b6101327f000000000000000000000000000000000000000000000000000000000000000081565b6101d06102eb565b604051610146929190610619565b6101e6610441565b604051610146929190610647565b600454610132906001600160a01b031681565b7f0000000000000000000000000000000000000000000000000000000000000000610132565b600654610132906001600160a01b031681565b7f0000000000000000000000000000000000000000000000000000000000000000610132565b600354610132906001600160a01b031681565b600754610132906001600160a01b031681565b600554610132906001600160a01b031681565b600054610132906001600160a01b031681565b600154610132906001600160a01b031681565b7f0000000000000000000000000000000000000000000000000000000000000000610132565b60408051600280825260608281019093528291600091816020016020820280368337505060408051600280825260608201835293945060009390925090602083019080368337505060015484519293506001600160a01b03169184915060009061036557634e487b7160e01b600052603260045260246000fd5b6001600160a01b0392831660209182029290920101526002548351911690839060019081106103a457634e487b7160e01b600052603260045260246000fd5b6001600160a01b039283166020918202929092010152600354825191169082906000906103e157634e487b7160e01b600052603260045260246000fd5b6001600160a01b03928316602091820292909201015260045482519116908290600190811061042057634e487b7160e01b600052603260045260246000fd5b6001600160a01b039092166020928302919091019091015290939092509050565b6040805160038082526080820190925260609182916000916020820184803683375050604080516003808252608082019092529293506000929150602082016060803683370190505090506244414960e81b826000815181106104b457634e487b7160e01b600052603260045260246000fd5b602002602001018181525050634c494e4b60e01b826001815181106104e957634e487b7160e01b600052603260045260246000fd5b6020026020010181815250506208aa8960eb1b8260028151811061051d57634e487b7160e01b600052603260045260246000fd5b602090810291909101015260065481516001600160a01b0390911690829060009061055857634e487b7160e01b600052603260045260246000fd5b6001600160a01b03928316602091820292909201015260075482519116908290600190811061059757634e487b7160e01b600052603260045260246000fd5b6001600160a01b03928316602091820292909201015260055482519116908290600290811061042057634e487b7160e01b600052603260045260246000fd5b6000815180845260208085019450808401835b8381101561060e5781516001600160a01b0316875295820195908201906001016105e9565b509495945050505050565b60408152600061062c60408301856105d6565b828103602084015261063e81856105d6565b95945050505050565b604080825283519082018190526000906020906060840190828701845b8281101561068057815184529284019290840190600101610664565b5050508381038285015261069481866105d6565b969550505050505056fea2646970667358221220326f69aa976a3bfe714b59bae633a5c1a784382000c7c76f286757fd71d202dd64736f6c6343000804003360806040523480156200001157600080fd5b5060405162004fd638038062004fd683398101604081905262000034916200005f565b600080546001600160a01b0319166001600160a01b039290921691909117905560806005556200008f565b60006020828403121562000071578081fd5b81516001600160a01b038116811462000088578182fd5b9392505050565b614f37806200009f6000396000f3fe608060405234801561001057600080fd5b50600436106101725760003560e01c806369328dec116100de578063c44b11f711610097578063d5ed393311610071578063d5ed393314610569578063f45346dc1461057c578063f8119d511461058f578063fe65acfe1461059757600080fd5b8063c44b11f7146104ff578063d15e005314610541578063d1946dbc1461055457600080fd5b806369328dec146104395780636c665a551461044c5780639835159c1461045f578063a3aefba214610472578063b8d2927614610495578063bf92857c146104bf57600080fd5b8063386497fd11610130578063386497fd14610366578063434e178f146103875780634417a583146103af57806349f5210d146104005780635a3b74b9146104135780635ceae9c41461042657600080fd5b8062a718a9146101775780631d2118f91461018c5780631f735227146101cb5780632abfd515146101f557806335ea6a7514610208578063384c88c51461033c575b600080fd5b61018a61018536600461478c565b6105b2565b005b61018a61019a3660046146c2565b6001600160a01b03918216600090815260016020526040902060050180546001600160a01b03191691909216179055565b6101de6101d936600461468a565b610f3f565b6040516101ec929190614b76565b60405180910390f35b61018a6102033660046148f0565b610fed565b61032f61021636600461468a565b604080516101608101825260006101408201818152825260208201819052918101829052606081018290526080810182905260a0810182905260c0810182905260e081018290526101008101829052610120810191909152506001600160a01b03908116600090815260016020818152604092839020835161016081018552815461014082019081528152928101546001600160801b0380821693850193909352600160801b908190048316948401949094526002810154808316606085015293909304166080820152600382015464ffffffffff811660a0830152600160281b9004831660c08201526004820154831660e0820152600590910154918216610100820152600160a01b90910460ff1661012082015290565b6040516101ec9190614bd5565b61034f61034a3660046146c2565b61102b565b6040805192151583529015156020830152016101ec565b61037961037436600461468a565b611136565b6040519081526020016101ec565b61039a610395366004614942565b61115d565b604080519283526020830191909152016101ec565b6103f16103bd36600461468a565b60408051602080820183526000918290526001600160a01b0393909316815260028352819020815192830190915254815290565b604051905181526020016101ec565b61018a61040e366004614a78565b611287565b61018a610421366004614857565b611336565b6103796104343660046148af565b6114a1565b6103796104473660046148af565b611810565b61018a61045a3660046148af565b611c12565b61018a61046d3660046146fa565b61208b565b61048561048036600461468a565b6121d2565b60405190151581526020016101ec565b61018a6104a3366004614884565b6001600160a01b03909116600090815260016020526040902055565b6104d26104cd36600461468a565b612222565b604080519687526020870195909552938501929092526060840152608083015260a082015260c0016101ec565b6103f161050d36600461468a565b60408051602080820183526000918290526001600160a01b0393909316815260018352819020815192830190915254815290565b61037961054f36600461468a565b6122df565b61055c612300565b6040516101ec9190614b29565b61018a6105773660046147f3565b6123d3565b61018a61058a3660046148af565b6125f8565b600554610379565b6000546040516001600160a01b0390911681526020016101ec565b6001600160a01b0380861660009081526001602052604080822087841683529120600382015491929091600160281b9004161580159061060557506003810154600160281b90046001600160a01b031615155b60405180604001604052806002815260200161373960f01b815250906106475760405162461bcd60e51b815260040161063e9190614ba2565b60405180910390fd5b50600060026000876001600160a01b03166001600160a01b0316815260200190815260200160002090506106e06040518061018001604052806000815260200160008152602001600081526020016000815260200160008152602001600081526020016000815260200160008152602001600081526020016000815260200160006001600160a01b031681526020016000151581525090565b604080516020808201835284548252600480546000548551631f94a27560e31b8152955161077b968e966001969095600395946001600160a01b03169363fca513a893808301939290829003018186803b15801561073d57600080fd5b505afa158015610751573d6000803e3d6000fd5b505050506040513d601f19601f8201168201806040525081019061077591906146a6565b30612836565b610100860152505050506004838101546040516370a0823160e01b81526001600160a01b038a8116938201939093529116906370a082319060240160206040518083038186803b1580156107ce57600080fd5b505afa1580156107e2573d6000803e3d6000fd5b505050506040513d601f19601f820116820180604052508101906108069190614a3d565b602082018190526101008201516108209186918591612ddb565b6001600160a01b0387166000908152600660205260409020610843906007612ec4565b6003840154600160281b90046001600160a01b0390811661014083018190526040516370a0823160e01b81529189166004830152906370a082319060240160206040518083038186803b15801561089957600080fd5b505afa1580156108ad573d6000803e3d6000fd5b505050506040513d601f19601f820116820180604052508101906108d19190614a3d565b815260208101516108e490611388612eed565b6040820181905286116108f757856108fd565b80604001515b60608201819052815161091891869186918d918d9190612f94565b60e0830181905260c08301919091526060820151111561093d5760e081015160608201525b84610a0a576101408101516040516370a0823160e01b81526001600160a01b0391821660048201526000918b16906370a082319060240160206040518083038186803b15801561098c57600080fd5b505afa1580156109a0573d6000803e3d6000fd5b505050506040513d601f19601f820116820180604052508101906109c49190614a3d565b90508160c0015181101560405180604001604052806002815260200161343560f01b81525090610a075760405162461bcd60e51b815260040161063e9190614ba2565b50505b610a1383613278565b60048381015460608301516001860154604051637a94c56560e11b81526001600160a01b039093169363f5298aca93610a62938d939092600160801b9091046001600160801b03169101614aff565b600060405180830381600087803b158015610a7c57600080fd5b505af1158015610a90573d6000803e3d6000fd5b5050505060038301546060820151610abe9185918b91600160281b90046001600160a01b0316906000613338565b8415610c20576101408101516040516370a0823160e01b81523360048201526001600160a01b03909116906370a082319060240160206040518083038186803b158015610b0a57600080fd5b505afa158015610b1e573d6000803e3d6000fd5b505050506040513d601f19601f82011682018060405250810190610b429190614a3d565b61012082015261014081015160c082015160405163f866c31960e01b81526001600160a01b038a81166004830152336024830152604482019290925291169063f866c31990606401600060405180830381600087803b158015610ba457600080fd5b505af1158015610bb8573d6000803e3d6000fd5b5050505080610120015160001415610c1b573360009081526002602052604090206005850154610bf5908290600160a01b900460ff1660016135c2565b60405133906001600160a01b038c1690600080516020614ee283398151915290600090a3505b610cc2565b610c2984613278565b61014081015160c0820151610c459186918c9190600090613338565b61014081015160c08201516001860154604051636b81068560e11b81526001600160a01b039093169263d7020d0a92610c8f928c923392916001600160801b031690600401614ace565b600060405180830381600087803b158015610ca957600080fd5b505af1158015610cbd573d6000803e3d6000fd5b505050505b805160c08201511415610d1a576005840154610ceb908390600160a01b900460ff1660006135c2565b866001600160a01b0316896001600160a01b0316600080516020614ec283398151915260405160405180910390a35b60008054906101000a90046001600160a01b03166001600160a01b031663ad5c46486040518163ffffffff1660e01b815260040160206040518083038186803b158015610d6657600080fd5b505afa158015610d7a573d6000803e3d6000fd5b505050506040513d601f19601f82011682018060405250810190610d9e91906146a6565b6001600160a01b0316886001600160a01b03161415610e5857600383015460608201516040516323b872dd60e01b8152336004820152600160281b9092046001600160a01b03908116602484015260448301919091528916906323b872dd90606401602060405180830381600087803b158015610e1a57600080fd5b505af1158015610e2e573d6000803e3d6000fd5b505050506040513d601f19601f82011682018060405250810190610e529190614976565b50610e84565b60038301546060820151610e84916001600160a01b038b8116923392600160281b90049091169061364e565b6001600160a01b0387166000908152600660205260409020610ea79060076136a8565b610eb0876136f5565b866001600160a01b0316886001600160a01b03168a6001600160a01b03167fe413a321e8681d831f4dbccbca790d2952b56f977908e45be37335533e00528684606001518560c00151338b604051610f2c949392919093845260208401929092526001600160a01b031660408301521515606082015260800190565b60405180910390a4505050505050505050565b6001600160a01b038116600090815260066020526040808220905163072108db60e11b8152600481019190915260076024820152819073__$290865961ff33dccdf21412a02a8599e57$__90630e4211b690604401604080518083038186803b158015610fab57600080fd5b505af4158015610fbf573d6000803e3d6000fd5b505050506040513d601f19601f82011682018060405250810190610fe39190614992565b9094909350915050565b6001600160a01b0381166000908152600660205260409020611010906007612ec4565b61101b848484611810565b50611025816136f5565b50505050565b6001600160a01b038082166000908152600160208181526040808420815161016081018352815461014082019081528152938101546001600160801b0380821686860152600160801b91829004811686850152600280840154808316606089015292909204166080860152600382015464ffffffffff811660a0870152600160281b9004871660c08601526004820154871660e086015260059091015480871661010086015260ff600160a01b90910481166101208601908152968916865290835281852082519384019092529054825293519293849361110e91839116613796565b935061112b82610120015160ff16826137f190919063ffffffff16565b925050509250929050565b6001600160a01b038116600090815260016020526040812061115790613847565b92915050565b6001600160a01b0383166000908152600660205260408120819081906111849060076138b4565b604051637a6ddb5360e11b8152600760048201526024810182905290915060009073__$290865961ff33dccdf21412a02a8599e57$__9063f4dbb6a69060440160a06040518083038186803b1580156111dc57600080fd5b505af41580156111f0573d6000803e3d6000fd5b505050506040513d601f19601f8201168201806040525081019061121491906149c2565b805190915060031415611251576080810151611231908790613a8f565b935061124a816080015186613a8f90919063ffffffff16565b925061127d565b6080810151611261908790613a9b565b935061127a816080015186613a9b90919063ffffffff16565b92505b5050935093915050565b6000546001600160a01b031633146112e15760405162461bcd60e51b815260206004820152601c60248201527f43616c6c6572206e6f742041646472657373657350726f766964657200000000604482015260640161063e565b6040805160a08101825286815260208082019687528183019586526060820194855260808201938452600097885260079052952094518555925160018501559051600284015551600383015551600490910155565b6001600160a01b03828116600081815260016020818152604080842033855260029092528084206004805495549251635d30b37f60e01b81529081018490526024810196909652871515604487015260648601939093526084850192909252600360a485015260c484019290925290921660e482015273__$5201a97c05ba6aa659e2f36a933dd51801$__90635d30b37f906101040160006040518083038186803b1580156113e457600080fd5b505af41580156113f8573d6000803e3d6000fd5b5050336000908152600660205260409020611417925090506007612ec4565b600581015433600090815260026020526040902061143f91600160a01b900460ff16846135c2565b611448336136f5565b81156114775760405133906001600160a01b03851690600080516020614ee283398151915290600090a3505050565b60405133906001600160a01b03851690600080516020614ec283398151915290600090a35b505050565b6001600160a01b0383811660009081526001602090815260408083206003015481518083019092526002825261373960f01b928201929092529192600160281b909104166115025760405162461bcd60e51b815260040161063e9190614ba2565b506001600160a01b0384811660009081526001602052604080822060048082015492516370a0823160e01b815287861691810191909152909391909116906370a082319060240160206040518083038186803b15801561156157600080fd5b505afa158015611575573d6000803e3d6000fd5b505050506040513d601f19601f820116820180604052508101906115999190614a3d565b604051632835d86f60e21b8152600481018790526001600160a01b03861660248201526044810182905290915073__$5201a97c05ba6aa659e2f36a933dd51801$__9063a0d761bc9060640160006040518083038186803b1580156115fd57600080fd5b505af4158015611611573d6000803e3d6000fd5b5050506001600160a01b038516600090815260066020526040902061163891506007612ec4565b80808610156116445750845b61164d83613278565b6004838101546001850154604051637a94c56560e11b81526001600160a01b039092169263f5298aca92611697928a928792600160801b9092046001600160801b03169101614aff565b600060405180830381600087803b1580156116b157600080fd5b505af11580156116c5573d6000803e3d6000fd5b505050506003830154600160281b90046001600160a01b03166116ec848983856000613338565b6116f68383613a8f565b61172e5760058401546001600160a01b038716600090815260026020526040812061172e929091600160a01b90910460ff1690613aa7565b6117436001600160a01b03891633838561364e565b6040516388dd91a160e01b8152336004820152602481018390526001600160a01b038216906388dd91a190604401600060405180830381600087803b15801561178b57600080fd5b505af115801561179f573d6000803e3d6000fd5b505050506117ac866136f5565b336001600160a01b0316866001600160a01b0316896001600160a01b03167f4cdde6e09bb755c9a5589ebaec640bbfedff1362d4b255ebf8339782b9942faa856040516117fb91815260200190565b60405180910390a450925050505b9392505050565b6001600160a01b03838116600090815260016020526040808220600381015491516370a0823160e01b815233600482015292939092600160281b9092041690839082906370a082319060240160206040518083038186803b15801561187457600080fd5b505afa158015611888573d6000803e3d6000fd5b505050506040513d601f19601f820116820180604052508101906118ac9190614a3d565b9050856000198114156118bc5750805b33600090815260026020526040808220600480549354925163b139461f60e01b81526001600160a01b03808e16928201929092526024810186905260448101879052600160648201526084810192909252600360a483015260c4820193909352911660e482015273__$5201a97c05ba6aa659e2f36a933dd51801$__9063b139461f906101040160006040518083038186803b15801561195b57600080fd5b505af415801561196f573d6000803e3d6000fd5b5050505060008054906101000a90046001600160a01b03166001600160a01b03166377532ed96040518163ffffffff1660e01b815260040160206040518083038186803b1580156119bf57600080fd5b505afa1580156119d3573d6000803e3d6000fd5b505050506040513d601f19601f820116820180604052508101906119f791906146a6565b6001600160a01b0316336001600160a01b031614611a2957336000908152600660205260409020611a29906007612ec4565b611a3284613278565b611a40848985600085613338565b81811415611a98576005840154336000908152600260205260408120611a73929091600160a01b90910460ff16906135c2565b60405133906001600160a01b038a1690600080516020614ec283398151915290600090a35b6001840154604051636b81068560e11b81526001600160a01b0385169163d7020d0a91611ad99133918b9187916001600160801b0390911690600401614ace565b600060405180830381600087803b158015611af357600080fd5b505af1158015611b07573d6000803e3d6000fd5b5050505060008054906101000a90046001600160a01b03166001600160a01b03166377532ed96040518163ffffffff1660e01b815260040160206040518083038186803b158015611b5757600080fd5b505afa158015611b6b573d6000803e3d6000fd5b505050506040513d601f19601f82011682018060405250810190611b8f91906146a6565b6001600160a01b0316336001600160a01b031614611bb057611bb0336136f5565b856001600160a01b0316336001600160a01b0316896001600160a01b03167f3115d1449a7b732c986cba18244e897a450f61e1bb8d589cd2e69e6c8924f9f784604051611bff91815260200190565b60405180910390a4979650505050505050565b6001600160a01b038381166000908152600160209081526040918290206003015482518084019093526002835261373960f01b918301919091529091600160281b90910416611c745760405162461bcd60e51b815260040161063e9190614ba2565b506001600160a01b038084166000908152600160209081526040808320858516845260028352818420600382015485548451631f94a27560e31b8152945193979296600160281b90920483169533959294919093169263fca513a89260048082019391829003018186803b158015611ceb57600080fd5b505afa158015611cff573d6000803e3d6000fd5b505050506040513d601f19601f82011682018060405250810190611d2391906146a6565b8554909150600090611dcb9060301c60ff16611d4090600a614d3e565b60405163b3596f0760e01b81526001600160a01b038c81166004830152611dc5918c9187169063b3596f079060240160206040518083038186803b158015611d8757600080fd5b505afa158015611d9b573d6000803e3d6000fd5b505050506040513d601f19601f82011682018060405250810190611dbf9190614a3d565b90613b0c565b90613b18565b60048054604051631ab9238b60e31b81526001600160a01b03808c1693820193909352602481018c9052604481018490526001606482015260848101899052600360a482015260c481019190915290841660e48201523061010482015290915073__$5201a97c05ba6aa659e2f36a933dd51801$__9063d5c91c58906101240160006040518083038186803b158015611e6357600080fd5b505af4158015611e77573d6000803e3d6000fd5b5050506001600160a01b0388166000908152600660205260409020611e9e91506007612ec4565b611ea786613278565b60008660040160009054906101000a90046001600160a01b03166001600160a01b031663b3f1c93d858a8c8b60010160109054906101000a90046001600160801b03166040518563ffffffff1660e01b8152600401611f099493929190614ace565b602060405180830381600087803b158015611f2357600080fd5b505af1158015611f37573d6000803e3d6000fd5b505050506040513d601f19601f82011682018060405250810190611f5b9190614976565b90508015611f7f576005870154611f7f908790600160a01b900460ff166001613aa7565b611f8d878b8760008d613338565b604051634efecaa560e01b81526001600160a01b038581166004830152602482018b9052861690634efecaa590604401602060405180830381600087803b158015611fd757600080fd5b505af1158015611feb573d6000803e3d6000fd5b505050506040513d601f19601f8201168201806040525081019061200f9190614a3d565b50612019886136f5565b876001600160a01b03168a6001600160a01b03167f96558a334f4759f0e7c423d68c84721860bd8fbf94ddc4e55158ecb125ad04b5868c8b60020160109054906101000a90046001600160801b031660405161207793929190614aff565b60405180910390a350505050505050505050565b60408051808201909152600281526106e760f31b6020820152883b6120c35760405162461bcd60e51b815260040161063e9190614ba2565b50600054604080518082019091526002815261373560f01b6020820152906001600160a01b031633146121095760405162461bcd60e51b815260040161063e9190614ba2565b506001600160a01b0388811660009081526001602052604090819020905163f2a3bb1d60e01b815260048101919091528882166024820152878216604482015290861660648201526084810185905260a4810184905260c4810183905260ff821660e482015273__$d3b4366daeb9cadc7528af6145b50b2183$__9063f2a3bb1d906101040160006040518083038186803b1580156121a757600080fd5b505af41580156121bb573d6000803e3d6000fd5b505050506121c888613b24565b5050505050505050565b6001600160a01b03811660009081526002602090815260408083208151928301909152548082527f5555555555555555555555555555555555555555555555555555555555555555161515611809565b6000806000806000806122bc876001600260008b6001600160a01b03166001600160a01b03168152602001908152602001600020604051806020016040529081600082015481525050600360045460008054906101000a90046001600160a01b03166001600160a01b031663fca513a86040518163ffffffff1660e01b815260040160206040518083038186803b15801561073d57600080fd5b939950919750909450925090506122d4868684613c37565b935091939550919395565b6001600160a01b038116600090815260016020526040812061115790613c6b565b6060600060045467ffffffffffffffff81111561232d57634e487b7160e01b600052604160045260246000fd5b604051908082528060200260200182016040528015612356578160200160208202803683370190505b50905060005b6004548110156123cd5760008181526003602052604090205482516001600160a01b03909116908390839081106123a357634e487b7160e01b600052603260045260246000fd5b6001600160a01b0390921660209283029190910190910152806123c581614e6a565b91505061235c565b50919050565b6001600160a01b038087166000908152600160209081526040918290206003015482518084019093526002835261363360f01b91830191909152909133600160281b90920416146124375760405162461bcd60e51b815260040161063e9190614ba2565b506124f285600160026000896001600160a01b03166001600160a01b03168152602001908152602001600020600360045460008054906101000a90046001600160a01b03166001600160a01b031663fca513a86040518163ffffffff1660e01b815260040160206040518083038186803b1580156124b457600080fd5b505afa1580156124c8573d6000803e3d6000fd5b505050506040513d601f19601f820116820180604052508101906124ec91906146a6565b30613cc0565b6001600160a01b03868116600090815260016020526040902060050154600160a01b900460ff1690858116908716146125ef5761252f8385613a8f565b612589576001600160a01b03861660009081526002602052604081209061255990829084906135c2565b866001600160a01b0316886001600160a01b0316600080516020614ec283398151915260405160405180910390a3505b8115801561259657508315155b156125ef576001600160a01b03851660009081526002602052604090206125bf818360016135c2565b856001600160a01b0316886001600160a01b0316600080516020614ee283398151915260405160405180910390a3505b50505050505050565b6001600160a01b03831660009081526001602052604090819020905163674d75df60e11b8152600481018490526024810182905273__$5201a97c05ba6aa659e2f36a933dd51801$__9063ce9aebbe9060440160006040518083038186803b15801561266357600080fd5b505af4158015612677573d6000803e3d6000fd5b5050506001600160a01b038316600090815260066020526040902061269e91506007612ec4565b6003810154600160281b90046001600160a01b03166126bc82613278565b6126ca828683876000613338565b6126df6001600160a01b03861633838761364e565b6001820154604051630ab714fb60e11b81526000916001600160a01b0384169163156e29f6916127219188918a916001600160801b0390911690600401614aff565b602060405180830381600087803b15801561273b57600080fd5b505af115801561274f573d6000803e3d6000fd5b505050506040513d601f19601f820116820180604052508101906127739190614976565b905080156127dc5760058301546001600160a01b03851660009081526002602052604090206127ad91600160a01b900460ff1660016135c2565b836001600160a01b0316866001600160a01b0316600080516020614ee283398151915260405160405180910390a35b6127e5846136f5565b60408051338152602081018790526001600160a01b0380871692908916917f7cfff908a4b583f36430b25d75964c458d8ede8a99bd61be750e97ee1b2f3a96910160405180910390a3505050505050565b60008060008060006128db604051806102400160405280600081526020016000815260200160008152602001600081526020016000815260200160008152602001600081526020016000815260200160008152602001600081526020016000815260200160008152602001600081526020016000815260200160001515815260200160006001600160a01b031681526020016000151581526020016000151581525090565b8a516128fa576000806000806000199550955095509550955050612dcc565b600060e08201525b888160e001511015612d2b5760e081015161291e908c90613d38565b61292757612d13565b60e0810151600090815260208b81526040808320546001600160a01b03166101e085018190528352908e9052902061297b815461ffff80821692601083901c821692602081901c9092169160301c60ff1690565b90508460a0018560c00186608001838152508381525083815250505050876001600160a01b031663434e178f8f8460a001518560c001516040518463ffffffff1660e01b81526004016129ec939291906001600160a01b039390931683526020830191909152604082015260600190565b604080518083038186803b158015612a0357600080fd5b505afa158015612a17573d6000803e3d6000fd5b505050506040513d601f19601f82011682018060405250810190612a3b9190614a55565b60c084015260a08301526080820151612a5590600a614d3e565b60208301526101e082015160405163b3596f0760e01b81526001600160a01b039182166004820152908a169063b3596f079060240160206040518083038186803b158015612aa257600080fd5b505afa158015612ab6573d6000803e3d6000fd5b505050506040513d601f19601f82011682018060405250810190612ada9190614a3d565b825260c082015115801590612afa575060e0820151612afa908d906137f1565b15612c27578060030160059054906101000a90046001600160a01b03166001600160a01b03166370a082318f6040518263ffffffff1660e01b8152600401612b5191906001600160a01b0391909116815260200190565b60206040518083038186803b158015612b6957600080fd5b505afa158015612b7d573d6000803e3d6000fd5b505050506040513d601f19601f82011682018060405250810190612ba19190614a3d565b6040830181905260208301518351600092612bc09291611dc591613b0c565b610120840151909150612bd39082613a9b565b61012084015260a0830151612bf990612bed908390613b0c565b61016085015190613a9b565b61016084015260c0830151612c1f90612c13908390613b0c565b61018085015190613a9b565b610180840152505b60e0820151612c37908d90613796565b15612d11578060040160009054906101000a90046001600160a01b03166001600160a01b03166370a082318f6040518263ffffffff1660e01b8152600401612c8e91906001600160a01b0391909116815260200190565b60206040518083038186803b158015612ca657600080fd5b505afa158015612cba573d6000803e3d6000fd5b505050506040513d601f19601f82011682018060405250810190612cde9190614a3d565b6060830181905260208301518351612d0a92612cfe9291611dc591613b0c565b61014084015190613a9b565b6101408301525b505b60e08101805190612d2382614e6a565b905250612902565b600081610120015111612d3f576000612d54565b610120810151610160820151612d5491613b18565b610160820152610120810151612d6b576000612d80565b610120810151610180820151612d8091613b18565b6101808201819052610120820151610140830151612d9d92613d93565b610100820181905261012082015161014083015161016084015161018090940151919850965091945090925090505b97509750975097509792505050565b6040805180820190915260028152611a1960f11b6020820152670de0b6b3a76400008310612e1c5760405162461bcd60e51b815260040161063e9190614ba2565b506005840154604080516020810190915284548152600091612e489190600160a01b900460ff166137f1565b90508060405180604001604052806002815260200161343360f01b81525090612e845760405162461bcd60e51b815260040161063e9190614ba2565b506040805180820190915260028152610d0d60f21b602082015282612ebc5760405162461bcd60e51b815260040161063e9190614ba2565b505050505050565b8154612ed757681043561a882930000082555b612ee182826138b4565b82555042600290910155565b6000821580612efa575081155b15612f0757506000611157565b81612f156002612710614cdb565b612f2190600019614e05565b612f2b9190614cdb565b83111560405180604001604052806002815260200161068760f31b81525090612f675760405162461bcd60e51b815260040161063e9190614ba2565b50612710612f76600282614cdb565b612f808486614de6565b612f8a9190614cc3565b6118099190614cdb565b60008060008060008060009054906101000a90046001600160a01b03166001600160a01b031663fca513a86040518163ffffffff1660e01b815260040160206040518083038186803b158015612fe957600080fd5b505afa158015612ffd573d6000803e3d6000fd5b505050506040513d601f19601f8201168201806040525081019061302191906146a6565b90506130636040518060e00160405280600081526020016000815260200160008152602001600081526020016000815260200160008152602001600081525090565b60405163b3596f0760e01b81526001600160a01b038b8116600483015283169063b3596f079060240160206040518083038186803b1580156130a457600080fd5b505afa1580156130b8573d6000803e3d6000fd5b505050506040513d601f19601f820116820180604052508101906130dc9190614a3d565b6040828101919091525163b3596f0760e01b81526001600160a01b038a8116600483015283169063b3596f079060240160206040518083038186803b15801561312457600080fd5b505afa158015613138573d6000803e3d6000fd5b505050506040513d601f19601f8201168201806040525081019061315c9190614a3d565b60608201526131878c5461ffff80821692601083901c821692602081901c9092169160301c60ff1690565b60c0850152602084015250508a5460301c60ff1660a082018190526131f1906131c0906131b590600a614d3e565b604084015190613b0c565b611dc583602001516131eb8560c00151600a6131dc9190614d3e565b6060870151611dbf908f613b0c565b90612eed565b6080820181905287101561325c57869350613255816020015161324f61322c8460c00151600a6132219190614d3e565b606086015190613b0c565b611dc58560a00151600a6132409190614d3e565b6040870151611dbf908b613b0c565b90613db7565b9250613267565b806080015193508792505b50919a909950975050505050505050565b60008160040160009054906101000a90046001600160a01b03166001600160a01b031663b1bf962d6040518163ffffffff1660e01b815260040160206040518083038186803b1580156132ca57600080fd5b505afa1580156132de573d6000803e3d6000fd5b505050506040513d601f19601f820116820180604052508101906133029190614a3d565b600183015460038401549192506001600160801b03600160801b820481169291169064ffffffffff166125ef8585848685613e79565b6133636040518060800160405280600081526020016000815260200160008152602001600081525090565b60018601546004808801546040805163b1bf962d60e01b8152905161340094600160801b90046001600160801b0316936001600160a01b039093169263b1bf962d92808201926020929091829003018186803b1580156133c257600080fd5b505afa1580156133d6573d6000803e3d6000fd5b505050506040513d601f19601f820116820180604052508101906133fa9190614a3d565b90613fd6565b6060820181905260058701546040516272fa8b60e91b81526001600160a01b03888116600483015287811660248301526044820187905260648201869052608482019390935291169063e5f516009060a401604080518083038186803b15801561346957600080fd5b505afa15801561347d573d6000803e3d6000fd5b505050506040513d601f19601f820116820180604052508101906134a19190614a55565b604080840191909152602080840183905281518083019092526002825261353360f01b90820152906001600160801b0310156134f05760405162461bcd60e51b815260040161063e9190614ba2565b50604080820151815180830190925260028252610d4d60f21b60208301526001600160801b0310156135355760405162461bcd60e51b815260040161063e9190614ba2565b506020818101516040808401516001600160801b03808416600160801b82841681029190911760028d015560018c0154845195865295850192909252848116848401529304909216606082015290516001600160a01b038716917f4063a2df84b66bb796eb32622851d833e57b2c4292900c18f963af8808b13e35919081900360800190a2505050505050565b604080518082019091526002815261373760f01b6020820152608083106135fc5760405162461bcd60e51b815260040161063e9190614ba2565b50613608826002614de6565b613613906001614cc3565b8161361f576000613622565b60015b60ff16901b613632836002614de6565b61363d906001614cc3565b8454600190911b1916179092555050565b604080516001600160a01b0385811660248301528416604482015260648082018490528251808303909101815260849091019091526020810180516001600160e01b03166323b872dd60e01b179052611025908590614073565b60006136b8828460000154614145565b606081015184549192506136cc9190613a8f565b504260028401558254681043561a8829300000111561149c575050681043561a88293000009055565b6001600160a01b03808216600090815260026020908152604080832081518084018352905481526004805485548451631f94a27560e31b8152945196978897613768978b9760019796600396959094169363fca513a8938282019392909190829003018186803b15801561073d57600080fd5b5050506001600160a01b0385166000908152600660205260409020919350915061149c908383611d4c6142e9565b60006080821060405180604001604052806002815260200161373760f01b815250906137d55760405162461bcd60e51b815260040161063e9190614ba2565b506137e1826002614de6565b925190921c600116151592915050565b60006080821060405180604001604052806002815260200161373760f01b815250906138305760405162461bcd60e51b815260040161063e9190614ba2565b5061383c826002614de6565b6137e1906001614cc3565b600381015460009064ffffffffff90811690421681141561387b57505060010154600160801b90046001600160801b031690565b600183015460028401546000916138ac916001600160801b03600160801b928390048116926133fa92041685614338565b949350505050565b600082600201544214156138ca57508154611157565b82546040805160a08101825260008082526020820181905291810182905260608101829052608081018290526002860154613908576000915061391a565b60028601546139179042614e05565b91505b600061392a6305265c0084614cdb565b90506139368685614145565b60208101516040820151919350908261398b578061396461395a8b60010154614437565b6131eb8886614486565b61396e9190614de6565b61397a906103e8614de6565b6139849087614cc3565b9550613a64565b600061399b6305265c0085614de6565b6139a59087614e05565b905060005b848161ffff161015613a2457826139d56139c78d60010154614437565b6131eb6305265c0088614486565b6139df9190614de6565b6139eb906103e8614de6565b6139f59089614cc3565b9750613a018a89614145565b955085602001519350856040015192508080613a1c90614e48565b9150506139aa565b5081613a40613a368c60010154614437565b6131eb8487614486565b613a4a9190614de6565b613a56906103e8614de6565b613a609088614cc3565b9650505b6830ca024f987b900000861115613a82576830ca024f987b90000095505b5093979650505050505050565b60006118098284614e05565b60006118098284614cc3565b604080518082019091526002815261373760f01b602082015260808310613ae15760405162461bcd60e51b815260040161063e9190614ba2565b50613aed826002614de6565b81613af9576000613afc565b60015b60ff16901b61363d836002614de6565b60006118098284614de6565b60006118098284614cdb565b600454600554604080518082019091526002815261363560f01b6020820152908210613b635760405162461bcd60e51b815260040161063e9190614ba2565b506001600160a01b038216600090815260016020526040812060050154600160a01b900460ff16151580613bcc57506000805260036020527f3617319a054d772f909f7c479a2cebe5066e836a939412e32403c99029b92eff546001600160a01b038481169116145b90508061149c576001600160a01b0383166000818152600160208181526040808420600501805460ff60a01b1916600160a01b60ff8a1602179055868452600390915290912080546001600160a01b031916909217909155613c2f908390614cc3565b600455505050565b600080613c448584612eed565b905083811015613c58576000915050611809565b613c628185613a8f565b95945050505050565b600381015460009064ffffffffff908116904216811415613c98575050600101546001600160801b031690565b600183015460028401546000916138ac916001600160801b03918216916133fa911685614540565b604080516020810190915285548152600090613ce3908990899088888888612836565b945050505050670de0b6b3a7640000811015604051806040016040528060018152602001601b60f91b81525090613d2d5760405162461bcd60e51b815260040161063e9190614ba2565b505050505050505050565b60006080821060405180604001604052806002815260200161373760f01b81525090613d775760405162461bcd60e51b815260040161063e9190614ba2565b50613d83826002614de6565b925190921c600316151592915050565b600082613da35750600019611809565b6138ac83613db18685612eed565b90614486565b604080518082019091526002815261035360f41b602082015260009082613df15760405162461bcd60e51b815260040161063e9190614ba2565b506000613dff600284614cdb565b9050612710613e1082600019614e05565b613e1a9190614cdb565b84111560405180604001604052806002815260200161068760f31b81525090613e565760405162461bcd60e51b815260040161063e9190614ba2565b508281613e6561271087614de6565b613e6f9190614cc3565b6138ac9190614cdb565b600285015460009081906001600160801b031685858215613fb0576000613ea08488614540565b9050613eac818a613fd6565b604080518082019091526002815261353160f01b60208201529093506001600160801b03841115613ef05760405162461bcd60e51b815260040161063e9190614ba2565b5060018b0180546fffffffffffffffffffffffffffffffff19166001600160801b0385161790558915613fae5760028b0154600090613f3f90600160801b90046001600160801b031689614338565b9050613f4b818a613fd6565b6040805180820190915260028152611a9960f11b60208201529093506001600160801b03841115613f8f5760405162461bcd60e51b815260040161063e9190614ba2565b505060018b0180546001600160801b03808516600160801b0291161790555b505b600399909901805464ffffffffff19164264ffffffffff16179055989650505050505050565b6000821580613fe3575081155b15613ff057506000611157565b8161400860026b033b2e3c9fd0803ce8000000614cdb565b61401490600019614e05565b61401e9190614cdb565b83111560405180604001604052806002815260200161068760f31b8152509061405a5760405162461bcd60e51b815260040161063e9190614ba2565b506b033b2e3c9fd0803ce8000000612f76600282614cdb565b60006140c8826040518060400160405280602081526020017f5361666545524332303a206c6f772d6c6576656c2063616c6c206661696c6564815250856001600160a01b031661457f9092919063ffffffff16565b80519091501561149c57808060200190518101906140e69190614976565b61149c5760405162461bcd60e51b815260206004820152602a60248201527f5361666545524332303a204552433230206f7065726174696f6e20646964206e6044820152691bdd081cdd58d8d9595960b21b606482015260840161063e565b6141776040518060a0016040528060008152602001600081526020016000815260200160008152602001600081525090565b682086ac35105260000082116141d55750600360008181526020848152604091829020825160a08101845281548152600182015492810192909252600281015492820192909252918101546060830152600401546080820152611157565b6825f273933db5700000821161423c57826000600281526020019081526020016000206040518060a0016040529081600082015481526020016001820154815260200160028201548152602001600382015481526020016004820154815250509050611157565b682b5e3af16b18800000821161429a5750600160008181526020848152604091829020825160a08101845281548152938101549184019190915260028101549183019190915260038101546060830152600401546080820152611157565b5060008080526020838152604091829020825160a08101845281548152600182015492810192909252600281015492820192909252600382015460608201526004909101546080820152611157565b8115806142f4575082155b156143055760006001850155611025565b655af3107a40006143236143198383614de6565b613db18587614486565b61432d9190614cdb565b600185015550505050565b60008061434c4264ffffffffff8516613a8f565b905080614368576b033b2e3c9fd0803ce8000000915050611157565b6000614375600183614e05565b9050600060028311614388576000614393565b614393600284614e05565b905060006143a56301e1338088614cdb565b905060006143b38280613fd6565b905060006143c18284613fd6565b9050600060026143d584611dbf8a8a613b0c565b6143df9190614cdb565b9050600060066143f584611dbf89818d8d613b0c565b6143ff9190614cdb565b90506144288161442284816144148a8e613b0c565b6b033b2e3c9fd0803ce80000005b90613a9b565b9b9a5050505050505050505050565b600061213482111561446d57612af88211156144565750610fa0919050565b614461826004614de6565b6111579061abe0614e05565b61213461447c83612710614de6565b6111579190614cdb565b604080518082019091526002815261035360f41b6020820152600090826144c05760405162461bcd60e51b815260040161063e9190614ba2565b5060006144ce600284614cdb565b9050670de0b6b3a76400006144e582600019614e05565b6144ef9190614cdb565b84111560405180604001604052806002815260200161068760f31b8152509061452b5760405162461bcd60e51b815260040161063e9190614ba2565b508281613e65670de0b6b3a764000087614de6565b6000806145544264ffffffffff8516613a8f565b90506138ac6b033b2e3c9fd0803ce80000006301e133806145758785613b0c565b6144229190614cdb565b60606138ac848460008585843b6145d85760405162461bcd60e51b815260206004820152601d60248201527f416464726573733a2063616c6c20746f206e6f6e2d636f6e7472616374000000604482015260640161063e565b600080866001600160a01b031685876040516145f49190614ab2565b60006040518083038185875af1925050503d8060008114614631576040519150601f19603f3d011682016040523d82523d6000602084013e614636565b606091505b5091509150614646828286614651565b979650505050505050565b60608315614660575081611809565b8251156146705782518084602001fd5b8160405162461bcd60e51b815260040161063e9190614ba2565b60006020828403121561469b578081fd5b813561180981614e9b565b6000602082840312156146b7578081fd5b815161180981614e9b565b600080604083850312156146d4578081fd5b82356146df81614e9b565b915060208301356146ef81614e9b565b809150509250929050565b600080600080600080600080610100898b031215614716578384fd5b883561472181614e9b565b9750602089013561473181614e9b565b9650604089013561474181614e9b565b9550606089013561475181614e9b565b94506080890135935060a0890135925060c0890135915060e089013560ff8116811461477b578182fd5b809150509295985092959890939650565b600080600080600060a086880312156147a3578081fd5b85356147ae81614e9b565b945060208601356147be81614e9b565b935060408601356147ce81614e9b565b92506060860135915060808601356147e581614eb3565b809150509295509295909350565b60008060008060008060c0878903121561480b578182fd5b863561481681614e9b565b9550602087013561482681614e9b565b9450604087013561483681614e9b565b959894975094956060810135955060808101359460a0909101359350915050565b60008060408385031215614869578182fd5b823561487481614e9b565b915060208301356146ef81614eb3565b60008060408385031215614896578182fd5b82356148a181614e9b565b946020939093013593505050565b6000806000606084860312156148c3578283fd5b83356148ce81614e9b565b92506020840135915060408401356148e581614e9b565b809150509250925092565b60008060008060808587031215614905578182fd5b843561491081614e9b565b935060208501359250604085013561492781614e9b565b9150606085013561493781614e9b565b939692955090935050565b600080600060608486031215614956578081fd5b833561496181614e9b565b95602085013595506040909401359392505050565b600060208284031215614987578081fd5b815161180981614eb3565b600080604083850312156149a4578182fd5b8251600481106149b2578283fd5b6020939093015192949293505050565b600060a082840312156149d3578081fd5b60405160a0810181811067ffffffffffffffff82111715614a0257634e487b7160e01b83526041600452602483fd5b806040525082518152602083015160208201526040830151604082015260608301516060820152608083015160808201528091505092915050565b600060208284031215614a4e578081fd5b5051919050565b60008060408385031215614a67578182fd5b505080516020909101519092909150565b600080600080600060a08688031215614a8f578283fd5b505083359560208501359550604085013594606081013594506080013592509050565b60008251614ac4818460208701614e1c565b9190910192915050565b6001600160a01b03948516815292909316602083015260408201526001600160801b03909116606082015260800190565b6001600160a01b0393909316835260208301919091526001600160801b0316604082015260600190565b6020808252825182820181905260009190848201906040850190845b81811015614b6a5783516001600160a01b031683529284019291840191600101614b45565b50909695505050505050565b6040810160048410614b9857634e487b7160e01b600052602160045260246000fd5b9281526020015290565b6020815260008251806020840152614bc1816040850160208701614e1c565b601f01601f19169190910160400192915050565b815151815261014081016020830151614bf960208401826001600160801b03169052565b506040830151614c1460408401826001600160801b03169052565b506060830151614c2f60608401826001600160801b03169052565b506080830151614c4a60808401826001600160801b03169052565b5060a0830151614c6360a084018264ffffffffff169052565b5060c0830151614c7e60c08401826001600160a01b03169052565b5060e0830151614c9960e08401826001600160a01b03169052565b50610100838101516001600160a01b0316908301526101209283015160ff16929091019190915290565b60008219821115614cd657614cd6614e85565b500190565b600082614cf657634e487b7160e01b81526012600452602481fd5b500490565b600181815b80851115614d36578160001904821115614d1c57614d1c614e85565b80851615614d2957918102915b93841c9390800290614d00565b509250929050565b60006118098383600082614d5457506001611157565b81614d6157506000611157565b8160018114614d775760028114614d8157614d9d565b6001915050611157565b60ff841115614d9257614d92614e85565b50506001821b611157565b5060208310610133831016604e8410600b8410161715614dc0575081810a611157565b614dca8383614cfb565b8060001904821115614dde57614dde614e85565b029392505050565b6000816000190483118215151615614e0057614e00614e85565b500290565b600082821015614e1757614e17614e85565b500390565b60005b83811015614e37578181015183820152602001614e1f565b838111156110255750506000910152565b600061ffff80831681811415614e6057614e60614e85565b6001019392505050565b6000600019821415614e7e57614e7e614e85565b5060010190565b634e487b7160e01b600052601160045260246000fd5b6001600160a01b0381168114614eb057600080fd5b50565b8015158114614eb057600080fdfe44c58d81365b66dd4b1a7f36c25aa97b8c71c361ee4937adc1a00000227db5dd00058a56ea94653cdf4f152d227ace22d4c00ad99e2a43f58cb7d9e3feb295f2a26469706673582212202cc5b9d85f31f5eedb3f9b4c9fe7927bb61b2f2a4a0eca4d03cba9bc434a877364736f6c6343000804003360a06040523480156200001157600080fd5b50604051620020f9380380620020f983398101604081905262000034916200015a565b604080518082018252600d81526c1499599a48141c9bdd1bd8dbdb609a1b6020808301918252835180850190945260048452635245464960e01b9084015281519192916200008591600091620000b4565b5080516200009b906001906020840190620000b4565b50505060601b6001600160601b031916608052620001c7565b828054620000c2906200018a565b90600052602060002090601f016020900481019282620000e6576000855562000131565b82601f106200010157805160ff191683800117855562000131565b8280016001018555821562000131579182015b828111156200013157825182559160200191906001019062000114565b506200013f92915062000143565b5090565b5b808211156200013f576000815560010162000144565b6000602082840312156200016c578081fd5b81516001600160a01b038116811462000183578182fd5b9392505050565b600181811c908216806200019f57607f821691505b60208210811415620001c157634e487b7160e01b600052602260045260246000fd5b50919050565b60805160601c611f13620001e66000396000610ca00152611f136000f3fe608060405234801561001057600080fd5b50600436106101005760003560e01c806395d89b4111610097578063e985e9c511610066578063e985e9c51461021d578063ef5f5c0e14610259578063f15376861461026c578063f8ac93e81461018057600080fd5b806395d89b41146101dc578063a22cb465146101e4578063b88d4fde146101f7578063c87b56dd1461020a57600080fd5b806323b872dd116100d357806323b872dd1461018257806342842e0e146101955780636352211e146101a857806370a08231146101bb57600080fd5b806301ffc9a71461010557806306fdde031461012d578063081812fc14610142578063095ea7b31461016d575b600080fd5b61011861011336600461193d565b610295565b60405190151581526020015b60405180910390f35b6101356102e7565b6040516101249190611ccd565b610155610150366004611a93565b610379565b6040516001600160a01b039091168152602001610124565b61018061017b366004611914565b610413565b005b610180610190366004611826565b610529565b6101806101a3366004611826565b61055a565b6101556101b6366004611a93565b610575565b6101ce6101c93660046117da565b6105ec565b604051908152602001610124565b610135610673565b6101806101f23660046118da565b610682565b610180610205366004611861565b610691565b610135610218366004611a93565b6106c9565b61011861022b3660046117f4565b6001600160a01b03918216600090815260056020908152604080832093909416825291909152205460ff1690565b6101806102673660046119a5565b61074b565b6101ce61027a3660046117da565b6001600160a01b031660009081526008602052604090205490565b60006001600160e01b031982166380ac58cd60e01b14806102c657506001600160e01b03198216635b5e139f60e01b145b806102e157506301ffc9a760e01b6001600160e01b03198316145b92915050565b6060600080546102f690611e1d565b80601f016020809104026020016040519081016040528092919081815260200182805461032290611e1d565b801561036f5780601f106103445761010080835404028352916020019161036f565b820191906000526020600020905b81548152906001019060200180831161035257829003601f168201915b5050505050905090565b6000818152600260205260408120546001600160a01b03166103f75760405162461bcd60e51b815260206004820152602c60248201527f4552433732313a20617070726f76656420717565727920666f72206e6f6e657860448201526b34b9ba32b73a103a37b5b2b760a11b60648201526084015b60405180910390fd5b506000908152600460205260409020546001600160a01b031690565b600061041e82610575565b9050806001600160a01b0316836001600160a01b0316141561048c5760405162461bcd60e51b815260206004820152602160248201527f4552433732313a20617070726f76616c20746f2063757272656e74206f776e656044820152603960f91b60648201526084016103ee565b336001600160a01b03821614806104a857506104a8813361022b565b61051a5760405162461bcd60e51b815260206004820152603860248201527f4552433732313a20617070726f76652063616c6c6572206973206e6f74206f7760448201527f6e6572206e6f7220617070726f76656420666f7220616c6c000000000000000060648201526084016103ee565b6105248383610869565b505050565b61053333826108d7565b61054f5760405162461bcd60e51b81526004016103ee90611d32565b6105248383836109ce565b61052483838360405180602001604052806000815250610691565b6000818152600260205260408120546001600160a01b0316806102e15760405162461bcd60e51b815260206004820152602960248201527f4552433732313a206f776e657220717565727920666f72206e6f6e657869737460448201526832b73a103a37b5b2b760b91b60648201526084016103ee565b60006001600160a01b0382166106575760405162461bcd60e51b815260206004820152602a60248201527f4552433732313a2062616c616e636520717565727920666f7220746865207a65604482015269726f206164647265737360b01b60648201526084016103ee565b506001600160a01b031660009081526003602052604090205490565b6060600180546102f690611e1d565b61068d338383610b79565b5050565b61069b33836108d7565b6106b75760405162461bcd60e51b81526004016103ee90611d32565b6106c384848484610c48565b50505050565b606060006106d683610575565b60008481526007602052604081209192509061072090600181016106fa8786610c7b565b60405160200161070c93929190611bac565b604051602081830303815290604052611196565b9050806040516020016107339190611c4b565b60405160208183030381529060405292505050919050565b610759600680546001019055565b600061076460065490565b9050610770338261130a565b6040805160c0810182528881526020808201899052818301889052606082018790526080820186905260a082018590526000848152600782529290922081518051929391926107c29284920190611689565b5060208281015180516107db9260018501920190611689565b50604082015180516107f7916002840191602090910190611689565b5060608201518051610813916003840191602090910190611689565b506080820151805161082f916004840191602090910190611689565b5060a0820151805161084b916005840191602090910190611689565b50503360009081526008602052604090209190915550505050505050565b600081815260046020526040902080546001600160a01b0319166001600160a01b038416908117909155819061089e82610575565b6001600160a01b03167f8c5be1e5ebec7d5bd14f71427d1e84f3dd0314c0f7b2291e5b200ac8c7c3b92560405160405180910390a45050565b6000818152600260205260408120546001600160a01b03166109505760405162461bcd60e51b815260206004820152602c60248201527f4552433732313a206f70657261746f7220717565727920666f72206e6f6e657860448201526b34b9ba32b73a103a37b5b2b760a11b60648201526084016103ee565b600061095b83610575565b9050806001600160a01b0316846001600160a01b031614806109965750836001600160a01b031661098b84610379565b6001600160a01b0316145b806109c657506001600160a01b0380821660009081526005602090815260408083209388168352929052205460ff165b949350505050565b826001600160a01b03166109e182610575565b6001600160a01b031614610a495760405162461bcd60e51b815260206004820152602960248201527f4552433732313a207472616e73666572206f6620746f6b656e2074686174206960448201526839903737ba1037bbb760b91b60648201526084016103ee565b6001600160a01b038216610aab5760405162461bcd60e51b8152602060048201526024808201527f4552433732313a207472616e7366657220746f20746865207a65726f206164646044820152637265737360e01b60648201526084016103ee565b610ab6838383611324565b610ac1600082610869565b6001600160a01b0383166000908152600360205260408120805460019290610aea908490611dda565b90915550506001600160a01b0382166000908152600360205260408120805460019290610b18908490611d83565b909155505060008181526002602052604080822080546001600160a01b0319166001600160a01b0386811691821790925591518493918716917fddf252ad1be2c89b69c2b068fc378daa952ba7f163c4a11628f55a4df523b3ef91a4505050565b816001600160a01b0316836001600160a01b03161415610bdb5760405162461bcd60e51b815260206004820152601960248201527f4552433732313a20617070726f766520746f2063616c6c65720000000000000060448201526064016103ee565b6001600160a01b03838116600081815260056020908152604080832094871680845294825291829020805460ff191686151590811790915591519182527f17307eab39ab6107e8899845ad3d59bd9653f200f220920489ca2b5937696c31910160405180910390a3505050565b610c538484846109ce565b610c5f848484846113fb565b6106c35760405162461bcd60e51b81526004016103ee90611ce0565b604051631f73522760e01b81526001600160a01b0382811660048301526060916000917f00000000000000000000000000000000000000000000000000000000000000001690631f73522790602401604080518083038186803b158015610ce157600080fd5b505afa158015610cf5573d6000803e3d6000fd5b505050506040513d601f19601f82011682018060405250810190610d199190611975565b5090506000600760008681526020019081526020016000206040518060c0016040529081600082018054610d4c90611e1d565b80601f0160208091040260200160405190810160405280929190818152602001828054610d7890611e1d565b8015610dc55780601f10610d9a57610100808354040283529160200191610dc5565b820191906000526020600020905b815481529060010190602001808311610da857829003601f168201915b50505050508152602001600182018054610dde90611e1d565b80601f0160208091040260200160405190810160405280929190818152602001828054610e0a90611e1d565b8015610e575780601f10610e2c57610100808354040283529160200191610e57565b820191906000526020600020905b815481529060010190602001808311610e3a57829003601f168201915b50505050508152602001600282018054610e7090611e1d565b80601f0160208091040260200160405190810160405280929190818152602001828054610e9c90611e1d565b8015610ee95780601f10610ebe57610100808354040283529160200191610ee9565b820191906000526020600020905b815481529060010190602001808311610ecc57829003601f168201915b50505050508152602001600382018054610f0290611e1d565b80601f0160208091040260200160405190810160405280929190818152602001828054610f2e90611e1d565b8015610f7b5780601f10610f5057610100808354040283529160200191610f7b565b820191906000526020600020905b815481529060010190602001808311610f5e57829003601f168201915b50505050508152602001600482018054610f9490611e1d565b80601f0160208091040260200160405190810160405280929190818152602001828054610fc090611e1d565b801561100d5780601f10610fe25761010080835404028352916020019161100d565b820191906000526020600020905b815481529060010190602001808311610ff057829003601f168201915b5050505050815260200160058201805461102690611e1d565b80601f016020809104026020016040519081016040528092919081815260200182805461105290611e1d565b801561109f5780601f106110745761010080835404028352916020019161109f565b820191906000526020600020905b81548152906001019060200180831161108257829003601f168201915b50505050508152505090506060600060038111156110cd57634e487b7160e01b600052602160045260246000fd5b8360038111156110ed57634e487b7160e01b600052602160045260246000fd5b14156110fe575060a081015161116b565b600183600381111561112057634e487b7160e01b600052602160045260246000fd5b14156111315750608081015161116b565b600283600381111561115357634e487b7160e01b600052602160045260246000fd5b14156111645750606081015161116b565b5060408101515b8060405160200161117c9190611b6f565b604051602081830303815290604052935050505092915050565b60608151600014156111b657505060408051602081019091526000815290565b6000604051806060016040528060408152602001611e9e60409139905060006003845160026111e59190611d83565b6111ef9190611d9b565b6111fa906004611dbb565b90506000611209826020611d83565b67ffffffffffffffff81111561122f57634e487b7160e01b600052604160045260246000fd5b6040519080825280601f01601f191660200182016040528015611259576020820181803683370190505b509050818152600183018586518101602084015b818310156112c5576003830192508251603f8160121c168501518253600182019150603f81600c1c168501518253600182019150603f8160061c168501518253600182019150603f811685015182535060010161126d565b6003895106600181146112df57600281146112f0576112fc565b613d3d60f01b6001198301526112fc565b603d60f81b6000198301525b509398975050505050505050565b61068d828260405180602001604052806000815250611508565b6001600160a01b038316156113ac5760405162461bcd60e51b815260206004820152604260248201527f4f6e6c79206d696e74696e6720697320616c6c6f7765642e205468657365204e60448201527f4654732063616e2774206265206275726e6564206f72207472616e7366657272606482015261195960f21b608482015260a4016103ee565b6113b5826105ec565b156105245760405162461bcd60e51b815260206004820152601660248201527527b7363c9037b7329031b0b932103832b9103ab9b2b960511b60448201526064016103ee565b60006001600160a01b0384163b156114fd57604051630a85bd0160e11b81526001600160a01b0385169063150b7a029061143f903390899088908890600401611c90565b602060405180830381600087803b15801561145957600080fd5b505af1925050508015611489575060408051601f3d908101601f1916820190925261148691810190611959565b60015b6114e3573d8080156114b7576040519150601f19603f3d011682016040523d82523d6000602084013e6114bc565b606091505b5080516114db5760405162461bcd60e51b81526004016103ee90611ce0565b805181602001fd5b6001600160e01b031916630a85bd0160e11b1490506109c6565b506001949350505050565b611512838361153b565b61151f60008484846113fb565b6105245760405162461bcd60e51b81526004016103ee90611ce0565b6001600160a01b0382166115915760405162461bcd60e51b815260206004820181905260248201527f4552433732313a206d696e7420746f20746865207a65726f206164647265737360448201526064016103ee565b6000818152600260205260409020546001600160a01b0316156115f65760405162461bcd60e51b815260206004820152601c60248201527f4552433732313a20746f6b656e20616c7265616479206d696e7465640000000060448201526064016103ee565b61160260008383611324565b6001600160a01b038216600090815260036020526040812080546001929061162b908490611d83565b909155505060008181526002602052604080822080546001600160a01b0319166001600160a01b03861690811790915590518392907fddf252ad1be2c89b69c2b068fc378daa952ba7f163c4a11628f55a4df523b3ef908290a45050565b82805461169590611e1d565b90600052602060002090601f0160209004810192826116b757600085556116fd565b82601f106116d057805160ff19168380011785556116fd565b828001600101855582156116fd579182015b828111156116fd5782518255916020019190600101906116e2565b5061170992915061170d565b5090565b5b80821115611709576000815560010161170e565b600067ffffffffffffffff8084111561173d5761173d611e6e565b604051601f8501601f19908116603f0116810190828211818310171561176557611765611e6e565b8160405280935085815286868601111561177e57600080fd5b858560208301376000602087830101525050509392505050565b80356001600160a01b03811681146117af57600080fd5b919050565b600082601f8301126117c4578081fd5b6117d383833560208501611722565b9392505050565b6000602082840312156117eb578081fd5b6117d382611798565b60008060408385031215611806578081fd5b61180f83611798565b915061181d60208401611798565b90509250929050565b60008060006060848603121561183a578081fd5b61184384611798565b925061185160208501611798565b9150604084013590509250925092565b60008060008060808587031215611876578081fd5b61187f85611798565b935061188d60208601611798565b925060408501359150606085013567ffffffffffffffff8111156118af578182fd5b8501601f810187136118bf578182fd5b6118ce87823560208401611722565b91505092959194509250565b600080604083850312156118ec578182fd5b6118f583611798565b915060208301358015158114611909578182fd5b809150509250929050565b60008060408385031215611926578182fd5b61192f83611798565b946020939093013593505050565b60006020828403121561194e578081fd5b81356117d381611e84565b60006020828403121561196a578081fd5b81516117d381611e84565b60008060408385031215611987578182fd5b825160048110611995578283fd5b6020939093015192949293505050565b60008060008060008060c087890312156119bd578182fd5b863567ffffffffffffffff808211156119d4578384fd5b6119e08a838b016117b4565b975060208901359150808211156119f5578384fd5b611a018a838b016117b4565b96506040890135915080821115611a16578384fd5b611a228a838b016117b4565b95506060890135915080821115611a37578384fd5b611a438a838b016117b4565b94506080890135915080821115611a58578384fd5b611a648a838b016117b4565b935060a0890135915080821115611a79578283fd5b50611a8689828a016117b4565b9150509295509295509295565b600060208284031215611aa4578081fd5b5035919050565b60008151808452611ac3816020860160208601611df1565b601f01601f19169290920160200192915050565b8054600090600181811c9080831680611af157607f831692505b6020808410821415611b1157634e487b7160e01b86526022600452602486fd5b818015611b255760018114611b3657611b63565b60ff19861689528489019650611b63565b60008881526020902060005b86811015611b5b5781548b820152908501908301611b42565b505084890196505b50505050505092915050565b7468747470733a2f2f697066732e696f2f697066732f60581b815260008251611b9f816015850160208701611df1565b9190910160150192915050565b693d913730b6b2911d101160b11b81526000611bcb600a830186611ad7565b61088b60f21b8082526f113232b9b1b934b83a34b7b7111d101160811b6002830152611bfa6012830187611ad7565b908152691134b6b0b3b2911d101160b11b60028201528451909150611c2681600c840160208801611df1565b601160f91b600c9290910191820152607d60f81b600d820152600e0195945050505050565b7f646174613a6170706c69636174696f6e2f6a736f6e3b6261736536342c000000815260008251611c8381601d850160208701611df1565b91909101601d0192915050565b6001600160a01b0385811682528416602082015260408101839052608060608201819052600090611cc390830184611aab565b9695505050505050565b6020815260006117d36020830184611aab565b60208082526032908201527f4552433732313a207472616e7366657220746f206e6f6e20455243373231526560408201527131b2b4bb32b91034b6b83632b6b2b73a32b960711b606082015260800190565b60208082526031908201527f4552433732313a207472616e736665722063616c6c6572206973206e6f74206f6040820152701ddb995c881b9bdc88185c1c1c9bdd9959607a1b606082015260800190565b60008219821115611d9657611d96611e58565b500190565b600082611db657634e487b7160e01b81526012600452602481fd5b500490565b6000816000190483118215151615611dd557611dd5611e58565b500290565b600082821015611dec57611dec611e58565b500390565b60005b83811015611e0c578181015183820152602001611df4565b838111156106c35750506000910152565b600181811c90821680611e3157607f821691505b60208210811415611e5257634e487b7160e01b600052602260045260246000fd5b50919050565b634e487b7160e01b600052601160045260246000fd5b634e487b7160e01b600052604160045260246000fd5b6001600160e01b031981168114611e9a57600080fd5b5056fe4142434445464748494a4b4c4d4e4f505152535455565758595a6162636465666768696a6b6c6d6e6f707172737475767778797a303132333435363738392b2fa2646970667358221220ffad7be3b33f893026103215558f85b07f056869e2604434d2f8de0a51fe6f2664736f6c6343000804003360c0604052600d60808190526c2bb930b83832b21022ba3432b960991b60a090815261002e916000919061007a565b50604080518082019091526004808252630ae8aa8960e31b602090920191825261005a9160019161007a565b506002805460ff1916601217905534801561007457600080fd5b5061014e565b82805461008690610113565b90600052602060002090601f0160209004810192826100a857600085556100ee565b82601f106100c157805160ff19168380011785556100ee565b828001600101855582156100ee579182015b828111156100ee5782518255916020019190600101906100d3565b506100fa9291506100fe565b5090565b5b808211156100fa57600081556001016100ff565b600181811c9082168061012757607f821691505b6020821081141561014857634e487b7160e01b600052602260045260246000fd5b50919050565b61080c8061015d6000396000f3fe60806040526004361061009c5760003560e01c8063313ce56711610064578063313ce5671461015b57806370a082311461018757806395d89b41146101b4578063a9059cbb146101c9578063d0e30db0146101e9578063dd62ed3e146101f157600080fd5b806306fdde03146100a1578063095ea7b3146100cc57806318160ddd146100fc57806323b872dd146101195780632e1a7d4d14610139575b600080fd5b3480156100ad57600080fd5b506100b6610229565b6040516100c39190610703565b60405180910390f35b3480156100d857600080fd5b506100ec6100e73660046106c2565b6102b7565b60405190151581526020016100c3565b34801561010857600080fd5b50475b6040519081526020016100c3565b34801561012557600080fd5b506100ec610134366004610687565b610323565b34801561014557600080fd5b506101596101543660046106eb565b6104a7565b005b34801561016757600080fd5b506002546101759060ff1681565b60405160ff90911681526020016100c3565b34801561019357600080fd5b5061010b6101a236600461063b565b60036020526000908152604090205481565b3480156101c057600080fd5b506100b66105a3565b3480156101d557600080fd5b506100ec6101e43660046106c2565b6105b0565b6101596105c4565b3480156101fd57600080fd5b5061010b61020c366004610655565b600460209081526000928352604080842090915290825290205481565b6000805461023690610785565b80601f016020809104026020016040519081016040528092919081815260200182805461026290610785565b80156102af5780601f10610284576101008083540402835291602001916102af565b820191906000526020600020905b81548152906001019060200180831161029257829003601f168201915b505050505081565b3360008181526004602090815260408083206001600160a01b038716808552925280832085905551919290917f8c5be1e5ebec7d5bd14f71427d1e84f3dd0314c0f7b2291e5b200ac8c7c3b925906103129086815260200190565b60405180910390a350600192915050565b6001600160a01b03831660009081526003602052604081205482111561034857600080fd5b6001600160a01b038416331480159061038657506001600160a01b038416600090815260046020908152604080832033845290915290205460001914155b156103f4576001600160a01b03841660009081526004602090815260408083203384529091529020548211156103bb57600080fd5b6001600160a01b0384166000908152600460209081526040808320338452909152812080548492906103ee90849061076e565b90915550505b6001600160a01b0384166000908152600360205260408120805484929061041c90849061076e565b90915550506001600160a01b03831660009081526003602052604081208054849290610449908490610756565b92505081905550826001600160a01b0316846001600160a01b03167fddf252ad1be2c89b69c2b068fc378daa952ba7f163c4a11628f55a4df523b3ef8460405161049591815260200190565b60405180910390a35060019392505050565b336000908152600360205260409020548111156105195760405162461bcd60e51b815260206004820152602660248201527f45524332303a207472616e7366657220616d6f756e7420657863656564732062604482015265616c616e636560d01b606482015260840160405180910390fd5b336000908152600360205260408120805483929061053890849061076e565b9091555050604051339082156108fc029083906000818181858888f1935050505015801561056a573d6000803e3d6000fd5b5060405181815233907f7fcf532c15f0a6db0bd6d0e038bea71d30d808c7d98cb3bf7268a95bf5081b659060200160405180910390a250565b6001805461023690610785565b60006105bd338484610323565b9392505050565b33600090815260036020526040812080543492906105e3908490610756565b909155505060405134815233907fe1fffcc4923d04b559f4d29a8bfc6cda04eb5b0d3c460751c2402c5c5cc9109c9060200160405180910390a2565b80356001600160a01b038116811461063657600080fd5b919050565b60006020828403121561064c578081fd5b6105bd8261061f565b60008060408385031215610667578081fd5b6106708361061f565b915061067e6020840161061f565b90509250929050565b60008060006060848603121561069b578081fd5b6106a48461061f565b92506106b26020850161061f565b9150604084013590509250925092565b600080604083850312156106d4578182fd5b6106dd8361061f565b946020939093013593505050565b6000602082840312156106fc578081fd5b5035919050565b6000602080835283518082850152825b8181101561072f57858101830151858201604001528201610713565b818111156107405783604083870101525b50601f01601f1916929092016040019392505050565b60008219821115610769576107696107c0565b500190565b600082821015610780576107806107c0565b500390565b600181811c9082168061079957607f821691505b602082108114156107ba57634e487b7160e01b600052602260045260246000fd5b50919050565b634e487b7160e01b600052601160045260246000fdfea26469706673582212208654a83941e7996b28bf8637329d22887b3202406a3494f31a9d4c83f1588f1864736f6c6343000804003360806040523480156200001157600080fd5b5060405162000c5a38038062000c5a8339810160408190526200003491620001c7565b8151829082906200004d9060039060208501906200006e565b508051620000639060049060208401906200006e565b505050505062000281565b8280546200007c906200022e565b90600052602060002090601f016020900481019282620000a05760008555620000eb565b82601f10620000bb57805160ff1916838001178555620000eb565b82800160010185558215620000eb579182015b82811115620000eb578251825591602001919060010190620000ce565b50620000f9929150620000fd565b5090565b5b80821115620000f95760008155600101620000fe565b600082601f83011262000125578081fd5b81516001600160401b03808211156200014257620001426200026b565b604051601f8301601f19908116603f011681019082821181831017156200016d576200016d6200026b565b8160405283815260209250868385880101111562000189578485fd5b8491505b83821015620001ac57858201830151818301840152908201906200018d565b83821115620001bd57848385830101525b9695505050505050565b60008060408385031215620001da578182fd5b82516001600160401b0380821115620001f1578384fd5b620001ff8683870162000114565b9350602085015191508082111562000215578283fd5b50620002248582860162000114565b9150509250929050565b600181811c908216806200024357607f821691505b602082108114156200026557634e487b7160e01b600052602260045260246000fd5b50919050565b634e487b7160e01b600052604160045260246000fd5b6109c980620002916000396000f3fe608060405234801561001057600080fd5b50600436106100b45760003560e01c806340c10f191161007157806340c10f191461014157806370a082311461015657806395d89b411461017f578063a457c2d714610187578063a9059cbb1461019a578063dd62ed3e146101ad57600080fd5b806306fdde03146100b9578063095ea7b3146100d757806318160ddd146100fa57806323b872dd1461010c578063313ce5671461011f578063395093511461012e575b600080fd5b6100c16101e6565b6040516100ce91906108e1565b60405180910390f35b6100ea6100e53660046108b8565b610278565b60405190151581526020016100ce565b6002545b6040519081526020016100ce565b6100ea61011a36600461087d565b61028e565b604051601281526020016100ce565b6100ea61013c3660046108b8565b61033d565b61015461014f3660046108b8565b610379565b005b6100fe61016436600461082a565b6001600160a01b031660009081526020819052604090205490565b6100c1610387565b6100ea6101953660046108b8565b610396565b6100ea6101a83660046108b8565b61042f565b6100fe6101bb36600461084b565b6001600160a01b03918216600090815260016020908152604080832093909416825291909152205490565b6060600380546101f590610958565b80601f016020809104026020016040519081016040528092919081815260200182805461022190610958565b801561026e5780601f106102435761010080835404028352916020019161026e565b820191906000526020600020905b81548152906001019060200180831161025157829003601f168201915b5050505050905090565b600061028533848461043c565b50600192915050565b600061029b848484610560565b6001600160a01b0384166000908152600160209081526040808320338452909152902054828110156103255760405162461bcd60e51b815260206004820152602860248201527f45524332303a207472616e7366657220616d6f756e74206578636565647320616044820152676c6c6f77616e636560c01b60648201526084015b60405180910390fd5b610332853385840361043c565b506001949350505050565b3360008181526001602090815260408083206001600160a01b03871684529091528120549091610285918590610374908690610934565b61043c565b610383828261072f565b5050565b6060600480546101f590610958565b3360009081526001602090815260408083206001600160a01b0386168452909152812054828110156104185760405162461bcd60e51b815260206004820152602560248201527f45524332303a2064656372656173656420616c6c6f77616e63652062656c6f77604482015264207a65726f60d81b606482015260840161031c565b610425338585840361043c565b5060019392505050565b6000610285338484610560565b6001600160a01b03831661049e5760405162461bcd60e51b8152602060048201526024808201527f45524332303a20617070726f76652066726f6d20746865207a65726f206164646044820152637265737360e01b606482015260840161031c565b6001600160a01b0382166104ff5760405162461bcd60e51b815260206004820152602260248201527f45524332303a20617070726f766520746f20746865207a65726f206164647265604482015261737360f01b606482015260840161031c565b6001600160a01b0383811660008181526001602090815260408083209487168084529482529182902085905590518481527f8c5be1e5ebec7d5bd14f71427d1e84f3dd0314c0f7b2291e5b200ac8c7c3b925910160405180910390a3505050565b6001600160a01b0383166105c45760405162461bcd60e51b815260206004820152602560248201527f45524332303a207472616e736665722066726f6d20746865207a65726f206164604482015264647265737360d81b606482015260840161031c565b6001600160a01b0382166106265760405162461bcd60e51b815260206004820152602360248201527f45524332303a207472616e7366657220746f20746865207a65726f206164647260448201526265737360e81b606482015260840161031c565b6001600160a01b0383166000908152602081905260409020548181101561069e5760405162461bcd60e51b815260206004820152602660248201527f45524332303a207472616e7366657220616d6f756e7420657863656564732062604482015265616c616e636560d01b606482015260840161031c565b6001600160a01b038085166000908152602081905260408082208585039055918516815290812080548492906106d5908490610934565b92505081905550826001600160a01b0316846001600160a01b03167fddf252ad1be2c89b69c2b068fc378daa952ba7f163c4a11628f55a4df523b3ef8460405161072191815260200190565b60405180910390a350505050565b6001600160a01b0382166107855760405162461bcd60e51b815260206004820152601f60248201527f45524332303a206d696e7420746f20746865207a65726f206164647265737300604482015260640161031c565b80600260008282546107979190610934565b90915550506001600160a01b038216600090815260208190526040812080548392906107c4908490610934565b90915550506040518181526001600160a01b038316906000907fddf252ad1be2c89b69c2b068fc378daa952ba7f163c4a11628f55a4df523b3ef9060200160405180910390a35050565b80356001600160a01b038116811461082557600080fd5b919050565b60006020828403121561083b578081fd5b6108448261080e565b9392505050565b6000806040838503121561085d578081fd5b6108668361080e565b91506108746020840161080e565b90509250929050565b600080600060608486031215610891578081fd5b61089a8461080e565b92506108a86020850161080e565b9150604084013590509250925092565b600080604083850312156108ca578182fd5b6108d38361080e565b946020939093013593505050565b6000602080835283518082850152825b8181101561090d578581018301518582016040015282016108f1565b8181111561091e5783604083870101525b50601f01601f1916929092016040019392505050565b6000821982111561095357634e487b7160e01b81526011600452602481fd5b500190565b600181811c9082168061096c57607f821691505b6020821081141561098d57634e487b7160e01b600052602260045260246000fd5b5091905056fea2646970667358221220da8c21195155d3a6ac6808f25312652be8182c5f0677908e6919741bf9b40b2b64736f6c63430008040033608060405234801561001057600080fd5b5060405161026138038061026183398101604081905261002f91610037565b60005561004f565b600060208284031215610048578081fd5b5051919050565b6102038061005e6000396000f3fe608060405234801561001057600080fd5b50600436106100625760003560e01c8063313ce5671461006757806354fd4d501461007b5780637284e4161461008a57806391b7f5ed146100be5780639a6fc8f5146100d3578063feaf968c14610125575b600080fd5b604051601281526020015b60405180910390f35b60405160018152602001610072565b604080518082018252601281527129b0b6b83632902232b9b1b934b83a34b7b760711b60208201529051610072919061017a565b6100d16100cc366004610131565b600055565b005b6100ee6100e1366004610149565b6000549091429081908390565b6040805169ffffffffffffffffffff968716815260208101959095528401929092526060830152909116608082015260a001610072565b600080544280826100ee565b600060208284031215610142578081fd5b5035919050565b60006020828403121561015a578081fd5b813569ffffffffffffffffffff81168114610173578182fd5b9392505050565b6000602080835283518082850152825b818110156101a65785810183015185820160400152820161018a565b818111156101b75783604083870101525b50601f01601f191692909201604001939250505056fea264697066735822122079ff9fc8265026e1a89ba653dd914a18a5096058c30e5765bd8c74ed52cc6ec664736f6c6343000804003360c06040523480156200001157600080fd5b506040516200134538038062001345833981016040819052620000349162000156565b6200003f33620000e9565b6001600160601b0319606083811b821660805282901b1660a05260405163095ea7b360e01b81526001600160a01b038083166004830152600019602483015283169063095ea7b390604401602060405180830381600087803b158015620000a557600080fd5b505af1158015620000ba573d6000803e3d6000fd5b505050506040513d601f19601f82011682018060405250810190620000e091906200018d565b505050620001b6565b600080546001600160a01b038381166001600160a01b0319831681178455604051919092169283917f8be0079c531659141344cd1fd0a4f28419497f9722a3daafe3b4186f6b6457e09190a35050565b80516001600160a01b03811681146200015157600080fd5b919050565b6000806040838503121562000169578182fd5b620001748362000139565b9150620001846020840162000139565b90509250929050565b6000602082840312156200019f578081fd5b81518015158114620001af578182fd5b9392505050565b60805160601c60a05160601c6110f462000251600039600081816102c9015281816104eb0152818161060d01528181610818015281816109ff0152610c3301526000818160a5015281816101fb0152818161029e01528181610431015281816104b7015281816105d80152818161067d015281816107ed015281816109c401528181610a6f01528181610b790152610bff01526110f46000f3fe6080604052600436106100955760003560e01c8063affa881711610059578063affa8817146101ec578063eed88b8d1461021f578063f14210a61461023f578063f2fde38b1461025f578063f6326fb31461027f5761010f565b80632247463e1461014e578063715018a6146101615780637b2af625146101765780638da5cb5b14610196578063a3d5b255146101cc5761010f565b3661010f57336001600160a01b037f0000000000000000000000000000000000000000000000000000000000000000161461010d5760405162461bcd60e51b8152602060048201526013602482015272149958d95a5d99481b9bdd08185b1b1bddd959606a1b60448201526064015b60405180910390fd5b005b60405162461bcd60e51b815260206004820152601460248201527311985b1b189858dac81b9bdd08185b1b1bddd95960621b6044820152606401610104565b61010d61015c366004610fb0565b610287565b34801561016d57600080fd5b5061010d61058b565b34801561018257600080fd5b5061010d610191366004610fb0565b6105c1565b3480156101a257600080fd5b506000546001600160a01b03165b6040516001600160a01b03909116815260200160405180910390f35b3480156101d857600080fd5b5061010d6101e7366004610e5d565b6106f0565b3480156101f857600080fd5b507f00000000000000000000000000000000000000000000000000000000000000006101b0565b34801561022b57600080fd5b5061010d61023a366004610e9d565b6107a2565b34801561024b57600080fd5b5061010d61025a366004610fb0565b6107d6565b34801561026b57600080fd5b5061010d61027a366004610e3a565b610adf565b61010d610b77565b6040516335ea6a7560e01b81526001600160a01b037f0000000000000000000000000000000000000000000000000000000000000000811660048301526000917f0000000000000000000000000000000000000000000000000000000000000000909116906335ea6a75906024016101406040518083038186803b15801561030e57600080fd5b505afa158015610322573d6000803e3d6000fd5b505050506040513d601f19601f820116820180604052508101906103469190610ee8565b60e001516040516370a0823160e01b81523360048201526001600160a01b03909116906370a082319060240160206040518083038186803b15801561038a57600080fd5b505afa15801561039e573d6000803e3d6000fd5b505050506040513d601f19601f820116820180604052508101906103c29190610fc8565b9050808210156103cf5750805b8034101561042f5760405162461bcd60e51b815260206004820152602760248201527f6d73672e76616c7565206973206c657373207468616e2072657061796d656e7460448201526608185b5bdd5b9d60ca1b6064820152608401610104565b7f00000000000000000000000000000000000000000000000000000000000000006001600160a01b031663d0e30db0826040518263ffffffff1660e01b81526004016000604051808303818588803b15801561048a57600080fd5b505af115801561049e573d6000803e3d6000fd5b505060405163173aba7160e21b81526001600160a01b037f0000000000000000000000000000000000000000000000000000000000000000811660048301523460248301523360448301527f0000000000000000000000000000000000000000000000000000000000000000169350635ceae9c492506064019050602060405180830381600087803b15801561053357600080fd5b505af1158015610547573d6000803e3d6000fd5b505050506040513d601f19601f8201168201806040525081019061056b9190610fc8565b508034111561058757610587336105828334611086565b610c8f565b5050565b6000546001600160a01b031633146105b55760405162461bcd60e51b815260040161010490611019565b6105bf6000610d47565b565b604051636c665a5560e01b81526001600160a01b037f000000000000000000000000000000000000000000000000000000000000000081166004830152602482018390523360448301527f00000000000000000000000000000000000000000000000000000000000000001690636c665a5590606401600060405180830381600087803b15801561065157600080fd5b505af1158015610665573d6000803e3d6000fd5b5050604051632e1a7d4d60e01b8152600481018490527f00000000000000000000000000000000000000000000000000000000000000006001600160a01b03169250632e1a7d4d9150602401600060405180830381600087803b1580156106cb57600080fd5b505af11580156106df573d6000803e3d6000fd5b505050506106ed3382610c8f565b50565b6000546001600160a01b0316331461071a5760405162461bcd60e51b815260040161010490611019565b60405163a9059cbb60e01b81526001600160a01b0383811660048301526024820183905284169063a9059cbb90604401602060405180830381600087803b15801561076457600080fd5b505af1158015610778573d6000803e3d6000fd5b505050506040513d601f19601f8201168201806040525081019061079c9190610ec8565b50505050565b6000546001600160a01b031633146107cc5760405162461bcd60e51b815260040161010490611019565b6105878282610c8f565b6040516335ea6a7560e01b81526001600160a01b037f0000000000000000000000000000000000000000000000000000000000000000811660048301526000917f0000000000000000000000000000000000000000000000000000000000000000909116906335ea6a75906024016101406040518083038186803b15801561085d57600080fd5b505afa158015610871573d6000803e3d6000fd5b505050506040513d601f19601f820116820180604052508101906108959190610ee8565b60c001516040516370a0823160e01b81523360048201529091506000906001600160a01b038316906370a082319060240160206040518083038186803b1580156108de57600080fd5b505afa1580156108f2573d6000803e3d6000fd5b505050506040513d601f19601f820116820180604052508101906109169190610fc8565b9050826000198114156109265750805b6040516323b872dd60e01b8152336004820152306024820152604481018290526001600160a01b038416906323b872dd90606401602060405180830381600087803b15801561097457600080fd5b505af1158015610988573d6000803e3d6000fd5b505050506040513d601f19601f820116820180604052508101906109ac9190610ec8565b50604051632abfd51560e01b81526001600160a01b037f000000000000000000000000000000000000000000000000000000000000000081166004830152602482018390523060448301523360648301527f00000000000000000000000000000000000000000000000000000000000000001690632abfd51590608401600060405180830381600087803b158015610a4357600080fd5b505af1158015610a57573d6000803e3d6000fd5b5050604051632e1a7d4d60e01b8152600481018490527f00000000000000000000000000000000000000000000000000000000000000006001600160a01b03169250632e1a7d4d9150602401600060405180830381600087803b158015610abd57600080fd5b505af1158015610ad1573d6000803e3d6000fd5b5050505061079c3382610c8f565b6000546001600160a01b03163314610b095760405162461bcd60e51b815260040161010490611019565b6001600160a01b038116610b6e5760405162461bcd60e51b815260206004820152602660248201527f4f776e61626c653a206e6577206f776e657220697320746865207a65726f206160448201526564647265737360d01b6064820152608401610104565b6106ed81610d47565b7f00000000000000000000000000000000000000000000000000000000000000006001600160a01b031663d0e30db0346040518263ffffffff1660e01b81526004016000604051808303818588803b158015610bd257600080fd5b505af1158015610be6573d6000803e3d6000fd5b5050604051633d14d1b760e21b81526001600160a01b037f0000000000000000000000000000000000000000000000000000000000000000811660048301523460248301523360448301527f000000000000000000000000000000000000000000000000000000000000000016935063f45346dc92506064019050600060405180830381600087803b158015610c7b57600080fd5b505af115801561079c573d6000803e3d6000fd5b604080516000808252602082019092526001600160a01b038416908390604051610cb99190610fe0565b60006040518083038185875af1925050503d8060008114610cf6576040519150601f19603f3d011682016040523d82523d6000602084013e610cfb565b606091505b5050905080610d425760405162461bcd60e51b815260206004820152601360248201527211551217d514905394d1915497d19052531151606a1b6044820152606401610104565b505050565b600080546001600160a01b038381166001600160a01b0319831681178455604051919092169283917f8be0079c531659141344cd1fd0a4f28419497f9722a3daafe3b4186f6b6457e09190a35050565b8051610da2816110a9565b919050565b600060208284031215610db8578081fd5b6040516020810181811067ffffffffffffffff82111715610de757634e487b7160e01b83526041600452602483fd5b6040529151825250919050565b80516fffffffffffffffffffffffffffffffff81168114610da257600080fd5b805164ffffffffff81168114610da257600080fd5b805160ff81168114610da257600080fd5b600060208284031215610e4b578081fd5b8135610e56816110a9565b9392505050565b600080600060608486031215610e71578182fd5b8335610e7c816110a9565b92506020840135610e8c816110a9565b929592945050506040919091013590565b60008060408385031215610eaf578182fd5b8235610eba816110a9565b946020939093013593505050565b600060208284031215610ed9578081fd5b81518015158114610e56578182fd5b60006101408284031215610efa578081fd5b610f0261104e565b610f0c8484610da7565b8152610f1a60208401610df4565b6020820152610f2b60408401610df4565b6040820152610f3c60608401610df4565b6060820152610f4d60808401610df4565b6080820152610f5e60a08401610e14565b60a0820152610f6f60c08401610d97565b60c0820152610f8060e08401610d97565b60e0820152610100610f93818501610d97565b90820152610120610fa5848201610e29565b908201529392505050565b600060208284031215610fc1578081fd5b5035919050565b600060208284031215610fd9578081fd5b5051919050565b60008251815b818110156110005760208186018101518583015201610fe6565b8181111561100e5782828501525b509190910192915050565b6020808252818101527f4f776e61626c653a2063616c6c6572206973206e6f7420746865206f776e6572604082015260600190565b604051610140810167ffffffffffffffff8111828210171561108057634e487b7160e01b600052604160045260246000fd5b60405290565b6000828210156110a457634e487b7160e01b81526011600452602481fd5b500390565b6001600160a01b03811681146106ed57600080fdfea2646970667358221220cfde9726cbc9ed48e56cc7bef10a58d9a840b7c8a1028a764f43d95042390c4364736f6c6343000804003360c060405234801561001057600080fd5b5060405161089038038061089083398101604081905261002f916102f4565b6100398484610097565b606082901b6001600160601b03191660805260a08190526040518181526001600160a01b038316907fe27c4c1372396a3d15a9922f74f9dfc7c72b1ad6d63868470787249c356454c19060200160405180910390a2505050506103a9565b80518251146100ec5760405162461bcd60e51b815260206004820152601a60248201527f494e434f4e53495354454e545f504152414d535f4c454e475448000000000000604482015260640160405180910390fd5b60005b825181101561022f5781818151811061011857634e487b7160e01b600052603260045260246000fd5b602002602001015160008085848151811061014357634e487b7160e01b600052603260045260246000fd5b60200260200101516001600160a01b03166001600160a01b0316815260200190815260200160002060006101000a8154816001600160a01b0302191690836001600160a01b031602179055508181815181106101af57634e487b7160e01b600052603260045260246000fd5b60200260200101516001600160a01b03168382815181106101e057634e487b7160e01b600052603260045260246000fd5b60200260200101516001600160a01b03167f22c5b7b2d8561d39f7f210b6b326a1aa69f15311163082308ac4877db6339dc160405160405180910390a3806102278161036c565b9150506100ef565b505050565b80516001600160a01b038116811461024b57600080fd5b919050565b600082601f830112610260578081fd5b815160206001600160401b038083111561027c5761027c610393565b8260051b604051601f19603f830116810181811084821117156102a1576102a1610393565b604052848152838101925086840182880185018910156102bf578687fd5b8692505b858310156102e8576102d481610234565b8452928401926001929092019184016102c3565b50979650505050505050565b60008060008060808587031215610309578384fd5b84516001600160401b038082111561031f578586fd5b61032b88838901610250565b95506020870151915080821115610340578485fd5b5061034d87828801610250565b93505061035c60408601610234565b6060959095015193969295505050565b600060001982141561038c57634e487b7160e01b81526011600452602481fd5b5060010190565b634e487b7160e01b600052604160045260246000fd5b60805160601c60a0516104b26103de6000396000818160610152610260015260008181610112015261023501526104b26000f3fe608060405234801561001057600080fd5b50600436106100575760003560e01c80638c89b64f1461005c57806392bf2be0146100965780639d23d9f2146100da578063b3596f07146100fa578063e19f47001461010d575b600080fd5b6100837f000000000000000000000000000000000000000000000000000000000000000081565b6040519081526020015b60405180910390f35b6100c26100a4366004610324565b6001600160a01b039081166000908152602081905260409020541690565b6040516001600160a01b03909116815260200161008d565b6100ed6100e8366004610352565b610134565b60405161008d9190610411565b610083610108366004610324565b610213565b6100c27f000000000000000000000000000000000000000000000000000000000000000081565b606060008267ffffffffffffffff81111561015f57634e487b7160e01b600052604160045260246000fd5b604051908082528060200260200182016040528015610188578160200160208202803683370190505b50905060005b8381101561020b576101ce8585838181106101b957634e487b7160e01b600052603260045260246000fd5b90506020020160208101906101089190610324565b8282815181106101ee57634e487b7160e01b600052603260045260246000fd5b60209081029190910101528061020381610455565b91505061018e565b509392505050565b6001600160a01b038082166000818152602081905260408120549092908116917f0000000000000000000000000000000000000000000000000000000000000000909116141561028557507f000000000000000000000000000000000000000000000000000000000000000092915050565b6000816001600160a01b031663feaf968c6040518163ffffffff1660e01b815260040160a06040518083038186803b1580156102c057600080fd5b505afa1580156102d4573d6000803e3d6000fd5b505050506040513d601f19601f820116820180604052508101906102f891906103c2565b5091979650505050505050565b805169ffffffffffffffffffff8116811461031f57600080fd5b919050565b600060208284031215610335578081fd5b81356001600160a01b038116811461034b578182fd5b9392505050565b60008060208385031215610364578081fd5b823567ffffffffffffffff8082111561037b578283fd5b818501915085601f83011261038e578283fd5b81358181111561039c578384fd5b8660208260051b85010111156103b0578384fd5b60209290920196919550909350505050565b600080600080600060a086880312156103d9578081fd5b6103e286610305565b945060208601519350604086015192506060860151915061040560808701610305565b90509295509295909350565b6020808252825182820181905260009190848201906040850190845b818110156104495783518352928401929184019160010161042d565b50909695505050505050565b600060001982141561047557634e487b7160e01b81526011600452602481fd5b506001019056fea264697066735822122066608e8fbb5343ad82da4fdec4f5c3154650fc708f527a9d8a0250627ff2dab464736f6c6343000804003360a06040523480156200001157600080fd5b50604051620027443803806200274483398101604081905262000034916200004a565b60601b6001600160601b0319166080526200007a565b6000602082840312156200005c578081fd5b81516001600160a01b038116811462000073578182fd5b9392505050565b60805160601c612658620000ec60003960008181609d0152818161025e0152818161036f0152818161061201528181610741015281816108cc01528181610b4e01528181610c95015281816113b4015281816114f30152818161161c015281816118d201526119f901526126586000f3fe608060405234801561001057600080fd5b50600436106100935760003560e01c806379751e1b1161006657806379751e1b146101b65780637a6eb9d0146101d6578063b316ff89146101fe578063d2493b6c14610213578063f561ae411461024657600080fd5b80630542975c1461009857806328dd2d01146100dc57806335ea6a751461012e5780633e15014114610183575b600080fd5b6100bf7f000000000000000000000000000000000000000000000000000000000000000081565b6040516001600160a01b0390911681526020015b60405180910390f35b6100ef6100ea366004611fa4565b61024e565b604080519889526020890197909752958701949094526060860192909252608085015260a0840152151560c0830152151560e0820152610100016100d3565b61014161013c366004611f65565b6108bc565b604080519889526020890197909752958701949094526060860192909252608085015260a084015260c083015264ffffffffff1660e0820152610100016100d3565b610196610191366004611f65565b610b44565b6040805194855260208501939093529183015260608201526080016100d3565b6101c96101c4366004611f65565b610c8f565b6040516100d39190612331565b6101e96101e4366004611fa4565b6113ad565b604080519283526020830191909152016100d3565b610206611616565b6040516100d391906122b3565b610226610221366004611f65565b6118cb565b604080516001600160a01b039384168152929091166020830152016100d3565b6102066119f3565b60008060008060008060008060007f00000000000000000000000000000000000000000000000000000000000000006001600160a01b0316630261bf8b6040518163ffffffff1660e01b815260040160206040518083038186803b1580156102b557600080fd5b505afa1580156102c9573d6000803e3d6000fd5b505050506040513d601f19601f820116820180604052508101906102ed9190611f88565b6040516335ea6a7560e01b81526001600160a01b038d8116600483015291909116906335ea6a75906024016101406040518083038186803b15801561033157600080fd5b505afa158015610345573d6000803e3d6000fd5b505050506040513d601f19601f82011682018060405250810190610369919061213b565b905060007f00000000000000000000000000000000000000000000000000000000000000006001600160a01b0316630261bf8b6040518163ffffffff1660e01b815260040160206040518083038186803b1580156103c657600080fd5b505afa1580156103da573d6000803e3d6000fd5b505050506040513d601f19601f820116820180604052508101906103fe9190611f88565b604051634417a58360e01b81526001600160a01b038d811660048301529190911690634417a5839060240160206040518083038186803b15801561044157600080fd5b505afa158015610455573d6000803e3d6000fd5b505050506040513d601f19601f820116820180604052508101906104799190612120565b60c08301516040516370a0823160e01b81526001600160a01b038e811660048301529293509116906370a082319060240160206040518083038186803b1580156104c257600080fd5b505afa1580156104d6573d6000803e3d6000fd5b505050506040513d601f19601f820116820180604052508101906104fa9190612203565b60e08301516040516370a0823160e01b81526001600160a01b038e81166004830152929c509116906370a082319060240160206040518083038186803b15801561054357600080fd5b505afa158015610557573d6000803e3d6000fd5b505050506040513d601f19601f8201168201806040525081019061057b9190612203565b60e0830151604051630ed1279f60e11b81526001600160a01b038e81166004830152929b50911690631da24f3e9060240160206040518083038186803b1580156105c457600080fd5b505afa1580156105d8573d6000803e3d6000fd5b505050506040513d601f19601f820116820180604052508101906105fc9190612203565b975081606001516001600160801b0316965060007f00000000000000000000000000000000000000000000000000000000000000006001600160a01b0316630261bf8b6040518163ffffffff1660e01b815260040160206040518083038186803b15801561066957600080fd5b505afa15801561067d573d6000803e3d6000fd5b505050506040513d601f19601f820116820180604052508101906106a19190611f88565b604051632fe4a15f60e21b81526001600160a01b038e81166004830152919091169063bf92857c9060240160c06040518083038186803b1580156106e457600080fd5b505afa1580156106f8573d6000803e3d6000fd5b505050506040513d601f19601f8201168201806040525081019061071c919061223e565b60408051631f94a27560e31b81529051919d5093965061087095506001600160a01b037f000000000000000000000000000000000000000000000000000000000000000016945063fca513a893600480820194506020935090829003018186803b15801561078957600080fd5b505afa15801561079d573d6000803e3d6000fd5b505050506040513d601f19601f820116820180604052508101906107c19190611f88565b6001600160a01b031663b3596f078f6040518263ffffffff1660e01b81526004016107fb91906001600160a01b0391909116815260200190565b60206040518083038186803b15801561081357600080fd5b505afa158015610827573d6000803e3d6000fd5b505050506040513d601f19601f8201168201806040525081019061084b9190612203565b84515161086a9060301c60ff1661086390600a6124b5565b8490611d12565b90611d27565b955061088d83610120015160ff1683611d3390919063ffffffff16565b94506108aa83610120015160ff1683611da290919063ffffffff16565b93505050509295985092959890939650565b60008060008060008060008060007f00000000000000000000000000000000000000000000000000000000000000006001600160a01b0316630261bf8b6040518163ffffffff1660e01b815260040160206040518083038186803b15801561092357600080fd5b505afa158015610937573d6000803e3d6000fd5b505050506040513d601f19601f8201168201806040525081019061095b9190611f88565b6040516335ea6a7560e01b81526001600160a01b038c8116600483015291909116906335ea6a75906024016101406040518083038186803b15801561099f57600080fd5b505afa1580156109b3573d6000803e3d6000fd5b505050506040513d601f19601f820116820180604052508101906109d7919061213b565b905060008160e001516001600160a01b03166318160ddd6040518163ffffffff1660e01b815260040160206040518083038186803b158015610a1857600080fd5b505afa158015610a2c573d6000803e3d6000fd5b505050506040513d601f19601f82011682018060405250810190610a509190612203565b60c08301516040516370a0823160e01b81526001600160a01b039182166004820152919250600091908d16906370a082319060240160206040518083038186803b158015610a9d57600080fd5b505afa158015610ab1573d6000803e3d6000fd5b505050506040513d601f19601f82011682018060405250810190610ad59190612203565b90508115610af657610af1610aea8284611ded565b8390611df9565b610af9565b60005b606084015160808501516020860151604087015160a090970151949e50949c506001600160801b039182169b5081169950928316975091909216945092509050919395975091939597565b60008060008060007f00000000000000000000000000000000000000000000000000000000000000006001600160a01b0316630261bf8b6040518163ffffffff1660e01b815260040160206040518083038186803b158015610ba557600080fd5b505afa158015610bb9573d6000803e3d6000fd5b505050506040513d601f19601f82011682018060405250810190610bdd9190611f88565b60405163c44b11f760e01b81526001600160a01b038881166004830152919091169063c44b11f79060240160206040518083038186803b158015610c2057600080fd5b505afa158015610c34573d6000803e3d6000fd5b505050506040513d601f19601f82011682018060405250810190610c589190612120565b9050610c80815161ffff80821692601083901c821692602081901c9092169160301c60ff1690565b99929850909650945092505050565b606060007f00000000000000000000000000000000000000000000000000000000000000006001600160a01b0316630261bf8b6040518163ffffffff1660e01b815260040160206040518083038186803b158015610cec57600080fd5b505afa158015610d00573d6000803e3d6000fd5b505050506040513d601f19601f82011682018060405250810190610d249190611f88565b90506000816001600160a01b031663d1946dbc6040518163ffffffff1660e01b815260040160006040518083038186803b158015610d6157600080fd5b505afa158015610d75573d6000803e3d6000fd5b505050506040513d6000823e601f3d908101601f19168201604052610d9d9190810190611fdc565b604051634417a58360e01b81526001600160a01b038681166004830152919250600091841690634417a5839060240160206040518083038186803b158015610de457600080fd5b505afa158015610df8573d6000803e3d6000fd5b505050506040513d601f19601f82011682018060405250810190610e1c9190612120565b905060006001600160a01b038616610e35576000610e38565b82515b67ffffffffffffffff811115610e5e57634e487b7160e01b600052604160045260246000fd5b604051908082528060200260200182016040528015610ed157816020015b610ebe6040518060c0016040528060006001600160a01b0316815260200160608152602001600081526020016000815260200160008152602001600081525090565b815260200190600190039081610e7c5790505b50905060005b83518110156113a3576000856001600160a01b03166335ea6a75868481518110610f1157634e487b7160e01b600052603260045260246000fd5b60200260200101516040518263ffffffff1660e01b8152600401610f4491906001600160a01b0391909116815260200190565b6101406040518083038186803b158015610f5d57600080fd5b505afa158015610f71573d6000803e3d6000fd5b505050506040513d601f19601f82011682018060405250810190610f95919061213b565b9050848281518110610fb757634e487b7160e01b600052603260045260246000fd5b6020026020010151838381518110610fdf57634e487b7160e01b600052603260045260246000fd5b60209081029190910101516001600160a01b039091169052845185908390811061101957634e487b7160e01b600052603260045260246000fd5b60200260200101516001600160a01b03166395d89b416040518163ffffffff1660e01b815260040160006040518083038186803b15801561105957600080fd5b505afa15801561106d573d6000803e3d6000fd5b505050506040513d6000823e601f3d908101601f191682016040526110959190810190612090565b8383815181106110b557634e487b7160e01b600052603260045260246000fd5b602090810291909101810151015260c0810151604051630ed1279f60e11b81526001600160a01b038a8116600483015290911690631da24f3e9060240160206040518083038186803b15801561110a57600080fd5b505afa15801561111e573d6000803e3d6000fd5b505050506040513d601f19601f820116820180604052508101906111429190612203565b83838151811061116257634e487b7160e01b600052603260045260246000fd5b602090810291909101015160409081019190915260c082015190516370a0823160e01b81526001600160a01b038a81166004830152909116906370a082319060240160206040518083038186803b1580156111bc57600080fd5b505afa1580156111d0573d6000803e3d6000fd5b505050506040513d601f19601f820116820180604052508101906111f49190612203565b83838151811061121457634e487b7160e01b600052603260045260246000fd5b60209081029190910101516060015261122d8483611da2565b156113905760e0810151604051630ed1279f60e11b81526001600160a01b038a8116600483015290911690631da24f3e9060240160206040518083038186803b15801561127957600080fd5b505afa15801561128d573d6000803e3d6000fd5b505050506040513d601f19601f820116820180604052508101906112b19190612203565b8383815181106112d157634e487b7160e01b600052603260045260246000fd5b60209081029190910101516080015260e08101516040516370a0823160e01b81526001600160a01b038a81166004830152909116906370a082319060240160206040518083038186803b15801561132757600080fd5b505afa15801561133b573d6000803e3d6000fd5b505050506040513d601f19601f8201168201806040525081019061135f9190612203565b83838151811061137f57634e487b7160e01b600052603260045260246000fd5b602002602001015160a00181815250505b508061139b816125c3565b915050610ed7565b5095945050505050565b60008060007f00000000000000000000000000000000000000000000000000000000000000006001600160a01b0316630261bf8b6040518163ffffffff1660e01b815260040160206040518083038186803b15801561140b57600080fd5b505afa15801561141f573d6000803e3d6000fd5b505050506040513d601f19601f820116820180604052508101906114439190611f88565b60405163c44b11f760e01b81526001600160a01b038681166004830152919091169063c44b11f79060240160206040518083038186803b15801561148657600080fd5b505afa15801561149a573d6000803e3d6000fd5b505050506040513d601f19601f820116820180604052508101906114be9190612120565b90506114e6815161ffff80821692601083901c821692602081901c9092169160301c60ff1690565b90505080935081945050507f00000000000000000000000000000000000000000000000000000000000000006001600160a01b0316630261bf8b6040518163ffffffff1660e01b815260040160206040518083038186803b15801561154a57600080fd5b505afa15801561155e573d6000803e3d6000fd5b505050506040513d601f19601f820116820180604052508101906115829190611f88565b60405163434e178f60e01b81526001600160a01b0387811660048301526024820186905260448201859052919091169063434e178f90606401604080518083038186803b1580156115d257600080fd5b505afa1580156115e6573d6000803e3d6000fd5b505050506040513d601f19601f8201168201806040525081019061160a919061221b565b90969095509350505050565b606060007f00000000000000000000000000000000000000000000000000000000000000006001600160a01b0316630261bf8b6040518163ffffffff1660e01b815260040160206040518083038186803b15801561167357600080fd5b505afa158015611687573d6000803e3d6000fd5b505050506040513d601f19601f820116820180604052508101906116ab9190611f88565b90506000816001600160a01b031663d1946dbc6040518163ffffffff1660e01b815260040160006040518083038186803b1580156116e857600080fd5b505afa1580156116fc573d6000803e3d6000fd5b505050506040513d6000823e601f3d908101601f191682016040526117249190810190611fdc565b90506000815167ffffffffffffffff81111561175057634e487b7160e01b600052604160045260246000fd5b60405190808252806020026020018201604052801561179657816020015b60408051808201909152606081526000602082015281526020019060019003908161176e5790505b50905060005b82518110156118c35760405180604001604052808483815181106117d057634e487b7160e01b600052603260045260246000fd5b60200260200101516001600160a01b03166395d89b416040518163ffffffff1660e01b815260040160006040518083038186803b15801561181057600080fd5b505afa158015611824573d6000803e3d6000fd5b505050506040513d6000823e601f3d908101601f1916820160405261184c9190810190612090565b815260200184838151811061187157634e487b7160e01b600052603260045260246000fd5b60200260200101516001600160a01b03168152508282815181106118a557634e487b7160e01b600052603260045260246000fd5b602002602001018190525080806118bb906125c3565b91505061179c565b509392505050565b60008060007f00000000000000000000000000000000000000000000000000000000000000006001600160a01b0316630261bf8b6040518163ffffffff1660e01b815260040160206040518083038186803b15801561192957600080fd5b505afa15801561193d573d6000803e3d6000fd5b505050506040513d601f19601f820116820180604052508101906119619190611f88565b6040516335ea6a7560e01b81526001600160a01b03868116600483015291909116906335ea6a75906024016101406040518083038186803b1580156119a557600080fd5b505afa1580156119b9573d6000803e3d6000fd5b505050506040513d601f19601f820116820180604052508101906119dd919061213b565b90508060c001518160e001519250925050915091565b606060007f00000000000000000000000000000000000000000000000000000000000000006001600160a01b0316630261bf8b6040518163ffffffff1660e01b815260040160206040518083038186803b158015611a5057600080fd5b505afa158015611a64573d6000803e3d6000fd5b505050506040513d601f19601f82011682018060405250810190611a889190611f88565b90506000816001600160a01b031663d1946dbc6040518163ffffffff1660e01b815260040160006040518083038186803b158015611ac557600080fd5b505afa158015611ad9573d6000803e3d6000fd5b505050506040513d6000823e601f3d908101601f19168201604052611b019190810190611fdc565b90506000815167ffffffffffffffff811115611b2d57634e487b7160e01b600052604160045260246000fd5b604051908082528060200260200182016040528015611b7357816020015b604080518082019091526060815260006020820152815260200190600190039081611b4b5790505b50905060005b82518110156118c3576000846001600160a01b03166335ea6a75858481518110611bb357634e487b7160e01b600052603260045260246000fd5b60200260200101516040518263ffffffff1660e01b8152600401611be691906001600160a01b0391909116815260200190565b6101406040518083038186803b158015611bff57600080fd5b505afa158015611c13573d6000803e3d6000fd5b505050506040513d601f19601f82011682018060405250810190611c37919061213b565b905060405180604001604052808260c001516001600160a01b03166395d89b416040518163ffffffff1660e01b815260040160006040518083038186803b158015611c8157600080fd5b505afa158015611c95573d6000803e3d6000fd5b505050506040513d6000823e601f3d908101601f19168201604052611cbd9190810190612090565b81526020018260c001516001600160a01b0316815250838381518110611cf357634e487b7160e01b600052603260045260246000fd5b6020026020010181905250508080611d0a906125c3565b915050611b79565b6000611d1e828461255d565b90505b92915050565b6000611d1e8284612452565b60006080821060405180604001604052806002815260200161373760f01b81525090611d7b5760405162461bcd60e51b8152600401611d7291906123cc565b60405180910390fd5b50611d8782600261255d565b611d9290600161243a565b925190921c600116151592915050565b60006080821060405180604001604052806002815260200161373760f01b81525090611de15760405162461bcd60e51b8152600401611d7291906123cc565b50611d9282600261255d565b6000611d1e828461243a565b604080518082019091526002815261035360f41b602082015260009082611e335760405162461bcd60e51b8152600401611d7291906123cc565b506000611e41600284612452565b90506b033b2e3c9fd0803ce8000000611e5c8260001961257c565b611e669190612452565b84111560405180604001604052806002815260200161068760f31b81525090611ea25760405162461bcd60e51b8152600401611d7291906123cc565b508281611ebb6b033b2e3c9fd0803ce80000008761255d565b611ec5919061243a565b611ecf9190612452565b949350505050565b8051611ee28161260a565b919050565b600060208284031215611ef8578081fd5b6040516020810181811067ffffffffffffffff82111715611f1b57611f1b6125f4565b6040529151825250919050565b80516001600160801b0381168114611ee257600080fd5b805164ffffffffff81168114611ee257600080fd5b805160ff81168114611ee257600080fd5b600060208284031215611f76578081fd5b8135611f818161260a565b9392505050565b600060208284031215611f99578081fd5b8151611f818161260a565b60008060408385031215611fb6578081fd5b8235611fc18161260a565b91506020830135611fd18161260a565b809150509250929050565b60006020808385031215611fee578182fd5b825167ffffffffffffffff80821115612005578384fd5b818501915085601f830112612018578384fd5b81518181111561202a5761202a6125f4565b8060051b915061203b848301612409565b8181528481019084860184860187018a1015612055578788fd5b8795505b83861015612083578051945061206e8561260a565b84835260019590950194918601918601612059565b5098975050505050505050565b6000602082840312156120a1578081fd5b815167ffffffffffffffff808211156120b8578283fd5b818401915084601f8301126120cb578283fd5b8151818111156120dd576120dd6125f4565b6120f0601f8201601f1916602001612409565b9150808252856020828501011115612106578384fd5b612117816020840160208601612593565b50949350505050565b600060208284031215612131578081fd5b611d1e8383611ee7565b6000610140828403121561214d578081fd5b6121556123df565b61215f8484611ee7565b815261216d60208401611f28565b602082015261217e60408401611f28565b604082015261218f60608401611f28565b60608201526121a060808401611f28565b60808201526121b160a08401611f3f565b60a08201526121c260c08401611ed7565b60c08201526121d360e08401611ed7565b60e08201526101006121e6818501611ed7565b908201526101206121f8848201611f54565b908201529392505050565b600060208284031215612214578081fd5b5051919050565b6000806040838503121561222d578182fd5b505080516020909101519092909150565b60008060008060008060c08789031215612256578182fd5b865195506020870151945060408701519350606087015192506080870151915060a087015190509295509295509295565b6000815180845261229f816020860160208601612593565b601f01601f19169290920160200192915050565b60006020808301818452808551808352604092508286019150828160051b870101848801865b8381101561232357888303603f19018552815180518785526122fd88860182612287565b918901516001600160a01b031694890194909452948701949250908601906001016122d9565b509098975050505050505050565b60006020808301818452808551808352604092508286019150828160051b870101848801865b8381101561232357888303603f19018552815180516001600160a01b031684528781015160c08986018190529061239082870182612287565b838a0151878b0152606080850151908801526080808501519088015260a093840151939096019290925250509386019390860190600101612357565b602081526000611d1e6020830184612287565b604051610140810167ffffffffffffffff81118282101715612403576124036125f4565b60405290565b604051601f8201601f1916810167ffffffffffffffff81118282101715612432576124326125f4565b604052919050565b6000821982111561244d5761244d6125de565b500190565b60008261246d57634e487b7160e01b81526012600452602481fd5b500490565b600181815b808511156124ad578160001904821115612493576124936125de565b808516156124a057918102915b93841c9390800290612477565b509250929050565b6000611d1e83836000826124cb57506001611d21565b816124d857506000611d21565b81600181146124ee57600281146124f857612514565b6001915050611d21565b60ff841115612509576125096125de565b50506001821b611d21565b5060208310610133831016604e8410600b8410161715612537575081810a611d21565b6125418383612472565b8060001904821115612555576125556125de565b029392505050565b6000816000190483118215151615612577576125776125de565b500290565b60008282101561258e5761258e6125de565b500390565b60005b838110156125ae578181015183820152602001612596565b838111156125bd576000848401525b50505050565b60006000198214156125d7576125d76125de565b5060010190565b634e487b7160e01b600052601160045260246000fd5b634e487b7160e01b600052604160045260246000fd5b6001600160a01b038116811461261f57600080fd5b5056fea2646970667358221220fc58e3631ba5d6c42026dfd97b06a0c3e3feeafb82eecbc73118e3a45f5fe38264736f6c6343000804003360806040523480156200001157600080fd5b5060405162000ebe38038062000ebe8339810160408190526200003491620001c9565b80518251146200008a5760405162461bcd60e51b815260206004820152601a60248201527f494e434f4e53495354454e545f504152414d535f4c454e475448000000000000604482015260640160405180910390fd5b60005b82518110156200013457818181518110620000b857634e487b7160e01b600052603260045260246000fd5b6020026020010151600080858481518110620000e457634e487b7160e01b600052603260045260246000fd5b6020026020010151815260200190815260200160002060006101000a8154816001600160a01b0302191690836001600160a01b0316021790555080806200012b90620002ea565b9150506200008d565b50505062000328565b600082601f8301126200014e578081fd5b81516020620001676200016183620002c4565b62000291565b80838252828201915082860187848660051b890101111562000187578586fd5b855b85811015620001bc5781516001600160a01b0381168114620001a9578788fd5b8452928401929084019060010162000189565b5090979650505050505050565b60008060408385031215620001dc578182fd5b82516001600160401b0380821115620001f3578384fd5b818501915085601f83011262000207578384fd5b815160206200021a6200016183620002c4565b8083825282820191508286018a848660051b89010111156200023a578889fd5b8896505b848710156200025e5780518352600196909601959183019183016200023e565b509188015191965090935050508082111562000278578283fd5b5062000287858286016200013d565b9150509250929050565b604051601f8201601f191681016001600160401b0381118282101715620002bc57620002bc62000312565b604052919050565b60006001600160401b03821115620002e057620002e062000312565b5060051b60200190565b60006000198214156200030b57634e487b7160e01b81526011600452602481fd5b5060010190565b634e487b7160e01b600052604160045260246000fd5b610b8680620003386000396000f3fe6080604052600436106100435760003560e01c80630240534314610087578063b59b28ef146100be578063dffad8e9146100eb578063f7888aec1461011957600080fd5b3661008257333b6100805760405162461bcd60e51b8152602060048201526002602482015261191960f11b60448201526064015b60405180910390fd5b005b600080fd5b34801561009357600080fd5b506100a76100a2366004610826565b610139565b6040516100b5929190610a47565b60405180910390f35b3480156100ca57600080fd5b506100de6100d936600461085e565b61048b565b6040516100b59190610aa7565b3480156100f757600080fd5b5061010b61010636600461098e565b6105dc565b6040519081526020016100b5565b34801561012557600080fd5b5061010b610134366004610826565b610674565b6060806000846001600160a01b0316630261bf8b6040518163ffffffff1660e01b815260040160206040518083038186803b15801561017757600080fd5b505afa15801561018b573d6000803e3d6000fd5b505050506040513d601f19601f820116820180604052508101906101af919061080a565b90506000816001600160a01b031663d1946dbc6040518163ffffffff1660e01b815260040160006040518083038186803b1580156101ec57600080fd5b505afa158015610200573d6000803e3d6000fd5b505050506040513d6000823e601f3d908101601f1916820160405261022891908101906108c7565b905060008151600161023a9190610aba565b67ffffffffffffffff81111561026057634e487b7160e01b600052604160045260246000fd5b604051908082528060200260200182016040528015610289578160200160208202803683370190505b50905060005b825181101561030a578281815181106102b857634e487b7160e01b600052603260045260246000fd5b60200260200101518282815181106102e057634e487b7160e01b600052603260045260246000fd5b6001600160a01b03909216602092830291909101909101528061030281610af1565b91505061028f565b5073eeeeeeeeeeeeeeeeeeeeeeeeeeeeeeeeeeeeeeee8183518151811061034157634e487b7160e01b600052603260045260246000fd5b60200260200101906001600160a01b031690816001600160a01b0316815250506000815167ffffffffffffffff81111561038b57634e487b7160e01b600052604160045260246000fd5b6040519080825280602002602001820160405280156103b4578160200160208202803683370190505b50905060005b8351811015610431576103f4888483815181106103e757634e487b7160e01b600052603260045260246000fd5b6020026020010151610674565b82828151811061041457634e487b7160e01b600052603260045260246000fd5b60209081029190910101528061042981610af1565b9150506103ba565b506104508773eeeeeeeeeeeeeeeeeeeeeeeeeeeeeeeeeeeeeeee610674565b8184518151811061047157634e487b7160e01b600052603260045260246000fd5b6020908102919091010152909450925050505b9250929050565b606060006104998386610ad2565b67ffffffffffffffff8111156104bf57634e487b7160e01b600052604160045260246000fd5b6040519080825280602002602001820160405280156104e8578160200160208202803683370190505b50905060005b858110156105d25760005b848110156105bf5761056e88888481811061052457634e487b7160e01b600052603260045260246000fd5b905060200201602081019061053991906107e7565b87878481811061055957634e487b7160e01b600052603260045260246000fd5b905060200201602081019061013491906107e7565b838261057a8886610ad2565b6105849190610aba565b815181106105a257634e487b7160e01b600052603260045260246000fd5b6020908102919091010152806105b781610af1565b9150506104f9565b50806105ca81610af1565b9150506104ee565b5095945050505050565b600081815260208190526040808220548151633fabe5a360e21b815291516001600160a01b03909116918391839163feaf968c9160048083019260a0929190829003018186803b15801561062f57600080fd5b505afa158015610643573d6000803e3d6000fd5b505050506040513d601f19601f8201168201806040525081019061066791906109be565b5091979650505050505050565b60006001600160a01b03821673eeeeeeeeeeeeeeeeeeeeeeeeeeeeeeeeeeeeeeee14156106ac57506001600160a01b03821631610774565b6001600160a01b0382163b1561073c576040516370a0823160e01b81526001600160a01b0384811660048301528316906370a082319060240160206040518083038186803b1580156106fd57600080fd5b505afa158015610711573d6000803e3d6000fd5b505050506040513d601f19601f8201168201806040525081019061073591906109a6565b9050610774565b60405162461bcd60e51b815260206004820152600d60248201526c24a72b20a624a22faa27a5a2a760991b6044820152606401610077565b92915050565b805161078581610b38565b919050565b60008083601f84011261079b578081fd5b50813567ffffffffffffffff8111156107b2578182fd5b6020830191508360208260051b850101111561048457600080fd5b805169ffffffffffffffffffff8116811461078557600080fd5b6000602082840312156107f8578081fd5b813561080381610b38565b9392505050565b60006020828403121561081b578081fd5b815161080381610b38565b60008060408385031215610838578081fd5b823561084381610b38565b9150602083013561085381610b38565b809150509250929050565b60008060008060408587031215610873578182fd5b843567ffffffffffffffff8082111561088a578384fd5b6108968883890161078a565b909650945060208701359150808211156108ae578384fd5b506108bb8782880161078a565b95989497509550505050565b600060208083850312156108d9578182fd5b825167ffffffffffffffff808211156108f0578384fd5b818501915085601f830112610903578384fd5b81518181111561091557610915610b22565b8060051b604051601f19603f8301168101818110858211171561093a5761093a610b22565b604052828152858101935084860182860187018a1015610958578788fd5b8795505b838610156109815761096d8161077a565b85526001959095019493860193860161095c565b5098975050505050505050565b60006020828403121561099f578081fd5b5035919050565b6000602082840312156109b7578081fd5b5051919050565b600080600080600060a086880312156109d5578081fd5b6109de866107cd565b9450602086015193506040860151925060608601519150610a01608087016107cd565b90509295509295909350565b6000815180845260208085019450808401835b83811015610a3c57815187529582019590820190600101610a20565b509495945050505050565b604080825283519082018190526000906020906060840190828701845b82811015610a895781516001600160a01b031684529284019290840190600101610a64565b50505083810382850152610a9d8186610a0d565b9695505050505050565b6020815260006108036020830184610a0d565b60008219821115610acd57610acd610b0c565b500190565b6000816000190483118215151615610aec57610aec610b0c565b500290565b6000600019821415610b0557610b05610b0c565b5060010190565b634e487b7160e01b600052601160045260246000fd5b634e487b7160e01b600052604160045260246000fd5b6001600160a01b0381168114610b4d57600080fd5b5056fea2646970667358221220c89cb59a34b626d92d15afe71fb28de3f99dcbcfc9c1bc3007cde56cd663d47864736f6c6343000804003360806040523480156200001157600080fd5b5060405162001c1b38038062001c1b833981016040819052620000349162000292565b604080518082018252600b8082526a105513d2d15397d253541360aa1b6020808401828152855180870190965292855284015281519192916000916200007e916003919062000139565b5081516200009490600490602085019062000139565b506005805460ff191660ff9290921691909117905550620000b790508262000110565b620000c28162000129565b6005805460ff191660ff8516179055505060058054610100600160a81b0319166101006001600160a01b039586160217905550600680546001600160a01b03191691909216179055620003aa565b80516200012590600390602084019062000139565b5050565b8051620001259060049060208401905b82805462000147906200033e565b90600052602060002090601f0160209004810192826200016b5760008555620001b6565b82601f106200018657805160ff1916838001178555620001b6565b82800160010185558215620001b6579182015b82811115620001b657825182559160200191906001019062000199565b50620001c4929150620001c8565b5090565b5b80821115620001c45760008155600101620001c9565b600082601f830112620001f0578081fd5b81516001600160401b03808211156200020d576200020d6200037b565b604051601f8301601f19908116603f011681019082821181831017156200023857620002386200037b565b8160405283815260209250868385880101111562000254578485fd5b8491505b8382101562000277578582018301518183018401529082019062000258565b838211156200028857848385830101525b9695505050505050565b600080600080600060a08688031215620002aa578081fd5b8551620002b78162000391565b6020870151909550620002ca8162000391565b604087015190945060ff81168114620002e1578182fd5b60608701519093506001600160401b0380821115620002fe578283fd5b6200030c89838a01620001df565b9350608088015191508082111562000322578283fd5b506200033188828901620001df565b9150509295509295909350565b600181811c908216806200035357607f821691505b602082108114156200037557634e487b7160e01b600052602260045260246000fd5b50919050565b634e487b7160e01b600052604160045260246000fd5b6001600160a01b0381168114620003a757600080fd5b50565b61186180620003ba6000396000f3fe608060405234801561001057600080fd5b50600436106101375760003560e01c806370a08231116100b8578063a9059cbb1161007c578063a9059cbb146102b6578063b16a19de146102c9578063b1bf962d146102da578063d7020d0a146102e2578063dd62ed3e146102f5578063f866c3191461032e57600080fd5b806370a08231146102495780637535d2461461025c57806388dd91a11461028657806395d89b411461029b578063a457c2d7146102a357600080fd5b80631da24f3e116100ff5780631da24f3e146101e857806323b872dd146101fb578063313ce5671461020e57806339509351146102235780634efecaa51461023657600080fd5b806306fdde031461013c578063095ea7b31461015a5780630afbcdc91461017d578063156e29f6146101bf57806318160ddd146101d2575b600080fd5b610144610341565b604051610151919061165a565b60405180910390f35b61016d6101683660046115ab565b6103d3565b6040519015158152602001610151565b6101aa61018b3660046114e3565b6001600160a01b03166000908152602081905260409020546002549091565b60408051928352602083019190915201610151565b61016d6101cd3660046115d4565b6103ea565b6101da610534565b604051908152602001610151565b6101da6101f63660046114e3565b6105e5565b61016d61020936600461152f565b610603565b60055460405160ff9091168152602001610151565b61016d6102313660046115ab565b6106a7565b6101da6102443660046115ab565b6106dd565b6101da6102573660046114e3565b610753565b60055461010090046001600160a01b03165b6040516001600160a01b039091168152602001610151565b6102996102943660046115ab565b6107fe565b005b610144610858565b61016d6102b13660046115ab565b610867565b61016d6102c43660046115ab565b6108b6565b6006546001600160a01b031661026e565b6101da6108fa565b6102996102f036600461156a565b61090a565b6101da6103033660046114fd565b6001600160a01b03918216600090815260016020908152604080832093909416825291909152205490565b61029961033c36600461152f565b610a54565b6060600380546103509061172b565b80601f016020809104026020016040519081016040528092919081815260200182805461037c9061172b565b80156103c95780601f1061039e576101008083540402835291602001916103c9565b820191906000526020600020905b8154815290600101906020018083116103ac57829003601f168201915b5050505050905090565b60006103e0338484610af7565b5060015b92915050565b60055460009061010090046001600160a01b0316336001600160a01b03161460405180604001604052806002815260200161323960f01b8152509061044b5760405162461bcd60e51b8152600401610442919061165a565b60405180910390fd5b506001600160a01b038416600090815260208190526040812054906104708585610c13565b6040805180820190915260028152611a9b60f11b6020820152909150816104aa5760405162461bcd60e51b8152600401610442919061165a565b506104b58682610cf1565b6040518581526001600160a01b038716906000906000805160206117e78339815191529060200160405180910390a360408051868152602081018690526001600160a01b038816917f4c209b5fc8ad50758f13e2e1088ba56a560dff690a1c6fef26394f4c03821c4f910160405180910390a2501590505b9392505050565b60008061054060025490565b90508061054f57600091505090565b60055460065460405163d15e005360e01b81526001600160a01b0391821660048201526105df9261010090049091169063d15e00539060240160206040518083038186803b1580156105a057600080fd5b505afa1580156105b4573d6000803e3d6000fd5b505050506040513d601f19601f820116820180604052508101906105d89190611626565b8290610d9c565b91505090565b6001600160a01b0381166000908152602081905260408120546103e4565b6000610610848484610e57565b610662843361065d856040518060600160405280602881526020016117bf602891396001600160a01b038a1660009081526001602090815260408083203384529091529020549190610e64565b610af7565b826001600160a01b0316846001600160a01b03166000805160206117e78339815191528460405161069591815260200190565b60405180910390a35060019392505050565b3360008181526001602090815260408083206001600160a01b038716845290915281205490916103e091859061065d9086610e90565b60055460009061010090046001600160a01b0316336001600160a01b03161460405180604001604052806002815260200161323960f01b815250906107355760405162461bcd60e51b8152600401610442919061165a565b5060065461074d906001600160a01b03168484610e9c565b50919050565b60055460065460405163d15e005360e01b81526001600160a01b0391821660048201526000926103e492610100909104169063d15e00539060240160206040518083038186803b1580156107a657600080fd5b505afa1580156107ba573d6000803e3d6000fd5b505050506040513d601f19601f820116820180604052508101906107de9190611626565b6001600160a01b0384166000908152602081905260409020545b90610d9c565b60055461010090046001600160a01b0316336001600160a01b03161460405180604001604052806002815260200161323960f01b815250906108535760405162461bcd60e51b8152600401610442919061165a565b505050565b6060600480546103509061172b565b60006103e0338461065d85604051806060016040528060258152602001611807602591393360009081526001602090815260408083206001600160a01b038d1684529091529020549190610e64565b60006108c3338484610e57565b6040518281526001600160a01b0384169033906000805160206117e78339815191529060200160405180910390a350600192915050565b600061090560025490565b905090565b60055461010090046001600160a01b0316336001600160a01b03161460405180604001604052806002815260200161323960f01b8152509061095f5760405162461bcd60e51b8152600401610442919061165a565b50600061096c8383610c13565b60408051808201909152600281526106a760f31b6020820152909150816109a65760405162461bcd60e51b8152600401610442919061165a565b506109b18582610eee565b6006546109c8906001600160a01b03168585610e9c565b6040518381526000906001600160a01b038716906000805160206117e78339815191529060200160405180910390a3836001600160a01b0316856001600160a01b03167f5d624aa9c148153ab3446c1b154f660ee7701e549fe9b62dab7171b1c80e6fa28585604051610a45929190918252602082015260400190565b60405180910390a35050505050565b60055461010090046001600160a01b0316336001600160a01b03161460405180604001604052806002815260200161323960f01b81525090610aa95760405162461bcd60e51b8152600401610442919061165a565b50610ab78383836000610f9f565b816001600160a01b0316836001600160a01b03166000805160206117e783398151915283604051610aea91815260200190565b60405180910390a3505050565b6001600160a01b038316610b595760405162461bcd60e51b8152602060048201526024808201527f45524332303a20617070726f76652066726f6d20746865207a65726f206164646044820152637265737360e01b6064820152608401610442565b6001600160a01b038216610bba5760405162461bcd60e51b815260206004820152602260248201527f45524332303a20617070726f766520746f20746865207a65726f206164647265604482015261737360f01b6064820152608401610442565b6001600160a01b0383811660008181526001602090815260408083209487168084529482529182902085905590518481527f8c5be1e5ebec7d5bd14f71427d1e84f3dd0314c0f7b2291e5b200ac8c7c3b9259101610aea565b604080518082019091526002815261035360f41b602082015260009082610c4d5760405162461bcd60e51b8152600401610442919061165a565b506000610c5b6002846116a5565b90506b033b2e3c9fd0803ce8000000610c76826000196116e4565b610c8091906116a5565b84111560405180604001604052806002815260200161068760f31b81525090610cbc5760405162461bcd60e51b8152600401610442919061165a565b508281610cd56b033b2e3c9fd0803ce8000000876116c5565b610cdf919061168d565b610ce991906116a5565b949350505050565b6001600160a01b038216610d475760405162461bcd60e51b815260206004820152601f60248201527f45524332303a206d696e7420746f20746865207a65726f2061646472657373006044820152606401610442565b600254610d548183610e90565b6002556001600160a01b038316600090815260208190526040902054610d7a8184610e90565b6001600160a01b03909416600090815260208190526040902093909355505050565b6000821580610da9575081155b15610db6575060006103e4565b81610dce60026b033b2e3c9fd0803ce80000006116a5565b610dda906000196116e4565b610de491906116a5565b83111560405180604001604052806002815260200161068760f31b81525090610e205760405162461bcd60e51b8152600401610442919061165a565b506b033b2e3c9fd0803ce8000000610e396002826116a5565b610e4384866116c5565b610e4d919061168d565b61052d91906116a5565b6108538383836001610f9f565b60008184841115610e885760405162461bcd60e51b8152600401610442919061165a565b505050900390565b600061052d828461168d565b604080516001600160a01b038416602482015260448082018490528251808303909101815260649091019091526020810180516001600160e01b031663a9059cbb60e01b179052610853908490611179565b6001600160a01b038216610f4e5760405162461bcd60e51b815260206004820152602160248201527f45524332303a206275726e2066726f6d20746865207a65726f206164647265736044820152607360f81b6064820152608401610442565b600254610f5b818361124b565b6002556001600160a01b038316600090815260208181526040918290205482516060810190935260228084529092610d7a9286929061177790830139839190610e64565b60065460055460405163d15e005360e01b81526001600160a01b03928316600482018190529261010090920490911690600090829063d15e00539060240160206040518083038186803b158015610ff557600080fd5b505afa158015611009573d6000803e3d6000fd5b505050506040513d601f19601f8201168201806040525081019061102d9190611626565b90506000611054826107f88a6001600160a01b031660009081526020819052604090205490565b9050600061107b836107f88a6001600160a01b031660009081526020819052604090205490565b9050611091898961108c8a87610c13565b611257565b85156111185760405163d5ed393360e01b81526001600160a01b0386811660048301528a811660248301528981166044830152606482018990526084820184905260a4820183905285169063d5ed39339060c401600060405180830381600087803b1580156110ff57600080fd5b505af1158015611113573d6000803e3d6000fd5b505050505b876001600160a01b0316896001600160a01b03167f4beccb90f994c31aced7a23b5611020728a23d8ec5cddd1a3e9d97b96fda86668986604051611166929190918252602082015260400190565b60405180910390a3505050505050505050565b60006111ce826040518060400160405280602081526020017f5361666545524332303a206c6f772d6c6576656c2063616c6c206661696c6564815250856001600160a01b03166113bc9092919063ffffffff16565b80519091501561085357808060200190518101906111ec9190611606565b6108535760405162461bcd60e51b815260206004820152602a60248201527f5361666545524332303a204552433230206f7065726174696f6e20646964206e6044820152691bdd081cdd58d8d9595960b21b6064820152608401610442565b600061052d82846116e4565b6001600160a01b0383166112bb5760405162461bcd60e51b815260206004820152602560248201527f45524332303a207472616e736665722066726f6d20746865207a65726f206164604482015264647265737360d81b6064820152608401610442565b6001600160a01b03821661131d5760405162461bcd60e51b815260206004820152602360248201527f45524332303a207472616e7366657220746f20746865207a65726f206164647260448201526265737360e81b6064820152608401610442565b6000806000856001600160a01b03166001600160a01b0316815260200190815260200160002054905061136b8260405180606001604052806026815260200161179960269139839190610e64565b6001600160a01b03808616600090815260208190526040808220939093559085168152205461139a9083610e90565b6001600160a01b03909316600090815260208190526040902092909255505050565b6060610ce9848460008585843b6114155760405162461bcd60e51b815260206004820152601d60248201527f416464726573733a2063616c6c20746f206e6f6e2d636f6e74726163740000006044820152606401610442565b600080866001600160a01b03168587604051611431919061163e565b60006040518083038185875af1925050503d806000811461146e576040519150601f19603f3d011682016040523d82523d6000602084013e611473565b606091505b509150915061148382828661148e565b979650505050505050565b6060831561149d57508161052d565b8251156114ad5782518084602001fd5b8160405162461bcd60e51b8152600401610442919061165a565b80356001600160a01b03811681146114de57600080fd5b919050565b6000602082840312156114f4578081fd5b61052d826114c7565b6000806040838503121561150f578081fd5b611518836114c7565b9150611526602084016114c7565b90509250929050565b600080600060608486031215611543578081fd5b61154c846114c7565b925061155a602085016114c7565b9150604084013590509250925092565b6000806000806080858703121561157f578081fd5b611588856114c7565b9350611596602086016114c7565b93969395505050506040820135916060013590565b600080604083850312156115bd578182fd5b6115c6836114c7565b946020939093013593505050565b6000806000606084860312156115e8578283fd5b6115f1846114c7565b95602085013595506040909401359392505050565b600060208284031215611617578081fd5b8151801515811461052d578182fd5b600060208284031215611637578081fd5b5051919050565b600082516116508184602087016116fb565b9190910192915050565b60208152600082518060208401526116798160408501602087016116fb565b601f01601f19169190910160400192915050565b600082198211156116a0576116a0611760565b500190565b6000826116c057634e487b7160e01b81526012600452602481fd5b500490565b60008160001904831182151516156116df576116df611760565b500290565b6000828210156116f6576116f6611760565b500390565b60005b838110156117165781810151838201526020016116fe565b83811115611725576000848401525b50505050565b600181811c9082168061173f57607f821691505b6020821081141561074d57634e487b7160e01b600052602260045260246000fd5b634e487b7160e01b600052601160045260246000fdfe45524332303a206275726e20616d6f756e7420657863656564732062616c616e636545524332303a207472616e7366657220616d6f756e7420657863656564732062616c616e636545524332303a207472616e7366657220616d6f756e74206578636565647320616c6c6f77616e6365ddf252ad1be2c89b69c2b068fc378daa952ba7f163c4a11628f55a4df523b3ef45524332303a2064656372656173656420616c6c6f77616e63652062656c6f77207a65726fa264697066735822122057c84a43b0f9461083b8e14eaff5a01159de643e321a039641480e62451cc40f64736f6c6343000804003360806040523480156200001157600080fd5b50604051620013ae380380620013ae83398101604081905262000034916200028f565b604080518082018252600e8082526d111150951513d2d15397d253541360921b60208084018281528551808701909652928552840152815191929160009162000081916003919062000136565b5081516200009790600490602085019062000136565b506005805460ff191660ff9290921691909117905550620000ba9050826200010d565b620000c58162000126565b6005805460ff191660ff85161790555050600780546001600160a01b039485166001600160a01b031991821617909155600880549390941692169190911790915550620003a7565b80516200012290600390602084019062000136565b5050565b8051620001229060049060208401905b82805462000144906200033b565b90600052602060002090601f016020900481019282620001685760008555620001b3565b82601f106200018357805160ff1916838001178555620001b3565b82800160010185558215620001b3579182015b82811115620001b357825182559160200191906001019062000196565b50620001c1929150620001c5565b5090565b5b80821115620001c15760008155600101620001c6565b600082601f830112620001ed578081fd5b81516001600160401b03808211156200020a576200020a62000378565b604051601f8301601f19908116603f0116810190828211818310171562000235576200023562000378565b8160405283815260209250868385880101111562000251578485fd5b8491505b8382101562000274578582018301518183018401529082019062000255565b838211156200028557848385830101525b9695505050505050565b600080600080600060a08688031215620002a7578081fd5b8551620002b4816200038e565b6020870151909550620002c7816200038e565b604087015190945060ff81168114620002de578182fd5b60608701519093506001600160401b0380821115620002fb578283fd5b6200030989838a01620001dc565b935060808801519150808211156200031f578283fd5b506200032e88828901620001dc565b9150509295509295909350565b600181811c908216806200035057607f821691505b602082108114156200037257634e487b7160e01b600052602260045260246000fd5b50919050565b634e487b7160e01b600052604160045260246000fd5b6001600160a01b0381168114620003a457600080fd5b50565b610ff780620003b76000396000f3fe608060405234801561001057600080fd5b50600436106101375760003560e01c80637535d246116100b8578063b1bf962d1161007c578063b1bf962d146102bb578063b3f1c93d146102c3578063b9a7b622146102d6578063c04a8a10146102de578063dd62ed3e146102f3578063f5298aca1461030157600080fd5b80637535d2461461026f57806395d89b4114610294578063a457c2d714610210578063a9059cbb1461029c578063b16a19de146102aa57600080fd5b806323b872dd116100ff57806323b872dd146101e8578063313ce567146101fb57806339509351146102105780636bd76d241461022357806370a082311461025c57600080fd5b806306fdde031461013c578063095ea7b31461015a5780630afbcdc91461017d57806318160ddd146101bf5780631da24f3e146101d5575b600080fd5b610144610314565b6040516101519190610e8d565b60405180910390f35b61016d610168366004610e1a565b6103a6565b6040519015158152602001610151565b6101aa61018b366004610d52565b6001600160a01b03166000908152602081905260409020546002549091565b60408051928352602083019190915201610151565b6101c76103ef565b604051908152602001610151565b6101c76101e3366004610d52565b610482565b61016d6101f6366004610d9e565b6104a2565b60055460405160ff9091168152602001610151565b61016d61021e366004610e1a565b6104e6565b6101c7610231366004610d6c565b6001600160a01b03918216600090815260066020908152604080832093909416825291909152205490565b6101c761026a366004610d52565b610531565b6007546001600160a01b03165b6040516001600160a01b039091168152602001610151565b6101446105eb565b61016d6101f6366004610e1a565b6008546001600160a01b031661027c565b6101c76105fa565b61016d6102d1366004610dd9565b610605565b6101c7600181565b6102f16102ec366004610e1a565b610796565b005b6101c761021e366004610d6c565b6102f161030f366004610e43565b61080d565b60606003805461032390610f4e565b80601f016020809104026020016040519081016040528092919081815260200182805461034f90610f4e565b801561039c5780601f106103715761010080835404028352916020019161039c565b820191906000526020600020905b81548152906001019060200180831161037f57829003601f168201915b5050505050905090565b60405162461bcd60e51b81526020600482015260166024820152751054141493d5905317d393d517d4d5541413d495115160521b60448201526000906064015b60405180910390fd5b60075460085460405163386497fd60e01b81526001600160a01b03918216600482015260009261047d92169063386497fd9060240160206040518083038186803b15801561043c57600080fd5b505afa158015610450573d6000803e3d6000fd5b505050506040513d601f19601f820116820180604052508101906104749190610e75565b6002549061092f565b905090565b6001600160a01b0381166000908152602081905260408120545b92915050565b60405162461bcd60e51b81526020600482015260166024820152751514905394d1915497d393d517d4d5541413d495115160521b60448201526000906064016103e6565b60405162461bcd60e51b815260206004820152601760248201527f414c4c4f57414e43455f4e4f545f535550504f5254454400000000000000000060448201526000906064016103e6565b6001600160a01b038116600090815260208190526040812054806105585750600092915050565b60075460085460405163386497fd60e01b81526001600160a01b0391821660048201526105e492919091169063386497fd9060240160206040518083038186803b1580156105a557600080fd5b505afa1580156105b9573d6000803e3d6000fd5b505050506040513d601f19601f820116820180604052508101906105dd9190610e75565b829061092f565b9392505050565b60606004805461032390610f4e565b600061047d60025490565b60006106196007546001600160a01b031690565b6001600160a01b0316336001600160a01b03161460405180604001604052806002815260200161323960f01b815250906106665760405162461bcd60e51b81526004016103e69190610e8d565b50836001600160a01b0316856001600160a01b03161461068b5761068b8486856109ea565b6001600160a01b038416600090815260208190526040812054906106af8585610abc565b6040805180820190915260028152611a9b60f11b6020820152909150816106e95760405162461bcd60e51b81526004016103e69190610e8d565b506106f48682610b9a565b6040518581526001600160a01b038716906000907fddf252ad1be2c89b69c2b068fc378daa952ba7f163c4a11628f55a4df523b3ef9060200160405180910390a3856001600160a01b0316876001600160a01b03167f2f00e3cdd69a77be7ed215ec7b2a36784dd158f921fca79ac29deffa353fe6ee8787604051610783929190918252602082015260400190565b60405180910390a3501595945050505050565b3360008181526006602090815260408083206001600160a01b038781168086529190935292208490556008549192917fda919360433220e13b51e8c211e490d148e61a3bd53de8c097194e458b97f3e19116604080516001600160a01b039092168252602082018690520160405180910390a35050565b600754604080518082019091526002815261323960f01b6020820152906001600160a01b031633146108525760405162461bcd60e51b81526004016103e69190610e8d565b50600061085f8383610abc565b60408051808201909152600281526106a760f31b6020820152909150816108995760405162461bcd60e51b81526004016103e69190610e8d565b506108a48482610c45565b6040518381526000906001600160a01b038616907fddf252ad1be2c89b69c2b068fc378daa952ba7f163c4a11628f55a4df523b3ef9060200160405180910390a360408051848152602081018490526001600160a01b038616917f49995e5dd6158cf69ad3e9777c46755a1a826a446c6416992167462dad033b2a910160405180910390a250505050565b600082158061093c575081155b156109495750600061049c565b8161096160026b033b2e3c9fd0803ce8000000610ef8565b61096d90600019610f37565b6109779190610ef8565b83111560405180604001604052806002815260200161068760f31b815250906109b35760405162461bcd60e51b81526004016103e69190610e8d565b506b033b2e3c9fd0803ce80000006109cc600282610ef8565b6109d68486610f18565b6109e09190610ee0565b6105e49190610ef8565b6040805180820182526002815261353960f01b6020808301919091526001600160a01b038087166000908152600683528481209187168152915291822054610a33918490610cf2565b6001600160a01b038086166000818152600660209081526040808320948916808452949091529020839055919250907fda919360433220e13b51e8c211e490d148e61a3bd53de8c097194e458b97f3e1610a956008546001600160a01b031690565b604080516001600160a01b039092168252602082018690520160405180910390a350505050565b604080518082019091526002815261035360f41b602082015260009082610af65760405162461bcd60e51b81526004016103e69190610e8d565b506000610b04600284610ef8565b90506b033b2e3c9fd0803ce8000000610b1f82600019610f37565b610b299190610ef8565b84111560405180604001604052806002815260200161068760f31b81525090610b655760405162461bcd60e51b81526004016103e69190610e8d565b508281610b7e6b033b2e3c9fd0803ce800000087610f18565b610b889190610ee0565b610b929190610ef8565b949350505050565b6001600160a01b038216610bf05760405162461bcd60e51b815260206004820152601f60248201527f45524332303a206d696e7420746f20746865207a65726f20616464726573730060448201526064016103e6565b600254610bfd8183610d1e565b6002556001600160a01b038316600090815260208190526040902054610c238184610d1e565b6001600160a01b03909416600090815260208190526040902093909355505050565b6001600160a01b038216610ca55760405162461bcd60e51b815260206004820152602160248201527f45524332303a206275726e2066726f6d20746865207a65726f206164647265736044820152607360f81b60648201526084016103e6565b600254610cb28183610d2a565b6002556001600160a01b038316600090815260208181526040918290205482516060810190935260228084529092610c2392869290610fa0908301398391905b60008184841115610d165760405162461bcd60e51b81526004016103e69190610e8d565b505050900390565b60006105e48284610ee0565b60006105e48284610f37565b80356001600160a01b0381168114610d4d57600080fd5b919050565b600060208284031215610d63578081fd5b6105e482610d36565b60008060408385031215610d7e578081fd5b610d8783610d36565b9150610d9560208401610d36565b90509250929050565b600080600060608486031215610db2578081fd5b610dbb84610d36565b9250610dc960208501610d36565b9150604084013590509250925092565b60008060008060808587031215610dee578081fd5b610df785610d36565b9350610e0560208601610d36565b93969395505050506040820135916060013590565b60008060408385031215610e2c578182fd5b610e3583610d36565b946020939093013593505050565b600080600060608486031215610e57578283fd5b610e6084610d36565b95602085013595506040909401359392505050565b600060208284031215610e86578081fd5b5051919050565b6000602080835283518082850152825b81811015610eb957858101830151858201604001528201610e9d565b81811115610eca5783604083870101525b50601f01601f1916929092016040019392505050565b60008219821115610ef357610ef3610f89565b500190565b600082610f1357634e487b7160e01b81526012600452602481fd5b500490565b6000816000190483118215151615610f3257610f32610f89565b500290565b600082821015610f4957610f49610f89565b500390565b600181811c90821680610f6257607f821691505b60208210811415610f8357634e487b7160e01b600052602260045260246000fd5b50919050565b634e487b7160e01b600052601160045260246000fdfe45524332303a206275726e20616d6f756e7420657863656564732062616c616e6365a264697066735822122083d5317acd7952b3ef5cfc09689c61b1eb45285dcbd44f7a880a0595b5edba6964736f6c6343000804003361014060405234801561001157600080fd5b50604051610a31380380610a31833981016040819052610030916100ad565b83608081815250506100608461004e61008a60201b61050b1760201c565b61009a60201b61051b1790919060201c565b60a05260609490941b6001600160601b03191660c05260e091909152610100525061012052610123565b6b033b2e3c9fd0803ce800000090565b60006100a68284610100565b9392505050565b600080600080600060a086880312156100c4578081fd5b85516001600160a01b03811681146100da578182fd5b602087015160408801516060890151608090990151929a91995097965090945092505050565b60008282101561011e57634e487b7160e01b81526011600452602481fd5b500390565b60805160a05160c05160601c60e051610100516101205161086b6101c6600039600081816101a7015281816101d201526103d7015260008181608f0152818161021701528181610422015261047d01526000818160eb015281816101f60152818161040101526104b10152600061014301526000818160c7015261037101526000818161011c01528181610345015281816103950152610459015261086b6000f3fe608060405234801561001057600080fd5b50600436106100885760003560e01c8063a15f30ac1161005b578063a15f30ac14610117578063c72c4d101461013e578063e5f516001461017d578063f4202409146101a557600080fd5b80630b3429a21461008d57806317319873146100c257806334762ca5146100e957806380031e371461010f575b600080fd5b7f00000000000000000000000000000000000000000000000000000000000000005b6040519081526020015b60405180910390f35b6100af7f000000000000000000000000000000000000000000000000000000000000000081565b7f00000000000000000000000000000000000000000000000000000000000000006100af565b6100af6101cb565b6100af7f000000000000000000000000000000000000000000000000000000000000000081565b6101657f000000000000000000000000000000000000000000000000000000000000000081565b6040516001600160a01b0390911681526020016100b9565b61019061018b3660046106fa565b610246565b604080519283526020830191909152016100b9565b7f00000000000000000000000000000000000000000000000000000000000000006100af565b60006102417f000000000000000000000000000000000000000000000000000000000000000061023b7f00000000000000000000000000000000000000000000000000000000000000007f0000000000000000000000000000000000000000000000000000000000000000610530565b90610530565b905090565b6040516370a0823160e01b81526001600160a01b03858116600483015260009182918291908916906370a082319060240160206040518083038186803b15801561028f57600080fd5b505afa1580156102a3573d6000803e3d6000fd5b505050506040513d601f19601f820116820180604052508101906102c79190610746565b90506102d78661023b838861051b565b90506103046040518060800160405280600081526020016000815260200160008152602001600081525090565b848152600060208201819052604082015284156103395780516103349061032c908490610530565b82519061053c565b61033c565b60005b606082018190527f000000000000000000000000000000000000000000000000000000000000000010156104515760006103cd7f00000000000000000000000000000000000000000000000000000000000000006103c77f0000000000000000000000000000000000000000000000000000000000000000856060015161051b90919063ffffffff16565b9061053c565b90506104466103fc7f000000000000000000000000000000000000000000000000000000000000000083610623565b61023b7f00000000000000000000000000000000000000000000000000000000000000007f0000000000000000000000000000000000000000000000000000000000000000610530565b6020830152506104dc565b6104d66104af7f00000000000000000000000000000000000000000000000000000000000000006103c77f0000000000000000000000000000000000000000000000000000000000000000856060015161062390919063ffffffff16565b7f000000000000000000000000000000000000000000000000000000000000000090610530565b60208201525b606081015160208201516104ef91610623565b6040820181905260209091015190999098509650505050505050565b6b033b2e3c9fd0803ce800000090565b60006105278284610808565b90505b92915050565b600061052782846107b1565b604080518082019091526002815261035360f41b60208201526000908261057f5760405162461bcd60e51b8152600401610576919061075e565b60405180910390fd5b50600061058d6002846107c9565b90506b033b2e3c9fd0803ce80000006105a882600019610808565b6105b291906107c9565b84111560405180604001604052806002815260200161068760f31b815250906105ee5760405162461bcd60e51b8152600401610576919061075e565b5082816106076b033b2e3c9fd0803ce8000000876107e9565b61061191906107b1565b61061b91906107c9565b949350505050565b6000821580610630575081155b1561063d5750600061052a565b8161065560026b033b2e3c9fd0803ce80000006107c9565b61066190600019610808565b61066b91906107c9565b83111560405180604001604052806002815260200161068760f31b815250906106a75760405162461bcd60e51b8152600401610576919061075e565b506b033b2e3c9fd0803ce80000006106c06002826107c9565b6106ca84866107e9565b6106d491906107b1565b61052791906107c9565b80356001600160a01b03811681146106f557600080fd5b919050565b600080600080600060a08688031215610711578081fd5b61071a866106de565b9450610728602087016106de565b94979496505050506040830135926060810135926080909101359150565b600060208284031215610757578081fd5b5051919050565b6000602080835283518082850152825b8181101561078a5785810183015185820160400152820161076e565b8181111561079b5783604083870101525b50601f01601f1916929092016040019392505050565b600082198211156107c4576107c461081f565b500190565b6000826107e457634e487b7160e01b81526012600452602481fd5b500490565b60008160001904831182151516156108035761080361081f565b500290565b60008282101561081a5761081a61081f565b500390565b634e487b7160e01b600052601160045260246000fdfea2646970667358221220df26c4d046cf9b1ffa9ce52fb9ba01a6a996a0c0c917e28a92a90c5d909dcb0f64736f6c63430008040033",
  "linkReferences": {
    "contracts/libraries/logic/ReputationLogic.sol": {
      "ReputationLogic": [
        {
          "length": 20,
          "start": 12769
        },
        {
          "length": 20,
          "start": 13329
        }
      ]
    },
    "contracts/libraries/logic/ReserveLogic.sol": {
      "ReserveLogic": [
        {
          "length": 20,
          "start": 17371
        }
      ]
    },
    "contracts/libraries/logic/ValidationLogic.sol": {
      "ValidationLogic": [
        {
          "length": 20,
          "start": 13848
        },
        {
          "length": 20,
          "start": 14386
        },
        {
          "length": 20,
          "start": 15247
        },
        {
          "length": 20,
          "start": 16535
        },
        {
          "length": 20,
          "start": 18584
        }
      ]
    },
    "contracts/libraries/math/WadRayMath.sol": {
      "WadRayMath": [
        {
          "length": 20,
          "start": 3057
        },
        {
          "length": 20,
          "start": 3192
        },
        {
          "length": 20,
          "start": 3327
        },
        {
          "length": 20,
          "start": 3462
        },
        {
          "length": 20,
          "start": 4182
        },
        {
          "length": 20,
          "start": 4317
        },
        {
          "length": 20,
          "start": 4451
        },
        {
          "length": 20,
          "start": 4586
        },
        {
          "length": 20,
          "start": 5257
        },
        {
          "length": 20,
          "start": 5392
        },
        {
          "length": 20,
          "start": 5527
        },
        {
          "length": 20,
          "start": 5663
        }
      ]
    }
  },
  "deployedLinkReferences": {}
}