{
  "_format": "hh-sol-artifact-1",
  "contractName": "ProtocolDataProvider",
  "sourceName": "contracts/data_provider/ProtocolDataProvider.sol",
  "abi": [
    {
      "inputs": [
        {
          "internalType": "contract IAddressesProvider",
          "name": "addressesProvider",
          "type": "address"
        }
      ],
      "stateMutability": "nonpayable",
      "type": "constructor"
    },
    {
      "inputs": [],
      "name": "ADDRESSES_PROVIDER",
      "outputs": [
        {
          "internalType": "contract IAddressesProvider",
          "name": "",
          "type": "address"
        }
      ],
      "stateMutability": "view",
      "type": "function"
    },
    {
      "inputs": [],
      "name": "getAllATokens",
      "outputs": [
        {
          "components": [
            {
              "internalType": "string",
              "name": "symbol",
              "type": "string"
            },
            {
              "internalType": "address",
              "name": "tokenAddress",
              "type": "address"
            }
          ],
          "internalType": "struct ProtocolDataProvider.TokenData[]",
          "name": "",
          "type": "tuple[]"
        }
      ],
      "stateMutability": "view",
      "type": "function"
    },
    {
      "inputs": [],
      "name": "getAllReservesTokens",
      "outputs": [
        {
          "components": [
            {
              "internalType": "string",
              "name": "symbol",
              "type": "string"
            },
            {
              "internalType": "address",
              "name": "tokenAddress",
              "type": "address"
            }
          ],
          "internalType": "struct ProtocolDataProvider.TokenData[]",
          "name": "",
          "type": "tuple[]"
        }
      ],
      "stateMutability": "view",
      "type": "function"
    },
    {
      "inputs": [
        {
          "internalType": "address",
          "name": "asset",
          "type": "address"
        }
      ],
      "name": "getReserveConfigurationData",
      "outputs": [
        {
          "internalType": "uint256",
          "name": "decimals",
          "type": "uint256"
        },
        {
          "internalType": "uint256",
          "name": "ltv",
          "type": "uint256"
        },
        {
          "internalType": "uint256",
          "name": "liquidationThreshold",
          "type": "uint256"
        },
        {
          "internalType": "uint256",
          "name": "liquidationBonus",
          "type": "uint256"
        }
      ],
      "stateMutability": "view",
      "type": "function"
    },
    {
      "inputs": [
        {
          "internalType": "address",
          "name": "asset",
          "type": "address"
        }
      ],
      "name": "getReserveData",
      "outputs": [
        {
          "internalType": "uint256",
          "name": "availableLiquidity",
          "type": "uint256"
        },
        {
          "internalType": "uint256",
          "name": "totalVariableDebt",
          "type": "uint256"
        },
        {
          "internalType": "uint256",
          "name": "liquidityRate",
          "type": "uint256"
        },
        {
          "internalType": "uint256",
          "name": "variableBorrowRate",
          "type": "uint256"
        },
        {
          "internalType": "uint256",
          "name": "liquidityIndex",
          "type": "uint256"
        },
        {
          "internalType": "uint256",
          "name": "variableBorrowIndex",
          "type": "uint256"
        },
        {
          "internalType": "uint256",
          "name": "utilizationRate",
          "type": "uint256"
        },
        {
          "internalType": "uint40",
          "name": "lastUpdateTimestamp",
          "type": "uint40"
        }
      ],
      "stateMutability": "view",
      "type": "function"
    },
    {
      "inputs": [
        {
          "internalType": "address",
          "name": "asset",
          "type": "address"
        }
      ],
      "name": "getReserveTokensAddresses",
      "outputs": [
        {
          "internalType": "address",
          "name": "aTokenAddress",
          "type": "address"
        },
        {
          "internalType": "address",
          "name": "variableDebtTokenAddress",
          "type": "address"
        }
      ],
      "stateMutability": "view",
      "type": "function"
    },
    {
      "inputs": [
        {
          "internalType": "address",
          "name": "asset",
          "type": "address"
        },
        {
          "internalType": "address",
          "name": "user",
          "type": "address"
        }
      ],
      "name": "getUserReserveData",
      "outputs": [
        {
          "internalType": "uint256",
          "name": "currentATokenBalance",
          "type": "uint256"
        },
        {
          "internalType": "uint256",
          "name": "currentVariableDebt",
          "type": "uint256"
        },
        {
          "internalType": "uint256",
          "name": "scaledVariableDebt",
          "type": "uint256"
        },
        {
          "internalType": "uint256",
          "name": "liquidityRate",
          "type": "uint256"
        },
        {
          "internalType": "uint256",
          "name": "healthFactor",
          "type": "uint256"
        },
        {
          "internalType": "uint256",
          "name": "availableToBorrow",
          "type": "uint256"
        },
        {
          "internalType": "bool",
          "name": "usageAsCollateralEnabled",
          "type": "bool"
        },
        {
          "internalType": "bool",
          "name": "isBorrowed",
          "type": "bool"
        }
      ],
      "stateMutability": "view",
      "type": "function"
    },
    {
      "inputs": [
        {
          "internalType": "address",
          "name": "user",
          "type": "address"
        }
      ],
      "name": "getUserReservesData",
      "outputs": [
        {
          "components": [
            {
              "internalType": "address",
              "name": "underlyingAsset",
              "type": "address"
            },
            {
              "internalType": "string",
              "name": "symbol",
              "type": "string"
            },
            {
              "internalType": "uint256",
              "name": "scaledATokenBalance",
              "type": "uint256"
            },
            {
              "internalType": "uint256",
              "name": "currentATokenBalance",
              "type": "uint256"
            },
            {
              "internalType": "uint256",
              "name": "scaledVariableDebt",
              "type": "uint256"
            },
            {
              "internalType": "uint256",
              "name": "currentVariableDebt",
              "type": "uint256"
            }
          ],
          "internalType": "struct ProtocolDataProvider.UserReserveData[]",
          "name": "",
          "type": "tuple[]"
        }
      ],
      "stateMutability": "view",
      "type": "function"
    }
  ],
  "bytecode": "0x60a060405234801561001057600080fd5b50604051620024713803806200247183398101604081905261003191610046565b60601b6001600160601b031916608052610074565b600060208284031215610057578081fd5b81516001600160a01b038116811461006d578182fd5b9392505050565b60805160601c612399620000d86000396000818160920152818161022b0152818161033c015281816105df0152818161070e0152818161089901528181610b1b01528181610c620152818161138001528181611636015261175d01526123996000f3fe608060405234801561001057600080fd5b50600436106100885760003560e01c806379751e1b1161005b57806379751e1b146101ab578063b316ff89146101cb578063d2493b6c146101e0578063f561ae411461021357600080fd5b80630542975c1461008d57806328dd2d01146100d157806335ea6a75146101235780633e15014114610178575b600080fd5b6100b47f000000000000000000000000000000000000000000000000000000000000000081565b6040516001600160a01b0390911681526020015b60405180910390f35b6100e46100df366004611d08565b61021b565b604080519889526020890197909752958701949094526060860192909252608085015260a0840152151560c0830152151560e0820152610100016100c8565b610136610131366004611cc9565b610889565b604080519889526020890197909752958701949094526060860192909252608085015260a084015260c083015264ffffffffff1660e0820152610100016100c8565b61018b610186366004611cc9565b610b11565b6040805194855260208501939093529183015260608201526080016100c8565b6101be6101b9366004611cc9565b610c5c565b6040516100c89190612072565b6101d361137a565b6040516100c89190611ff4565b6101f36101ee366004611cc9565b61162f565b604080516001600160a01b039384168152929091166020830152016100c8565b6101d3611757565b60008060008060008060008060007f00000000000000000000000000000000000000000000000000000000000000006001600160a01b0316630261bf8b6040518163ffffffff1660e01b815260040160206040518083038186803b15801561028257600080fd5b505afa158015610296573d6000803e3d6000fd5b505050506040513d601f19601f820116820180604052508101906102ba9190611cec565b6040516335ea6a7560e01b81526001600160a01b038d8116600483015291909116906335ea6a75906024016101406040518083038186803b1580156102fe57600080fd5b505afa158015610312573d6000803e3d6000fd5b505050506040513d601f19601f820116820180604052508101906103369190611e9f565b905060007f00000000000000000000000000000000000000000000000000000000000000006001600160a01b0316630261bf8b6040518163ffffffff1660e01b815260040160206040518083038186803b15801561039357600080fd5b505afa1580156103a7573d6000803e3d6000fd5b505050506040513d601f19601f820116820180604052508101906103cb9190611cec565b604051634417a58360e01b81526001600160a01b038d811660048301529190911690634417a5839060240160206040518083038186803b15801561040e57600080fd5b505afa158015610422573d6000803e3d6000fd5b505050506040513d601f19601f820116820180604052508101906104469190611e84565b60c08301516040516370a0823160e01b81526001600160a01b038e811660048301529293509116906370a082319060240160206040518083038186803b15801561048f57600080fd5b505afa1580156104a3573d6000803e3d6000fd5b505050506040513d601f19601f820116820180604052508101906104c79190611f67565b60e08301516040516370a0823160e01b81526001600160a01b038e81166004830152929c509116906370a082319060240160206040518083038186803b15801561051057600080fd5b505afa158015610524573d6000803e3d6000fd5b505050506040513d601f19601f820116820180604052508101906105489190611f67565b60e0830151604051630ed1279f60e11b81526001600160a01b038e81166004830152929b50911690631da24f3e9060240160206040518083038186803b15801561059157600080fd5b505afa1580156105a5573d6000803e3d6000fd5b505050506040513d601f19601f820116820180604052508101906105c99190611f67565b975081606001516001600160801b0316965060007f00000000000000000000000000000000000000000000000000000000000000006001600160a01b0316630261bf8b6040518163ffffffff1660e01b815260040160206040518083038186803b15801561063657600080fd5b505afa15801561064a573d6000803e3d6000fd5b505050506040513d601f19601f8201168201806040525081019061066e9190611cec565b604051632fe4a15f60e21b81526001600160a01b038e81166004830152919091169063bf92857c9060240160c06040518083038186803b1580156106b157600080fd5b505afa1580156106c5573d6000803e3d6000fd5b505050506040513d601f19601f820116820180604052508101906106e99190611f7f565b60408051631f94a27560e31b81529051919d5093965061083d95506001600160a01b037f000000000000000000000000000000000000000000000000000000000000000016945063fca513a893600480820194506020935090829003018186803b15801561075657600080fd5b505afa15801561076a573d6000803e3d6000fd5b505050506040513d601f19601f8201168201806040525081019061078e9190611cec565b6001600160a01b031663b3596f078f6040518263ffffffff1660e01b81526004016107c891906001600160a01b0391909116815260200190565b60206040518083038186803b1580156107e057600080fd5b505afa1580156107f4573d6000803e3d6000fd5b505050506040513d601f19601f820116820180604052508101906108189190611f67565b8451516108379060301c60ff1661083090600a6121f6565b8490611a76565b90611a8b565b955061085a83610120015160ff1683611a9790919063ffffffff16565b945061087783610120015160ff1683611b0690919063ffffffff16565b93505050509295985092959890939650565b60008060008060008060008060007f00000000000000000000000000000000000000000000000000000000000000006001600160a01b0316630261bf8b6040518163ffffffff1660e01b815260040160206040518083038186803b1580156108f057600080fd5b505afa158015610904573d6000803e3d6000fd5b505050506040513d601f19601f820116820180604052508101906109289190611cec565b6040516335ea6a7560e01b81526001600160a01b038c8116600483015291909116906335ea6a75906024016101406040518083038186803b15801561096c57600080fd5b505afa158015610980573d6000803e3d6000fd5b505050506040513d601f19601f820116820180604052508101906109a49190611e9f565b905060008160e001516001600160a01b03166318160ddd6040518163ffffffff1660e01b815260040160206040518083038186803b1580156109e557600080fd5b505afa1580156109f9573d6000803e3d6000fd5b505050506040513d601f19601f82011682018060405250810190610a1d9190611f67565b60c08301516040516370a0823160e01b81526001600160a01b039182166004820152919250600091908d16906370a082319060240160206040518083038186803b158015610a6a57600080fd5b505afa158015610a7e573d6000803e3d6000fd5b505050506040513d601f19601f82011682018060405250810190610aa29190611f67565b90508115610ac357610abe610ab78284611b51565b8390611b5d565b610ac6565b60005b606084015160808501516020860151604087015160a090970151949e50949c506001600160801b039182169b5081169950928316975091909216945092509050919395975091939597565b60008060008060007f00000000000000000000000000000000000000000000000000000000000000006001600160a01b0316630261bf8b6040518163ffffffff1660e01b815260040160206040518083038186803b158015610b7257600080fd5b505afa158015610b86573d6000803e3d6000fd5b505050506040513d601f19601f82011682018060405250810190610baa9190611cec565b60405163c44b11f760e01b81526001600160a01b038881166004830152919091169063c44b11f79060240160206040518083038186803b158015610bed57600080fd5b505afa158015610c01573d6000803e3d6000fd5b505050506040513d601f19601f82011682018060405250810190610c259190611e84565b9050610c4d815161ffff80821692601083901c821692602081901c9092169160301c60ff1690565b99929850909650945092505050565b606060007f00000000000000000000000000000000000000000000000000000000000000006001600160a01b0316630261bf8b6040518163ffffffff1660e01b815260040160206040518083038186803b158015610cb957600080fd5b505afa158015610ccd573d6000803e3d6000fd5b505050506040513d601f19601f82011682018060405250810190610cf19190611cec565b90506000816001600160a01b031663d1946dbc6040518163ffffffff1660e01b815260040160006040518083038186803b158015610d2e57600080fd5b505afa158015610d42573d6000803e3d6000fd5b505050506040513d6000823e601f3d908101601f19168201604052610d6a9190810190611d40565b604051634417a58360e01b81526001600160a01b038681166004830152919250600091841690634417a5839060240160206040518083038186803b158015610db157600080fd5b505afa158015610dc5573d6000803e3d6000fd5b505050506040513d601f19601f82011682018060405250810190610de99190611e84565b905060006001600160a01b038616610e02576000610e05565b82515b67ffffffffffffffff811115610e2b57634e487b7160e01b600052604160045260246000fd5b604051908082528060200260200182016040528015610e9e57816020015b610e8b6040518060c0016040528060006001600160a01b0316815260200160608152602001600081526020016000815260200160008152602001600081525090565b815260200190600190039081610e495790505b50905060005b8351811015611370576000856001600160a01b03166335ea6a75868481518110610ede57634e487b7160e01b600052603260045260246000fd5b60200260200101516040518263ffffffff1660e01b8152600401610f1191906001600160a01b0391909116815260200190565b6101406040518083038186803b158015610f2a57600080fd5b505afa158015610f3e573d6000803e3d6000fd5b505050506040513d601f19601f82011682018060405250810190610f629190611e9f565b9050848281518110610f8457634e487b7160e01b600052603260045260246000fd5b6020026020010151838381518110610fac57634e487b7160e01b600052603260045260246000fd5b60209081029190910101516001600160a01b0390911690528451859083908110610fe657634e487b7160e01b600052603260045260246000fd5b60200260200101516001600160a01b03166395d89b416040518163ffffffff1660e01b815260040160006040518083038186803b15801561102657600080fd5b505afa15801561103a573d6000803e3d6000fd5b505050506040513d6000823e601f3d908101601f191682016040526110629190810190611df4565b83838151811061108257634e487b7160e01b600052603260045260246000fd5b602090810291909101810151015260c0810151604051630ed1279f60e11b81526001600160a01b038a8116600483015290911690631da24f3e9060240160206040518083038186803b1580156110d757600080fd5b505afa1580156110eb573d6000803e3d6000fd5b505050506040513d601f19601f8201168201806040525081019061110f9190611f67565b83838151811061112f57634e487b7160e01b600052603260045260246000fd5b602090810291909101015160409081019190915260c082015190516370a0823160e01b81526001600160a01b038a81166004830152909116906370a082319060240160206040518083038186803b15801561118957600080fd5b505afa15801561119d573d6000803e3d6000fd5b505050506040513d601f19601f820116820180604052508101906111c19190611f67565b8383815181106111e157634e487b7160e01b600052603260045260246000fd5b6020908102919091010151606001526111fa8483611b06565b1561135d5760e0810151604051630ed1279f60e11b81526001600160a01b038a8116600483015290911690631da24f3e9060240160206040518083038186803b15801561124657600080fd5b505afa15801561125a573d6000803e3d6000fd5b505050506040513d601f19601f8201168201806040525081019061127e9190611f67565b83838151811061129e57634e487b7160e01b600052603260045260246000fd5b60209081029190910101516080015260e08101516040516370a0823160e01b81526001600160a01b038a81166004830152909116906370a082319060240160206040518083038186803b1580156112f457600080fd5b505afa158015611308573d6000803e3d6000fd5b505050506040513d601f19601f8201168201806040525081019061132c9190611f67565b83838151811061134c57634e487b7160e01b600052603260045260246000fd5b602002602001015160a00181815250505b508061136881612304565b915050610ea4565b5095945050505050565b606060007f00000000000000000000000000000000000000000000000000000000000000006001600160a01b0316630261bf8b6040518163ffffffff1660e01b815260040160206040518083038186803b1580156113d757600080fd5b505afa1580156113eb573d6000803e3d6000fd5b505050506040513d601f19601f8201168201806040525081019061140f9190611cec565b90506000816001600160a01b031663d1946dbc6040518163ffffffff1660e01b815260040160006040518083038186803b15801561144c57600080fd5b505afa158015611460573d6000803e3d6000fd5b505050506040513d6000823e601f3d908101601f191682016040526114889190810190611d40565b90506000815167ffffffffffffffff8111156114b457634e487b7160e01b600052604160045260246000fd5b6040519080825280602002602001820160405280156114fa57816020015b6040805180820190915260608152600060208201528152602001906001900390816114d25790505b50905060005b825181101561162757604051806040016040528084838151811061153457634e487b7160e01b600052603260045260246000fd5b60200260200101516001600160a01b03166395d89b416040518163ffffffff1660e01b815260040160006040518083038186803b15801561157457600080fd5b505afa158015611588573d6000803e3d6000fd5b505050506040513d6000823e601f3d908101601f191682016040526115b09190810190611df4565b81526020018483815181106115d557634e487b7160e01b600052603260045260246000fd5b60200260200101516001600160a01b031681525082828151811061160957634e487b7160e01b600052603260045260246000fd5b6020026020010181905250808061161f90612304565b915050611500565b509392505050565b60008060007f00000000000000000000000000000000000000000000000000000000000000006001600160a01b0316630261bf8b6040518163ffffffff1660e01b815260040160206040518083038186803b15801561168d57600080fd5b505afa1580156116a1573d6000803e3d6000fd5b505050506040513d601f19601f820116820180604052508101906116c59190611cec565b6040516335ea6a7560e01b81526001600160a01b03868116600483015291909116906335ea6a75906024016101406040518083038186803b15801561170957600080fd5b505afa15801561171d573d6000803e3d6000fd5b505050506040513d601f19601f820116820180604052508101906117419190611e9f565b90508060c001518160e001519250925050915091565b606060007f00000000000000000000000000000000000000000000000000000000000000006001600160a01b0316630261bf8b6040518163ffffffff1660e01b815260040160206040518083038186803b1580156117b457600080fd5b505afa1580156117c8573d6000803e3d6000fd5b505050506040513d601f19601f820116820180604052508101906117ec9190611cec565b90506000816001600160a01b031663d1946dbc6040518163ffffffff1660e01b815260040160006040518083038186803b15801561182957600080fd5b505afa15801561183d573d6000803e3d6000fd5b505050506040513d6000823e601f3d908101601f191682016040526118659190810190611d40565b90506000815167ffffffffffffffff81111561189157634e487b7160e01b600052604160045260246000fd5b6040519080825280602002602001820160405280156118d757816020015b6040805180820190915260608152600060208201528152602001906001900390816118af5790505b50905060005b8251811015611627576000846001600160a01b03166335ea6a7585848151811061191757634e487b7160e01b600052603260045260246000fd5b60200260200101516040518263ffffffff1660e01b815260040161194a91906001600160a01b0391909116815260200190565b6101406040518083038186803b15801561196357600080fd5b505afa158015611977573d6000803e3d6000fd5b505050506040513d601f19601f8201168201806040525081019061199b9190611e9f565b905060405180604001604052808260c001516001600160a01b03166395d89b416040518163ffffffff1660e01b815260040160006040518083038186803b1580156119e557600080fd5b505afa1580156119f9573d6000803e3d6000fd5b505050506040513d6000823e601f3d908101601f19168201604052611a219190810190611df4565b81526020018260c001516001600160a01b0316815250838381518110611a5757634e487b7160e01b600052603260045260246000fd5b6020026020010181905250508080611a6e90612304565b9150506118dd565b6000611a82828461229e565b90505b92915050565b6000611a828284612193565b60006080821060405180604001604052806002815260200161373760f01b81525090611adf5760405162461bcd60e51b8152600401611ad6919061210d565b60405180910390fd5b50611aeb82600261229e565b611af690600161217b565b925190921c600116151592915050565b60006080821060405180604001604052806002815260200161373760f01b81525090611b455760405162461bcd60e51b8152600401611ad6919061210d565b50611af682600261229e565b6000611a82828461217b565b604080518082019091526002815261035360f41b602082015260009082611b975760405162461bcd60e51b8152600401611ad6919061210d565b506000611ba5600284612193565b90506b033b2e3c9fd0803ce8000000611bc0826000196122bd565b611bca9190612193565b84111560405180604001604052806002815260200161068760f31b81525090611c065760405162461bcd60e51b8152600401611ad6919061210d565b508281611c1f6b033b2e3c9fd0803ce80000008761229e565b611c29919061217b565b611c339190612193565b949350505050565b8051611c468161234b565b919050565b600060208284031215611c5c578081fd5b6040516020810181811067ffffffffffffffff82111715611c7f57611c7f612335565b6040529151825250919050565b80516001600160801b0381168114611c4657600080fd5b805164ffffffffff81168114611c4657600080fd5b805160ff81168114611c4657600080fd5b600060208284031215611cda578081fd5b8135611ce58161234b565b9392505050565b600060208284031215611cfd578081fd5b8151611ce58161234b565b60008060408385031215611d1a578081fd5b8235611d258161234b565b91506020830135611d358161234b565b809150509250929050565b60006020808385031215611d52578182fd5b825167ffffffffffffffff80821115611d69578384fd5b818501915085601f830112611d7c578384fd5b815181811115611d8e57611d8e612335565b8060051b9150611d9f84830161214a565b8181528481019084860184860187018a1015611db9578788fd5b8795505b83861015611de75780519450611dd28561234b565b84835260019590950194918601918601611dbd565b5098975050505050505050565b600060208284031215611e05578081fd5b815167ffffffffffffffff80821115611e1c578283fd5b818401915084601f830112611e2f578283fd5b815181811115611e4157611e41612335565b611e54601f8201601f191660200161214a565b9150808252856020828501011115611e6a578384fd5b611e7b8160208401602086016122d4565b50949350505050565b600060208284031215611e95578081fd5b611a828383611c4b565b60006101408284031215611eb1578081fd5b611eb9612120565b611ec38484611c4b565b8152611ed160208401611c8c565b6020820152611ee260408401611c8c565b6040820152611ef360608401611c8c565b6060820152611f0460808401611c8c565b6080820152611f1560a08401611ca3565b60a0820152611f2660c08401611c3b565b60c0820152611f3760e08401611c3b565b60e0820152610100611f4a818501611c3b565b90820152610120611f5c848201611cb8565b908201529392505050565b600060208284031215611f78578081fd5b5051919050565b60008060008060008060c08789031215611f97578182fd5b865195506020870151945060408701519350606087015192506080870151915060a087015190509295509295509295565b60008151808452611fe08160208601602086016122d4565b601f01601f19169290920160200192915050565b60006020808301818452808551808352604092508286019150828160051b870101848801865b8381101561206457888303603f190185528151805187855261203e88860182611fc8565b918901516001600160a01b0316948901949094529487019492509086019060010161201a565b509098975050505050505050565b60006020808301818452808551808352604092508286019150828160051b870101848801865b8381101561206457888303603f19018552815180516001600160a01b031684528781015160c0898601819052906120d182870182611fc8565b838a0151878b0152606080850151908801526080808501519088015260a093840151939096019290925250509386019390860190600101612098565b602081526000611a826020830184611fc8565b604051610140810167ffffffffffffffff8111828210171561214457612144612335565b60405290565b604051601f8201601f1916810167ffffffffffffffff8111828210171561217357612173612335565b604052919050565b6000821982111561218e5761218e61231f565b500190565b6000826121ae57634e487b7160e01b81526012600452602481fd5b500490565b600181815b808511156121ee5781600019048211156121d4576121d461231f565b808516156121e157918102915b93841c93908002906121b8565b509250929050565b6000611a82838360008261220c57506001611a85565b8161221957506000611a85565b816001811461222f576002811461223957612255565b6001915050611a85565b60ff84111561224a5761224a61231f565b50506001821b611a85565b5060208310610133831016604e8410600b8410161715612278575081810a611a85565b61228283836121b3565b80600019048211156122965761229661231f565b029392505050565b60008160001904831182151516156122b8576122b861231f565b500290565b6000828210156122cf576122cf61231f565b500390565b60005b838110156122ef5781810151838201526020016122d7565b838111156122fe576000848401525b50505050565b60006000198214156123185761231861231f565b5060010190565b634e487b7160e01b600052601160045260246000fd5b634e487b7160e01b600052604160045260246000fd5b6001600160a01b038116811461236057600080fd5b5056fea26469706673582212208cc3ccf12a929c3fbc9a29c8c56c2f8a23df57736c0aa7ce38d614ab9ed12e9e64736f6c63430008040033",
  "linkReferences": {},
  "deployedLinkReferences": {}
}