{
  "_format": "hh-sol-artifact-1",
  "contractName": "ProtocolDataProvider",
  "sourceName": "contracts/data_provider/ProtocolDataProvider.sol",
  "abi": [
    {
      "inputs": [
        {
          "internalType": "contract IAddressesProvider",
          "name": "addressesProvider",
          "type": "address"
        }
      ],
      "stateMutability": "nonpayable",
      "type": "constructor"
    },
    {
      "inputs": [],
      "name": "ADDRESSES_PROVIDER",
      "outputs": [
        {
          "internalType": "contract IAddressesProvider",
          "name": "",
          "type": "address"
        }
      ],
      "stateMutability": "view",
      "type": "function"
    },
    {
      "inputs": [],
      "name": "getAllATokens",
      "outputs": [
        {
          "components": [
            {
              "internalType": "string",
              "name": "symbol",
              "type": "string"
            },
            {
              "internalType": "address",
              "name": "tokenAddress",
              "type": "address"
            }
          ],
          "internalType": "struct ProtocolDataProvider.TokenData[]",
          "name": "",
          "type": "tuple[]"
        }
      ],
      "stateMutability": "view",
      "type": "function"
    },
    {
      "inputs": [],
      "name": "getAllReservesTokens",
      "outputs": [
        {
          "components": [
            {
              "internalType": "string",
              "name": "symbol",
              "type": "string"
            },
            {
              "internalType": "address",
              "name": "tokenAddress",
              "type": "address"
            }
          ],
          "internalType": "struct ProtocolDataProvider.TokenData[]",
          "name": "",
          "type": "tuple[]"
        }
      ],
      "stateMutability": "view",
      "type": "function"
    },
    {
      "inputs": [
        {
          "internalType": "address",
          "name": "asset",
          "type": "address"
        }
      ],
      "name": "getReserveConfigurationData",
      "outputs": [
        {
          "internalType": "uint256",
          "name": "decimals",
          "type": "uint256"
        },
        {
          "internalType": "uint256",
          "name": "ltv",
          "type": "uint256"
        },
        {
          "internalType": "uint256",
          "name": "liquidationThreshold",
          "type": "uint256"
        },
        {
          "internalType": "uint256",
          "name": "liquidationBonus",
          "type": "uint256"
        }
      ],
      "stateMutability": "view",
      "type": "function"
    },
    {
      "inputs": [
        {
          "internalType": "address",
          "name": "asset",
          "type": "address"
        }
      ],
      "name": "getReserveData",
      "outputs": [
        {
          "internalType": "uint256",
          "name": "availableLiquidity",
          "type": "uint256"
        },
        {
          "internalType": "uint256",
          "name": "totalVariableDebt",
          "type": "uint256"
        },
        {
          "internalType": "uint256",
          "name": "liquidityRate",
          "type": "uint256"
        },
        {
          "internalType": "uint256",
          "name": "variableBorrowRate",
          "type": "uint256"
        },
        {
          "internalType": "uint256",
          "name": "liquidityIndex",
          "type": "uint256"
        },
        {
          "internalType": "uint256",
          "name": "variableBorrowIndex",
          "type": "uint256"
        },
        {
          "internalType": "uint256",
          "name": "utilizationRate",
          "type": "uint256"
        },
        {
          "internalType": "uint40",
          "name": "lastUpdateTimestamp",
          "type": "uint40"
        }
      ],
      "stateMutability": "view",
      "type": "function"
    },
    {
      "inputs": [
        {
          "internalType": "address",
          "name": "asset",
          "type": "address"
        }
      ],
      "name": "getReserveTokensAddresses",
      "outputs": [
        {
          "internalType": "address",
          "name": "aTokenAddress",
          "type": "address"
        },
        {
          "internalType": "address",
          "name": "variableDebtTokenAddress",
          "type": "address"
        }
      ],
      "stateMutability": "view",
      "type": "function"
    },
    {
      "inputs": [
        {
          "internalType": "address",
          "name": "asset",
          "type": "address"
        },
        {
          "internalType": "address",
          "name": "user",
          "type": "address"
        }
      ],
      "name": "getUserReserveData",
      "outputs": [
        {
          "internalType": "uint256",
          "name": "currentATokenBalance",
          "type": "uint256"
        },
        {
          "internalType": "uint256",
          "name": "currentVariableDebt",
          "type": "uint256"
        },
        {
          "internalType": "uint256",
          "name": "scaledVariableDebt",
          "type": "uint256"
        },
        {
          "internalType": "uint256",
          "name": "liquidityRate",
          "type": "uint256"
        },
        {
          "internalType": "uint256",
          "name": "healthFactor",
          "type": "uint256"
        },
        {
          "internalType": "uint256",
          "name": "availableToBorrow",
          "type": "uint256"
        },
        {
          "internalType": "bool",
          "name": "usageAsCollateralEnabled",
          "type": "bool"
        },
        {
          "internalType": "bool",
          "name": "isBorrowed",
          "type": "bool"
        }
      ],
      "stateMutability": "view",
      "type": "function"
    }
  ],
  "bytecode": "0x60a060405234801561001057600080fd5b50604051611c83380380611c8383398101604081905261002f91610044565b60601b6001600160601b031916608052610072565b600060208284031215610055578081fd5b81516001600160a01b038116811461006b578182fd5b9392505050565b60805160601c611bb56100ce6000396000818160870152818161020001528181610311015281816105b4015281816106e30152818161086e01528181610af001528181610c3701528181610eed01526110140152611bb56000f3fe608060405234801561001057600080fd5b506004361061007d5760003560e01c80633e1501411161005b5780633e1501411461016d578063b316ff89146101a0578063d2493b6c146101b5578063f561ae41146101e857600080fd5b80630542975c1461008257806328dd2d01146100c657806335ea6a7514610118575b600080fd5b6100a97f000000000000000000000000000000000000000000000000000000000000000081565b6040516001600160a01b0390911681526020015b60405180910390f35b6100d96100d43660046115bf565b6101f0565b604080519889526020890197909752958701949094526060860192909252608085015260a0840152151560c0830152151560e0820152610100016100bd565b61012b610126366004611580565b61085e565b604080519889526020890197909752958701949094526060860192909252608085015260a084015260c083015264ffffffffff1660e0820152610100016100bd565b61018061017b366004611580565b610ae6565b6040805194855260208501939093529183015260608201526080016100bd565b6101a8610c31565b6040516100bd91906118ab565b6101c86101c3366004611580565b610ee6565b604080516001600160a01b039384168152929091166020830152016100bd565b6101a861100e565b60008060008060008060008060007f00000000000000000000000000000000000000000000000000000000000000006001600160a01b0316630261bf8b6040518163ffffffff1660e01b815260040160206040518083038186803b15801561025757600080fd5b505afa15801561026b573d6000803e3d6000fd5b505050506040513d601f19601f8201168201806040525081019061028f91906115a3565b6040516335ea6a7560e01b81526001600160a01b038d8116600483015291909116906335ea6a75906024016101406040518083038186803b1580156102d357600080fd5b505afa1580156102e7573d6000803e3d6000fd5b505050506040513d601f19601f8201168201806040525081019061030b9190611756565b905060007f00000000000000000000000000000000000000000000000000000000000000006001600160a01b0316630261bf8b6040518163ffffffff1660e01b815260040160206040518083038186803b15801561036857600080fd5b505afa15801561037c573d6000803e3d6000fd5b505050506040513d601f19601f820116820180604052508101906103a091906115a3565b604051634417a58360e01b81526001600160a01b038d811660048301529190911690634417a5839060240160206040518083038186803b1580156103e357600080fd5b505afa1580156103f7573d6000803e3d6000fd5b505050506040513d601f19601f8201168201806040525081019061041b919061173b565b60c08301516040516370a0823160e01b81526001600160a01b038e811660048301529293509116906370a082319060240160206040518083038186803b15801561046457600080fd5b505afa158015610478573d6000803e3d6000fd5b505050506040513d601f19601f8201168201806040525081019061049c919061181e565b60e08301516040516370a0823160e01b81526001600160a01b038e81166004830152929c509116906370a082319060240160206040518083038186803b1580156104e557600080fd5b505afa1580156104f9573d6000803e3d6000fd5b505050506040513d601f19601f8201168201806040525081019061051d919061181e565b60e0830151604051630ed1279f60e11b81526001600160a01b038e81166004830152929b50911690631da24f3e9060240160206040518083038186803b15801561056657600080fd5b505afa15801561057a573d6000803e3d6000fd5b505050506040513d601f19601f8201168201806040525081019061059e919061181e565b975081606001516001600160801b0316965060007f00000000000000000000000000000000000000000000000000000000000000006001600160a01b0316630261bf8b6040518163ffffffff1660e01b815260040160206040518083038186803b15801561060b57600080fd5b505afa15801561061f573d6000803e3d6000fd5b505050506040513d601f19601f8201168201806040525081019061064391906115a3565b604051632fe4a15f60e21b81526001600160a01b038e81166004830152919091169063bf92857c9060240160c06040518083038186803b15801561068657600080fd5b505afa15801561069a573d6000803e3d6000fd5b505050506040513d601f19601f820116820180604052508101906106be9190611836565b60408051631f94a27560e31b81529051919d5093965061081295506001600160a01b037f000000000000000000000000000000000000000000000000000000000000000016945063fca513a893600480820194506020935090829003018186803b15801561072b57600080fd5b505afa15801561073f573d6000803e3d6000fd5b505050506040513d601f19601f8201168201806040525081019061076391906115a3565b6001600160a01b031663b3596f078f6040518263ffffffff1660e01b815260040161079d91906001600160a01b0391909116815260200190565b60206040518083038186803b1580156107b557600080fd5b505afa1580156107c9573d6000803e3d6000fd5b505050506040513d601f19601f820116820180604052508101906107ed919061181e565b84515161080c9060301c60ff1661080590600a611a12565b849061132d565b90611342565b955061082f83610120015160ff168361134e90919063ffffffff16565b945061084c83610120015160ff16836113bd90919063ffffffff16565b93505050509295985092959890939650565b60008060008060008060008060007f00000000000000000000000000000000000000000000000000000000000000006001600160a01b0316630261bf8b6040518163ffffffff1660e01b815260040160206040518083038186803b1580156108c557600080fd5b505afa1580156108d9573d6000803e3d6000fd5b505050506040513d601f19601f820116820180604052508101906108fd91906115a3565b6040516335ea6a7560e01b81526001600160a01b038c8116600483015291909116906335ea6a75906024016101406040518083038186803b15801561094157600080fd5b505afa158015610955573d6000803e3d6000fd5b505050506040513d601f19601f820116820180604052508101906109799190611756565b905060008160e001516001600160a01b03166318160ddd6040518163ffffffff1660e01b815260040160206040518083038186803b1580156109ba57600080fd5b505afa1580156109ce573d6000803e3d6000fd5b505050506040513d601f19601f820116820180604052508101906109f2919061181e565b60c08301516040516370a0823160e01b81526001600160a01b039182166004820152919250600091908d16906370a082319060240160206040518083038186803b158015610a3f57600080fd5b505afa158015610a53573d6000803e3d6000fd5b505050506040513d601f19601f82011682018060405250810190610a77919061181e565b90508115610a9857610a93610a8c8284611408565b8390611414565b610a9b565b60005b606084015160808501516020860151604087015160a090970151949e50949c506001600160801b039182169b5081169950928316975091909216945092509050919395975091939597565b60008060008060007f00000000000000000000000000000000000000000000000000000000000000006001600160a01b0316630261bf8b6040518163ffffffff1660e01b815260040160206040518083038186803b158015610b4757600080fd5b505afa158015610b5b573d6000803e3d6000fd5b505050506040513d601f19601f82011682018060405250810190610b7f91906115a3565b60405163c44b11f760e01b81526001600160a01b038881166004830152919091169063c44b11f79060240160206040518083038186803b158015610bc257600080fd5b505afa158015610bd6573d6000803e3d6000fd5b505050506040513d601f19601f82011682018060405250810190610bfa919061173b565b9050610c22815161ffff80821692601083901c821692602081901c9092169160301c60ff1690565b99929850909650945092505050565b606060007f00000000000000000000000000000000000000000000000000000000000000006001600160a01b0316630261bf8b6040518163ffffffff1660e01b815260040160206040518083038186803b158015610c8e57600080fd5b505afa158015610ca2573d6000803e3d6000fd5b505050506040513d601f19601f82011682018060405250810190610cc691906115a3565b90506000816001600160a01b031663d1946dbc6040518163ffffffff1660e01b815260040160006040518083038186803b158015610d0357600080fd5b505afa158015610d17573d6000803e3d6000fd5b505050506040513d6000823e601f3d908101601f19168201604052610d3f91908101906115f7565b90506000815167ffffffffffffffff811115610d6b57634e487b7160e01b600052604160045260246000fd5b604051908082528060200260200182016040528015610db157816020015b604080518082019091526060815260006020820152815260200190600190039081610d895790505b50905060005b8251811015610ede576040518060400160405280848381518110610deb57634e487b7160e01b600052603260045260246000fd5b60200260200101516001600160a01b03166395d89b416040518163ffffffff1660e01b815260040160006040518083038186803b158015610e2b57600080fd5b505afa158015610e3f573d6000803e3d6000fd5b505050506040513d6000823e601f3d908101601f19168201604052610e6791908101906116ab565b8152602001848381518110610e8c57634e487b7160e01b600052603260045260246000fd5b60200260200101516001600160a01b0316815250828281518110610ec057634e487b7160e01b600052603260045260246000fd5b60200260200101819052508080610ed690611b20565b915050610db7565b509392505050565b60008060007f00000000000000000000000000000000000000000000000000000000000000006001600160a01b0316630261bf8b6040518163ffffffff1660e01b815260040160206040518083038186803b158015610f4457600080fd5b505afa158015610f58573d6000803e3d6000fd5b505050506040513d601f19601f82011682018060405250810190610f7c91906115a3565b6040516335ea6a7560e01b81526001600160a01b03868116600483015291909116906335ea6a75906024016101406040518083038186803b158015610fc057600080fd5b505afa158015610fd4573d6000803e3d6000fd5b505050506040513d601f19601f82011682018060405250810190610ff89190611756565b90508060c001518160e001519250925050915091565b606060007f00000000000000000000000000000000000000000000000000000000000000006001600160a01b0316630261bf8b6040518163ffffffff1660e01b815260040160206040518083038186803b15801561106b57600080fd5b505afa15801561107f573d6000803e3d6000fd5b505050506040513d601f19601f820116820180604052508101906110a391906115a3565b90506000816001600160a01b031663d1946dbc6040518163ffffffff1660e01b815260040160006040518083038186803b1580156110e057600080fd5b505afa1580156110f4573d6000803e3d6000fd5b505050506040513d6000823e601f3d908101601f1916820160405261111c91908101906115f7565b90506000815167ffffffffffffffff81111561114857634e487b7160e01b600052604160045260246000fd5b60405190808252806020026020018201604052801561118e57816020015b6040805180820190915260608152600060208201528152602001906001900390816111665790505b50905060005b8251811015610ede576000846001600160a01b03166335ea6a758584815181106111ce57634e487b7160e01b600052603260045260246000fd5b60200260200101516040518263ffffffff1660e01b815260040161120191906001600160a01b0391909116815260200190565b6101406040518083038186803b15801561121a57600080fd5b505afa15801561122e573d6000803e3d6000fd5b505050506040513d601f19601f820116820180604052508101906112529190611756565b905060405180604001604052808260c001516001600160a01b03166395d89b416040518163ffffffff1660e01b815260040160006040518083038186803b15801561129c57600080fd5b505afa1580156112b0573d6000803e3d6000fd5b505050506040513d6000823e601f3d908101601f191682016040526112d891908101906116ab565b81526020018260c001516001600160a01b031681525083838151811061130e57634e487b7160e01b600052603260045260246000fd5b602002602001018190525050808061132590611b20565b915050611194565b60006113398284611aba565b90505b92915050565b600061133982846119af565b60006080821060405180604001604052806002815260200161373760f01b815250906113965760405162461bcd60e51b815260040161138d9190611929565b60405180910390fd5b506113a2826002611aba565b6113ad906001611997565b925190921c600116151592915050565b60006080821060405180604001604052806002815260200161373760f01b815250906113fc5760405162461bcd60e51b815260040161138d9190611929565b506113ad826002611aba565b60006113398284611997565b604080518082019091526002815261035360f41b60208201526000908261144e5760405162461bcd60e51b815260040161138d9190611929565b50600061145c6002846119af565b90506b033b2e3c9fd0803ce800000061147782600019611ad9565b61148191906119af565b84111560405180604001604052806002815260200161068760f31b815250906114bd5760405162461bcd60e51b815260040161138d9190611929565b5082816114d66b033b2e3c9fd0803ce800000087611aba565b6114e09190611997565b6114ea91906119af565b949350505050565b80516114fd81611b67565b919050565b600060208284031215611513578081fd5b6040516020810181811067ffffffffffffffff8211171561153657611536611b51565b6040529151825250919050565b80516001600160801b03811681146114fd57600080fd5b805164ffffffffff811681146114fd57600080fd5b805160ff811681146114fd57600080fd5b600060208284031215611591578081fd5b813561159c81611b67565b9392505050565b6000602082840312156115b4578081fd5b815161159c81611b67565b600080604083850312156115d1578081fd5b82356115dc81611b67565b915060208301356115ec81611b67565b809150509250929050565b60006020808385031215611609578182fd5b825167ffffffffffffffff80821115611620578384fd5b818501915085601f830112611633578384fd5b81518181111561164557611645611b51565b8060051b9150611656848301611966565b8181528481019084860184860187018a1015611670578788fd5b8795505b8386101561169e578051945061168985611b67565b84835260019590950194918601918601611674565b5098975050505050505050565b6000602082840312156116bc578081fd5b815167ffffffffffffffff808211156116d3578283fd5b818401915084601f8301126116e6578283fd5b8151818111156116f8576116f8611b51565b61170b601f8201601f1916602001611966565b9150808252856020828501011115611721578384fd5b611732816020840160208601611af0565b50949350505050565b60006020828403121561174c578081fd5b6113398383611502565b60006101408284031215611768578081fd5b61177061193c565b61177a8484611502565b815261178860208401611543565b602082015261179960408401611543565b60408201526117aa60608401611543565b60608201526117bb60808401611543565b60808201526117cc60a0840161155a565b60a08201526117dd60c084016114f2565b60c08201526117ee60e084016114f2565b60e08201526101006118018185016114f2565b9082015261012061181384820161156f565b908201529392505050565b60006020828403121561182f578081fd5b5051919050565b60008060008060008060c0878903121561184e578182fd5b865195506020870151945060408701519350606087015192506080870151915060a087015190509295509295509295565b60008151808452611897816020860160208601611af0565b601f01601f19169290920160200192915050565b60006020808301818452808551808352604092508286019150828160051b870101848801865b8381101561191b57888303603f19018552815180518785526118f58886018261187f565b918901516001600160a01b031694890194909452948701949250908601906001016118d1565b509098975050505050505050565b602081526000611339602083018461187f565b604051610140810167ffffffffffffffff8111828210171561196057611960611b51565b60405290565b604051601f8201601f1916810167ffffffffffffffff8111828210171561198f5761198f611b51565b604052919050565b600082198211156119aa576119aa611b3b565b500190565b6000826119ca57634e487b7160e01b81526012600452602481fd5b500490565b600181815b80851115611a0a5781600019048211156119f0576119f0611b3b565b808516156119fd57918102915b93841c93908002906119d4565b509250929050565b60006113398383600082611a285750600161133c565b81611a355750600061133c565b8160018114611a4b5760028114611a5557611a71565b600191505061133c565b60ff841115611a6657611a66611b3b565b50506001821b61133c565b5060208310610133831016604e8410600b8410161715611a94575081810a61133c565b611a9e83836119cf565b8060001904821115611ab257611ab2611b3b565b029392505050565b6000816000190483118215151615611ad457611ad4611b3b565b500290565b600082821015611aeb57611aeb611b3b565b500390565b60005b83811015611b0b578181015183820152602001611af3565b83811115611b1a576000848401525b50505050565b6000600019821415611b3457611b34611b3b565b5060010190565b634e487b7160e01b600052601160045260246000fd5b634e487b7160e01b600052604160045260246000fd5b6001600160a01b0381168114611b7c57600080fd5b5056fea26469706673582212209d6b3f1b4e01286ce0694e2ff65874e6f0c2533ccb8d1df67cc8b3829310937e64736f6c63430008040033",
  "linkReferences": {},
  "deployedLinkReferences": {}
}