{
  "_format": "hh-sol-artifact-1",
  "contractName": "ProtocolDataProvider",
  "sourceName": "contracts/data_provider/ProtocolDataProvider.sol",
  "abi": [
    {
      "inputs": [
        {
          "internalType": "contract IAddressesProvider",
          "name": "addressesProvider",
          "type": "address"
        }
      ],
      "stateMutability": "nonpayable",
      "type": "constructor"
    },
    {
      "inputs": [],
      "name": "ADDRESSES_PROVIDER",
      "outputs": [
        {
          "internalType": "contract IAddressesProvider",
          "name": "",
          "type": "address"
        }
      ],
      "stateMutability": "view",
      "type": "function"
    },
    {
      "inputs": [],
      "name": "getAllATokens",
      "outputs": [
        {
          "components": [
            {
              "internalType": "string",
              "name": "symbol",
              "type": "string"
            },
            {
              "internalType": "address",
              "name": "tokenAddress",
              "type": "address"
            }
          ],
          "internalType": "struct ProtocolDataProvider.TokenData[]",
          "name": "",
          "type": "tuple[]"
        }
      ],
      "stateMutability": "view",
      "type": "function"
    },
    {
      "inputs": [],
      "name": "getAllReservesTokens",
      "outputs": [
        {
          "components": [
            {
              "internalType": "string",
              "name": "symbol",
              "type": "string"
            },
            {
              "internalType": "address",
              "name": "tokenAddress",
              "type": "address"
            }
          ],
          "internalType": "struct ProtocolDataProvider.TokenData[]",
          "name": "",
          "type": "tuple[]"
        }
      ],
      "stateMutability": "view",
      "type": "function"
    },
    {
      "inputs": [
        {
          "internalType": "address",
          "name": "asset",
          "type": "address"
        }
      ],
      "name": "getReserveConfigurationData",
      "outputs": [
        {
          "internalType": "uint256",
          "name": "decimals",
          "type": "uint256"
        },
        {
          "internalType": "uint256",
          "name": "ltv",
          "type": "uint256"
        },
        {
          "internalType": "uint256",
          "name": "liquidationThreshold",
          "type": "uint256"
        },
        {
          "internalType": "uint256",
          "name": "liquidationBonus",
          "type": "uint256"
        }
      ],
      "stateMutability": "view",
      "type": "function"
    },
    {
      "inputs": [
        {
          "internalType": "address",
          "name": "asset",
          "type": "address"
        }
      ],
      "name": "getReserveData",
      "outputs": [
        {
          "internalType": "uint256",
          "name": "availableLiquidity",
          "type": "uint256"
        },
        {
          "internalType": "uint256",
          "name": "totalVariableDebt",
          "type": "uint256"
        },
        {
          "internalType": "uint256",
          "name": "liquidityRate",
          "type": "uint256"
        },
        {
          "internalType": "uint256",
          "name": "variableBorrowRate",
          "type": "uint256"
        },
        {
          "internalType": "uint256",
          "name": "liquidityIndex",
          "type": "uint256"
        },
        {
          "internalType": "uint256",
          "name": "variableBorrowIndex",
          "type": "uint256"
        },
        {
          "internalType": "uint256",
          "name": "utilizationRate",
          "type": "uint256"
        },
        {
          "internalType": "uint40",
          "name": "lastUpdateTimestamp",
          "type": "uint40"
        }
      ],
      "stateMutability": "view",
      "type": "function"
    },
    {
      "inputs": [
        {
          "internalType": "address",
          "name": "asset",
          "type": "address"
        }
      ],
      "name": "getReserveTokensAddresses",
      "outputs": [
        {
          "internalType": "address",
          "name": "aTokenAddress",
          "type": "address"
        },
        {
          "internalType": "address",
          "name": "variableDebtTokenAddress",
          "type": "address"
        }
      ],
      "stateMutability": "view",
      "type": "function"
    },
    {
      "inputs": [
        {
          "internalType": "address",
          "name": "asset",
          "type": "address"
        },
        {
          "internalType": "address",
          "name": "user",
          "type": "address"
        }
      ],
      "name": "getUserReserveData",
      "outputs": [
        {
          "internalType": "uint256",
          "name": "currentATokenBalance",
          "type": "uint256"
        },
        {
          "internalType": "uint256",
          "name": "currentVariableDebt",
          "type": "uint256"
        },
        {
          "internalType": "uint256",
          "name": "scaledVariableDebt",
          "type": "uint256"
        },
        {
          "internalType": "uint256",
          "name": "liquidityRate",
          "type": "uint256"
        },
        {
          "internalType": "uint256",
          "name": "healthFactor",
          "type": "uint256"
        },
        {
          "internalType": "uint256",
          "name": "availableToBorrow",
          "type": "uint256"
        },
        {
          "internalType": "bool",
          "name": "usageAsCollateralEnabled",
          "type": "bool"
        },
        {
          "internalType": "bool",
          "name": "isBorrowed",
          "type": "bool"
        }
      ],
      "stateMutability": "view",
      "type": "function"
    }
  ],
  "bytecode": "0x60a060405234801561001057600080fd5b50604051611c73380380611c7383398101604081905261002f91610044565b60601b6001600160601b031916608052610072565b600060208284031215610055578081fd5b81516001600160a01b038116811461006b578182fd5b9392505050565b60805160601c611ba56100ce6000396000818160870152818161020001528181610311015281816105b4015281816106e30152818161086e01528181610ae001528181610c2701528181610edd01526110040152611ba56000f3fe608060405234801561001057600080fd5b506004361061007d5760003560e01c80633e1501411161005b5780633e1501411461016d578063b316ff89146101a0578063d2493b6c146101b5578063f561ae41146101e857600080fd5b80630542975c1461008257806328dd2d01146100c657806335ea6a7514610118575b600080fd5b6100a97f000000000000000000000000000000000000000000000000000000000000000081565b6040516001600160a01b0390911681526020015b60405180910390f35b6100d96100d43660046115af565b6101f0565b604080519889526020890197909752958701949094526060860192909252608085015260a0840152151560c0830152151560e0820152610100016100bd565b61012b610126366004611570565b61085e565b604080519889526020890197909752958701949094526060860192909252608085015260a084015260c083015264ffffffffff1660e0820152610100016100bd565b61018061017b366004611570565b610ad6565b6040805194855260208501939093529183015260608201526080016100bd565b6101a8610c21565b6040516100bd919061189b565b6101c86101c3366004611570565b610ed6565b604080516001600160a01b039384168152929091166020830152016100bd565b6101a8610ffe565b60008060008060008060008060007f00000000000000000000000000000000000000000000000000000000000000006001600160a01b0316630261bf8b6040518163ffffffff1660e01b815260040160206040518083038186803b15801561025757600080fd5b505afa15801561026b573d6000803e3d6000fd5b505050506040513d601f19601f8201168201806040525081019061028f9190611593565b6040516335ea6a7560e01b81526001600160a01b038d8116600483015291909116906335ea6a75906024016101406040518083038186803b1580156102d357600080fd5b505afa1580156102e7573d6000803e3d6000fd5b505050506040513d601f19601f8201168201806040525081019061030b9190611746565b905060007f00000000000000000000000000000000000000000000000000000000000000006001600160a01b0316630261bf8b6040518163ffffffff1660e01b815260040160206040518083038186803b15801561036857600080fd5b505afa15801561037c573d6000803e3d6000fd5b505050506040513d601f19601f820116820180604052508101906103a09190611593565b604051634417a58360e01b81526001600160a01b038d811660048301529190911690634417a5839060240160206040518083038186803b1580156103e357600080fd5b505afa1580156103f7573d6000803e3d6000fd5b505050506040513d601f19601f8201168201806040525081019061041b919061172b565b60c08301516040516370a0823160e01b81526001600160a01b038e811660048301529293509116906370a082319060240160206040518083038186803b15801561046457600080fd5b505afa158015610478573d6000803e3d6000fd5b505050506040513d601f19601f8201168201806040525081019061049c919061180e565b60e08301516040516370a0823160e01b81526001600160a01b038e81166004830152929c509116906370a082319060240160206040518083038186803b1580156104e557600080fd5b505afa1580156104f9573d6000803e3d6000fd5b505050506040513d601f19601f8201168201806040525081019061051d919061180e565b60e0830151604051630ed1279f60e11b81526001600160a01b038e81166004830152929b50911690631da24f3e9060240160206040518083038186803b15801561056657600080fd5b505afa15801561057a573d6000803e3d6000fd5b505050506040513d601f19601f8201168201806040525081019061059e919061180e565b975081606001516001600160801b0316965060007f00000000000000000000000000000000000000000000000000000000000000006001600160a01b0316630261bf8b6040518163ffffffff1660e01b815260040160206040518083038186803b15801561060b57600080fd5b505afa15801561061f573d6000803e3d6000fd5b505050506040513d601f19601f820116820180604052508101906106439190611593565b604051632fe4a15f60e21b81526001600160a01b038e81166004830152919091169063bf92857c9060240160c06040518083038186803b15801561068657600080fd5b505afa15801561069a573d6000803e3d6000fd5b505050506040513d601f19601f820116820180604052508101906106be9190611826565b60408051631f94a27560e31b81529051919d5093965061081295506001600160a01b037f000000000000000000000000000000000000000000000000000000000000000016945063fca513a893600480820194506020935090829003018186803b15801561072b57600080fd5b505afa15801561073f573d6000803e3d6000fd5b505050506040513d601f19601f820116820180604052508101906107639190611593565b6001600160a01b031663b3596f078f6040518263ffffffff1660e01b815260040161079d91906001600160a01b0391909116815260200190565b60206040518083038186803b1580156107b557600080fd5b505afa1580156107c9573d6000803e3d6000fd5b505050506040513d601f19601f820116820180604052508101906107ed919061180e565b84515161080c9060301c60ff1661080590600a611a02565b849061131d565b90611332565b955061082f83610120015160ff168361133e90919063ffffffff16565b945061084c83610120015160ff16836113ad90919063ffffffff16565b93505050509295985092959890939650565b60008060008060008060008060007f00000000000000000000000000000000000000000000000000000000000000006001600160a01b0316630261bf8b6040518163ffffffff1660e01b815260040160206040518083038186803b1580156108c557600080fd5b505afa1580156108d9573d6000803e3d6000fd5b505050506040513d601f19601f820116820180604052508101906108fd9190611593565b6040516335ea6a7560e01b81526001600160a01b038c8116600483015291909116906335ea6a75906024016101406040518083038186803b15801561094157600080fd5b505afa158015610955573d6000803e3d6000fd5b505050506040513d601f19601f820116820180604052508101906109799190611746565b9050871561099a5761099561098e8a8a6113f8565b8990611404565b61099d565b60005b60c08201516040516370a0823160e01b81526001600160a01b0391821660048201529194508b16906370a082319060240160206040518083038186803b1580156109e657600080fd5b505afa1580156109fa573d6000803e3d6000fd5b505050506040513d601f19601f82011682018060405250810190610a1e919061180e565b8160e001516001600160a01b03166318160ddd6040518163ffffffff1660e01b815260040160206040518083038186803b158015610a5b57600080fd5b505afa158015610a6f573d6000803e3d6000fd5b505050506040513d601f19601f82011682018060405250810190610a93919061180e565b606083015160808401516020850151604086015160a090960151949f939e506001600160801b039283169d509082169b5081169950909216965092945091925050565b60008060008060007f00000000000000000000000000000000000000000000000000000000000000006001600160a01b0316630261bf8b6040518163ffffffff1660e01b815260040160206040518083038186803b158015610b3757600080fd5b505afa158015610b4b573d6000803e3d6000fd5b505050506040513d601f19601f82011682018060405250810190610b6f9190611593565b60405163c44b11f760e01b81526001600160a01b038881166004830152919091169063c44b11f79060240160206040518083038186803b158015610bb257600080fd5b505afa158015610bc6573d6000803e3d6000fd5b505050506040513d601f19601f82011682018060405250810190610bea919061172b565b9050610c12815161ffff80821692601083901c821692602081901c9092169160301c60ff1690565b99929850909650945092505050565b606060007f00000000000000000000000000000000000000000000000000000000000000006001600160a01b0316630261bf8b6040518163ffffffff1660e01b815260040160206040518083038186803b158015610c7e57600080fd5b505afa158015610c92573d6000803e3d6000fd5b505050506040513d601f19601f82011682018060405250810190610cb69190611593565b90506000816001600160a01b031663d1946dbc6040518163ffffffff1660e01b815260040160006040518083038186803b158015610cf357600080fd5b505afa158015610d07573d6000803e3d6000fd5b505050506040513d6000823e601f3d908101601f19168201604052610d2f91908101906115e7565b90506000815167ffffffffffffffff811115610d5b57634e487b7160e01b600052604160045260246000fd5b604051908082528060200260200182016040528015610da157816020015b604080518082019091526060815260006020820152815260200190600190039081610d795790505b50905060005b8251811015610ece576040518060400160405280848381518110610ddb57634e487b7160e01b600052603260045260246000fd5b60200260200101516001600160a01b03166395d89b416040518163ffffffff1660e01b815260040160006040518083038186803b158015610e1b57600080fd5b505afa158015610e2f573d6000803e3d6000fd5b505050506040513d6000823e601f3d908101601f19168201604052610e57919081019061169b565b8152602001848381518110610e7c57634e487b7160e01b600052603260045260246000fd5b60200260200101516001600160a01b0316815250828281518110610eb057634e487b7160e01b600052603260045260246000fd5b60200260200101819052508080610ec690611b10565b915050610da7565b509392505050565b60008060007f00000000000000000000000000000000000000000000000000000000000000006001600160a01b0316630261bf8b6040518163ffffffff1660e01b815260040160206040518083038186803b158015610f3457600080fd5b505afa158015610f48573d6000803e3d6000fd5b505050506040513d601f19601f82011682018060405250810190610f6c9190611593565b6040516335ea6a7560e01b81526001600160a01b03868116600483015291909116906335ea6a75906024016101406040518083038186803b158015610fb057600080fd5b505afa158015610fc4573d6000803e3d6000fd5b505050506040513d601f19601f82011682018060405250810190610fe89190611746565b90508060c001518160e001519250925050915091565b606060007f00000000000000000000000000000000000000000000000000000000000000006001600160a01b0316630261bf8b6040518163ffffffff1660e01b815260040160206040518083038186803b15801561105b57600080fd5b505afa15801561106f573d6000803e3d6000fd5b505050506040513d601f19601f820116820180604052508101906110939190611593565b90506000816001600160a01b031663d1946dbc6040518163ffffffff1660e01b815260040160006040518083038186803b1580156110d057600080fd5b505afa1580156110e4573d6000803e3d6000fd5b505050506040513d6000823e601f3d908101601f1916820160405261110c91908101906115e7565b90506000815167ffffffffffffffff81111561113857634e487b7160e01b600052604160045260246000fd5b60405190808252806020026020018201604052801561117e57816020015b6040805180820190915260608152600060208201528152602001906001900390816111565790505b50905060005b8251811015610ece576000846001600160a01b03166335ea6a758584815181106111be57634e487b7160e01b600052603260045260246000fd5b60200260200101516040518263ffffffff1660e01b81526004016111f191906001600160a01b0391909116815260200190565b6101406040518083038186803b15801561120a57600080fd5b505afa15801561121e573d6000803e3d6000fd5b505050506040513d601f19601f820116820180604052508101906112429190611746565b905060405180604001604052808260c001516001600160a01b03166395d89b416040518163ffffffff1660e01b815260040160006040518083038186803b15801561128c57600080fd5b505afa1580156112a0573d6000803e3d6000fd5b505050506040513d6000823e601f3d908101601f191682016040526112c8919081019061169b565b81526020018260c001516001600160a01b03168152508383815181106112fe57634e487b7160e01b600052603260045260246000fd5b602002602001018190525050808061131590611b10565b915050611184565b60006113298284611aaa565b90505b92915050565b6000611329828461199f565b60006080821060405180604001604052806002815260200161373760f01b815250906113865760405162461bcd60e51b815260040161137d9190611919565b60405180910390fd5b50611392826002611aaa565b61139d906001611987565b925190921c600116151592915050565b60006080821060405180604001604052806002815260200161373760f01b815250906113ec5760405162461bcd60e51b815260040161137d9190611919565b5061139d826002611aaa565b60006113298284611987565b604080518082019091526002815261035360f41b60208201526000908261143e5760405162461bcd60e51b815260040161137d9190611919565b50600061144c60028461199f565b90506b033b2e3c9fd0803ce800000061146782600019611ac9565b611471919061199f565b84111560405180604001604052806002815260200161068760f31b815250906114ad5760405162461bcd60e51b815260040161137d9190611919565b5082816114c66b033b2e3c9fd0803ce800000087611aaa565b6114d09190611987565b6114da919061199f565b949350505050565b80516114ed81611b57565b919050565b600060208284031215611503578081fd5b6040516020810181811067ffffffffffffffff8211171561152657611526611b41565b6040529151825250919050565b80516001600160801b03811681146114ed57600080fd5b805164ffffffffff811681146114ed57600080fd5b805160ff811681146114ed57600080fd5b600060208284031215611581578081fd5b813561158c81611b57565b9392505050565b6000602082840312156115a4578081fd5b815161158c81611b57565b600080604083850312156115c1578081fd5b82356115cc81611b57565b915060208301356115dc81611b57565b809150509250929050565b600060208083850312156115f9578182fd5b825167ffffffffffffffff80821115611610578384fd5b818501915085601f830112611623578384fd5b81518181111561163557611635611b41565b8060051b9150611646848301611956565b8181528481019084860184860187018a1015611660578788fd5b8795505b8386101561168e578051945061167985611b57565b84835260019590950194918601918601611664565b5098975050505050505050565b6000602082840312156116ac578081fd5b815167ffffffffffffffff808211156116c3578283fd5b818401915084601f8301126116d6578283fd5b8151818111156116e8576116e8611b41565b6116fb601f8201601f1916602001611956565b9150808252856020828501011115611711578384fd5b611722816020840160208601611ae0565b50949350505050565b60006020828403121561173c578081fd5b61132983836114f2565b60006101408284031215611758578081fd5b61176061192c565b61176a84846114f2565b815261177860208401611533565b602082015261178960408401611533565b604082015261179a60608401611533565b60608201526117ab60808401611533565b60808201526117bc60a0840161154a565b60a08201526117cd60c084016114e2565b60c08201526117de60e084016114e2565b60e08201526101006117f18185016114e2565b9082015261012061180384820161155f565b908201529392505050565b60006020828403121561181f578081fd5b5051919050565b60008060008060008060c0878903121561183e578182fd5b865195506020870151945060408701519350606087015192506080870151915060a087015190509295509295509295565b60008151808452611887816020860160208601611ae0565b601f01601f19169290920160200192915050565b60006020808301818452808551808352604092508286019150828160051b870101848801865b8381101561190b57888303603f19018552815180518785526118e58886018261186f565b918901516001600160a01b031694890194909452948701949250908601906001016118c1565b509098975050505050505050565b602081526000611329602083018461186f565b604051610140810167ffffffffffffffff8111828210171561195057611950611b41565b60405290565b604051601f8201601f1916810167ffffffffffffffff8111828210171561197f5761197f611b41565b604052919050565b6000821982111561199a5761199a611b2b565b500190565b6000826119ba57634e487b7160e01b81526012600452602481fd5b500490565b600181815b808511156119fa5781600019048211156119e0576119e0611b2b565b808516156119ed57918102915b93841c93908002906119c4565b509250929050565b60006113298383600082611a185750600161132c565b81611a255750600061132c565b8160018114611a3b5760028114611a4557611a61565b600191505061132c565b60ff841115611a5657611a56611b2b565b50506001821b61132c565b5060208310610133831016604e8410600b8410161715611a84575081810a61132c565b611a8e83836119bf565b8060001904821115611aa257611aa2611b2b565b029392505050565b6000816000190483118215151615611ac457611ac4611b2b565b500290565b600082821015611adb57611adb611b2b565b500390565b60005b83811015611afb578181015183820152602001611ae3565b83811115611b0a576000848401525b50505050565b6000600019821415611b2457611b24611b2b565b5060010190565b634e487b7160e01b600052601160045260246000fd5b634e487b7160e01b600052604160045260246000fd5b6001600160a01b0381168114611b6c57600080fd5b5056fea26469706673582212202dc2e587d00440e8c309740b21f43174eb4986b64862baacd283e9e5b3ccdeff64736f6c63430008040033",
  "linkReferences": {},
  "deployedLinkReferences": {}
}