{
  "_format": "hh-sol-artifact-1",
  "contractName": "ProtocolDataProvider",
  "sourceName": "contracts/data_provider/ProtocolDataProvider.sol",
  "abi": [
    {
      "inputs": [
        {
          "internalType": "contract IAddressesProvider",
          "name": "addressesProvider",
          "type": "address"
        }
      ],
      "stateMutability": "nonpayable",
      "type": "constructor"
    },
    {
      "inputs": [],
      "name": "ADDRESSES_PROVIDER",
      "outputs": [
        {
          "internalType": "contract IAddressesProvider",
          "name": "",
          "type": "address"
        }
      ],
      "stateMutability": "view",
      "type": "function"
    },
    {
      "inputs": [],
      "name": "getAllATokens",
      "outputs": [
        {
          "components": [
            {
              "internalType": "string",
              "name": "symbol",
              "type": "string"
            },
            {
              "internalType": "address",
              "name": "tokenAddress",
              "type": "address"
            }
          ],
          "internalType": "struct ProtocolDataProvider.TokenData[]",
          "name": "",
          "type": "tuple[]"
        }
      ],
      "stateMutability": "view",
      "type": "function"
    },
    {
      "inputs": [],
      "name": "getAllReservesTokens",
      "outputs": [
        {
          "components": [
            {
              "internalType": "string",
              "name": "symbol",
              "type": "string"
            },
            {
              "internalType": "address",
              "name": "tokenAddress",
              "type": "address"
            }
          ],
          "internalType": "struct ProtocolDataProvider.TokenData[]",
          "name": "",
          "type": "tuple[]"
        }
      ],
      "stateMutability": "view",
      "type": "function"
    },
    {
      "inputs": [
        {
          "internalType": "address",
          "name": "asset",
          "type": "address"
        }
      ],
      "name": "getReserveConfigurationData",
      "outputs": [
        {
          "internalType": "uint256",
          "name": "decimals",
          "type": "uint256"
        },
        {
          "internalType": "uint256",
          "name": "ltv",
          "type": "uint256"
        },
        {
          "internalType": "uint256",
          "name": "liquidationThreshold",
          "type": "uint256"
        },
        {
          "internalType": "uint256",
          "name": "liquidationBonus",
          "type": "uint256"
        }
      ],
      "stateMutability": "view",
      "type": "function"
    },
    {
      "inputs": [
        {
          "internalType": "address",
          "name": "asset",
          "type": "address"
        }
      ],
      "name": "getReserveData",
      "outputs": [
        {
          "internalType": "uint256",
          "name": "availableLiquidity",
          "type": "uint256"
        },
        {
          "internalType": "uint256",
          "name": "totalVariableDebt",
          "type": "uint256"
        },
        {
          "internalType": "uint256",
          "name": "liquidityRate",
          "type": "uint256"
        },
        {
          "internalType": "uint256",
          "name": "variableBorrowRate",
          "type": "uint256"
        },
        {
          "internalType": "uint256",
          "name": "liquidityIndex",
          "type": "uint256"
        },
        {
          "internalType": "uint256",
          "name": "variableBorrowIndex",
          "type": "uint256"
        },
        {
          "internalType": "uint256",
          "name": "utilizationRate",
          "type": "uint256"
        },
        {
          "internalType": "uint40",
          "name": "lastUpdateTimestamp",
          "type": "uint40"
        }
      ],
      "stateMutability": "view",
      "type": "function"
    },
    {
      "inputs": [
        {
          "internalType": "address",
          "name": "asset",
          "type": "address"
        }
      ],
      "name": "getReserveTokensAddresses",
      "outputs": [
        {
          "internalType": "address",
          "name": "aTokenAddress",
          "type": "address"
        },
        {
          "internalType": "address",
          "name": "variableDebtTokenAddress",
          "type": "address"
        }
      ],
      "stateMutability": "view",
      "type": "function"
    },
    {
      "inputs": [
        {
          "internalType": "address",
          "name": "asset",
          "type": "address"
        },
        {
          "internalType": "address",
          "name": "user",
          "type": "address"
        }
      ],
      "name": "getUserReserveData",
      "outputs": [
        {
          "internalType": "uint256",
          "name": "currentATokenBalance",
          "type": "uint256"
        },
        {
          "internalType": "uint256",
          "name": "currentVariableDebt",
          "type": "uint256"
        },
        {
          "internalType": "uint256",
          "name": "scaledVariableDebt",
          "type": "uint256"
        },
        {
          "internalType": "uint256",
          "name": "liquidityRate",
          "type": "uint256"
        },
        {
          "internalType": "uint256",
          "name": "healthFactor",
          "type": "uint256"
        },
        {
          "internalType": "uint256",
          "name": "availableToBorrow",
          "type": "uint256"
        },
        {
          "internalType": "bool",
          "name": "usageAsCollateralEnabled",
          "type": "bool"
        },
        {
          "internalType": "bool",
          "name": "isBorrowed",
          "type": "bool"
        }
      ],
      "stateMutability": "view",
      "type": "function"
    },
    {
      "inputs": [
        {
          "internalType": "address",
          "name": "user",
          "type": "address"
        },
        {
          "internalType": "address",
          "name": "asset",
          "type": "address"
        }
      ],
      "name": "getUserReserveLtvAndLt",
      "outputs": [
        {
          "internalType": "uint256",
          "name": "ltv",
          "type": "uint256"
        },
        {
          "internalType": "uint256",
          "name": "liquidationThreshold",
          "type": "uint256"
        }
      ],
      "stateMutability": "view",
      "type": "function"
    },
    {
      "inputs": [
        {
          "internalType": "address",
          "name": "user",
          "type": "address"
        }
      ],
      "name": "getUserReservesData",
      "outputs": [
        {
          "components": [
            {
              "internalType": "address",
              "name": "underlyingAsset",
              "type": "address"
            },
            {
              "internalType": "string",
              "name": "symbol",
              "type": "string"
            },
            {
              "internalType": "uint256",
              "name": "scaledATokenBalance",
              "type": "uint256"
            },
            {
              "internalType": "uint256",
              "name": "currentATokenBalance",
              "type": "uint256"
            },
            {
              "internalType": "uint256",
              "name": "scaledVariableDebt",
              "type": "uint256"
            },
            {
              "internalType": "uint256",
              "name": "currentVariableDebt",
              "type": "uint256"
            }
          ],
          "internalType": "struct ProtocolDataProvider.UserReserveData[]",
          "name": "",
          "type": "tuple[]"
        }
      ],
      "stateMutability": "view",
      "type": "function"
    }
  ],
  "bytecode": "0x60a06040523480156200001157600080fd5b50604051620027443803806200274483398101604081905262000034916200004a565b60601b6001600160601b0319166080526200007a565b6000602082840312156200005c578081fd5b81516001600160a01b038116811462000073578182fd5b9392505050565b60805160601c612658620000ec60003960008181609d0152818161025e0152818161036f0152818161061201528181610741015281816108cc01528181610b4e01528181610c95015281816113b4015281816114f30152818161161c015281816118d201526119f901526126586000f3fe608060405234801561001057600080fd5b50600436106100935760003560e01c806379751e1b1161006657806379751e1b146101b65780637a6eb9d0146101d6578063b316ff89146101fe578063d2493b6c14610213578063f561ae411461024657600080fd5b80630542975c1461009857806328dd2d01146100dc57806335ea6a751461012e5780633e15014114610183575b600080fd5b6100bf7f000000000000000000000000000000000000000000000000000000000000000081565b6040516001600160a01b0390911681526020015b60405180910390f35b6100ef6100ea366004611fa4565b61024e565b604080519889526020890197909752958701949094526060860192909252608085015260a0840152151560c0830152151560e0820152610100016100d3565b61014161013c366004611f65565b6108bc565b604080519889526020890197909752958701949094526060860192909252608085015260a084015260c083015264ffffffffff1660e0820152610100016100d3565b610196610191366004611f65565b610b44565b6040805194855260208501939093529183015260608201526080016100d3565b6101c96101c4366004611f65565b610c8f565b6040516100d39190612331565b6101e96101e4366004611fa4565b6113ad565b604080519283526020830191909152016100d3565b610206611616565b6040516100d391906122b3565b610226610221366004611f65565b6118cb565b604080516001600160a01b039384168152929091166020830152016100d3565b6102066119f3565b60008060008060008060008060007f00000000000000000000000000000000000000000000000000000000000000006001600160a01b0316630261bf8b6040518163ffffffff1660e01b815260040160206040518083038186803b1580156102b557600080fd5b505afa1580156102c9573d6000803e3d6000fd5b505050506040513d601f19601f820116820180604052508101906102ed9190611f88565b6040516335ea6a7560e01b81526001600160a01b038d8116600483015291909116906335ea6a75906024016101406040518083038186803b15801561033157600080fd5b505afa158015610345573d6000803e3d6000fd5b505050506040513d601f19601f82011682018060405250810190610369919061213b565b905060007f00000000000000000000000000000000000000000000000000000000000000006001600160a01b0316630261bf8b6040518163ffffffff1660e01b815260040160206040518083038186803b1580156103c657600080fd5b505afa1580156103da573d6000803e3d6000fd5b505050506040513d601f19601f820116820180604052508101906103fe9190611f88565b604051634417a58360e01b81526001600160a01b038d811660048301529190911690634417a5839060240160206040518083038186803b15801561044157600080fd5b505afa158015610455573d6000803e3d6000fd5b505050506040513d601f19601f820116820180604052508101906104799190612120565b60c08301516040516370a0823160e01b81526001600160a01b038e811660048301529293509116906370a082319060240160206040518083038186803b1580156104c257600080fd5b505afa1580156104d6573d6000803e3d6000fd5b505050506040513d601f19601f820116820180604052508101906104fa9190612203565b60e08301516040516370a0823160e01b81526001600160a01b038e81166004830152929c509116906370a082319060240160206040518083038186803b15801561054357600080fd5b505afa158015610557573d6000803e3d6000fd5b505050506040513d601f19601f8201168201806040525081019061057b9190612203565b60e0830151604051630ed1279f60e11b81526001600160a01b038e81166004830152929b50911690631da24f3e9060240160206040518083038186803b1580156105c457600080fd5b505afa1580156105d8573d6000803e3d6000fd5b505050506040513d601f19601f820116820180604052508101906105fc9190612203565b975081606001516001600160801b0316965060007f00000000000000000000000000000000000000000000000000000000000000006001600160a01b0316630261bf8b6040518163ffffffff1660e01b815260040160206040518083038186803b15801561066957600080fd5b505afa15801561067d573d6000803e3d6000fd5b505050506040513d601f19601f820116820180604052508101906106a19190611f88565b604051632fe4a15f60e21b81526001600160a01b038e81166004830152919091169063bf92857c9060240160c06040518083038186803b1580156106e457600080fd5b505afa1580156106f8573d6000803e3d6000fd5b505050506040513d601f19601f8201168201806040525081019061071c919061223e565b60408051631f94a27560e31b81529051919d5093965061087095506001600160a01b037f000000000000000000000000000000000000000000000000000000000000000016945063fca513a893600480820194506020935090829003018186803b15801561078957600080fd5b505afa15801561079d573d6000803e3d6000fd5b505050506040513d601f19601f820116820180604052508101906107c19190611f88565b6001600160a01b031663b3596f078f6040518263ffffffff1660e01b81526004016107fb91906001600160a01b0391909116815260200190565b60206040518083038186803b15801561081357600080fd5b505afa158015610827573d6000803e3d6000fd5b505050506040513d601f19601f8201168201806040525081019061084b9190612203565b84515161086a9060301c60ff1661086390600a6124b5565b8490611d12565b90611d27565b955061088d83610120015160ff1683611d3390919063ffffffff16565b94506108aa83610120015160ff1683611da290919063ffffffff16565b93505050509295985092959890939650565b60008060008060008060008060007f00000000000000000000000000000000000000000000000000000000000000006001600160a01b0316630261bf8b6040518163ffffffff1660e01b815260040160206040518083038186803b15801561092357600080fd5b505afa158015610937573d6000803e3d6000fd5b505050506040513d601f19601f8201168201806040525081019061095b9190611f88565b6040516335ea6a7560e01b81526001600160a01b038c8116600483015291909116906335ea6a75906024016101406040518083038186803b15801561099f57600080fd5b505afa1580156109b3573d6000803e3d6000fd5b505050506040513d601f19601f820116820180604052508101906109d7919061213b565b905060008160e001516001600160a01b03166318160ddd6040518163ffffffff1660e01b815260040160206040518083038186803b158015610a1857600080fd5b505afa158015610a2c573d6000803e3d6000fd5b505050506040513d601f19601f82011682018060405250810190610a509190612203565b60c08301516040516370a0823160e01b81526001600160a01b039182166004820152919250600091908d16906370a082319060240160206040518083038186803b158015610a9d57600080fd5b505afa158015610ab1573d6000803e3d6000fd5b505050506040513d601f19601f82011682018060405250810190610ad59190612203565b90508115610af657610af1610aea8284611ded565b8390611df9565b610af9565b60005b606084015160808501516020860151604087015160a090970151949e50949c506001600160801b039182169b5081169950928316975091909216945092509050919395975091939597565b60008060008060007f00000000000000000000000000000000000000000000000000000000000000006001600160a01b0316630261bf8b6040518163ffffffff1660e01b815260040160206040518083038186803b158015610ba557600080fd5b505afa158015610bb9573d6000803e3d6000fd5b505050506040513d601f19601f82011682018060405250810190610bdd9190611f88565b60405163c44b11f760e01b81526001600160a01b038881166004830152919091169063c44b11f79060240160206040518083038186803b158015610c2057600080fd5b505afa158015610c34573d6000803e3d6000fd5b505050506040513d601f19601f82011682018060405250810190610c589190612120565b9050610c80815161ffff80821692601083901c821692602081901c9092169160301c60ff1690565b99929850909650945092505050565b606060007f00000000000000000000000000000000000000000000000000000000000000006001600160a01b0316630261bf8b6040518163ffffffff1660e01b815260040160206040518083038186803b158015610cec57600080fd5b505afa158015610d00573d6000803e3d6000fd5b505050506040513d601f19601f82011682018060405250810190610d249190611f88565b90506000816001600160a01b031663d1946dbc6040518163ffffffff1660e01b815260040160006040518083038186803b158015610d6157600080fd5b505afa158015610d75573d6000803e3d6000fd5b505050506040513d6000823e601f3d908101601f19168201604052610d9d9190810190611fdc565b604051634417a58360e01b81526001600160a01b038681166004830152919250600091841690634417a5839060240160206040518083038186803b158015610de457600080fd5b505afa158015610df8573d6000803e3d6000fd5b505050506040513d601f19601f82011682018060405250810190610e1c9190612120565b905060006001600160a01b038616610e35576000610e38565b82515b67ffffffffffffffff811115610e5e57634e487b7160e01b600052604160045260246000fd5b604051908082528060200260200182016040528015610ed157816020015b610ebe6040518060c0016040528060006001600160a01b0316815260200160608152602001600081526020016000815260200160008152602001600081525090565b815260200190600190039081610e7c5790505b50905060005b83518110156113a3576000856001600160a01b03166335ea6a75868481518110610f1157634e487b7160e01b600052603260045260246000fd5b60200260200101516040518263ffffffff1660e01b8152600401610f4491906001600160a01b0391909116815260200190565b6101406040518083038186803b158015610f5d57600080fd5b505afa158015610f71573d6000803e3d6000fd5b505050506040513d601f19601f82011682018060405250810190610f95919061213b565b9050848281518110610fb757634e487b7160e01b600052603260045260246000fd5b6020026020010151838381518110610fdf57634e487b7160e01b600052603260045260246000fd5b60209081029190910101516001600160a01b039091169052845185908390811061101957634e487b7160e01b600052603260045260246000fd5b60200260200101516001600160a01b03166395d89b416040518163ffffffff1660e01b815260040160006040518083038186803b15801561105957600080fd5b505afa15801561106d573d6000803e3d6000fd5b505050506040513d6000823e601f3d908101601f191682016040526110959190810190612090565b8383815181106110b557634e487b7160e01b600052603260045260246000fd5b602090810291909101810151015260c0810151604051630ed1279f60e11b81526001600160a01b038a8116600483015290911690631da24f3e9060240160206040518083038186803b15801561110a57600080fd5b505afa15801561111e573d6000803e3d6000fd5b505050506040513d601f19601f820116820180604052508101906111429190612203565b83838151811061116257634e487b7160e01b600052603260045260246000fd5b602090810291909101015160409081019190915260c082015190516370a0823160e01b81526001600160a01b038a81166004830152909116906370a082319060240160206040518083038186803b1580156111bc57600080fd5b505afa1580156111d0573d6000803e3d6000fd5b505050506040513d601f19601f820116820180604052508101906111f49190612203565b83838151811061121457634e487b7160e01b600052603260045260246000fd5b60209081029190910101516060015261122d8483611da2565b156113905760e0810151604051630ed1279f60e11b81526001600160a01b038a8116600483015290911690631da24f3e9060240160206040518083038186803b15801561127957600080fd5b505afa15801561128d573d6000803e3d6000fd5b505050506040513d601f19601f820116820180604052508101906112b19190612203565b8383815181106112d157634e487b7160e01b600052603260045260246000fd5b60209081029190910101516080015260e08101516040516370a0823160e01b81526001600160a01b038a81166004830152909116906370a082319060240160206040518083038186803b15801561132757600080fd5b505afa15801561133b573d6000803e3d6000fd5b505050506040513d601f19601f8201168201806040525081019061135f9190612203565b83838151811061137f57634e487b7160e01b600052603260045260246000fd5b602002602001015160a00181815250505b508061139b816125c3565b915050610ed7565b5095945050505050565b60008060007f00000000000000000000000000000000000000000000000000000000000000006001600160a01b0316630261bf8b6040518163ffffffff1660e01b815260040160206040518083038186803b15801561140b57600080fd5b505afa15801561141f573d6000803e3d6000fd5b505050506040513d601f19601f820116820180604052508101906114439190611f88565b60405163c44b11f760e01b81526001600160a01b038681166004830152919091169063c44b11f79060240160206040518083038186803b15801561148657600080fd5b505afa15801561149a573d6000803e3d6000fd5b505050506040513d601f19601f820116820180604052508101906114be9190612120565b90506114e6815161ffff80821692601083901c821692602081901c9092169160301c60ff1690565b90505080935081945050507f00000000000000000000000000000000000000000000000000000000000000006001600160a01b0316630261bf8b6040518163ffffffff1660e01b815260040160206040518083038186803b15801561154a57600080fd5b505afa15801561155e573d6000803e3d6000fd5b505050506040513d601f19601f820116820180604052508101906115829190611f88565b60405163434e178f60e01b81526001600160a01b0387811660048301526024820186905260448201859052919091169063434e178f90606401604080518083038186803b1580156115d257600080fd5b505afa1580156115e6573d6000803e3d6000fd5b505050506040513d601f19601f8201168201806040525081019061160a919061221b565b90969095509350505050565b606060007f00000000000000000000000000000000000000000000000000000000000000006001600160a01b0316630261bf8b6040518163ffffffff1660e01b815260040160206040518083038186803b15801561167357600080fd5b505afa158015611687573d6000803e3d6000fd5b505050506040513d601f19601f820116820180604052508101906116ab9190611f88565b90506000816001600160a01b031663d1946dbc6040518163ffffffff1660e01b815260040160006040518083038186803b1580156116e857600080fd5b505afa1580156116fc573d6000803e3d6000fd5b505050506040513d6000823e601f3d908101601f191682016040526117249190810190611fdc565b90506000815167ffffffffffffffff81111561175057634e487b7160e01b600052604160045260246000fd5b60405190808252806020026020018201604052801561179657816020015b60408051808201909152606081526000602082015281526020019060019003908161176e5790505b50905060005b82518110156118c35760405180604001604052808483815181106117d057634e487b7160e01b600052603260045260246000fd5b60200260200101516001600160a01b03166395d89b416040518163ffffffff1660e01b815260040160006040518083038186803b15801561181057600080fd5b505afa158015611824573d6000803e3d6000fd5b505050506040513d6000823e601f3d908101601f1916820160405261184c9190810190612090565b815260200184838151811061187157634e487b7160e01b600052603260045260246000fd5b60200260200101516001600160a01b03168152508282815181106118a557634e487b7160e01b600052603260045260246000fd5b602002602001018190525080806118bb906125c3565b91505061179c565b509392505050565b60008060007f00000000000000000000000000000000000000000000000000000000000000006001600160a01b0316630261bf8b6040518163ffffffff1660e01b815260040160206040518083038186803b15801561192957600080fd5b505afa15801561193d573d6000803e3d6000fd5b505050506040513d601f19601f820116820180604052508101906119619190611f88565b6040516335ea6a7560e01b81526001600160a01b03868116600483015291909116906335ea6a75906024016101406040518083038186803b1580156119a557600080fd5b505afa1580156119b9573d6000803e3d6000fd5b505050506040513d601f19601f820116820180604052508101906119dd919061213b565b90508060c001518160e001519250925050915091565b606060007f00000000000000000000000000000000000000000000000000000000000000006001600160a01b0316630261bf8b6040518163ffffffff1660e01b815260040160206040518083038186803b158015611a5057600080fd5b505afa158015611a64573d6000803e3d6000fd5b505050506040513d601f19601f82011682018060405250810190611a889190611f88565b90506000816001600160a01b031663d1946dbc6040518163ffffffff1660e01b815260040160006040518083038186803b158015611ac557600080fd5b505afa158015611ad9573d6000803e3d6000fd5b505050506040513d6000823e601f3d908101601f19168201604052611b019190810190611fdc565b90506000815167ffffffffffffffff811115611b2d57634e487b7160e01b600052604160045260246000fd5b604051908082528060200260200182016040528015611b7357816020015b604080518082019091526060815260006020820152815260200190600190039081611b4b5790505b50905060005b82518110156118c3576000846001600160a01b03166335ea6a75858481518110611bb357634e487b7160e01b600052603260045260246000fd5b60200260200101516040518263ffffffff1660e01b8152600401611be691906001600160a01b0391909116815260200190565b6101406040518083038186803b158015611bff57600080fd5b505afa158015611c13573d6000803e3d6000fd5b505050506040513d601f19601f82011682018060405250810190611c37919061213b565b905060405180604001604052808260c001516001600160a01b03166395d89b416040518163ffffffff1660e01b815260040160006040518083038186803b158015611c8157600080fd5b505afa158015611c95573d6000803e3d6000fd5b505050506040513d6000823e601f3d908101601f19168201604052611cbd9190810190612090565b81526020018260c001516001600160a01b0316815250838381518110611cf357634e487b7160e01b600052603260045260246000fd5b6020026020010181905250508080611d0a906125c3565b915050611b79565b6000611d1e828461255d565b90505b92915050565b6000611d1e8284612452565b60006080821060405180604001604052806002815260200161373760f01b81525090611d7b5760405162461bcd60e51b8152600401611d7291906123cc565b60405180910390fd5b50611d8782600261255d565b611d9290600161243a565b925190921c600116151592915050565b60006080821060405180604001604052806002815260200161373760f01b81525090611de15760405162461bcd60e51b8152600401611d7291906123cc565b50611d9282600261255d565b6000611d1e828461243a565b604080518082019091526002815261035360f41b602082015260009082611e335760405162461bcd60e51b8152600401611d7291906123cc565b506000611e41600284612452565b90506b033b2e3c9fd0803ce8000000611e5c8260001961257c565b611e669190612452565b84111560405180604001604052806002815260200161068760f31b81525090611ea25760405162461bcd60e51b8152600401611d7291906123cc565b508281611ebb6b033b2e3c9fd0803ce80000008761255d565b611ec5919061243a565b611ecf9190612452565b949350505050565b8051611ee28161260a565b919050565b600060208284031215611ef8578081fd5b6040516020810181811067ffffffffffffffff82111715611f1b57611f1b6125f4565b6040529151825250919050565b80516001600160801b0381168114611ee257600080fd5b805164ffffffffff81168114611ee257600080fd5b805160ff81168114611ee257600080fd5b600060208284031215611f76578081fd5b8135611f818161260a565b9392505050565b600060208284031215611f99578081fd5b8151611f818161260a565b60008060408385031215611fb6578081fd5b8235611fc18161260a565b91506020830135611fd18161260a565b809150509250929050565b60006020808385031215611fee578182fd5b825167ffffffffffffffff80821115612005578384fd5b818501915085601f830112612018578384fd5b81518181111561202a5761202a6125f4565b8060051b915061203b848301612409565b8181528481019084860184860187018a1015612055578788fd5b8795505b83861015612083578051945061206e8561260a565b84835260019590950194918601918601612059565b5098975050505050505050565b6000602082840312156120a1578081fd5b815167ffffffffffffffff808211156120b8578283fd5b818401915084601f8301126120cb578283fd5b8151818111156120dd576120dd6125f4565b6120f0601f8201601f1916602001612409565b9150808252856020828501011115612106578384fd5b612117816020840160208601612593565b50949350505050565b600060208284031215612131578081fd5b611d1e8383611ee7565b6000610140828403121561214d578081fd5b6121556123df565b61215f8484611ee7565b815261216d60208401611f28565b602082015261217e60408401611f28565b604082015261218f60608401611f28565b60608201526121a060808401611f28565b60808201526121b160a08401611f3f565b60a08201526121c260c08401611ed7565b60c08201526121d360e08401611ed7565b60e08201526101006121e6818501611ed7565b908201526101206121f8848201611f54565b908201529392505050565b600060208284031215612214578081fd5b5051919050565b6000806040838503121561222d578182fd5b505080516020909101519092909150565b60008060008060008060c08789031215612256578182fd5b865195506020870151945060408701519350606087015192506080870151915060a087015190509295509295509295565b6000815180845261229f816020860160208601612593565b601f01601f19169290920160200192915050565b60006020808301818452808551808352604092508286019150828160051b870101848801865b8381101561232357888303603f19018552815180518785526122fd88860182612287565b918901516001600160a01b031694890194909452948701949250908601906001016122d9565b509098975050505050505050565b60006020808301818452808551808352604092508286019150828160051b870101848801865b8381101561232357888303603f19018552815180516001600160a01b031684528781015160c08986018190529061239082870182612287565b838a0151878b0152606080850151908801526080808501519088015260a093840151939096019290925250509386019390860190600101612357565b602081526000611d1e6020830184612287565b604051610140810167ffffffffffffffff81118282101715612403576124036125f4565b60405290565b604051601f8201601f1916810167ffffffffffffffff81118282101715612432576124326125f4565b604052919050565b6000821982111561244d5761244d6125de565b500190565b60008261246d57634e487b7160e01b81526012600452602481fd5b500490565b600181815b808511156124ad578160001904821115612493576124936125de565b808516156124a057918102915b93841c9390800290612477565b509250929050565b6000611d1e83836000826124cb57506001611d21565b816124d857506000611d21565b81600181146124ee57600281146124f857612514565b6001915050611d21565b60ff841115612509576125096125de565b50506001821b611d21565b5060208310610133831016604e8410600b8410161715612537575081810a611d21565b6125418383612472565b8060001904821115612555576125556125de565b029392505050565b6000816000190483118215151615612577576125776125de565b500290565b60008282101561258e5761258e6125de565b500390565b60005b838110156125ae578181015183820152602001612596565b838111156125bd576000848401525b50505050565b60006000198214156125d7576125d76125de565b5060010190565b634e487b7160e01b600052601160045260246000fd5b634e487b7160e01b600052604160045260246000fd5b6001600160a01b038116811461261f57600080fd5b5056fea264697066735822122004bece9fc681748d2baaa23a1c81f4770369d84eee7c9c7f194f7cf29912af9864736f6c63430008040033",
  "linkReferences": {},
  "deployedLinkReferences": {}
}